{
  "address": "0xa520D1B134fF05953Be740E56E81d99Bb471F39e",
  "abi": [
    {
      "inputs": [
        {
          "internalType": "contract IWombatRouter",
          "name": "_wombatRouter",
          "type": "address"
        },
        {
          "internalType": "contract IPool",
          "name": "_wombatPool",
          "type": "address"
        },
        {
          "internalType": "address",
          "name": "_poolPath",
          "type": "address"
        },
        {
          "internalType": "address",
          "name": "_weth",
          "type": "address"
        }
      ],
      "stateMutability": "nonpayable",
      "type": "constructor"
    },
    {
      "anonymous": false,
      "inputs": [
        {
          "indexed": true,
          "internalType": "address",
          "name": "previousOwner",
          "type": "address"
        },
        {
          "indexed": true,
          "internalType": "address",
          "name": "newOwner",
          "type": "address"
        }
      ],
      "name": "OwnershipTransferred",
      "type": "event"
    },
    {
      "inputs": [],
      "name": "WETH",
      "outputs": [
        {
          "internalType": "address",
          "name": "",
          "type": "address"
        }
      ],
      "stateMutability": "view",
      "type": "function"
    },
    {
      "inputs": [],
      "name": "WOMBAT_POOL",
      "outputs": [
        {
          "internalType": "contract IPool",
          "name": "",
          "type": "address"
        }
      ],
      "stateMutability": "view",
      "type": "function"
    },
    {
      "inputs": [],
      "name": "WOMBAT_ROUTER",
      "outputs": [
        {
          "internalType": "contract IWombatRouter",
          "name": "",
          "type": "address"
        }
      ],
      "stateMutability": "view",
      "type": "function"
    },
    {
      "inputs": [
        {
          "internalType": "address",
          "name": "_token",
          "type": "address"
        },
        {
          "internalType": "bool",
          "name": "_allow",
          "type": "bool"
        }
      ],
      "name": "allowToken",
      "outputs": [],
      "stateMutability": "nonpayable",
      "type": "function"
    },
    {
      "inputs": [
        {
          "internalType": "address",
          "name": "",
          "type": "address"
        }
      ],
      "name": "allowedTokens",
      "outputs": [
        {
          "internalType": "bool",
          "name": "",
          "type": "bool"
        }
      ],
      "stateMutability": "view",
      "type": "function"
    },
    {
      "inputs": [
        {
          "internalType": "address[]",
          "name": "_path",
          "type": "address[]"
        },
        {
          "internalType": "address[]",
          "name": "_poolPathArr",
          "type": "address[]"
        },
        {
          "internalType": "int256",
          "name": "_amount",
          "type": "int256"
        }
      ],
      "name": "getAmountOut",
      "outputs": [
        {
          "internalType": "uint256",
          "name": "amountOut",
          "type": "uint256"
        },
        {
          "internalType": "uint256[]",
          "name": "haircuts",
          "type": "uint256[]"
        }
      ],
      "stateMutability": "view",
      "type": "function"
    },
    {
      "inputs": [],
      "name": "owner",
      "outputs": [
        {
          "internalType": "address",
          "name": "",
          "type": "address"
        }
      ],
      "stateMutability": "view",
      "type": "function"
    },
    {
      "inputs": [],
      "name": "poolPath",
      "outputs": [
        {
          "internalType": "address",
          "name": "",
          "type": "address"
        }
      ],
      "stateMutability": "view",
      "type": "function"
    },
    {
      "inputs": [
        {
          "internalType": "address",
          "name": "_token",
          "type": "address"
        }
      ],
      "name": "recoverTokens",
      "outputs": [],
      "stateMutability": "nonpayable",
      "type": "function"
    },
    {
      "inputs": [],
      "name": "renounceOwnership",
      "outputs": [],
      "stateMutability": "nonpayable",
      "type": "function"
    },
    {
      "inputs": [
        {
          "internalType": "address",
          "name": "_trustedSender",
          "type": "address"
        },
        {
          "internalType": "bool",
          "name": "_allow",
          "type": "bool"
        }
      ],
      "name": "toggleTrustedSender",
      "outputs": [],
      "stateMutability": "nonpayable",
      "type": "function"
    },
    {
      "inputs": [
        {
          "internalType": "address",
          "name": "newOwner",
          "type": "address"
        }
      ],
      "name": "transferOwnership",
      "outputs": [],
      "stateMutability": "nonpayable",
      "type": "function"
    },
    {
      "inputs": [
        {
          "internalType": "address",
          "name": "",
          "type": "address"
        }
      ],
      "name": "trustedSenders",
      "outputs": [
        {
          "internalType": "bool",
          "name": "",
          "type": "bool"
        }
      ],
      "stateMutability": "view",
      "type": "function"
    },
    {
      "inputs": [
        {
          "internalType": "address",
          "name": "vault",
          "type": "address"
        },
        {
          "internalType": "uint256",
          "name": "termID",
          "type": "uint256"
        }
      ],
      "name": "zapInEth",
      "outputs": [],
      "stateMutability": "payable",
      "type": "function"
    },
    {
      "inputs": [
        {
          "internalType": "address",
          "name": "vault",
          "type": "address"
        },
        {
          "internalType": "uint256",
          "name": "_shares",
          "type": "uint256"
        },
        {
          "internalType": "uint256",
          "name": "termID",
          "type": "uint256"
        }
      ],
      "name": "zapOutETH",
      "outputs": [
        {
          "internalType": "uint256",
          "name": "",
          "type": "uint256"
        }
      ],
      "stateMutability": "nonpayable",
      "type": "function"
    },
    {
      "stateMutability": "payable",
      "type": "receive"
    }
  ],
  "transactionHash": "0xba51b4b2ae7878e2d8120d1b319fa74e125383cb9eea63b0b0225fd54824a1f6",
  "args": [
    "0x0000000000000000000000000000000000000000",
    "0x0000000000000000000000000000000000000000",
    "0x0000000000000000000000000000000000000000",
    "0x0b9f2C8d7FD305D1C7FE8eb132865d1252F42D37"
  ],
  "numDeployments": 1,
  "solcInputHash": "4c3cd66ab0a15c9b0af238afdabf777b",
  "bytecode": "0x60806040523480156200001157600080fd5b50604051620015b8380380620015b8833981016040819052620000349162000100565b6200003f3362000097565b60018055600380546001600160a01b039586166001600160a01b031991821617909155600480549486169482169490941790935560068054928516928416929092179091556005805491909316911617905562000168565b600080546001600160a01b038381166001600160a01b0319831681178455604051919092169283917f8be0079c531659141344cd1fd0a4f28419497f9722a3daafe3b4186f6b6457e09190a35050565b6001600160a01b0381168114620000fd57600080fd5b50565b600080600080608085870312156200011757600080fd5b84516200012481620000e7565b60208601519094506200013781620000e7565b60408601519093506200014a81620000e7565b60608601519092506200015d81620000e7565b939692955090935050565b61144080620001786000396000f3fe6080604052600436106100ec5760003560e01c80636a2a5c131161008a578063b9e598c111610059578063b9e598c1146102a3578063e744092e146102d1578063f2fde38b14610301578063fe81e6ca1461032157600080fd5b80636a2a5c1314610210578063715018a6146102505780638da5cb5b14610265578063ad5c46481461028357600080fd5b8063346bc615116100c6578063346bc6151461018557806355e697c6146101bd5780635bc35ae8146101d05780635d0c430f146101f057600080fd5b806304c9c4e41461011257806316114acd146101325780632dabc5361461015257600080fd5b3661010d576005546001600160a01b0316331461010b5761010b610f5a565b005b600080fd5b34801561011e57600080fd5b5061010b61012d366004610f93565b610341565b34801561013e57600080fd5b5061010b61014d366004610fcc565b610374565b34801561015e57600080fd5b5061017261016d366004610ff0565b6104a0565b6040519081526020015b60405180910390f35b34801561019157600080fd5b506004546101a5906001600160a01b031681565b6040516001600160a01b03909116815260200161017c565b61010b6101cb366004611025565b610663565b3480156101dc57600080fd5b5061010b6101eb366004610f93565b610830565b3480156101fc57600080fd5b506006546101a5906001600160a01b031681565b34801561021c57600080fd5b5061024061022b366004610fcc565b60076020526000908152604090205460ff1681565b604051901515815260200161017c565b34801561025c57600080fd5b5061010b610863565b34801561027157600080fd5b506000546001600160a01b03166101a5565b34801561028f57600080fd5b506005546101a5906001600160a01b031681565b3480156102af57600080fd5b506102c36102be366004611130565b610877565b60405161017c92919061119d565b3480156102dd57600080fd5b506102406102ec366004610fcc565b60026020526000908152604090205460ff1681565b34801561030d57600080fd5b5061010b61031c366004610fcc565b610902565b34801561032d57600080fd5b506003546101a5906001600160a01b031681565b610349610978565b6001600160a01b03919091166000908152600760205260409020805460ff1916911515919091179055565b61037c610978565b6001600160a01b03811661041c57604051600090339047908381818185875af1925050503d80600081146103cc576040519150601f19603f3d011682016040523d82523d6000602084013e6103d1565b606091505b50509050806104185760405162461bcd60e51b815260206004820152600e60248201526d19985a5b1959081d1bc81cd95b9960921b60448201526064015b60405180910390fd5b5050565b6040516370a0823160e01b81523060048201526000906001600160a01b038316906370a0823190602401602060405180830381865afa158015610463573d6000803e3d6000fd5b505050506040513d601f19601f8201168201806040525081019061048791906111eb565b90506104186001600160a01b03831633836109d2565b50565b3360009081526007602052604081205460ff166104cf5760405162461bcd60e51b815260040161040f90611204565b6000831161051f5760405162461bcd60e51b815260206004820152601f60248201527f416d6f756e742073686f756c642062652067726561746572207468616e203000604482015260640161040f565b6040516333f3157560e01b8152600481018490526024810183905284906001600160a01b038216906333f3157590604401600060405180830381600087803b15801561056a57600080fd5b505af115801561057e573d6000803e3d6000fd5b50506005546040516370a0823160e01b8152306004820152600093506001600160a01b0390911691506370a0823190602401602060405180830381865afa1580156105cd573d6000803e3d6000fd5b505050506040513d601f19601f820116820180604052508101906105f191906111eb565b600554604051632e1a7d4d60e01b8152600481018390529192506001600160a01b031690632e1a7d4d90602401600060405180830381600087803b15801561063857600080fd5b505af115801561064c573d6000803e3d6000fd5b5050505061065a3382610a3a565b95945050505050565b3360009081526007602052604090205460ff166106925760405162461bcd60e51b815260040161040f90611204565b600034116106f25760405162461bcd60e51b815260206004820152602760248201527f4465706f73697420616d6f756e742073686f756c6420626520677265617465726044820152660207468616e20360cc1b606482015260840161040f565b6000826001600160a01b0316631f1fcd516040518163ffffffff1660e01b8152600401602060405180830381865afa158015610732573d6000803e3d6000fd5b505050506040513d601f19601f820116820180604052508101906107569190611246565b9050600560009054906101000a90046001600160a01b03166001600160a01b031663d0e30db0346040518263ffffffff1660e01b81526004016000604051808303818588803b1580156107a857600080fd5b505af11580156107bc573d6000803e3d6000fd5b50505050506107cb8184610b03565b6040516378ba898f60e01b8152346004820152602481018390526001600160a01b038416906378ba898f90604401600060405180830381600087803b15801561081357600080fd5b505af1158015610827573d6000803e3d6000fd5b50505050505050565b610838610978565b6001600160a01b03919091166000908152600260205260409020805460ff1916911515919091179055565b61086b610978565b6108756000610b90565b565b60035460405163b9e598c160e01b81526000916060916001600160a01b039091169063b9e598c1906108b1908890889088906004016112a7565b600060405180830381865afa1580156108ce573d6000803e3d6000fd5b505050506040513d6000823e601f3d908101601f191682016040526108f691908101906112dd565b91509150935093915050565b61090a610978565b6001600160a01b03811661096f5760405162461bcd60e51b815260206004820152602660248201527f4f776e61626c653a206e6577206f776e657220697320746865207a65726f206160448201526564647265737360d01b606482015260840161040f565b61049d81610b90565b6000546001600160a01b031633146108755760405162461bcd60e51b815260206004820181905260248201527f4f776e61626c653a2063616c6c6572206973206e6f7420746865206f776e6572604482015260640161040f565b6040516001600160a01b038316602482015260448101829052610a3590849063a9059cbb60e01b906064015b60408051601f198184030181529190526020810180516001600160e01b03166001600160e01b031990931692909217909152610be0565b505050565b604080516000808252602082019092526001600160a01b038416908390604051610a64919061139e565b60006040518083038185875af1925050503d8060008114610aa1576040519150601f19603f3d011682016040523d82523d6000602084013e610aa6565b606091505b5050905080610a355760405162461bcd60e51b815260206004820152602360248201527f5472616e7366657248656c7065723a204554485f5452414e534645525f46414960448201526213115160ea1b606482015260840161040f565b604051636eb1769f60e11b81523060048201526001600160a01b03828116602483015283169063dd62ed3e90604401602060405180830381865afa158015610b4f573d6000803e3d6000fd5b505050506040513d601f19601f82011682018060405250810190610b7391906111eb565b600003610418576104186001600160a01b03831682600019610cb5565b600080546001600160a01b038381166001600160a01b0319831681178455604051919092169283917f8be0079c531659141344cd1fd0a4f28419497f9722a3daafe3b4186f6b6457e09190a35050565b6000610c35826040518060400160405280602081526020017f5361666545524332303a206c6f772d6c6576656c2063616c6c206661696c6564815250856001600160a01b0316610dca9092919063ffffffff16565b9050805160001480610c56575080806020019051810190610c5691906113ba565b610a355760405162461bcd60e51b815260206004820152602a60248201527f5361666545524332303a204552433230206f7065726174696f6e20646964206e6044820152691bdd081cdd58d8d9595960b21b606482015260840161040f565b801580610d2f5750604051636eb1769f60e11b81523060048201526001600160a01b03838116602483015284169063dd62ed3e90604401602060405180830381865afa158015610d09573d6000803e3d6000fd5b505050506040513d601f19601f82011682018060405250810190610d2d91906111eb565b155b610d9a5760405162461bcd60e51b815260206004820152603660248201527f5361666545524332303a20617070726f76652066726f6d206e6f6e2d7a65726f60448201527520746f206e6f6e2d7a65726f20616c6c6f77616e636560501b606482015260840161040f565b6040516001600160a01b038316602482015260448101829052610a3590849063095ea7b360e01b906064016109fe565b6060610dd98484600085610de1565b949350505050565b606082471015610e425760405162461bcd60e51b815260206004820152602660248201527f416464726573733a20696e73756666696369656e742062616c616e636520666f6044820152651c8818d85b1b60d21b606482015260840161040f565b600080866001600160a01b03168587604051610e5e919061139e565b60006040518083038185875af1925050503d8060008114610e9b576040519150601f19603f3d011682016040523d82523d6000602084013e610ea0565b606091505b5091509150610eb187838387610ebc565b979650505050505050565b60608315610f2b578251600003610f24576001600160a01b0385163b610f245760405162461bcd60e51b815260206004820152601d60248201527f416464726573733a2063616c6c20746f206e6f6e2d636f6e7472616374000000604482015260640161040f565b5081610dd9565b610dd98383815115610f405781518083602001fd5b8060405162461bcd60e51b815260040161040f91906113d7565b634e487b7160e01b600052600160045260246000fd5b6001600160a01b038116811461049d57600080fd5b801515811461049d57600080fd5b60008060408385031215610fa657600080fd5b8235610fb181610f70565b91506020830135610fc181610f85565b809150509250929050565b600060208284031215610fde57600080fd5b8135610fe981610f70565b9392505050565b60008060006060848603121561100557600080fd5b833561101081610f70565b95602085013595506040909401359392505050565b6000806040838503121561103857600080fd5b823561104381610f70565b946020939093013593505050565b634e487b7160e01b600052604160045260246000fd5b604051601f8201601f1916810167ffffffffffffffff8111828210171561109057611090611051565b604052919050565b600067ffffffffffffffff8211156110b2576110b2611051565b5060051b60200190565b600082601f8301126110cd57600080fd5b813560206110e26110dd83611098565b611067565b82815260059290921b8401810191818101908684111561110157600080fd5b8286015b8481101561112557803561111881610f70565b8352918301918301611105565b509695505050505050565b60008060006060848603121561114557600080fd5b833567ffffffffffffffff8082111561115d57600080fd5b611169878388016110bc565b9450602086013591508082111561117f57600080fd5b5061118c868287016110bc565b925050604084013590509250925092565b6000604082018483526020604081850152818551808452606086019150828701935060005b818110156111de578451835293830193918301916001016111c2565b5090979650505050505050565b6000602082840312156111fd57600080fd5b5051919050565b60208082526022908201527f6f6e6c7920747275737465722073656e646572732063616e2063616c6c207468604082015261697360f01b606082015260800190565b60006020828403121561125857600080fd5b8151610fe981610f70565b600081518084526020808501945080840160005b8381101561129c5781516001600160a01b031687529582019590820190600101611277565b509495945050505050565b6060815260006112ba6060830186611263565b82810360208401526112cc8186611263565b915050826040830152949350505050565b600080604083850312156112f057600080fd5b8251915060208084015167ffffffffffffffff81111561130f57600080fd5b8401601f8101861361132057600080fd5b805161132e6110dd82611098565b81815260059190911b8201830190838101908883111561134d57600080fd5b928401925b8284101561136b57835182529284019290840190611352565b80955050505050509250929050565b60005b8381101561139557818101518382015260200161137d565b50506000910152565b600082516113b081846020870161137a565b9190910192915050565b6000602082840312156113cc57600080fd5b8151610fe981610f85565b60208152600082518060208401526113f681604085016020870161137a565b601f01601f1916919091016040019291505056fea2646970667358221220e8e25ab2ad8d5849109a7f44bd5b62cf9adcb6b812c4343d54c95aaa7558b5e464736f6c63430008120033",
  "devdoc": {
    "kind": "dev",
    "methods": {
      "owner()": {
        "details": "Returns the address of the current owner."
      },
      "recoverTokens(address)": {
        "details": "Rescues random funds stuck that the strat can't handle.",
        "params": {
          "_token": "address of the token to rescue."
        }
      },
      "renounceOwnership()": {
        "details": "Leaves the contract without owner. It will not be possible to call `onlyOwner` functions. Can only be called by the current owner. NOTE: Renouncing ownership will leave the contract without an owner, thereby disabling any functionality that is only available to the owner."
      },
      "transferOwnership(address)": {
        "details": "Transfers ownership of the contract to a new account (`newOwner`). Can only be called by the current owner."
      }
    },
    "version": 1
  },
  "userdoc": {
    "kind": "user",
    "methods": {},
    "version": 1
  },
  "storageLayout": {
    "storage": [
      {
        "astId": 53,
        "contract": "contracts/mocks/zaynfi/protocol/ZaynZapV2TakaDAOMock.sol:ZaynZapV2TakaDAOMock",
        "label": "_owner",
        "offset": 0,
        "slot": "0",
        "type": "t_address"
      },
      {
        "astId": 277,
        "contract": "contracts/mocks/zaynfi/protocol/ZaynZapV2TakaDAOMock.sol:ZaynZapV2TakaDAOMock",
        "label": "_status",
        "offset": 0,
        "slot": "1",
        "type": "t_uint256"
      },
      {
        "astId": 14805,
        "contract": "contracts/mocks/zaynfi/protocol/ZaynZapV2TakaDAOMock.sol:ZaynZapV2TakaDAOMock",
        "label": "allowedTokens",
        "offset": 0,
        "slot": "2",
        "type": "t_mapping(t_address,t_bool)"
      },
      {
        "astId": 14808,
        "contract": "contracts/mocks/zaynfi/protocol/ZaynZapV2TakaDAOMock.sol:ZaynZapV2TakaDAOMock",
        "label": "WOMBAT_ROUTER",
        "offset": 0,
        "slot": "3",
        "type": "t_contract(IWombatRouter)12875"
      },
      {
        "astId": 14811,
        "contract": "contracts/mocks/zaynfi/protocol/ZaynZapV2TakaDAOMock.sol:ZaynZapV2TakaDAOMock",
        "label": "WOMBAT_POOL",
        "offset": 0,
        "slot": "4",
        "type": "t_contract(IPool)12521"
      },
      {
        "astId": 14813,
        "contract": "contracts/mocks/zaynfi/protocol/ZaynZapV2TakaDAOMock.sol:ZaynZapV2TakaDAOMock",
        "label": "WETH",
        "offset": 0,
        "slot": "5",
        "type": "t_address"
      },
      {
        "astId": 14815,
        "contract": "contracts/mocks/zaynfi/protocol/ZaynZapV2TakaDAOMock.sol:ZaynZapV2TakaDAOMock",
        "label": "poolPath",
        "offset": 0,
        "slot": "6",
        "type": "t_address"
      },
      {
        "astId": 14819,
        "contract": "contracts/mocks/zaynfi/protocol/ZaynZapV2TakaDAOMock.sol:ZaynZapV2TakaDAOMock",
        "label": "trustedSenders",
        "offset": 0,
        "slot": "7",
        "type": "t_mapping(t_address,t_bool)"
      }
    ],
    "types": {
      "t_address": {
        "encoding": "inplace",
        "label": "address",
        "numberOfBytes": "20"
      },
      "t_bool": {
        "encoding": "inplace",
        "label": "bool",
        "numberOfBytes": "1"
      },
      "t_contract(IPool)12521": {
        "encoding": "inplace",
        "label": "contract IPool",
        "numberOfBytes": "20"
      },
      "t_contract(IWombatRouter)12875": {
        "encoding": "inplace",
        "label": "contract IWombatRouter",
        "numberOfBytes": "20"
      },
      "t_mapping(t_address,t_bool)": {
        "encoding": "mapping",
        "key": "t_address",
        "label": "mapping(address => bool)",
        "numberOfBytes": "32",
        "value": "t_bool"
      },
      "t_uint256": {
        "encoding": "inplace",
        "label": "uint256",
        "numberOfBytes": "32"
      }
    }
  }
}