{
  "address": "0xd12b5EB920615B37Fe0E4194a449FfeCD2CE18d2",
  "abi": [
    {
      "inputs": [
        {
          "internalType": "contract IStrategy",
          "name": "_strategy",
          "type": "address"
        },
        {
          "internalType": "uint256",
          "name": "_approvalDelay",
          "type": "uint256"
        }
      ],
      "stateMutability": "nonpayable",
      "type": "constructor"
    },
    {
      "anonymous": false,
      "inputs": [
        {
          "indexed": true,
          "internalType": "uint256",
          "name": "term",
          "type": "uint256"
        },
        {
          "indexed": false,
          "internalType": "uint256",
          "name": "amount",
          "type": "uint256"
        }
      ],
      "name": "Deposit",
      "type": "event"
    },
    {
      "anonymous": false,
      "inputs": [
        {
          "indexed": false,
          "internalType": "address",
          "name": "implementation",
          "type": "address"
        }
      ],
      "name": "NewStratCandidate",
      "type": "event"
    },
    {
      "anonymous": false,
      "inputs": [
        {
          "indexed": true,
          "internalType": "address",
          "name": "previousOwner",
          "type": "address"
        },
        {
          "indexed": true,
          "internalType": "address",
          "name": "newOwner",
          "type": "address"
        }
      ],
      "name": "OwnershipTransferred",
      "type": "event"
    },
    {
      "anonymous": false,
      "inputs": [
        {
          "indexed": false,
          "internalType": "address",
          "name": "implementation",
          "type": "address"
        }
      ],
      "name": "UpgradeStrat",
      "type": "event"
    },
    {
      "anonymous": false,
      "inputs": [
        {
          "indexed": true,
          "internalType": "uint256",
          "name": "term",
          "type": "uint256"
        },
        {
          "indexed": false,
          "internalType": "uint256",
          "name": "amount",
          "type": "uint256"
        }
      ],
      "name": "Withdraw",
      "type": "event"
    },
    {
      "inputs": [],
      "name": "approvalDelay",
      "outputs": [
        {
          "internalType": "uint256",
          "name": "",
          "type": "uint256"
        }
      ],
      "stateMutability": "view",
      "type": "function"
    },
    {
      "inputs": [],
      "name": "available",
      "outputs": [
        {
          "internalType": "uint256",
          "name": "",
          "type": "uint256"
        }
      ],
      "stateMutability": "view",
      "type": "function"
    },
    {
      "inputs": [],
      "name": "balance",
      "outputs": [
        {
          "internalType": "uint256",
          "name": "",
          "type": "uint256"
        }
      ],
      "stateMutability": "view",
      "type": "function"
    },
    {
      "inputs": [
        {
          "internalType": "uint256",
          "name": "termId",
          "type": "uint256"
        }
      ],
      "name": "balanceOf",
      "outputs": [
        {
          "internalType": "uint256",
          "name": "",
          "type": "uint256"
        }
      ],
      "stateMutability": "view",
      "type": "function"
    },
    {
      "inputs": [
        {
          "internalType": "uint256",
          "name": "_amount",
          "type": "uint256"
        },
        {
          "internalType": "uint256",
          "name": "_term",
          "type": "uint256"
        }
      ],
      "name": "depositZap",
      "outputs": [],
      "stateMutability": "nonpayable",
      "type": "function"
    },
    {
      "inputs": [],
      "name": "earn",
      "outputs": [],
      "stateMutability": "nonpayable",
      "type": "function"
    },
    {
      "inputs": [],
      "name": "getPricePerFullShare",
      "outputs": [
        {
          "internalType": "uint256",
          "name": "",
          "type": "uint256"
        }
      ],
      "stateMutability": "view",
      "type": "function"
    },
    {
      "inputs": [],
      "name": "owner",
      "outputs": [
        {
          "internalType": "address",
          "name": "",
          "type": "address"
        }
      ],
      "stateMutability": "view",
      "type": "function"
    },
    {
      "inputs": [
        {
          "internalType": "address",
          "name": "_implementation",
          "type": "address"
        }
      ],
      "name": "proposeStrat",
      "outputs": [],
      "stateMutability": "nonpayable",
      "type": "function"
    },
    {
      "inputs": [],
      "name": "renounceOwnership",
      "outputs": [],
      "stateMutability": "nonpayable",
      "type": "function"
    },
    {
      "inputs": [
        {
          "internalType": "address",
          "name": "_token",
          "type": "address"
        }
      ],
      "name": "rescueTokens",
      "outputs": [],
      "stateMutability": "nonpayable",
      "type": "function"
    },
    {
      "inputs": [
        {
          "internalType": "address",
          "name": "_zapAddress",
          "type": "address"
        }
      ],
      "name": "setZapAddress",
      "outputs": [],
      "stateMutability": "nonpayable",
      "type": "function"
    },
    {
      "inputs": [],
      "name": "stratCandidate",
      "outputs": [
        {
          "internalType": "address",
          "name": "implementation",
          "type": "address"
        },
        {
          "internalType": "uint256",
          "name": "proposedTime",
          "type": "uint256"
        }
      ],
      "stateMutability": "view",
      "type": "function"
    },
    {
      "inputs": [],
      "name": "strategy",
      "outputs": [
        {
          "internalType": "contract IStrategy",
          "name": "",
          "type": "address"
        }
      ],
      "stateMutability": "view",
      "type": "function"
    },
    {
      "inputs": [
        {
          "internalType": "uint256",
          "name": "",
          "type": "uint256"
        }
      ],
      "name": "termInfo",
      "outputs": [
        {
          "internalType": "uint256",
          "name": "amount",
          "type": "uint256"
        }
      ],
      "stateMutability": "view",
      "type": "function"
    },
    {
      "inputs": [
        {
          "internalType": "bool",
          "name": "_toggle",
          "type": "bool"
        }
      ],
      "name": "toggleZap",
      "outputs": [],
      "stateMutability": "nonpayable",
      "type": "function"
    },
    {
      "inputs": [],
      "name": "totalSupply",
      "outputs": [
        {
          "internalType": "uint256",
          "name": "",
          "type": "uint256"
        }
      ],
      "stateMutability": "view",
      "type": "function"
    },
    {
      "inputs": [
        {
          "internalType": "address",
          "name": "newOwner",
          "type": "address"
        }
      ],
      "name": "transferOwnership",
      "outputs": [],
      "stateMutability": "nonpayable",
      "type": "function"
    },
    {
      "inputs": [],
      "name": "upgradeStrat",
      "outputs": [],
      "stateMutability": "nonpayable",
      "type": "function"
    },
    {
      "inputs": [],
      "name": "want",
      "outputs": [
        {
          "internalType": "contract IERC20",
          "name": "",
          "type": "address"
        }
      ],
      "stateMutability": "view",
      "type": "function"
    },
    {
      "inputs": [
        {
          "internalType": "uint256",
          "name": "_shares",
          "type": "uint256"
        },
        {
          "internalType": "uint256",
          "name": "_term",
          "type": "uint256"
        }
      ],
      "name": "withdrawZap",
      "outputs": [],
      "stateMutability": "nonpayable",
      "type": "function"
    },
    {
      "inputs": [],
      "name": "zapAddress",
      "outputs": [
        {
          "internalType": "address",
          "name": "",
          "type": "address"
        }
      ],
      "stateMutability": "view",
      "type": "function"
    },
    {
      "inputs": [],
      "name": "zapEnabled",
      "outputs": [
        {
          "internalType": "bool",
          "name": "",
          "type": "bool"
        }
      ],
      "stateMutability": "view",
      "type": "function"
    }
  ],
  "transactionHash": "0x3a3655cdbfebbf560e7f7341d573befbd99ba6a83d6fe2372a406988e4107c0b",
  "args": [
    "0xa520D1B134fF05953Be740E56E81d99Bb471F39e",
    1000
  ],
  "numDeployments": 1,
  "solcInputHash": "4c3cd66ab0a15c9b0af238afdabf777b",
  "bytecode": "0x60a06040526007805460ff60a01b1916905534801561001d57600080fd5b5060405161196638038061196683398101604081905261003c916100c2565b61004533610072565b60018055600580546001600160a01b0319166001600160a01b0393909316929092179091556080526100fc565b600080546001600160a01b038381166001600160a01b0319831681178455604051919092169283917f8be0079c531659141344cd1fd0a4f28419497f9722a3daafe3b4186f6b6457e09190a35050565b600080604083850312156100d557600080fd5b82516001600160a01b03811681146100ec57600080fd5b6020939093015192949293505050565b60805161184861011e600039600081816102ec0152610b0401526118486000f3fe608060405234801561001057600080fd5b506004361061014c5760003560e01c806377c7b8fc116100c3578063b69ef8a81161007c578063b69ef8a8146102d7578063d389800f146102df578063e2d1e75c146102e7578063e66852441461030e578063f043299314610316578063f2fde38b1461032957600080fd5b806377c7b8fc1461026557806378ba898f1461026d5780638da5cb5b146102805780639c11597d146102915780639cc7f708146102a4578063a8c62e76146102c457600080fd5b806333f315751161011557806333f31575146101d9578063340e92e8146101ec57806348a0d7541461020c5780635b12ff9b14610214578063715018a61461022757806376dfabb81461022f57600080fd5b8062ae3bf814610151578063086348351461016657806318160ddd1461018f5780631a331eb1146101a65780631f1fcd51146101d1575b600080fd5b61016461015f36600461164d565b61033c565b005b60075461017a90600160a01b900460ff1681565b60405190151581526020015b60405180910390f35b61019860065481565b604051908152602001610186565b6007546101b9906001600160a01b031681565b6040516001600160a01b039091168152602001610186565b6101b96104b9565b6101646101e7366004611671565b61052c565b6101986101fa366004611693565b60026020526000908152604090205481565b6101986105d0565b61016461022236600461164d565b610644565b61016461077f565b600354600454610246916001600160a01b03169082565b604080516001600160a01b039093168352602083019190915201610186565b610198610793565b61016461027b366004611671565b6107d2565b6000546001600160a01b03166101b9565b61016461029f36600461164d565b610887565b6101986102b2366004611693565b60009081526002602052604090205490565b6005546101b9906001600160a01b031681565b61019861090c565b610164610a00565b6101987f000000000000000000000000000000000000000000000000000000000000000081565b610164610aa1565b6101646103243660046116ba565b610dad565b61016461033736600461164d565b610dd3565b610344610e49565b61034c6104b9565b6001600160a01b0316816001600160a01b03160361039a5760405162461bcd60e51b815260206004820152600660248201526510ba37b5b2b760d11b60448201526064015b60405180910390fd5b6001600160a01b03811661043557604051600090339047908381818185875af1925050503d80600081146103ea576040519150601f19603f3d011682016040523d82523d6000602084013e6103ef565b606091505b50509050806104315760405162461bcd60e51b815260206004820152600e60248201526d19985a5b1959081d1bc81cd95b9960921b6044820152606401610391565b5050565b6040516370a0823160e01b81523060048201526000906001600160a01b038316906370a0823190602401602060405180830381865afa15801561047c573d6000803e3d6000fd5b505050506040513d601f19601f820116820180604052508101906104a091906116d7565b90506104316001600160a01b0383163383610ea3565b50565b60055460408051631f1fcd5160e01b815290516000926001600160a01b031691631f1fcd519160048083019260209291908290030181865afa158015610503573d6000803e3d6000fd5b505050506040513d601f19601f8201168201806040525081019061052791906116f0565b905090565b6007546001600160a01b0316331461057a5760405162461bcd60e51b815260206004820152601160248201527013db9b1e481e985c0818d85b8818d85b1b607a1b6044820152606401610391565b600754600160a01b900460ff166105c55760405162461bcd60e51b815260206004820152600f60248201526e16985c081b9bdd08195b98589b1959608a1b6044820152606401610391565b610431828233610f0b565b60006105da6104b9565b6040516370a0823160e01b81523060048201526001600160a01b0391909116906370a0823190602401602060405180830381865afa158015610620573d6000803e3d6000fd5b505050506040513d601f19601f8201168201806040525081019061052791906116d7565b61064c610e49565b806001600160a01b031663fbfa77cf6040518163ffffffff1660e01b8152600401602060405180830381865afa15801561068a573d6000803e3d6000fd5b505050506040513d601f19601f820116820180604052508101906106ae91906116f0565b6001600160a01b0316306001600160a01b0316146107185760405162461bcd60e51b815260206004820152602160248201527f50726f706f73616c206e6f742076616c696420666f722074686973205661756c6044820152601d60fa1b6064820152608401610391565b6040805180820182526001600160a01b038316808252426020928301819052600380546001600160a01b0319168317905560045591519182527f1aae2ec5647db56da2d513de40528ba3565c6057525637050660c4323bbac7df910160405180910390a150565b610787610e49565b6107916000611175565b565b60006006546000146107c5576105276006546107bf670de0b6b3a76400006107b961090c565b906111c5565b906111da565b50670de0b6b3a764000090565b6107da6111e6565b6007546001600160a01b031633146108285760405162461bcd60e51b815260206004820152601160248201527013db9b1e481e985c0818d85b8818d85b1b607a1b6044820152606401610391565b600754600160a01b900460ff166108735760405162461bcd60e51b815260206004820152600f60248201526e16985c081b9bdd08195b98589b1959608a1b6044820152606401610391565b61087e82823361123f565b61043160018055565b61088f610e49565b6001600160a01b0381166108e55760405162461bcd60e51b815260206004820152601f60248201527f4e6577207a61702061646472657373206973207a65726f2061646472657373006044820152606401610391565b600780546001600160a81b0319166001600160a01b0390921691909117600160a01b179055565b6000610527600560009054906101000a90046001600160a01b03166001600160a01b031663722713f76040518163ffffffff1660e01b8152600401602060405180830381865afa158015610964573d6000803e3d6000fd5b505050506040513d601f19601f8201168201806040525081019061098891906116d7565b6109906104b9565b6040516370a0823160e01b81523060048201526001600160a01b0391909116906370a0823190602401602060405180830381865afa1580156109d6573d6000803e3d6000fd5b505050506040513d601f19601f820116820180604052508101906109fa91906116d7565b9061137d565b6000610a0a6105d0565b600554909150610a36906001600160a01b031682610a266104b9565b6001600160a01b03169190610ea3565b600560009054906101000a90046001600160a01b03166001600160a01b031663d0e30db06040518163ffffffff1660e01b8152600401600060405180830381600087803b158015610a8657600080fd5b505af1158015610a9a573d6000803e3d6000fd5b5050505050565b610aa9610e49565b6003546001600160a01b0316610af95760405162461bcd60e51b81526020600482015260156024820152745468657265206973206e6f2063616e64696461746560581b6044820152606401610391565b6004544290610b28907f000000000000000000000000000000000000000000000000000000000000000061137d565b10610b6c5760405162461bcd60e51b815260206004820152601460248201527311195b185e481a185cc81b9bdd081c185cdcd95960621b6044820152606401610391565b6003546040516001600160a01b0390911681527f7f37d440e85aba7fbf641c4bda5ca4ef669a80bffaacde2aa8d9feb1b048c82c9060200160405180910390a160055460408051631f1fcd5160e01b815290516000926001600160a01b031691631f1fcd519160048083019260209291908290030181865afa158015610bf6573d6000803e3d6000fd5b505050506040513d601f19601f82011682018060405250810190610c1a91906116f0565b9050600560009054906101000a90046001600160a01b03166001600160a01b031663fb6177876040518163ffffffff1660e01b8152600401600060405180830381600087803b158015610c6c57600080fd5b505af1158015610c80573d6000803e3d6000fd5b5050600354600580546001600160a01b0319166001600160a01b039283161790556040516370a0823160e01b81523060048201526000935090841691506370a0823190602401602060405180830381865afa158015610ce3573d6000803e3d6000fd5b505050506040513d601f19601f82011682018060405250810190610d0791906116d7565b600554909150610d24906001600160a01b03848116911683610ea3565b600560009054906101000a90046001600160a01b03166001600160a01b0316638fd3ab806040518163ffffffff1660e01b8152600401600060405180830381600087803b158015610d7457600080fd5b505af1158015610d88573d6000803e3d6000fd5b5050600380546001600160a01b0319169055505064012a05f200600455610431610a00565b610db5610e49565b60078054911515600160a01b0260ff60a01b19909216919091179055565b610ddb610e49565b6001600160a01b038116610e405760405162461bcd60e51b815260206004820152602660248201527f4f776e61626c653a206e6577206f776e657220697320746865207a65726f206160448201526564647265737360d01b6064820152608401610391565b6104b681611175565b6000546001600160a01b031633146107915760405162461bcd60e51b815260206004820181905260248201527f4f776e61626c653a2063616c6c6572206973206e6f7420746865206f776e65726044820152606401610391565b6040516001600160a01b038316602482015260448101829052610f0690849063a9059cbb60e01b906064015b60408051601f198184030181529190526020810180516001600160e01b03166001600160e01b031990931692909217909152611389565b505050565b6000610f1f6006546107bf866107b961090c565b6000848152600260205260409020805491925090851115610f825760405162461bcd60e51b815260206004820152601c60248201527f77697468647261773a206e6f7420656e6f7567682062616c616e6365000000006044820152606401610391565b8054610f8e908661145e565b8155600654610f9d908661145e565b6006556000610faa6104b9565b6040516370a0823160e01b81523060048201526001600160a01b0391909116906370a0823190602401602060405180830381865afa158015610ff0573d6000803e3d6000fd5b505050506040513d601f19601f8201168201806040525081019061101491906116d7565b90508281101561112657600061102a848361145e565b600554604051632e1a7d4d60e01b8152600481018390529192506001600160a01b031690632e1a7d4d90602401600060405180830381600087803b15801561107157600080fd5b505af1158015611085573d6000803e3d6000fd5b5050505060006110936104b9565b6040516370a0823160e01b81523060048201526001600160a01b0391909116906370a0823190602401602060405180830381865afa1580156110d9573d6000803e3d6000fd5b505050506040513d601f19601f820116820180604052508101906110fd91906116d7565b9050600061110b828561145e565b9050828110156111225761111f848261137d565b95505b5050505b847f56ca301a9219608c91e7bcee90e083c19671d2cdcc96752c7af291cee5f9c8c88760405161115891815260200190565b60405180910390a261116d8484610a266104b9565b505050505050565b600080546001600160a01b038381166001600160a01b0319831681178455604051919092169283917f8be0079c531659141344cd1fd0a4f28419497f9722a3daafe3b4186f6b6457e09190a35050565b60006111d18284611723565b90505b92915050565b60006111d1828461173a565b6002600154036112385760405162461bcd60e51b815260206004820152601f60248201527f5265656e7472616e637947756172643a207265656e7472616e742063616c6c006044820152606401610391565b6002600155565b6000828152600260205260408082206005548251632b9ff78560e11b8152925191936001600160a01b039091169263573fef0a926004808301939282900301818387803b15801561128f57600080fd5b505af11580156112a3573d6000803e3d6000fd5b5050505060006112b161090c565b90506112d28330876112c16104b9565b6001600160a01b031692919061146a565b6112da610a00565b60006112e461090c565b90506112f0818361145e565b95506000600654600003611305575085611321565b61131e836107bf6006548a6111c590919063ffffffff16565b90505b835461132d908261137d565b845560065461133c908261137d565b60065560405181815286907fa3af609bf46297028ce551832669030f9effef2b02606d02cbbcc40fe6b47c559060200160405180910390a250505050505050565b60006111d1828461175c565b60006113de826040518060400160405280602081526020017f5361666545524332303a206c6f772d6c6576656c2063616c6c206661696c6564815250856001600160a01b03166114a89092919063ffffffff16565b90508051600014806113ff5750808060200190518101906113ff919061176f565b610f065760405162461bcd60e51b815260206004820152602a60248201527f5361666545524332303a204552433230206f7065726174696f6e20646964206e6044820152691bdd081cdd58d8d9595960b21b6064820152608401610391565b60006111d1828461178c565b6040516001600160a01b03808516602483015283166044820152606481018290526114a29085906323b872dd60e01b90608401610ecf565b50505050565b60606114b784846000856114bf565b949350505050565b6060824710156115205760405162461bcd60e51b815260206004820152602660248201527f416464726573733a20696e73756666696369656e742062616c616e636520666f6044820152651c8818d85b1b60d21b6064820152608401610391565b600080866001600160a01b0316858760405161153c91906117c3565b60006040518083038185875af1925050503d8060008114611579576040519150601f19603f3d011682016040523d82523d6000602084013e61157e565b606091505b509150915061158f8783838761159a565b979650505050505050565b60608315611609578251600003611602576001600160a01b0385163b6116025760405162461bcd60e51b815260206004820152601d60248201527f416464726573733a2063616c6c20746f206e6f6e2d636f6e74726163740000006044820152606401610391565b50816114b7565b6114b7838381511561161e5781518083602001fd5b8060405162461bcd60e51b815260040161039191906117df565b6001600160a01b03811681146104b657600080fd5b60006020828403121561165f57600080fd5b813561166a81611638565b9392505050565b6000806040838503121561168457600080fd5b50508035926020909101359150565b6000602082840312156116a557600080fd5b5035919050565b80151581146104b657600080fd5b6000602082840312156116cc57600080fd5b813561166a816116ac565b6000602082840312156116e957600080fd5b5051919050565b60006020828403121561170257600080fd5b815161166a81611638565b634e487b7160e01b600052601160045260246000fd5b80820281158282048414176111d4576111d461170d565b60008261175757634e487b7160e01b600052601260045260246000fd5b500490565b808201808211156111d4576111d461170d565b60006020828403121561178157600080fd5b815161166a816116ac565b818103818111156111d4576111d461170d565b60005b838110156117ba5781810151838201526020016117a2565b50506000910152565b600082516117d581846020870161179f565b9190910192915050565b60208152600082518060208401526117fe81604085016020870161179f565b601f01601f1916919091016040019291505056fea2646970667358221220ed5f0e8233892b9e9d63aa044372789b9a4fa7bbdfaef1ccfd12516642d316fd64736f6c63430008120033",
  "devdoc": {
    "details": "Implementation of a vault to deposit funds for yield optimizing. This is the contract that receives funds and that users interface with. The yield optimizing strategy itself is implemented in a separate 'Strategy.sol' contract.",
    "kind": "dev",
    "methods": {
      "available()": {
        "details": "Custom logic in here for how much the vault allows to be borrowed. We return 100% of tokens for block.timestamp. Under certain conditions we might want to keep some of the system funds at hand in the vault, instead of putting them to work."
      },
      "balance()": {
        "details": "It calculates the total underlying value of {token} held by the system. It takes into account the vault contract balance, the strategy contract balance  and the balance deployed in other contracts as part of the strategy."
      },
      "constructor": {
        "details": "Sets the value of {token} to the token that the vault will hold as underlying value. It initializes the vault's own 'moo' token. This token is minted when someone does a deposit. It is burned in order to withdraw the corresponding portion of the underlying assets.",
        "params": {
          "_approvalDelay": "the delay before a new strat can be approved.",
          "_strategy": "the address of the strategy."
        }
      },
      "earn()": {
        "details": "Function to send funds into the strategy and put them to work. It's primarily called by the vault's deposit() function."
      },
      "getPricePerFullShare()": {
        "details": "Function for various UIs to display the current value of one of our yield tokens. Returns an uint256 with 18 decimals of how much underlying asset one vault share represents."
      },
      "owner()": {
        "details": "Returns the address of the current owner."
      },
      "proposeStrat(address)": {
        "details": "Sets the candidate for the new strat to use with this vault.",
        "params": {
          "_implementation": "The address of the candidate strategy."
        }
      },
      "renounceOwnership()": {
        "details": "Leaves the contract without owner. It will not be possible to call `onlyOwner` functions. Can only be called by the current owner. NOTE: Renouncing ownership will leave the contract without an owner, thereby disabling any functionality that is only available to the owner."
      },
      "rescueTokens(address)": {
        "details": "Rescues random funds stuck that the strat can't handle.",
        "params": {
          "_token": "address of the token to rescue."
        }
      },
      "transferOwnership(address)": {
        "details": "Transfers ownership of the contract to a new account (`newOwner`). Can only be called by the current owner."
      },
      "upgradeStrat()": {
        "details": "It switches the active strat for the strat candidate. After upgrading, the candidate implementation is set to the 0x00 address, and proposedTime to a time happening in +100 years for safety."
      }
    },
    "version": 1
  },
  "userdoc": {
    "kind": "user",
    "methods": {},
    "version": 1
  },
  "storageLayout": {
    "storage": [
      {
        "astId": 53,
        "contract": "contracts/mocks/zaynfi/protocol/ZaynVaultV2TakaDAO.sol:ZaynVaultV2TakaDAO",
        "label": "_owner",
        "offset": 0,
        "slot": "0",
        "type": "t_address"
      },
      {
        "astId": 277,
        "contract": "contracts/mocks/zaynfi/protocol/ZaynVaultV2TakaDAO.sol:ZaynVaultV2TakaDAO",
        "label": "_status",
        "offset": 0,
        "slot": "1",
        "type": "t_uint256"
      },
      {
        "astId": 14084,
        "contract": "contracts/mocks/zaynfi/protocol/ZaynVaultV2TakaDAO.sol:ZaynVaultV2TakaDAO",
        "label": "termInfo",
        "offset": 0,
        "slot": "2",
        "type": "t_mapping(t_uint256,t_struct(TermInfo)14079_storage)"
      },
      {
        "astId": 14087,
        "contract": "contracts/mocks/zaynfi/protocol/ZaynVaultV2TakaDAO.sol:ZaynVaultV2TakaDAO",
        "label": "stratCandidate",
        "offset": 0,
        "slot": "3",
        "type": "t_struct(StratCandidate)14076_storage"
      },
      {
        "astId": 14090,
        "contract": "contracts/mocks/zaynfi/protocol/ZaynVaultV2TakaDAO.sol:ZaynVaultV2TakaDAO",
        "label": "strategy",
        "offset": 0,
        "slot": "5",
        "type": "t_contract(IStrategy)12590"
      },
      {
        "astId": 14094,
        "contract": "contracts/mocks/zaynfi/protocol/ZaynVaultV2TakaDAO.sol:ZaynVaultV2TakaDAO",
        "label": "totalSupply",
        "offset": 0,
        "slot": "6",
        "type": "t_uint256"
      },
      {
        "astId": 14116,
        "contract": "contracts/mocks/zaynfi/protocol/ZaynVaultV2TakaDAO.sol:ZaynVaultV2TakaDAO",
        "label": "zapAddress",
        "offset": 0,
        "slot": "7",
        "type": "t_address"
      },
      {
        "astId": 14119,
        "contract": "contracts/mocks/zaynfi/protocol/ZaynVaultV2TakaDAO.sol:ZaynVaultV2TakaDAO",
        "label": "zapEnabled",
        "offset": 20,
        "slot": "7",
        "type": "t_bool"
      }
    ],
    "types": {
      "t_address": {
        "encoding": "inplace",
        "label": "address",
        "numberOfBytes": "20"
      },
      "t_bool": {
        "encoding": "inplace",
        "label": "bool",
        "numberOfBytes": "1"
      },
      "t_contract(IStrategy)12590": {
        "encoding": "inplace",
        "label": "contract IStrategy",
        "numberOfBytes": "20"
      },
      "t_mapping(t_uint256,t_struct(TermInfo)14079_storage)": {
        "encoding": "mapping",
        "key": "t_uint256",
        "label": "mapping(uint256 => struct ZaynVaultV2TakaDAO.TermInfo)",
        "numberOfBytes": "32",
        "value": "t_struct(TermInfo)14079_storage"
      },
      "t_struct(StratCandidate)14076_storage": {
        "encoding": "inplace",
        "label": "struct ZaynVaultV2TakaDAO.StratCandidate",
        "members": [
          {
            "astId": 14073,
            "contract": "contracts/mocks/zaynfi/protocol/ZaynVaultV2TakaDAO.sol:ZaynVaultV2TakaDAO",
            "label": "implementation",
            "offset": 0,
            "slot": "0",
            "type": "t_address"
          },
          {
            "astId": 14075,
            "contract": "contracts/mocks/zaynfi/protocol/ZaynVaultV2TakaDAO.sol:ZaynVaultV2TakaDAO",
            "label": "proposedTime",
            "offset": 0,
            "slot": "1",
            "type": "t_uint256"
          }
        ],
        "numberOfBytes": "64"
      },
      "t_struct(TermInfo)14079_storage": {
        "encoding": "inplace",
        "label": "struct ZaynVaultV2TakaDAO.TermInfo",
        "members": [
          {
            "astId": 14078,
            "contract": "contracts/mocks/zaynfi/protocol/ZaynVaultV2TakaDAO.sol:ZaynVaultV2TakaDAO",
            "label": "amount",
            "offset": 0,
            "slot": "0",
            "type": "t_uint256"
          }
        ],
        "numberOfBytes": "32"
      },
      "t_uint256": {
        "encoding": "inplace",
        "label": "uint256",
        "numberOfBytes": "32"
      }
    }
  }
}