{
    "_format": "hh-sol-artifact-1",
    "contractName": "ZaynZapV2TakaDAO",
    "sourceName": "contracts/zap/ZaynZapV2TakaDAO.sol",
    "abi": [
        {
            "inputs": [
                {
                    "internalType": "contract IWombatRouter",
                    "name": "_wombatRouter",
                    "type": "address"
                },
                {
                    "internalType": "contract IPool",
                    "name": "_wombatPool",
                    "type": "address"
                },
                {
                    "internalType": "address",
                    "name": "_poolPath",
                    "type": "address"
                },
                {
                    "internalType": "address",
                    "name": "_weth",
                    "type": "address"
                }
            ],
            "stateMutability": "nonpayable",
            "type": "constructor"
        },
        {
            "anonymous": false,
            "inputs": [
                {
                    "indexed": true,
                    "internalType": "address",
                    "name": "previousOwner",
                    "type": "address"
                },
                {
                    "indexed": true,
                    "internalType": "address",
                    "name": "newOwner",
                    "type": "address"
                }
            ],
            "name": "OwnershipTransferred",
            "type": "event"
        },
        {
            "inputs": [],
            "name": "WETH",
            "outputs": [
                {
                    "internalType": "address",
                    "name": "",
                    "type": "address"
                }
            ],
            "stateMutability": "view",
            "type": "function"
        },
        {
            "inputs": [],
            "name": "WOMBAT_POOL",
            "outputs": [
                {
                    "internalType": "contract IPool",
                    "name": "",
                    "type": "address"
                }
            ],
            "stateMutability": "view",
            "type": "function"
        },
        {
            "inputs": [],
            "name": "WOMBAT_ROUTER",
            "outputs": [
                {
                    "internalType": "contract IWombatRouter",
                    "name": "",
                    "type": "address"
                }
            ],
            "stateMutability": "view",
            "type": "function"
        },
        {
            "inputs": [
                {
                    "internalType": "address",
                    "name": "_token",
                    "type": "address"
                },
                {
                    "internalType": "bool",
                    "name": "_allow",
                    "type": "bool"
                }
            ],
            "name": "allowToken",
            "outputs": [],
            "stateMutability": "nonpayable",
            "type": "function"
        },
        {
            "inputs": [
                {
                    "internalType": "address",
                    "name": "",
                    "type": "address"
                }
            ],
            "name": "allowedTokens",
            "outputs": [
                {
                    "internalType": "bool",
                    "name": "",
                    "type": "bool"
                }
            ],
            "stateMutability": "view",
            "type": "function"
        },
        {
            "inputs": [
                {
                    "internalType": "address[]",
                    "name": "_path",
                    "type": "address[]"
                },
                {
                    "internalType": "address[]",
                    "name": "_poolPathArr",
                    "type": "address[]"
                },
                {
                    "internalType": "int256",
                    "name": "_amount",
                    "type": "int256"
                }
            ],
            "name": "getAmountOut",
            "outputs": [
                {
                    "internalType": "uint256",
                    "name": "amountOut",
                    "type": "uint256"
                },
                {
                    "internalType": "uint256[]",
                    "name": "haircuts",
                    "type": "uint256[]"
                }
            ],
            "stateMutability": "view",
            "type": "function"
        },
        {
            "inputs": [],
            "name": "owner",
            "outputs": [
                {
                    "internalType": "address",
                    "name": "",
                    "type": "address"
                }
            ],
            "stateMutability": "view",
            "type": "function"
        },
        {
            "inputs": [],
            "name": "poolPath",
            "outputs": [
                {
                    "internalType": "address",
                    "name": "",
                    "type": "address"
                }
            ],
            "stateMutability": "view",
            "type": "function"
        },
        {
            "inputs": [
                {
                    "internalType": "address",
                    "name": "_token",
                    "type": "address"
                }
            ],
            "name": "recoverTokens",
            "outputs": [],
            "stateMutability": "nonpayable",
            "type": "function"
        },
        {
            "inputs": [],
            "name": "renounceOwnership",
            "outputs": [],
            "stateMutability": "nonpayable",
            "type": "function"
        },
        {
            "inputs": [
                {
                    "internalType": "address",
                    "name": "_trustedSender",
                    "type": "address"
                },
                {
                    "internalType": "bool",
                    "name": "_allow",
                    "type": "bool"
                }
            ],
            "name": "toggleTrustedSender",
            "outputs": [],
            "stateMutability": "nonpayable",
            "type": "function"
        },
        {
            "inputs": [
                {
                    "internalType": "address",
                    "name": "newOwner",
                    "type": "address"
                }
            ],
            "name": "transferOwnership",
            "outputs": [],
            "stateMutability": "nonpayable",
            "type": "function"
        },
        {
            "inputs": [
                {
                    "internalType": "address",
                    "name": "",
                    "type": "address"
                }
            ],
            "name": "trustedSenders",
            "outputs": [
                {
                    "internalType": "bool",
                    "name": "",
                    "type": "bool"
                }
            ],
            "stateMutability": "view",
            "type": "function"
        },
        {
            "inputs": [
                {
                    "internalType": "address",
                    "name": "vault",
                    "type": "address"
                },
                {
                    "internalType": "uint8",
                    "name": "termID",
                    "type": "uint8"
                }
            ],
            "name": "zapInEth",
            "outputs": [],
            "stateMutability": "payable",
            "type": "function"
        },
        {
            "inputs": [
                {
                    "internalType": "address",
                    "name": "vault",
                    "type": "address"
                },
                {
                    "internalType": "uint256",
                    "name": "_shares",
                    "type": "uint256"
                },
                {
                    "internalType": "uint8",
                    "name": "termID",
                    "type": "uint8"
                }
            ],
            "name": "zapOutETH",
            "outputs": [],
            "stateMutability": "nonpayable",
            "type": "function"
        },
        {
            "stateMutability": "payable",
            "type": "receive"
        }
    ],
    "bytecode": "0x60806040523480156200001157600080fd5b50604051620039ee380380620039ee83398181016040528101906200003791906200027d565b620000576200004b6200016c60201b60201c565b6200017460201b60201c565b6001808190555083600360006101000a81548173ffffffffffffffffffffffffffffffffffffffff021916908373ffffffffffffffffffffffffffffffffffffffff16021790555082600460006101000a81548173ffffffffffffffffffffffffffffffffffffffff021916908373ffffffffffffffffffffffffffffffffffffffff16021790555081600660006101000a81548173ffffffffffffffffffffffffffffffffffffffff021916908373ffffffffffffffffffffffffffffffffffffffff16021790555080600560006101000a81548173ffffffffffffffffffffffffffffffffffffffff021916908373ffffffffffffffffffffffffffffffffffffffff160217905550505050506200039e565b600033905090565b60008060009054906101000a900473ffffffffffffffffffffffffffffffffffffffff169050816000806101000a81548173ffffffffffffffffffffffffffffffffffffffff021916908373ffffffffffffffffffffffffffffffffffffffff1602179055508173ffffffffffffffffffffffffffffffffffffffff168173ffffffffffffffffffffffffffffffffffffffff167f8be0079c531659141344cd1fd0a4f28419497f9722a3daafe3b4186f6b6457e060405160405180910390a35050565b600081519050620002498162000350565b92915050565b60008151905062000260816200036a565b92915050565b600081519050620002778162000384565b92915050565b600080600080608085870312156200029a57620002996200034b565b5b6000620002aa8782880162000266565b9450506020620002bd878288016200024f565b9350506040620002d08782880162000238565b9250506060620002e38782880162000238565b91505092959194509250565b6000620002fc826200032b565b9050919050565b60006200031082620002ef565b9050919050565b60006200032482620002ef565b9050919050565b600073ffffffffffffffffffffffffffffffffffffffff82169050919050565b600080fd5b6200035b81620002ef565b81146200036757600080fd5b50565b620003758162000303565b81146200038157600080fd5b50565b6200038f8162000317565b81146200039b57600080fd5b50565b61364080620003ae6000396000f3fe6080604052600436106100ec5760003560e01c8063715018a61161008a578063b9e598c111610059578063b9e598c114610316578063e744092e14610354578063f2fde38b14610391578063fe81e6ca146103ba57610151565b8063715018a6146102805780638da5cb5b146102975780639eff3e3f146102c2578063ad5c4648146102eb57610151565b8063346bc615116100c6578063346bc615146101c45780635bc35ae8146101ef5780635d0c430f146102185780636a2a5c131461024357610151565b806304c9c4e41461015657806316114acd1461017f5780631be9c563146101a857610151565b3661015157600560009054906101000a900473ffffffffffffffffffffffffffffffffffffffff1673ffffffffffffffffffffffffffffffffffffffff163373ffffffffffffffffffffffffffffffffffffffff161461014f5761014e6131b7565b5b005b600080fd5b34801561016257600080fd5b5061017d6004803603810190610178919061241f565b6103e5565b005b34801561018b57600080fd5b506101a660048036038101906101a191906123c5565b610448565b005b6101c260048036038101906101bd91906124b2565b6105f4565b005b3480156101d057600080fd5b506101d9610904565b6040516101e69190612c8e565b60405180910390f35b3480156101fb57600080fd5b506102166004803603810190610211919061241f565b61092a565b005b34801561022457600080fd5b5061022d61098d565b60405161023a9190612a2f565b60405180910390f35b34801561024f57600080fd5b5061026a600480360381019061026591906123c5565b6109b3565b6040516102779190612c73565b60405180910390f35b34801561028c57600080fd5b506102956109d3565b005b3480156102a357600080fd5b506102ac6109e7565b6040516102b99190612a2f565b60405180910390f35b3480156102ce57600080fd5b506102e960048036038101906102e4919061245f565b610a10565b005b3480156102f757600080fd5b50610300611295565b60405161030d9190612a2f565b60405180910390f35b34801561032257600080fd5b5061033d600480360381019061033891906124f2565b6112bb565b60405161034b929190612e61565b60405180910390f35b34801561036057600080fd5b5061037b600480360381019061037691906123c5565b61137f565b6040516103889190612c73565b60405180910390f35b34801561039d57600080fd5b506103b860048036038101906103b391906123c5565b61139f565b005b3480156103c657600080fd5b506103cf611423565b6040516103dc9190612ca9565b60405180910390f35b6103ed611449565b80600760008473ffffffffffffffffffffffffffffffffffffffff1673ffffffffffffffffffffffffffffffffffffffff16815260200190815260200160002060006101000a81548160ff0219169083151502179055505050565b610450611449565b600073ffffffffffffffffffffffffffffffffffffffff168173ffffffffffffffffffffffffffffffffffffffff1614156105375760003373ffffffffffffffffffffffffffffffffffffffff16476040516104ab90612a1a565b60006040518083038185875af1925050503d80600081146104e8576040519150601f19603f3d011682016040523d82523d6000602084013e6104ed565b606091505b5050905080610531576040517f08c379a000000000000000000000000000000000000000000000000000000000815260040161052890612e26565b60405180910390fd5b506105f1565b60008173ffffffffffffffffffffffffffffffffffffffff166370a08231306040518263ffffffff1660e01b81526004016105729190612a2f565b60206040518083038186803b15801561058a57600080fd5b505afa15801561059e573d6000803e3d6000fd5b505050506040513d601f19601f820116820180604052508101906105c291906125aa565b90506105ef33828473ffffffffffffffffffffffffffffffffffffffff166114c79092919063ffffffff16565b505b50565b600760003373ffffffffffffffffffffffffffffffffffffffff1673ffffffffffffffffffffffffffffffffffffffff16815260200190815260200160002060009054906101000a900460ff16610680576040517f08c379a000000000000000000000000000000000000000000000000000000000815260040161067790612d26565b60405180910390fd5b600034116106c3576040517f08c379a00000000000000000000000000000000000000000000000000000000081526004016106ba90612d06565b60405180910390fd5b60008273ffffffffffffffffffffffffffffffffffffffff16631f1fcd516040518163ffffffff1660e01b815260040160206040518083038186803b15801561070b57600080fd5b505afa15801561071f573d6000803e3d6000fd5b505050506040513d601f19601f8201168201806040525081019061074391906123f2565b905060008173ffffffffffffffffffffffffffffffffffffffff16632495a5996040518163ffffffff1660e01b815260040160206040518083038186803b15801561078d57600080fd5b505afa1580156107a1573d6000803e3d6000fd5b505050506040513d601f19601f820116820180604052508101906107c591906123f2565b9050600560009054906101000a900473ffffffffffffffffffffffffffffffffffffffff1673ffffffffffffffffffffffffffffffffffffffff1663d0e30db0346040518263ffffffff1660e01b81526004016000604051808303818588803b15801561083157600080fd5b505af1158015610845573d6000803e3d6000fd5b5050505050610877600560009054906101000a900473ffffffffffffffffffffffffffffffffffffffff16823461154d565b5060006108848234611928565b90506108908386611b15565b8473ffffffffffffffffffffffffffffffffffffffff16630485fbe382866040518363ffffffff1660e01b81526004016108cb929190612e91565b600060405180830381600087803b1580156108e557600080fd5b505af11580156108f9573d6000803e3d6000fd5b505050505050505050565b600460009054906101000a900473ffffffffffffffffffffffffffffffffffffffff1681565b610932611449565b80600260008473ffffffffffffffffffffffffffffffffffffffff1673ffffffffffffffffffffffffffffffffffffffff16815260200190815260200160002060006101000a81548160ff0219169083151502179055505050565b600660009054906101000a900473ffffffffffffffffffffffffffffffffffffffff1681565b60076020528060005260406000206000915054906101000a900460ff1681565b6109db611449565b6109e56000611bf8565b565b60008060009054906101000a900473ffffffffffffffffffffffffffffffffffffffff16905090565b600760003373ffffffffffffffffffffffffffffffffffffffff1673ffffffffffffffffffffffffffffffffffffffff16815260200190815260200160002060009054906101000a900460ff16610a9c576040517f08c379a0000000000000000000000000000000000000000000000000000000008152600401610a9390612d26565b60405180910390fd5b60008211610adf576040517f08c379a0000000000000000000000000000000000000000000000000000000008152600401610ad690612d66565b60405180910390fd5b60008390508073ffffffffffffffffffffffffffffffffffffffff1663ab1e215c84846040518363ffffffff1660e01b8152600401610b1f929190612e91565b600060405180830381600087803b158015610b3957600080fd5b505af1158015610b4d573d6000803e3d6000fd5b5050505060008473ffffffffffffffffffffffffffffffffffffffff16631f1fcd516040518163ffffffff1660e01b815260040160206040518083038186803b158015610b9957600080fd5b505afa158015610bad573d6000803e3d6000fd5b505050506040513d601f19601f82011682018060405250810190610bd191906123f2565b905060008173ffffffffffffffffffffffffffffffffffffffff16632495a5996040518163ffffffff1660e01b815260040160206040518083038186803b158015610c1b57600080fd5b505afa158015610c2f573d6000803e3d6000fd5b505050506040513d601f19601f82011682018060405250810190610c5391906123f2565b905060008273ffffffffffffffffffffffffffffffffffffffff166370a08231306040518263ffffffff1660e01b8152600401610c909190612a2f565b60206040518083038186803b158015610ca857600080fd5b505afa158015610cbc573d6000803e3d6000fd5b505050506040513d601f19601f82011682018060405250810190610ce091906125aa565b9050610d0e83600460009054906101000a900473ffffffffffffffffffffffffffffffffffffffff16611b15565b6000600167ffffffffffffffff811115610d2b57610d2a613273565b5b604051908082528060200260200182016040528015610d595781602001602082028036833780820191505090505b509050600660009054906101000a900473ffffffffffffffffffffffffffffffffffffffff1681600081518110610d9357610d92613244565b5b602002602001019073ffffffffffffffffffffffffffffffffffffffff16908173ffffffffffffffffffffffffffffffffffffffff16815250506000600267ffffffffffffffff811115610dea57610de9613273565b5b604051908082528060200260200182016040528015610e185781602001602082028036833780820191505090505b5090508381600081518110610e3057610e2f613244565b5b602002602001019073ffffffffffffffffffffffffffffffffffffffff16908173ffffffffffffffffffffffffffffffffffffffff1681525050600560009054906101000a900473ffffffffffffffffffffffffffffffffffffffff1681600181518110610ea157610ea0613244565b5b602002602001019073ffffffffffffffffffffffffffffffffffffffff16908173ffffffffffffffffffffffffffffffffffffffff16815250506000600460009054906101000a900473ffffffffffffffffffffffffffffffffffffffff1673ffffffffffffffffffffffffffffffffffffffff166309a5fca38686600030426040518663ffffffff1660e01b8152600401610f41959493929190612a9c565b602060405180830381600087803b158015610f5b57600080fd5b505af1158015610f6f573d6000803e3d6000fd5b505050506040513d601f19601f82011682018060405250810190610f9391906125aa565b9050610fc185600360009054906101000a900473ffffffffffffffffffffffffffffffffffffffff16611b15565b6000600560009054906101000a900473ffffffffffffffffffffffffffffffffffffffff1673ffffffffffffffffffffffffffffffffffffffff166370a08231306040518263ffffffff1660e01b815260040161101e9190612a2f565b60206040518083038186803b15801561103657600080fd5b505afa15801561104a573d6000803e3d6000fd5b505050506040513d601f19601f8201168201806040525081019061106e91906125aa565b9050600360009054906101000a900473ffffffffffffffffffffffffffffffffffffffff1673ffffffffffffffffffffffffffffffffffffffff1663d44107a4848685600030426040518763ffffffff1660e01b81526004016110d696959493929190612b95565b602060405180830381600087803b1580156110f057600080fd5b505af1158015611104573d6000803e3d6000fd5b505050506040513d601f19601f8201168201806040525081019061112891906125aa565b506000600560009054906101000a900473ffffffffffffffffffffffffffffffffffffffff1673ffffffffffffffffffffffffffffffffffffffff166370a08231306040518263ffffffff1660e01b81526004016111869190612a2f565b60206040518083038186803b15801561119e57600080fd5b505afa1580156111b2573d6000803e3d6000fd5b505050506040513d601f19601f820116820180604052508101906111d691906125aa565b905060006111ed8383611cbc90919063ffffffff16565b9050600560009054906101000a900473ffffffffffffffffffffffffffffffffffffffff1673ffffffffffffffffffffffffffffffffffffffff16632e1a7d4d826040518263ffffffff1660e01b815260040161124a9190612e46565b600060405180830381600087803b15801561126457600080fd5b505af1158015611278573d6000803e3d6000fd5b505050506112863382611cd2565b50505050505050505050505050565b600560009054906101000a900473ffffffffffffffffffffffffffffffffffffffff1681565b60006060600360009054906101000a900473ffffffffffffffffffffffffffffffffffffffff1673ffffffffffffffffffffffffffffffffffffffff1663b9e598c18686866040518463ffffffff1660e01b815260040161131e93929190612b50565b60006040518083038186803b15801561133657600080fd5b505afa15801561134a573d6000803e3d6000fd5b505050506040513d6000823e3d601f19601f8201168201806040525081019061137391906125d7565b91509150935093915050565b60026020528060005260406000206000915054906101000a900460ff1681565b6113a7611449565b600073ffffffffffffffffffffffffffffffffffffffff168173ffffffffffffffffffffffffffffffffffffffff161415611417576040517f08c379a000000000000000000000000000000000000000000000000000000000815260040161140e90612ce6565b60405180910390fd5b61142081611bf8565b50565b600360009054906101000a900473ffffffffffffffffffffffffffffffffffffffff1681565b611451611dd2565b73ffffffffffffffffffffffffffffffffffffffff1661146f6109e7565b73ffffffffffffffffffffffffffffffffffffffff16146114c5576040517f08c379a00000000000000000000000000000000000000000000000000000000081526004016114bc90612d86565b60405180910390fd5b565b6115488363a9059cbb60e01b84846040516024016114e6929190612a73565b604051602081830303815290604052907bffffffffffffffffffffffffffffffffffffffffffffffffffffffff19166020820180517bffffffffffffffffffffffffffffffffffffffffffffffffffffffff8381831617835250505050611dda565b505050565b600080600267ffffffffffffffff81111561156b5761156a613273565b5b6040519080825280602002602001820160405280156115995781602001602082028036833780820191505090505b50905084816000815181106115b1576115b0613244565b5b602002602001019073ffffffffffffffffffffffffffffffffffffffff16908173ffffffffffffffffffffffffffffffffffffffff16815250508381600181518110611600576115ff613244565b5b602002602001019073ffffffffffffffffffffffffffffffffffffffff16908173ffffffffffffffffffffffffffffffffffffffff16815250506000600167ffffffffffffffff81111561165757611656613273565b5b6040519080825280602002602001820160405280156116855781602001602082028036833780820191505090505b509050600660009054906101000a900473ffffffffffffffffffffffffffffffffffffffff16816000815181106116bf576116be613244565b5b602002602001019073ffffffffffffffffffffffffffffffffffffffff16908173ffffffffffffffffffffffffffffffffffffffff168152505060006117068383876112bb565b50905061173587600360009054906101000a900473ffffffffffffffffffffffffffffffffffffffff16611b15565b60008673ffffffffffffffffffffffffffffffffffffffff166370a08231306040518263ffffffff1660e01b81526004016117709190612a2f565b60206040518083038186803b15801561178857600080fd5b505afa15801561179c573d6000803e3d6000fd5b505050506040513d601f19601f820116820180604052508101906117c091906125aa565b9050600360009054906101000a900473ffffffffffffffffffffffffffffffffffffffff1673ffffffffffffffffffffffffffffffffffffffff1663d44107a48585898630426040518763ffffffff1660e01b815260040161182796959493929190612c04565b602060405180830381600087803b15801561184157600080fd5b505af1158015611855573d6000803e3d6000fd5b505050506040513d601f19601f8201168201806040525081019061187991906125aa565b5060008773ffffffffffffffffffffffffffffffffffffffff166370a08231306040518263ffffffff1660e01b81526004016118b59190612a2f565b60206040518083038186803b1580156118cd57600080fd5b505afa1580156118e1573d6000803e3d6000fd5b505050506040513d601f19601f8201168201806040525081019061190591906125aa565b905061191a8282611cbc90919063ffffffff16565b955050505050509392505050565b600080600460009054906101000a900473ffffffffffffffffffffffffffffffffffffffff1673ffffffffffffffffffffffffffffffffffffffff166361858e2385856040518363ffffffff1660e01b8152600401611988929190612a73565b604080518083038186803b15801561199f57600080fd5b505afa1580156119b3573d6000803e3d6000fd5b505050506040513d601f19601f820116820180604052508101906119d79190612633565b5090506000611a10670de0b6b3a7640000611a026611c37937e0800085611ea190919063ffffffff16565b611eb790919063ffffffff16565b9050611a258183611cbc90919063ffffffff16565b9150611a5385600460009054906101000a900473ffffffffffffffffffffffffffffffffffffffff16611b15565b600460009054906101000a900473ffffffffffffffffffffffffffffffffffffffff1673ffffffffffffffffffffffffffffffffffffffff16636281baef868685304260006040518763ffffffff1660e01b8152600401611ab996959493929190612aef565b602060405180830381600087803b158015611ad357600080fd5b505af1158015611ae7573d6000803e3d6000fd5b505050506040513d601f19601f82011682018060405250810190611b0b91906125aa565b9250505092915050565b60008273ffffffffffffffffffffffffffffffffffffffff1663dd62ed3e30846040518363ffffffff1660e01b8152600401611b52929190612a4a565b60206040518083038186803b158015611b6a57600080fd5b505afa158015611b7e573d6000803e3d6000fd5b505050506040513d601f19601f82011682018060405250810190611ba291906125aa565b1415611bf457611bf3817fffffffffffffffffffffffffffffffffffffffffffffffffffffffffffffffff8473ffffffffffffffffffffffffffffffffffffffff16611ecd9092919063ffffffff16565b5b5050565b60008060009054906101000a900473ffffffffffffffffffffffffffffffffffffffff169050816000806101000a81548173ffffffffffffffffffffffffffffffffffffffff021916908373ffffffffffffffffffffffffffffffffffffffff1602179055508173ffffffffffffffffffffffffffffffffffffffff168173ffffffffffffffffffffffffffffffffffffffff167f8be0079c531659141344cd1fd0a4f28419497f9722a3daafe3b4186f6b6457e060405160405180910390a35050565b60008183611cca9190613066565b905092915050565b60008273ffffffffffffffffffffffffffffffffffffffff1682600067ffffffffffffffff811115611d0757611d06613273565b5b6040519080825280601f01601f191660200182016040528015611d395781602001600182028036833780820191505090505b50604051611d479190612a03565b60006040518083038185875af1925050503d8060008114611d84576040519150601f19603f3d011682016040523d82523d6000602084013e611d89565b606091505b5050905080611dcd576040517f08c379a0000000000000000000000000000000000000000000000000000000008152600401611dc490612dc6565b60405180910390fd5b505050565b600033905090565b6000611e3c826040518060400160405280602081526020017f5361666545524332303a206c6f772d6c6576656c2063616c6c206661696c65648152508573ffffffffffffffffffffffffffffffffffffffff1661202b9092919063ffffffff16565b9050600081511115611e9c5780806020019051810190611e5c919061257d565b611e9b576040517f08c379a0000000000000000000000000000000000000000000000000000000008152600401611e9290612de6565b60405180910390fd5b5b505050565b60008183611eaf919061300c565b905092915050565b60008183611ec59190612fdb565b905092915050565b6000811480611f66575060008373ffffffffffffffffffffffffffffffffffffffff1663dd62ed3e30856040518363ffffffff1660e01b8152600401611f14929190612a4a565b60206040518083038186803b158015611f2c57600080fd5b505afa158015611f40573d6000803e3d6000fd5b505050506040513d601f19601f82011682018060405250810190611f6491906125aa565b145b611fa5576040517f08c379a0000000000000000000000000000000000000000000000000000000008152600401611f9c90612e06565b60405180910390fd5b6120268363095ea7b360e01b8484604051602401611fc4929190612a73565b604051602081830303815290604052907bffffffffffffffffffffffffffffffffffffffffffffffffffffffff19166020820180517bffffffffffffffffffffffffffffffffffffffffffffffffffffffff8381831617835250505050611dda565b505050565b606061203a8484600085612043565b90509392505050565b606082471015612088576040517f08c379a000000000000000000000000000000000000000000000000000000000815260040161207f90612d46565b60405180910390fd5b61209185612157565b6120d0576040517f08c379a00000000000000000000000000000000000000000000000000000000081526004016120c790612da6565b60405180910390fd5b6000808673ffffffffffffffffffffffffffffffffffffffff1685876040516120f99190612a03565b60006040518083038185875af1925050503d8060008114612136576040519150601f19603f3d011682016040523d82523d6000602084013e61213b565b606091505b509150915061214b82828661217a565b92505050949350505050565b6000808273ffffffffffffffffffffffffffffffffffffffff163b119050919050565b6060831561218a578290506121da565b60008351111561219d5782518084602001fd5b816040517f08c379a00000000000000000000000000000000000000000000000000000000081526004016121d19190612cc4565b60405180910390fd5b9392505050565b60006121f46121ef84612edf565b612eba565b90508083825260208201905082856020860282011115612217576122166132a7565b5b60005b85811015612247578161222d88826122c1565b84526020840193506020830192505060018101905061221a565b5050509392505050565b600061226461225f84612f0b565b612eba565b90508083825260208201905082856020860282011115612287576122866132a7565b5b60005b858110156122b7578161229d888261239b565b84526020840193506020830192505060018101905061228a565b5050509392505050565b6000813590506122d081613597565b92915050565b6000815190506122e581613597565b92915050565b600082601f830112612300576122ff6132a2565b5b81356123108482602086016121e1565b91505092915050565b600082601f83011261232e5761232d6132a2565b5b815161233e848260208601612251565b91505092915050565b600081359050612356816135ae565b92915050565b60008151905061236b816135ae565b92915050565b600081359050612380816135c5565b92915050565b600081359050612395816135dc565b92915050565b6000815190506123aa816135dc565b92915050565b6000813590506123bf816135f3565b92915050565b6000602082840312156123db576123da6132b1565b5b60006123e9848285016122c1565b91505092915050565b600060208284031215612408576124076132b1565b5b6000612416848285016122d6565b91505092915050565b60008060408385031215612436576124356132b1565b5b6000612444858286016122c1565b925050602061245585828601612347565b9150509250929050565b600080600060608486031215612478576124776132b1565b5b6000612486868287016122c1565b935050602061249786828701612386565b92505060406124a8868287016123b0565b9150509250925092565b600080604083850312156124c9576124c86132b1565b5b60006124d7858286016122c1565b92505060206124e8858286016123b0565b9150509250929050565b60008060006060848603121561250b5761250a6132b1565b5b600084013567ffffffffffffffff811115612529576125286132ac565b5b612535868287016122eb565b935050602084013567ffffffffffffffff811115612556576125556132ac565b5b612562868287016122eb565b925050604061257386828701612371565b9150509250925092565b600060208284031215612593576125926132b1565b5b60006125a18482850161235c565b91505092915050565b6000602082840312156125c0576125bf6132b1565b5b60006125ce8482850161239b565b91505092915050565b600080604083850312156125ee576125ed6132b1565b5b60006125fc8582860161239b565b925050602083015167ffffffffffffffff81111561261d5761261c6132ac565b5b61262985828601612319565b9150509250929050565b6000806040838503121561264a576126496132b1565b5b60006126588582860161239b565b92505060206126698582860161239b565b9150509250929050565b600061267f83836126a3565b60208301905092915050565b600061269783836129d6565b60208301905092915050565b6126ac8161309a565b82525050565b6126bb8161309a565b82525050565b60006126cc82612f57565b6126d68185612f9d565b93506126e183612f37565b8060005b838110156127125781516126f98882612673565b975061270483612f83565b9250506001810190506126e5565b5085935050505092915050565b600061272a82612f62565b6127348185612fae565b935061273f83612f47565b8060005b83811015612770578151612757888261268b565b975061276283612f90565b925050600181019050612743565b5085935050505092915050565b612786816130ac565b82525050565b600061279782612f6d565b6127a18185612fbf565b93506127b1818560208601613153565b80840191505092915050565b6127c6816130f9565b82525050565b6127d58161310b565b82525050565b6127e4816130b8565b82525050565b6127f38161311d565b82525050565b600061280482612f78565b61280e8185612fca565b935061281e818560208601613153565b612827816132b6565b840191505092915050565b600061283f602683612fca565b915061284a826132c7565b604082019050919050565b6000612862602783612fca565b915061286d82613316565b604082019050919050565b6000612885602283612fca565b915061289082613365565b604082019050919050565b60006128a8602683612fca565b91506128b3826133b4565b604082019050919050565b60006128cb601f83612fca565b91506128d682613403565b602082019050919050565b60006128ee602083612fca565b91506128f98261342c565b602082019050919050565b6000612911600083612fbf565b915061291c82613455565b600082019050919050565b6000612934601d83612fca565b915061293f82613458565b602082019050919050565b6000612957602383612fca565b915061296282613481565b604082019050919050565b600061297a602a83612fca565b9150612985826134d0565b604082019050919050565b600061299d603683612fca565b91506129a88261351f565b604082019050919050565b60006129c0600e83612fca565b91506129cb8261356e565b602082019050919050565b6129df816130e2565b82525050565b6129ee816130e2565b82525050565b6129fd816130ec565b82525050565b6000612a0f828461278c565b915081905092915050565b6000612a2582612904565b9150819050919050565b6000602082019050612a4460008301846126b2565b92915050565b6000604082019050612a5f60008301856126b2565b612a6c60208301846126b2565b9392505050565b6000604082019050612a8860008301856126b2565b612a9560208301846129e5565b9392505050565b600060a082019050612ab160008301886126b2565b612abe60208301876129e5565b612acb60408301866127ea565b612ad860608301856126b2565b612ae560808301846129e5565b9695505050505050565b600060c082019050612b0460008301896126b2565b612b1160208301886129e5565b612b1e60408301876129e5565b612b2b60608301866126b2565b612b3860808301856129e5565b612b4560a083018461277d565b979650505050505050565b60006060820190508181036000830152612b6a81866126c1565b90508181036020830152612b7e81856126c1565b9050612b8d60408301846127db565b949350505050565b600060c0820190508181036000830152612baf81896126c1565b90508181036020830152612bc381886126c1565b9050612bd260408301876129e5565b612bdf60608301866127ea565b612bec60808301856126b2565b612bf960a08301846129e5565b979650505050505050565b600060c0820190508181036000830152612c1e81896126c1565b90508181036020830152612c3281886126c1565b9050612c4160408301876129e5565b612c4e60608301866129e5565b612c5b60808301856126b2565b612c6860a08301846129e5565b979650505050505050565b6000602082019050612c88600083018461277d565b92915050565b6000602082019050612ca360008301846127bd565b92915050565b6000602082019050612cbe60008301846127cc565b92915050565b60006020820190508181036000830152612cde81846127f9565b905092915050565b60006020820190508181036000830152612cff81612832565b9050919050565b60006020820190508181036000830152612d1f81612855565b9050919050565b60006020820190508181036000830152612d3f81612878565b9050919050565b60006020820190508181036000830152612d5f8161289b565b9050919050565b60006020820190508181036000830152612d7f816128be565b9050919050565b60006020820190508181036000830152612d9f816128e1565b9050919050565b60006020820190508181036000830152612dbf81612927565b9050919050565b60006020820190508181036000830152612ddf8161294a565b9050919050565b60006020820190508181036000830152612dff8161296d565b9050919050565b60006020820190508181036000830152612e1f81612990565b9050919050565b60006020820190508181036000830152612e3f816129b3565b9050919050565b6000602082019050612e5b60008301846129e5565b92915050565b6000604082019050612e7660008301856129e5565b8181036020830152612e88818461271f565b90509392505050565b6000604082019050612ea660008301856129e5565b612eb360208301846129f4565b9392505050565b6000612ec4612ed5565b9050612ed08282613186565b919050565b6000604051905090565b600067ffffffffffffffff821115612efa57612ef9613273565b5b602082029050602081019050919050565b600067ffffffffffffffff821115612f2657612f25613273565b5b602082029050602081019050919050565b6000819050602082019050919050565b6000819050602082019050919050565b600081519050919050565b600081519050919050565b600081519050919050565b600081519050919050565b6000602082019050919050565b6000602082019050919050565b600082825260208201905092915050565b600082825260208201905092915050565b600081905092915050565b600082825260208201905092915050565b6000612fe6826130e2565b9150612ff1836130e2565b92508261300157613000613215565b5b828204905092915050565b6000613017826130e2565b9150613022836130e2565b9250817fffffffffffffffffffffffffffffffffffffffffffffffffffffffffffffffff048311821515161561305b5761305a6131e6565b5b828202905092915050565b6000613071826130e2565b915061307c836130e2565b92508282101561308f5761308e6131e6565b5b828203905092915050565b60006130a5826130c2565b9050919050565b60008115159050919050565b6000819050919050565b600073ffffffffffffffffffffffffffffffffffffffff82169050919050565b6000819050919050565b600060ff82169050919050565b60006131048261312f565b9050919050565b60006131168261312f565b9050919050565b6000613128826130e2565b9050919050565b600061313a82613141565b9050919050565b600061314c826130c2565b9050919050565b60005b83811015613171578082015181840152602081019050613156565b83811115613180576000848401525b50505050565b61318f826132b6565b810181811067ffffffffffffffff821117156131ae576131ad613273565b5b80604052505050565b7f4e487b7100000000000000000000000000000000000000000000000000000000600052600160045260246000fd5b7f4e487b7100000000000000000000000000000000000000000000000000000000600052601160045260246000fd5b7f4e487b7100000000000000000000000000000000000000000000000000000000600052601260045260246000fd5b7f4e487b7100000000000000000000000000000000000000000000000000000000600052603260045260246000fd5b7f4e487b7100000000000000000000000000000000000000000000000000000000600052604160045260246000fd5b600080fd5b600080fd5b600080fd5b600080fd5b6000601f19601f8301169050919050565b7f4f776e61626c653a206e6577206f776e657220697320746865207a65726f206160008201527f6464726573730000000000000000000000000000000000000000000000000000602082015250565b7f4465706f73697420616d6f756e742073686f756c64206265206772656174657260008201527f207468616e203000000000000000000000000000000000000000000000000000602082015250565b7f6f6e6c7920747275737465722073656e646572732063616e2063616c6c20746860008201527f6973000000000000000000000000000000000000000000000000000000000000602082015250565b7f416464726573733a20696e73756666696369656e742062616c616e636520666f60008201527f722063616c6c0000000000000000000000000000000000000000000000000000602082015250565b7f416d6f756e742073686f756c642062652067726561746572207468616e203000600082015250565b7f4f776e61626c653a2063616c6c6572206973206e6f7420746865206f776e6572600082015250565b50565b7f416464726573733a2063616c6c20746f206e6f6e2d636f6e7472616374000000600082015250565b7f5472616e7366657248656c7065723a204554485f5452414e534645525f46414960008201527f4c45440000000000000000000000000000000000000000000000000000000000602082015250565b7f5361666545524332303a204552433230206f7065726174696f6e20646964206e60008201527f6f74207375636365656400000000000000000000000000000000000000000000602082015250565b7f5361666545524332303a20617070726f76652066726f6d206e6f6e2d7a65726f60008201527f20746f206e6f6e2d7a65726f20616c6c6f77616e636500000000000000000000602082015250565b7f6661696c656420746f2073656e64000000000000000000000000000000000000600082015250565b6135a08161309a565b81146135ab57600080fd5b50565b6135b7816130ac565b81146135c257600080fd5b50565b6135ce816130b8565b81146135d957600080fd5b50565b6135e5816130e2565b81146135f057600080fd5b50565b6135fc816130ec565b811461360757600080fd5b5056fea2646970667358221220e6e58fbc8fa617287a2adb56cc4e33166f225f2f4d63efe8d0ef5983d13a5c4864736f6c63430008070033",
    "linkReferences": {},
    "deployedLinkReferences": {}
}