{
    "_format": "hh-sol-artifact-1",
    "contractName": "ZaynVaultV2TakaDAO",
    "sourceName": "contracts/vaults/ZaynVaultV2TakaDAO.sol",
    "abi": [
        {
            "inputs": [
                {
                    "internalType": "contract IStrategy",
                    "name": "_strategy",
                    "type": "address"
                },
                {
                    "internalType": "uint256",
                    "name": "_approvalDelay",
                    "type": "uint256"
                }
            ],
            "stateMutability": "nonpayable",
            "type": "constructor"
        },
        {
            "anonymous": false,
            "inputs": [
                {
                    "indexed": true,
                    "internalType": "uint8",
                    "name": "term",
                    "type": "uint8"
                },
                {
                    "indexed": false,
                    "internalType": "uint256",
                    "name": "amount",
                    "type": "uint256"
                }
            ],
            "name": "Deposit",
            "type": "event"
        },
        {
            "anonymous": false,
            "inputs": [
                {
                    "indexed": false,
                    "internalType": "address",
                    "name": "implementation",
                    "type": "address"
                }
            ],
            "name": "NewStratCandidate",
            "type": "event"
        },
        {
            "anonymous": false,
            "inputs": [
                {
                    "indexed": true,
                    "internalType": "address",
                    "name": "previousOwner",
                    "type": "address"
                },
                {
                    "indexed": true,
                    "internalType": "address",
                    "name": "newOwner",
                    "type": "address"
                }
            ],
            "name": "OwnershipTransferred",
            "type": "event"
        },
        {
            "anonymous": false,
            "inputs": [
                {
                    "indexed": false,
                    "internalType": "address",
                    "name": "implementation",
                    "type": "address"
                }
            ],
            "name": "UpgradeStrat",
            "type": "event"
        },
        {
            "anonymous": false,
            "inputs": [
                {
                    "indexed": true,
                    "internalType": "uint8",
                    "name": "term",
                    "type": "uint8"
                },
                {
                    "indexed": false,
                    "internalType": "uint256",
                    "name": "amount",
                    "type": "uint256"
                }
            ],
            "name": "Withdraw",
            "type": "event"
        },
        {
            "inputs": [],
            "name": "approvalDelay",
            "outputs": [
                {
                    "internalType": "uint256",
                    "name": "",
                    "type": "uint256"
                }
            ],
            "stateMutability": "view",
            "type": "function"
        },
        {
            "inputs": [],
            "name": "available",
            "outputs": [
                {
                    "internalType": "uint256",
                    "name": "",
                    "type": "uint256"
                }
            ],
            "stateMutability": "view",
            "type": "function"
        },
        {
            "inputs": [],
            "name": "balance",
            "outputs": [
                {
                    "internalType": "uint256",
                    "name": "",
                    "type": "uint256"
                }
            ],
            "stateMutability": "view",
            "type": "function"
        },
        {
            "inputs": [
                {
                    "internalType": "uint8",
                    "name": "term",
                    "type": "uint8"
                }
            ],
            "name": "balanceOf",
            "outputs": [
                {
                    "internalType": "uint256",
                    "name": "",
                    "type": "uint256"
                }
            ],
            "stateMutability": "view",
            "type": "function"
        },
        {
            "inputs": [
                {
                    "internalType": "uint256",
                    "name": "_amount",
                    "type": "uint256"
                },
                {
                    "internalType": "uint8",
                    "name": "_term",
                    "type": "uint8"
                }
            ],
            "name": "depositZap",
            "outputs": [],
            "stateMutability": "nonpayable",
            "type": "function"
        },
        {
            "inputs": [],
            "name": "earn",
            "outputs": [],
            "stateMutability": "nonpayable",
            "type": "function"
        },
        {
            "inputs": [],
            "name": "getPricePerFullShare",
            "outputs": [
                {
                    "internalType": "uint256",
                    "name": "",
                    "type": "uint256"
                }
            ],
            "stateMutability": "view",
            "type": "function"
        },
        {
            "inputs": [],
            "name": "owner",
            "outputs": [
                {
                    "internalType": "address",
                    "name": "",
                    "type": "address"
                }
            ],
            "stateMutability": "view",
            "type": "function"
        },
        {
            "inputs": [
                {
                    "internalType": "address",
                    "name": "_implementation",
                    "type": "address"
                }
            ],
            "name": "proposeStrat",
            "outputs": [],
            "stateMutability": "nonpayable",
            "type": "function"
        },
        {
            "inputs": [],
            "name": "renounceOwnership",
            "outputs": [],
            "stateMutability": "nonpayable",
            "type": "function"
        },
        {
            "inputs": [
                {
                    "internalType": "address",
                    "name": "_token",
                    "type": "address"
                }
            ],
            "name": "rescueTokens",
            "outputs": [],
            "stateMutability": "nonpayable",
            "type": "function"
        },
        {
            "inputs": [
                {
                    "internalType": "address",
                    "name": "_zapAddress",
                    "type": "address"
                }
            ],
            "name": "setZapAddress",
            "outputs": [],
            "stateMutability": "nonpayable",
            "type": "function"
        },
        {
            "inputs": [],
            "name": "stratCandidate",
            "outputs": [
                {
                    "internalType": "address",
                    "name": "implementation",
                    "type": "address"
                },
                {
                    "internalType": "uint256",
                    "name": "proposedTime",
                    "type": "uint256"
                }
            ],
            "stateMutability": "view",
            "type": "function"
        },
        {
            "inputs": [],
            "name": "strategy",
            "outputs": [
                {
                    "internalType": "contract IStrategy",
                    "name": "",
                    "type": "address"
                }
            ],
            "stateMutability": "view",
            "type": "function"
        },
        {
            "inputs": [
                {
                    "internalType": "uint8",
                    "name": "",
                    "type": "uint8"
                }
            ],
            "name": "termInfo",
            "outputs": [
                {
                    "internalType": "uint256",
                    "name": "amount",
                    "type": "uint256"
                }
            ],
            "stateMutability": "view",
            "type": "function"
        },
        {
            "inputs": [
                {
                    "internalType": "bool",
                    "name": "_toggle",
                    "type": "bool"
                }
            ],
            "name": "toggleZap",
            "outputs": [],
            "stateMutability": "nonpayable",
            "type": "function"
        },
        {
            "inputs": [],
            "name": "totalSupply",
            "outputs": [
                {
                    "internalType": "uint256",
                    "name": "",
                    "type": "uint256"
                }
            ],
            "stateMutability": "view",
            "type": "function"
        },
        {
            "inputs": [
                {
                    "internalType": "address",
                    "name": "newOwner",
                    "type": "address"
                }
            ],
            "name": "transferOwnership",
            "outputs": [],
            "stateMutability": "nonpayable",
            "type": "function"
        },
        {
            "inputs": [],
            "name": "upgradeStrat",
            "outputs": [],
            "stateMutability": "nonpayable",
            "type": "function"
        },
        {
            "inputs": [],
            "name": "want",
            "outputs": [
                {
                    "internalType": "contract IERC20",
                    "name": "",
                    "type": "address"
                }
            ],
            "stateMutability": "view",
            "type": "function"
        },
        {
            "inputs": [
                {
                    "internalType": "uint256",
                    "name": "_shares",
                    "type": "uint256"
                },
                {
                    "internalType": "uint8",
                    "name": "_term",
                    "type": "uint8"
                }
            ],
            "name": "withdrawZap",
            "outputs": [],
            "stateMutability": "nonpayable",
            "type": "function"
        },
        {
            "inputs": [],
            "name": "zapAddress",
            "outputs": [
                {
                    "internalType": "address",
                    "name": "",
                    "type": "address"
                }
            ],
            "stateMutability": "view",
            "type": "function"
        },
        {
            "inputs": [],
            "name": "zapEnabled",
            "outputs": [
                {
                    "internalType": "bool",
                    "name": "",
                    "type": "bool"
                }
            ],
            "stateMutability": "view",
            "type": "function"
        }
    ],
    "bytecode": "0x60a06040526000600760146101000a81548160ff0219169083151502179055503480156200002c57600080fd5b506040516200334b3803806200334b8339818101604052810190620000529190620001c4565b6200007262000066620000ca60201b60201c565b620000d260201b60201c565b6001808190555081600560006101000a81548173ffffffffffffffffffffffffffffffffffffffff021916908373ffffffffffffffffffffffffffffffffffffffff1602179055508060808181525050505062000296565b600033905090565b60008060009054906101000a900473ffffffffffffffffffffffffffffffffffffffff169050816000806101000a81548173ffffffffffffffffffffffffffffffffffffffff021916908373ffffffffffffffffffffffffffffffffffffffff1602179055508173ffffffffffffffffffffffffffffffffffffffff168173ffffffffffffffffffffffffffffffffffffffff167f8be0079c531659141344cd1fd0a4f28419497f9722a3daafe3b4186f6b6457e060405160405180910390a35050565b600081519050620001a78162000262565b92915050565b600081519050620001be816200027c565b92915050565b60008060408385031215620001de57620001dd6200025d565b5b6000620001ee8582860162000196565b92505060206200020185828601620001ad565b9150509250929050565b6000620002188262000233565b9050919050565b60006200022c826200020b565b9050919050565b600073ffffffffffffffffffffffffffffffffffffffff82169050919050565b6000819050919050565b600080fd5b6200026d816200021f565b81146200027957600080fd5b50565b620002878162000253565b81146200029357600080fd5b50565b608051613092620002b960003960008181610feb01526110b001526130926000f3fe608060405234801561001057600080fd5b506004361061014c5760003560e01c806377c7b8fc116100c3578063d389800f1161007c578063d389800f14610344578063e2d1e75c1461034e578063e66852441461036c578063f043299314610376578063f2fde38b14610392578063ff2cac6f146103ae5761014c565b806377c7b8fc146102945780638da5cb5b146102b25780639c11597d146102d0578063a8c62e76146102ec578063ab1e215c1461030a578063b69ef8a8146103265761014c565b80631a331eb1116101155780631a331eb1146101f55780631f1fcd511461021357806348a0d754146102315780635b12ff9b1461024f578063715018a61461026b57806376dfabb8146102755761014c565b8062ae3bf8146101515780630485fbe31461016d578063063f3d101461018957806308634835146101b957806318160ddd146101d7575b600080fd5b61016b60048036038101906101669190612276565b6103de565b005b61018760048036038101906101829190612384565b610600565b005b6101a3600480360381019061019e91906123c4565b6107c4565b6040516101b09190612a00565b60405180910390f35b6101c16107e2565b6040516101ce919061277d565b60405180910390f35b6101df6107f5565b6040516101ec9190612a00565b60405180910390f35b6101fd6107fb565b60405161020a9190612702565b60405180910390f35b61021b610821565b6040516102289190612798565b60405180910390f35b6102396108c8565b6040516102469190612a00565b60405180910390f35b61026960048036038101906102649190612276565b61095f565b005b610273610b0d565b005b61027d610b21565b60405161028b929190612754565b60405180910390f35b61029c610b53565b6040516102a99190612a00565b60405180910390f35b6102ba610ba8565b6040516102c79190612702565b60405180910390f35b6102ea60048036038101906102e59190612276565b610bd1565b005b6102f4610ca8565b60405161030191906127b3565b60405180910390f35b610324600480360381019061031f9190612384565b610cce565b005b61032e610dbc565b60405161033b9190612a00565b60405180910390f35b61034c610f04565b005b610356610fe9565b6040516103639190612a00565b60405180910390f35b61037461100d565b005b610390600480360381019061038b91906122d0565b6114c7565b005b6103ac60048036038101906103a79190612276565b6114ec565b005b6103c860048036038101906103c391906123c4565b611570565b6040516103d59190612a00565b60405180910390f35b6103e661159b565b6103ee610821565b73ffffffffffffffffffffffffffffffffffffffff168173ffffffffffffffffffffffffffffffffffffffff16141561045c576040517f08c379a0000000000000000000000000000000000000000000000000000000008152600401610453906128a0565b60405180910390fd5b600073ffffffffffffffffffffffffffffffffffffffff168173ffffffffffffffffffffffffffffffffffffffff1614156105435760003373ffffffffffffffffffffffffffffffffffffffff16476040516104b7906126ed565b60006040518083038185875af1925050503d80600081146104f4576040519150601f19603f3d011682016040523d82523d6000602084013e6104f9565b606091505b505090508061053d576040517f08c379a0000000000000000000000000000000000000000000000000000000008152600401610534906129e0565b60405180910390fd5b506105fd565b60008173ffffffffffffffffffffffffffffffffffffffff166370a08231306040518263ffffffff1660e01b815260040161057e9190612702565b60206040518083038186803b15801561059657600080fd5b505afa1580156105aa573d6000803e3d6000fd5b505050506040513d601f19601f820116820180604052508101906105ce9190612357565b90506105fb33828473ffffffffffffffffffffffffffffffffffffffff166116199092919063ffffffff16565b505b50565b60026001541415610646576040517f08c379a000000000000000000000000000000000000000000000000000000000815260040161063d906129c0565b60405180910390fd5b60026001819055503373ffffffffffffffffffffffffffffffffffffffff16600760009054906101000a900473ffffffffffffffffffffffffffffffffffffffff1673ffffffffffffffffffffffffffffffffffffffff16146106de576040517f08c379a00000000000000000000000000000000000000000000000000000000081526004016106d590612820565b60405180910390fd5b600760149054906101000a900460ff1661072d576040517f08c379a000000000000000000000000000000000000000000000000000000000815260040161072490612960565b60405180910390fd5b61076f6040518060400160405280600581526020017f5f7465726d0000000000000000000000000000000000000000000000000000008152508260ff1661169f565b6107ae6040518060400160405280601281526020017f6465706f7369745a6170205f616d6f756e7400000000000000000000000000008152508361169f565b6107b982823361173b565b600180819055505050565b60026020528060005260406000206000915090508060000154905081565b600760149054906101000a900460ff1681565b60065481565b600760009054906101000a900473ffffffffffffffffffffffffffffffffffffffff1681565b6000600560009054906101000a900473ffffffffffffffffffffffffffffffffffffffff1673ffffffffffffffffffffffffffffffffffffffff16631f1fcd516040518163ffffffff1660e01b815260040160206040518083038186803b15801561088b57600080fd5b505afa15801561089f573d6000803e3d6000fd5b505050506040513d601f19601f820116820180604052508101906108c3919061232a565b905090565b60006108d2610821565b73ffffffffffffffffffffffffffffffffffffffff166370a08231306040518263ffffffff1660e01b815260040161090a9190612702565b60206040518083038186803b15801561092257600080fd5b505afa158015610936573d6000803e3d6000fd5b505050506040513d601f19601f8201168201806040525081019061095a9190612357565b905090565b61096761159b565b8073ffffffffffffffffffffffffffffffffffffffff1663fbfa77cf6040518163ffffffff1660e01b815260040160206040518083038186803b1580156109ad57600080fd5b505afa1580156109c1573d6000803e3d6000fd5b505050506040513d601f19601f820116820180604052508101906109e591906122a3565b73ffffffffffffffffffffffffffffffffffffffff163073ffffffffffffffffffffffffffffffffffffffff1614610a52576040517f08c379a0000000000000000000000000000000000000000000000000000000008152600401610a49906128c0565b60405180910390fd5b60405180604001604052808273ffffffffffffffffffffffffffffffffffffffff16815260200142815250600360008201518160000160006101000a81548173ffffffffffffffffffffffffffffffffffffffff021916908373ffffffffffffffffffffffffffffffffffffffff160217905550602082015181600101559050507f1aae2ec5647db56da2d513de40528ba3565c6057525637050660c4323bbac7df81604051610b029190612702565b60405180910390a150565b610b1561159b565b610b1f6000611a02565b565b60038060000160009054906101000a900473ffffffffffffffffffffffffffffffffffffffff16908060010154905082565b60008060065414610b9957610b94600654610b86670de0b6b3a7640000610b78610dbc565b611ac690919063ffffffff16565b611adc90919063ffffffff16565b610ba3565b670de0b6b3a76400005b905090565b60008060009054906101000a900473ffffffffffffffffffffffffffffffffffffffff16905090565b610bd961159b565b600073ffffffffffffffffffffffffffffffffffffffff168173ffffffffffffffffffffffffffffffffffffffff161415610c49576040517f08c379a0000000000000000000000000000000000000000000000000000000008152600401610c4090612900565b60405180910390fd5b80600760006101000a81548173ffffffffffffffffffffffffffffffffffffffff021916908373ffffffffffffffffffffffffffffffffffffffff1602179055506001600760146101000a81548160ff02191690831515021790555050565b600560009054906101000a900473ffffffffffffffffffffffffffffffffffffffff1681565b3373ffffffffffffffffffffffffffffffffffffffff16600760009054906101000a900473ffffffffffffffffffffffffffffffffffffffff1673ffffffffffffffffffffffffffffffffffffffff1614610d5e576040517f08c379a0000000000000000000000000000000000000000000000000000000008152600401610d5590612820565b60405180910390fd5b600760149054906101000a900460ff16610dad576040517f08c379a0000000000000000000000000000000000000000000000000000000008152600401610da490612960565b60405180910390fd5b610db8828233611af2565b5050565b6000610eff600560009054906101000a900473ffffffffffffffffffffffffffffffffffffffff1673ffffffffffffffffffffffffffffffffffffffff1663722713f76040518163ffffffff1660e01b815260040160206040518083038186803b158015610e2957600080fd5b505afa158015610e3d573d6000803e3d6000fd5b505050506040513d601f19601f82011682018060405250810190610e619190612357565b610e69610821565b73ffffffffffffffffffffffffffffffffffffffff166370a08231306040518263ffffffff1660e01b8152600401610ea19190612702565b60206040518083038186803b158015610eb957600080fd5b505afa158015610ecd573d6000803e3d6000fd5b505050506040513d601f19601f82011682018060405250810190610ef19190612357565b611e4490919063ffffffff16565b905090565b6000610f0e6108c8565b9050610f64600560009054906101000a900473ffffffffffffffffffffffffffffffffffffffff1682610f3f610821565b73ffffffffffffffffffffffffffffffffffffffff166116199092919063ffffffff16565b600560009054906101000a900473ffffffffffffffffffffffffffffffffffffffff1673ffffffffffffffffffffffffffffffffffffffff1663d0e30db06040518163ffffffff1660e01b8152600401600060405180830381600087803b158015610fce57600080fd5b505af1158015610fe2573d6000803e3d6000fd5b5050505050565b7f000000000000000000000000000000000000000000000000000000000000000081565b61101561159b565b600073ffffffffffffffffffffffffffffffffffffffff16600360000160009054906101000a900473ffffffffffffffffffffffffffffffffffffffff1673ffffffffffffffffffffffffffffffffffffffff1614156110aa576040517f08c379a00000000000000000000000000000000000000000000000000000000081526004016110a190612920565b60405180910390fd5b426110e37f0000000000000000000000000000000000000000000000000000000000000000600360010154611e4490919063ffffffff16565b10611123576040517f08c379a000000000000000000000000000000000000000000000000000000000815260040161111a90612880565b60405180910390fd5b7f7f37d440e85aba7fbf641c4bda5ca4ef669a80bffaacde2aa8d9feb1b048c82c600360000160009054906101000a900473ffffffffffffffffffffffffffffffffffffffff166040516111779190612702565b60405180910390a16000600560009054906101000a900473ffffffffffffffffffffffffffffffffffffffff1673ffffffffffffffffffffffffffffffffffffffff16631f1fcd516040518163ffffffff1660e01b815260040160206040518083038186803b1580156111e957600080fd5b505afa1580156111fd573d6000803e3d6000fd5b505050506040513d601f19601f82011682018060405250810190611221919061232a565b9050600560009054906101000a900473ffffffffffffffffffffffffffffffffffffffff1673ffffffffffffffffffffffffffffffffffffffff1663fb6177876040518163ffffffff1660e01b8152600401600060405180830381600087803b15801561128d57600080fd5b505af11580156112a1573d6000803e3d6000fd5b50505050600360000160009054906101000a900473ffffffffffffffffffffffffffffffffffffffff16600560006101000a81548173ffffffffffffffffffffffffffffffffffffffff021916908373ffffffffffffffffffffffffffffffffffffffff16021790555060008173ffffffffffffffffffffffffffffffffffffffff166370a08231306040518263ffffffff1660e01b81526004016113469190612702565b60206040518083038186803b15801561135e57600080fd5b505afa158015611372573d6000803e3d6000fd5b505050506040513d601f19601f820116820180604052508101906113969190612357565b90506113e5600560009054906101000a900473ffffffffffffffffffffffffffffffffffffffff16828473ffffffffffffffffffffffffffffffffffffffff166116199092919063ffffffff16565b600560009054906101000a900473ffffffffffffffffffffffffffffffffffffffff1673ffffffffffffffffffffffffffffffffffffffff16638fd3ab806040518163ffffffff1660e01b8152600401600060405180830381600087803b15801561144f57600080fd5b505af1158015611463573d6000803e3d6000fd5b505050506000600360000160006101000a81548173ffffffffffffffffffffffffffffffffffffffff021916908373ffffffffffffffffffffffffffffffffffffffff16021790555064012a05f2006003600101819055506114c3610f04565b5050565b6114cf61159b565b80600760146101000a81548160ff02191690831515021790555050565b6114f461159b565b600073ffffffffffffffffffffffffffffffffffffffff168173ffffffffffffffffffffffffffffffffffffffff161415611564576040517f08c379a000000000000000000000000000000000000000000000000000000000815260040161155b90612840565b60405180910390fd5b61156d81611a02565b50565b600080600260008460ff1660ff16815260200190815260200160002090508060000154915050919050565b6115a3611e5a565b73ffffffffffffffffffffffffffffffffffffffff166115c1610ba8565b73ffffffffffffffffffffffffffffffffffffffff1614611617576040517f08c379a000000000000000000000000000000000000000000000000000000000815260040161160e906128e0565b60405180910390fd5b565b61169a8363a9059cbb60e01b8484604051602401611638929190612754565b604051602081830303815290604052907bffffffffffffffffffffffffffffffffffffffffffffffffffffffff19166020820180517bffffffffffffffffffffffffffffffffffffffffffffffffffffffff8381831617835250505050611e62565b505050565b61173782826040516024016116b59291906127f0565b6040516020818303038152906040527fb60e72cc000000000000000000000000000000000000000000000000000000007bffffffffffffffffffffffffffffffffffffffffffffffffffffffff19166020820180517bffffffffffffffffffffffffffffffffffffffffffffffffffffffff8381831617835250505050611f29565b5050565b6000600260008460ff1660ff168152602001908152602001600020905061179a6040518060400160405280600581526020017f5f7465726d0000000000000000000000000000000000000000000000000000008152508460ff1661169f565b600560009054906101000a900473ffffffffffffffffffffffffffffffffffffffff1673ffffffffffffffffffffffffffffffffffffffff1663573fef0a6040518163ffffffff1660e01b8152600401600060405180830381600087803b15801561180457600080fd5b505af1158015611818573d6000803e3d6000fd5b505050506000611826610dbc565b905061185c833087611836610821565b73ffffffffffffffffffffffffffffffffffffffff16611f43909392919063ffffffff16565b611864610f04565b600061186e610dbc565b90506118838282611fcc90919063ffffffff16565b95506000806006541415611899578690506118c3565b6118c0836118b26006548a611ac690919063ffffffff16565b611adc90919063ffffffff16565b90505b6119026040518060400160405280600781526020017f5f616d6f756e74000000000000000000000000000000000000000000000000008152508861169f565b6119456040518060400160405280600b81526020017f7465726d2e616d6f756e74000000000000000000000000000000000000000000815250856000015461169f565b6119846040518060400160405280600681526020017f73686172657300000000000000000000000000000000000000000000000000008152508261169f565b61199b818560000154611e4490919063ffffffff16565b84600001819055506119b881600654611e4490919063ffffffff16565b6006819055508560ff167f1d6bb4e583d7da423b02deed80468e06912cf1211d817d091ddddb7c63492e60826040516119f19190612a00565b60405180910390a250505050505050565b60008060009054906101000a900473ffffffffffffffffffffffffffffffffffffffff169050816000806101000a81548173ffffffffffffffffffffffffffffffffffffffff021916908373ffffffffffffffffffffffffffffffffffffffff1602179055508173ffffffffffffffffffffffffffffffffffffffff168173ffffffffffffffffffffffffffffffffffffffff167f8be0079c531659141344cd1fd0a4f28419497f9722a3daafe3b4186f6b6457e060405160405180910390a35050565b60008183611ad49190612ad4565b905092915050565b60008183611aea9190612aa3565b905092915050565b6000611b22600654611b1486611b06610dbc565b611ac690919063ffffffff16565b611adc90919063ffffffff16565b90506000600260008560ff1660ff16815260200190815260200160002090508481600001541015611b88576040517f08c379a0000000000000000000000000000000000000000000000000000000008152600401611b7f90612940565b60405180910390fd5b611b9f858260000154611fcc90919063ffffffff16565b8160000181905550611bbc85600654611fcc90919063ffffffff16565b6006819055506000611bcc610821565b73ffffffffffffffffffffffffffffffffffffffff166370a08231306040518263ffffffff1660e01b8152600401611c049190612702565b60206040518083038186803b158015611c1c57600080fd5b505afa158015611c30573d6000803e3d6000fd5b505050506040513d601f19601f82011682018060405250810190611c549190612357565b905082811015611dcf576000611c738285611fcc90919063ffffffff16565b9050600560009054906101000a900473ffffffffffffffffffffffffffffffffffffffff1673ffffffffffffffffffffffffffffffffffffffff16632e1a7d4d826040518263ffffffff1660e01b8152600401611cd09190612a00565b600060405180830381600087803b158015611cea57600080fd5b505af1158015611cfe573d6000803e3d6000fd5b505050506000611d0c610821565b73ffffffffffffffffffffffffffffffffffffffff166370a08231306040518263ffffffff1660e01b8152600401611d449190612702565b60206040518083038186803b158015611d5c57600080fd5b505afa158015611d70573d6000803e3d6000fd5b505050506040513d601f19601f82011682018060405250810190611d949190612357565b90506000611dab8483611fcc90919063ffffffff16565b905082811015611dcb57611dc88185611e4490919063ffffffff16565b95505b5050505b8460ff167fbcf075696884018cb037610b680550c484e197dd274b39849dcc4c9181b23bc687604051611e029190612a00565b60405180910390a2611e3c8484611e17610821565b73ffffffffffffffffffffffffffffffffffffffff166116199092919063ffffffff16565b505050505050565b60008183611e529190612a4d565b905092915050565b600033905090565b6000611ec4826040518060400160405280602081526020017f5361666545524332303a206c6f772d6c6576656c2063616c6c206661696c65648152508573ffffffffffffffffffffffffffffffffffffffff16611fe29092919063ffffffff16565b9050600081511115611f245780806020019051810190611ee491906122fd565b611f23576040517f08c379a0000000000000000000000000000000000000000000000000000000008152600401611f1a906129a0565b60405180910390fd5b5b505050565b611f4081611f38611ffa61201b565b63ffffffff16565b50565b611fc6846323b872dd60e01b858585604051602401611f649392919061271d565b604051602081830303815290604052907bffffffffffffffffffffffffffffffffffffffffffffffffffffffff19166020820180517bffffffffffffffffffffffffffffffffffffffffffffffffffffffff8381831617835250505050611e62565b50505050565b60008183611fda9190612b2e565b905092915050565b6060611ff18484600085612026565b90509392505050565b60006a636f6e736f6c652e6c6f679050600080835160208501845afa505050565b6121c4819050919050565b60608247101561206b576040517f08c379a000000000000000000000000000000000000000000000000000000000815260040161206290612860565b60405180910390fd5b6120748561213a565b6120b3576040517f08c379a00000000000000000000000000000000000000000000000000000000081526004016120aa90612980565b60405180910390fd5b6000808673ffffffffffffffffffffffffffffffffffffffff1685876040516120dc91906126d6565b60006040518083038185875af1925050503d8060008114612119576040519150601f19603f3d011682016040523d82523d6000602084013e61211e565b606091505b509150915061212e82828661215d565b92505050949350505050565b6000808273ffffffffffffffffffffffffffffffffffffffff163b119050919050565b6060831561216d578290506121bd565b6000835111156121805782518084602001fd5b816040517f08c379a00000000000000000000000000000000000000000000000000000000081526004016121b491906127ce565b60405180910390fd5b9392505050565b6121cc612ca2565b565b6000813590506121dd81612fe9565b92915050565b6000815190506121f281612fe9565b92915050565b60008135905061220781613000565b92915050565b60008151905061221c81613000565b92915050565b60008151905061223181613017565b92915050565b6000813590506122468161302e565b92915050565b60008151905061225b8161302e565b92915050565b60008135905061227081613045565b92915050565b60006020828403121561228c5761228b612cd1565b5b600061229a848285016121ce565b91505092915050565b6000602082840312156122b9576122b8612cd1565b5b60006122c7848285016121e3565b91505092915050565b6000602082840312156122e6576122e5612cd1565b5b60006122f4848285016121f8565b91505092915050565b60006020828403121561231357612312612cd1565b5b60006123218482850161220d565b91505092915050565b6000602082840312156123405761233f612cd1565b5b600061234e84828501612222565b91505092915050565b60006020828403121561236d5761236c612cd1565b5b600061237b8482850161224c565b91505092915050565b6000806040838503121561239b5761239a612cd1565b5b60006123a985828601612237565b92505060206123ba85828601612261565b9150509250929050565b6000602082840312156123da576123d9612cd1565b5b60006123e884828501612261565b91505092915050565b6123fa81612b62565b82525050565b61240981612b74565b82525050565b600061241a82612a1b565b6124248185612a31565b9350612434818560208601612c11565b80840191505092915050565b61244981612bc9565b82525050565b61245881612bdb565b82525050565b600061246982612a26565b6124738185612a3c565b9350612483818560208601612c11565b61248c81612cd6565b840191505092915050565b60006124a4601183612a3c565b91506124af82612ce7565b602082019050919050565b60006124c7602683612a3c565b91506124d282612d10565b604082019050919050565b60006124ea602683612a3c565b91506124f582612d5f565b604082019050919050565b600061250d601483612a3c565b915061251882612dae565b602082019050919050565b6000612530600683612a3c565b915061253b82612dd7565b602082019050919050565b6000612553602183612a3c565b915061255e82612e00565b604082019050919050565b6000612576602083612a3c565b915061258182612e4f565b602082019050919050565b6000612599601f83612a3c565b91506125a482612e78565b602082019050919050565b60006125bc601583612a3c565b91506125c782612ea1565b602082019050919050565b60006125df601c83612a3c565b91506125ea82612eca565b602082019050919050565b6000612602600083612a31565b915061260d82612ef3565b600082019050919050565b6000612625600f83612a3c565b915061263082612ef6565b602082019050919050565b6000612648601d83612a3c565b915061265382612f1f565b602082019050919050565b600061266b602a83612a3c565b915061267682612f48565b604082019050919050565b600061268e601f83612a3c565b915061269982612f97565b602082019050919050565b60006126b1600e83612a3c565b91506126bc82612fc0565b602082019050919050565b6126d081612bb2565b82525050565b60006126e2828461240f565b915081905092915050565b60006126f8826125f5565b9150819050919050565b600060208201905061271760008301846123f1565b92915050565b600060608201905061273260008301866123f1565b61273f60208301856123f1565b61274c60408301846126c7565b949350505050565b600060408201905061276960008301856123f1565b61277660208301846126c7565b9392505050565b60006020820190506127926000830184612400565b92915050565b60006020820190506127ad6000830184612440565b92915050565b60006020820190506127c8600083018461244f565b92915050565b600060208201905081810360008301526127e8818461245e565b905092915050565b6000604082019050818103600083015261280a818561245e565b905061281960208301846126c7565b9392505050565b6000602082019050818103600083015261283981612497565b9050919050565b60006020820190508181036000830152612859816124ba565b9050919050565b60006020820190508181036000830152612879816124dd565b9050919050565b6000602082019050818103600083015261289981612500565b9050919050565b600060208201905081810360008301526128b981612523565b9050919050565b600060208201905081810360008301526128d981612546565b9050919050565b600060208201905081810360008301526128f981612569565b9050919050565b600060208201905081810360008301526129198161258c565b9050919050565b60006020820190508181036000830152612939816125af565b9050919050565b60006020820190508181036000830152612959816125d2565b9050919050565b6000602082019050818103600083015261297981612618565b9050919050565b600060208201905081810360008301526129998161263b565b9050919050565b600060208201905081810360008301526129b98161265e565b9050919050565b600060208201905081810360008301526129d981612681565b9050919050565b600060208201905081810360008301526129f9816126a4565b9050919050565b6000602082019050612a1560008301846126c7565b92915050565b600081519050919050565b600081519050919050565b600081905092915050565b600082825260208201905092915050565b6000612a5882612bb2565b9150612a6383612bb2565b9250827fffffffffffffffffffffffffffffffffffffffffffffffffffffffffffffffff03821115612a9857612a97612c44565b5b828201905092915050565b6000612aae82612bb2565b9150612ab983612bb2565b925082612ac957612ac8612c73565b5b828204905092915050565b6000612adf82612bb2565b9150612aea83612bb2565b9250817fffffffffffffffffffffffffffffffffffffffffffffffffffffffffffffffff0483118215151615612b2357612b22612c44565b5b828202905092915050565b6000612b3982612bb2565b9150612b4483612bb2565b925082821015612b5757612b56612c44565b5b828203905092915050565b6000612b6d82612b92565b9050919050565b60008115159050919050565b6000612b8b82612b62565b9050919050565b600073ffffffffffffffffffffffffffffffffffffffff82169050919050565b6000819050919050565b600060ff82169050919050565b6000612bd482612bed565b9050919050565b6000612be682612bed565b9050919050565b6000612bf882612bff565b9050919050565b6000612c0a82612b92565b9050919050565b60005b83811015612c2f578082015181840152602081019050612c14565b83811115612c3e576000848401525b50505050565b7f4e487b7100000000000000000000000000000000000000000000000000000000600052601160045260246000fd5b7f4e487b7100000000000000000000000000000000000000000000000000000000600052601260045260246000fd5b7f4e487b7100000000000000000000000000000000000000000000000000000000600052605160045260246000fd5b600080fd5b6000601f19601f8301169050919050565b7f4f6e6c79207a61702063616e2063616c6c000000000000000000000000000000600082015250565b7f4f776e61626c653a206e6577206f776e657220697320746865207a65726f206160008201527f6464726573730000000000000000000000000000000000000000000000000000602082015250565b7f416464726573733a20696e73756666696369656e742062616c616e636520666f60008201527f722063616c6c0000000000000000000000000000000000000000000000000000602082015250565b7f44656c617920686173206e6f7420706173736564000000000000000000000000600082015250565b7f21746f6b656e0000000000000000000000000000000000000000000000000000600082015250565b7f50726f706f73616c206e6f742076616c696420666f722074686973205661756c60008201527f7400000000000000000000000000000000000000000000000000000000000000602082015250565b7f4f776e61626c653a2063616c6c6572206973206e6f7420746865206f776e6572600082015250565b7f4e6577207a61702061646472657373206973207a65726f206164647265737300600082015250565b7f5468657265206973206e6f2063616e6469646174650000000000000000000000600082015250565b7f77697468647261773a206e6f7420656e6f7567682062616c616e636500000000600082015250565b50565b7f5a6170206e6f7420656e61626c65640000000000000000000000000000000000600082015250565b7f416464726573733a2063616c6c20746f206e6f6e2d636f6e7472616374000000600082015250565b7f5361666545524332303a204552433230206f7065726174696f6e20646964206e60008201527f6f74207375636365656400000000000000000000000000000000000000000000602082015250565b7f5265656e7472616e637947756172643a207265656e7472616e742063616c6c00600082015250565b7f6661696c656420746f2073656e64000000000000000000000000000000000000600082015250565b612ff281612b62565b8114612ffd57600080fd5b50565b61300981612b74565b811461301457600080fd5b50565b61302081612b80565b811461302b57600080fd5b50565b61303781612bb2565b811461304257600080fd5b50565b61304e81612bbc565b811461305957600080fd5b5056fea26469706673582212203d5fcbbf51785bb9bb852b37ba07b9c1c31664c4a33a203e0917e5f3eef3151564736f6c63430008070033",
    "linkReferences": {},
    "deployedLinkReferences": {}
}