{
  "address": "0xBF6A0e67d12D74b7C4f0410B875993688d1Df460",
  "abi": [
    {
      "inputs": [],
      "name": "FunctionInvalidAtThisState",
      "type": "error"
    },
    {
      "anonymous": false,
      "inputs": [
        {
          "indexed": true,
          "internalType": "uint256",
          "name": "termId",
          "type": "uint256"
        },
        {
          "indexed": true,
          "internalType": "address",
          "name": "user",
          "type": "address"
        },
        {
          "indexed": true,
          "internalType": "uint256",
          "name": "amount",
          "type": "uint256"
        }
      ],
      "name": "OnCollateralLiquidated",
      "type": "event"
    },
    {
      "anonymous": false,
      "inputs": [
        {
          "indexed": true,
          "internalType": "uint256",
          "name": "termId",
          "type": "uint256"
        },
        {
          "indexed": true,
          "internalType": "enum LibCollateralStorage.CollateralStates",
          "name": "oldState",
          "type": "uint8"
        },
        {
          "indexed": true,
          "internalType": "enum LibCollateralStorage.CollateralStates",
          "name": "newState",
          "type": "uint8"
        }
      ],
      "name": "OnCollateralStateChanged",
      "type": "event"
    },
    {
      "anonymous": false,
      "inputs": [
        {
          "indexed": true,
          "internalType": "uint256",
          "name": "termId",
          "type": "uint256"
        },
        {
          "indexed": true,
          "internalType": "address",
          "name": "user",
          "type": "address"
        },
        {
          "indexed": false,
          "internalType": "address",
          "name": "receiver",
          "type": "address"
        },
        {
          "indexed": true,
          "internalType": "uint256",
          "name": "collateralAmount",
          "type": "uint256"
        }
      ],
      "name": "OnCollateralWithdrawal",
      "type": "event"
    },
    {
      "anonymous": false,
      "inputs": [
        {
          "indexed": true,
          "internalType": "uint256",
          "name": "termId",
          "type": "uint256"
        },
        {
          "indexed": true,
          "internalType": "address",
          "name": "user",
          "type": "address"
        },
        {
          "indexed": true,
          "internalType": "uint256",
          "name": "amount",
          "type": "uint256"
        }
      ],
      "name": "OnFrozenMoneyPotLiquidated",
      "type": "event"
    },
    {
      "anonymous": false,
      "inputs": [
        {
          "indexed": true,
          "internalType": "uint256",
          "name": "termId",
          "type": "uint256"
        },
        {
          "indexed": true,
          "internalType": "address",
          "name": "participant",
          "type": "address"
        },
        {
          "indexed": false,
          "internalType": "address",
          "name": "receiver",
          "type": "address"
        },
        {
          "indexed": true,
          "internalType": "uint256",
          "name": "amount",
          "type": "uint256"
        }
      ],
      "name": "OnReimbursementWithdrawn",
      "type": "event"
    },
    {
      "anonymous": false,
      "inputs": [
        {
          "indexed": true,
          "internalType": "uint256",
          "name": "termId",
          "type": "uint256"
        },
        {
          "indexed": true,
          "internalType": "address",
          "name": "user",
          "type": "address"
        },
        {
          "indexed": false,
          "internalType": "address",
          "name": "receiver",
          "type": "address"
        },
        {
          "indexed": true,
          "internalType": "uint256",
          "name": "amount",
          "type": "uint256"
        }
      ],
      "name": "OnYieldClaimed",
      "type": "event"
    },
    {
      "inputs": [
        {
          "internalType": "uint256",
          "name": "termId",
          "type": "uint256"
        }
      ],
      "name": "emptyCollateralAfterEnd",
      "outputs": [],
      "stateMutability": "nonpayable",
      "type": "function"
    },
    {
      "inputs": [
        {
          "internalType": "uint256",
          "name": "termId",
          "type": "uint256"
        },
        {
          "internalType": "address",
          "name": "user",
          "type": "address"
        }
      ],
      "name": "emptyCollateralByUser",
      "outputs": [],
      "stateMutability": "nonpayable",
      "type": "function"
    },
    {
      "inputs": [
        {
          "internalType": "uint256",
          "name": "termId",
          "type": "uint256"
        }
      ],
      "name": "releaseCollateral",
      "outputs": [],
      "stateMutability": "nonpayable",
      "type": "function"
    },
    {
      "inputs": [
        {
          "components": [
            {
              "internalType": "bool",
              "name": "initialized",
              "type": "bool"
            },
            {
              "internalType": "enum LibTermStorage.TermStates",
              "name": "state",
              "type": "uint8"
            },
            {
              "internalType": "address",
              "name": "termOwner",
              "type": "address"
            },
            {
              "internalType": "uint256",
              "name": "creationTime",
              "type": "uint256"
            },
            {
              "internalType": "uint256",
              "name": "termId",
              "type": "uint256"
            },
            {
              "internalType": "uint256",
              "name": "registrationPeriod",
              "type": "uint256"
            },
            {
              "internalType": "uint256",
              "name": "totalParticipants",
              "type": "uint256"
            },
            {
              "internalType": "uint256",
              "name": "cycleTime",
              "type": "uint256"
            },
            {
              "internalType": "uint256",
              "name": "contributionAmount",
              "type": "uint256"
            },
            {
              "internalType": "uint256",
              "name": "contributionPeriod",
              "type": "uint256"
            },
            {
              "internalType": "address",
              "name": "stableTokenAddress",
              "type": "address"
            }
          ],
          "internalType": "struct LibTermStorage.Term",
          "name": "term",
          "type": "tuple"
        },
        {
          "internalType": "address[]",
          "name": "defaulters",
          "type": "address[]"
        }
      ],
      "name": "requestContribution",
      "outputs": [
        {
          "internalType": "address[]",
          "name": "",
          "type": "address[]"
        }
      ],
      "stateMutability": "nonpayable",
      "type": "function"
    },
    {
      "inputs": [
        {
          "internalType": "uint256",
          "name": "termId",
          "type": "uint256"
        }
      ],
      "name": "withdrawCollateral",
      "outputs": [],
      "stateMutability": "nonpayable",
      "type": "function"
    },
    {
      "inputs": [
        {
          "internalType": "uint256",
          "name": "termId",
          "type": "uint256"
        },
        {
          "internalType": "address",
          "name": "receiver",
          "type": "address"
        }
      ],
      "name": "withdrawCollateralToAnotherAddress",
      "outputs": [],
      "stateMutability": "nonpayable",
      "type": "function"
    }
  ],
  "transactionHash": "0xc468bee15084c8aacc2dc2d78a1b1b042d92bfb7a1e64983b69587540457f55e",
  "args": [],
  "numDeployments": 8,
  "solcInputHash": "a81e268746d7c05213456d799fe7d5a8",
  "bytecode": "0x608060405234801561001057600080fd5b5061285d806100206000396000f3fe608060405234801561001057600080fd5b50600436106100625760003560e01c80631c5a1e1c146100675780632081c1af1461007c57806339007b77146100a55780634c7a351f146100b85780636112fe2e146100cb578063c3bfb61c146100de575b600080fd5b61007a6100753660046122d3565b6100f1565b005b61008f61008a3660046123b0565b6103d7565b60405161009c919061249e565b60405180910390f35b61007a6100b33660046124eb565b610552565b61007a6100c63660046122d3565b6105d1565b61007a6100d93660046124eb565b6106ea565b61007a6100ec3660046124eb565b6106f7565b816100fb81610a2c565b8260026101088282610a92565b60008581526000805160206128088339815191526020908152604080832060008051602061278883398151915283528184206000805160206127e8833981519152845282852083516101608101909452805460ff8082161515865293969295929493919284019161010090910416600381111561018757610187612504565b600381111561019857610198612504565b815281546001600160a01b03620100009091048116602083015260018301546040830152600280840154606084015260038401546080840152600484015460a0840152600584015460c0840152600684015460e0840152600784015461010084015260089093015416610120909101529091508160200151600381111561022157610221612504565b0361025e5760405162461bcd60e51b815260206004820152600860248201526754542d54462d313560c01b60448201526064015b60405180910390fd5b604051636b95dc3f60e11b815260048101899052600090309063d72bb87e90602401600060405180830381865afa15801561029d573d6000803e3d6000fd5b505050506040513d6000823e601f3d908101601f191682016040526102c5919081019061251a565b5050955050505050508062ed4e006102dd9190612663565b42116103165760405162461bcd60e51b815260206004820152600860248201526754542d43462d303360c01b6044820152606401610255565b6001600160a01b0388166000908152600585016020908152604080832080546006890190935290832080549184905583905590916103568c8c8589610afd565b90506000816103658486612663565b61036f9190612663565b604051909150600090339083908381818185875af1925050503d80600081146103b4576040519150601f19603f3d011682016040523d82523d6000602084013e6103b9565b606091505b50509050806103c757600080fd5b5050505050505050505050505050565b6060836080015160016103ea8282610a92565b608086018051600090815260008051602061280883398151915260209081526040808320935183526000805160206127a8833981519152909152902030331461043257600080fd5b600080610474848b858c8c80806020026020016040519081016040528093929190818152602001838360200280828437600092019190915250610b9092505050565b915091506000806104858686611053565b9092509050811561054257825160005b818110156104ca576104c2878683815181106104b3576104b3612676565b60200260200101518686611179565b600101610495565b506104d5838661268c565b945060005b8381101561053f57858860060160008584815181106104fb576104fb612676565b60200260200101516001600160a01b03166001600160a01b0316815260200190815260200160002060008282546105329190612663565b90915550506001016104da565b50505b50909a9950505050505050505050565b60008181526000805160206127a8833981519152602052604090208054600490610100900460ff168181111561058a5761058a612504565b146105c25760405162461bcd60e51b81526020600482015260086024820152672a2a16a1a316981960c11b6044820152606401610255565b6105cd826002611273565b5050565b60008281526000805160206127a88339815191526020908152604080832060018101805483518186028101860190945280845291949390919083018282801561064357602002820191906000526020600020905b81546001600160a01b03168152600190910190602001808311610625575b505050505090506000815190506000805b8281101561069f57336001600160a01b031684828151811061067857610678612676565b60200260200101516001600160a01b031603610697576001915061069f565b600101610654565b50806106d85760405162461bcd60e51b815260206004820152600860248201526754542d43462d303160c01b6044820152606401610255565b6106e28686611310565b505050505050565b6106f48133611310565b50565b8061070181610a2c565b81600261070e8282610a92565b60008481526000805160206128088339815191526020908152604080832060008051602061278883398151915283528184206000805160206127e8833981519152845282852083516101608101909452805460ff8082161515865293969295929493919284019161010090910416600381111561078d5761078d612504565b600381111561079e5761079e612504565b815281546001600160a01b03620100009091048116602083015260018301546040830152600280840154606084015260038401546080840152600484015460a0840152600584015460c0840152600684015460e0840152600784015461010084015260089093015416610120909101529091508160200151600381111561082757610827612504565b0361085f5760405162461bcd60e51b815260206004820152600860248201526754542d54462d313560c01b6044820152606401610255565b604051636b95dc3f60e11b815260048101889052600090309063d72bb87e90602401600060405180830381865afa15801561089e573d6000803e3d6000fd5b505050506040513d6000823e601f3d908101601f191682016040526108c6919081019061251a565b5050955050505050508062ed4e006108de9190612663565b42116109175760405162461bcd60e51b815260206004820152600860248201526754542d43462d303360c01b6044820152606401610255565b6003840154600090815b818110156109be57600087600301828154811061094057610940612676565b6000918252602080832091909101546001600160a01b031680835260058b0182526040808420805460068e01909452908420805491859055849055909350909161098c8f85858d610afd565b9050806109998385612663565b6109a39190612663565b6109ad9088612663565b965084600101945050505050610921565b506109ca8a6003611273565b604051600090339084908381818185875af1925050503d8060008114610a0c576040519150601f19603f3d011682016040523d82523d6000602084013e610a11565b606091505b5050905080610a1f57600080fd5b5050505050505050505050565b60008181526000805160206127e883398151915260205260409020546001600160a01b03620100009091041633146106f45760405162461bcd60e51b815260206004820152600960248201526854542d4c544f2d303160b81b6044820152606401610255565b60008281526000805160206128088339815191526020526040902054610100900460ff16816003811115610ac857610ac8612504565b816003811115610ada57610ada612504565b14610af85760405163201328a760e01b815260040160405180910390fd5b505050565b6001600160a01b038316600090815260078201602052604081205460ff1615610b84576001600160a01b0384166000908152600983016020908152604080832054600b8601909252822054610b5291906126ae565b905080600003610b655760009150610b7e565b83811115610b705750825b610b7b868287611793565b91505b50610b88565b5060005b949350505050565b600060606000835167ffffffffffffffff811115610bb057610bb0612303565b604051908082528060200260200182016040528015610bd9578160200160208202803683370190505b5090506000806000306001600160a01b031663d072f4bc8a6101000151670de0b6b3a7640000610c0991906126c1565b6040518263ffffffff1660e01b8152600401610c2791815260200190565b602060405180830381865afa158015610c44573d6000803e3d6000fd5b505050506040513d601f19601f82011682018060405250810190610c6891906126d8565b905060005b8751811015611042576040805160808101825260008082526020820181905291810182905260608101919091528960060160008a8481518110610cb257610cb2612676565b6020908102919091018101516001600160a01b0316825281019190915260400160009081205460ff1615156060830152895160058e019082908c9086908110610cfd57610cfd612676565b60200260200101516001600160a01b03166001600160a01b03168152602001908152602001600020549050816060015115610f2f57610d598c608001518b8581518110610d4c57610d4c612676565b6020026020010151611a38565b15610f18578a600a0160008b8581518110610d7657610d76612676565b6020908102919091018101516001600160a01b031682528101919091526040016000205460ff1615610f0257838110610dc057600182526000602083018190526040830152610f5f565b60008b60090160008c8681518110610dda57610dda612676565b60200260200101516001600160a01b03166001600160a01b03168152602001908152602001600020541115610e1f576000808352600160208401526040830152610f5f565b60808c015160405163f0d826e760e01b81526004810191909152309063f0d826e790602401602060405180830381865afa158015610e61573d6000803e3d6000fd5b505050506040513d601f19601f82011682018060405250810190610e8591906126d8565b8d60060160008c8681518110610e9d57610e9d612676565b60200260200101516001600160a01b03166001600160a01b031681526020019081526020016000205482610ed19190612663565b10610eec576001808352602083015260006040830152610f5f565b6001808352602083018190526040830152610f5f565b6001808352600060208401526040830152610f5f565b600182526000602083018190526040830152610f5f565b838110610f4d57600182526000602083018190526040830152610f5f565b60008083526020830152600160408301525b610f868d8c8e8d8781518110610f7757610f77612676565b60200260200101518887611b81565b610f909086612663565b945081604001511561103857898381518110610fae57610fae612676565b6020026020010151878781518110610fc857610fc8612676565b60200260200101906001600160a01b031690816001600160a01b0316815250508a600401548b600b01600089898151811061100557611005612676565b60200260200101516001600160a01b03166001600160a01b03168152602001908152602001600020819055508560010195505b5050600101610c6d565b509099929850919650505050505050565b60006060600080856003018054905067ffffffffffffffff81111561107a5761107a612303565b6040519080825280602002602001820160405280156110a3578160200160208202803683370190505b506003870154909150600090815b81811015611168578860030181815481106110ce576110ce612676565b60009182526020808320909101546001600160a01b031680835260068b0190915260409091205490955060ff1615801561112257506001600160a01b038516600090815260048a01602052604090205460ff165b15611160578484848151811061113a5761113a612676565b6001600160a01b03909216602092830291909101909101528261115c816126f1565b9350505b6001016110b1565b5090945090925050505b9250929050565b6001600160a01b038316600090815260068501602052604090205460ff1661126d576001840154600090815b818110156111fb578660010181815481106111c2576111c2612676565b6000918252602090912001546001600160a01b03908116908716036111f3576111ec816001612663565b92506111fb565b6001016111a5565b5060005b84811015611269576000838152600c88016020526040812085516001929087908590811061122f5761122f612676565b6020908102919091018101516001600160a01b03168252810191909152604001600020805460ff19169115159190911790556001016111ff565b5050505b50505050565b600082815260008051602061280883398151915260205260409020805461010080820460ff16918491849161ff001916908360038111156112b6576112b6612504565b02179055508260038111156112cd576112cd612504565b8160038111156112df576112df612504565b60405186907ffe918112a2fca8c18cc609a5d585d9fc8448267cb7b9d6c19a445fe5c0c199c890600090a450505050565b60008281526000805160206127a883398151915260209081526040808320600080516020612808833981519152835281842060008051602061278883398151915284528285206000805160206127e8833981519152855283862084516101608101909552805460ff80821615158752949793969295939491928401916101009091041660038111156113a4576113a4612504565b60038111156113b5576113b5612504565b815281546201000090046001600160a01b0390811660208301526001830154604080840191909152600284015460608401526003840154608084015260048085015460a0850152600585015460c0850152600685015460e0850152600785015461010085015260089094015490911661012090920191909152516377778baf60e01b815290810188905233602482015290915060009030906377778baf90604401602060405180830381865afa158015611473573d6000803e3d6000fd5b505050506040513d601f19601f8201168201806040525081019061149791906126d8565b9050600081116114d45760405162461bcd60e51b815260206004820152600860248201526715150b50d18b4c0d60c21b6044820152606401610255565b33600090815260158601602052604081205460ff1660028654610100900460ff16600381111561150657611506612504565b148061150f5750805b156116235733600090815260058701602052604081205560028460200151600381111561153e5761153e612504565b146115515761154f89338588610afd565b505b60028654610100900460ff16600381111561156e5761156e612504565b036115895785600201600081546115849061270a565b909155505b6040516001600160a01b038916908490600081818185875af1925050503d80600081146115d2576040519150601f19603f3d011682016040523d82523d6000602084013e6115d7565b606091505b50506040516001600160a01b038a168152909250839033908b907f696258e73a905f06a50d1acab2d3cf608c8704658f737fce596b7f8dc97fdec99060200160405180910390a461170f565b60018654610100900460ff16600381111561164057611640612504565b0361170f57336000908152600587016020526040812080548592906116669084906126ae565b90915550611678905089338588610afd565b506040516001600160a01b038916908490600081818185875af1925050503d80600081146116c2576040519150601f19603f3d011682016040523d82523d6000602084013e6116c7565b606091505b50506040516001600160a01b038a168152909250839033908b907f696258e73a905f06a50d1acab2d3cf608c8704658f737fce596b7f8dc97fdec99060200160405180910390a45b816117475760405162461bcd60e51b815260206004820152600860248201526754542d43462d303560c01b6044820152606401610255565b33600090815260078601602052604090205460ff1680156117785750336000908152600a8601602052604090205415155b156117885761178889338a61215a565b505050505050505050565b6000838152600080516020612788833981519152602052604081206005810154600382015483916117c691879190612287565b6001600160a01b03851660009081526009840160205260408120805492935087929091906117f5908490612663565b925050819055508482600401600082825461181091906126ae565b9091555050604080516605a61796e5a61760cc1b815260018401600782018190529151908190036027018120546816985e5b95985d5b1d60ba1b82526001600160a01b03169160009160090190815260405190819003602001812054631398fee160e31b82526001600160a01b031691506000908290639cc7f7089061189e908c9060040190815260200190565b602060405180830381865afa1580156118bb573d6000803e3d6000fd5b505050506040513d601f19601f820116820180604052508101906118df91906126d8565b905080841115611905576127106118f682866126ae565b1015611900578093505b61191c565b61271061191285836126ae565b101561191c578093505b6040516316d5e29b60e11b81526001600160a01b03838116600483015260248201869052604482018b905260009190851690632dabc536906064016020604051808303816000875af1158015611976573d6000803e3d6000fd5b505050506040513d601f19601f8201168201806040525081019061199a91906126d8565b9050888110156119b35760009650505050505050611a31565b60006119bf8a836126ae565b6001600160a01b038a1660009081526008890160205260408120805492935083929091906119ee908490612663565b90915550506001600160a01b0389166000908152600a8801602052604081208054839290611a1d908490612663565b90915550909750611a319650505050505050565b9392505050565b6000828152600080516020612808833981519152602090815260408083206001600160a01b0385168452600581019092528220548290611a948660009081526000805160206127a8833981519152602052604090205460ff1690565b611b135760405163bb91b76d60e01b81526001600160a01b038616600482015260248101879052309063bb91b76d9060440160a060405180830381865afa158015611ae3573d6000803e3d6000fd5b505050506040513d601f19601f82011682018060405250810190611b079190612721565b9550611b769350505050565b60405163f0d826e760e01b815260048101879052309063f0d826e790602401602060405180830381865afa158015611b4f573d6000803e3d6000fd5b505050506040513d601f19601f82011682018060405250810190611b7391906126d8565b91505b109150505b92915050565b608084018051600090815260008051602061278883398151915260205260408082209251905163d8f8e99160e01b815260048101919091529091908290309063d8f8e99190602401602060405180830381865afa158015611be6573d6000803e3d6000fd5b505050506040513d601f19601f82011682018060405250810190611c0a919061276a565b84519091508015611c1d57508360200151155b15611d9057836040015115611ce557836060015115611cbe576001600160a01b038616600090815260058a0160205260409020546080880151611c6290888386610afd565b50611c6d8185612663565b6001600160a01b038816600081815260058d01602052604080822082905560808c01519051939750849390917f10f8476f9a23ac06c638b35201072d11e362a5abe0247195ce64284bbe94ce9a91a4505b6001600160a01b038616600090815260048a0160205260409020805460ff19169055611d90565b611cf58760800151878785610afd565b506001600160a01b038616600090815260058a01602052604081208054879290611d209084906126ae565b90915550506001600160a01b038116600090815260068a01602052604081208054879290611d4f908490612663565b9091555050608087015160405186916001600160a01b038916917f10f8476f9a23ac06c638b35201072d11e362a5abe0247195ce64284bbe94ce9a90600090a45b83602001518015611da057508351155b15611e5857610100870151611db890620f42406126c1565b6001600160a01b038716600090815260098a01602052604081208054909190611de29084906126ae565b9091555050610100870151611dfa90620f42406126c1565b6001600160a01b038216600090815260098a01602052604081208054909190611e24908490612663565b909155505061010087015160808801516040516001600160a01b03891691906000805160206127c883398151915290600090a45b83518015611e67575083602001515b1561214e576001600160a01b038616600090815260058a01602090815260408083205460068d019092528220546101008a015191929091309063d072f4bc90611eb890670de0b6b3a76400006126c1565b6040518263ffffffff1660e01b8152600401611ed691815260200190565b602060405180830381865afa158015611ef3573d6000803e3d6000fd5b505050506040513d601f19601f82011682018060405250810190611f1791906126d8565b90508215611f6c57611f2f8a608001518a8588610afd565b5060808a015160405184916001600160a01b038c16917f10f8476f9a23ac06c638b35201072d11e362a5abe0247195ce64284bbe94ce9a90600090a45b86604001511561201557611f808284612663565b611f8a9087612663565b955060008c60050160008b6001600160a01b03166001600160a01b031681526020019081526020016000208190555060008c60060160008b6001600160a01b03166001600160a01b031681526020019081526020016000208190555081896001600160a01b03168b608001516000805160206127c883398151915260405160405180910390a461214a565b82156120c157600061202784836126ae565b905060008d60050160008c6001600160a01b03166001600160a01b0316815260200190815260200160002081905550808d60060160008c6001600160a01b03166001600160a01b03168152602001908152602001600020600082825461208d91906126ae565b909155505060808b015160405184916001600160a01b038d16916000805160206127c883398151915290600090a45061211a565b6001600160a01b038916600090815260068d016020526040812080548392906120eb9084906126ae565b909155505060808a015160405182916001600160a01b038c16916000805160206127c883398151915290600090a45b6001600160a01b038416600090815260068d016020526040812080548a9290612144908490612663565b90915550505b5050505b50509695505050505050565b6000838152600080516020612788833981519152602090815260408083206001600160a01b0386168452600a810190925290912054806121c85760405162461bcd60e51b815260206004820152600960248201526854542d4c59472d303160b81b6044820152606401610255565b6001600160a01b038481166000908152600a8401602052604080822082905551909185169083908381818185875af1925050503d8060008114612227576040519150601f19603f3d011682016040523d82523d6000602084013e61222c565b606091505b505090508061223a57600080fd5b6040516001600160a01b03858116825283919087169088907fdb2460ca9a22614b8fe3f598b727569022250e691340edbbaf8ff069969155f09060200160405180910390a4505050505050565b60008160000361229957506000611a31565b816122a484866126c1565b610b88919061268c565b6001600160a01b03811681146106f457600080fd5b80356122ce816122ae565b919050565b600080604083850312156122e657600080fd5b8235915060208301356122f8816122ae565b809150509250929050565b634e487b7160e01b600052604160045260246000fd5b604051610160810167ffffffffffffffff8111828210171561233d5761233d612303565b60405290565b80151581146106f457600080fd5b80356122ce81612343565b8035600481106122ce57600080fd5b60008083601f84011261237d57600080fd5b50813567ffffffffffffffff81111561239557600080fd5b6020830191508360208260051b850101111561117257600080fd5b60008060008385036101808112156123c757600080fd5b610160808212156123d757600080fd5b6123df612319565b91506123ea86612351565b82526123f86020870161235c565b6020830152612409604087016122c3565b6040830152606086013560608301526080860135608083015260a086013560a083015260c086013560c083015260e086013560e08301526101008087013581840152506101208087013581840152506101406124668188016122c3565b9083015290935084013567ffffffffffffffff81111561248557600080fd5b6124918682870161236b565b9497909650939450505050565b6020808252825182820181905260009190848201906040850190845b818110156124df5783516001600160a01b0316835292840192918401916001016124ba565b50909695505050505050565b6000602082840312156124fd57600080fd5b5035919050565b634e487b7160e01b600052602160045260246000fd5b600080600080600080600080610100898b03121561253757600080fd5b885161254281612343565b809850506020808a01516005811061255957600080fd5b60408b015190985061256a816122ae565b60608b015190975067ffffffffffffffff8082111561258857600080fd5b818c0191508c601f83011261259c57600080fd5b8151818111156125ae576125ae612303565b8060051b604051601f19603f830116810181811085821117156125d3576125d3612303565b60405291825284820192508381018501918f8311156125f157600080fd5b938501935b8285101561261b578451915061260b826122ae565b81845293850193928501926125f6565b809a505050505050506080890151935060a0890151925060c0890151915060e089015190509295985092959890939650565b634e487b7160e01b600052601160045260246000fd5b80820180821115611b7b57611b7b61264d565b634e487b7160e01b600052603260045260246000fd5b6000826126a957634e487b7160e01b600052601260045260246000fd5b500490565b81810381811115611b7b57611b7b61264d565b8082028115828204841417611b7b57611b7b61264d565b6000602082840312156126ea57600080fd5b5051919050565b6000600182016127035761270361264d565b5060010190565b6000816127195761271961264d565b506000190190565b600080600080600060a0868803121561273957600080fd5b855161274481612343565b602087015160408801516060890151608090990151929a91995097965090945092505050565b60006020828403121561277c57600080fd5b8151611a31816122ae56fe29d9cba46c358ba7c1b8945751229339792c7c62e3197c240fa98916e75ffbf96751f7e27cecf86d7136f5749c224248cae80a39fafb59f8f6bf12c52816307c9ecbf86544b133eb80eba635946daf018f997778387601f4c8d43c851b2ec07487101b21d556417ad2b8e8f2700dbad90721d5d50a1f435f2dee0b9dc981ac8a35fa70a6f9ae8a4d427ebe0c1be62ffd2870fecc1df41c6fda0bf5803e562888a2646970667358221220b78792e446e43ff36a9c2f47dc44654857d15c9f05da8bbb12979b7291fdfddd64736f6c63430008120033",
  "devdoc": {
    "author": "Aisha El Allam",
    "details": "v3.0 (Diamond)",
    "kind": "dev",
    "methods": {
      "emptyCollateralAfterEnd(uint256)": {
        "details": "Revert if the collateral is not at releasing collateralRevert if the caller is not the term ownerRevert if the time is not met",
        "params": {
          "termId": "The term id"
        }
      },
      "emptyCollateralByUser(uint256,address)": {
        "details": "Revert if the collateral is not at releasing collateralRevert if the caller is not the term ownerRevert if the time is not met",
        "params": {
          "termId": "The term id",
          "user": "The user to empty the collateral"
        }
      },
      "releaseCollateral(uint256)": {
        "details": "Does not withdraw anything, just set the state for users to withdrawOnly succeeds when fund is closed or term is expired",
        "params": {
          "termId": "term id"
        }
      },
      "requestContribution((bool,uint8,address,uint256,uint256,uint256,uint256,uint256,uint256,uint256,address),address[])": {
        "details": "Check EnumerableMap (openzeppelin) for arrays that are being accessed from Fund contractRevert if the caller is not the Diamond proxy",
        "params": {
          "defaulters": "Addressess of all defaulters of the current cycle",
          "term": "Term object"
        },
        "returns": {
          "_0": "expellants array of addresses that were expelled"
        }
      },
      "withdrawCollateral(uint256)": {
        "details": "This follows the pull-over-push pattern.",
        "params": {
          "termId": "term id"
        }
      },
      "withdrawCollateralToAnotherAddress(uint256,address)": {
        "details": "This follows the pull-over-push pattern.Revert if the caller is not a participant",
        "params": {
          "receiver": "receiver address",
          "termId": "term id"
        }
      }
    },
    "title": "Takaturn Collateral Facet",
    "version": 1
  },
  "userdoc": {
    "kind": "user",
    "methods": {
      "emptyCollateralAfterEnd(uint256)": {
        "notice": "allow the owner to empty the Collateral after 180 days"
      },
      "emptyCollateralByUser(uint256,address)": {
        "notice": "allow the owner to empty the Collateral for any user due to emergency issues"
      },
      "releaseCollateral(uint256)": {
        "notice": "Allows to withdraw all collateral from the at the term's end"
      },
      "requestContribution((bool,uint8,address,uint256,uint256,uint256,uint256,uint256,uint256,uint256,address),address[])": {
        "notice": "Called from Fund facet when someone defaults"
      },
      "withdrawCollateral(uint256)": {
        "notice": "Called by each member after during or at the end of the term to withraw collateral"
      },
      "withdrawCollateralToAnotherAddress(uint256,address)": {
        "notice": "Called by each member after during or at the end of the term to withraw collateral to a different address than the caller"
      }
    },
    "notice": "This is used to operate the Takaturn collateral",
    "version": 1
  },
  "storageLayout": {
    "storage": [],
    "types": null
  }
}