{
  "address": "0xBf05d97e57A220c81602F3B05B7A8DDDB6eFcA13",
  "abi": [
    {
      "inputs": [
        {
          "internalType": "address",
          "name": "participant",
          "type": "address"
        },
        {
          "internalType": "uint256",
          "name": "termId",
          "type": "uint256"
        }
      ],
      "name": "currentOrNextCyclePaid",
      "outputs": [
        {
          "internalType": "bool",
          "name": "",
          "type": "bool"
        },
        {
          "internalType": "bool",
          "name": "",
          "type": "bool"
        }
      ],
      "stateMutability": "view",
      "type": "function"
    },
    {
      "inputs": [
        {
          "internalType": "uint256",
          "name": "termId",
          "type": "uint256"
        },
        {
          "internalType": "address",
          "name": "user",
          "type": "address"
        }
      ],
      "name": "expelledBeforeBeneficiary",
      "outputs": [
        {
          "internalType": "bool",
          "name": "",
          "type": "bool"
        }
      ],
      "stateMutability": "view",
      "type": "function"
    },
    {
      "inputs": [
        {
          "internalType": "address",
          "name": "participant",
          "type": "address"
        }
      ],
      "name": "getAllJoinedTerms",
      "outputs": [
        {
          "internalType": "uint256[]",
          "name": "",
          "type": "uint256[]"
        }
      ],
      "stateMutability": "view",
      "type": "function"
    },
    {
      "inputs": [
        {
          "internalType": "uint256",
          "name": "termId",
          "type": "uint256"
        }
      ],
      "name": "getAvailablePositionsAndSecurityAmount",
      "outputs": [
        {
          "internalType": "uint256[]",
          "name": "",
          "type": "uint256[]"
        },
        {
          "internalType": "uint256[]",
          "name": "",
          "type": "uint256[]"
        }
      ],
      "stateMutability": "view",
      "type": "function"
    },
    {
      "inputs": [
        {
          "internalType": "uint256",
          "name": "termId",
          "type": "uint256"
        }
      ],
      "name": "getCollateralSummary",
      "outputs": [
        {
          "internalType": "bool",
          "name": "",
          "type": "bool"
        },
        {
          "internalType": "enum LibCollateralStorage.CollateralStates",
          "name": "",
          "type": "uint8"
        },
        {
          "internalType": "uint256",
          "name": "",
          "type": "uint256"
        },
        {
          "internalType": "uint256",
          "name": "",
          "type": "uint256"
        },
        {
          "internalType": "address[]",
          "name": "",
          "type": "address[]"
        }
      ],
      "stateMutability": "view",
      "type": "function"
    },
    {
      "inputs": [
        {
          "internalType": "string",
          "name": "firstAggregator",
          "type": "string"
        },
        {
          "internalType": "string",
          "name": "secondAggregator",
          "type": "string"
        },
        {
          "internalType": "string",
          "name": "zapAddress",
          "type": "string"
        },
        {
          "internalType": "string",
          "name": "vaultAddress",
          "type": "string"
        }
      ],
      "name": "getConstants",
      "outputs": [
        {
          "internalType": "address",
          "name": "",
          "type": "address"
        },
        {
          "internalType": "address",
          "name": "",
          "type": "address"
        },
        {
          "internalType": "address",
          "name": "",
          "type": "address"
        },
        {
          "internalType": "address",
          "name": "",
          "type": "address"
        }
      ],
      "stateMutability": "view",
      "type": "function"
    },
    {
      "inputs": [
        {
          "internalType": "uint256",
          "name": "termId",
          "type": "uint256"
        }
      ],
      "name": "getCurrentBeneficiary",
      "outputs": [
        {
          "internalType": "address",
          "name": "",
          "type": "address"
        }
      ],
      "stateMutability": "view",
      "type": "function"
    },
    {
      "inputs": [
        {
          "internalType": "address",
          "name": "depositor",
          "type": "address"
        },
        {
          "internalType": "uint256",
          "name": "termId",
          "type": "uint256"
        }
      ],
      "name": "getDepositorCollateralSummary",
      "outputs": [
        {
          "internalType": "bool",
          "name": "",
          "type": "bool"
        },
        {
          "internalType": "uint256",
          "name": "",
          "type": "uint256"
        },
        {
          "internalType": "uint256",
          "name": "",
          "type": "uint256"
        },
        {
          "internalType": "uint256",
          "name": "",
          "type": "uint256"
        },
        {
          "internalType": "uint256",
          "name": "",
          "type": "uint256"
        }
      ],
      "stateMutability": "view",
      "type": "function"
    },
    {
      "inputs": [
        {
          "internalType": "address",
          "name": "participant",
          "type": "address"
        }
      ],
      "name": "getExpelledTerms",
      "outputs": [
        {
          "internalType": "uint256[]",
          "name": "",
          "type": "uint256[]"
        }
      ],
      "stateMutability": "view",
      "type": "function"
    },
    {
      "inputs": [
        {
          "internalType": "uint256",
          "name": "termId",
          "type": "uint256"
        }
      ],
      "name": "getFundSummary",
      "outputs": [
        {
          "internalType": "bool",
          "name": "",
          "type": "bool"
        },
        {
          "internalType": "enum LibFundStorage.FundStates",
          "name": "",
          "type": "uint8"
        },
        {
          "internalType": "contract IERC20",
          "name": "",
          "type": "address"
        },
        {
          "internalType": "address[]",
          "name": "",
          "type": "address[]"
        },
        {
          "internalType": "uint256",
          "name": "",
          "type": "uint256"
        },
        {
          "internalType": "uint256",
          "name": "",
          "type": "uint256"
        },
        {
          "internalType": "uint256",
          "name": "",
          "type": "uint256"
        },
        {
          "internalType": "uint256",
          "name": "",
          "type": "uint256"
        }
      ],
      "stateMutability": "view",
      "type": "function"
    },
    {
      "inputs": [
        {
          "internalType": "address",
          "name": "participant",
          "type": "address"
        },
        {
          "internalType": "enum LibTermStorage.TermStates",
          "name": "state",
          "type": "uint8"
        }
      ],
      "name": "getJoinedTermsByState",
      "outputs": [
        {
          "internalType": "uint256[]",
          "name": "",
          "type": "uint256[]"
        }
      ],
      "stateMutability": "view",
      "type": "function"
    },
    {
      "inputs": [],
      "name": "getLatestPrice",
      "outputs": [
        {
          "internalType": "uint256",
          "name": "",
          "type": "uint256"
        }
      ],
      "stateMutability": "view",
      "type": "function"
    },
    {
      "inputs": [
        {
          "internalType": "address",
          "name": "user",
          "type": "address"
        }
      ],
      "name": "getNeededAllowance",
      "outputs": [
        {
          "internalType": "uint256",
          "name": "",
          "type": "uint256"
        }
      ],
      "stateMutability": "view",
      "type": "function"
    },
    {
      "inputs": [
        {
          "internalType": "uint256",
          "name": "termId",
          "type": "uint256"
        }
      ],
      "name": "getNextBeneficiary",
      "outputs": [
        {
          "internalType": "address",
          "name": "",
          "type": "address"
        }
      ],
      "stateMutability": "view",
      "type": "function"
    },
    {
      "inputs": [
        {
          "internalType": "address",
          "name": "participant",
          "type": "address"
        },
        {
          "internalType": "uint256",
          "name": "termId",
          "type": "uint256"
        }
      ],
      "name": "getParticipantFundSummary",
      "outputs": [
        {
          "internalType": "bool",
          "name": "",
          "type": "bool"
        },
        {
          "internalType": "bool",
          "name": "",
          "type": "bool"
        },
        {
          "internalType": "bool",
          "name": "",
          "type": "bool"
        },
        {
          "internalType": "bool",
          "name": "",
          "type": "bool"
        },
        {
          "internalType": "uint256",
          "name": "",
          "type": "uint256"
        },
        {
          "internalType": "bool",
          "name": "",
          "type": "bool"
        }
      ],
      "stateMutability": "view",
      "type": "function"
    },
    {
      "inputs": [
        {
          "internalType": "uint256",
          "name": "termId",
          "type": "uint256"
        }
      ],
      "name": "getRemainingContributionTime",
      "outputs": [
        {
          "internalType": "uint256",
          "name": "",
          "type": "uint256"
        }
      ],
      "stateMutability": "view",
      "type": "function"
    },
    {
      "inputs": [
        {
          "internalType": "uint256",
          "name": "termId",
          "type": "uint256"
        }
      ],
      "name": "getRemainingCycleTime",
      "outputs": [
        {
          "internalType": "uint256",
          "name": "",
          "type": "uint256"
        }
      ],
      "stateMutability": "view",
      "type": "function"
    },
    {
      "inputs": [
        {
          "internalType": "uint256",
          "name": "termId",
          "type": "uint256"
        }
      ],
      "name": "getRemainingCycles",
      "outputs": [
        {
          "internalType": "uint256",
          "name": "",
          "type": "uint256"
        }
      ],
      "stateMutability": "view",
      "type": "function"
    },
    {
      "inputs": [
        {
          "internalType": "uint256",
          "name": "termId",
          "type": "uint256"
        }
      ],
      "name": "getRemainingCyclesContributionWei",
      "outputs": [
        {
          "internalType": "uint256",
          "name": "",
          "type": "uint256"
        }
      ],
      "stateMutability": "view",
      "type": "function"
    },
    {
      "inputs": [
        {
          "internalType": "uint256",
          "name": "termId",
          "type": "uint256"
        }
      ],
      "name": "getRemainingRegistrationTime",
      "outputs": [
        {
          "internalType": "uint256",
          "name": "",
          "type": "uint256"
        }
      ],
      "stateMutability": "view",
      "type": "function"
    },
    {
      "inputs": [
        {
          "internalType": "uint256",
          "name": "termId",
          "type": "uint256"
        }
      ],
      "name": "getTermRelatedSummary",
      "outputs": [
        {
          "components": [
            {
              "internalType": "bool",
              "name": "initialized",
              "type": "bool"
            },
            {
              "internalType": "enum LibTermStorage.TermStates",
              "name": "state",
              "type": "uint8"
            },
            {
              "internalType": "address",
              "name": "termOwner",
              "type": "address"
            },
            {
              "internalType": "uint256",
              "name": "creationTime",
              "type": "uint256"
            },
            {
              "internalType": "uint256",
              "name": "termId",
              "type": "uint256"
            },
            {
              "internalType": "uint256",
              "name": "registrationPeriod",
              "type": "uint256"
            },
            {
              "internalType": "uint256",
              "name": "totalParticipants",
              "type": "uint256"
            },
            {
              "internalType": "uint256",
              "name": "cycleTime",
              "type": "uint256"
            },
            {
              "internalType": "uint256",
              "name": "contributionAmount",
              "type": "uint256"
            },
            {
              "internalType": "uint256",
              "name": "contributionPeriod",
              "type": "uint256"
            },
            {
              "internalType": "address",
              "name": "stableTokenAddress",
              "type": "address"
            }
          ],
          "internalType": "struct LibTermStorage.Term",
          "name": "term",
          "type": "tuple"
        },
        {
          "internalType": "enum LibCollateralStorage.CollateralStates",
          "name": "collateralState",
          "type": "uint8"
        },
        {
          "internalType": "enum LibFundStorage.FundStates",
          "name": "fundState",
          "type": "uint8"
        },
        {
          "components": [
            {
              "internalType": "uint256[]",
              "name": "availablePositions",
              "type": "uint256[]"
            },
            {
              "internalType": "uint256[]",
              "name": "securityDeposits",
              "type": "uint256[]"
            },
            {
              "internalType": "uint256",
              "name": "remainingRegistrationTime",
              "type": "uint256"
            },
            {
              "internalType": "uint256",
              "name": "remainingContributionTime",
              "type": "uint256"
            },
            {
              "internalType": "uint256",
              "name": "remainingCycleTime",
              "type": "uint256"
            },
            {
              "internalType": "uint256",
              "name": "remainingCycles",
              "type": "uint256"
            },
            {
              "internalType": "uint256",
              "name": "rcc",
              "type": "uint256"
            },
            {
              "internalType": "uint256",
              "name": "latestPrice",
              "type": "uint256"
            },
            {
              "internalType": "bool",
              "name": "collateralInitialized",
              "type": "bool"
            },
            {
              "internalType": "uint256",
              "name": "collateralFirstDepositTime",
              "type": "uint256"
            },
            {
              "internalType": "uint256",
              "name": "collateralCounterMembers",
              "type": "uint256"
            },
            {
              "internalType": "bool",
              "name": "fundInitialized",
              "type": "bool"
            },
            {
              "internalType": "uint256",
              "name": "fundStartTime",
              "type": "uint256"
            },
            {
              "internalType": "uint256",
              "name": "fundEndTime",
              "type": "uint256"
            },
            {
              "internalType": "uint256",
              "name": "fundCurrentCycle",
              "type": "uint256"
            },
            {
              "internalType": "uint256",
              "name": "fundExpellantsCount",
              "type": "uint256"
            },
            {
              "internalType": "uint256",
              "name": "fundTotalCycles",
              "type": "uint256"
            },
            {
              "internalType": "address[]",
              "name": "fundBeneficiariesOrder",
              "type": "address[]"
            },
            {
              "internalType": "bool",
              "name": "yieldInitialized",
              "type": "bool"
            },
            {
              "internalType": "uint256",
              "name": "yieldStartTime",
              "type": "uint256"
            },
            {
              "internalType": "uint256",
              "name": "yieldTotalDeposit",
              "type": "uint256"
            },
            {
              "internalType": "uint256",
              "name": "yieldCurrentTotalDeposit",
              "type": "uint256"
            },
            {
              "internalType": "uint256",
              "name": "yieldTotalShares",
              "type": "uint256"
            },
            {
              "internalType": "address[]",
              "name": "yieldUsers",
              "type": "address[]"
            }
          ],
          "internalType": "struct LibGettersHelpers.NonUserRelated",
          "name": "nonUserRelated",
          "type": "tuple"
        }
      ],
      "stateMutability": "view",
      "type": "function"
    },
    {
      "inputs": [
        {
          "internalType": "uint256",
          "name": "termId",
          "type": "uint256"
        }
      ],
      "name": "getTermSummary",
      "outputs": [
        {
          "components": [
            {
              "internalType": "bool",
              "name": "initialized",
              "type": "bool"
            },
            {
              "internalType": "enum LibTermStorage.TermStates",
              "name": "state",
              "type": "uint8"
            },
            {
              "internalType": "address",
              "name": "termOwner",
              "type": "address"
            },
            {
              "internalType": "uint256",
              "name": "creationTime",
              "type": "uint256"
            },
            {
              "internalType": "uint256",
              "name": "termId",
              "type": "uint256"
            },
            {
              "internalType": "uint256",
              "name": "registrationPeriod",
              "type": "uint256"
            },
            {
              "internalType": "uint256",
              "name": "totalParticipants",
              "type": "uint256"
            },
            {
              "internalType": "uint256",
              "name": "cycleTime",
              "type": "uint256"
            },
            {
              "internalType": "uint256",
              "name": "contributionAmount",
              "type": "uint256"
            },
            {
              "internalType": "uint256",
              "name": "contributionPeriod",
              "type": "uint256"
            },
            {
              "internalType": "address",
              "name": "stableTokenAddress",
              "type": "address"
            }
          ],
          "internalType": "struct LibTermStorage.Term",
          "name": "",
          "type": "tuple"
        }
      ],
      "stateMutability": "view",
      "type": "function"
    },
    {
      "inputs": [],
      "name": "getTermsId",
      "outputs": [
        {
          "internalType": "uint256",
          "name": "",
          "type": "uint256"
        },
        {
          "internalType": "uint256",
          "name": "",
          "type": "uint256"
        }
      ],
      "stateMutability": "view",
      "type": "function"
    },
    {
      "inputs": [
        {
          "internalType": "uint256",
          "name": "USDAmount",
          "type": "uint256"
        }
      ],
      "name": "getToCollateralConversionRate",
      "outputs": [
        {
          "internalType": "uint256",
          "name": "",
          "type": "uint256"
        }
      ],
      "stateMutability": "view",
      "type": "function"
    },
    {
      "inputs": [
        {
          "internalType": "uint256",
          "name": "ethAmount",
          "type": "uint256"
        }
      ],
      "name": "getToStableConversionRate",
      "outputs": [
        {
          "internalType": "uint256",
          "name": "",
          "type": "uint256"
        }
      ],
      "stateMutability": "view",
      "type": "function"
    },
    {
      "inputs": [
        {
          "internalType": "address",
          "name": "user",
          "type": "address"
        },
        {
          "internalType": "uint256",
          "name": "termId",
          "type": "uint256"
        }
      ],
      "name": "getUserRelatedSummary",
      "outputs": [
        {
          "components": [
            {
              "internalType": "bool",
              "name": "collateralMember",
              "type": "bool"
            },
            {
              "internalType": "bool",
              "name": "isUnderCollaterized",
              "type": "bool"
            },
            {
              "internalType": "uint256",
              "name": "membersBank",
              "type": "uint256"
            },
            {
              "internalType": "uint256",
              "name": "paymentBank",
              "type": "uint256"
            },
            {
              "internalType": "uint256",
              "name": "deposited",
              "type": "uint256"
            },
            {
              "internalType": "uint256",
              "name": "expulsonLimit",
              "type": "uint256"
            },
            {
              "internalType": "uint256",
              "name": "withdrawableBalance",
              "type": "uint256"
            },
            {
              "internalType": "bool",
              "name": "fundMember",
              "type": "bool"
            },
            {
              "internalType": "bool",
              "name": "beneficiary",
              "type": "bool"
            },
            {
              "internalType": "bool",
              "name": "currentCyclePaid",
              "type": "bool"
            },
            {
              "internalType": "bool",
              "name": "nextCyclePaid",
              "type": "bool"
            },
            {
              "internalType": "bool",
              "name": "autoPayer",
              "type": "bool"
            },
            {
              "internalType": "bool",
              "name": "moneyPotFrozen",
              "type": "bool"
            },
            {
              "internalType": "bool",
              "name": "exemptedThisCycle",
              "type": "bool"
            },
            {
              "internalType": "uint256",
              "name": "pool",
              "type": "uint256"
            },
            {
              "internalType": "uint256",
              "name": "cycleExpelled",
              "type": "uint256"
            },
            {
              "internalType": "bool",
              "name": "yieldMember",
              "type": "bool"
            },
            {
              "internalType": "uint256",
              "name": "collateralDepositedInYield",
              "type": "uint256"
            },
            {
              "internalType": "uint256",
              "name": "collateralWithdrawnFromYield",
              "type": "uint256"
            },
            {
              "internalType": "uint256",
              "name": "yieldAvailable",
              "type": "uint256"
            },
            {
              "internalType": "uint256",
              "name": "yieldWithdrawn",
              "type": "uint256"
            },
            {
              "internalType": "uint256",
              "name": "distributedYield",
              "type": "uint256"
            }
          ],
          "internalType": "struct LibGettersHelpers.UserRelated",
          "name": "userRelated",
          "type": "tuple"
        }
      ],
      "stateMutability": "view",
      "type": "function"
    },
    {
      "inputs": [
        {
          "internalType": "address",
          "name": "participant",
          "type": "address"
        },
        {
          "internalType": "uint256",
          "name": "termId",
          "type": "uint256"
        }
      ],
      "name": "getUserSet",
      "outputs": [
        {
          "internalType": "bool",
          "name": "",
          "type": "bool"
        },
        {
          "internalType": "bool",
          "name": "",
          "type": "bool"
        },
        {
          "internalType": "bool",
          "name": "",
          "type": "bool"
        }
      ],
      "stateMutability": "view",
      "type": "function"
    },
    {
      "inputs": [
        {
          "internalType": "address",
          "name": "user",
          "type": "address"
        },
        {
          "internalType": "uint256",
          "name": "termId",
          "type": "uint256"
        }
      ],
      "name": "getUserYieldSummary",
      "outputs": [
        {
          "internalType": "bool",
          "name": "",
          "type": "bool"
        },
        {
          "internalType": "uint256",
          "name": "",
          "type": "uint256"
        },
        {
          "internalType": "uint256",
          "name": "",
          "type": "uint256"
        },
        {
          "internalType": "uint256",
          "name": "",
          "type": "uint256"
        },
        {
          "internalType": "uint256",
          "name": "",
          "type": "uint256"
        },
        {
          "internalType": "uint256",
          "name": "",
          "type": "uint256"
        }
      ],
      "stateMutability": "view",
      "type": "function"
    },
    {
      "inputs": [
        {
          "internalType": "uint256",
          "name": "termId",
          "type": "uint256"
        },
        {
          "internalType": "address",
          "name": "user",
          "type": "address"
        }
      ],
      "name": "getWithdrawableUserBalance",
      "outputs": [
        {
          "internalType": "uint256",
          "name": "allowedWithdrawal",
          "type": "uint256"
        }
      ],
      "stateMutability": "view",
      "type": "function"
    },
    {
      "inputs": [],
      "name": "getYieldLockState",
      "outputs": [
        {
          "internalType": "bool",
          "name": "",
          "type": "bool"
        }
      ],
      "stateMutability": "view",
      "type": "function"
    },
    {
      "inputs": [
        {
          "internalType": "uint256",
          "name": "termId",
          "type": "uint256"
        }
      ],
      "name": "getYieldSummary",
      "outputs": [
        {
          "internalType": "bool",
          "name": "",
          "type": "bool"
        },
        {
          "internalType": "uint256",
          "name": "",
          "type": "uint256"
        },
        {
          "internalType": "uint256",
          "name": "",
          "type": "uint256"
        },
        {
          "internalType": "uint256",
          "name": "",
          "type": "uint256"
        },
        {
          "internalType": "uint256",
          "name": "",
          "type": "uint256"
        },
        {
          "internalType": "address[]",
          "name": "",
          "type": "address[]"
        },
        {
          "internalType": "address",
          "name": "",
          "type": "address"
        },
        {
          "internalType": "address",
          "name": "",
          "type": "address"
        }
      ],
      "stateMutability": "view",
      "type": "function"
    },
    {
      "inputs": [
        {
          "internalType": "uint256",
          "name": "termId",
          "type": "uint256"
        },
        {
          "internalType": "address",
          "name": "beneficiary",
          "type": "address"
        }
      ],
      "name": "isBeneficiary",
      "outputs": [
        {
          "internalType": "bool",
          "name": "",
          "type": "bool"
        }
      ],
      "stateMutability": "view",
      "type": "function"
    },
    {
      "inputs": [
        {
          "internalType": "uint256",
          "name": "termId",
          "type": "uint256"
        },
        {
          "internalType": "uint256",
          "name": "cycle",
          "type": "uint256"
        },
        {
          "internalType": "address",
          "name": "user",
          "type": "address"
        }
      ],
      "name": "isExempted",
      "outputs": [
        {
          "internalType": "bool",
          "name": "",
          "type": "bool"
        }
      ],
      "stateMutability": "view",
      "type": "function"
    },
    {
      "inputs": [
        {
          "internalType": "uint256",
          "name": "termId",
          "type": "uint256"
        },
        {
          "internalType": "address",
          "name": "member",
          "type": "address"
        }
      ],
      "name": "isUnderCollaterized",
      "outputs": [
        {
          "internalType": "bool",
          "name": "",
          "type": "bool"
        }
      ],
      "stateMutability": "view",
      "type": "function"
    },
    {
      "inputs": [
        {
          "internalType": "uint256",
          "name": "termId",
          "type": "uint256"
        },
        {
          "internalType": "uint256",
          "name": "depositorIndex",
          "type": "uint256"
        }
      ],
      "name": "minCollateralToDeposit",
      "outputs": [
        {
          "internalType": "uint256",
          "name": "amount",
          "type": "uint256"
        }
      ],
      "stateMutability": "view",
      "type": "function"
    },
    {
      "inputs": [
        {
          "internalType": "uint256",
          "name": "termId",
          "type": "uint256"
        }
      ],
      "name": "termAPY",
      "outputs": [
        {
          "internalType": "uint256",
          "name": "",
          "type": "uint256"
        }
      ],
      "stateMutability": "view",
      "type": "function"
    },
    {
      "inputs": [
        {
          "internalType": "uint256",
          "name": "termId",
          "type": "uint256"
        }
      ],
      "name": "totalYieldGenerated",
      "outputs": [
        {
          "internalType": "uint256",
          "name": "",
          "type": "uint256"
        }
      ],
      "stateMutability": "view",
      "type": "function"
    },
    {
      "inputs": [
        {
          "internalType": "uint256",
          "name": "termId",
          "type": "uint256"
        },
        {
          "internalType": "address",
          "name": "user",
          "type": "address"
        }
      ],
      "name": "userAPY",
      "outputs": [
        {
          "internalType": "uint256",
          "name": "",
          "type": "uint256"
        }
      ],
      "stateMutability": "view",
      "type": "function"
    },
    {
      "inputs": [
        {
          "internalType": "uint256",
          "name": "termId",
          "type": "uint256"
        },
        {
          "internalType": "address",
          "name": "user",
          "type": "address"
        }
      ],
      "name": "userHasoptedInYG",
      "outputs": [
        {
          "internalType": "bool",
          "name": "",
          "type": "bool"
        }
      ],
      "stateMutability": "view",
      "type": "function"
    },
    {
      "inputs": [
        {
          "internalType": "uint256",
          "name": "termId",
          "type": "uint256"
        },
        {
          "internalType": "address",
          "name": "user",
          "type": "address"
        }
      ],
      "name": "wasExpelled",
      "outputs": [
        {
          "internalType": "bool",
          "name": "",
          "type": "bool"
        }
      ],
      "stateMutability": "view",
      "type": "function"
    }
  ],
  "transactionHash": "0xb1bfa3b7576bbb792a7da8cbd3e7d5c9034a402056049ce093eec59fded62185",
  "args": [],
  "numDeployments": 8,
  "solcInputHash": "541908a0eb7f4e33136d1d6dcc386db4",
  "bytecode": "0x608060405234801561001057600080fd5b50613d13806100206000396000f3fe608060405234801561001057600080fd5b50600436106102485760003560e01c806391ce5ff71161013b578063d8f8e991116100b8578063e51a62951161007c578063e51a6295146106b7578063e9783e60146106ca578063f0d826e7146106dd578063f1ecd5d9146106f0578063fd4dba9d1461071057600080fd5b8063d8f8e9911461063a578063da3791ca1461064d578063dbd5768314610671578063dbf4281014610691578063dc9e24ae146106a457600080fd5b8063bb91b76d116100ff578063bb91b76d1461059d578063c177f091146105da578063d072f4bc146105ed578063d72bb87e14610600578063d7992e5b1461062757600080fd5b806391ce5ff7146104f757806392a6c8021461050a5780639d4eb26f1461051d578063b6abd1a414610544578063b7cf483f1461058a57600080fd5b80636bbbb5fb116101c957806377778baf1161018d57806377778baf146104825780637aed53a61461049557806380530731146104b257806384bc198d146104c55780638e15f473146104ef57600080fd5b80636bbbb5fb146103ce5780637063f618146103e157806375aaa78c1461040257806375d4e40b14610415578063762877921461045f57600080fd5b80632d591bdc116102105780632d591bdc146103345780633d17f1e01461035f5780636191474c1461039557806362f02abd146103a857806365654fe3146103bb57600080fd5b80630c64c6971461024d5780630fc4a7ef146102735780631268612d146102865780631c162dbe146102d25780631e993b5314610314575b600080fd5b61026061025b36600461326f565b610742565b6040519081526020015b60405180910390f35b610260610281366004613291565b6107f9565b6102996102943660046132c6565b61082d565b604080519615158752941515602087015292151593850193909352151560608401526080830191909152151560a082015260c00161026a565b6102e56102e03660046132c6565b6108c8565b6040805196151587526020870195909552938501929092526060840152608083015260a082015260c00161026a565b6103276103223660046132f0565b61095e565b60405161026a9190613346565b610347610342366004613291565b610ad1565b6040516001600160a01b03909116815260200161026a565b7f7c039906f7f8ca11e01b6987a88513563589699678f7d2a6c8447f44d69375f35460ff165b604051901515815260200161026a565b6102606103a3366004613291565b610b24565b6102606103b6366004613291565b610be2565b6102606103c9366004613359565b610c26565b6103856103dc366004613359565b610cfd565b6103f46103ef366004613291565b610d37565b60405161026a929190613385565b6103276104103660046132f0565b610f81565b610385610423366004613359565b6000918252600080516020613c5e833981519152602090815260408084206001600160a01b039390931684526007909201905290205460ff1690565b61047261046d366004613291565b611021565b60405161026a94939291906134c8565b610260610490366004613359565b611419565b61049d61175c565b6040805192835260208301919091520161026a565b6102606104c0366004613291565b61178d565b6104d86104d33660046132c6565b6117f4565b60408051921515835290151560208301520161026a565b610260611843565b610260610505366004613291565b611aad565b610260610518366004613291565b611b31565b61053061052b366004613291565b611b7e565b60405161026a989796959493929190613698565b610557610552366004613798565b611cb9565b604080516001600160a01b039586168152938516602085015291841691830191909152909116606082015260800161026a565b610385610598366004613845565b611dbb565b6105b06105ab3660046132c6565b611dfe565b6040805195151586526020860194909452928401919091526060830152608082015260a00161026a565b6103856105e8366004613359565b611ef5565b6102606105fb366004613291565b611f01565b61061361060e366004613291565b611f23565b60405161026a98979695949392919061387a565b610385610635366004613359565b611ff9565b610347610648366004613291565b61208e565b61066061065b366004613291565b6120d0565b60405161026a9594939291906138db565b61068461067f366004613291565b612186565b60405161026a9190613911565b61026061069f366004613291565b612267565b6103276106b2366004613920565b612392565b6102606106c53660046132f0565b612553565b6103856106d8366004613359565b6126b6565b6102606106eb366004613291565b6126f0565b6107036106fe3660046132c6565b612837565b60405161026a919061395b565b61072361071e3660046132c6565b612bd3565b604080519315158452911515602084015215159082015260600161026a565b6000828152600080516020613c7e83398151915260205260408120600481015483106107a05760405162461bcd60e51b815260206004820152600860248201526754542d47462d303160c01b60448201526064015b60405180910390fd5b60006107bd8260060154670de0b6b3a76400006105fb9190613a85565b905060648483600401546107d19190613a9c565b6107db9083613a85565b6107e6906096613a85565b6107f09190613ac5565b95945050505050565b600080610804611843565b90506000670de0b6b3a764000061081b8584613a85565b6108259190613ac5565b949350505050565b6000806000806000806000610840612c31565b600089815260209190915260408120915061085b8a8a612c55565b6001600160a01b039a909a1660009081526005830160209081526040808320546006860183528184205460078701845282852054600888018552838620546009909801909452919093205460ff9384169e9184169d9284169c509290941699509097509550909350505050565b6000818152600080516020613c5e8339815191526020526040812081908190819081908190816108f8898b612d0b565b6001600160a01b039a909a1660009081526007830160209081526040808320546008860183528184205460098701845282852054600a8801855283862054600b909801909452919093205460ff9093169d909c919b509399509097509550909350505050565b6060600061096b83610f81565b90506000815167ffffffffffffffff811115610989576109896136f5565b6040519080825280602002602001820160405280156109b2578160200160208202803683370190505b508251909150600090815b81811015610a34576109e88582815181106109da576109da613ad9565b602002602001015188611ff9565b15610a2c578481815181106109ff576109ff613ad9565b6020026020010151848481518110610a1957610a19613ad9565b6020026020010181815250508260010192505b6001016109bd565b5060008267ffffffffffffffff811115610a5057610a506136f5565b604051908082528060200260200182016040528015610a79578160200160208202803683370190505b50905060005b83811015610ac657848181518110610a9957610a99613ad9565b6020026020010151828281518110610ab357610ab3613ad9565b6020908102919091010152600101610a7f565b509695505050505050565b600080610adc612c31565b6000848152602091909152604090206004810154600182018054929350918110610b0857610b08613ad9565b6000918252602090912001546001600160a01b03169392505050565b600080610b2f612c31565b600084815260209182526040808220600080516020613c7e8339815191529093529020815491925090600190610100900460ff166004811115610b7457610b746133aa565b14610b83575060009392505050565b60008160070154836002015460018560040154610ba09190613a9c565b8460050154610baf9190613a85565b610bb99190613aef565b610bc39190613aef565b905080421115610bd857506000949350505050565b6107f04282613a9c565b600080610bed612c31565b6000848152602091909152604090206004810154601482015491925090610c15906001613aef565b610c1f9190613a9c565b9392505050565b6000828152600080516020613c5e83398151915260209081526040808320600080516020613c9e833981519152909252822060028201548390610c699042613a9c565b90506000610c778787612d0b565b6001600160a01b0387166000908152600886016020526040902054610c9c9190613aef565b6001600160a01b03871660009081526005850160205260409020549091508290610cce83670de0b6b3a7640000613a85565b610cd89190613ac5565b610ce6906301e13380613a85565b610cf09190613ac5565b9450505050505b92915050565b600080610d08612c31565b6000858152602091825260408082206001600160a01b0387168352601501909252205460ff1691505092915050565b6000818152600080516020613c9e833981519152602052604081208054606092839291610100900460ff166003811115610d7357610d736133aa565b14610d9857505060408051600080825260208201908152818301909252939092509050565b600381015460008167ffffffffffffffff811115610db857610db86136f5565b604051908082528060200260200182016040528015610de1578160200160208202803683370190505b5090506000805b83811015610e585760006001600160a01b0316856003018281548110610e1057610e10613ad9565b6000918252602090912001546001600160a01b031603610e505780838381518110610e3d57610e3d613ad9565b6020026020010181815250508160010191505b600101610de8565b5060008167ffffffffffffffff811115610e7457610e746136f5565b604051908082528060200260200182016040528015610e9d578160200160208202803683370190505b50905060008267ffffffffffffffff811115610ebb57610ebb6136f5565b604051908082528060200260200182016040528015610ee4578160200160208202803683370190505b50905060005b83811015610f7257848181518110610f0457610f04613ad9565b6020026020010151838281518110610f1e57610f1e613ad9565b602002602001018181525050610f4d8a868381518110610f4057610f40613ad9565b6020026020010151610742565b828281518110610f5f57610f5f613ad9565b6020908102919091010152600101610eea565b50909890975095505050505050565b6001600160a01b03811660009081527f87101b21d556417ad2b8e8f2700dbad90721d5d50a1f435f2dee0b9dc981ac8b602090815260408083208054825181850281018501909352808352606094600080516020613cbe83398151915294909392919083018282801561101357602002820191906000526020600020905b815481526020019060010190808311610fff575b509398975050505050505050565b611029613202565b6000806110ea6040518061030001604052806060815260200160608152602001600081526020016000815260200160008152602001600081526020016000815260200160008152602001600015158152602001600081526020016000815260200160001515815260200160008152602001600081526020016000815260200160008152602001600081526020016060815260200160001515815260200160008152602001600081526020016000815260200160008152602001606081525090565b6000858152600080516020613c9e833981519152602052604081209061110e612c31565b600088815260209182526040808220600080516020613c7e83398151915284529181902081516101608101909252805460ff8082161515845293955091939092908401916101009004166003811115611169576111696133aa565b600381111561117a5761117a6133aa565b815281546201000090046001600160a01b039081166020830152600183015460408301526002830154606083015260038301546080830152600483015460a0830152600583015460c0830152600683015460e083015260078301546101008301526008909201549091166101209091015295506000600080516020613c5e8339815191526000898152602091909152604081209150806112198a610d37565b8654865460408051610300810182528581526020810185905260ff6101009485900481169e50939092049092169a5092945090925081016112598c611aad565b81526020016112678c610b24565b81526020016112758c611b31565b81526020016112838c610be2565b81526020016112918c6126f0565b815260200161129e611843565b8152865460ff90811615156020808401919091526001808a01546040808601919091526002808c015460608701528a54909416151560808601529289015460a0850152600389015460c0850152600489015460e0850152601389015461010085015260148901546101208501528801805483518184028101840190945280845261014090940193909183018282801561136057602002820191906000526020600020905b81546001600160a01b03168152600190910190602001808311611342575b505050505081526020018460000160009054906101000a900460ff1615158152602001846002015481526020018460030154815260200184600401548152602001846005015481526020018460060180548060200260200160405190810160405280929190818152602001828054801561140357602002820191906000526020600020905b81546001600160a01b031681526001909101906020018083116113e5575b5050505050815250955050505050509193509193565b6000828152600080516020613c7e833981519152602052604081208161143d612c31565b600086815260209182526040808220600080516020613c9e8339815191528452818320600080516020613c5e83398151915285528284206001600160a01b038a16855260058201865283852054600a8201875284862054601585019097529390942054815492965090949160ff9182169160029161010090041660038111156114c8576114c86133aa565b14806114d15750805b156114e7576114e08284613aef565b975061174f565b60018554610100900460ff166003811115611504576115046133aa565b0361174a576001600160a01b038916600090815260078701602052604081205460ff1615801561154f57506001600160a01b038a16600090815260168801602052604090205460ff16155b1561157757600a61155f8c6126f0565b61156a90600f613a85565b6115749190613ac5565b90505b6001600160a01b038a16600090815260078801602052604090205460ff1680156115bc57506001600160a01b038a16600090815260168801602052604090205460ff16155b8061160757506001600160a01b038a16600090815260168801602052604090205460ff16801561160757506001600160a01b038a16600090815260078801602052604090205460ff16155b15611669576000876004015488601401546116229190613a9c565b905060006116418a60060154670de0b6b3a76400006105fb9190613a85565b9050600a61164f8284613a85565b61165a90600f613a85565b6116649190613ac5565b925050505b6001600160a01b038a16600090815260078801602052604090205460ff1680156116ad57506001600160a01b038a16600090815260168801602052604090205460ff165b1561171b5760006001886004015489601401546116ca9190613a9c565b6116d49190613a9c565b905060006116f38a60060154670de0b6b3a76400006105fb9190613a85565b9050600a6117018284613a85565b61170c90600f613a85565b6117169190613ac5565b925050505b8084111561173f578261172e8286613a9c565b6117389190613aef565b9850611744565b600098505b5061174f565b600097505b5050505050505092915050565b600080516020613cbe83398151915280546000918291829061178090600190613a9c565b9154919491935090915050565b6000818152600080516020613c5e83398151915260205260408120600281015482906117b99042613a9c565b90508082600401546117ca86612267565b6117dc90670de0b6b3a7640000613a85565b6117e69190613ac5565b61081b906301e13380613a85565b6000806000611801612c31565b6000858152602091825260408082206001600160a01b038916835260078101845281832054601690910190935290205460ff9182169450169150509250929050565b6000807f138fa7b895cc6132bd44317f3510a9c38821e93ca223f9fdc532527c01963ec490506000806000808460000160405161188d90661155120bd554d160ca1b815260070190565b9081526040805191829003602001822054633fabe5a360e21b835290516001600160a01b039091169163feaf968c9160048083019260a09291908290030181865afa1580156118e0573d6000803e3d6000fd5b505050506040513d601f19601f820116820180604052508101906119049190613b19565b945094505093509350816000141580156119305750836001600160501b0316816001600160501b031610155b801561193c5750600083135b6119735760405162461bcd60e51b81526020600482015260086024820152672a2a16a3a316981960c11b6044820152606401610797565b6000806000808860000160405161199890671554d110cbd554d160c21b815260080190565b9081526040805191829003602001822054633fabe5a360e21b835290516001600160a01b039091169163feaf968c9160048083019260a09291908290030181865afa1580156119eb573d6000803e3d6000fd5b505050506040513d601f19601f82011682018060405250810190611a0f9190613b19565b94509450509350935081600014158015611a3b5750836001600160501b0316816001600160501b031610155b8015611a475750600083135b611a7e5760405162461bcd60e51b81526020600482015260086024820152672a2a16a3a316981960c11b6044820152606401610797565b6000611a8a8489613b69565b9050611a9e81670de0b6b3a7640000613b97565b9a505050505050505050505090565b6000818152600080516020613c7e83398151915260209081526040808320600080516020613c9e833981519152909252822060018101541580611b03575081600301548160010154611aff9190613aef565b4210155b15611b12575060009392505050565b4282600301548260010154611b279190613aef565b6108259190613a9c565b600080611b3c612c31565b600084815260209182526040808220600080516020613c7e833981519152909352812060028301546004840154600583015494955091939091610bb991613a85565b6000808080806060818080600080516020613c5e83398151915260000160008b815260200190815260200160002090508060000160009054906101000a900460ff1681600201548260030154836004015484600501548560060186600101604051611bf8906816985e5b95985d5b1d60ba1b815260090190565b908152604051908190036020018120546001600160a01b0316906001890190611c2e906605a61796e5a61760cc1b815260070190565b908152604080519182900360209081018320548554808302850183019093528284526001600160a01b031692918591830182828015611c9657602002820191906000526020600020905b81546001600160a01b03168152600190910190602001808311611c78575b505050505092509850985098509850985098509850985050919395975091939597565b6040516000908190819081907f138fa7b895cc6132bd44317f3510a9c38821e93ca223f9fdc532527c01963ec4907ff27a5986330dc78d016d8604ee1a040d5a789fbaa2d0c27f5dfded4b616b8977908290611d16908c90613bc7565b908152604051908190036020018120546001600160a01b0316908390611d3d908c90613bc7565b908152604051908190036020018120546001600160a01b0316908390611d64908c90613bc7565b908152604051908190036020018120546001600160a01b0316908490611d8b908c90613bc7565b9081526040519081900360200190205492985090965094506001600160a01b031692505050945094509450949050565b600080611dc6612c31565b600086815260209182526040808220878352600c0183528082206001600160a01b0387168352909252205460ff169150509392505050565b6000818152600080516020613c9e83398151915260205260408120819081908190819081611e2a612c31565b600089815260209182526040808220600080516020613c7e83398151915284528183206001600160a01b038e168452600682019094529082205490935060ff16611e9057611e898260060154670de0b6b3a76400006105fb9190613a85565b9050611e9c565b611e998a6126f0565b90505b6001600160a01b039a909a1660009081526004840160209081526040808320546005870183528184205460068801845282852054600790980190935292205460ff9092169c909b949a5090985092965091945050505050565b6000610c1f8383612d34565b600080611f0c611843565b905060008161081b85670de0b6b3a7640000613a85565b600080600060606000806000806000611f3a612c31565b60008b81526020918252604090819020805460028201546003830154600484015460148501546001860180548851818b0281018b0190995280895296995060ff80871699610100880490911698620100009097046001600160a01b0316979196918791830182828015611fd657602002820191906000526020600020905b81546001600160a01b03168152600190910190602001808311611fb8575b505050505094509850985098509850985098509850985050919395975091939597565b600080612004612c31565b600085815260209182526040808220600080516020613c9e83398151915284528183206001600160a01b03881684526005820190945291205490925060ff1615801561206b57506001600160a01b038416600090815260048201602052604090205460ff16155b1561207b57600192505050610cf7565b600092505050610cf7565b505092915050565b600080612099612c31565b60008481526020919091526040902060048101549091506001808301916120c09190613a9c565b81548110610b0857610b08613ad9565b6000808080606081600080516020613c9e8339815191526000888152602091825260409081902080546001820154600283015460038401805486518189028101890190975280875294975060ff80851697610100909504169592949193909291839183018282801561216b57602002820191906000526020600020905b81546001600160a01b0316815260019091019060200180831161214d575b50505050509050955095509550955095505091939590929450565b61218e613202565b6000828152600080516020613c7e833981519152602090815260409182902082516101608101909352805460ff8082161515855291928401916101009091041660038111156121df576121df6133aa565b60038111156121f0576121f06133aa565b815281546001600160a01b036201000090910481166020830152600183015460408301526002830154606083015260038301546080830152600483015460a0830152600583015460c0830152600683015460e083015260078301546101008301526008909201549091166101209091015292915050565b6000818152600080516020613c5e833981519152602090815260408083206006810180548351818602810186019094528084529193859384939092918301828280156122dc57602002820191906000526020600020905b81546001600160a01b031681526001909101906020018083116122be575b505083519394506000925050505b818110156123485784600801600084838151811061230a5761230a613ad9565b60200260200101516001600160a01b03166001600160a01b03168152602001908152602001600020548461233e9190613aef565b93506001016122ea565b5060006123558786612e5e565b905084600401548111156123875760048501546123728286613aef565b61237c9190613a9c565b979650505050505050565b509195945050505050565b6060600061239f84610f81565b90506000815167ffffffffffffffff8111156123bd576123bd6136f5565b6040519080825280602002602001820160405280156123e6578160200160208202803683370190505b508251909150600090815b818110156124b55786600381111561240b5761240b6133aa565b600080516020613cbe833981519152600101600087848151811061243157612431613ad9565b6020026020010151815260200190815260200160002060000160019054906101000a900460ff166003811115612469576124696133aa565b036124ad5784818151811061248057612480613ad9565b602002602001015184848151811061249a5761249a613ad9565b6020026020010181815250508260010192505b6001016123f1565b5060008267ffffffffffffffff8111156124d1576124d16136f5565b6040519080825280602002602001820160405280156124fa578160200160208202803683370190505b50905060005b838110156125475784818151811061251a5761251a613ad9565b602002602001015182828151811061253457612534613ad9565b6020908102919091010152600101612500565b50979650505050505050565b6000806000612563846001612392565b90506000612572856000612392565b825181519192509060005b82811015612620576000600080516020613cbe83398151915260010160008784815181106125ad576125ad613ad9565b60200260200101518152602001908152602001600020905060006125e98784815181106125dc576125dc613ad9565b6020026020010151610be2565b82600601546125f89190613a85565b61260590620f4240613a85565b90506126118189613aef565b9750826001019250505061257d565b5060005b818110156126aa576000600080516020613cbe833981519152600101600086848151811061265457612654613ad9565b6020026020010151815260200190815260200160002090506000816004015482600601546126829190613a85565b61268f90620f4240613a85565b905061269b8189613aef565b97508260010192505050612624565b50939695505050505050565b6000806126c1612c31565b6000858152602091825260408082206001600160a01b0387168352600601909252205460ff1691505092915050565b6000806126fb612c31565b600084815260209182526040808220600080516020613c7e83398151915290935281208254929350918190610100900460ff16600481111561273f5761273f6133aa565b0361274f57506004810154612804565b60018354610100900460ff16600481111561276c5761276c6133aa565b1480612792575060028354610100900460ff166004811115612790576127906133aa565b145b156127a7576127a085610be2565b9050612804565b60038354610100900460ff1660048111156127c4576127c46133aa565b036127de5760016127d486610be2565b6127a09190613a9c565b60048354610100900460ff1660048111156127fb576127fb6133aa565b03612804575060005b60006128218360060154670de0b6b3a76400006105fb9190613a85565b905061282d8183613a85565b9695505050505050565b6128f5604051806102c001604052806000151581526020016000151581526020016000815260200160008152602001600081526020016000815260200160008152602001600015158152602001600015158152602001600015158152602001600015158152602001600015158152602001600015158152602001600015158152602001600081526020016000815260200160001515815260200160008152602001600081526020016000815260200160008152602001600081525090565b6000828152600080516020613c9e8339815191526020526040812090612919612c31565b600085815260209182526040808220600080516020613c7e8339815191528452818320600080516020613c5e83398151915285528284206001600160a01b038b1685526006830186528385205460048901909652929093205460ff90811615158852909450919290911661298d8789612d34565b15156020808801919091526001600160a01b038916600081815260058089018452604080832054818c015283835260068a0185528083205460608c01528383526007808b0186528184205460808d015284845291890185528083205460ff908116151560e08d01528615156101008d0152848452918901855280832054821615156101208c015283835260168901855280832054821615156101408c0152928252600888019093522054161515610160870152612a4a8888612c55565b151561018087015260048401546000908152600c8501602090815260408083206001600160a01b038c168085529083528184205460ff90811615156101a08c01529084526007860190925290912054161515610200870152612aac8789611419565b60c087015260008554610100900460ff166003811115612ace57612ace6133aa565b14612bc85760008115612aeb57612ae4886126f0565b9050612b09565b612b068460060154670de0b6b3a76400006105fb9190613a85565b90505b60a087018190526001600160a01b03891660008181526009870160209081526040808320546101c08c0152838352600b89018252808320546101e08c0152928252600786019052205460ff1615612bc6576001600160a01b0389166000818152600b850160209081526040808320546102208c0152838352600987018252808320546102408c0152838352600a87018252808320546102608c01529282526008860190522054610280880152612bbf888a612d0b565b6102a08801525b505b505050505092915050565b600080600080612be1612c31565b6000868152602091909152604081209150612bff600d830188612faa565b90506000612c1083600f0189612faa565b90506000612c21846011018a612faa565b9299919850919650945050505050565b7f6751f7e27cecf86d7136f5749c224248cae80a39fafb59f8f6bf12c52816307c90565b600080612c60612c31565b600084815260209182526040808220600080516020613c9e83398151915284528183206001600160a01b03891684526015820190945291205490925060ff1615612cad5760009250612086565b60006064612cba866126f0565b612cc590606e613a85565b612ccf9190613ac5565b6001600160a01b0387166000908152600584016020526040902054909150811115612cfd5760019350612d02565b600093505b50505092915050565b600080670de0b6b3a7640000612d218585612fcc565b612d2a86613058565b61081b9190613a85565b6000828152600080516020613c9e833981519152602090815260408083206001600160a01b0385168452600581019092528220548290612d73866131e4565b612df25760405163bb91b76d60e01b81526001600160a01b038616600482015260248101879052309063bb91b76d9060440160a060405180830381865afa158015612dc2573d6000803e3d6000fd5b505050506040513d601f19601f82011682018060405250810190612de69190613bf6565b9550612e559350505050565b60405163f0d826e760e01b815260048101879052309063f0d826e790602401602060405180830381865afa158015612e2e573d6000803e3d6000fd5b505050506040513d601f19601f82011682018060405250810190612e529190613c44565b91505b10949350505050565b60008082600101604051612e81906816985e5b95985d5b1d60ba1b815260090190565b90815260405190819003602001812054631398fee160e31b82526001600160a01b031690639cc7f70890612ebd90879060040190815260200190565b602060405180830381865afa158015612eda573d6000803e3d6000fd5b505050506040513d601f19601f82011682018060405250810190612efe9190613c44565b9050600083600101604051612f22906816985e5b95985d5b1d60ba1b815260090190565b908152604080516020928190038301812054631df1ee3f60e21b825291516001600160a01b03909216926377c7b8fc926004808401938290030181865afa158015612f71573d6000803e3d6000fd5b505050506040513d601f19601f82011682018060405250810190612f959190613c44565b9050670de0b6b3a76400006107e68284613a85565b6001600160a01b03811660009081526001830160205260408120541515610c1f565b6000828152600080516020613c5e8339815191526020526040812060048101548203612ffc576000915050610cf7565b60048101546001600160a01b0384166000908152600983016020908152604080832054600b8601909252909120546130349190613a9c565b61304690670de0b6b3a7640000613a85565b6130509190613ac5565b915050610cf7565b6000818152600080516020613c5e833981519152602052604080822081516816985e5b95985d5b1d60ba1b8152600182016009820152915191829003602901822054631398fee160e31b835260048301859052909183916001600160a01b031690639cc7f70890602401602060405180830381865afa1580156130df573d6000803e3d6000fd5b505050506040513d601f19601f820116820180604052508101906131039190613c44565b9050600082600101604051613127906816985e5b95985d5b1d60ba1b815260090190565b908152604080516020928190038301812054631df1ee3f60e21b825291516001600160a01b03909216926377c7b8fc926004808401938290030181865afa158015613176573d6000803e3d6000fd5b505050506040513d601f19601f8201168201806040525081019061319a9190613c44565b90506000670de0b6b3a76400006131b18385613a85565b6131bb9190613ac5565b905083600401548111156131d857600484015461282d9082613a9c565b50600095945050505050565b60006131ee612c31565b600092835260205250604090205460ff1690565b60408051610160810190915260008082526020820190815260200160006001600160a01b031681526020016000815260200160008152602001600081526020016000815260200160008152602001600081526020016000815260200160006001600160a01b031681525090565b6000806040838503121561328257600080fd5b50508035926020909101359150565b6000602082840312156132a357600080fd5b5035919050565b80356001600160a01b03811681146132c157600080fd5b919050565b600080604083850312156132d957600080fd5b6132e2836132aa565b946020939093013593505050565b60006020828403121561330257600080fd5b610c1f826132aa565b600081518084526020808501945080840160005b8381101561333b5781518752958201959082019060010161331f565b509495945050505050565b602081526000610c1f602083018461330b565b6000806040838503121561336c57600080fd5b8235915061337c602084016132aa565b90509250929050565b604081526000613398604083018561330b565b82810360208401526107f0818561330b565b634e487b7160e01b600052602160045260246000fd5b600481106133d0576133d06133aa565b50565b6133dc816133c0565b9052565b80511515825260208101516133f860208401826133d3565b50604081015161341360408401826001600160a01b03169052565b50606081015160608301526080810151608083015260a081015160a083015260c081015160c083015260e081015160e083015261010080820151818401525061012080820151818401525061014080820151613479828501826001600160a01b03169052565b50505050565b600581106133dc576133dc6133aa565b600081518084526020808501945080840160005b8381101561333b5781516001600160a01b0316875295820195908201906001016134a3565b60006101c06134d783886133e0565b6134e0866133c0565b856101608401526134f561018084018661347f565b806101a08401528351610300828501526135136104c085018261330b565b905060208501516101bf1980868403016101e0870152613533838361330b565b92506040870151915061020082818801526060880151925061022083818901526080890151935061024084818a015260a08a0151945061026085818b015260c08b0151955061028086818c015260e08c015196506102a087818d01526101008d015197506102c06135a7818e018a15159052565b6101208e015198506102e089818f01526101408f01516103008f01526101608f015199506135da6103208f018b15159052565b6101808f01516103408f01526101a08f01516103608f01529a8e01516103808e01526101e08e01516103a08e0152868e01516103c08e0152858e01518d8b0389016103e08f01529a61362c8b8d61348f565b9b50858f01519a506136436104008f018c15159052565b938e01516104208e0152918d01516104408d01528c01516104608c01528b01516104808b01528a01518988039094016104a08a01525091935061368c925084915083905061348f565b98975050505050505050565b60006101008a151583528960208401528860408401528760608401528660808401528060a08401526136cc8184018761348f565b6001600160a01b0395861660c08501529390941660e09092019190915250979650505050505050565b634e487b7160e01b600052604160045260246000fd5b600082601f83011261371c57600080fd5b813567ffffffffffffffff80821115613737576137376136f5565b604051601f8301601f19908116603f0116810190828211818310171561375f5761375f6136f5565b8160405283815286602085880101111561377857600080fd5b836020870160208301376000602085830101528094505050505092915050565b600080600080608085870312156137ae57600080fd5b843567ffffffffffffffff808211156137c657600080fd5b6137d28883890161370b565b955060208701359150808211156137e857600080fd5b6137f48883890161370b565b9450604087013591508082111561380a57600080fd5b6138168883890161370b565b9350606087013591508082111561382c57600080fd5b506138398782880161370b565b91505092959194509250565b60008060006060848603121561385a57600080fd5b8335925060208401359150613871604085016132aa565b90509250925092565b60006101008a15158352613891602084018b61347f565b6001600160a01b0389166040840152606083018190526138b38184018961348f565b9150508560808301528460a08301528360c08301528260e08301529998505050505050505050565b85151581526138e9856133c0565b84602082015283604082015282606082015260a06080820152600061237c60a083018461348f565b6101608101610cf782846133e0565b6000806040838503121561393357600080fd5b61393c836132aa565b915060208301356004811061395057600080fd5b809150509250929050565b8151151581526102c081016020830151613979602084018215159052565b5060408301516040830152606083015160608301526080830151608083015260a083015160a083015260c083015160c083015260e08301516139bf60e084018215159052565b5061010083810151151590830152610120808401511515908301526101408084015115159083015261016080840151151590830152610180808401511515908301526101a0808401511515908301526101c080840151908301526101e080840151908301526102008084015115159083015261022080840151908301526102408084015190830152610260808401519083015261028080840151908301526102a092830151929091019190915290565b634e487b7160e01b600052601160045260246000fd5b8082028115828204841417610cf757610cf7613a6f565b81810381811115610cf757610cf7613a6f565b634e487b7160e01b600052601260045260246000fd5b600082613ad457613ad4613aaf565b500490565b634e487b7160e01b600052603260045260246000fd5b80820180821115610cf757610cf7613a6f565b80516001600160501b03811681146132c157600080fd5b600080600080600060a08688031215613b3157600080fd5b613b3a86613b02565b9450602086015193506040860151925060608601519150613b5d60808701613b02565b90509295509295909350565b600082613b7857613b78613aaf565b600160ff1b821460001984141615613b9257613b92613a6f565b500590565b80820260008212600160ff1b84141615613bb357613bb3613a6f565b8181058314821517610cf757610cf7613a6f565b6000825160005b81811015613be85760208186018101518583015201613bce565b506000920191825250919050565b600080600080600060a08688031215613c0e57600080fd5b85518015158114613c1e57600080fd5b602087015160408801516060890151608090990151929a91995097965090945092505050565b600060208284031215613c5657600080fd5b505191905056fe29d9cba46c358ba7c1b8945751229339792c7c62e3197c240fa98916e75ffbf987101b21d556417ad2b8e8f2700dbad90721d5d50a1f435f2dee0b9dc981ac8a35fa70a6f9ae8a4d427ebe0c1be62ffd2870fecc1df41c6fda0bf5803e56288887101b21d556417ad2b8e8f2700dbad90721d5d50a1f435f2dee0b9dc981ac89a2646970667358221220447f250adadadde1e6211bcecd518cef6d6daebc90baafd4168618b0e9c30fd064736f6c63430008120033",
  "devdoc": {
    "author": "Maikel Ordaz",
    "details": "v3.0 (Diamond)",
    "kind": "dev",
    "methods": {
      "currentOrNextCyclePaid(address,uint256)": {
        "params": {
          "participant": "the user to get the info from",
          "termId": "the fund id"
        },
        "returns": {
          "_0": "paidThisCycle, true if has paid the current cycle",
          "_1": "paidNextCycle, true if has paid the next cycle"
        }
      },
      "expelledBeforeBeneficiary(uint256,address)": {
        "params": {
          "termId": "the id of the term",
          "user": "the address of the participant to check"
        },
        "returns": {
          "_0": "true if the participant is expelled before being a beneficiary"
        }
      },
      "getAllJoinedTerms(address)": {
        "params": {
          "participant": "the participant address"
        },
        "returns": {
          "_0": "an array with the term ids the participant is part of"
        }
      },
      "getAvailablePositionsAndSecurityAmount(uint256)": {
        "details": "Available positions starts at 0",
        "params": {
          "termId": "the term id"
        },
        "returns": {
          "_0": "availablePositions an array with the available positions",
          "_1": "securityAmount an array with the security amount for each available position"
        }
      },
      "getCollateralSummary(uint256)": {
        "params": {
          "termId": "the collateral id"
        },
        "returns": {
          "_0": "if collateral initialized",
          "_1": "current collateral state",
          "_2": "time of first deposit",
          "_3": "current members count",
          "_4": "list of depositors"
        }
      },
      "getConstants(string,string,string,string)": {
        "params": {
          "firstAggregator": "The name of the first aggregator. Example: \"ETH/USD\"",
          "secondAggregator": "The name of the second aggregator. Example: \"USDC/USD\"",
          "vaultAddress": "The name of the vault address. Example: \"ZaynVault\"",
          "zapAddress": "The name of the zap address. Example: \"ZaynZap\""
        },
        "returns": {
          "_0": "The addresses of the oracles and yield providers"
        }
      },
      "getCurrentBeneficiary(uint256)": {
        "params": {
          "termId": "the fund id"
        },
        "returns": {
          "_0": "the current beneficiary"
        }
      },
      "getDepositorCollateralSummary(address,uint256)": {
        "params": {
          "depositor": "the depositor address",
          "termId": "the collateral id"
        },
        "returns": {
          "_0": "if the user is a true member of the term",
          "_1": "current users locked collateral balance in wei",
          "_2": "current users unlocked collateral balance in wei",
          "_3": "initial users deposit in wei",
          "_4": "expulsion limit"
        }
      },
      "getExpelledTerms(address)": {
        "params": {
          "participant": "the participant address"
        },
        "returns": {
          "_0": "an array the term ids on which the participant was expelled"
        }
      },
      "getFundSummary(uint256)": {
        "params": {
          "termId": "the fund id"
        },
        "returns": {
          "_0": "if fund initialized",
          "_1": "current fund state",
          "_2": "stable token address used",
          "_3": "list of beneficiaries order",
          "_4": "when the fund starts in seconds",
          "_5": "when the fund ended, 0 if not ended",
          "_6": "current cycle number",
          "_7": "total amount of cycles"
        }
      },
      "getJoinedTermsByState(address,uint8)": {
        "params": {
          "participant": "the participant address",
          "state": "the term state"
        },
        "returns": {
          "_0": "an array with the term ids the participant is part of, giving the state of the term"
        }
      },
      "getLatestPrice()": {
        "details": "Revert if there is problem with chainlink data",
        "returns": {
          "_0": "uint latest price in Wei Note: 18 decimals"
        }
      },
      "getNeededAllowance(address)": {
        "params": {
          "user": "the user address"
        },
        "returns": {
          "_0": "the needed allowance"
        }
      },
      "getNextBeneficiary(uint256)": {
        "params": {
          "termId": "the fund id"
        },
        "returns": {
          "_0": "the next beneficiary"
        }
      },
      "getParticipantFundSummary(address,uint256)": {
        "params": {
          "participant": "the user to get the info from",
          "termId": "the fund id"
        },
        "returns": {
          "_0": "isParticipant, true if is participant",
          "_1": "isBeneficiary, true if has been beneficiary",
          "_2": "paidThisCycle, true if has paid the current cycle",
          "_3": "autoPayEnabled, true if auto pay is enabled",
          "_4": "beneficiariesPool, the beneficiary pool, 6 decimals",
          "_5": "beneficiariesFrozenPool, true if the beneficiary pool is frozen"
        }
      },
      "getRemainingContributionTime(uint256)": {
        "params": {
          "termId": "the fund id"
        },
        "returns": {
          "_0": "the time left to contribute"
        }
      },
      "getRemainingCycleTime(uint256)": {
        "params": {
          "termId": "the term id"
        },
        "returns": {
          "_0": "remaining time in the current cycle"
        }
      },
      "getRemainingCycles(uint256)": {
        "params": {
          "termId": "the term id"
        },
        "returns": {
          "_0": "remaining cycles"
        }
      },
      "getRemainingCyclesContributionWei(uint256)": {
        "params": {
          "termId": "the term id"
        },
        "returns": {
          "_0": "remaining cycles contribution in wei"
        }
      },
      "getRemainingRegistrationTime(uint256)": {
        "details": "Revert if nobody has deposited",
        "params": {
          "termId": "the term id"
        },
        "returns": {
          "_0": "remaining contribution period"
        }
      },
      "getTermRelatedSummary(uint256)": {
        "params": {
          "termId": "The term id for which the summary is being requested"
        },
        "returns": {
          "collateralState": "The current state of the collateral",
          "fundState": "The current state of the fund",
          "nonUserRelated": "A helper struct with the following values:                        available positions, security deposits corresponding to each position,                        remaining registration time, remaining contribution time,                        remaining cycle time, remaining cycles, remaining cycles                        contribution in wei, latest price from Chainlink, collateral                        first deposit time in seconds, collateral counter members,                        fund start time in seconds, fund end time in seconds, current                        cycle, expelled participants, total amount of cycles, yield                        start time in seconds, total deposit in wei, current total                        deposit in wei, total shares, users opted in for yield",
          "term": "The term object"
        }
      },
      "getTermSummary(uint256)": {
        "params": {
          "termId": "the term id"
        },
        "returns": {
          "_0": "the term object"
        }
      },
      "getTermsId()": {
        "returns": {
          "_0": "the current term id",
          "_1": "the next term id"
        }
      },
      "getToCollateralConversionRate(uint256)": {
        "params": {
          "USDAmount": "The amount in USD with 18 decimals"
        },
        "returns": {
          "_0": "uint converted amount in wei"
        }
      },
      "getToStableConversionRate(uint256)": {
        "params": {
          "ethAmount": "The amount in ETH"
        },
        "returns": {
          "_0": "uint converted amount in USD correct to 18 decimals"
        }
      },
      "getUserRelatedSummary(address,uint256)": {
        "params": {
          "termId": "the collateral id",
          "user": "the depositor address"
        },
        "returns": {
          "userRelated": "an object that contains the following values:                     user is collateral member, user is undercollaterized,                     current collateral balance, received collateral from defaults,                     initial deposited collateral, collateral expulsion limit,                     currently withdrawable balance, is fund member, is or was beneficiary,                     user paid current cycle, user paid next cycle in advance,                     user enabled autopay, user's money pot is frozen, user is exempted this                     cycle, the money pot pool the user can withdraw, the cycle the user got                     expelled (if applicable), is yield member, amount of collateral deposited                     in yield pool, amount of collateral withdrawn from yield pool, available                     yield to withdraw, amount of yield withdrawn, yield to be distributed"
        }
      },
      "getUserSet(address,uint256)": {
        "params": {
          "participant": "the user to get the info from",
          "termId": "the fund id"
        },
        "returns": {
          "_0": "on participant set",
          "_1": "on beneficiary set",
          "_2": "on defaulter set"
        }
      },
      "getUserYieldSummary(address,uint256)": {
        "params": {
          "termId": "the collateral id",
          "user": "the depositor address"
        },
        "returns": {
          "_0": "if the user opted in for yield",
          "_1": "amount withdrawn from yield",
          "_2": "amount withdrawn from collateral",
          "_3": "amount available in yield",
          "_4": "amount deposited by user in yield",
          "_5": "amount of yield distributed"
        }
      },
      "getWithdrawableUserBalance(uint256,address)": {
        "params": {
          "termId": "term id",
          "user": "depositor address"
        },
        "returns": {
          "allowedWithdrawal": "amount the amount of collateral the depositor can withdraw"
        }
      },
      "getYieldLockState()": {
        "returns": {
          "_0": "The current state of the yield lock"
        }
      },
      "getYieldSummary(uint256)": {
        "params": {
          "termId": "the collateral id"
        },
        "returns": {
          "_0": "if the yield is initialized",
          "_1": "start time stamp for yield deposit",
          "_2": "total deposit",
          "_3": "current amount in yield",
          "_4": "amount of total shares",
          "_5": "list of yield users",
          "_6": "address of vault",
          "_7": "address of zap"
        }
      },
      "isBeneficiary(uint256,address)": {
        "params": {
          "beneficiary": "the address of the participant to check",
          "termId": "the id of the term"
        },
        "returns": {
          "_0": "true if the participant is a beneficiary"
        }
      },
      "isExempted(uint256,uint256,address)": {
        "params": {
          "cycle": "the cycle to check",
          "termId": "the fund id",
          "user": "the user to check"
        },
        "returns": {
          "_0": "true if the user is exempted"
        }
      },
      "isUnderCollaterized(uint256,address)": {
        "details": "This will revert if called during ReleasingCollateral or after",
        "params": {
          "member": "The user to check for",
          "termId": "The term id"
        },
        "returns": {
          "_0": "Bool check if member is below 1.0x of collateralDeposit"
        }
      },
      "minCollateralToDeposit(uint256,uint256)": {
        "details": "The minimum collateral amount is calculated based on the index on the depositors arrayThe return value should be the minimum msg.value when calling joinTermC = 1.5 Cp (Tp - I) where C = minimum collateral amount, Cp = contribution amount,      Tp = total participants, I = depositor index (starts at 0). 1.5",
        "params": {
          "depositorIndex": "the index the depositor wants to join",
          "termId": "term id"
        },
        "returns": {
          "amount": "the minimum collateral amount to deposit in wei"
        }
      },
      "termAPY(uint256)": {
        "params": {
          "termId": "The term id for which the APY is being calculated"
        },
        "returns": {
          "_0": "The APY for the term"
        }
      },
      "totalYieldGenerated(uint256)": {
        "params": {
          "termId": "The term id for which the yield is being calculated"
        },
        "returns": {
          "_0": "The total yield generated for the term"
        }
      },
      "userAPY(uint256,address)": {
        "params": {
          "termId": "The term id for which the APY is being calculated",
          "user": "The user for which the APY is being calculated"
        },
        "returns": {
          "_0": "The APY for the user"
        }
      },
      "userHasoptedInYG(uint256,address)": {
        "params": {
          "termId": "The term id for which the check is being made",
          "user": "The user for which the check is being made"
        },
        "returns": {
          "_0": "True if the user has opted in"
        }
      },
      "wasExpelled(uint256,address)": {
        "params": {
          "termId": "the fund id",
          "user": "the user to check"
        },
        "returns": {
          "_0": "true if the user was expelled before"
        }
      }
    },
    "title": "Takaturn Getters Facet",
    "version": 1
  },
  "userdoc": {
    "kind": "user",
    "methods": {
      "currentOrNextCyclePaid(address,uint256)": {
        "notice": "function to get fund information of a specific participant"
      },
      "expelledBeforeBeneficiary(uint256,address)": {
        "notice": "checks if a participant have been expelled before being a beneficiary"
      },
      "getAllJoinedTerms(address)": {
        "notice": "Get all the terms a participant is part of"
      },
      "getAvailablePositionsAndSecurityAmount(uint256)": {
        "notice": "Gets the remaining positions in a term and the corresponding security amount"
      },
      "getCollateralSummary(uint256)": {
        "notice": "function to get the collateral object"
      },
      "getConstants(string,string,string,string)": {
        "notice": "This function return the current constant values for oracles and yield providers"
      },
      "getCurrentBeneficiary(uint256)": {
        "notice": "function to get the beneficiary from the current cycle"
      },
      "getDepositorCollateralSummary(address,uint256)": {
        "notice": "function to get the depositor collateral summary"
      },
      "getExpelledTerms(address)": {
        "notice": "Get all the terms a participant was expelled from"
      },
      "getFundSummary(uint256)": {
        "notice": "function to get the cycle information in one go"
      },
      "getJoinedTermsByState(address,uint8)": {
        "notice": "Get all the terms a participant is part of by a given state"
      },
      "getLatestPrice()": {
        "notice": "Gets latest ETH / USD price"
      },
      "getNeededAllowance(address)": {
        "notice": "a function to get the needed allowance for every active term the user is part of"
      },
      "getNextBeneficiary(uint256)": {
        "notice": "function to get the beneficiary from the next cycle"
      },
      "getParticipantFundSummary(address,uint256)": {
        "notice": "function to get fund information of a specific participant"
      },
      "getRemainingContributionTime(uint256)": {
        "notice": "returns the time left to contribute for this cycle"
      },
      "getRemainingCycleTime(uint256)": {
        "notice": "Get the term's remaining time in the current cycle"
      },
      "getRemainingCycles(uint256)": {
        "notice": "Get the term's remaining cycles"
      },
      "getRemainingCyclesContributionWei(uint256)": {
        "notice": "Get the term's remaining contribution amount converted from USDC to wei"
      },
      "getRemainingRegistrationTime(uint256)": {
        "notice": "Gets the remaining registration period for a term"
      },
      "getTermRelatedSummary(uint256)": {
        "notice": "This function is used as a helper for front-end implementation"
      },
      "getTermSummary(uint256)": {
        "notice": "Gets the term object"
      },
      "getToCollateralConversionRate(uint256)": {
        "notice": "Gets the conversion rate of an amount in USD to ETH"
      },
      "getToStableConversionRate(uint256)": {
        "notice": "Gets the conversion rate of an amount in ETH to USD"
      },
      "getUserRelatedSummary(address,uint256)": {
        "notice": "This function is used as a helper for front-end implementation"
      },
      "getUserSet(address,uint256)": {
        "notice": "function to get cycle information of a specific participant"
      },
      "getUserYieldSummary(address,uint256)": {
        "notice": "Gets the user yield summary"
      },
      "getWithdrawableUserBalance(uint256,address)": {
        "notice": "Called to check how much collateral a user can withdraw"
      },
      "getYieldLockState()": {
        "notice": "This function is used to get the current state of the yield lock"
      },
      "getYieldSummary(uint256)": {
        "notice": "Gets the yield object"
      },
      "isBeneficiary(uint256,address)": {
        "notice": "checks if a participant have been a beneficiary"
      },
      "isExempted(uint256,uint256,address)": {
        "notice": "function to see if a user is exempted from paying a cycle"
      },
      "isUnderCollaterized(uint256,address)": {
        "notice": "Checks if a user has a collateral below 1.0x of total contribution amount"
      },
      "minCollateralToDeposit(uint256,uint256)": {
        "notice": "Called to check the minimum collateral amount to deposit in wei"
      },
      "termAPY(uint256)": {
        "notice": "This function is used to get a term APY"
      },
      "totalYieldGenerated(uint256)": {
        "notice": "This function is used to get the total yield generated for a term"
      },
      "userAPY(uint256,address)": {
        "notice": "This function is used to get a user APY"
      },
      "userHasoptedInYG(uint256,address)": {
        "notice": "This function is used to check if a user has opted in for yield generation"
      },
      "wasExpelled(uint256,address)": {
        "notice": "function to know if a user was expelled before"
      }
    },
    "notice": "Getters for Takaturn protocol",
    "version": 1
  },
  "storageLayout": {
    "storage": [],
    "types": null
  }
}