{
  "address": "0x32808a517CFd74bF6ab7B8A28e2967bF23F32FbA",
  "abi": [
    {
      "anonymous": false,
      "inputs": [
        {
          "indexed": true,
          "internalType": "uint256",
          "name": "termId",
          "type": "uint256"
        },
        {
          "indexed": true,
          "internalType": "address",
          "name": "user",
          "type": "address"
        },
        {
          "indexed": true,
          "internalType": "bool",
          "name": "optedIn",
          "type": "bool"
        }
      ],
      "name": "OnYGOptInToggled",
      "type": "event"
    },
    {
      "anonymous": false,
      "inputs": [
        {
          "indexed": true,
          "internalType": "uint256",
          "name": "termId",
          "type": "uint256"
        },
        {
          "indexed": true,
          "internalType": "address",
          "name": "user",
          "type": "address"
        },
        {
          "indexed": true,
          "internalType": "uint256",
          "name": "amount",
          "type": "uint256"
        }
      ],
      "name": "OnYieldClaimed",
      "type": "event"
    },
    {
      "inputs": [
        {
          "internalType": "uint256",
          "name": "termId",
          "type": "uint256"
        }
      ],
      "name": "claimAvailableYield",
      "outputs": [],
      "stateMutability": "nonpayable",
      "type": "function"
    },
    {
      "inputs": [
        {
          "internalType": "uint256",
          "name": "termId",
          "type": "uint256"
        },
        {
          "internalType": "address",
          "name": "user",
          "type": "address"
        }
      ],
      "name": "claimAvailableYield",
      "outputs": [],
      "stateMutability": "nonpayable",
      "type": "function"
    },
    {
      "inputs": [
        {
          "internalType": "uint256",
          "name": "termId",
          "type": "uint256"
        }
      ],
      "name": "toggleOptInYG",
      "outputs": [],
      "stateMutability": "nonpayable",
      "type": "function"
    },
    {
      "inputs": [],
      "name": "toggleYieldLock",
      "outputs": [
        {
          "internalType": "bool",
          "name": "",
          "type": "bool"
        }
      ],
      "stateMutability": "nonpayable",
      "type": "function"
    },
    {
      "inputs": [
        {
          "internalType": "string",
          "name": "providerString",
          "type": "string"
        },
        {
          "internalType": "address",
          "name": "providerAddress",
          "type": "address"
        }
      ],
      "name": "updateYieldProvider",
      "outputs": [],
      "stateMutability": "nonpayable",
      "type": "function"
    }
  ],
  "transactionHash": "0x8a5a26f56cc73e14b4687ad102f70e0d7234b3863b4bad2d3e7b2bd8e1cea4eb",
  "args": [],
  "numDeployments": 1,
  "solcInputHash": "92a2cc66f5e547ac4ac61d3943522434",
  "bytecode": "0x608060405234801561001057600080fd5b506106a0806100206000396000f3fe608060405234801561001057600080fd5b50600436106100575760003560e01c806327ff9f351461005c5780636ccd44911461007157806383da1d7614610084578063c8eeb57814610097578063f6a40d2a146100b3575b600080fd5b61006f61006a3660046104f5565b6100c6565b005b61006f61007f3660046104f5565b610265565b61006f610092366004610540565b610272565b61009f6102e2565b604051901515815260200160405180910390f35b61006f6100c1366004610602565b610325565b60008181527f29d9cba46c358ba7c1b8945751229339792c7c62e3197c240fa98916e75ffbf9602081815260408084207f35fa70a6f9ae8a4d427ebe0c1be62ffd2870fecc1df41c6fda0bf5803e56288883529320919052815460ff1661012c57600080fd5b60008154610100900460ff16600381111561014957610149610625565b1461019b5760405162461bcd60e51b815260206004820152601c60248201527f546f6f206c61746520746f206368616e6765205947206f707420696e0000000060448201526064015b60405180910390fd5b33600090815260048201602052604090205460ff1661020e5760405162461bcd60e51b815260206004820152602960248201527f5061792074686520636f6c6c61746572616c207365637572697479206465706f6044820152681cda5d08199a5c9cdd60ba1b6064820152608401610192565b336000818152600784016020526040808220805460ff81161560ff199091168117909155905190928392909187917f9c0d71d8ccd3ac3b8b8463f9dff1237a9e545a61f6e803ee0948ff02c7cef56691a450505050565b61026f8133610333565b50565b61027a61046c565b6040517ff27a5986330dc78d016d8604ee1a040d5a789fbaa2d0c27f5dfded4b616b897790829082906102ae90869061063b565b90815260405190819003602001902080546001600160a01b03929092166001600160a01b0319909216919091179055505050565b60006102ec61046c565b507f7c039906f7f8ca11e01b6987a88513563589699678f7d2a6c8447f44d69375f3805460ff19811660ff918216159081179092551690565b61032f8282610333565b5050565b60008281527f29d9cba46c358ba7c1b8945751229339792c7c62e3197c240fa98916e75ffbf9602090815260408083206001600160a01b0385168452600a810190925290912054806103be5760405162461bcd60e51b81526020600482015260146024820152734e6f207969656c6420746f20776974686472617760601b6044820152606401610192565b6001600160a01b0383166000818152600a840160205260408082208290555190919083908381818185875af1925050503d806000811461041a576040519150601f19603f3d011682016040523d82523d6000602084013e61041f565b606091505b505090508061042d57600080fd5b81846001600160a01b0316867f16879e095f1873a73d2185173cd45cb091d945760ca20e5b7c280a4e60cd00f060405160405180910390a45050505050565b7fc8fcad8db84d3cc18b4c41d551ea0ee66dd599cde068d998e57d5e09332c131c600401546001600160a01b031633146104f35760405162461bcd60e51b815260206004820152602260248201527f4c69624469616d6f6e643a204d75737420626520636f6e7472616374206f776e60448201526132b960f11b6064820152608401610192565b565b60006020828403121561050757600080fd5b5035919050565b634e487b7160e01b600052604160045260246000fd5b80356001600160a01b038116811461053b57600080fd5b919050565b6000806040838503121561055357600080fd5b823567ffffffffffffffff8082111561056b57600080fd5b818501915085601f83011261057f57600080fd5b8135818111156105915761059161050e565b604051601f8201601f19908116603f011681019083821181831017156105b9576105b961050e565b816040528281528860208487010111156105d257600080fd5b8260208601602083013760006020848301015280965050505050506105f960208401610524565b90509250929050565b6000806040838503121561061557600080fd5b823591506105f960208401610524565b634e487b7160e01b600052602160045260246000fd5b6000825160005b8181101561065c5760208186018101518583015201610642565b50600092019182525091905056fea2646970667358221220b2143c324f197730a8623d7ce4bcd93c0ee6fce54e14cc1a6acdf96ff1790c3064736f6c63430008120033",
  "devdoc": {
    "kind": "dev",
    "methods": {
      "claimAvailableYield(uint256)": {
        "params": {
          "termId": "The term id for which the yield is being claimed"
        }
      },
      "claimAvailableYield(uint256,address)": {
        "params": {
          "termId": "The term id for which the yield is being claimed",
          "user": "The user address that is claiming the yield"
        }
      }
    },
    "version": 1
  },
  "userdoc": {
    "kind": "user",
    "methods": {
      "claimAvailableYield(uint256)": {
        "notice": "This function allows a user to claim the current available yield"
      },
      "claimAvailableYield(uint256,address)": {
        "notice": "This function allows a user to claim the current available yield"
      }
    },
    "version": 1
  },
  "storageLayout": {
    "storage": [],
    "types": null
  }
}