{
  "address": "0xB044CF266ad8A337DfC75A8e5c21FCa442E01cfc",
  "abi": [
    {
      "inputs": [
        {
          "internalType": "uint256",
          "name": "termId",
          "type": "uint256"
        },
        {
          "internalType": "address",
          "name": "user",
          "type": "address"
        }
      ],
      "name": "expelledBeforeBeneficiary",
      "outputs": [
        {
          "internalType": "bool",
          "name": "",
          "type": "bool"
        }
      ],
      "stateMutability": "view",
      "type": "function"
    },
    {
      "inputs": [
        {
          "internalType": "address",
          "name": "participant",
          "type": "address"
        }
      ],
      "name": "getAllJoinedTerms",
      "outputs": [
        {
          "internalType": "uint256[]",
          "name": "",
          "type": "uint256[]"
        }
      ],
      "stateMutability": "view",
      "type": "function"
    },
    {
      "inputs": [
        {
          "internalType": "uint256",
          "name": "termId",
          "type": "uint256"
        }
      ],
      "name": "getCollateralSummary",
      "outputs": [
        {
          "internalType": "bool",
          "name": "",
          "type": "bool"
        },
        {
          "internalType": "enum LibCollateralStorage.CollateralStates",
          "name": "",
          "type": "uint8"
        },
        {
          "internalType": "uint256",
          "name": "",
          "type": "uint256"
        },
        {
          "internalType": "uint256",
          "name": "",
          "type": "uint256"
        },
        {
          "internalType": "address[]",
          "name": "",
          "type": "address[]"
        }
      ],
      "stateMutability": "view",
      "type": "function"
    },
    {
      "inputs": [
        {
          "internalType": "uint256",
          "name": "termId",
          "type": "uint256"
        }
      ],
      "name": "getCurrentBeneficiary",
      "outputs": [
        {
          "internalType": "address",
          "name": "",
          "type": "address"
        }
      ],
      "stateMutability": "view",
      "type": "function"
    },
    {
      "inputs": [
        {
          "internalType": "address",
          "name": "depositor",
          "type": "address"
        },
        {
          "internalType": "uint256",
          "name": "termId",
          "type": "uint256"
        }
      ],
      "name": "getDepositorCollateralSummary",
      "outputs": [
        {
          "internalType": "bool",
          "name": "",
          "type": "bool"
        },
        {
          "internalType": "uint256",
          "name": "",
          "type": "uint256"
        },
        {
          "internalType": "uint256",
          "name": "",
          "type": "uint256"
        },
        {
          "internalType": "uint256",
          "name": "",
          "type": "uint256"
        },
        {
          "internalType": "uint256",
          "name": "",
          "type": "uint256"
        }
      ],
      "stateMutability": "view",
      "type": "function"
    },
    {
      "inputs": [
        {
          "internalType": "address",
          "name": "participant",
          "type": "address"
        }
      ],
      "name": "getExpelledTerms",
      "outputs": [
        {
          "internalType": "uint256[]",
          "name": "",
          "type": "uint256[]"
        }
      ],
      "stateMutability": "view",
      "type": "function"
    },
    {
      "inputs": [
        {
          "internalType": "uint256",
          "name": "termId",
          "type": "uint256"
        }
      ],
      "name": "getFundSummary",
      "outputs": [
        {
          "internalType": "bool",
          "name": "",
          "type": "bool"
        },
        {
          "internalType": "enum LibFundStorage.FundStates",
          "name": "",
          "type": "uint8"
        },
        {
          "internalType": "contract IERC20",
          "name": "",
          "type": "address"
        },
        {
          "internalType": "address[]",
          "name": "",
          "type": "address[]"
        },
        {
          "internalType": "uint256",
          "name": "",
          "type": "uint256"
        },
        {
          "internalType": "uint256",
          "name": "",
          "type": "uint256"
        },
        {
          "internalType": "uint256",
          "name": "",
          "type": "uint256"
        },
        {
          "internalType": "uint256",
          "name": "",
          "type": "uint256"
        }
      ],
      "stateMutability": "view",
      "type": "function"
    },
    {
      "inputs": [
        {
          "internalType": "address",
          "name": "participant",
          "type": "address"
        },
        {
          "internalType": "enum LibTermStorage.TermStates",
          "name": "state",
          "type": "uint8"
        }
      ],
      "name": "getJoinedTermsByState",
      "outputs": [
        {
          "internalType": "uint256[]",
          "name": "",
          "type": "uint256[]"
        }
      ],
      "stateMutability": "view",
      "type": "function"
    },
    {
      "inputs": [],
      "name": "getLatestPrice",
      "outputs": [
        {
          "internalType": "uint256",
          "name": "",
          "type": "uint256"
        }
      ],
      "stateMutability": "view",
      "type": "function"
    },
    {
      "inputs": [
        {
          "internalType": "address",
          "name": "user",
          "type": "address"
        }
      ],
      "name": "getNeededAllowance",
      "outputs": [
        {
          "internalType": "uint256",
          "name": "",
          "type": "uint256"
        }
      ],
      "stateMutability": "view",
      "type": "function"
    },
    {
      "inputs": [
        {
          "internalType": "address",
          "name": "participant",
          "type": "address"
        },
        {
          "internalType": "uint256",
          "name": "termId",
          "type": "uint256"
        }
      ],
      "name": "getParticipantFundSummary",
      "outputs": [
        {
          "internalType": "bool",
          "name": "",
          "type": "bool"
        },
        {
          "internalType": "bool",
          "name": "",
          "type": "bool"
        },
        {
          "internalType": "bool",
          "name": "",
          "type": "bool"
        },
        {
          "internalType": "bool",
          "name": "",
          "type": "bool"
        },
        {
          "internalType": "uint256",
          "name": "",
          "type": "uint256"
        },
        {
          "internalType": "bool",
          "name": "",
          "type": "bool"
        }
      ],
      "stateMutability": "view",
      "type": "function"
    },
    {
      "inputs": [
        {
          "internalType": "uint256",
          "name": "termId",
          "type": "uint256"
        }
      ],
      "name": "getRemainingContributionTime",
      "outputs": [
        {
          "internalType": "uint256",
          "name": "",
          "type": "uint256"
        }
      ],
      "stateMutability": "view",
      "type": "function"
    },
    {
      "inputs": [
        {
          "internalType": "uint256",
          "name": "termId",
          "type": "uint256"
        }
      ],
      "name": "getRemainingCycleTime",
      "outputs": [
        {
          "internalType": "uint256",
          "name": "",
          "type": "uint256"
        }
      ],
      "stateMutability": "view",
      "type": "function"
    },
    {
      "inputs": [
        {
          "internalType": "uint256",
          "name": "termId",
          "type": "uint256"
        }
      ],
      "name": "getRemainingCycles",
      "outputs": [
        {
          "internalType": "uint256",
          "name": "",
          "type": "uint256"
        }
      ],
      "stateMutability": "view",
      "type": "function"
    },
    {
      "inputs": [
        {
          "internalType": "uint256",
          "name": "termId",
          "type": "uint256"
        }
      ],
      "name": "getRemainingCyclesContributionWei",
      "outputs": [
        {
          "internalType": "uint256",
          "name": "",
          "type": "uint256"
        }
      ],
      "stateMutability": "view",
      "type": "function"
    },
    {
      "inputs": [
        {
          "internalType": "uint256",
          "name": "termId",
          "type": "uint256"
        }
      ],
      "name": "getRemainingRegistrationTime",
      "outputs": [
        {
          "internalType": "uint256",
          "name": "",
          "type": "uint256"
        }
      ],
      "stateMutability": "view",
      "type": "function"
    },
    {
      "inputs": [
        {
          "internalType": "uint256",
          "name": "termId",
          "type": "uint256"
        }
      ],
      "name": "getTermSummary",
      "outputs": [
        {
          "components": [
            {
              "internalType": "bool",
              "name": "initialized",
              "type": "bool"
            },
            {
              "internalType": "enum LibTermStorage.TermStates",
              "name": "state",
              "type": "uint8"
            },
            {
              "internalType": "address",
              "name": "termOwner",
              "type": "address"
            },
            {
              "internalType": "uint256",
              "name": "creationTime",
              "type": "uint256"
            },
            {
              "internalType": "uint256",
              "name": "termId",
              "type": "uint256"
            },
            {
              "internalType": "uint256",
              "name": "registrationPeriod",
              "type": "uint256"
            },
            {
              "internalType": "uint256",
              "name": "totalParticipants",
              "type": "uint256"
            },
            {
              "internalType": "uint256",
              "name": "cycleTime",
              "type": "uint256"
            },
            {
              "internalType": "uint256",
              "name": "contributionAmount",
              "type": "uint256"
            },
            {
              "internalType": "uint256",
              "name": "contributionPeriod",
              "type": "uint256"
            },
            {
              "internalType": "address",
              "name": "stableTokenAddress",
              "type": "address"
            }
          ],
          "internalType": "struct LibTermStorage.Term",
          "name": "",
          "type": "tuple"
        }
      ],
      "stateMutability": "view",
      "type": "function"
    },
    {
      "inputs": [],
      "name": "getTermsId",
      "outputs": [
        {
          "internalType": "uint256",
          "name": "",
          "type": "uint256"
        },
        {
          "internalType": "uint256",
          "name": "",
          "type": "uint256"
        }
      ],
      "stateMutability": "view",
      "type": "function"
    },
    {
      "inputs": [
        {
          "internalType": "uint256",
          "name": "USDAmount",
          "type": "uint256"
        }
      ],
      "name": "getToCollateralConversionRate",
      "outputs": [
        {
          "internalType": "uint256",
          "name": "",
          "type": "uint256"
        }
      ],
      "stateMutability": "view",
      "type": "function"
    },
    {
      "inputs": [
        {
          "internalType": "uint256",
          "name": "ethAmount",
          "type": "uint256"
        }
      ],
      "name": "getToStableConversionRate",
      "outputs": [
        {
          "internalType": "uint256",
          "name": "",
          "type": "uint256"
        }
      ],
      "stateMutability": "view",
      "type": "function"
    },
    {
      "inputs": [
        {
          "internalType": "address",
          "name": "participant",
          "type": "address"
        },
        {
          "internalType": "uint256",
          "name": "termId",
          "type": "uint256"
        }
      ],
      "name": "getUserSet",
      "outputs": [
        {
          "internalType": "bool",
          "name": "",
          "type": "bool"
        },
        {
          "internalType": "bool",
          "name": "",
          "type": "bool"
        },
        {
          "internalType": "bool",
          "name": "",
          "type": "bool"
        }
      ],
      "stateMutability": "view",
      "type": "function"
    },
    {
      "inputs": [
        {
          "internalType": "address",
          "name": "user",
          "type": "address"
        },
        {
          "internalType": "uint256",
          "name": "termId",
          "type": "uint256"
        }
      ],
      "name": "getUserYieldSummary",
      "outputs": [
        {
          "internalType": "bool",
          "name": "",
          "type": "bool"
        },
        {
          "internalType": "uint256",
          "name": "",
          "type": "uint256"
        },
        {
          "internalType": "uint256",
          "name": "",
          "type": "uint256"
        },
        {
          "internalType": "uint256",
          "name": "",
          "type": "uint256"
        },
        {
          "internalType": "uint256",
          "name": "",
          "type": "uint256"
        },
        {
          "internalType": "uint256",
          "name": "",
          "type": "uint256"
        }
      ],
      "stateMutability": "view",
      "type": "function"
    },
    {
      "inputs": [
        {
          "internalType": "uint256",
          "name": "termId",
          "type": "uint256"
        },
        {
          "internalType": "address",
          "name": "user",
          "type": "address"
        }
      ],
      "name": "getWithdrawableUserBalance",
      "outputs": [
        {
          "internalType": "uint256",
          "name": "allowedWithdrawal",
          "type": "uint256"
        }
      ],
      "stateMutability": "view",
      "type": "function"
    },
    {
      "inputs": [],
      "name": "getYieldLockState",
      "outputs": [
        {
          "internalType": "bool",
          "name": "",
          "type": "bool"
        }
      ],
      "stateMutability": "view",
      "type": "function"
    },
    {
      "inputs": [
        {
          "internalType": "uint256",
          "name": "termId",
          "type": "uint256"
        }
      ],
      "name": "getYieldSummary",
      "outputs": [
        {
          "internalType": "bool",
          "name": "",
          "type": "bool"
        },
        {
          "internalType": "uint256",
          "name": "",
          "type": "uint256"
        },
        {
          "internalType": "uint256",
          "name": "",
          "type": "uint256"
        },
        {
          "internalType": "uint256",
          "name": "",
          "type": "uint256"
        },
        {
          "internalType": "uint256",
          "name": "",
          "type": "uint256"
        },
        {
          "internalType": "address[]",
          "name": "",
          "type": "address[]"
        },
        {
          "internalType": "address",
          "name": "",
          "type": "address"
        },
        {
          "internalType": "address",
          "name": "",
          "type": "address"
        }
      ],
      "stateMutability": "view",
      "type": "function"
    },
    {
      "inputs": [
        {
          "internalType": "uint256",
          "name": "termId",
          "type": "uint256"
        },
        {
          "internalType": "address",
          "name": "beneficiary",
          "type": "address"
        }
      ],
      "name": "isBeneficiary",
      "outputs": [
        {
          "internalType": "bool",
          "name": "",
          "type": "bool"
        }
      ],
      "stateMutability": "view",
      "type": "function"
    },
    {
      "inputs": [
        {
          "internalType": "uint256",
          "name": "termId",
          "type": "uint256"
        },
        {
          "internalType": "uint256",
          "name": "cycle",
          "type": "uint256"
        },
        {
          "internalType": "address",
          "name": "user",
          "type": "address"
        }
      ],
      "name": "isExempted",
      "outputs": [
        {
          "internalType": "bool",
          "name": "",
          "type": "bool"
        }
      ],
      "stateMutability": "view",
      "type": "function"
    },
    {
      "inputs": [
        {
          "internalType": "uint256",
          "name": "termId",
          "type": "uint256"
        },
        {
          "internalType": "address",
          "name": "member",
          "type": "address"
        }
      ],
      "name": "isUnderCollaterized",
      "outputs": [
        {
          "internalType": "bool",
          "name": "",
          "type": "bool"
        }
      ],
      "stateMutability": "view",
      "type": "function"
    },
    {
      "inputs": [
        {
          "internalType": "uint256",
          "name": "termId",
          "type": "uint256"
        },
        {
          "internalType": "uint256",
          "name": "depositorIndex",
          "type": "uint256"
        }
      ],
      "name": "minCollateralToDeposit",
      "outputs": [
        {
          "internalType": "uint256",
          "name": "amount",
          "type": "uint256"
        }
      ],
      "stateMutability": "view",
      "type": "function"
    },
    {
      "inputs": [
        {
          "internalType": "uint256",
          "name": "termId",
          "type": "uint256"
        }
      ],
      "name": "termAPY",
      "outputs": [
        {
          "internalType": "uint256",
          "name": "",
          "type": "uint256"
        }
      ],
      "stateMutability": "view",
      "type": "function"
    },
    {
      "inputs": [
        {
          "internalType": "uint256",
          "name": "termId",
          "type": "uint256"
        }
      ],
      "name": "totalYieldGenerated",
      "outputs": [
        {
          "internalType": "uint256",
          "name": "",
          "type": "uint256"
        }
      ],
      "stateMutability": "view",
      "type": "function"
    },
    {
      "inputs": [
        {
          "internalType": "uint256",
          "name": "termId",
          "type": "uint256"
        },
        {
          "internalType": "address",
          "name": "user",
          "type": "address"
        }
      ],
      "name": "userAPY",
      "outputs": [
        {
          "internalType": "uint256",
          "name": "",
          "type": "uint256"
        }
      ],
      "stateMutability": "view",
      "type": "function"
    },
    {
      "inputs": [
        {
          "internalType": "uint256",
          "name": "termId",
          "type": "uint256"
        },
        {
          "internalType": "address",
          "name": "user",
          "type": "address"
        }
      ],
      "name": "userHasoptedInYG",
      "outputs": [
        {
          "internalType": "bool",
          "name": "",
          "type": "bool"
        }
      ],
      "stateMutability": "view",
      "type": "function"
    },
    {
      "inputs": [
        {
          "internalType": "uint256",
          "name": "termId",
          "type": "uint256"
        },
        {
          "internalType": "address",
          "name": "user",
          "type": "address"
        }
      ],
      "name": "wasExpelled",
      "outputs": [
        {
          "internalType": "bool",
          "name": "",
          "type": "bool"
        }
      ],
      "stateMutability": "view",
      "type": "function"
    }
  ],
  "args": [],
  "numDeployments": 2,
  "solcInputHash": "f0818603ed65b5c4ebaeb90e357025d9",
  "bytecode": "0x608060405234801561001057600080fd5b506128d2806100206000396000f3fe608060405234801561001057600080fd5b50600436106102065760003560e01c806392a6c8021161011a578063d8f8e991116100ad578063dc9e24ae1161007c578063dc9e24ae1461068d578063e51a6295146106a0578063e9783e60146106b3578063f0d826e7146106fd578063fd4dba9d1461071057600080fd5b8063d8f8e9911461060b578063da3791ca14610636578063dbd576831461065a578063dbf428101461067a57600080fd5b8063c177f091116100e9578063c177f091146105ab578063d072f4bc146105be578063d72bb87e146105d1578063d7992e5b146105f857600080fd5b806392a6c802146104e35780639d4eb26f146104f6578063b7cf483f1461051d578063bb91b76d1461056e57600080fd5b806365654fe31161019d57806377778baf1161016c57806377778baf146104855780637aed53a61461049857806380530731146104b55780638e15f473146104c857806391ce5ff7146104d057600080fd5b806365654fe3146103cb5780636bbbb5fb146103de57806375aaa78c1461042857806375d4e40b1461043b57600080fd5b80631e993b53116101d95780631e993b531461034f5780633d17f1e01461036f5780636191474c146103a557806362f02abd146103b857600080fd5b80630c64c6971461020b5780630fc4a7ef146102315780631268612d146102445780631c162dbe1461030d575b600080fd5b61021e610219366004612295565b610742565b6040519081526020015b60405180910390f35b61021e61023f3660046122b7565b610804565b6102d46102523660046122ec565b600090815260008051602061281d833981519152602090815260408083206001600160a01b039490941683526005840182528083205460068501835281842054600786018452828520546008870185528386205460098801865284872054600a909801909552929094205460ff91821696948216959282169493821693911690565b604080519615158752941515602087015292151593850193909352151560608401526080830191909152151560a082015260c001610228565b61032061031b3660046122ec565b610838565b6040805196151587526020870195909552938501929092526060840152608083015260a082015260c001610228565b61036261035d366004612316565b6108ce565b6040516102289190612331565b7f7c039906f7f8ca11e01b6987a88513563589699678f7d2a6c8447f44d69375f35460ff165b6040519015158152602001610228565b61021e6103b33660046122b7565b610a41565b61021e6103c63660046122b7565b610aff565b61021e6103d9366004612375565b610b40565b6103956103ec366004612375565b600091825260008051602061281d833981519152602090815260408084206001600160a01b039390931684526015909201905290205460ff1690565b610362610436366004612316565b610c17565b610395610449366004612375565b60009182526000805160206127fd833981519152602090815260408084206001600160a01b039390931684526007909201905290205460ff1690565b61021e610493366004612375565b610cb7565b6104a0610df8565b60408051928352602083019190915201610228565b61021e6104c33660046122b7565b610e29565b61021e610e90565b61021e6104de3660046122b7565b611124565b61021e6104f13660046122b7565b6111ec565b6105096105043660046122b7565b611239565b6040516102289897969594939291906123e5565b61039561052b366004612442565b600092835260008051602061281d83398151915260209081526040808520938552600c90930181528284206001600160a01b039290921684525290205460ff1690565b61058161057c3660046122ec565b611374565b6040805195151586526020860194909452928401919091526060830152608082015260a001610228565b6103956105b9366004612375565b61146c565b61021e6105cc3660046122b7565b611478565b6105e46105df3660046122b7565b61149a565b60405161022898979695949392919061248d565b610395610606366004612375565b611573565b61061e6106193660046122b7565b61160d565b6040516001600160a01b039091168152602001610228565b6106496106443660046122b7565b611669565b60405161022895949392919061250b565b61066d6106683660046122b7565b61171f565b604051610228919061254e565b61021e6106883660046122b7565b611868565b61036261069b3660046125ec565b611993565b61021e6106ae366004612316565b611b54565b6103956106c1366004612375565b600091825260008051602061281d833981519152602090815260408084206001600160a01b039390931684526006909201905290205460ff1690565b61021e61070b3660046122b7565b611cb7565b61072361071e3660046122ec565b611d40565b6040805193151584529115156020840152151590820152606001610228565b600082815260008051602061283d83398151915260205260408120600481015483106107ab5760405162461bcd60e51b8152602060048201526013602482015272496e646578206f7574206f6620626f756e647360681b60448201526064015b60405180910390fd5b60006107c88260060154670de0b6b3a76400006105cc919061263d565b905060648483600401546107dc9190612654565b6107e6908361263d565b6107f190609661263d565b6107fb919061267d565b95945050505050565b60008061080f610e90565b90506000670de0b6b3a7640000610826858461263d565b610830919061267d565b949350505050565b60008181526000805160206127fd833981519152602052604081208190819081908190819081610868898b611d9f565b6001600160a01b039a909a1660009081526007830160209081526040808320546008860183528184205460098701845282852054600a8801855283862054600b909801909452919093205460ff9093169d909c919b509399509097509550909350505050565b606060006108db83610c17565b90506000815167ffffffffffffffff8111156108f9576108f9612691565b604051908082528060200260200182016040528015610922578160200160208202803683370190505b508251909150600090815b818110156109a45761095885828151811061094a5761094a6126a7565b602002602001015188611573565b1561099c5784818151811061096f5761096f6126a7565b6020026020010151848481518110610989576109896126a7565b6020026020010181815250508260010192505b60010161092d565b5060008267ffffffffffffffff8111156109c0576109c0612691565b6040519080825280602002602001820160405280156109e9578160200160208202803683370190505b50905060005b83811015610a3657848181518110610a0957610a096126a7565b6020026020010151828281518110610a2357610a236126a7565b60209081029190910101526001016109ef565b509695505050505050565b600081815260008051602061281d8339815191526020908152604080832060008051602061283d83398151915290925282208154600190610100900460ff166004811115610a9157610a91612477565b14610aa0575060009392505050565b60008160070154836002015460018560040154610abd9190612654565b8460050154610acc919061263d565b610ad691906126bd565b610ae091906126bd565b905080421115610af557506000949350505050565b6107fb4282612654565b600081815260008051602061281d8339815191526020526040812060048101546014820154610b2f9060016126bd565b610b399190612654565b9392505050565b60008281526000805160206127fd8339815191526020908152604080832060008051602061285d833981519152909252822060028201548390610b839042612654565b90506000610b918787611d9f565b6001600160a01b0387166000908152600886016020526040902054610bb691906126bd565b6001600160a01b03871660009081526005850160205260409020549091508290610be883670de0b6b3a764000061263d565b610bf2919061267d565b610c00906301e1338061263d565b610c0a919061267d565b9450505050505b92915050565b6001600160a01b03811660009081527f87101b21d556417ad2b8e8f2700dbad90721d5d50a1f435f2dee0b9dc981ac8b60209081526040808320805482518185028101850190935280835260609460008051602061287d833981519152949093929190830182828015610ca957602002820191906000526020600020905b815481526020019060010190808311610c95575b509398975050505050505050565b600082815260008051602061281d8339815191526020908152604080832060008051602061285d83398151915283528184206000805160206127fd83398151915284528285206001600160a01b038716865260058201855283862054600a82018652848720546015850190965293862054825493959294919391929160ff918216916002916101009004166003811115610d5357610d53612477565b1480610d5c5750805b15610d7257610d6b82846126bd565b9650610dec565b60018554610100900460ff166003811115610d8f57610d8f612477565b03610de7576000600a610da18b611cb7565b610dac90600f61263d565b610db6919061267d565b905080841115610ddc5782610dcb8286612654565b610dd591906126bd565b9750610de1565b600097505b50610dec565b600096505b50505050505092915050565b60008051602061287d833981519152805460009182918290610e1c90600190612654565b9154919491935090915050565b60008181526000805160206127fd8339815191526020526040812060028101548290610e559042612654565b9050808260040154610e6686611868565b610e7890670de0b6b3a764000061263d565b610e82919061267d565b610826906301e1338061263d565b6000807f138fa7b895cc6132bd44317f3510a9c38821e93ca223f9fdc532527c01963ec4905060008060008084600001604051610eda90661155120bd554d160ca1b815260070190565b9081526040805191829003602001822054633fabe5a360e21b835290516001600160a01b039091169163feaf968c9160048083019260a09291908290030181865afa158015610f2d573d6000803e3d6000fd5b505050506040513d601f19601f82011682018060405250810190610f5191906126e7565b94509450509350935081600014158015610f7d5750836001600160501b0316816001600160501b031610155b8015610f895750600083135b610fd55760405162461bcd60e51b815260206004820152601b60248201527f436861696e6c696e6b4f7261636c653a207374616c652064617461000000000060448201526064016107a2565b60008060008088600001604051610ffa90671554d110cbd554d160c21b815260080190565b9081526040805191829003602001822054633fabe5a360e21b835290516001600160a01b039091169163feaf968c9160048083019260a09291908290030181865afa15801561104d573d6000803e3d6000fd5b505050506040513d601f19601f8201168201806040525081019061107191906126e7565b9450945050935093508160001415801561109d5750836001600160501b0316816001600160501b031610155b80156110a95750600083135b6110f55760405162461bcd60e51b815260206004820152601b60248201527f436861696e6c696e6b4f7261636c653a207374616c652064617461000000000060448201526064016107a2565b60006111018489612737565b905061111581670de0b6b3a7640000612765565b9a505050505050505050505090565b600081815260008051602061283d8339815191526020908152604080832060008051602061285d8339815191529092528220600181015483036111a95760405162461bcd60e51b815260206004820152601860248201527f4e6f626f647920686173206465706f736974656420796574000000000000000060448201526064016107a2565b816003015481600101546111bd91906126bd565b42106111cd575060009392505050565b42826003015482600101546111e291906126bd565b6108309190612654565b600081815260008051602061281d8339815191526020908152604080832060008051602061283d8339815191529092528220600282015460048301546005830154859291610ad69161263d565b60008080808060608180806000805160206127fd83398151915260000160008b815260200190815260200160002090508060000160009054906101000a900460ff16816002015482600301548360040154846005015485600601866001016040516112b3906816985e5b95985d5b1d60ba1b815260090190565b908152604051908190036020018120546001600160a01b03169060018901906112e9906605a61796e5a61760cc1b815260070190565b908152604080519182900360209081018320548554808302850183019093528284526001600160a01b03169291859183018282801561135157602002820191906000526020600020905b81546001600160a01b03168152600190910190602001808311611333575b505050505092509850985098509850985098509850985050919395975091939597565b600081815260008051602061285d8339815191526020908152604080832060008051602061281d833981519152835281842060008051602061283d83398151915284528285206001600160a01b038816865260068201909452918420548493849384938493909290849060ff16611407576114008260060154670de0b6b3a76400006105cc919061263d565b9050611413565b6114108a611cb7565b90505b6001600160a01b039a909a1660009081526004840160209081526040808320546005870183528184205460068801845282852054600790980190935292205460ff9092169c909b949a5090985092965091945050505050565b6000610b398383611dc8565b600080611483610e90565b905060008161082685670de0b6b3a764000061263d565b600080806060818080808060008051602061281d83398151915260008b81526020918252604090819020805460028201546003830154600484015460148501546001860180548851818b0281018b0190995280895296995060ff80871699610100880490911698620100009097046001600160a01b031697919691879183018282801561155057602002820191906000526020600020905b81546001600160a01b03168152600190910190602001808311611532575b505050505094509850985098509850985098509850985050919395975091939597565b600082815260008051602061281d8339815191526020908152604080832060008051602061285d83398151915283528184206001600160a01b0386168552600582019093529083205490919060ff161580156115ea57506001600160a01b038416600090815260048201602052604090205460ff16155b156115fa57600192505050610c11565b600092505050610c11565b505092915050565b600081815260008051602061281d83398151915260205260408120600481015460018083019161163d9190612654565b8154811061164d5761164d6126a7565b6000918252602090912001546001600160a01b03169392505050565b600080808060608160008051602061285d8339815191526000888152602091825260409081902080546001820154600283015460038401805486518189028101890190975280875294975060ff80851697610100909504169592949193909291839183018282801561170457602002820191906000526020600020905b81546001600160a01b031681526001909101906020018083116116e6575b50505050509050955095509550955095505091939590929450565b61178f60408051610160810190915260008082526020820190815260200160006001600160a01b031681526020016000815260200160008152602001600081526020016000815260200160008152602001600081526020016000815260200160006001600160a01b031681525090565b600082815260008051602061283d833981519152602090815260409182902082516101608101909352805460ff8082161515855291928401916101009091041660038111156117e0576117e0612477565b60038111156117f1576117f1612477565b815281546001600160a01b036201000090910481166020830152600183015460408301526002830154606083015260038301546080830152600483015460a0830152600583015460c0830152600683015460e083015260078301546101008301526008909201549091166101209091015292915050565b60008181526000805160206127fd833981519152602090815260408083206006810180548351818602810186019094528084529193859384939092918301828280156118dd57602002820191906000526020600020905b81546001600160a01b031681526001909101906020018083116118bf575b505083519394506000925050505b818110156119495784600801600084838151811061190b5761190b6126a7565b60200260200101516001600160a01b03166001600160a01b03168152602001908152602001600020548461193f91906126bd565b93506001016118eb565b5060006119568786611f0f565b9050846004015481111561198857600485015461197382866126bd565b61197d9190612654565b979650505050505050565b509195945050505050565b606060006119a084610c17565b90506000815167ffffffffffffffff8111156119be576119be612691565b6040519080825280602002602001820160405280156119e7578160200160208202803683370190505b508251909150600090815b81811015611ab657866003811115611a0c57611a0c612477565b60008051602061287d8339815191526001016000878481518110611a3257611a326126a7565b6020026020010151815260200190815260200160002060000160019054906101000a900460ff166003811115611a6a57611a6a612477565b03611aae57848181518110611a8157611a816126a7565b6020026020010151848481518110611a9b57611a9b6126a7565b6020026020010181815250508260010192505b6001016119f2565b5060008267ffffffffffffffff811115611ad257611ad2612691565b604051908082528060200260200182016040528015611afb578160200160208202803683370190505b50905060005b83811015611b4857848181518110611b1b57611b1b6126a7565b6020026020010151828281518110611b3557611b356126a7565b6020908102919091010152600101611b01565b50979650505050505050565b6000806000611b64846001611993565b90506000611b73856000611993565b825181519192509060005b82811015611c2157600060008051602061287d8339815191526001016000878481518110611bae57611bae6126a7565b6020026020010151815260200190815260200160002090506000611bea878481518110611bdd57611bdd6126a7565b6020026020010151610aff565b8260060154611bf9919061263d565b611c0690620f424061263d565b9050611c1281896126bd565b97508260010192505050611b7e565b5060005b81811015611cab57600060008051602061287d8339815191526001016000868481518110611c5557611c556126a7565b602002602001015181526020019081526020016000209050600081600401548260060154611c83919061263d565b611c9090620f424061263d565b9050611c9c81896126bd565b97508260010192505050611c25565b50939695505050505050565b600081815260008051602061281d8339815191526020908152604080832060008051602061283d833981519152909252822060048201546014830154849190611d019060016126bd565b611d0b9190612654565b90506000611d2a8360060154670de0b6b3a76400006105cc919061263d565b9050611d36818361263d565b9695505050505050565b600081815260008051602061281d833981519152602052604081208190819081611d6d600d83018861205b565b90506000611d7e83600f018961205b565b90506000611d8f846011018a61205b565b9299919850919650945050505050565b600080670de0b6b3a7640000611db5858561207d565b611dbe86612109565b610826919061263d565b600082815260008051602061285d833981519152602090815260408083206001600160a01b0385168452600581019092528220548290611e2486600090815260008051602061281d833981519152602052604090205460ff1690565b611ea35760405163bb91b76d60e01b81526001600160a01b038616600482015260248101879052309063bb91b76d9060440160a060405180830381865afa158015611e73573d6000803e3d6000fd5b505050506040513d601f19601f82011682018060405250810190611e979190612795565b9550611f069350505050565b60405163f0d826e760e01b815260048101879052309063f0d826e790602401602060405180830381865afa158015611edf573d6000803e3d6000fd5b505050506040513d601f19601f82011682018060405250810190611f0391906127e3565b91505b10949350505050565b60008082600101604051611f32906816985e5b95985d5b1d60ba1b815260090190565b90815260405190819003602001812054631398fee160e31b82526001600160a01b031690639cc7f70890611f6e90879060040190815260200190565b602060405180830381865afa158015611f8b573d6000803e3d6000fd5b505050506040513d601f19601f82011682018060405250810190611faf91906127e3565b9050600083600101604051611fd3906816985e5b95985d5b1d60ba1b815260090190565b908152604080516020928190038301812054631df1ee3f60e21b825291516001600160a01b03909216926377c7b8fc926004808401938290030181865afa158015612022573d6000803e3d6000fd5b505050506040513d601f19601f8201168201806040525081019061204691906127e3565b9050670de0b6b3a76400006107f1828461263d565b6001600160a01b03811660009081526001830160205260408120541515610b39565b60008281526000805160206127fd83398151915260205260408120600481015482036120ad576000915050610c11565b60048101546001600160a01b0384166000908152600983016020908152604080832054600b8601909252909120546120e59190612654565b6120f790670de0b6b3a764000061263d565b612101919061267d565b915050610c11565b60008181526000805160206127fd833981519152602052604080822081516816985e5b95985d5b1d60ba1b8152600182016009820152915191829003602901822054631398fee160e31b835260048301859052909183916001600160a01b031690639cc7f70890602401602060405180830381865afa158015612190573d6000803e3d6000fd5b505050506040513d601f19601f820116820180604052508101906121b491906127e3565b90506000826001016040516121d8906816985e5b95985d5b1d60ba1b815260090190565b908152604080516020928190038301812054631df1ee3f60e21b825291516001600160a01b03909216926377c7b8fc926004808401938290030181865afa158015612227573d6000803e3d6000fd5b505050506040513d601f19601f8201168201806040525081019061224b91906127e3565b90506000670de0b6b3a7640000612262838561263d565b61226c919061267d565b90508360040154811115612289576004840154611d369082612654565b50600095945050505050565b600080604083850312156122a857600080fd5b50508035926020909101359150565b6000602082840312156122c957600080fd5b5035919050565b80356001600160a01b03811681146122e757600080fd5b919050565b600080604083850312156122ff57600080fd5b612308836122d0565b946020939093013593505050565b60006020828403121561232857600080fd5b610b39826122d0565b6020808252825182820181905260009190848201906040850190845b818110156123695783518352928401929184019160010161234d565b50909695505050505050565b6000806040838503121561238857600080fd5b82359150612398602084016122d0565b90509250929050565b600081518084526020808501945080840160005b838110156123da5781516001600160a01b0316875295820195908201906001016123b5565b509495945050505050565b60006101008a151583528960208401528860408401528760608401528660808401528060a0840152612419818401876123a1565b6001600160a01b0395861660c08501529390941660e09092019190915250979650505050505050565b60008060006060848603121561245757600080fd5b833592506020840135915061246e604085016122d0565b90509250925092565b634e487b7160e01b600052602160045260246000fd5b60006101008a1515835260058a106124a7576124a7612477565b602083018a90526001600160a01b0389166040840152606083018190526124d0818401896123a1565b9150508560808301528460a08301528360c08301528260e08301529998505050505050505050565b6004811061250857612508612477565b50565b8515158152612519856124f8565b84602082015283604082015282606082015260a06080820152600061197d60a08301846123a1565b61254a816124f8565b9052565b8151151581526101608101602083015161256b6020840182612541565b50604083015161258660408401826001600160a01b03169052565b50606083015160608301526080830151608083015260a083015160a083015260c083015160c083015260e083015160e083015261010080840151818401525061012080840151818401525061014080840151611605828501826001600160a01b03169052565b600080604083850312156125ff57600080fd5b612608836122d0565b915060208301356004811061261c57600080fd5b809150509250929050565b634e487b7160e01b600052601160045260246000fd5b8082028115828204841417610c1157610c11612627565b81810381811115610c1157610c11612627565b634e487b7160e01b600052601260045260246000fd5b60008261268c5761268c612667565b500490565b634e487b7160e01b600052604160045260246000fd5b634e487b7160e01b600052603260045260246000fd5b80820180821115610c1157610c11612627565b80516001600160501b03811681146122e757600080fd5b600080600080600060a086880312156126ff57600080fd5b612708866126d0565b945060208601519350604086015192506060860151915061272b608087016126d0565b90509295509295909350565b60008261274657612746612667565b600160ff1b82146000198414161561276057612760612627565b500590565b80820260008212600160ff1b8414161561278157612781612627565b8181058314821517610c1157610c11612627565b600080600080600060a086880312156127ad57600080fd5b855180151581146127bd57600080fd5b602087015160408801516060890151608090990151929a91995097965090945092505050565b6000602082840312156127f557600080fd5b505191905056fe29d9cba46c358ba7c1b8945751229339792c7c62e3197c240fa98916e75ffbf96751f7e27cecf86d7136f5749c224248cae80a39fafb59f8f6bf12c52816307c87101b21d556417ad2b8e8f2700dbad90721d5d50a1f435f2dee0b9dc981ac8a35fa70a6f9ae8a4d427ebe0c1be62ffd2870fecc1df41c6fda0bf5803e56288887101b21d556417ad2b8e8f2700dbad90721d5d50a1f435f2dee0b9dc981ac89a2646970667358221220b79919a806985ca167468abc7cd8996b85c9fae54bf881203fa1259886be79b964736f6c63430008120033",
  "devdoc": {
    "kind": "dev",
    "methods": {
      "expelledBeforeBeneficiary(uint256,address)": {
        "params": {
          "termId": "the id of the term",
          "user": "the address of the participant to check"
        },
        "returns": {
          "_0": "true if the participant is expelled before being a beneficiary"
        }
      },
      "getAllJoinedTerms(address)": {
        "params": {
          "participant": "the participant address"
        },
        "returns": {
          "_0": "an array with the term ids the participant is part of"
        }
      },
      "getCollateralSummary(uint256)": {
        "params": {
          "termId": "the collateral id"
        },
        "returns": {
          "_0": "collateral initialized",
          "_1": "collateral state",
          "_2": "collateral firstDepositTime",
          "_3": "counterMembers",
          "_4": "collateral depositors"
        }
      },
      "getCurrentBeneficiary(uint256)": {
        "params": {
          "termId": "the fund id"
        },
        "returns": {
          "_0": "the current beneficiary"
        }
      },
      "getDepositorCollateralSummary(address,uint256)": {
        "params": {
          "depositor": "the depositor address",
          "termId": "the collateral id"
        },
        "returns": {
          "_0": "isCollateralMember",
          "_1": "collateralMembersBank",
          "_2": "collateralPaymentBank",
          "_3": "collateralDepositByUser",
          "_4": "expulsion limit"
        }
      },
      "getExpelledTerms(address)": {
        "params": {
          "participant": "the participant address"
        },
        "returns": {
          "_0": "an array the term ids the participant is part of, giving the state of the term"
        }
      },
      "getFundSummary(uint256)": {
        "params": {
          "termId": "the fund id"
        },
        "returns": {
          "_0": "fund initialized",
          "_1": "fund currentState",
          "_2": "fund stableToken",
          "_3": "fund beneficiariesOrder",
          "_4": "fund fundStart",
          "_5": "fund fundEnd",
          "_6": "fund currentCycle",
          "_7": "fund totalAmountOfCycles"
        }
      },
      "getJoinedTermsByState(address,uint8)": {
        "params": {
          "participant": "the participant address",
          "state": "the term state"
        },
        "returns": {
          "_0": "an array with the term ids the participant is part of, giving the state of the term"
        }
      },
      "getLatestPrice()": {
        "returns": {
          "_0": "uint latest price in Wei Note: 18 decimals"
        }
      },
      "getNeededAllowance(address)": {
        "params": {
          "user": "the user address"
        },
        "returns": {
          "_0": "the needed allowance"
        }
      },
      "getParticipantFundSummary(address,uint256)": {
        "params": {
          "participant": "the user to get the info from",
          "termId": "the fund id"
        },
        "returns": {
          "_0": "fund isParticipant, true if is participant",
          "_1": "fund isBeneficiary, true if has been beneficiary",
          "_2": "fund paidThisCycle, true if has paid the current cycle",
          "_3": "fund autoPayEnabled, true if auto pay is enabled",
          "_4": "fund beneficiariesPool, the beneficiary pool, 6 decimals",
          "_5": "fund beneficiariesFrozenPool, true if the beneficiary pool is frozen"
        }
      },
      "getRemainingContributionTime(uint256)": {
        "params": {
          "termId": "the fund id"
        },
        "returns": {
          "_0": "the time left to contribute"
        }
      },
      "getRemainingCycleTime(uint256)": {
        "params": {
          "termId": "the term id"
        },
        "returns": {
          "_0": "remaining time in the current cycle"
        }
      },
      "getRemainingCycles(uint256)": {
        "params": {
          "termId": "the term id"
        },
        "returns": {
          "_0": "remaining cycles"
        }
      },
      "getRemainingCyclesContributionWei(uint256)": {
        "params": {
          "termId": "the term id"
        },
        "returns": {
          "_0": "remaining cycles contribution"
        }
      },
      "getRemainingRegistrationTime(uint256)": {
        "params": {
          "termId": "the term id"
        },
        "returns": {
          "_0": "remaining contribution period"
        }
      },
      "getTermSummary(uint256)": {
        "params": {
          "termId": "the term id"
        },
        "returns": {
          "_0": "the term struct"
        }
      },
      "getTermsId()": {
        "returns": {
          "_0": "the current term id",
          "_1": "the next term id"
        }
      },
      "getToCollateralConversionRate(uint256)": {
        "details": "should we always deal with in Wei?",
        "params": {
          "USDAmount": "The amount in USD with 18 decimals"
        },
        "returns": {
          "_0": "uint converted amount in wei"
        }
      },
      "getToStableConversionRate(uint256)": {
        "details": "should we always deal with in Wei?",
        "params": {
          "ethAmount": "The amount in ETH"
        },
        "returns": {
          "_0": "uint converted amount in USD correct to 18 decimals"
        }
      },
      "getUserSet(address,uint256)": {
        "params": {
          "participant": "the user to get the info from",
          "termId": "the fund id"
        },
        "returns": {
          "_0": "on participant set",
          "_1": "on beneficiary set",
          "_2": "on defaulter set"
        }
      },
      "getUserYieldSummary(address,uint256)": {
        "params": {
          "termId": "the collateral id",
          "user": "the depositor address"
        },
        "returns": {
          "_0": "hasOptedIn",
          "_1": "withdrawnYield",
          "_2": "withdrawnCollateral",
          "_3": "availableYield",
          "_4": "depositedCollateralByUser",
          "_5": "yieldDistributed"
        }
      },
      "getWithdrawableUserBalance(uint256,address)": {
        "params": {
          "termId": "term id",
          "user": "depositor address"
        },
        "returns": {
          "allowedWithdrawal": "amount the amount of collateral the depositor can withdraw"
        }
      },
      "getYieldSummary(uint256)": {
        "params": {
          "termId": "the collateral id"
        },
        "returns": {
          "_0": "initialized",
          "_1": "startTimeStamp",
          "_2": "totalDeposit",
          "_3": "currentTotalDeposit",
          "_4": "totalShares",
          "_5": "yieldUsers",
          "_6": "vaultAddress",
          "_7": "zapAddress"
        }
      },
      "isBeneficiary(uint256,address)": {
        "params": {
          "beneficiary": "the address of the participant to check",
          "termId": "the id of the term"
        },
        "returns": {
          "_0": "true if the participant is a beneficiary"
        }
      },
      "isExempted(uint256,uint256,address)": {
        "params": {
          "cycle": "the cycle to check",
          "termId": "the fund id",
          "user": "the user to check"
        },
        "returns": {
          "_0": "true if the user is exempted"
        }
      },
      "isUnderCollaterized(uint256,address)": {
        "details": "This will revert if called during ReleasingCollateral or after",
        "params": {
          "member": "The user to check for",
          "termId": "The term id"
        },
        "returns": {
          "_0": "Bool check if member is below 1.0x of collateralDeposit"
        }
      },
      "minCollateralToDeposit(uint256,uint256)": {
        "details": "The minimum collateral amount is calculated based on the index on the depositors arrayThe return value should be the minimum msg.value when calling joinTermC = 1.5 Cp (Tp - I) where C = minimum collateral amount, Cp = contribution amount, Tp = total participants, I = depositor index (starts at 0). 1.5",
        "returns": {
          "amount": "the minimum collateral amount to deposit in wei"
        }
      },
      "termAPY(uint256)": {
        "params": {
          "termId": "The term id for which the APY is being calculated"
        },
        "returns": {
          "_0": "The APY for the term"
        }
      },
      "totalYieldGenerated(uint256)": {
        "params": {
          "termId": "The term id for which the yield is being calculated"
        },
        "returns": {
          "_0": "The total yield generated for the term"
        }
      },
      "userAPY(uint256,address)": {
        "params": {
          "termId": "The term id for which the APY is being calculated",
          "user": "The user for which the APY is being calculated"
        },
        "returns": {
          "_0": "The APY for the user"
        }
      },
      "userHasoptedInYG(uint256,address)": {
        "params": {
          "termId": "The term id for which the check is being made",
          "user": "The user for which the check is being made"
        },
        "returns": {
          "_0": "True if the user has opted in"
        }
      },
      "wasExpelled(uint256,address)": {
        "params": {
          "termId": "the fund id",
          "user": "the user to check"
        },
        "returns": {
          "_0": "true if the user was expelled before"
        }
      }
    },
    "version": 1
  },
  "userdoc": {
    "kind": "user",
    "methods": {
      "getCurrentBeneficiary(uint256)": {
        "notice": "function to get the current beneficiary"
      },
      "getFundSummary(uint256)": {
        "notice": "function to get the cycle information in one go"
      },
      "getLatestPrice()": {
        "notice": "Gets latest ETH / USD price"
      },
      "getNeededAllowance(address)": {
        "notice": "a function to get the needed allowance for every active term the user is part of"
      },
      "getParticipantFundSummary(address,uint256)": {
        "notice": "function to get fund information of a specific participant"
      },
      "getRemainingContributionTime(uint256)": {
        "notice": "returns the time left to contribute for this cycle"
      },
      "getRemainingRegistrationTime(uint256)": {
        "notice": "Gets the remaining registration period for a term"
      },
      "getToCollateralConversionRate(uint256)": {
        "notice": "Gets the conversion rate of an amount in USD to ETH"
      },
      "getToStableConversionRate(uint256)": {
        "notice": "Gets the conversion rate of an amount in ETH to USD"
      },
      "getUserSet(address,uint256)": {
        "notice": "function to get cycle information of a specific participant"
      },
      "getWithdrawableUserBalance(uint256,address)": {
        "notice": "Called to check how much collateral a user can withdraw"
      },
      "getYieldLockState()": {
        "notice": "This function is used to get the current state of the yield lock"
      },
      "isExempted(uint256,uint256,address)": {
        "notice": "function to see if a user is exempted from paying a cycle"
      },
      "isUnderCollaterized(uint256,address)": {
        "notice": "Checks if a user has a collateral below 1.0x of total contribution amount"
      },
      "minCollateralToDeposit(uint256,uint256)": {
        "notice": "Called to check the minimum collateral amount to deposit in wei"
      },
      "termAPY(uint256)": {
        "notice": "This function is used to get a term APY"
      },
      "totalYieldGenerated(uint256)": {
        "notice": "This function is used to get the total yield generated for a term"
      },
      "userAPY(uint256,address)": {
        "notice": "This function is used to get a user APY"
      },
      "userHasoptedInYG(uint256,address)": {
        "notice": "This function is used to check if a user has opted in for yield generation"
      },
      "wasExpelled(uint256,address)": {
        "notice": "function to know if a user was expelled before"
      }
    },
    "version": 1
  },
  "storageLayout": {
    "storage": [],
    "types": null
  }
}