{
  "address": "0x8ED88BD4ab7b4a947a42855C7FD1A27c64142FFE",
  "abi": [
    {
      "anonymous": false,
      "inputs": [
        {
          "indexed": true,
          "internalType": "uint256",
          "name": "amount",
          "type": "uint256"
        },
        {
          "indexed": true,
          "internalType": "address",
          "name": "receiver",
          "type": "address"
        }
      ],
      "name": "OnTestEthWithdraw",
      "type": "event"
    },
    {
      "inputs": [
        {
          "internalType": "address",
          "name": "newManager",
          "type": "address"
        }
      ],
      "name": "addTrustedAddress",
      "outputs": [],
      "stateMutability": "nonpayable",
      "type": "function"
    },
    {
      "inputs": [
        {
          "internalType": "uint256",
          "name": "termId",
          "type": "uint256"
        }
      ],
      "name": "testInsufficientBalance",
      "outputs": [],
      "stateMutability": "nonpayable",
      "type": "function"
    },
    {
      "inputs": [],
      "name": "withdrawTestEth",
      "outputs": [],
      "stateMutability": "nonpayable",
      "type": "function"
    }
  ],
  "transactionHash": "0x48958ee6e00e2a04aa6c14c420ecfc1ea09637520e3bbd8b9445754965d8221a",
  "args": [],
  "numDeployments": 2,
  "solcInputHash": "f529e02a027b5819b426b87ad7ab21c2",
  "bytecode": "0x608060405234801561001057600080fd5b50610585806100206000396000f3fe608060405234801561001057600080fd5b50600436106100415760003560e01c8063be02bd5b14610046578063c6f324f71461005b578063fe62150514610063575b600080fd5b6100596100543660046104b5565b610076565b005b6100596101fa565b6100596100713660046104ce565b6102cb565b61007e6102eb565b3361008881610374565b5060007f6751f7e27cecf86d7136f5749c224248cae80a39fafb59f8f6bf12c52816307c60008481526020919091526040808220805491516370a0823160e01b8152306004820152909350620100009091046001600160a01b0316906370a0823190602401602060405180830381865afa15801561010a573d6000803e3d6000fd5b505050506040513d601f19601f8201168201806040525081019061012e91906104fe565b825460405163a9059cbb60e01b815233600482015260248101839052919250600091620100009091046001600160a01b03169063a9059cbb906044016020604051808303816000875af1158015610189573d6000803e3d6000fd5b505050506040513d601f19601f820116820180604052508101906101ad9190610517565b9050806101f35760405162461bcd60e51b815260206004820152600f60248201526e151c985b9cd9995c8819985a5b1959608a1b60448201526064015b60405180910390fd5b5050505050565b6102026102eb565b3361020c81610374565b506040514790600090339083908381818185875af1925050503d8060008114610251576040519150601f19603f3d011682016040523d82523d6000602084013e610256565b606091505b50509050806102995760405162461bcd60e51b815260206004820152600f60248201526e15da5d1a191c985dc819985a5b1959608a1b60448201526064016101ea565b604051339083907f3dacea426b49f4fd83b0402751e05a063171fd1d13decb101e329b18b59ad39b90600090a3505050565b6102d36102eb565b336102dd81610374565b506102e7826103fc565b5050565b7fc8fcad8db84d3cc18b4c41d551ea0ee66dd599cde068d998e57d5e09332c131c600401546001600160a01b031633146103725760405162461bcd60e51b815260206004820152602260248201527f4c69624469616d6f6e643a204d75737420626520636f6e7472616374206f776e60448201526132b960f11b60648201526084016101ea565b565b7f4efa3dfb8278a6c13676dce2b971b4769b8326f4544abbc9c2a7223e05d7b9c1805460009190825b818110156103f157846001600160a01b03168360000182815481106103c4576103c4610539565b6000918252602090912001546001600160a01b0316036103e957506001949350505050565b60010161039d565b506000949350505050565b6001600160a01b0381166104445760405162461bcd60e51b815260206004820152600f60248201526e496e76616c6964206164647265737360881b60448201526064016101ea565b7f4efa3dfb8278a6c13676dce2b971b4769b8326f4544abbc9c2a7223e05d7b9c180546001810182556000919091527f32fe72c073e511a3396253bbc1c888f0e5dd0082c29c33ce53ca95608d675af20180546001600160a01b0319166001600160a01b0392909216919091179055565b6000602082840312156104c757600080fd5b5035919050565b6000602082840312156104e057600080fd5b81356001600160a01b03811681146104f757600080fd5b9392505050565b60006020828403121561051057600080fd5b5051919050565b60006020828403121561052957600080fd5b815180151581146104f757600080fd5b634e487b7160e01b600052603260045260246000fdfea264697066735822122002c5b888ea4c150b038125610a5c194082ac67cca9c0b2048494d3266aa118b264736f6c63430008120033",
  "devdoc": {
    "kind": "dev",
    "methods": {},
    "version": 1
  },
  "userdoc": {
    "kind": "user",
    "methods": {},
    "version": 1
  },
  "storageLayout": {
    "storage": [],
    "types": null
  }
}