{
  "address": "0x8Bbf9FF3D61A23643005F49D1704cB588bcf9721",
  "abi": [
    {
      "inputs": [],
      "name": "FunctionInvalidAtThisState",
      "type": "error"
    },
    {
      "anonymous": false,
      "inputs": [
        {
          "indexed": true,
          "internalType": "uint256",
          "name": "termId",
          "type": "uint256"
        },
        {
          "indexed": true,
          "internalType": "address",
          "name": "user",
          "type": "address"
        },
        {
          "indexed": true,
          "internalType": "uint256",
          "name": "amount",
          "type": "uint256"
        }
      ],
      "name": "OnCollateralLiquidated",
      "type": "event"
    },
    {
      "anonymous": false,
      "inputs": [
        {
          "indexed": true,
          "internalType": "uint256",
          "name": "termId",
          "type": "uint256"
        },
        {
          "indexed": true,
          "internalType": "enum LibCollateralV2.CollateralStates",
          "name": "oldState",
          "type": "uint8"
        },
        {
          "indexed": true,
          "internalType": "enum LibCollateralV2.CollateralStates",
          "name": "newState",
          "type": "uint8"
        }
      ],
      "name": "OnCollateralStateChanged",
      "type": "event"
    },
    {
      "anonymous": false,
      "inputs": [
        {
          "indexed": true,
          "internalType": "uint256",
          "name": "termId",
          "type": "uint256"
        },
        {
          "indexed": true,
          "internalType": "address",
          "name": "user",
          "type": "address"
        },
        {
          "indexed": true,
          "internalType": "uint256",
          "name": "amount",
          "type": "uint256"
        }
      ],
      "name": "OnCollateralWithdrawal",
      "type": "event"
    },
    {
      "anonymous": false,
      "inputs": [
        {
          "indexed": true,
          "internalType": "uint256",
          "name": "termId",
          "type": "uint256"
        },
        {
          "indexed": true,
          "internalType": "address",
          "name": "user",
          "type": "address"
        },
        {
          "indexed": true,
          "internalType": "uint256",
          "name": "amount",
          "type": "uint256"
        }
      ],
      "name": "OnFrozenMoneyPotLiquidated",
      "type": "event"
    },
    {
      "anonymous": false,
      "inputs": [
        {
          "indexed": true,
          "internalType": "address",
          "name": "previousTermOwner",
          "type": "address"
        },
        {
          "indexed": true,
          "internalType": "address",
          "name": "newTermOwner",
          "type": "address"
        }
      ],
      "name": "TermOwnershipTransferred",
      "type": "event"
    },
    {
      "inputs": [
        {
          "internalType": "uint256",
          "name": "termId",
          "type": "uint256"
        }
      ],
      "name": "emptyCollateralAfterEnd",
      "outputs": [],
      "stateMutability": "nonpayable",
      "type": "function"
    },
    {
      "inputs": [
        {
          "internalType": "uint256",
          "name": "termId",
          "type": "uint256"
        },
        {
          "internalType": "address",
          "name": "member",
          "type": "address"
        }
      ],
      "name": "isUnderCollaterized",
      "outputs": [
        {
          "internalType": "bool",
          "name": "",
          "type": "bool"
        }
      ],
      "stateMutability": "view",
      "type": "function"
    },
    {
      "inputs": [
        {
          "internalType": "uint256",
          "name": "termId",
          "type": "uint256"
        }
      ],
      "name": "releaseCollateral",
      "outputs": [],
      "stateMutability": "nonpayable",
      "type": "function"
    },
    {
      "inputs": [
        {
          "components": [
            {
              "internalType": "bool",
              "name": "initialized",
              "type": "bool"
            },
            {
              "internalType": "bool",
              "name": "expired",
              "type": "bool"
            },
            {
              "internalType": "address",
              "name": "termOwner",
              "type": "address"
            },
            {
              "internalType": "uint256",
              "name": "creationTime",
              "type": "uint256"
            },
            {
              "internalType": "uint256",
              "name": "termId",
              "type": "uint256"
            },
            {
              "internalType": "uint256",
              "name": "registrationPeriod",
              "type": "uint256"
            },
            {
              "internalType": "uint256",
              "name": "totalParticipants",
              "type": "uint256"
            },
            {
              "internalType": "uint256",
              "name": "cycleTime",
              "type": "uint256"
            },
            {
              "internalType": "uint256",
              "name": "contributionAmount",
              "type": "uint256"
            },
            {
              "internalType": "uint256",
              "name": "contributionPeriod",
              "type": "uint256"
            },
            {
              "internalType": "address",
              "name": "stableTokenAddress",
              "type": "address"
            }
          ],
          "internalType": "struct LibTermV2.Term",
          "name": "term",
          "type": "tuple"
        },
        {
          "internalType": "address[]",
          "name": "defaulters",
          "type": "address[]"
        }
      ],
      "name": "requestContribution",
      "outputs": [
        {
          "internalType": "address[]",
          "name": "",
          "type": "address[]"
        }
      ],
      "stateMutability": "nonpayable",
      "type": "function"
    },
    {
      "inputs": [
        {
          "internalType": "uint256",
          "name": "termId",
          "type": "uint256"
        },
        {
          "internalType": "enum LibCollateralV2.CollateralStates",
          "name": "newState",
          "type": "uint8"
        }
      ],
      "name": "setStateOwner",
      "outputs": [],
      "stateMutability": "nonpayable",
      "type": "function"
    },
    {
      "inputs": [
        {
          "internalType": "uint256",
          "name": "termId",
          "type": "uint256"
        }
      ],
      "name": "withdrawCollateral",
      "outputs": [],
      "stateMutability": "nonpayable",
      "type": "function"
    },
    {
      "inputs": [
        {
          "internalType": "uint256",
          "name": "termId",
          "type": "uint256"
        },
        {
          "internalType": "address",
          "name": "depositor",
          "type": "address"
        }
      ],
      "name": "withdrawReimbursement",
      "outputs": [],
      "stateMutability": "nonpayable",
      "type": "function"
    }
  ],
  "transactionHash": "0x49b64cf1594f9e4115830a52c34788d6ff78447b3ca22458b213a2db338dcb67",
  "args": [],
  "numDeployments": 1,
  "solcInputHash": "7fd8a3dd9f976d40ffd25cccf6b1d82b",
  "bytecode": "0x608060405234801561001057600080fd5b50612676806100206000396000f3fe608060405234801561001057600080fd5b506004361061007d5760003560e01c8063ae483d071161005b578063ae483d07146100bd578063c177f091146100d0578063c3bfb61c146100f8578063cb9c63f81461010b57600080fd5b806302c1ed1f1461008257806339007b77146100975780636112fe2e146100aa575b600080fd5b6100956100903660046120d3565b61012b565b005b6100956100a5366004612107565b610139565b6100956100b8366004612107565b6101bc565b6100956100cb366004612145565b6106dd565b6100e36100de366004612145565b610882565b60405190151581526020015b60405180910390f35b610095610106366004612107565b610897565b61011e610119366004612208565b610abd565b6040516100ef91906122f6565b6101358282610c6c565b5050565b6000818152600080516020612601833981519152602052604090208054600490610100900460ff168181111561017157610171612343565b146101b15760405162461bcd60e51b815260206004820152600b60248201526a57726f6e6720737461746560a81b60448201526064015b60405180910390fd5b610135826002610c6c565b8060026101c98282610d09565b60008381526000805160206126218339815191526020908152604080832060008051602061260183398151915283528184207f87101b21d556417ad2b8e8f2700dbad90721d5d50a1f435f2dee0b9dc981ac8a84528285206000805160206125e183398151915285528386203387526007830190955292909420549093929060ff166102975760405162461bcd60e51b815260206004820152601c60248201527f596f752068617665206e6f7420706169642074686973206379636c650000000060448201526064016101a8565b60038354610100900460ff1660048111156102b4576102b4612343565b146102ef5760405162461bcd60e51b815260206004820152600b60248201526a57726f6e6720737461746560a81b60448201526064016101a8565b3360009081526007850160205260408082205490516362f02abd60e01b8152600481018a905290919030906362f02abd90602401602060405180830381865afa158015610340573d6000803e3d6000fd5b505050506040513d601f19601f820116820180604052508101906103649190612359565b60405163f0d826e760e01b8152600481018b9052909150600090309063f0d826e790602401602060405180830381865afa1580156103a6573d6000803e3d6000fd5b505050506040513d601f19601f820116820180604052508101906103ca9190612359565b90506000306001600160a01b0316639e195b408760060154670de0b6b3a76400006103f59190612388565b6040518263ffffffff1660e01b815260040161041391815260200190565b602060405180830381865afa158015610430573d6000803e3d6000fd5b505050506040513d601f19601f820116820180604052508101906104549190612359565b905060008184610464858861239f565b61046e91906123b2565b61047891906123d4565b33600090815260068b01602052604090205490915081116105205761049f8c338389610d74565b33600090815260068a016020526040812080548392906104c090849061239f565b9091555050604051600090339083908381818185875af1925050503d8060008114610507576040519150601f19603f3d011682016040523d82523d6000602084013e61050c565b606091505b505090508061051a57600080fd5b506106cf565b33600090815260068a01602052604081205461053c908361239f565b33600090815260058c0160205260409020549091508111610609576105638d33848a610d74565b33600090815260068b01602052604081208054829061058390829061239f565b909155505033600090815260058b016020526040812080548392906105a990849061239f565b9091555050604051600090339084908381818185875af1925050503d80600081146105f0576040519150601f19603f3d011682016040523d82523d6000602084013e6105f5565b606091505b505090508061060357600080fd5b506106cd565b33600090815260068b01602090815260408083205460058e0190925282205461063291906123d4565b90506106408e33838b610d74565b33600081815260058d016020908152604080832083905560068f019091528082208290555190919083908381818185875af1925050503d80600081146106a2576040519150601f19603f3d011682016040523d82523d6000602084013e6106a7565b606091505b50509050806106b557600080fd5b8b600201600081546106c6906123e7565b9091555050505b505b505050505050505050505050565b6000828152600080516020612601833981519152602052604090205460ff1661073f5760405162461bcd60e51b815260206004820152601460248201527346756e6420646f6573206e6f742065786973747360601b60448201526064016101a8565b6000828152600080516020612621833981519152602090815260408083206000805160206125e183398151915283528184206001600160a01b038616855260068201909352922054806107c75760405162461bcd60e51b815260206004820152601060248201526f4e6f7468696e6720746f20636c61696d60801b60448201526064016101a8565b6107d385338385610d74565b6001600160a01b03841660008181526006850160205260408082208290555190919083908381818185875af1925050503d806000811461082f576040519150601f19603f3d011682016040523d82523d6000602084013e610834565b606091505b505090508061084257600080fd5b81856001600160a01b0316877fd94b416f75aca5d5e5c7e359e58fa21ccbdbb8a6036f8af786e3e2ab7ceb37be60405160405180910390a4505050505050565b600061088e8383610e05565b90505b92915050565b806108a181610f4b565b8160026108ae8282610d09565b600060008051602061262183398151915260008681526020919091526040812091506000805160206125e1833981519152600087815260209190915260408082209051636b95dc3f60e11b815260048101899052909250309063d72bb87e90602401600060405180830381865afa15801561092d573d6000803e3d6000fd5b505050506040513d6000823e601f3d908101601f1916820160405261095591908101906123fe565b5050955050505050508062ed4e0061096d91906123d4565b42116109ad5760405162461bcd60e51b815260206004820152600f60248201526e10d85b89dd08195b5c1d1e481e595d608a1b60448201526064016101a8565b600383015460005b81811015610a515760008560030182815481106109d4576109d4612531565b60009182526020808320909101546001600160a01b031680835260068901825260408084205460058b01909352832054909350610a1191906123d4565b9050610a1f8b838389610d74565b506001600160a01b031660009081526005860160209081526040808320839055600688019091528120556001016109b5565b50610a5d886003610c6c565b604051600090339047908381818185875af1925050503d8060008114610a9f576040519150601f19603f3d011682016040523d82523d6000602084013e610aa4565b606091505b5050905080610ab257600080fd5b505050505050505050565b606083608001516001610ad08282610d09565b60006000805160206126218339815191526080880151600090815260209190915260408120915060008051602061260183398151915260000160008960800151815260200190815260200160002090506000806000610b64858c868d8d80806020026020016040519081016040528093929190818152602001838360200280828437600092019190915250610fe592505050565b925092509250600080610b77878e611a40565b90925090508115610c5b57610b8c82866123b2565b9450610b9882856123b2565b935060005b82811015610c595785886006016000848481518110610bbe57610bbe612531565b60200260200101516001600160a01b03166001600160a01b031681526020019081526020016000206000828254610bf591906123d4565b9250508190555084876009016000848481518110610c1557610c15612531565b60200260200101516001600160a01b03166001600160a01b031681526020019081526020016000206000828254610c4c91906123d4565b9091555050600101610b9d565b505b50909b9a5050505050505050505050565b600082815260008051602061262183398151915260205260409020805461010080820460ff16918491849161ff00191690836003811115610caf57610caf612343565b0217905550826003811115610cc657610cc6612343565b816003811115610cd857610cd8612343565b60405186907ffe918112a2fca8c18cc609a5d585d9fc8448267cb7b9d6c19a445fe5c0c199c890600090a450505050565b60008281526000805160206126218339815191526020526040902054610100900460ff16816003811115610d3f57610d3f612343565b816003811115610d5157610d51612343565b14610d6f5760405163201328a760e01b815260040160405180910390fd5b505050565b6001600160a01b038316600090815260078201602052604090205460ff1615610dff57604051631d18d6fd60e21b8152600481018590526001600160a01b03841660248201526044810183905230906374635bf490606401600060405180830381600087803b158015610de657600080fd5b505af1158015610dfa573d6000803e3d6000fd5b505050505b50505050565b6000828152600080516020612621833981519152602090815260408083206001600160a01b0385168452600581019092528220548290610e61866000908152600080516020612601833981519152602052604090205460ff1690565b610edf5760405163bb91b76d60e01b81526001600160a01b038616600482015260248101879052309063bb91b76d90604401608060405180830381865afa158015610eb0573d6000803e3d6000fd5b505050506040513d601f19601f82011682018060405250810190610ed49190612547565b9450610f4292505050565b60405163f0d826e760e01b815260048101879052309063f0d826e790602401602060405180830381865afa158015610f1b573d6000803e3d6000fd5b505050506040513d601f19601f82011682018060405250810190610f3f9190612359565b91505b10949350505050565b60008181527f87101b21d556417ad2b8e8f2700dbad90721d5d50a1f435f2dee0b9dc981ac8a60205260409020546001600160a01b03610100909104163314610fe25760405162461bcd60e51b8152602060048201526024808201527f5465726d4f776e61626c653a2063616c6c6572206973206e6f7420746865206f6044820152633bb732b960e11b60648201526084016101a8565b50565b600080606080600080600080306001600160a01b0316639e195b408c6101000151670de0b6b3a76400006110199190612388565b6040518263ffffffff1660e01b815260040161103791815260200190565b602060405180830381865afa158015611054573d6000803e3d6000fd5b505050506040513d601f19601f820116820180604052508101906110789190612359565b905060005b8951811015611a2c578a60060160008b838151811061109e5761109e612531565b6020908102919091018101516001600160a01b031682528101919091526040016000205460ff161580156111125750818d60050160008c84815181106110e6576110e6612531565b60200260200101516001600160a01b03166001600160a01b031681526020019081526020016000205410155b8061118757508a60060160008b838151811061113057611130612531565b6020908102919091018101516001600160a01b031682528101919091526040016000205460ff16801561118757506111858c608001518b838151811061117857611178612531565b6020026020010151610e05565b155b8061128057508a60060160008b83815181106111a5576111a5612531565b6020908102919091018101516001600160a01b031682528101919091526040016000205460ff1680156111ed57506111ed8c608001518b838151811061117857611178612531565b801561123457508a600a0160008b838151811061120c5761120c612531565b6020908102919091018101516001600160a01b031682528101919091526040016000205460ff165b80156112805750818d60050160008c848151811061125457611254612531565b60200260200101516001600160a01b03166001600160a01b031681526020019081526020016000205410155b156112b0576112b08d8c8e8d858151811061129d5761129d612531565b6020026020010151866001600080611bbf565b8a60060160008b83815181106112c8576112c8612531565b6020908102919091018101516001600160a01b031682528101919091526040016000205460ff1615801561133b5750818d60050160008c848151811061131057611310612531565b60200260200101516001600160a01b03166001600160a01b0316815260200190815260200160002054105b806113e957508a60060160008b838151811061135957611359612531565b6020908102919091018101516001600160a01b031682528101919091526040016000205460ff1680156113a157506113a18c608001518b838151811061117857611178612531565b80156113e957508a600a0160008b83815181106113c0576113c0612531565b6020908102919091018101516001600160a01b031682528101919091526040016000205460ff16155b1561159a5761141a8d8c8e8d858151811061140657611406612531565b602002602001015186600160006001611bbf565b8a60060160008b838151811061143257611432612531565b6020908102919091018101516001600160a01b031682528101919091526040016000205460ff16156114b1578c60050160008b838151811061147657611476612531565b60200260200101516001600160a01b03166001600160a01b0316815260200190815260200160002054846114aa91906123d4565b9350611547565b8c60050160008b83815181106114c9576114c9612531565b60200260200101516001600160a01b03166001600160a01b03168152602001908152602001600020548d60060160008c848151811061150a5761150a612531565b60200260200101516001600160a01b03166001600160a01b03168152602001908152602001600020600082825461154191906123d4565b90915550505b89818151811061155957611559612531565b602002602001015186828151811061157357611573612531565b60200260200101906001600160a01b031690816001600160a01b0316815250508460010194505b8a60060160008b83815181106115b2576115b2612531565b6020908102919091018101516001600160a01b031682528101919091526040016000205460ff1680156115fa57506115fa8c608001518b838151811061117857611178612531565b801561164157508a600a0160008b838151811061161957611619612531565b6020908102919091018101516001600160a01b031682528101919091526040016000205460ff165b801561168c5750818d60050160008c848151811061166157611661612531565b60200260200101516001600160a01b03166001600160a01b0316815260200190815260200160002054105b15611a24578b61010001518b60090160008c84815181106116af576116af612531565b60200260200101516001600160a01b03166001600160a01b03168152602001908152602001600020541061170e576117098d8c8e8d85815181106116f5576116f5612531565b602002602001015186600060016000611bbf565b611a24565b6000306001600160a01b0316639e195b408d60090160008e868151811061173757611737612531565b60200260200101516001600160a01b03166001600160a01b0316815260200190815260200160002054670de0b6b3a76400006117739190612388565b6040518263ffffffff1660e01b815260040161179191815260200190565b602060405180830381865afa1580156117ae573d6000803e3d6000fd5b505050506040513d601f19601f820116820180604052508101906117d29190612359565b8e60050160008d85815181106117ea576117ea612531565b60200260200101516001600160a01b03166001600160a01b031681526020019081526020016000205461181d91906123d4565b60808e015160405163f0d826e760e01b8152919250309163f0d826e79161184a9160040190815260200190565b602060405180830381865afa158015611867573d6000803e3d6000fd5b505050506040513d601f19601f8201168201806040525081019061188b9190612359565b81106118c1576118bc8e8d8f8e86815181106118a9576118a9612531565b6020026020010151876001806000611bbf565b611a22565b6118ed8e8d8f8e86815181106118d9576118d9612531565b602002602001015187600160006001611bbf565b8d60050160008c848151811061190557611905612531565b60200260200101516001600160a01b03166001600160a01b03168152602001908152602001600020548561193991906123d4565b94508b60090160008c848151811061195357611953612531565b60200260200101516001600160a01b03166001600160a01b03168152602001908152602001600020548461198791906123d4565b935060008c60090160008d85815181106119a3576119a3612531565b60200260200101516001600160a01b03166001600160a01b03168152602001908152602001600020819055508a82815181106119e1576119e1612531565b60200260200101518783815181106119fb576119fb612531565b60200260200101906001600160a01b031690816001600160a01b0316815250508560010195505b505b60010161107d565b50919b909a50929850919650505050505050565b60006060600080856003018054905067ffffffffffffffff811115611a6757611a6761216a565b604051908082528060200260200182016040528015611a90578160200160208202803683370190505b506003870154909150600090815b81811015611bae57886003018181548110611abb57611abb612531565b600091825260209091200154608089015160405163074bc1f360e51b815260048101919091526001600160a01b03909116602482018190529550309063e9783e6090604401602060405180830381865afa158015611b1d573d6000803e3d6000fd5b505050506040513d601f19601f82011682018060405250810190611b419190612586565b158015611b6857506001600160a01b038516600090815260048a01602052604090205460ff165b15611ba65784848481518110611b8057611b80612531565b6001600160a01b039092166020928302919091019091015282611ba2816125aa565b9350505b600101611a9e565b5090945090925050505b9250929050565b60808601805160009081526000805160206125e183398151915260205260408082209251905163d8f8e99160e01b81526004810191909152309063d8f8e99190602401602060405180830381865afa158015611c1f573d6000803e3d6000fd5b505050506040513d601f19601f82011682018060405250810190611c4391906125c3565b9050848015611c50575083155b15611d675782611cce57611c6a8860800151888885610d74565b6001600160a01b038716600090815260058b01602052604081208054889290611c9490849061239f565b90915550506001600160a01b038116600090815260068b01602052604081208054889290611cc39084906123d4565b90915550611d2b9050565b60808801516001600160a01b038816600090815260058c016020526040902054611cfb9190899085610d74565b6001600160a01b038716600090815260048b0160209081526040808320805460ff1916905560058d019091528120555b608088015160405187916001600160a01b038a16917f10f8476f9a23ac06c638b35201072d11e362a5abe0247195ce64284bbe94ce9a90600090a45b838015611d72575084155b15611e22576101008801516001600160a01b038816600090815260098b01602052604081208054909190611da790849061239f565b90915550506101008801516001600160a01b038216600090815260098b01602052604081208054909190611ddc9084906123d4565b909155505061010088015160808901516040516001600160a01b038a1691907f9ecbf86544b133eb80eba635946daf018f997778387601f4c8d43c851b2ec07490600090a45b848015611e2c5750835b156120c75760808801516001600160a01b038816600090815260058c016020526040902054611e5e9190899085610d74565b6001600160a01b038716600090815260058b0160205260408120546101008a01513090639e195b4090611e9990670de0b6b3a7640000612388565b6040518263ffffffff1660e01b8152600401611eb791815260200190565b602060405180830381865afa158015611ed4573d6000803e3d6000fd5b505050506040513d601f19601f82011682018060405250810190611ef89190612359565b611f02919061239f565b604051632f878fa160e11b8152600481018290529091506000903090635f0f1f4290602401602060405180830381865afa158015611f44573d6000803e3d6000fd5b505050506040513d601f19601f82011682018060405250810190611f689190612359565b90508b60050160008a6001600160a01b03166001600160a01b03168152602001908152602001600020548c6006016000856001600160a01b03166001600160a01b031681526020019081526020016000206000828254611fc891906123d4565b90915550506001600160a01b03808a16600090815260058e0160209081526040808320839055928616825260098e019052908120805483929061200c9084906123d4565b90915550506001600160a01b038916600090815260098c0160205260408120805483929061203b90849061239f565b90915550506001600160a01b038916600081815260058e0160205260408082205460808e015191519093927f10f8476f9a23ac06c638b35201072d11e362a5abe0247195ce64284bbe94ce9a91a460808a015160405182916001600160a01b038c16917f9ecbf86544b133eb80eba635946daf018f997778387601f4c8d43c851b2ec07490600090a450505b50505050505050505050565b600080604083850312156120e657600080fd5b823591506020830135600481106120fc57600080fd5b809150509250929050565b60006020828403121561211957600080fd5b5035919050565b6001600160a01b0381168114610fe257600080fd5b803561214081612120565b919050565b6000806040838503121561215857600080fd5b8235915060208301356120fc81612120565b634e487b7160e01b600052604160045260246000fd5b604051610160810167ffffffffffffffff811182821017156121a4576121a461216a565b60405290565b8015158114610fe257600080fd5b8035612140816121aa565b60008083601f8401126121d557600080fd5b50813567ffffffffffffffff8111156121ed57600080fd5b6020830191508360208260051b8501011115611bb857600080fd5b600080600083850361018081121561221f57600080fd5b6101608082121561222f57600080fd5b612237612180565b9150612242866121b8565b8252612250602087016121b8565b602083015261226160408701612135565b6040830152606086013560608301526080860135608083015260a086013560a083015260c086013560c083015260e086013560e08301526101008087013581840152506101208087013581840152506101406122be818801612135565b9083015290935084013567ffffffffffffffff8111156122dd57600080fd5b6122e9868287016121c3565b9497909650939450505050565b6020808252825182820181905260009190848201906040850190845b818110156123375783516001600160a01b031683529284019291840191600101612312565b50909695505050505050565b634e487b7160e01b600052602160045260246000fd5b60006020828403121561236b57600080fd5b5051919050565b634e487b7160e01b600052601160045260246000fd5b808202811582820484141761089157610891612372565b8181038181111561089157610891612372565b6000826123cf57634e487b7160e01b600052601260045260246000fd5b500490565b8082018082111561089157610891612372565b6000816123f6576123f6612372565b506000190190565b600080600080600080600080610100898b03121561241b57600080fd5b8851612426816121aa565b809850506020808a01516005811061243d57600080fd5b60408b015190985061244e81612120565b60608b015190975067ffffffffffffffff8082111561246c57600080fd5b818c0191508c601f83011261248057600080fd5b8151818111156124925761249261216a565b8060051b604051601f19603f830116810181811085821117156124b7576124b761216a565b60405291825284820192508381018501918f8311156124d557600080fd5b938501935b828510156124ff57845191506124ef82612120565b81845293850193928501926124da565b809a505050505050506080890151935060a0890151925060c0890151915060e089015190509295985092959890939650565b634e487b7160e01b600052603260045260246000fd5b6000806000806080858703121561255d57600080fd5b8451612568816121aa565b60208601516040870151606090970151919890975090945092505050565b60006020828403121561259857600080fd5b81516125a3816121aa565b9392505050565b6000600182016125bc576125bc612372565b5060010190565b6000602082840312156125d557600080fd5b81516125a38161212056fe29d9cba46c358ba7c1b8945751229339792c7c62e3197c240fa98916e75ffbf96751f7e27cecf86d7136f5749c224248cae80a39fafb59f8f6bf12c52816307c35fa70a6f9ae8a4d427ebe0c1be62ffd2870fecc1df41c6fda0bf5803e562888a2646970667358221220fbea34ddc3be660edeb1223c88462f4c6b8c28027ffd0f2eada3218ccac0b1d864736f6c63430008120033",
  "devdoc": {
    "author": "Aisha El Allam",
    "details": "v3.0 (Diamond)",
    "kind": "dev",
    "methods": {
      "emptyCollateralAfterEnd(uint256)": {
        "params": {
          "termId": "The term id"
        }
      },
      "isUnderCollaterized(uint256,address)": {
        "details": "This will revert if called during ReleasingCollateral or after",
        "params": {
          "member": "The user to check for",
          "termId": "The term id"
        },
        "returns": {
          "_0": "Bool check if member is below 1.0x of collateralDeposit"
        }
      },
      "releaseCollateral(uint256)": {
        "params": {
          "termId": "term id"
        }
      },
      "requestContribution((bool,bool,address,uint256,uint256,uint256,uint256,uint256,uint256,uint256,address),address[])": {
        "details": "Check EnumerableMap (openzeppelin) for arrays that are being accessed from Fund contract",
        "params": {
          "defaulters": "Address that was randomly selected for the current cycle"
        },
        "returns": {
          "_0": "expellants array of addresses that were expelled"
        }
      },
      "setStateOwner(uint256,uint8)": {
        "params": {
          "newState": "collateral state",
          "termId": "term id"
        }
      },
      "withdrawCollateral(uint256)": {
        "details": "This follows the pull-over-push pattern.",
        "params": {
          "termId": "term id"
        }
      },
      "withdrawReimbursement(uint256,address)": {
        "params": {
          "depositor": "Address of the depositor",
          "termId": "term id"
        }
      }
    },
    "title": "Takaturn Collateral",
    "version": 1
  },
  "userdoc": {
    "kind": "user",
    "methods": {
      "emptyCollateralAfterEnd(uint256)": {
        "notice": "allow the owner to empty the Collateral after 180 days"
      },
      "isUnderCollaterized(uint256,address)": {
        "notice": "Checks if a user has a collateral below 1.0x of total contribution amount"
      },
      "requestContribution((bool,bool,address,uint256,uint256,uint256,uint256,uint256,uint256,uint256,address),address[])": {
        "notice": "Called from Fund contract when someone defaults"
      },
      "withdrawCollateral(uint256)": {
        "notice": "Called by each member after the end of the cycle to withraw collateral"
      }
    },
    "notice": "This is used to operate the Takaturn collateral",
    "version": 1
  },
  "storageLayout": {
    "storage": [],
    "types": null
  }
}