{
  "address": "0x66EA75011C3239bf769347C9C23DfA86439aB20b",
  "abi": [
    {
      "inputs": [],
      "name": "FunctionInvalidAtThisState",
      "type": "error"
    },
    {
      "anonymous": false,
      "inputs": [
        {
          "indexed": true,
          "internalType": "uint256",
          "name": "termId",
          "type": "uint256"
        },
        {
          "indexed": true,
          "internalType": "address",
          "name": "user",
          "type": "address"
        },
        {
          "indexed": true,
          "internalType": "uint256",
          "name": "amount",
          "type": "uint256"
        }
      ],
      "name": "OnCollateralLiquidated",
      "type": "event"
    },
    {
      "anonymous": false,
      "inputs": [
        {
          "indexed": true,
          "internalType": "uint256",
          "name": "termId",
          "type": "uint256"
        },
        {
          "indexed": true,
          "internalType": "enum LibCollateralV2.CollateralStates",
          "name": "oldState",
          "type": "uint8"
        },
        {
          "indexed": true,
          "internalType": "enum LibCollateralV2.CollateralStates",
          "name": "newState",
          "type": "uint8"
        }
      ],
      "name": "OnCollateralStateChanged",
      "type": "event"
    },
    {
      "anonymous": false,
      "inputs": [
        {
          "indexed": true,
          "internalType": "uint256",
          "name": "termId",
          "type": "uint256"
        },
        {
          "indexed": true,
          "internalType": "address",
          "name": "user",
          "type": "address"
        },
        {
          "indexed": true,
          "internalType": "uint256",
          "name": "amount",
          "type": "uint256"
        }
      ],
      "name": "OnCollateralWithdrawn",
      "type": "event"
    },
    {
      "anonymous": false,
      "inputs": [
        {
          "indexed": true,
          "internalType": "uint256",
          "name": "termId",
          "type": "uint256"
        },
        {
          "indexed": true,
          "internalType": "address",
          "name": "user",
          "type": "address"
        },
        {
          "indexed": true,
          "internalType": "uint256",
          "name": "amount",
          "type": "uint256"
        }
      ],
      "name": "OnReimbursementWithdrawn",
      "type": "event"
    },
    {
      "anonymous": false,
      "inputs": [
        {
          "indexed": true,
          "internalType": "address",
          "name": "previousTermOwner",
          "type": "address"
        },
        {
          "indexed": true,
          "internalType": "address",
          "name": "newTermOwner",
          "type": "address"
        }
      ],
      "name": "TermOwnershipTransferred",
      "type": "event"
    },
    {
      "inputs": [
        {
          "internalType": "uint256",
          "name": "id",
          "type": "uint256"
        }
      ],
      "name": "emptyCollateralAfterEnd",
      "outputs": [],
      "stateMutability": "nonpayable",
      "type": "function"
    },
    {
      "inputs": [
        {
          "internalType": "uint256",
          "name": "id",
          "type": "uint256"
        },
        {
          "internalType": "address",
          "name": "member",
          "type": "address"
        }
      ],
      "name": "isUnderCollaterized",
      "outputs": [
        {
          "internalType": "bool",
          "name": "",
          "type": "bool"
        }
      ],
      "stateMutability": "view",
      "type": "function"
    },
    {
      "inputs": [
        {
          "internalType": "uint256",
          "name": "id",
          "type": "uint256"
        }
      ],
      "name": "releaseCollateral",
      "outputs": [],
      "stateMutability": "nonpayable",
      "type": "function"
    },
    {
      "inputs": [
        {
          "internalType": "uint256",
          "name": "id",
          "type": "uint256"
        },
        {
          "internalType": "address",
          "name": "beneficiary",
          "type": "address"
        },
        {
          "internalType": "address[]",
          "name": "defaulters",
          "type": "address[]"
        }
      ],
      "name": "requestContribution",
      "outputs": [
        {
          "internalType": "address[]",
          "name": "",
          "type": "address[]"
        }
      ],
      "stateMutability": "nonpayable",
      "type": "function"
    },
    {
      "inputs": [
        {
          "internalType": "uint256",
          "name": "id",
          "type": "uint256"
        },
        {
          "internalType": "enum LibCollateralV2.CollateralStates",
          "name": "newState",
          "type": "uint8"
        }
      ],
      "name": "setStateOwner",
      "outputs": [],
      "stateMutability": "nonpayable",
      "type": "function"
    },
    {
      "inputs": [
        {
          "internalType": "uint256",
          "name": "id",
          "type": "uint256"
        }
      ],
      "name": "withdrawCollateral",
      "outputs": [],
      "stateMutability": "nonpayable",
      "type": "function"
    },
    {
      "inputs": [
        {
          "internalType": "uint256",
          "name": "id",
          "type": "uint256"
        },
        {
          "internalType": "address",
          "name": "depositor",
          "type": "address"
        }
      ],
      "name": "withdrawReimbursement",
      "outputs": [],
      "stateMutability": "nonpayable",
      "type": "function"
    }
  ],
  "transactionHash": "0x1fe68f9fd83fa50d3ac1c14502a58db214b24af4ab783df69f07ded1cdff6b3e",
  "args": [],
  "numDeployments": 1,
  "solcInputHash": "fcf3f5ced1f3d5f96be9fe2a13cdc034",
  "bytecode": "0x608060405234801561001057600080fd5b50611cc3806100206000396000f3fe608060405234801561001057600080fd5b506004361061007d5760003560e01c8063ae483d071161005b578063ae483d07146100bd578063c177f091146100d0578063c3bfb61c146100f8578063e27c3ca21461010b57600080fd5b806302c1ed1f1461008257806339007b77146100975780636112fe2e146100aa575b600080fd5b6100956100903660046117f4565b61012b565b005b6100956100a5366004611828565b610139565b6100956100b8366004611828565b610198565b6100956100cb366004611856565b610632565b6100e36100de366004611856565b6107a2565b60405190151581526020015b60405180910390f35b610095610106366004611828565b6107b7565b61011e61011936600461187b565b6109d5565b6040516100ef9190611907565b6101358282610b5c565b5050565b61014281610bf9565b61018a5760405162461bcd60e51b815260206004820152601460248201527346756e6420646f6573206e6f742065786973747360601b60448201526064015b60405180910390fd5b610195816002610b5c565b50565b6000818152600080516020611c6e83398151915260205260409020548190600290610100900460ff16818160038111156101d4576101d4611954565b146101f25760405163201328a760e01b815260040160405180910390fd5b6000848152600080516020611c6e833981519152602090815260408083207f6751f7e27cecf86d7136f5749c224248cae80a39fafb59f8f6bf12c52816307c8352818420600080516020611c4e833981519152845282852033865260078201909452919093205490919060ff166102ab5760405162461bcd60e51b815260206004820152601c60248201527f596f752068617665206e6f7420706169642074686973206379636c65000000006044820152606401610181565b60038254610100900460ff1660048111156102c8576102c8611954565b146103035760405162461bcd60e51b815260206004820152600b60248201526a57726f6e6720737461746560a81b6044820152606401610181565b600082600401548360120154600161031b9190611980565b6103259190611993565b90506000306001600160a01b0316639e195b408460050154670de0b6b3a764000061035091906119a6565b6040518263ffffffff1660e01b815260040161036e91815260200190565b602060405180830381865afa15801561038b573d6000803e3d6000fd5b505050506040513d601f19601f820116820180604052508101906103af91906119bd565b905060006103bd83836119a6565b33600090815260078801602052604081205491925083856103de8585611993565b6103e891906119d6565b6103f29190611980565b33600090815260068a016020526040902054909150811161048e573360009081526006890160205260408120805483929061042e908490611993565b9091555050604051600090339083908381818185875af1925050503d8060008114610475576040519150601f19603f3d011682016040523d82523d6000602084013e61047a565b606091505b505090508061048857600080fd5b50610624565b3360009081526006890160205260408120546104aa9083611993565b33600090815260058b016020526040902054909150811161056b5733600090815260068a0160205260408120805482906104e5908290611993565b909155505033600090815260058a0160205260408120805483929061050b908490611993565b9091555050604051600090339084908381818185875af1925050503d8060008114610552576040519150601f19603f3d011682016040523d82523d6000602084013e610557565b606091505b505090508061056557600080fd5b50610622565b33600090815260068a01602090815260408083205460058d019092528220546105949190611980565b33600081815260058d016020908152604080832083905560068f01909152808220829055519293509183908381818185875af1925050503d80600081146105f7576040519150601f19603f3d011682016040523d82523d6000602084013e6105fc565b606091505b505090508061060a57600080fd5b8a6002016000815461061b906119f8565b9091555050505b505b505050505050505050505050565b6000828152600080516020611c6e8339815191526020526040902061065683610bf9565b6106995760405162461bcd60e51b815260206004820152601460248201527346756e6420646f6573206e6f742065786973747360601b6044820152606401610181565b6001600160a01b0382166000908152600682016020526040902054806106f45760405162461bcd60e51b815260206004820152601060248201526f4e6f7468696e6720746f20636c61696d60801b6044820152606401610181565b6001600160a01b03831660008181526006840160205260408082208290555190919083908381818185875af1925050503d8060008114610750576040519150601f19603f3d011682016040523d82523d6000602084013e610755565b606091505b505090508061076357600080fd5b81846001600160a01b0316867f1d8d3d09e68fe1873369af18c4d7d361038dac92ac768b54ac19273dbd4cb6b860405160405180910390a45050505050565b60006107ae8383610c2d565b90505b92915050565b806107c181610e32565b6000828152600080516020611c6e83398151915260205260409020548290600290610100900460ff16818160038111156107fd576107fd611954565b1461081b5760405163201328a760e01b815260040160405180910390fd5b6000600080516020611c6e833981519152600087815260209190915260408082209051636b95dc3f60e11b815260048101899052909250309063d72bb87e90602401600060405180830381865afa15801561087a573d6000803e3d6000fd5b505050506040513d6000823e601f3d908101601f191682016040526108a29190810190611a45565b505050955050505050508062ed4e006108bb9190611980565b42116108fb5760405162461bcd60e51b815260206004820152600f60248201526e10d85b89dd08195b5c1d1e481e595d608a1b6044820152606401610181565b600382015460005b8181101561096957600084600301828154811061092257610922611b83565b60009182526020808320909101546001600160a01b03168252600587018152604080832083905560068801909152812055506001018061096181611b99565b915050610903565b50610975886003610b5c565b604051600090339047908381818185875af1925050503d80600081146109b7576040519150601f19603f3d011682016040523d82523d6000602084013e6109bc565b606091505b50509050806109ca57600080fd5b505050505050505050565b6000848152600080516020611c6e83398151915260205260409020546060908590600190610100900460ff1681816003811115610a1457610a14611954565b14610a325760405163201328a760e01b815260040160405180910390fd5b6000888152600080516020611c6e83398151915260209081526040808320600080516020611c4e83398151915283528184207f6751f7e27cecf86d7136f5749c224248cae80a39fafb59f8f6bf12c52816307c9093529083209092610a9a82858d8d8d610eb7565b9050600080610aab86868f866111b1565b91509150600080610abc8888611677565b90925090508115610b4857610ad182856119d6565b935060005b82811015610b465784896006016000848481518110610af757610af7611b83565b60200260200101516001600160a01b03166001600160a01b031681526020019081526020016000206000828254610b2e9190611980565b90915550819050610b3e81611b99565b915050610ad6565b505b50909e9d5050505050505050505050505050565b6000828152600080516020611c6e83398151915260205260409020805461010080820460ff16918491849161ff00191690836003811115610b9f57610b9f611954565b0217905550826003811115610bb657610bb6611954565b816003811115610bc857610bc8611954565b60405186907ffe918112a2fca8c18cc609a5d585d9fc8448267cb7b9d6c19a445fe5c0c199c890600090a450505050565b60009081527f6751f7e27cecf86d7136f5749c224248cae80a39fafb59f8f6bf12c52816307c602052604090205460ff1690565b6000828152600080516020611c6e83398151915260209081526040808320600080516020611c4e8339815191529092528083208151636b95dc3f60e11b815260048101879052915190918491829182918291309163d72bb87e9160248082019286929091908290030181865afa158015610cab573d6000803e3d6000fd5b505050506040513d6000823e601f3d908101601f19168201604052610cd39190810190611a45565b9850509750505050505050610ce789610bf9565b610d655760405163bb91b76d60e01b81526001600160a01b0389166004820152602481018a9052309063bb91b76d90604401608060405180830381865afa158015610d36573d6000803e3d6000fd5b505050506040513d601f19601f82011682018060405250810190610d5a9190611bb2565b9650610da592505050565b600082610d73836001611980565b610d7d9190611993565b9050856005015481610d8f91906119a6565b610da190670de0b6b3a76400006119a6565b9450505b6001600160a01b038816600090815260058701602052604090819020549051632f878fa160e11b815260048101919091523090635f0f1f4290602401602060405180830381865afa158015610dfe573d6000803e3d6000fd5b505050506040513d601f19601f82011682018060405250810190610e2291906119bd565b9390931098975050505050505050565b6000818152600080516020611c4e83398151915260205260409020546001600160a01b036101009091041633146101955760405162461bcd60e51b8152602060048201526024808201527f5465726d4f776e61626c653a2063616c6c6572206973206e6f7420746865206f6044820152633bb732b960e11b6064820152608401610181565b606060008267ffffffffffffffff811115610ed457610ed4611a24565b604051908082528060200260200182016040528015610efd578160200160208202803683370190505b509050600087600101805480602002602001604051908101604052809291908181526020018280548015610f5a57602002820191906000526020600020905b81546001600160a01b03168152600190910190602001808311610f3c575b505083516001600160a01b038b16600090815260058e016020526040812054959650909489945090925060ff161590508015610fb157506001600160a01b038916600090815260048b01602052604090205460ff16155b905080156110ec5760005b838110156110e6578b6006016000868381518110610fdc57610fdc611b83565b6020908102919091018101516001600160a01b031682528101919091526040016000205460ff16156110e65760005b838110156110d55789898281811061102557611025611b83565b905060200201602081019061103a9190611bef565b6001600160a01b031686838151811061105557611055611b83565b60200260200101516001600160a01b0316036110c55789898281811061107d5761107d611b83565b90506020020160208101906110929190611bef565b8783815181106110a4576110a4611b83565b60200260200101906001600160a01b031690816001600160a01b0316815250505b6110ce81611b99565b905061100b565b506110df81611b99565b9050610fbc565b506111a2565b60005b828110156111a057896001600160a01b031689898381811061111357611113611b83565b90506020020160208101906111289190611bef565b6001600160a01b0316146111905788888281811061114857611148611b83565b905060200201602081019061115d9190611bef565b86828151811061116f5761116f611b83565b60200260200101906001600160a01b031690816001600160a01b0316815250505b61119981611b99565b90506110ef565b505b50929998505050505050505050565b600060606000806000855167ffffffffffffffff8111156111d4576111d4611a24565b6040519080825280602002602001820160405280156111fd578160200160208202803683370190505b5090506000806000306001600160a01b0316639e195b408c60050154670de0b6b3a764000061122c91906119a6565b6040518263ffffffff1660e01b815260040161124a91815260200190565b602060405180830381865afa158015611267573d6000803e3d6000fd5b505050506040513d601f19601f8201168201806040525081019061128b91906119bd565b905060005b895181101561164b57306001600160a01b031663e9783e608d600201548c84815181106112bf576112bf611b83565b60200260200101516040518363ffffffff1660e01b81526004016112f69291909182526001600160a01b0316602082015260400190565b602060405180830381865afa158015611313573d6000803e3d6000fd5b505050506040513d601f19601f820116820180604052508101906113379190611c13565b96508c60050160008b838151811061135157611351611b83565b60200260200101516001600160a01b03166001600160a01b031681526020019081526020016000205492508680156113ab57506113ab8c600201548b838151811061139e5761139e611b83565b6020026020010151610c2d565b806113b557508183105b156115be57866114605760008d60050160008c84815181106113d9576113d9611b83565b60200260200101516001600160a01b03166001600160a01b03168152602001908152602001600020549050808e60060160008d858151811061141d5761141d611b83565b60200260200101516001600160a01b03166001600160a01b0316815260200190815260200160002060008282546114549190611980565b9091555061146d915050565b61146a8385611980565b93505b60008d60040160008c848151811061148757611487611b83565b60200260200101516001600160a01b03166001600160a01b0316815260200190815260200160002060006101000a81548160ff0219169083151502179055508981815181106114d8576114d8611b83565b60200260200101518582815181106114f2576114f2611b83565b60200260200101906001600160a01b031690816001600160a01b03168152505060008d60050160008c848151811061152c5761152c611b83565b60200260200101516001600160a01b03166001600160a01b03168152602001908152602001600020819055508561156290611c2e565b9550828a828151811061157757611577611b83565b60200260200101516001600160a01b03168d600201547f10f8476f9a23ac06c638b35201072d11e362a5abe0247195ce64284bbe94ce9a60405160405180910390a4611643565b818d60050160008c84815181106115d7576115d7611b83565b60200260200101516001600160a01b03166001600160a01b03168152602001908152602001600020600082825461160e9190611993565b90915550506001600160a01b038b16600090815260068e0160205260408120805484929061163d908490611980565b90915550505b600101611290565b508460ff168b6003015461165f9190611993565b60038c01555090955090935050505094509492505050565b60006060600080856003018054905067ffffffffffffffff81111561169e5761169e611a24565b6040519080825280602002602001820160405280156116c7578160200160208202803683370190505b506003870154909150600090815b818110156117e5578860030181815481106116f2576116f2611b83565b600091825260209091200154600289015460405163074bc1f360e51b815260048101919091526001600160a01b03909116602482018190529550309063e9783e6090604401602060405180830381865afa158015611754573d6000803e3d6000fd5b505050506040513d601f19601f820116820180604052508101906117789190611c13565b15801561179f57506001600160a01b038516600090815260048a01602052604090205460ff165b156117dd57848484815181106117b7576117b7611b83565b6001600160a01b0390921660209283029190910190910152826117d981611b99565b9350505b6001016116d5565b50909791965090945050505050565b6000806040838503121561180757600080fd5b8235915060208301356004811061181d57600080fd5b809150509250929050565b60006020828403121561183a57600080fd5b5035919050565b6001600160a01b038116811461019557600080fd5b6000806040838503121561186957600080fd5b82359150602083013561181d81611841565b6000806000806060858703121561189157600080fd5b8435935060208501356118a381611841565b9250604085013567ffffffffffffffff808211156118c057600080fd5b818701915087601f8301126118d457600080fd5b8135818111156118e357600080fd5b8860208260051b85010111156118f857600080fd5b95989497505060200194505050565b6020808252825182820181905260009190848201906040850190845b818110156119485783516001600160a01b031683529284019291840191600101611923565b50909695505050505050565b634e487b7160e01b600052602160045260246000fd5b634e487b7160e01b600052601160045260246000fd5b808201808211156107b1576107b161196a565b818103818111156107b1576107b161196a565b80820281158282048414176107b1576107b161196a565b6000602082840312156119cf57600080fd5b5051919050565b6000826119f357634e487b7160e01b600052601260045260246000fd5b500490565b600081611a0757611a0761196a565b506000190190565b80518015158114611a1f57600080fd5b919050565b634e487b7160e01b600052604160045260246000fd5b8051611a1f81611841565b60008060008060008060008060006101208a8c031215611a6457600080fd5b611a6d8a611a0f565b985060208a015160058110611a8157600080fd5b60408b0151909850611a9281611841565b60608b015190975067ffffffffffffffff80821115611ab057600080fd5b818c0191508c601f830112611ac457600080fd5b815181811115611ad657611ad6611a24565b8060051b604051601f19603f83011681018181108582111715611afb57611afb611a24565b6040529182526020808301935084820101918f831115611b1a57600080fd5b6020850194505b82851015611b4357611b3285611a3a565b845260209485019490930192611b21565b809a50505050505060808a0151945060a08a0151935060c08a01519250611b6c60e08b01611a3a565b91506101008a015190509295985092959850929598565b634e487b7160e01b600052603260045260246000fd5b600060018201611bab57611bab61196a565b5060010190565b60008060008060808587031215611bc857600080fd5b611bd185611a0f565b60208601516040870151606090970151919890975090945092505050565b600060208284031215611c0157600080fd5b8135611c0c81611841565b9392505050565b600060208284031215611c2557600080fd5b6107ae82611a0f565b600060ff821660ff8103611c4457611c4461196a565b6001019291505056fe87101b21d556417ad2b8e8f2700dbad90721d5d50a1f435f2dee0b9dc981ac8a35fa70a6f9ae8a4d427ebe0c1be62ffd2870fecc1df41c6fda0bf5803e562888a2646970667358221220787510008b8efcd09140f41607cc58b4f26ada5e8af4f80ec2861c42df67cf1664736f6c63430008120033",
  "devdoc": {
    "author": "Aisha El Allam",
    "details": "v3.0 (Diamond)",
    "kind": "dev",
    "methods": {
      "emptyCollateralAfterEnd(uint256)": {
        "params": {
          "id": "The term id"
        }
      },
      "isUnderCollaterized(uint256,address)": {
        "details": "This will revert if called during ReleasingCollateral or after",
        "params": {
          "id": "The term id",
          "member": "The user to check for"
        },
        "returns": {
          "_0": "Bool check if member is below 1.0x of collateralDeposit"
        }
      },
      "releaseCollateral(uint256)": {
        "params": {
          "id": "term id"
        }
      },
      "requestContribution(uint256,address,address[])": {
        "details": "Check EnumerableMap (openzeppelin) for arrays that are being accessed from Fund contract",
        "params": {
          "beneficiary": "Address that will be receiving the cycle pot",
          "defaulters": "Address that was randomly selected for the current cycle",
          "id": "term id"
        },
        "returns": {
          "_0": "expellants array of addresses that were expelled"
        }
      },
      "setStateOwner(uint256,uint8)": {
        "params": {
          "id": "term id",
          "newState": "collateral state"
        }
      },
      "withdrawCollateral(uint256)": {
        "details": "This follows the pull-over-push pattern.",
        "params": {
          "id": "term id"
        }
      },
      "withdrawReimbursement(uint256,address)": {
        "params": {
          "depositor": "Address of the depositor",
          "id": "term id"
        }
      }
    },
    "title": "Takaturn Collateral",
    "version": 1
  },
  "userdoc": {
    "kind": "user",
    "methods": {
      "emptyCollateralAfterEnd(uint256)": {
        "notice": "allow the owner to empty the Collateral after 180 days"
      },
      "isUnderCollaterized(uint256,address)": {
        "notice": "Checks if a user has a collateral below 1.0x of total contribution amount"
      },
      "requestContribution(uint256,address,address[])": {
        "notice": "Called from Fund contract when someone defaults"
      },
      "withdrawCollateral(uint256)": {
        "notice": "Called by each member after the end of the cycle to withraw collateral"
      }
    },
    "notice": "This is used to operate the Takaturn collateral",
    "version": 1
  },
  "storageLayout": {
    "storage": [],
    "types": null
  }
}