{
  "address": "0x395d546Ce1b07DeA26BA26C8bB5325450284F67e",
  "abi": [
    {
      "inputs": [],
      "name": "FunctionInvalidAtThisState",
      "type": "error"
    },
    {
      "anonymous": false,
      "inputs": [
        {
          "indexed": true,
          "internalType": "uint256",
          "name": "termId",
          "type": "uint256"
        },
        {
          "indexed": true,
          "internalType": "address",
          "name": "user",
          "type": "address"
        },
        {
          "indexed": true,
          "internalType": "uint256",
          "name": "amount",
          "type": "uint256"
        }
      ],
      "name": "OnCollateralLiquidated",
      "type": "event"
    },
    {
      "anonymous": false,
      "inputs": [
        {
          "indexed": true,
          "internalType": "uint256",
          "name": "termId",
          "type": "uint256"
        },
        {
          "indexed": true,
          "internalType": "enum LibCollateral.CollateralStates",
          "name": "oldState",
          "type": "uint8"
        },
        {
          "indexed": true,
          "internalType": "enum LibCollateral.CollateralStates",
          "name": "newState",
          "type": "uint8"
        }
      ],
      "name": "OnCollateralStateChanged",
      "type": "event"
    },
    {
      "anonymous": false,
      "inputs": [
        {
          "indexed": true,
          "internalType": "uint256",
          "name": "termId",
          "type": "uint256"
        },
        {
          "indexed": true,
          "internalType": "address",
          "name": "user",
          "type": "address"
        },
        {
          "indexed": true,
          "internalType": "uint256",
          "name": "amount",
          "type": "uint256"
        }
      ],
      "name": "OnCollateralWithdrawn",
      "type": "event"
    },
    {
      "anonymous": false,
      "inputs": [
        {
          "indexed": true,
          "internalType": "uint256",
          "name": "termId",
          "type": "uint256"
        },
        {
          "indexed": true,
          "internalType": "address",
          "name": "user",
          "type": "address"
        },
        {
          "indexed": true,
          "internalType": "uint256",
          "name": "amount",
          "type": "uint256"
        }
      ],
      "name": "OnReimbursementWithdrawn",
      "type": "event"
    },
    {
      "anonymous": false,
      "inputs": [
        {
          "indexed": true,
          "internalType": "address",
          "name": "previousTermOwner",
          "type": "address"
        },
        {
          "indexed": true,
          "internalType": "address",
          "name": "newTermOwner",
          "type": "address"
        }
      ],
      "name": "TermOwnershipTransferred",
      "type": "event"
    },
    {
      "inputs": [
        {
          "internalType": "uint256",
          "name": "id",
          "type": "uint256"
        }
      ],
      "name": "emptyCollateralAfterEnd",
      "outputs": [],
      "stateMutability": "nonpayable",
      "type": "function"
    },
    {
      "inputs": [
        {
          "internalType": "uint256",
          "name": "id",
          "type": "uint256"
        }
      ],
      "name": "getLatestPrice",
      "outputs": [
        {
          "internalType": "uint256",
          "name": "",
          "type": "uint256"
        }
      ],
      "stateMutability": "view",
      "type": "function"
    },
    {
      "inputs": [
        {
          "internalType": "uint256",
          "name": "id",
          "type": "uint256"
        },
        {
          "internalType": "uint256",
          "name": "USDAmount",
          "type": "uint256"
        }
      ],
      "name": "getToEthConversionRate",
      "outputs": [
        {
          "internalType": "uint256",
          "name": "",
          "type": "uint256"
        }
      ],
      "stateMutability": "view",
      "type": "function"
    },
    {
      "inputs": [
        {
          "internalType": "uint256",
          "name": "id",
          "type": "uint256"
        },
        {
          "internalType": "uint256",
          "name": "ethAmount",
          "type": "uint256"
        }
      ],
      "name": "getToUSDConversionRate",
      "outputs": [
        {
          "internalType": "uint256",
          "name": "",
          "type": "uint256"
        }
      ],
      "stateMutability": "view",
      "type": "function"
    },
    {
      "inputs": [
        {
          "internalType": "uint256",
          "name": "id",
          "type": "uint256"
        },
        {
          "internalType": "address",
          "name": "member",
          "type": "address"
        }
      ],
      "name": "isUnderCollaterized",
      "outputs": [
        {
          "internalType": "bool",
          "name": "",
          "type": "bool"
        }
      ],
      "stateMutability": "view",
      "type": "function"
    },
    {
      "inputs": [
        {
          "internalType": "uint256",
          "name": "id",
          "type": "uint256"
        }
      ],
      "name": "releaseCollateral",
      "outputs": [],
      "stateMutability": "nonpayable",
      "type": "function"
    },
    {
      "inputs": [
        {
          "internalType": "uint256",
          "name": "id",
          "type": "uint256"
        },
        {
          "internalType": "address",
          "name": "beneficiary",
          "type": "address"
        },
        {
          "internalType": "address[]",
          "name": "defaulters",
          "type": "address[]"
        }
      ],
      "name": "requestContribution",
      "outputs": [
        {
          "internalType": "address[]",
          "name": "",
          "type": "address[]"
        }
      ],
      "stateMutability": "nonpayable",
      "type": "function"
    },
    {
      "inputs": [
        {
          "internalType": "uint256",
          "name": "id",
          "type": "uint256"
        },
        {
          "internalType": "enum LibCollateral.CollateralStates",
          "name": "newState",
          "type": "uint8"
        }
      ],
      "name": "setStateOwner",
      "outputs": [],
      "stateMutability": "nonpayable",
      "type": "function"
    },
    {
      "inputs": [
        {
          "internalType": "uint256",
          "name": "id",
          "type": "uint256"
        }
      ],
      "name": "withdrawCollateral",
      "outputs": [],
      "stateMutability": "nonpayable",
      "type": "function"
    },
    {
      "inputs": [
        {
          "internalType": "uint256",
          "name": "id",
          "type": "uint256"
        },
        {
          "internalType": "address",
          "name": "depositor",
          "type": "address"
        }
      ],
      "name": "withdrawReimbursement",
      "outputs": [],
      "stateMutability": "nonpayable",
      "type": "function"
    }
  ],
  "transactionHash": "0x9c9481ca24c882d3fb1f36f308959d3d31e21c68eda562efaec9dfb1893210f3",
  "args": [],
  "numDeployments": 1,
  "solcInputHash": "9f7a732c1897a3dc667c51fd3f255384",
  "bytecode": "0x608060405234801561001057600080fd5b50611993806100206000396000f3fe608060405234801561001057600080fd5b506004361061009e5760003560e01c8063ae483d0711610066578063ae483d0714610117578063b94fe9171461012a578063c177f0911461013d578063c3bfb61c14610160578063e27c3ca21461017357600080fd5b806302c1ed1f146100a357806339007b77146100b85780633cce4156146100cb5780636112fe2e146100f157806397b7b2be14610104575b600080fd5b6100b66100b1366004611449565b610193565b005b6100b66100c636600461147d565b6101a1565b6100de6100d9366004611496565b610200565b6040519081526020015b60405180910390f35b6100b66100ff36600461147d565b610238565b6100de610112366004611496565b6103f2565b6100b66101253660046114cd565b610415565b6100de61013836600461147d565b610585565b61015061014b3660046114cd565b610814565b60405190151581526020016100e8565b6100b661016e36600461147d565b610827565b6101866101813660046114f2565b610a46565b6040516100e8919061157e565b61019d8282610b94565b5050565b6101aa81610c31565b6101f25760405162461bcd60e51b815260206004820152601460248201527346756e6420646f6573206e6f742065786973747360601b60448201526064015b60405180910390fd5b6101fd816002610b94565b50565b60008061020c84610585565b905060008161022385670de0b6b3a76400006115e1565b61022d91906115f8565b925050505b92915050565b600081815260008051602061193e83398151915260205260409020548190600290610100900460ff16818160038111156102745761027461161a565b146102925760405163201328a760e01b815260040160405180910390fd5b600084815260008051602061193e833981519152602090815260408083203384526006810183528184205460058201909352908320549092916102d491611630565b9050600081116103195760405162461bcd60e51b815260206004820152601060248201526f4e6f7468696e6720746f20636c61696d60801b60448201526064016101e9565b3360008181526005840160209081526040808320839055600686019091528082208290555190919083908381818185875af1925050503d806000811461037b576040519150601f19603f3d011682016040523d82523d6000602084013e610380565b606091505b505090508061038e57600080fd5b6040518290339089907fb9e806c8f1eeab6783660f204d906cbb8e7caa567f4d21ab56eeb61bd4feeb1990600090a482600201600081546103ce90611643565b9091555060028301546000036103e9576103e9876003610b94565b50505050505050565b6000806103fe84610585565b90506000670de0b6b3a764000061022385846115e1565b600082815260008051602061193e8339815191526020526040902061043983610c31565b61047c5760405162461bcd60e51b815260206004820152601460248201527346756e6420646f6573206e6f742065786973747360601b60448201526064016101e9565b6001600160a01b0382166000908152600682016020526040902054806104d75760405162461bcd60e51b815260206004820152601060248201526f4e6f7468696e6720746f20636c61696d60801b60448201526064016101e9565b6001600160a01b03831660008181526006840160205260408082208290555190919083908381818185875af1925050503d8060008114610533576040519150601f19603f3d011682016040523d82523d6000602084013e610538565b606091505b505090508061054657600080fd5b81846001600160a01b0316867f1d8d3d09e68fe1873369af18c4d7d361038dac92ac768b54ac19273dbd4cb6b860405160405180910390a45050505050565b600081815260008051602061191e83398151915260205260408082207f138fa7b895cc6132bd44317f3510a9c38821e93ca223f9fdc532527c01963ec5548251633fabe5a360e21b8152925191927f138fa7b895cc6132bd44317f3510a9c38821e93ca223f9fdc532527c01963ec492859283926001600160a01b039091169163feaf968c9160048082019260a0929091908290030181865afa158015610630573d6000803e3d6000fd5b505050506040513d601f19601f820116820180604052508101906106549190611679565b505092509250508160001461069c5760405162461bcd60e51b815260206004820152600e60248201526d29b2b8bab2b731b2b9103237bbb760911b60448201526064016101e9565b6106a681426116c9565b835411156106ee5760405162461bcd60e51b8152602060048201526015602482015274053657175656e636572207374617274696e6720757605c1b60448201526064016101e9565b6000806000808760090160009054906101000a90046001600160a01b03166001600160a01b031663feaf968c6040518163ffffffff1660e01b815260040160a060405180830381865afa158015610749573d6000803e3d6000fd5b505050506040513d601f19601f8201168201806040525081019061076d9190611679565b9450945050935093508160001415801561079f57508369ffffffffffffffffffff168169ffffffffffffffffffff1610155b80156107ab5750600083135b6107f75760405162461bcd60e51b815260206004820152601b60248201527f436861696e6c696e6b4f7261636c653a207374616c652064617461000000000060448201526064016101e9565b610806836402540be4006116dc565b9a9950505050505050505050565b60006108208383610c65565b9392505050565b8061083181610dc8565b600082815260008051602061193e83398151915260205260409020548290600290610100900460ff168181600381111561086d5761086d61161a565b1461088b5760405163201328a760e01b815260040160405180910390fd5b600060008051602061193e833981519152600087815260209190915260408082209051636b95dc3f60e11b815260048101899052909250309063d72bb87e90602401600060405180830381865afa1580156108ea573d6000803e3d6000fd5b505050506040513d6000823e601f3d908101601f1916820160405261091291908101906117df565b99505050505050505050508062ed4e0061092c9190611630565b421161096c5760405162461bcd60e51b815260206004820152600f60248201526e10d85b89dd08195b5c1d1e481e595d608a1b60448201526064016101e9565b600382015460005b818110156109da57600084600301828154811061099357610993611897565b60009182526020808320909101546001600160a01b0316825260058701815260408083208390556006880190915281205550600101806109d2816118ad565b915050610974565b506109e6886003610b94565b604051600090339047908381818185875af1925050503d8060008114610a28576040519150601f19603f3d011682016040523d82523d6000602084013e610a2d565b606091505b5050905080610a3b57600080fd5b505050505050505050565b600084815260008051602061193e83398151915260205260409020546060908590600190610100900460ff1681816003811115610a8557610a8561161a565b14610aa35760405163201328a760e01b815260040160405180910390fd5b600088815260008051602061193e8339815191526020908152604080832060008051602061191e8339815191529092528220909180610ae584848d8d8d610e4d565b91509150600080610af686866112cc565b90925090508115610b8257610b0b82856115f8565b935060005b82811015610b805784876006016000848481518110610b3157610b31611897565b60200260200101516001600160a01b03166001600160a01b031681526020019081526020016000206000828254610b689190611630565b90915550819050610b78816118ad565b915050610b10565b505b50909c9b505050505050505050505050565b600082815260008051602061193e83398151915260205260409020805461010080820460ff16918491849161ff00191690836003811115610bd757610bd761161a565b0217905550826003811115610bee57610bee61161a565b816003811115610c0057610c0061161a565b60405186907ffe918112a2fca8c18cc609a5d585d9fc8448267cb7b9d6c19a445fe5c0c199c890600090a450505050565b60009081527f6751f7e27cecf86d7136f5749c224248cae80a39fafb59f8f6bf12c52816307c602052604090205460ff1690565b600082815260008051602061193e8339815191526020908152604080832060008051602061191e8339815191529092528083208151636b95dc3f60e11b81526004810187905291519091849182918291309163d72bb87e91602480830192869291908290030181865afa158015610ce0573d6000803e3d6000fd5b505050506040513d6000823e601f3d908101601f19168201604052610d0891908101906117df565b5050505050509350505050610d1c88610c31565b610d4d5783600501548460030154610d3491906115e1565b610d4690670de0b6b3a76400006115e1565b9250610d93565b60008186600201546001610d619190611630565b610d6b91906116c9565b9050846005015481610d7d91906115e1565b610d8f90670de0b6b3a76400006115e1565b9350505b6001600160a01b0387166000908152600586016020526040902054610db99089906103f2565b92909210979650505050505050565b600081815260008051602061191e83398151915260205260409020546001600160a01b036101009091041633146101fd5760405162461bcd60e51b8152602060048201526024808201527f5465726d4f776e61626c653a2063616c6c6572206973206e6f7420746865206f6044820152633bb732b960e11b60648201526084016101e9565b6000606082610e8e5760405162461bcd60e51b815260206004820152600d60248201526c4e6f2064656661756c7465727360981b60448201526064016101e9565b600080808567ffffffffffffffff811115610eab57610eab611727565b604051908082528060200260200182016040528015610ed4578160200160208202803683370190505b5090506000806000610efc8c600201548d60050154670de0b6b3a76400006100d991906115e1565b905060005b8981101561129f57306001600160a01b031663e9783e608e600201548d8d85818110610f2f57610f2f611897565b9050602002016020810190610f4491906118c6565b6040516001600160e01b031960e085901b16815260048101929092526001600160a01b03166024820152604401602060405180830381865afa158015610f8e573d6000803e3d6000fd5b505050506040513d601f19601f82011682018060405250810190610fb291906118e3565b96508d60050160008c8c84818110610fcc57610fcc611897565b9050602002016020810190610fe191906118c6565b6001600160a01b03166001600160a01b031681526020019081526020016000205492508b6001600160a01b03168b8b8381811061102057611020611897565b905060200201602081019061103591906118c6565b6001600160a01b03160361104b57600101610f01565b86801561108757506110878d600201548c8c8481811061106d5761106d611897565b905060200201602081019061108291906118c6565b610c65565b8061109157508183105b156112055760008e60040160008d8d858181106110b0576110b0611897565b90506020020160208101906110c591906118c6565b6001600160a01b031681526020810191909152604001600020805460ff19169115159190911790558a8a828181106110ff576110ff611897565b905060200201602081019061111491906118c6565b85828151811061112657611126611897565b6001600160a01b03909216602092830291909101909101526111488385611630565b935060008e60050160008d8d8581811061116457611164611897565b905060200201602081019061117991906118c6565b6001600160a01b0316815260208101919091526040016000205561119c866118fe565b9550828b8b838181106111b1576111b1611897565b90506020020160208101906111c691906118c6565b6001600160a01b03168e600201547f10f8476f9a23ac06c638b35201072d11e362a5abe0247195ce64284bbe94ce9a60405160405180910390a4611297565b818e60050160008d8d8581811061121e5761121e611897565b905060200201602081019061123391906118c6565b6001600160a01b03166001600160a01b03168152602001908152602001600020600082825461126291906116c9565b90915550506001600160a01b038c16600090815260068f01602052604081208054849290611291908490611630565b90915550505b600101610f01565b508460ff168c600301546112b391906116c9565b60038d0155509095509093505050509550959350505050565b60006060600080856003018054905067ffffffffffffffff8111156112f3576112f3611727565b60405190808252806020026020018201604052801561131c578160200160208202803683370190505b506003870154909150600090815b8181101561143a5788600301818154811061134757611347611897565b600091825260209091200154600289015460405163074bc1f360e51b815260048101919091526001600160a01b03909116602482018190529550309063e9783e6090604401602060405180830381865afa1580156113a9573d6000803e3d6000fd5b505050506040513d601f19601f820116820180604052508101906113cd91906118e3565b1580156113f457506001600160a01b038516600090815260048a01602052604090205460ff165b15611432578484848151811061140c5761140c611897565b6001600160a01b03909216602092830291909101909101528261142e816118ad565b9350505b60010161132a565b50909791965090945050505050565b6000806040838503121561145c57600080fd5b8235915060208301356004811061147257600080fd5b809150509250929050565b60006020828403121561148f57600080fd5b5035919050565b600080604083850312156114a957600080fd5b50508035926020909101359150565b6001600160a01b03811681146101fd57600080fd5b600080604083850312156114e057600080fd5b823591506020830135611472816114b8565b6000806000806060858703121561150857600080fd5b84359350602085013561151a816114b8565b9250604085013567ffffffffffffffff8082111561153757600080fd5b818701915087601f83011261154b57600080fd5b81358181111561155a57600080fd5b8860208260051b850101111561156f57600080fd5b95989497505060200194505050565b6020808252825182820181905260009190848201906040850190845b818110156115bf5783516001600160a01b03168352928401929184019160010161159a565b50909695505050505050565b634e487b7160e01b600052601160045260246000fd5b8082028115828204841417610232576102326115cb565b60008261161557634e487b7160e01b600052601260045260246000fd5b500490565b634e487b7160e01b600052602160045260246000fd5b80820180821115610232576102326115cb565b600081611652576116526115cb565b506000190190565b805169ffffffffffffffffffff8116811461167457600080fd5b919050565b600080600080600060a0868803121561169157600080fd5b61169a8661165a565b94506020860151935060408601519250606086015191506116bd6080870161165a565b90509295509295909350565b81810381811115610232576102326115cb565b80820260008212600160ff1b841416156116f8576116f86115cb565b8181058314821517610232576102326115cb565b8051801515811461167457600080fd5b8051611674816114b8565b634e487b7160e01b600052604160045260246000fd5b600082601f83011261174e57600080fd5b8151602067ffffffffffffffff8083111561176b5761176b611727565b8260051b604051601f19603f8301168101818110848211171561179057611790611727565b6040529384528581018301938381019250878511156117ae57600080fd5b83870191505b848210156117d4576117c58261171c565b835291830191908301906117b4565b979650505050505050565b6000806000806000806000806000806101408b8d0312156117ff57600080fd5b6118088b61170c565b995060208b01516005811061181c57600080fd5b985061182a60408c0161171c565b975060608b0151965060808b015167ffffffffffffffff81111561184d57600080fd5b6118598d828e0161173d565b96505060a08b0151945060c08b0151935061187660e08c0161171c565b92506101008b015191506101208b015190509295989b9194979a5092959850565b634e487b7160e01b600052603260045260246000fd5b6000600182016118bf576118bf6115cb565b5060010190565b6000602082840312156118d857600080fd5b8135610820816114b8565b6000602082840312156118f557600080fd5b6108208261170c565b600060ff821660ff8103611914576119146115cb565b6001019291505056fe87101b21d556417ad2b8e8f2700dbad90721d5d50a1f435f2dee0b9dc981ac8a35fa70a6f9ae8a4d427ebe0c1be62ffd2870fecc1df41c6fda0bf5803e562888a26469706673582212200a14e3c5786af4131d7be3e1961957c01705d71dbdee2cb9744a1e110ddf6d3464736f6c63430008120033",
  "devdoc": {
    "author": "Aisha El Allam",
    "details": "v3.0 (Diamond)",
    "kind": "dev",
    "methods": {
      "emptyCollateralAfterEnd(uint256)": {
        "params": {
          "id": "The term id"
        }
      },
      "getLatestPrice(uint256)": {
        "params": {
          "id": "The term id"
        },
        "returns": {
          "_0": "uint latest price in Wei Note: 18 decimals"
        }
      },
      "getToEthConversionRate(uint256,uint256)": {
        "details": "should we always deal with in Wei?",
        "params": {
          "USDAmount": "The amount in USD",
          "id": "The term id"
        },
        "returns": {
          "_0": "uint converted amount in wei"
        }
      },
      "getToUSDConversionRate(uint256,uint256)": {
        "details": "should we always deal with in Wei?",
        "params": {
          "ethAmount": "The amount in ETH",
          "id": "The term id"
        },
        "returns": {
          "_0": "uint converted amount in USD correct to 18 decimals"
        }
      },
      "isUnderCollaterized(uint256,address)": {
        "details": "This will revert if called during ReleasingCollateral or after",
        "params": {
          "id": "The term id",
          "member": "The user to check for"
        },
        "returns": {
          "_0": "Bool check if member is below 1.0x of collateralDeposit"
        }
      },
      "releaseCollateral(uint256)": {
        "params": {
          "id": "term id"
        }
      },
      "requestContribution(uint256,address,address[])": {
        "details": "Check EnumerableMap (openzeppelin) for arrays that are being accessed from Fund contract",
        "params": {
          "beneficiary": "Address that was randomly selected for the current cycle",
          "defaulters": "Address that was randomly selected for the current cycle",
          "id": "term id"
        },
        "returns": {
          "_0": "expellants array of addresses that were expelled"
        }
      },
      "setStateOwner(uint256,uint8)": {
        "params": {
          "id": "term id",
          "newState": "collateral state"
        }
      },
      "withdrawCollateral(uint256)": {
        "details": "This follows the pull-over-push pattern.",
        "params": {
          "id": "term id"
        }
      },
      "withdrawReimbursement(uint256,address)": {
        "params": {
          "depositor": "Address of the depositor",
          "id": "term id"
        }
      }
    },
    "title": "Takaturn Collateral",
    "version": 1
  },
  "userdoc": {
    "kind": "user",
    "methods": {
      "emptyCollateralAfterEnd(uint256)": {
        "notice": "allow the owner to empty the Collateral after 180 days"
      },
      "getLatestPrice(uint256)": {
        "notice": "Gets latest ETH / USD price"
      },
      "getToEthConversionRate(uint256,uint256)": {
        "notice": "Gets the conversion rate of an amount in USD to ETH"
      },
      "getToUSDConversionRate(uint256,uint256)": {
        "notice": "Gets the conversion rate of an amount in ETH to USD"
      },
      "isUnderCollaterized(uint256,address)": {
        "notice": "Checks if a user has a collateral below 1.0x of total contribution amount"
      },
      "requestContribution(uint256,address,address[])": {
        "notice": "Called from Fund contract when someone defaults"
      },
      "withdrawCollateral(uint256)": {
        "notice": "Called by each member after the end of the cycle to withraw collateral"
      }
    },
    "notice": "This is used to operate the Takaturn collateral",
    "version": 1
  },
  "storageLayout": {
    "storage": [],
    "types": null
  }
}