{
  "address": "0x3877C813523bFaf24438631D41844FEa12C4428c",
  "abi": [
    {
      "inputs": [],
      "name": "FunctionInvalidAtThisState",
      "type": "error"
    },
    {
      "anonymous": false,
      "inputs": [
        {
          "indexed": true,
          "internalType": "uint256",
          "name": "termId",
          "type": "uint256"
        },
        {
          "indexed": true,
          "internalType": "address",
          "name": "user",
          "type": "address"
        },
        {
          "indexed": true,
          "internalType": "uint256",
          "name": "amount",
          "type": "uint256"
        }
      ],
      "name": "OnCollateralLiquidated",
      "type": "event"
    },
    {
      "anonymous": false,
      "inputs": [
        {
          "indexed": true,
          "internalType": "uint256",
          "name": "termId",
          "type": "uint256"
        },
        {
          "indexed": true,
          "internalType": "enum LibCollateralStorage.CollateralStates",
          "name": "oldState",
          "type": "uint8"
        },
        {
          "indexed": true,
          "internalType": "enum LibCollateralStorage.CollateralStates",
          "name": "newState",
          "type": "uint8"
        }
      ],
      "name": "OnCollateralStateChanged",
      "type": "event"
    },
    {
      "anonymous": false,
      "inputs": [
        {
          "indexed": true,
          "internalType": "uint256",
          "name": "termId",
          "type": "uint256"
        },
        {
          "indexed": true,
          "internalType": "address",
          "name": "user",
          "type": "address"
        },
        {
          "indexed": false,
          "internalType": "address",
          "name": "receiver",
          "type": "address"
        },
        {
          "indexed": true,
          "internalType": "uint256",
          "name": "collateralAmount",
          "type": "uint256"
        }
      ],
      "name": "OnCollateralWithdrawal",
      "type": "event"
    },
    {
      "anonymous": false,
      "inputs": [
        {
          "indexed": true,
          "internalType": "uint256",
          "name": "termId",
          "type": "uint256"
        },
        {
          "indexed": true,
          "internalType": "address",
          "name": "user",
          "type": "address"
        },
        {
          "indexed": true,
          "internalType": "uint256",
          "name": "amount",
          "type": "uint256"
        }
      ],
      "name": "OnFrozenMoneyPotLiquidated",
      "type": "event"
    },
    {
      "anonymous": false,
      "inputs": [
        {
          "indexed": true,
          "internalType": "uint256",
          "name": "termId",
          "type": "uint256"
        },
        {
          "indexed": true,
          "internalType": "address",
          "name": "participant",
          "type": "address"
        },
        {
          "indexed": false,
          "internalType": "address",
          "name": "receiver",
          "type": "address"
        },
        {
          "indexed": true,
          "internalType": "uint256",
          "name": "amount",
          "type": "uint256"
        }
      ],
      "name": "OnReimbursementWithdrawn",
      "type": "event"
    },
    {
      "anonymous": false,
      "inputs": [
        {
          "indexed": true,
          "internalType": "uint256",
          "name": "termId",
          "type": "uint256"
        },
        {
          "indexed": true,
          "internalType": "address",
          "name": "user",
          "type": "address"
        },
        {
          "indexed": false,
          "internalType": "address",
          "name": "receiver",
          "type": "address"
        },
        {
          "indexed": true,
          "internalType": "uint256",
          "name": "amount",
          "type": "uint256"
        }
      ],
      "name": "OnYieldClaimed",
      "type": "event"
    },
    {
      "inputs": [
        {
          "internalType": "uint256",
          "name": "termId",
          "type": "uint256"
        }
      ],
      "name": "emptyCollateralAfterEnd",
      "outputs": [],
      "stateMutability": "nonpayable",
      "type": "function"
    },
    {
      "inputs": [
        {
          "internalType": "uint256",
          "name": "termId",
          "type": "uint256"
        }
      ],
      "name": "releaseCollateral",
      "outputs": [],
      "stateMutability": "nonpayable",
      "type": "function"
    },
    {
      "inputs": [
        {
          "components": [
            {
              "internalType": "bool",
              "name": "initialized",
              "type": "bool"
            },
            {
              "internalType": "enum LibTermStorage.TermStates",
              "name": "state",
              "type": "uint8"
            },
            {
              "internalType": "address",
              "name": "termOwner",
              "type": "address"
            },
            {
              "internalType": "uint256",
              "name": "creationTime",
              "type": "uint256"
            },
            {
              "internalType": "uint256",
              "name": "termId",
              "type": "uint256"
            },
            {
              "internalType": "uint256",
              "name": "registrationPeriod",
              "type": "uint256"
            },
            {
              "internalType": "uint256",
              "name": "totalParticipants",
              "type": "uint256"
            },
            {
              "internalType": "uint256",
              "name": "cycleTime",
              "type": "uint256"
            },
            {
              "internalType": "uint256",
              "name": "contributionAmount",
              "type": "uint256"
            },
            {
              "internalType": "uint256",
              "name": "contributionPeriod",
              "type": "uint256"
            },
            {
              "internalType": "address",
              "name": "stableTokenAddress",
              "type": "address"
            }
          ],
          "internalType": "struct LibTermStorage.Term",
          "name": "term",
          "type": "tuple"
        },
        {
          "internalType": "address[]",
          "name": "defaulters",
          "type": "address[]"
        }
      ],
      "name": "requestContribution",
      "outputs": [
        {
          "internalType": "address[]",
          "name": "",
          "type": "address[]"
        }
      ],
      "stateMutability": "nonpayable",
      "type": "function"
    },
    {
      "inputs": [
        {
          "internalType": "uint256",
          "name": "termId",
          "type": "uint256"
        }
      ],
      "name": "withdrawCollateral",
      "outputs": [],
      "stateMutability": "nonpayable",
      "type": "function"
    },
    {
      "inputs": [
        {
          "internalType": "uint256",
          "name": "termId",
          "type": "uint256"
        },
        {
          "internalType": "address",
          "name": "receiver",
          "type": "address"
        }
      ],
      "name": "withdrawCollateralToAnotherAddress",
      "outputs": [],
      "stateMutability": "nonpayable",
      "type": "function"
    }
  ],
  "transactionHash": "0xa9a97cfa73ca2173b474621dfb4e80722d9be5664a23438cddaa4b13bc51b222",
  "args": [],
  "numDeployments": 2,
  "solcInputHash": "cc6a67fd244848db88c1ab4c8df510f4",
  "bytecode": "0x608060405234801561001057600080fd5b506123ea806100206000396000f3fe608060405234801561001057600080fd5b50600436106100575760003560e01c80632081c1af1461005c57806339007b77146100855780634c7a351f1461009a5780636112fe2e146100ad578063c3bfb61c146100c0575b600080fd5b61006f61006a366004611f2d565b6100d3565b60405161007c919061201b565b60405180910390f35b610098610093366004612068565b61024e565b005b6100986100a8366004612081565b6102d5565b6100986100bb366004612068565b610403565b6100986100ce366004612068565b610410565b6060836080015160016100e6828261063a565b60808601805160009081526000805160206123958339815191526020908152604080832093518352600080516020612355833981519152909152902030331461012e57600080fd5b600080610170848b858c8c808060200260200160405190810160405280939291908181526020018383602002808284376000920191909152506106a592505050565b915091506000806101818686610b68565b9092509050811561023e57825160005b818110156101c6576101be878683815181106101af576101af6120b1565b60200260200101518686610c8e565b600101610191565b506101d183866120dd565b945060005b8381101561023b57858860060160008584815181106101f7576101f76120b1565b60200260200101516001600160a01b03166001600160a01b03168152602001908152602001600020600082825461022e91906120ff565b90915550506001016101d6565b50505b50909a9950505050505050505050565b6000818152600080516020612355833981519152602052604090208054600490610100900460ff168181111561028657610286612112565b146102c65760405162461bcd60e51b815260206004820152600b60248201526a57726f6e6720737461746560a81b60448201526064015b60405180910390fd5b6102d1826002610d88565b5050565b60008281526000805160206123558339815191526020908152604080832060018101805483518186028101860190945280845291949390919083018282801561034757602002820191906000526020600020905b81546001600160a01b03168152600190910190602001808311610329575b505050505090506000815190506000805b828110156103a357336001600160a01b031684828151811061037c5761037c6120b1565b60200260200101516001600160a01b03160361039b57600191506103a3565b600101610358565b50806103f15760405162461bcd60e51b815260206004820181905260248201527f5468652063616c6c6572206d7573742062652061207061727469636970616e7460448201526064016102bd565b6103fb8686610e25565b505050505050565b61040d8133610e25565b50565b8061041a816112cd565b816002610427828261063a565b60006000805160206123958339815191526000868152602091909152604081209150600080516020612335833981519152600087815260209190915260408082209051636b95dc3f60e11b815260048101899052909250309063d72bb87e90602401600060405180830381865afa1580156104a6573d6000803e3d6000fd5b505050506040513d6000823e601f3d908101601f191682016040526104ce9190810190612128565b5050955050505050508062ed4e006104e691906120ff565b42116105265760405162461bcd60e51b815260206004820152600f60248201526e10d85b89dd08195b5c1d1e481e595d608a1b60448201526064016102bd565b6003830154600090815b818110156105cd57600086600301828154811061054f5761054f6120b1565b6000918252602080832091909101546001600160a01b031680835260058a0182526040808420805460068d01909452908420805491859055849055909350909161059b8e85858c611365565b9050806105a883856120ff565b6105b291906120ff565b6105bc90886120ff565b965084600101945050505050610530565b506105d9896003610d88565b604051600090339084908381818185875af1925050503d806000811461061b576040519150601f19603f3d011682016040523d82523d6000602084013e610620565b606091505b505090508061062e57600080fd5b50505050505050505050565b60008281526000805160206123958339815191526020526040902054610100900460ff1681600381111561067057610670612112565b81600381111561068257610682612112565b146106a05760405163201328a760e01b815260040160405180910390fd5b505050565b600060606000835167ffffffffffffffff8111156106c5576106c5611e5b565b6040519080825280602002602001820160405280156106ee578160200160208202803683370190505b5090506000806000306001600160a01b031663d072f4bc8a6101000151670de0b6b3a764000061071e919061225b565b6040518263ffffffff1660e01b815260040161073c91815260200190565b602060405180830381865afa158015610759573d6000803e3d6000fd5b505050506040513d601f19601f8201168201806040525081019061077d9190612272565b905060005b8751811015610b57576040805160808101825260008082526020820181905291810182905260608101919091528960060160008a84815181106107c7576107c76120b1565b6020908102919091018101516001600160a01b0316825281019190915260400160009081205460ff1615156060830152895160058e019082908c9086908110610812576108126120b1565b60200260200101516001600160a01b03166001600160a01b03168152602001908152602001600020549050816060015115610a445761086e8c608001518b8581518110610861576108616120b1565b60200260200101516113e6565b15610a2d578a600a0160008b858151811061088b5761088b6120b1565b6020908102919091018101516001600160a01b031682528101919091526040016000205460ff1615610a17578381106108d557600182526000602083018190526040830152610a74565b60008b60090160008c86815181106108ef576108ef6120b1565b60200260200101516001600160a01b03166001600160a01b03168152602001908152602001600020541115610934576000808352600160208401526040830152610a74565b60808c015160405163f0d826e760e01b81526004810191909152309063f0d826e790602401602060405180830381865afa158015610976573d6000803e3d6000fd5b505050506040513d601f19601f8201168201806040525081019061099a9190612272565b8d60060160008c86815181106109b2576109b26120b1565b60200260200101516001600160a01b03166001600160a01b0316815260200190815260200160002054826109e691906120ff565b10610a01576001808352602083015260006040830152610a74565b6001808352602083018190526040830152610a74565b6001808352600060208401526040830152610a74565b600182526000602083018190526040830152610a74565b838110610a6257600182526000602083018190526040830152610a74565b60008083526020830152600160408301525b610a9b8d8c8e8d8781518110610a8c57610a8c6120b1565b6020026020010151888761152f565b610aa590866120ff565b9450816040015115610b4d57898381518110610ac357610ac36120b1565b6020026020010151878781518110610add57610add6120b1565b60200260200101906001600160a01b031690816001600160a01b0316815250508a600401548b600b016000898981518110610b1a57610b1a6120b1565b60200260200101516001600160a01b03166001600160a01b03168152602001908152602001600020819055508560010195505b5050600101610782565b509099929850919650505050505050565b60006060600080856003018054905067ffffffffffffffff811115610b8f57610b8f611e5b565b604051908082528060200260200182016040528015610bb8578160200160208202803683370190505b506003870154909150600090815b81811015610c7d57886003018181548110610be357610be36120b1565b60009182526020808320909101546001600160a01b031680835260068b0190915260409091205490955060ff16158015610c3757506001600160a01b038516600090815260048a01602052604090205460ff165b15610c755784848481518110610c4f57610c4f6120b1565b6001600160a01b039092166020928302919091019091015282610c718161228b565b9350505b600101610bc6565b5090945090925050505b9250929050565b6001600160a01b038316600090815260068501602052604090205460ff16610d82576001840154600090815b81811015610d1057866001018181548110610cd757610cd76120b1565b6000918252602090912001546001600160a01b0390811690871603610d0857610d018160016120ff565b9250610d10565b600101610cba565b5060005b84811015610d7e576000838152600c880160205260408120855160019290879085908110610d4457610d446120b1565b6020908102919091018101516001600160a01b03168252810191909152604001600020805460ff1916911515919091179055600101610d14565b5050505b50505050565b600082815260008051602061239583398151915260205260409020805461010080820460ff16918491849161ff00191690836003811115610dcb57610dcb612112565b0217905550826003811115610de257610de2612112565b816003811115610df457610df4612112565b60405186907ffe918112a2fca8c18cc609a5d585d9fc8448267cb7b9d6c19a445fe5c0c199c890600090a450505050565b600082815260008051602061235583398151915260209081526040808320600080516020612395833981519152835281842060008051602061233583398151915284528285207f87101b21d556417ad2b8e8f2700dbad90721d5d50a1f435f2dee0b9dc981ac8a855283862084516101608101909552805460ff8082161515875294979396929593949192840191610100909104166003811115610ecb57610ecb612112565b6003811115610edc57610edc612112565b815281546201000090046001600160a01b0390811660208301526001830154604080840191909152600284015460608401526003840154608084015260048085015460a0850152600585015460c0850152600685015460e0850152600785015461010085015260089094015490911661012090920191909152516377778baf60e01b815290810188905233602482015290915060009030906377778baf90604401602060405180830381865afa158015610f9a573d6000803e3d6000fd5b505050506040513d601f19601f82011682018060405250810190610fbe9190612272565b9050600081116110065760405162461bcd60e51b81526020600482015260136024820152724e6f7468696e6720746f20776974686472617760681b60448201526064016102bd565b33600090815260158601602052604081205460ff1660028654610100900460ff16600381111561103857611038612112565b14806110415750805b156111565733600090815260058701602052604081205560028460200151600381111561107057611070612112565b146110835761108189338588611365565b505b6040516001600160a01b038916908490600081818185875af1925050503d80600081146110cc576040519150601f19603f3d011682016040523d82523d6000602084013e6110d1565b606091505b50909250600290508654610100900460ff1660038111156110f4576110f4612112565b0361110f57856002016000815461110a906122a4565b909155505b6040516001600160a01b0389168152839033908b907f696258e73a905f06a50d1acab2d3cf608c8704658f737fce596b7f8dc97fdec99060200160405180910390a4611242565b60018654610100900460ff16600381111561117357611173612112565b0361124257336000908152600587016020526040812080548592906111999084906122bb565b909155506111ab905089338588611365565b506040516001600160a01b038916908490600081818185875af1925050503d80600081146111f5576040519150601f19603f3d011682016040523d82523d6000602084013e6111fa565b606091505b50506040516001600160a01b038a168152909250839033908b907f696258e73a905f06a50d1acab2d3cf608c8704658f737fce596b7f8dc97fdec99060200160405180910390a45b816112815760405162461bcd60e51b815260206004820152600f60248201526e15da5d1a191c985dc819985a5b1959608a1b60448201526064016102bd565b33600090815260078601602052604090205460ff1680156112b25750336000908152600a8601602052604090205415155b156112c2576112c289338a611b08565b505050505050505050565b60008181527f87101b21d556417ad2b8e8f2700dbad90721d5d50a1f435f2dee0b9dc981ac8a60205260409020546001600160a01b036201000090910416331461040d5760405162461bcd60e51b8152602060048201526024808201527f5465726d4f776e61626c653a2063616c6c6572206973206e6f7420746865206f6044820152633bb732b960e11b60648201526084016102bd565b6001600160a01b038316600090815260078201602052604081205460ff16156113da576001600160a01b0384166000908152600983016020908152604080832054600b86019092528220546113ba91906122bb565b9050838111156113c75750825b6113d2868287611c40565b9150506113de565b5060005b949350505050565b6000828152600080516020612395833981519152602090815260408083206001600160a01b0385168452600581019092528220548290611442866000908152600080516020612355833981519152602052604090205460ff1690565b6114c15760405163bb91b76d60e01b81526001600160a01b038616600482015260248101879052309063bb91b76d9060440160a060405180830381865afa158015611491573d6000803e3d6000fd5b505050506040513d601f19601f820116820180604052508101906114b591906122ce565b95506115249350505050565b60405163f0d826e760e01b815260048101879052309063f0d826e790602401602060405180830381865afa1580156114fd573d6000803e3d6000fd5b505050506040513d601f19601f820116820180604052508101906115219190612272565b91505b109150505b92915050565b608084018051600090815260008051602061233583398151915260205260408082209251905163d8f8e99160e01b815260048101919091529091908290309063d8f8e99190602401602060405180830381865afa158015611594573d6000803e3d6000fd5b505050506040513d601f19601f820116820180604052508101906115b89190612317565b845190915080156115cb57508360200151155b1561173e578360400151156116935783606001511561166c576001600160a01b038616600090815260058a016020526040902054608088015161161090888386611365565b5061161b81856120ff565b6001600160a01b038816600081815260058d01602052604080822082905560808c01519051939750849390917f10f8476f9a23ac06c638b35201072d11e362a5abe0247195ce64284bbe94ce9a91a4505b6001600160a01b038616600090815260048a0160205260409020805460ff1916905561173e565b6116a38760800151878785611365565b506001600160a01b038616600090815260058a016020526040812080548792906116ce9084906122bb565b90915550506001600160a01b038116600090815260068a016020526040812080548792906116fd9084906120ff565b9091555050608087015160405186916001600160a01b038916917f10f8476f9a23ac06c638b35201072d11e362a5abe0247195ce64284bbe94ce9a90600090a45b8360200151801561174e57508351155b156118065761010087015161176690620f424061225b565b6001600160a01b038716600090815260098a016020526040812080549091906117909084906122bb565b90915550506101008701516117a890620f424061225b565b6001600160a01b038216600090815260098a016020526040812080549091906117d29084906120ff565b909155505061010087015160808801516040516001600160a01b038916919060008051602061237583398151915290600090a45b83518015611815575083602001515b15611afc576001600160a01b038616600090815260058a01602090815260408083205460068d019092528220546101008a015191929091309063d072f4bc9061186690670de0b6b3a764000061225b565b6040518263ffffffff1660e01b815260040161188491815260200190565b602060405180830381865afa1580156118a1573d6000803e3d6000fd5b505050506040513d601f19601f820116820180604052508101906118c59190612272565b9050821561191a576118dd8a608001518a8588611365565b5060808a015160405184916001600160a01b038c16917f10f8476f9a23ac06c638b35201072d11e362a5abe0247195ce64284bbe94ce9a90600090a45b8660400151156119c35761192e82846120ff565b61193890876120ff565b955060008c60050160008b6001600160a01b03166001600160a01b031681526020019081526020016000208190555060008c60060160008b6001600160a01b03166001600160a01b031681526020019081526020016000208190555081896001600160a01b03168b6080015160008051602061237583398151915260405160405180910390a4611af8565b8215611a6f5760006119d584836122bb565b905060008d60050160008c6001600160a01b03166001600160a01b0316815260200190815260200160002081905550808d60060160008c6001600160a01b03166001600160a01b031681526020019081526020016000206000828254611a3b91906122bb565b909155505060808b015160405184916001600160a01b038d169160008051602061237583398151915290600090a450611ac8565b6001600160a01b038916600090815260068d01602052604081208054839290611a999084906122bb565b909155505060808a015160405182916001600160a01b038c169160008051602061237583398151915290600090a45b6001600160a01b038416600090815260068d016020526040812080548a9290611af29084906120ff565b90915550505b5050505b50509695505050505050565b6000838152600080516020612335833981519152602090815260408083206001600160a01b0386168452600a81019092529091205480611b815760405162461bcd60e51b81526020600482015260146024820152734e6f207969656c6420746f20776974686472617760601b60448201526064016102bd565b6001600160a01b038481166000908152600a8401602052604080822082905551909185169083908381818185875af1925050503d8060008114611be0576040519150601f19603f3d011682016040523d82523d6000602084013e611be5565b606091505b5050905080611bf357600080fd5b6040516001600160a01b03858116825283919087169088907fdb2460ca9a22614b8fe3f598b727569022250e691340edbbaf8ff069969155f09060200160405180910390a4505050505050565b600083815260008051602061233583398151915260205260408120600581015460038201548391611c7391879190611e34565b6001600160a01b0385166000908152600984016020526040812080549293508792909190611ca29084906120ff565b9250508190555084826004016000828254611cbd91906122bb565b9091555050604080516605a61796e5a61760cc1b815260018401600782018190529151908190036027018120546816985e5b95985d5b1d60ba1b82526001600160a01b031691600091600901908152604051908190036020018120546316d5e29b60e11b82526001600160a01b039081166004830181905260248301869052604483018b9052925060009190841690632dabc536906064016020604051808303816000875af1158015611d74573d6000803e3d6000fd5b505050506040513d601f19601f82011682018060405250810190611d989190612272565b905087811015611db057600095505050505050611e2d565b6000611dbc89836122bb565b6001600160a01b0389166000908152600888016020526040812080549293508392909190611deb9084906120ff565b90915550506001600160a01b0388166000908152600a8701602052604081208054839290611e1a9084906120ff565b90915550909650611e2d95505050505050565b9392505050565b600081600003611e4657506000611e2d565b81611e51848661225b565b6113de91906120dd565b634e487b7160e01b600052604160045260246000fd5b604051610160810167ffffffffffffffff81118282101715611e9557611e95611e5b565b60405290565b801515811461040d57600080fd5b8035611eb481611e9b565b919050565b803560048110611eb457600080fd5b6001600160a01b038116811461040d57600080fd5b8035611eb481611ec8565b60008083601f840112611efa57600080fd5b50813567ffffffffffffffff811115611f1257600080fd5b6020830191508360208260051b8501011115610c8757600080fd5b6000806000838503610180811215611f4457600080fd5b61016080821215611f5457600080fd5b611f5c611e71565b9150611f6786611ea9565b8252611f7560208701611eb9565b6020830152611f8660408701611edd565b6040830152606086013560608301526080860135608083015260a086013560a083015260c086013560c083015260e086013560e0830152610100808701358184015250610120808701358184015250610140611fe3818801611edd565b9083015290935084013567ffffffffffffffff81111561200257600080fd5b61200e86828701611ee8565b9497909650939450505050565b6020808252825182820181905260009190848201906040850190845b8181101561205c5783516001600160a01b031683529284019291840191600101612037565b50909695505050505050565b60006020828403121561207a57600080fd5b5035919050565b6000806040838503121561209457600080fd5b8235915060208301356120a681611ec8565b809150509250929050565b634e487b7160e01b600052603260045260246000fd5b634e487b7160e01b600052601160045260246000fd5b6000826120fa57634e487b7160e01b600052601260045260246000fd5b500490565b80820180821115611529576115296120c7565b634e487b7160e01b600052602160045260246000fd5b600080600080600080600080610100898b03121561214557600080fd5b885161215081611e9b565b809850506020808a01516005811061216757600080fd5b60408b015190985061217881611ec8565b60608b015190975067ffffffffffffffff8082111561219657600080fd5b818c0191508c601f8301126121aa57600080fd5b8151818111156121bc576121bc611e5b565b8060051b604051601f19603f830116810181811085821117156121e1576121e1611e5b565b60405291825284820192508381018501918f8311156121ff57600080fd5b938501935b82851015612229578451915061221982611ec8565b8184529385019392850192612204565b809a505050505050506080890151935060a0890151925060c0890151915060e089015190509295985092959890939650565b8082028115828204841417611529576115296120c7565b60006020828403121561228457600080fd5b5051919050565b60006001820161229d5761229d6120c7565b5060010190565b6000816122b3576122b36120c7565b506000190190565b81810381811115611529576115296120c7565b600080600080600060a086880312156122e657600080fd5b85516122f181611e9b565b602087015160408801516060890151608090990151929a91995097965090945092505050565b60006020828403121561232957600080fd5b8151611e2d81611ec856fe29d9cba46c358ba7c1b8945751229339792c7c62e3197c240fa98916e75ffbf96751f7e27cecf86d7136f5749c224248cae80a39fafb59f8f6bf12c52816307c9ecbf86544b133eb80eba635946daf018f997778387601f4c8d43c851b2ec07435fa70a6f9ae8a4d427ebe0c1be62ffd2870fecc1df41c6fda0bf5803e562888a26469706673582212208a73cf51cecd950538b3df08547f611ae7c4dc7b9bae10db5b32fda672457f0864736f6c63430008120033",
  "devdoc": {
    "author": "Aisha El Allam",
    "details": "v3.0 (Diamond)",
    "kind": "dev",
    "methods": {
      "emptyCollateralAfterEnd(uint256)": {
        "params": {
          "termId": "The term id"
        }
      },
      "releaseCollateral(uint256)": {
        "params": {
          "termId": "term id"
        }
      },
      "requestContribution((bool,uint8,address,uint256,uint256,uint256,uint256,uint256,uint256,uint256,address),address[])": {
        "details": "Check EnumerableMap (openzeppelin) for arrays that are being accessed from Fund contract",
        "params": {
          "defaulters": "Addressess of all defaulters of the current cycle"
        },
        "returns": {
          "_0": "expellants array of addresses that were expelled"
        }
      },
      "withdrawCollateral(uint256)": {
        "details": "This follows the pull-over-push pattern.",
        "params": {
          "termId": "term id"
        }
      },
      "withdrawCollateralToAnotherAddress(uint256,address)": {
        "details": "This follows the pull-over-push pattern.",
        "params": {
          "receiver": "receiver address",
          "termId": "term id"
        }
      }
    },
    "title": "Takaturn Collateral",
    "version": 1
  },
  "userdoc": {
    "kind": "user",
    "methods": {
      "emptyCollateralAfterEnd(uint256)": {
        "notice": "allow the owner to empty the Collateral after 180 days"
      },
      "requestContribution((bool,uint8,address,uint256,uint256,uint256,uint256,uint256,uint256,uint256,address),address[])": {
        "notice": "Called from Fund contract when someone defaults"
      },
      "withdrawCollateral(uint256)": {
        "notice": "Called by each member after during or at the end of the term to withraw collateral"
      },
      "withdrawCollateralToAnotherAddress(uint256,address)": {
        "notice": "Called by each member after during or at the end of the term to withraw collateral"
      }
    },
    "notice": "This is used to operate the Takaturn collateral",
    "version": 1
  },
  "storageLayout": {
    "storage": [],
    "types": null
  }
}