{
  "address": "0xFF334F35E39207032A33371c141512CC53d254B9",
  "abi": [
    {
      "inputs": [],
      "name": "init",
      "outputs": [],
      "stateMutability": "nonpayable",
      "type": "function"
    }
  ],
  "transactionHash": "0xa7466fae5bb23e1e820974281dd5e504de737dc48b9787925dfaf29c0c7c2e68",
  "args": [],
  "numDeployments": 1,
  "solcInputHash": "be7b57ce45c34b546ad2dd923dcb09b5",
  "bytecode": "0x6080604052348015600f57600080fd5b5060cf8061001e6000396000f3fe6080604052348015600f57600080fd5b506004361060285760003560e01c8063e1c7392a14602d575b600080fd5b610e107f138fa7b895cc6132bd44317f3510a9c38821e93ca223f9fdc532527c01963ec4557f138fa7b895cc6132bd44317f3510a9c38821e93ca223f9fdc532527c01963ec580546001600160a01b03191673fdb631f5ee196f0ed6faa767959853a9f217697d17905500fea2646970667358221220e8ab91bd697815b24392dc1b588d682c8778c484bdcc550943f531206e87dfc464736f6c63430008120033",
  "devdoc": {
    "kind": "dev",
    "methods": {},
    "version": 1
  },
  "userdoc": {
    "kind": "user",
    "methods": {},
    "version": 1
  },
  "storageLayout": {
    "storage": [],
    "types": null
  }
}