{
  "address": "0x89520Df74b37E3EF56888E39D2503e20f2162aF5",
  "abi": [
    {
      "inputs": [],
      "name": "init",
      "outputs": [],
      "stateMutability": "nonpayable",
      "type": "function"
    }
  ],
  "transactionHash": "0x906e866e5507375c52b12bc8f3d968f48981014f458194ad014b254a6af85130",
  "args": [],
  "numDeployments": 1,
  "solcInputHash": "be7b57ce45c34b546ad2dd923dcb09b5",
  "bytecode": "0x6080604052348015600f57600080fd5b5060cf8061001e6000396000f3fe6080604052348015600f57600080fd5b506004361060285760003560e01c8063e1c7392a14602d575b600080fd5b610e107f138fa7b895cc6132bd44317f3510a9c38821e93ca223f9fdc532527c01963ec4557f138fa7b895cc6132bd44317f3510a9c38821e93ca223f9fdc532527c01963ec580546001600160a01b03191673fdb631f5ee196f0ed6faa767959853a9f217697d17905500fea2646970667358221220a3c3cdc616e22c1f6d10f3c2f93ea424e4fdc4b4058bd0a45ea61e0f92d7295164736f6c63430008120033",
  "devdoc": {
    "kind": "dev",
    "methods": {},
    "version": 1
  },
  "userdoc": {
    "kind": "user",
    "methods": {},
    "version": 1
  },
  "storageLayout": {
    "storage": [],
    "types": null
  }
}