{
  "address": "0x6Aee547a822762F63794e840434B2343093B8EcE",
  "abi": [
    {
      "inputs": [
        {
          "internalType": "address",
          "name": "_aggregatorAddressEthUsd",
          "type": "address"
        },
        {
          "internalType": "address",
          "name": "_aggregatorAddressUsdUsdc",
          "type": "address"
        },
        {
          "internalType": "address",
          "name": "_sequencerUptimeFeedAddress",
          "type": "address"
        },
        {
          "internalType": "address",
          "name": "_zapAddress",
          "type": "address"
        },
        {
          "internalType": "address",
          "name": "_vaultAddress",
          "type": "address"
        }
      ],
      "name": "init",
      "outputs": [],
      "stateMutability": "nonpayable",
      "type": "function"
    }
  ],
  "transactionHash": "0x66addae8f6353d4bac68d55469cc12481ea266a9ab5c6833afa9e49146b0afc6",
  "args": [],
  "numDeployments": 1,
  "solcInputHash": "9f7a732c1897a3dc667c51fd3f255384",
  "bytecode": "0x608060405234801561001057600080fd5b5061025d806100206000396000f3fe608060405234801561001057600080fd5b506004361061002b5760003560e01c8063359ef75b14610030575b600080fd5b6101a461003e3660046101c2565b610e107f138fa7b895cc6132bd44317f3510a9c38821e93ca223f9fdc532527c01963ec45560408051661155120bd554d160ca1b81527f138fa7b895cc6132bd44317f3510a9c38821e93ca223f9fdc532527c01963ec660078083018290528351928390036027908101842080546001600160a01b039b8c166001600160a01b031991821617909155675553442f5553444360c01b8552600885019390935284519384900360280184208054998b16998416999099179098557f138fa7b895cc6132bd44317f3510a9c38821e93ca223f9fdc532527c01963ec58054978a16978316979097179096556605a61796e5a61760cc1b82527ff27a5986330dc78d016d8604ee1a040d5a789fbaa2d0c27f5dfded4b616b897795820186905282519182900390960181208054948816948716949094179093556816985e5b95985d5b1d60ba1b8352600983019390935291519081900360290190208054919093169116179055565b005b80356001600160a01b03811681146101bd57600080fd5b919050565b600080600080600060a086880312156101da57600080fd5b6101e3866101a6565b94506101f1602087016101a6565b93506101ff604087016101a6565b925061020d606087016101a6565b915061021b608087016101a6565b9050929550929590935056fea264697066735822122021edcdb0b03188fa853a35f1cd2a007de5311b73ee2c1d1ca67d906d66c041b964736f6c63430008120033",
  "devdoc": {
    "kind": "dev",
    "methods": {},
    "version": 1
  },
  "userdoc": {
    "kind": "user",
    "methods": {},
    "version": 1
  },
  "storageLayout": {
    "storage": [],
    "types": null
  }
}