{
  "address": "0xd3ee56bC2a0Baf1a081Ac37BD7E742206c11078C",
  "abi": [
    {
      "inputs": [
        {
          "internalType": "address",
          "name": "_sequencerUptimeFeedAddress",
          "type": "address"
        }
      ],
      "name": "init",
      "outputs": [],
      "stateMutability": "nonpayable",
      "type": "function"
    }
  ],
  "transactionHash": "0xf34dcb51020f83fe9e095fbd57617d8f2fb7719622693f076662b09283d09f08",
  "args": [],
  "numDeployments": 1,
  "solcInputHash": "9f7a732c1897a3dc667c51fd3f255384",
  "bytecode": "0x608060405234801561001057600080fd5b50610104806100206000396000f3fe6080604052348015600f57600080fd5b506004361060285760003560e01c806319ab453c14602d575b600080fd5b609e603836600460a0565b610e107f138fa7b895cc6132bd44317f3510a9c38821e93ca223f9fdc532527c01963ec4557f138fa7b895cc6132bd44317f3510a9c38821e93ca223f9fdc532527c01963ec580546001600160a01b0319166001600160a01b0392909216919091179055565b005b60006020828403121560b157600080fd5b81356001600160a01b038116811460c757600080fd5b939250505056fea26469706673582212202aaa3a1a94bfe9fe22be90b0656a1da94a1b9efadcdae398a30908a445de453e64736f6c63430008120033",
  "devdoc": {
    "kind": "dev",
    "methods": {},
    "version": 1
  },
  "userdoc": {
    "kind": "user",
    "methods": {},
    "version": 1
  },
  "storageLayout": {
    "storage": [],
    "types": null
  }
}