{
  "address": "0xc433C19eb9C50201b91F208e9C68A13C6F53EcE6",
  "abi": [
    {
      "inputs": [
        {
          "internalType": "address",
          "name": "_aggregatorAddressEthUsd",
          "type": "address"
        },
        {
          "internalType": "address",
          "name": "_aggregatorAddressUsdUsdc",
          "type": "address"
        },
        {
          "internalType": "address",
          "name": "_sequencerUptimeFeedAddress",
          "type": "address"
        },
        {
          "internalType": "address",
          "name": "_zapAddress",
          "type": "address"
        },
        {
          "internalType": "address",
          "name": "_vaultAddress",
          "type": "address"
        }
      ],
      "name": "init",
      "outputs": [],
      "stateMutability": "nonpayable",
      "type": "function"
    }
  ],
  "transactionHash": "0x17eadd6f8781957656709425a1903ef273bdb3495f4e67bdb900b4622f849d06",
  "args": [],
  "numDeployments": 1,
  "solcInputHash": "7fd8a3dd9f976d40ffd25cccf6b1d82b",
  "bytecode": "0x608060405234801561001057600080fd5b50610292806100206000396000f3fe608060405234801561001057600080fd5b506004361061002b5760003560e01c8063359ef75b14610030575b600080fd5b6101d961003e3660046101f7565b610e107f138fa7b895cc6132bd44317f3510a9c38821e93ca223f9fdc532527c01963ec45560408051661155120bd554d160ca1b81527f138fa7b895cc6132bd44317f3510a9c38821e93ca223f9fdc532527c01963ec660078201819052825191829003602701822080546001600160a01b03998a166001600160a01b031991821617909155675553442f5553444360c01b83526008830191909152915190819003602801902080548216958716959095179094557f138fa7b895cc6132bd44317f3510a9c38821e93ca223f9fdc532527c01963ec580548516938616939093179092557ff27a5986330dc78d016d8604ee1a040d5a789fbaa2d0c27f5dfded4b616b8977805460018181019092557f54e8a8686ff29033917bc917388e94ee8b0e942325ab3b576948d3ffa3ebccb10180548516928616929092179091557ff27a5986330dc78d016d8604ee1a040d5a789fbaa2d0c27f5dfded4b616b8978805491820181556000527fe5591b53b1a2fd8dff683feb4bd68b5f3fa07da820c1872a04be039644835eda0180549092169216919091179055565b005b80356001600160a01b03811681146101f257600080fd5b919050565b600080600080600060a0868803121561020f57600080fd5b610218866101db565b9450610226602087016101db565b9350610234604087016101db565b9250610242606087016101db565b9150610250608087016101db565b9050929550929590935056fea26469706673582212200e0df0425a53da808786fa723c57c608e35a0da2e335de21b0ec0c79a15ca0fa64736f6c63430008120033",
  "devdoc": {
    "kind": "dev",
    "methods": {},
    "version": 1
  },
  "userdoc": {
    "kind": "user",
    "methods": {},
    "version": 1
  },
  "storageLayout": {
    "storage": [],
    "types": null
  }
}