{
  "address": "0x850eFc4C3Ac6d5B9dc407a4BEDDd4C5F3661Efae",
  "abi": [
    {
      "inputs": [
        {
          "internalType": "address",
          "name": "_aggregatorAddress",
          "type": "address"
        },
        {
          "internalType": "address",
          "name": "_sequencerUptimeFeedAddress",
          "type": "address"
        }
      ],
      "name": "init",
      "outputs": [],
      "stateMutability": "nonpayable",
      "type": "function"
    }
  ],
  "transactionHash": "0x6f9510cc58465dd9d5fef7043a7100438bc07341e2b2d699361716e2369ecd52",
  "args": [],
  "numDeployments": 1,
  "solcInputHash": "fcf3f5ced1f3d5f96be9fe2a13cdc034",
  "bytecode": "0x608060405234801561001057600080fd5b50610156806100206000396000f3fe608060405234801561001057600080fd5b506004361061002b5760003560e01c8063f09a401614610030575b600080fd5b6100cf61003e3660046100ed565b610e107f138fa7b895cc6132bd44317f3510a9c38821e93ca223f9fdc532527c01963ec4557f138fa7b895cc6132bd44317f3510a9c38821e93ca223f9fdc532527c01963ec680546001600160a01b039384166001600160a01b0319918216179091557f138fa7b895cc6132bd44317f3510a9c38821e93ca223f9fdc532527c01963ec58054929093169116179055565b005b80356001600160a01b03811681146100e857600080fd5b919050565b6000806040838503121561010057600080fd5b610109836100d1565b9150610117602084016100d1565b9050925092905056fea2646970667358221220cbddf68a6a2b50414f945865d04df314d17af06c58ee083745587898a4753fec64736f6c63430008120033",
  "devdoc": {
    "kind": "dev",
    "methods": {},
    "version": 1
  },
  "userdoc": {
    "kind": "user",
    "methods": {},
    "version": 1
  },
  "storageLayout": {
    "storage": [],
    "types": null
  }
}