{
  "address": "0x87C590778B35381A631824e835298286dd63f160",
  "abi": [
    {
      "inputs": [
        {
          "internalType": "address",
          "name": "_aggregatorAddressEthUsd",
          "type": "address"
        },
        {
          "internalType": "address",
          "name": "_aggregatorAddressUsdUsdc",
          "type": "address"
        },
        {
          "internalType": "address",
          "name": "_zapAddress",
          "type": "address"
        },
        {
          "internalType": "address",
          "name": "_vaultAddress",
          "type": "address"
        },
        {
          "internalType": "bool",
          "name": "_yieldLock",
          "type": "bool"
        }
      ],
      "name": "init",
      "outputs": [],
      "stateMutability": "nonpayable",
      "type": "function"
    }
  ],
  "transactionHash": "0x508fb255376d68cc3df23170c6d92f9e4524940a6f2724f4c27aaeac07a40ffb",
  "args": [],
  "numDeployments": 1,
  "solcInputHash": "d25be983011165319fdf8e1b2c569254",
  "bytecode": "0x608060405234801561001057600080fd5b50610246806100206000396000f3fe608060405234801561001057600080fd5b506004361061002b5760003560e01c80639ff6ec0a14610030575b600080fd5b61018461003e3660046101a2565b60408051661155120bd554d160ca1b81527f138fa7b895cc6132bd44317f3510a9c38821e93ca223f9fdc532527c01963ec460078083018290528351928390036027908101842080546001600160a01b038c81166001600160a01b031992831617909255671554d110cbd554d160c21b865260088601859052865195869003602801862080548c84169083161790556605a61796e5a61760cc1b86527ff27a5986330dc78d016d8604ee1a040d5a789fbaa2d0c27f5dfded4b616b8977938601849052865195869003909201852080548a83169084161790556816985e5b95985d5b1d60ba1b8552600985018390529451938490036029019093208054948716949093169390931790915590827f7c039906f7f8ca11e01b6987a88513563589699678f7d2a6c8447f44d69375f3805460ff191691151591909117905550505050505050565b005b80356001600160a01b038116811461019d57600080fd5b919050565b600080600080600060a086880312156101ba57600080fd5b6101c386610186565b94506101d160208701610186565b93506101df60408701610186565b92506101ed60608701610186565b91506080860135801515811461020257600080fd5b80915050929550929590935056fea2646970667358221220869a72d95dc4bb6fece05473448ac4d06436ac9cd25327a2e9ff6f9493d35f6f64736f6c63430008120033",
  "devdoc": {
    "kind": "dev",
    "methods": {},
    "version": 1
  },
  "userdoc": {
    "kind": "user",
    "methods": {},
    "version": 1
  },
  "storageLayout": {
    "storage": [],
    "types": null
  }
}