{
  "address": "0x375077D1D4a022C7e2087f67f6EaE27a8e7a63c3",
  "abi": [
    {
      "inputs": [
        {
          "internalType": "uint256",
          "name": "available",
          "type": "uint256"
        },
        {
          "internalType": "uint256",
          "name": "required",
          "type": "uint256"
        }
      ],
      "name": "InsufficientBalance",
      "type": "error"
    },
    {
      "anonymous": false,
      "inputs": [
        {
          "indexed": true,
          "internalType": "uint256",
          "name": "termId",
          "type": "uint256"
        },
        {
          "indexed": true,
          "internalType": "address",
          "name": "participant",
          "type": "address"
        },
        {
          "indexed": true,
          "internalType": "bool",
          "name": "enabled",
          "type": "bool"
        }
      ],
      "name": "OnAutoPayToggled",
      "type": "event"
    },
    {
      "anonymous": false,
      "inputs": [
        {
          "indexed": true,
          "internalType": "uint256",
          "name": "termId",
          "type": "uint256"
        },
        {
          "indexed": true,
          "internalType": "address",
          "name": "beneficiary",
          "type": "address"
        }
      ],
      "name": "OnBeneficiarySelected",
      "type": "event"
    },
    {
      "anonymous": false,
      "inputs": [
        {
          "indexed": true,
          "internalType": "uint256",
          "name": "termId",
          "type": "uint256"
        },
        {
          "indexed": true,
          "internalType": "address",
          "name": "expellant",
          "type": "address"
        }
      ],
      "name": "OnDefaulterExpelled",
      "type": "event"
    },
    {
      "anonymous": false,
      "inputs": [
        {
          "indexed": true,
          "internalType": "uint256",
          "name": "termId",
          "type": "uint256"
        },
        {
          "indexed": true,
          "internalType": "enum LibFundV2.FundStates",
          "name": "newState",
          "type": "uint8"
        }
      ],
      "name": "OnFundStateChanged",
      "type": "event"
    },
    {
      "anonymous": false,
      "inputs": [
        {
          "indexed": true,
          "internalType": "uint256",
          "name": "termId",
          "type": "uint256"
        },
        {
          "indexed": true,
          "internalType": "address",
          "name": "claimant",
          "type": "address"
        },
        {
          "indexed": true,
          "internalType": "uint256",
          "name": "amount",
          "type": "uint256"
        }
      ],
      "name": "OnFundWithdrawn",
      "type": "event"
    },
    {
      "anonymous": false,
      "inputs": [
        {
          "indexed": true,
          "internalType": "uint256",
          "name": "termId",
          "type": "uint256"
        },
        {
          "indexed": true,
          "internalType": "address",
          "name": "payer",
          "type": "address"
        },
        {
          "indexed": true,
          "internalType": "uint256",
          "name": "currentCycle",
          "type": "uint256"
        }
      ],
      "name": "OnPaidContribution",
      "type": "event"
    },
    {
      "anonymous": false,
      "inputs": [
        {
          "indexed": true,
          "internalType": "uint256",
          "name": "termId",
          "type": "uint256"
        },
        {
          "indexed": true,
          "internalType": "address",
          "name": "defaulter",
          "type": "address"
        }
      ],
      "name": "OnParticipantDefaulted",
      "type": "event"
    },
    {
      "anonymous": false,
      "inputs": [
        {
          "indexed": true,
          "internalType": "uint256",
          "name": "termId",
          "type": "uint256"
        },
        {
          "indexed": true,
          "internalType": "address",
          "name": "undefaulter",
          "type": "address"
        }
      ],
      "name": "OnParticipantUndefaulted",
      "type": "event"
    },
    {
      "anonymous": false,
      "inputs": [
        {
          "indexed": true,
          "internalType": "uint256",
          "name": "termId",
          "type": "uint256"
        }
      ],
      "name": "OnTermStart",
      "type": "event"
    },
    {
      "anonymous": false,
      "inputs": [
        {
          "indexed": true,
          "internalType": "uint256",
          "name": "termId",
          "type": "uint256"
        },
        {
          "indexed": true,
          "internalType": "uint256",
          "name": "newLength",
          "type": "uint256"
        }
      ],
      "name": "OnTotalParticipantsUpdated",
      "type": "event"
    },
    {
      "anonymous": false,
      "inputs": [
        {
          "indexed": true,
          "internalType": "address",
          "name": "previousTermOwner",
          "type": "address"
        },
        {
          "indexed": true,
          "internalType": "address",
          "name": "newTermOwner",
          "type": "address"
        }
      ],
      "name": "TermOwnershipTransferred",
      "type": "event"
    },
    {
      "inputs": [],
      "name": "FUND_VERSION",
      "outputs": [
        {
          "internalType": "uint256",
          "name": "",
          "type": "uint256"
        }
      ],
      "stateMutability": "view",
      "type": "function"
    },
    {
      "inputs": [
        {
          "internalType": "uint256",
          "name": "id",
          "type": "uint256"
        }
      ],
      "name": "awardBeneficiary",
      "outputs": [],
      "stateMutability": "nonpayable",
      "type": "function"
    },
    {
      "inputs": [
        {
          "internalType": "uint256",
          "name": "id",
          "type": "uint256"
        }
      ],
      "name": "closeFund",
      "outputs": [],
      "stateMutability": "nonpayable",
      "type": "function"
    },
    {
      "inputs": [
        {
          "internalType": "uint256",
          "name": "id",
          "type": "uint256"
        }
      ],
      "name": "closeFundingPeriod",
      "outputs": [],
      "stateMutability": "nonpayable",
      "type": "function"
    },
    {
      "inputs": [
        {
          "internalType": "uint256",
          "name": "id",
          "type": "uint256"
        }
      ],
      "name": "emptyFundAfterEnd",
      "outputs": [],
      "stateMutability": "nonpayable",
      "type": "function"
    },
    {
      "inputs": [
        {
          "internalType": "uint256",
          "name": "termId",
          "type": "uint256"
        }
      ],
      "name": "initFund",
      "outputs": [],
      "stateMutability": "nonpayable",
      "type": "function"
    },
    {
      "inputs": [
        {
          "internalType": "uint256",
          "name": "id",
          "type": "uint256"
        },
        {
          "internalType": "address",
          "name": "beneficiary",
          "type": "address"
        }
      ],
      "name": "isBeneficiary",
      "outputs": [
        {
          "internalType": "bool",
          "name": "",
          "type": "bool"
        }
      ],
      "stateMutability": "view",
      "type": "function"
    },
    {
      "inputs": [
        {
          "internalType": "uint256",
          "name": "id",
          "type": "uint256"
        }
      ],
      "name": "payContribution",
      "outputs": [],
      "stateMutability": "nonpayable",
      "type": "function"
    },
    {
      "inputs": [
        {
          "internalType": "uint256",
          "name": "id",
          "type": "uint256"
        },
        {
          "internalType": "address",
          "name": "participant",
          "type": "address"
        }
      ],
      "name": "payContributionOnBehalfOf",
      "outputs": [],
      "stateMutability": "nonpayable",
      "type": "function"
    },
    {
      "inputs": [
        {
          "internalType": "uint256",
          "name": "id",
          "type": "uint256"
        }
      ],
      "name": "startNewCycle",
      "outputs": [],
      "stateMutability": "nonpayable",
      "type": "function"
    },
    {
      "inputs": [
        {
          "internalType": "uint256",
          "name": "id",
          "type": "uint256"
        }
      ],
      "name": "toggleAutoPay",
      "outputs": [],
      "stateMutability": "nonpayable",
      "type": "function"
    },
    {
      "inputs": [
        {
          "internalType": "uint256",
          "name": "id",
          "type": "uint256"
        }
      ],
      "name": "withdrawFund",
      "outputs": [],
      "stateMutability": "nonpayable",
      "type": "function"
    }
  ],
  "transactionHash": "0xb941d796ae80c2d6c25da59d009ddf7574ed1cdc48531bb2d2b3bf10c44bce33",
  "args": [],
  "numDeployments": 1,
  "solcInputHash": "fcf3f5ced1f3d5f96be9fe2a13cdc034",
  "bytecode": "0x608060405234801561001057600080fd5b50612717806100206000396000f3fe608060405234801561001057600080fd5b50600436106100b45760003560e01c80638443162911610071578063844316291461012d578063bd241d2014610140578063e412c44d14610153578063e9783e6014610166578063ea28b9bb1461018e578063f7af18f6146101a157600080fd5b80630cee1725146100b95780632009844b146100ce5780634b5c9c80146100e157806358733dec146100f4578063609a4970146101075780637be2ecea1461011a575b600080fd5b6100cc6100c73660046122d9565b6101b7565b005b6100cc6100dc3660046122d9565b61054e565b6100cc6100ef3660046122d9565b6107a0565b6100cc6101023660046122d9565b610973565b6100cc6101153660046122d9565b610d25565b6100cc6101283660046122d9565b610d3c565b6100cc61013b366004612307565b610d48565b6100cc61014e3660046122d9565b610faf565b6100cc6101613660046122d9565b6110aa565b610179610174366004612307565b611118565b60405190151581526020015b60405180910390f35b6100cc61019c3660046122d9565b611155565b6101a9600281565b604051908152602001610185565b6000818152600080516020612682833981519152602052604090208054600490610100900460ff16818111156101ef576101ef612337565b148061020c575033600090815260068201602052604090205460ff165b61025d5760405162461bcd60e51b815260206004820152601960248201527f596f75206d75737420626520612062656e65666963696172790000000000000060448201526064015b60405180910390fd5b33600081815260098301602052604080822054905163bb91b76d60e01b8152600481019390935260248301859052151591309063bb91b76d90604401608060405180830381865afa1580156102b6573d6000803e3d6000fd5b505050506040513d601f19601f820116820180604052508101906102da9190612362565b509250505080151582806102eb5750805b61032d5760405162461bcd60e51b81526020600482015260136024820152724e6f7468696e6720746f20776974686472617760681b6044820152606401610254565b82156104e95733600090815260098501602052604080822054865491516370a0823160e01b81523060048201529092916201000090046001600160a01b0316906370a0823190602401602060405180830381865afa158015610393573d6000803e3d6000fd5b505050506040513d601f19601f820116820180604052508101906103b7919061239f565b9050818110156103e45760405163cf47918160e01b81526004810182905260248101839052604401610254565b3360008181526009880160205260408082208290558854905163a9059cbb60e01b81526004810193909352602483018590529091620100009091046001600160a01b03169063a9059cbb906044016020604051808303816000875af1158015610451573d6000803e3d6000fd5b505050506040513d601f19601f8201168201806040525081019061047591906123b8565b9050806104b65760405162461bcd60e51b815260206004820152600f60248201526e151c985b9cd9995c8819985a5b1959608a1b6044820152606401610254565b506040518290339089907f31b332de0dccb2d0ed351b3d65a9e10b099b3e3c63f4a6f5ea1810b4d757795c90600090a450505b80156105475760405163ae483d0760e01b815260048101869052336024820152309063ae483d0790604401600060405180830381600087803b15801561052e57600080fd5b505af1158015610542573d6000803e3d6000fd5b505050505b5050505050565b6000818152600080516020612682833981519152602090815260408083206000805160206126c28339815191528352818420825163d8f8e99160e01b8152600481018790529251919490939092309263d8f8e991926024808401939192918290030181865afa1580156105c5573d6000803e3d6000fd5b505050506040513d601f19601f820116820180604052508101906105e991906123de565b905060018354610100900460ff16600481111561060857610608612337565b146106255760405162461bcd60e51b8152600401610254906123fb565b33600090815260058401602052604090205460ff166106565760405162461bcd60e51b815260040161025490612420565b336001600160a01b038216036106a85760405162461bcd60e51b815260206004820152601760248201527642656e656669636961727920646f65736e27742070617960481b6044820152606401610254565b33600090815260078401602052604090205460ff16156107035760405162461bcd60e51b8152602060048201526016602482015275416c7265616479207061696420666f72206379636c6560501b6044820152606401610254565b6001600160a01b038116600090815260058401602052604090205460ff1615801561074957506001600160a01b038116600090815260048301602052604090205460ff16155b1561078f5733600090815260068401602052604090205460ff1661077f5760405162461bcd60e51b81526004016102549061244b565b61078a8433336111f6565b61079a565b61079a8433336111f6565b50505050565b806107aa81611390565b6000828152600080516020612682833981519152602052604090208054600490610100900460ff16818111156107e2576107e2612337565b1480156107ff575060038101546107fc9062ed4e006124ac565b42115b61083d5760405162461bcd60e51b815260206004820152600f60248201526e10d85b89dd08195b5c1d1e481e595d608a1b6044820152606401610254565b80546040516370a0823160e01b81523060048201526000916201000090046001600160a01b0316906370a0823190602401602060405180830381865afa15801561088b573d6000803e3d6000fd5b505050506040513d601f19601f820116820180604052508101906108af919061239f565b9050801561079a57815460405163a9059cbb60e01b8152336004820152602481018390526000916201000090046001600160a01b03169063a9059cbb906044016020604051808303816000875af115801561090e573d6000803e3d6000fd5b505050506040513d601f19601f8201168201806040525081019061093291906123b8565b9050806105475760405162461bcd60e51b815260206004820152600f60248201526e151c985b9cd9995c8819985a5b1959608a1b6044820152606401610254565b6000818152600080516020612682833981519152602090815260408083206000805160206126a283398151915283528184206000805160206126c283398151915290935292206006820154600284015460048501546109d4906001906124bf565b84600401546109e391906124d2565b6109ed91906124ac565b6109f791906124ac565b4211610a455760405162461bcd60e51b815260206004820152601860248201527f5374696c6c2074696d6520746f20636f6e7472696275746500000000000000006044820152606401610254565b60018354610100900460ff166004811115610a6257610a62612337565b14610a7f5760405162461bcd60e51b8152600401610254906123fb565b60405163d8f8e99160e01b815260048101859052600090309063d8f8e99190602401602060405180830381865afa158015610abe573d6000803e3d6000fd5b505050506040513d601f19601f82011682018060405250810190610ae291906123de565b9050610aed85611415565b610af8856002611784565b600084600101805480602002602001604051908101604052809291908181526020018280548015610b5257602002820191906000526020600020905b81546001600160a01b03168152600190910190602001808311610b34575b505083519394506000925050505b81811015610cfa576000838281518110610b7c57610b7c6124e9565b60200260200101519050846001600160a01b0316816001600160a01b031603610ba85750600101610b60565b6001600160a01b038116600090815260078901602052604090205460ff1615610c5e576001600160a01b038116600090815260068901602052604090205460ff1615610c0157610bfb88600c018261185e565b50610c10565b610c0e88600a018261185e565b505b610c1d88600e018261187a565b15610c59576040516001600160a01b038216908a907f164322fe0d1a75eba2830f83779f4daaf9b8dfd5801a3798879708dd8e8ba7cc90600090a35b610cf1565b610c6b88600e018261188f565b610cf1576001600160a01b038516600090815260058901602052604090205460ff16158015610cb557506001600160a01b038516600090815260048701602052604090205460ff16155b15610ce7576001600160a01b038116600090815260068901602052604090205460ff1615610c5957610c5989826118b1565b610cf189826118b1565b50600101610b60565b50610d0487611981565b8560120154866004015410610d1c57610d1c87611cbf565b50505050505050565b80610d2f81611390565b610d3882611cbf565b5050565b610d4581611d38565b50565b6000828152600080516020612682833981519152602090815260408083206000805160206126c28339815191528352818420825163d8f8e99160e01b8152600481018890529251919490939092309263d8f8e991926024808401939192918290030181865afa158015610dbf573d6000803e3d6000fd5b505050506040513d601f19601f82011682018060405250810190610de391906123de565b905060018354610100900460ff166004811115610e0257610e02612337565b14610e1f5760405162461bcd60e51b8152600401610254906123fb565b6001600160a01b038416600090815260058401602052604090205460ff16610e595760405162461bcd60e51b815260040161025490612420565b836001600160a01b0316816001600160a01b031603610eb45760405162461bcd60e51b815260206004820152601760248201527642656e656669636961727920646f65736e27742070617960481b6044820152606401610254565b6001600160a01b038416600090815260078401602052604090205460ff1615610f185760405162461bcd60e51b8152602060048201526016602482015275416c7265616479207061696420666f72206379636c6560501b6044820152606401610254565b6001600160a01b038116600090815260058401602052604090205460ff16158015610f5e57506001600160a01b038116600090815260048301602052604090205460ff16155b15610fa45733600090815260068401602052604090205460ff16610f945760405162461bcd60e51b81526004016102549061244b565b610f9f8533866111f6565b610547565b6105478533866111f6565b600081815260008051602061268283398151915260205260408120600181015490915b8181101561106a5761101083600a01846001018381548110610ff657610ff66124e9565b6000918252602090912001546001600160a01b031661185e565b50600183600501600085600101848154811061102e5761102e6124e9565b6000918252602080832091909101546001600160a01b031683528201929092526040019020805460ff1916911515919091179055600101610fd2565b5061107483611d38565b42600283015560405183907fc3bfb99b88687651f8e660492ae2ee62a50d40e4131ace07f88ed4639b3a4bc390600090a2505050565b806110b481611390565b6000828152600080516020612682833981519152602052604090208054600290610100900460ff1660048111156110ed576110ed612337565b1461110a5760405162461bcd60e51b8152600401610254906123fb565b61111383611981565b505050565b6000828152600080516020612682833981519152602090815260408083206001600160a01b038516845260060190915290205460ff165b92915050565b600081815260008051602061268283398151915260209081526040808320338452600581019092529091205460ff166111a05760405162461bcd60e51b815260040161025490612420565b336000818152600883016020526040808220805460ff81161560ff199091168117909155905190928392909186917f8bd3cffd2d87eca262a8e2d638c1ff3d3b61c604208115af6295b089acaf72b991a4505050565b6000838152600080516020612682833981519152602090815260408083206000805160206126a2833981519152909252822060058101549192909161123e90620f42406124d2565b83546040516323b872dd60e01b81526001600160a01b0388811660048301523060248301526044820184905292935060009262010000909204909116906323b872dd906064016020604051808303816000875af11580156112a3573d6000803e3d6000fd5b505050506040513d601f19601f820116820180604052508101906112c791906123b8565b9050806113315760405162461bcd60e51b815260206004820152603260248201527f436f6e747269627574696f6e206661696c65642c2064696420796f7520617070604482015271726f766520737461626c6520746f6b656e3f60701b6064820152608401610254565b6001600160a01b0385166000818152600786016020526040808220805460ff19166001179055600487015490519092918a917fe1122b3cea22012386ebf236fc23dd8a783b91c046d5dec812901846464624ae9190a450505050505050565b60008181526000805160206126a283398151915260205260409020546001600160a01b03610100909104163314610d455760405162461bcd60e51b8152602060048201526024808201527f5465726d4f776e61626c653a2063616c6c6572206973206e6f7420746865206f6044820152633bb732b960e11b6064820152608401610254565b6000818152600080516020612682833981519152602090815260408083206000805160206126c28339815191528352818420825163d8f8e99160e01b8152600481018790529251919490939092309263d8f8e991926024808401939192918290030181865afa15801561148c573d6000803e3d6000fd5b505050506040513d601f19601f820116820180604052508101906114b091906123de565b905060008360010180548060200260200160405190810160405280929190818152602001828054801561150c57602002820191906000526020600020905b81546001600160a01b031681526001909101906020018083116114ee575b505083516001600160a01b038716600090815260058a0160205260409020549495509360ff16159250508115905061155f57506001600160a01b038316600090815260048501602052604090205460ff16155b1561168d5760005b8181101561168757856008016000848381518110611587576115876124e9565b6020908102919091018101516001600160a01b031682528101919091526040016000205460ff1680156115f657508560070160008483815181106115cd576115cd6124e9565b6020908102919091018101516001600160a01b031682528101919091526040016000205460ff16155b801561163d5750856006016000848381518110611615576116156124e9565b6020908102919091018101516001600160a01b031682528101919091526040016000205460ff165b1561167f5761167f87848381518110611658576116586124e9565b6020026020010151858481518110611672576116726124e9565b6020026020010151611ece565b600101611567565b5061177c565b60005b81811015610d1c578281815181106116aa576116aa6124e9565b60200260200101516001600160a01b0316846001600160a01b0316036116d257600101611690565b8560080160008483815181106116ea576116ea6124e9565b6020908102919091018101516001600160a01b031682528101919091526040016000205460ff1680156117595750856007016000848381518110611730576117306124e9565b6020908102919091018101516001600160a01b031682528101919091526040016000205460ff16155b156117745761177487848381518110611658576116586124e9565b600101611690565b505050505050565b6000828152600080516020612682833981519152602052604090208054600490610100900460ff16818111156117bc576117bc612337565b036117f75760405162461bcd60e51b815260206004820152600b60248201526a119d5b990818db1bdcd95960aa1b6044820152606401610254565b80548290829061ff00191661010083600481111561181757611817612337565b021790555081600481111561182e5761182e612337565b60405184907fecc339a9dbd454a10bb48d74b40c6ef6e3b22dfc541fc7c16d6114e5763a562890600090a3505050565b6000611873836001600160a01b038416611ffe565b9392505050565b6000611873836001600160a01b03841661204d565b6001600160a01b03811660009081526001830160205260408120541515611873565b600082815260008051602061268283398151915260205260408120906118da600a83018461187a565b9050806118f1576118ee82600c018461187a565b90505b806119375760405162461bcd60e51b815260206004820152601660248201527521b0b713ba103932b6b7bb32903232b330bab63a32b960511b6044820152606401610254565b61194482600e018461185e565b506040516001600160a01b0384169085907f59e9bf20dffb9054810c87236063cd66c8aacdecf2167a76c2fc486deb92c72290600090a350505050565b6000818152600080516020612682833981519152602090815260408083206000805160206126a28339815191528352818420825163d8f8e99160e01b8152600481018790529251919490939092309263d8f8e991926024808401939192918290030181865afa1580156119f8573d6000803e3d6000fd5b505050506040513d601f19601f82011682018060405250810190611a1c91906123de565b90506000611a2c84600e01612140565b1115611b285760003063e27c3ca28684611a48600e890161214a565b6040518463ffffffff1660e01b8152600401611a66939291906124ff565b6000604051808303816000875af1158015611a85573d6000803e3d6000fd5b505050506040513d6000823e601f3d908101601f19168201604052611aad9190810190612576565b805190915060005b81811015611b245760006001600160a01b0316838281518110611ada57611ada6124e9565b60200260200101516001600160a01b031603611af857600101611ab5565b611b1c8686858481518110611b0f57611b0f6124e9565b6020026020010151612157565b600101611ab5565b5050505b611b3583600a018261187a565b15611b4957611b4783600c018261185e565b505b6001600160a01b03811660009081526006840160209081526040808320805460ff19166001908117909155860180548251818502810185019093528083528493830182828015611bc257602002820191906000526020600020905b81546001600160a01b03168152600190910190602001808311611ba4575b5050505050905060005b8151811015611c3957856007016000838381518110611bed57611bed6124e9565b6020908102919091018101516001600160a01b031682528101919091526040016000205460ff1615611c275782611c238161263b565b9350505b80611c318161263b565b915050611bcc565b50818460050154611c4a91906124d2565b611c5790620f42406124d2565b6001600160a01b0384166000818152600988016020526040808220939093556011880180546001600160a01b031916831790559151909188917fe2372b1231b038f66dbcf5151afa5286deed439d6ee45c748f06e5a5ccd612709190a361177c866003611784565b600081815260008051602061268283398151915260205260409020426003820155611ceb826004611784565b6040516339007b7760e01b81526004810183905230906339007b7790602401600060405180830381600087803b158015611d2457600080fd5b505af115801561177c573d6000803e3d6000fd5b6000818152600080516020612682833981519152602090815260408083206000805160206126a2833981519152909252909120600282015460048084015490830154611d8491906124d2565b611d8e91906124ac565b4211611ddc5760405162461bcd60e51b815260206004820152601c60248201527f546f6f206561726c7920746f207374617274206e6577206379636c65000000006044820152606401610254565b60008254610100900460ff166004811115611df957611df9612337565b1480611e1f575060038254610100900460ff166004811115611e1d57611e1d612337565b145b611e3b5760405162461bcd60e51b8152600401610254906123fb565b8160040160008154611e4c9061263b565b90915550600182015460005b81811015611eb9576000846007016000866001018481548110611e7d57611e7d6124e9565b6000918252602080832091909101546001600160a01b031683528201929092526040019020805460ff1916911515919091179055600101611e58565b50611ec5846001611784565b61079a84611415565b6000838152600080516020612682833981519152602090815260408083206000805160206126a28339815191529092528220600581015491929091611f1690620f42406124d2565b83546040516323b872dd60e01b81526001600160a01b0388811660048301523060248301526044820184905292935062010000909104909116906323b872dd906064016020604051808303816000875af1925050508015611f94575060408051601f3d908101601f19168201909252611f91918101906123b8565b60015b1561177c578015610d1c576001600160a01b0385166000818152600786016020526040808220805460ff19166001179055600487015490519092918a917fe1122b3cea22012386ebf236fc23dd8a783b91c046d5dec812901846464624ae9190a450505050505050565b60008181526001830160205260408120546120455750815460018181018455600084815260208082209093018490558454848252828601909352604090209190915561114f565b50600061114f565b600081815260018301602052604081205480156121365760006120716001836124bf565b8554909150600090612085906001906124bf565b90508181146120ea5760008660000182815481106120a5576120a56124e9565b90600052602060002001549050808760000184815481106120c8576120c86124e9565b6000918252602080832090910192909255918252600188019052604090208390555b85548690806120fb576120fb612654565b60019003818190600052602060002001600090559055856001016000868152602001908152602001600020600090556001935050505061114f565b600091505061114f565b600061114f825490565b606060006118738361227d565b6001600160a01b038116600090815260058401602052604090205460ff168015612189575061218983600e018261187a565b6121cb5760405162461bcd60e51b8152602060048201526013602482015272115e1c195b1b185b9d081b9bdd08199bdd5b99606a1b6044820152606401610254565b6001600160a01b0381166000818152600585016020526040808220805460ff191690556002850154905190917fffaffc51da9546c32f4d0ddf1c944d8ca87b053b905bb2b694978874b620858391a3816003016000815461222b9061266a565b909155506010830180546000906122419061263b565b90915550600382015460028301546040517fe817db35ffcfd7ab4de59cd38a99d674f761815667cbc3241bebf20e7da1b6e890600090a3505050565b6060816000018054806020026020016040519081016040528092919081815260200182805480156122cd57602002820191906000526020600020905b8154815260200190600101908083116122b9575b50505050509050919050565b6000602082840312156122eb57600080fd5b5035919050565b6001600160a01b0381168114610d4557600080fd5b6000806040838503121561231a57600080fd5b82359150602083013561232c816122f2565b809150509250929050565b634e487b7160e01b600052602160045260246000fd5b8051801515811461235d57600080fd5b919050565b6000806000806080858703121561237857600080fd5b6123818561234d565b60208601516040870151606090970151919890975090945092505050565b6000602082840312156123b157600080fd5b5051919050565b6000602082840312156123ca57600080fd5b6118738261234d565b805161235d816122f2565b6000602082840312156123f057600080fd5b8151611873816122f2565b6020808252600b908201526a57726f6e6720737461746560a81b604082015260600190565b602080825260119082015270139bdd0818481c185c9d1a58da5c185b9d607a1b604082015260600190565b6020808252602b908201527f4f6e6c792070726576696f75732062656e65666963696172696573207061797360408201526a2074686973206379636c6560a81b606082015260800190565b634e487b7160e01b600052601160045260246000fd5b8082018082111561114f5761114f612496565b8181038181111561114f5761114f612496565b808202811582820484141761114f5761114f612496565b634e487b7160e01b600052603260045260246000fd5b600060608201858352602060018060a01b038087168286015260606040860152828651808552608087019150838801945060005b81811015612551578551841683529484019491840191600101612533565b50909998505050505050505050565b634e487b7160e01b600052604160045260246000fd5b6000602080838503121561258957600080fd5b825167ffffffffffffffff808211156125a157600080fd5b818501915085601f8301126125b557600080fd5b8151818111156125c7576125c7612560565b8060051b604051601f19603f830116810181811085821117156125ec576125ec612560565b60405291825284820192508381018501918883111561260a57600080fd5b938501935b8285101561262f57612620856123d3565b8452938501939285019261260f565b98975050505050505050565b60006001820161264d5761264d612496565b5060010190565b634e487b7160e01b600052603160045260246000fd5b60008161267957612679612496565b50600019019056fe6751f7e27cecf86d7136f5749c224248cae80a39fafb59f8f6bf12c52816307c87101b21d556417ad2b8e8f2700dbad90721d5d50a1f435f2dee0b9dc981ac8a35fa70a6f9ae8a4d427ebe0c1be62ffd2870fecc1df41c6fda0bf5803e562888a26469706673582212209b3caf99ed02b56888d85c63f7dba424c60def79b51e20b5f8d07e929c5d933c64736f6c63430008120033",
  "devdoc": {
    "author": "Mohammed Haddouti",
    "details": "v3.0 (Diamond)",
    "errors": {
      "InsufficientBalance(uint256,uint256)": [
        {
          "params": {
            "available": "balance available.",
            "required": "requested amount to transfer."
          }
        }
      ]
    },
    "kind": "dev",
    "methods": {
      "awardBeneficiary(uint256)": {
        "details": "This shouldn't happen, but is here in case there's an edge-case we didn't take into account, can possibly be removed in the future",
        "params": {
          "id": "the id of the term"
        }
      },
      "closeFund(uint256)": {
        "params": {
          "id": "the id of the term"
        }
      },
      "closeFundingPeriod(uint256)": {
        "params": {
          "id": "the id of the term"
        }
      },
      "emptyFundAfterEnd(uint256)": {
        "params": {
          "id": "the id of the term"
        }
      },
      "initFund(uint256)": {
        "params": {
          "termId": "the id of the term"
        }
      },
      "isBeneficiary(uint256,address)": {
        "params": {
          "beneficiary": "the address of the participant to check",
          "id": "the id of the term"
        },
        "returns": {
          "_0": "true if the participant is a beneficiary"
        }
      },
      "payContribution(uint256)": {
        "params": {
          "id": "the id of the term"
        }
      },
      "payContributionOnBehalfOf(uint256,address)": {
        "params": {
          "id": "the id of the term",
          "participant": "the address the msg.sender is paying for, the address must be part of the fund"
        }
      },
      "startNewCycle(uint256)": {
        "params": {
          "id": "the id of the term"
        }
      },
      "toggleAutoPay(uint256)": {
        "params": {
          "id": "the id of the term"
        }
      },
      "withdrawFund(uint256)": {
        "details": "This follows the pull-over-push pattern.",
        "params": {
          "id": "the id of the term"
        }
      }
    },
    "title": "Takaturn Fund",
    "version": 1
  },
  "userdoc": {
    "errors": {
      "InsufficientBalance(uint256,uint256)": [
        {
          "notice": "Insufficient balance for transfer. Needed `required` but only `available` available."
        }
      ]
    },
    "kind": "user",
    "methods": {
      "awardBeneficiary(uint256)": {
        "notice": "Fallback function, if the internal call fails somehow and the state gets stuck, allow owner to call the function again manually"
      },
      "closeFund(uint256)": {
        "notice": "called by the owner to close the fund for emergency reasons."
      },
      "closeFundingPeriod(uint256)": {
        "notice": "Must be called at the end of the contribution period after the time has passed by the owner"
      },
      "emptyFundAfterEnd(uint256)": {
        "notice": "allow the owner to empty the fund if there's any excess fund left after 180 days,         this with the assumption that beneficiaries can't claim it themselves due to losing their keys for example,         and prevent the fund to be stuck in limbo"
      },
      "initFund(uint256)": {
        "notice": "called by the term to init the fund"
      },
      "payContribution(uint256)": {
        "notice": "This is the function participants call to pay the contribution"
      },
      "payContributionOnBehalfOf(uint256,address)": {
        "notice": "This function is here to give the possibility to pay using a different wallet"
      },
      "startNewCycle(uint256)": {
        "notice": "starts a new cycle manually called by the owner. Only the first cycle starts automatically upon deploy"
      },
      "toggleAutoPay(uint256)": {
        "notice": "function to enable/disable autopay"
      },
      "withdrawFund(uint256)": {
        "notice": "Called by the beneficiary to withdraw the fund"
      }
    },
    "notice": "This is used to operate the Takaturn fund",
    "version": 1
  },
  "storageLayout": {
    "storage": [],
    "types": null
  }
}