{
  "address": "0x7e7603503De57d338923D2c3942392E6D23FFF95",
  "abi": [
    {
      "inputs": [
        {
          "internalType": "uint256",
          "name": "available",
          "type": "uint256"
        },
        {
          "internalType": "uint256",
          "name": "required",
          "type": "uint256"
        }
      ],
      "name": "InsufficientBalance",
      "type": "error"
    },
    {
      "anonymous": false,
      "inputs": [
        {
          "indexed": true,
          "internalType": "uint256",
          "name": "termId",
          "type": "uint256"
        },
        {
          "indexed": true,
          "internalType": "address",
          "name": "participant",
          "type": "address"
        },
        {
          "indexed": true,
          "internalType": "bool",
          "name": "enabled",
          "type": "bool"
        }
      ],
      "name": "OnAutoPayToggled",
      "type": "event"
    },
    {
      "anonymous": false,
      "inputs": [
        {
          "indexed": true,
          "internalType": "uint256",
          "name": "termId",
          "type": "uint256"
        },
        {
          "indexed": true,
          "internalType": "address",
          "name": "beneficiary",
          "type": "address"
        }
      ],
      "name": "OnBeneficiarySelected",
      "type": "event"
    },
    {
      "anonymous": false,
      "inputs": [
        {
          "indexed": true,
          "internalType": "uint256",
          "name": "termId",
          "type": "uint256"
        },
        {
          "indexed": true,
          "internalType": "address",
          "name": "expellant",
          "type": "address"
        }
      ],
      "name": "OnDefaulterExpelled",
      "type": "event"
    },
    {
      "anonymous": false,
      "inputs": [
        {
          "indexed": true,
          "internalType": "uint256",
          "name": "termId",
          "type": "uint256"
        },
        {
          "indexed": true,
          "internalType": "enum LibFundV2.FundStates",
          "name": "newState",
          "type": "uint8"
        }
      ],
      "name": "OnFundStateChanged",
      "type": "event"
    },
    {
      "anonymous": false,
      "inputs": [
        {
          "indexed": true,
          "internalType": "uint256",
          "name": "termId",
          "type": "uint256"
        },
        {
          "indexed": true,
          "internalType": "address",
          "name": "claimant",
          "type": "address"
        },
        {
          "indexed": true,
          "internalType": "uint256",
          "name": "amount",
          "type": "uint256"
        }
      ],
      "name": "OnFundWithdrawn",
      "type": "event"
    },
    {
      "anonymous": false,
      "inputs": [
        {
          "indexed": true,
          "internalType": "uint256",
          "name": "termId",
          "type": "uint256"
        },
        {
          "indexed": true,
          "internalType": "address",
          "name": "payer",
          "type": "address"
        },
        {
          "indexed": true,
          "internalType": "uint256",
          "name": "currentCycle",
          "type": "uint256"
        }
      ],
      "name": "OnPaidContribution",
      "type": "event"
    },
    {
      "anonymous": false,
      "inputs": [
        {
          "indexed": true,
          "internalType": "uint256",
          "name": "termId",
          "type": "uint256"
        },
        {
          "indexed": true,
          "internalType": "address",
          "name": "defaulter",
          "type": "address"
        }
      ],
      "name": "OnParticipantDefaulted",
      "type": "event"
    },
    {
      "anonymous": false,
      "inputs": [
        {
          "indexed": true,
          "internalType": "uint256",
          "name": "termId",
          "type": "uint256"
        },
        {
          "indexed": true,
          "internalType": "address",
          "name": "undefaulter",
          "type": "address"
        }
      ],
      "name": "OnParticipantUndefaulted",
      "type": "event"
    },
    {
      "anonymous": false,
      "inputs": [
        {
          "indexed": true,
          "internalType": "uint256",
          "name": "termId",
          "type": "uint256"
        }
      ],
      "name": "OnTermStart",
      "type": "event"
    },
    {
      "anonymous": false,
      "inputs": [
        {
          "indexed": true,
          "internalType": "uint256",
          "name": "termId",
          "type": "uint256"
        },
        {
          "indexed": true,
          "internalType": "uint256",
          "name": "newLength",
          "type": "uint256"
        }
      ],
      "name": "OnTotalParticipantsUpdated",
      "type": "event"
    },
    {
      "anonymous": false,
      "inputs": [
        {
          "indexed": true,
          "internalType": "address",
          "name": "previousTermOwner",
          "type": "address"
        },
        {
          "indexed": true,
          "internalType": "address",
          "name": "newTermOwner",
          "type": "address"
        }
      ],
      "name": "TermOwnershipTransferred",
      "type": "event"
    },
    {
      "inputs": [],
      "name": "FUND_VERSION",
      "outputs": [
        {
          "internalType": "uint256",
          "name": "",
          "type": "uint256"
        }
      ],
      "stateMutability": "view",
      "type": "function"
    },
    {
      "inputs": [
        {
          "internalType": "uint256",
          "name": "id",
          "type": "uint256"
        }
      ],
      "name": "closeFund",
      "outputs": [],
      "stateMutability": "nonpayable",
      "type": "function"
    },
    {
      "inputs": [
        {
          "internalType": "uint256",
          "name": "id",
          "type": "uint256"
        }
      ],
      "name": "closeFundingPeriod",
      "outputs": [],
      "stateMutability": "nonpayable",
      "type": "function"
    },
    {
      "inputs": [
        {
          "internalType": "uint256",
          "name": "id",
          "type": "uint256"
        }
      ],
      "name": "emptyFundAfterEnd",
      "outputs": [],
      "stateMutability": "nonpayable",
      "type": "function"
    },
    {
      "inputs": [
        {
          "internalType": "uint256",
          "name": "termId",
          "type": "uint256"
        }
      ],
      "name": "initFund",
      "outputs": [],
      "stateMutability": "nonpayable",
      "type": "function"
    },
    {
      "inputs": [
        {
          "internalType": "uint256",
          "name": "id",
          "type": "uint256"
        },
        {
          "internalType": "address",
          "name": "beneficiary",
          "type": "address"
        }
      ],
      "name": "isBeneficiary",
      "outputs": [
        {
          "internalType": "bool",
          "name": "",
          "type": "bool"
        }
      ],
      "stateMutability": "view",
      "type": "function"
    },
    {
      "inputs": [
        {
          "internalType": "uint256",
          "name": "id",
          "type": "uint256"
        }
      ],
      "name": "payContribution",
      "outputs": [],
      "stateMutability": "nonpayable",
      "type": "function"
    },
    {
      "inputs": [
        {
          "internalType": "uint256",
          "name": "id",
          "type": "uint256"
        },
        {
          "internalType": "address",
          "name": "participant",
          "type": "address"
        }
      ],
      "name": "payContributionOnBehalfOf",
      "outputs": [],
      "stateMutability": "nonpayable",
      "type": "function"
    },
    {
      "inputs": [
        {
          "internalType": "uint256",
          "name": "id",
          "type": "uint256"
        }
      ],
      "name": "selectBeneficiary",
      "outputs": [],
      "stateMutability": "nonpayable",
      "type": "function"
    },
    {
      "inputs": [
        {
          "internalType": "uint256",
          "name": "id",
          "type": "uint256"
        }
      ],
      "name": "startNewCycle",
      "outputs": [],
      "stateMutability": "nonpayable",
      "type": "function"
    },
    {
      "inputs": [
        {
          "internalType": "uint256",
          "name": "id",
          "type": "uint256"
        }
      ],
      "name": "toggleAutoPay",
      "outputs": [],
      "stateMutability": "nonpayable",
      "type": "function"
    },
    {
      "inputs": [
        {
          "internalType": "uint256",
          "name": "id",
          "type": "uint256"
        }
      ],
      "name": "withdrawFund",
      "outputs": [],
      "stateMutability": "nonpayable",
      "type": "function"
    }
  ],
  "transactionHash": "0xb04656870d19882f1d65a6f57818de8b65cf6cf971287ab07f3f921ffd06c079",
  "args": [],
  "numDeployments": 1,
  "solcInputHash": "be7b57ce45c34b546ad2dd923dcb09b5",
  "bytecode": "0x608060405234801561001057600080fd5b50612541806100206000396000f3fe608060405234801561001057600080fd5b50600436106100b45760003560e01c80637be2ecea116100715780637be2ecea1461012d5780638443162914610140578063bd241d2014610153578063e9783e6014610166578063ea28b9bb1461018e578063f7af18f6146101a157600080fd5b80630cee1725146100b95780632009844b146100ce5780633df0c406146100e15780634b5c9c80146100f457806358733dec14610107578063609a49701461011a575b600080fd5b6100cc6100c73660046121b3565b6101b7565b005b6100cc6100dc3660046121b3565b610560565b6100cc6100ef3660046121b3565b610650565b6100cc6101023660046121b3565b6106bd565b6100cc6101153660046121b3565b610896565b6100cc6101283660046121b3565b610b47565b6100cc61013b3660046121b3565b610b5a565b6100cc61014e3660046121e1565b610b6d565b6100cc6101613660046121b3565b610c6b565b6101796101743660046121e1565b610d66565b60405190151581526020015b60405180910390f35b6100cc61019c3660046121b3565b610da1565b6101a9600281565b604051908152602001610185565b60006101c1610e3f565b600083815260209190915260409020905060048154610100900460ff1660048111156101ef576101ef612211565b148061020c575033600090815260078201602052604090205460ff165b6102705760405162461bcd60e51b815260206004820152602a60248201527f596f75206d7573742070617920796f7572206379636c65206265666f7265207760448201526969746864726177696e6760b01b60648201526084015b60405180910390fd5b33600081815260098301602052604080822054905163bb91b76d60e01b8152600481019390935260248301859052151591309063bb91b76d90604401606060405180830381865afa1580156102c9573d6000803e3d6000fd5b505050506040513d601f19601f820116820180604052508101906102ed919061223c565b9250505080151582806102fd5750805b61033f5760405162461bcd60e51b81526020600482015260136024820152724e6f7468696e6720746f20776974686472617760681b6044820152606401610267565b82156104fb5733600090815260098501602052604080822054865491516370a0823160e01b81523060048201529092916201000090046001600160a01b0316906370a0823190602401602060405180830381865afa1580156103a5573d6000803e3d6000fd5b505050506040513d601f19601f820116820180604052508101906103c99190612271565b9050818110156103f65760405163cf47918160e01b81526004810182905260248101839052604401610267565b3360008181526009880160205260408082208290558854905163a9059cbb60e01b81526004810193909352602483018590529091620100009091046001600160a01b03169063a9059cbb906044016020604051808303816000875af1158015610463573d6000803e3d6000fd5b505050506040513d601f19601f82011682018060405250810190610487919061228a565b9050806104c85760405162461bcd60e51b815260206004820152600f60248201526e151c985b9cd9995c8819985a5b1959608a1b6044820152606401610267565b506040518290339089907f31b332de0dccb2d0ed351b3d65a9e10b099b3e3c63f4a6f5ea1810b4d757795c90600090a450505b80156105595760405163ae483d0760e01b815260048101869052336024820152309063ae483d0790604401600060405180830381600087803b15801561054057600080fd5b505af1158015610554573d6000803e3d6000fd5b505050505b5050505050565b600061056a610e3f565b600083815260209190915260409020905060018154610100900460ff16600481111561059857610598612211565b146105b55760405162461bcd60e51b8152600401610267906122a5565b33600090815260058201602052604090205460ff166105e65760405162461bcd60e51b8152600401610267906122ca565b33600090815260078201602052604090205460ff16156106415760405162461bcd60e51b8152602060048201526016602482015275416c7265616479207061696420666f72206379636c6560501b6044820152606401610267565b61064c823333610e63565b5050565b8061065a81610ff8565b6000610664610e3f565b600084815260209190915260409020905060028154610100900460ff16600481111561069257610692612211565b146106af5760405162461bcd60e51b8152600401610267906122a5565b6106b883611080565b505050565b806106c781610ff8565b60006106d1610e3f565b600084815260209190915260409020905060048154610100900460ff1660048111156106ff576106ff612211565b14801561071c575060038101546107199062ed4e0061230b565b42115b61075a5760405162461bcd60e51b815260206004820152600f60248201526e10d85b89dd08195b5c1d1e481e595d608a1b6044820152606401610267565b80546040516370a0823160e01b81523060048201526000916201000090046001600160a01b0316906370a0823190602401602060405180830381865afa1580156107a8573d6000803e3d6000fd5b505050506040513d601f19601f820116820180604052508101906107cc9190612271565b9050801561089057815460405163a9059cbb60e01b8152336004820152602481018390526000916201000090046001600160a01b03169063a9059cbb906044016020604051808303816000875af115801561082b573d6000803e3d6000fd5b505050506040513d601f19601f8201168201806040525081019061084f919061228a565b9050806105595760405162461bcd60e51b815260206004820152600f60248201526e151c985b9cd9995c8819985a5b1959608a1b6044820152606401610267565b50505050565b806108a081610ff8565b60006108aa610e3f565b6000848152602091825260408082206000805160206124ec833981519152909352902060068101546002830154600484015493945091929091906108f09060019061231e565b83600401546108ff9190612331565b610909919061230b565b610913919061230b565b42116109615760405162461bcd60e51b815260206004820152601860248201527f5374696c6c2074696d6520746f20636f6e7472696275746500000000000000006044820152606401610267565b60018254610100900460ff16600481111561097e5761097e612211565b1461099b5760405162461bcd60e51b8152600401610267906122a5565b6109a4846115a4565b6109af8460026116fa565b600082600101805480602002602001604051908101604052809291908181526020018280548015610a0957602002820191906000526020600020905b81546001600160a01b031681526001909101906020018083116109eb575b505083519394506000925050505b81811015610b1d576000838281518110610a3357610a33612348565b6020908102919091018101516001600160a01b03811660009081526007890190925260409091205490915060ff1615610af9576001600160a01b038116600090815260068701602052604090205460ff1615610a9c57610a9686600c01826117d4565b50610aab565b610aa986600a01826117d4565b505b610ab886600e01826117f0565b15610af4576040516001600160a01b0382169089907f164322fe0d1a75eba2830f83779f4daaf9b8dfd5801a3798879708dd8e8ba7cc90600090a35b610b14565b610b0686600e0182611805565b610b1457610b148882611827565b50600101610a17565b50610b2786611080565b8360120154846004015410610b3f57610b3f866118f6565b505050505050565b80610b5181610ff8565b61064c826118f6565b80610b6481610ff8565b61064c8261196f565b6000610b77610e3f565b600084815260209190915260409020905060018154610100900460ff166004811115610ba557610ba5612211565b14610bc25760405162461bcd60e51b8152600401610267906122a5565b6001600160a01b038216600090815260058201602052604090205460ff16610bfc5760405162461bcd60e51b8152600401610267906122ca565b6001600160a01b038216600090815260078201602052604090205460ff1615610c605760405162461bcd60e51b8152602060048201526016602482015275416c7265616479207061696420666f72206379636c6560501b6044820152606401610267565b6106b8833384610e63565b6000610c75610e3f565b6000838152602091909152604081206001810154909250905b81811015610d2657610ccc83600a01846001018381548110610cb257610cb2612348565b6000918252602090912001546001600160a01b03166117d4565b506001836005016000856001018481548110610cea57610cea612348565b6000918252602080832091909101546001600160a01b031683528201929092526040019020805460ff1916911515919091179055600101610c8e565b50610d308361196f565b42600283015560405183907fc3bfb99b88687651f8e660492ae2ee62a50d40e4131ace07f88ed4639b3a4bc390600090a2505050565b600080610d71610e3f565b6000858152602091825260408082206001600160a01b0387168352600601909252205460ff169150505b92915050565b6000610dab610e3f565b6000838152602091825260408082203383526005810190935290205490915060ff16610de95760405162461bcd60e51b8152600401610267906122ca565b336000818152600883016020526040808220805460ff81161560ff199091168117909155905190928392909186917f8bd3cffd2d87eca262a8e2d638c1ff3d3b61c604208115af6295b089acaf72b991a4505050565b7f6751f7e27cecf86d7136f5749c224248cae80a39fafb59f8f6bf12c52816307c90565b6000610e6d610e3f565b6000858152602091825260408082206000805160206124ec8339815191529093528120600581015492935091610ea690620f4240612331565b83546040516323b872dd60e01b81526001600160a01b0388811660048301523060248301526044820184905292935060009262010000909204909116906323b872dd906064016020604051808303816000875af1158015610f0b573d6000803e3d6000fd5b505050506040513d601f19601f82011682018060405250810190610f2f919061228a565b905080610f995760405162461bcd60e51b815260206004820152603260248201527f436f6e747269627574696f6e206661696c65642c2064696420796f7520617070604482015271726f766520737461626c6520746f6b656e3f60701b6064820152608401610267565b6001600160a01b0385166000818152600786016020526040808220805460ff19166001179055600487015490519092918a917fe1122b3cea22012386ebf236fc23dd8a783b91c046d5dec812901846464624ae9190a450505050505050565b60008181526000805160206124ec83398151915260205260409020546001600160a01b0361010090910416331461107d5760405162461bcd60e51b8152602060048201526024808201527f5465726d4f776e61626c653a2063616c6c6572206973206e6f7420746865206f6044820152633bb732b960e11b6064820152608401610267565b50565b600061108a610e3f565b6000838152602091825260408082206000805160206124ec833981519152845281832060018201805484518188028101880190955280855292965090948493929083018282801561110457602002820191906000526020600020905b81546001600160a01b031681526001909101906020018083116110e6575b505050505090506000815190506000805b8281101561117657600084828151811061113157611131612348565b6020908102919091018101516001600160a01b038116600090815260068b0190925260409091205490915060ff1661116d579450905080611176565b50600101611115565b506001600160a01b038416600090815260078701602052604090205460ff1661130457805b828110156113025760008482815181106111b7576111b7612348565b6020908102919091018101516001600160a01b038116600090815260078b0190925260409091205490915060ff16156112f95780955060008860010180548060200260200160405190810160405280929190818152602001828054801561124757602002820191906000526020600020905b81546001600160a01b03168152600190910190602001808311611229575b509394508793505050505b838110156112b25786818151811061126c5761126c612348565b602002602001015182826001611282919061230b565b8151811061129257611292612348565b6001600160a01b0390921660209283029190910190910152600101611252565b50868185815181106112c6576112c6612348565b6001600160a01b0390921660209283029190910182015281516112f19160018c019190840190612139565b505050611302565b5060010161119b565b505b600061131287600e01611b05565b111561140d5760003063e27c3ca2898761132e600e8c01611b0f565b6040518463ffffffff1660e01b815260040161134c9392919061235e565b6000604051808303816000875af115801561136b573d6000803e3d6000fd5b505050506040513d6000823e601f3d908101601f1916820160405261139391908101906123e0565b805190915060005b818110156114095760006001600160a01b03168382815181106113c0576113c0612348565b60200260200101516001600160a01b0316036113de5760010161139b565b6114018a8483815181106113f4576113f4612348565b6020026020010151611b1c565b60010161139b565b5050505b61141a86600a01856117f0565b1561142e5761142c86600c01856117d4565b505b6001600160a01b03841660009081526006870160209081526040808320805460ff191660019081179091558901805482518185028101850190935280835284938301828280156114a757602002820191906000526020600020905b81546001600160a01b03168152600190910190602001808311611489575b5050505050905060005b815181101561151e578860070160008383815181106114d2576114d2612348565b6020908102919091018101516001600160a01b031682528101919091526040016000205460ff161561150c5782611508816124a5565b9350505b80611516816124a5565b9150506114b1565b5081876005015461152f9190612331565b61153c90620f4240612331565b6001600160a01b038716600081815260098b0160205260408082209390935560118b0180546001600160a01b03191683179055915190918b917fe2372b1231b038f66dbcf5151afa5286deed439d6ee45c748f06e5a5ccd612709190a36105548960036116fa565b60006115ae610e3f565b600083815260209182526040808220600181018054835181870281018701909452808452919550929391929183018282801561161357602002820191906000526020600020905b81546001600160a01b031681526001909101906020018083116115f5575b505083519394506000925050505b818110156105595783600801600084838151811061164157611641612348565b6020908102919091018101516001600160a01b031682528101919091526040016000205460ff1680156116b0575083600701600084838151811061168757611687612348565b6020908102919091018101516001600160a01b031682528101919091526040016000205460ff16155b156116f2576116f2858483815181106116cb576116cb612348565b60200260200101518584815181106116e5576116e5612348565b6020026020010151611cfc565b600101611621565b6000611704610e3f565b600084815260209190915260409020905060048154610100900460ff16600481111561173257611732612211565b0361176d5760405162461bcd60e51b815260206004820152600b60248201526a119d5b990818db1bdcd95960aa1b6044820152606401610267565b80548290829061ff00191661010083600481111561178d5761178d612211565b02179055508160048111156117a4576117a4612211565b60405184907fecc339a9dbd454a10bb48d74b40c6ef6e3b22dfc541fc7c16d6114e5763a562890600090a3505050565b60006117e9836001600160a01b038416611e28565b9392505050565b60006117e9836001600160a01b038416611e77565b6001600160a01b038116600090815260018301602052604081205415156117e9565b6000611831610e3f565b600084815260209190915260408120915061184f600a8301846117f0565b9050806118665761186382600c01846117f0565b90505b806118ac5760405162461bcd60e51b815260206004820152601660248201527521b0b713ba103932b6b7bb32903232b330bab63a32b960511b6044820152606401610267565b6118b982600e01846117d4565b506040516001600160a01b0384169085907f59e9bf20dffb9054810c87236063cd66c8aacdecf2167a76c2fc486deb92c72290600090a350505050565b6000611900610e3f565b60008381526020919091526040902042600382015590506119228260046116fa565b6040516339007b7760e01b81526004810183905230906339007b7790602401600060405180830381600087803b15801561195b57600080fd5b505af1158015610b3f573d6000803e3d6000fd5b6000611979610e3f565b6000838152602091825260408082206000805160206124ec8339815191529093529020600282015460048084015490830154939450919290916119bb91612331565b6119c5919061230b565b4211611a135760405162461bcd60e51b815260206004820152601c60248201527f546f6f206561726c7920746f207374617274206e6577206379636c65000000006044820152606401610267565b60008254610100900460ff166004811115611a3057611a30612211565b1480611a56575060038254610100900460ff166004811115611a5457611a54612211565b145b611a725760405162461bcd60e51b8152600401610267906122a5565b8160040160008154611a83906124a5565b90915550600182015460005b81811015611af0576000846007016000866001018481548110611ab457611ab4612348565b6000918252602080832091909101546001600160a01b031683528201929092526040019020805460ff1916911515919091179055600101611a8f565b50611afc8460016116fa565b610890846115a4565b6000610d9b825490565b606060006117e983611f6a565b60008281527f35fa70a6f9ae8a4d427ebe0c1be62ffd2870fecc1df41c6fda0bf5803e5628886020526040812090611b52610e3f565b6000858152602091825260408082206000805160206124ec83398151915284528183206001600160a01b03881684526005820190945291205490925060ff168015611ba55750611ba582600e01856117f0565b611be75760405162461bcd60e51b8152602060048201526013602482015272115e1c195b1b185b9d081b9bdd08199bdd5b99606a1b6044820152606401610267565b611bf18585611fc6565b6001600160a01b0384166000818152600584016020526040808220805460ff191690555187917fffaffc51da9546c32f4d0ddf1c944d8ca87b053b905bb2b694978874b620858391a36001600160a01b038416600090815260068301602052604090205460ff16611c7457601282018054906000611c6e836124be565b91905055505b600060018260030154611c87919061231e565b600383018190556001600160a01b03861660009081526004860160205260408120805460ff1916905560108501805492935091611cc3906124a5565b90915550604051819087907fe817db35ffcfd7ab4de59cd38a99d674f761815667cbc3241bebf20e7da1b6e890600090a3505050505050565b6000611d06610e3f565b6000858152602091825260408082206000805160206124ec8339815191529093528120600581015492935091611d3f90620f4240612331565b83546040516323b872dd60e01b81526001600160a01b0388811660048301523060248301526044820184905292935062010000909104909116906323b872dd906064016020604051808303816000875af1925050508015611dbd575060408051601f3d908101601f19168201909252611dba9181019061228a565b60015b15610b3f578015611e1f576001600160a01b0385166000818152600786016020526040808220805460ff19166001179055600487015490519092918a917fe1122b3cea22012386ebf236fc23dd8a783b91c046d5dec812901846464624ae9190a45b50505050505050565b6000818152600183016020526040812054611e6f57508154600181810184556000848152602080822090930184905584548482528286019093526040902091909155610d9b565b506000610d9b565b60008181526001830160205260408120548015611f60576000611e9b60018361231e565b8554909150600090611eaf9060019061231e565b9050818114611f14576000866000018281548110611ecf57611ecf612348565b9060005260206000200154905080876000018481548110611ef257611ef2612348565b6000918252602080832090910192909255918252600188019052604090208390555b8554869080611f2557611f256124d5565b600190038181906000526020600020016000905590558560010160008681526020019081526020016000206000905560019350505050610d9b565b6000915050610d9b565b606081600001805480602002602001604051908101604052809291908181526020018280548015611fba57602002820191906000526020600020905b815481526020019060010190808311611fa6575b50505050509050919050565b6000611fd0610e3f565b600084815260209182526040808220600181018054835181870281018701909452808452919550929391929183018282801561203557602002820191906000526020600020905b81546001600160a01b03168152600190910190602001808311612017575b505083519394506000925061204f9150600190508361231e565b67ffffffffffffffff811115612067576120676123bf565b604051908082528060200260200182016040528015612090578160200160208202803683370190505b5090506000805b838110156121195760008582815181106120b3576120b3612348565b60200260200101519050876001600160a01b0316816001600160a01b03161461211057808484815181106120e9576120e9612348565b60200260200101906001600160a01b031690816001600160a01b0316815250508260010192505b50600101612097565b50815161212f9060018701906020850190612139565b5050505050505050565b82805482825590600052602060002090810192821561218e579160200282015b8281111561218e57825182546001600160a01b0319166001600160a01b03909116178255602090920191600190910190612159565b5061219a92915061219e565b5090565b5b8082111561219a576000815560010161219f565b6000602082840312156121c557600080fd5b5035919050565b6001600160a01b038116811461107d57600080fd5b600080604083850312156121f457600080fd5b823591506020830135612206816121cc565b809150509250929050565b634e487b7160e01b600052602160045260246000fd5b8051801515811461223757600080fd5b919050565b60008060006060848603121561225157600080fd5b61225a84612227565b925060208401519150604084015190509250925092565b60006020828403121561228357600080fd5b5051919050565b60006020828403121561229c57600080fd5b6117e982612227565b6020808252600b908201526a57726f6e6720737461746560a81b604082015260600190565b602080825260119082015270139bdd0818481c185c9d1a58da5c185b9d607a1b604082015260600190565b634e487b7160e01b600052601160045260246000fd5b80820180821115610d9b57610d9b6122f5565b81810381811115610d9b57610d9b6122f5565b8082028115828204841417610d9b57610d9b6122f5565b634e487b7160e01b600052603260045260246000fd5b600060608201858352602060018060a01b038087168286015260606040860152828651808552608087019150838801945060005b818110156123b0578551841683529484019491840191600101612392565b50909998505050505050505050565b634e487b7160e01b600052604160045260246000fd5b8051612237816121cc565b600060208083850312156123f357600080fd5b825167ffffffffffffffff8082111561240b57600080fd5b818501915085601f83011261241f57600080fd5b815181811115612431576124316123bf565b8060051b604051601f19603f83011681018181108582111715612456576124566123bf565b60405291825284820192508381018501918883111561247457600080fd5b938501935b828510156124995761248a856123d5565b84529385019392850192612479565b98975050505050505050565b6000600182016124b7576124b76122f5565b5060010190565b6000816124cd576124cd6122f5565b506000190190565b634e487b7160e01b600052603160045260246000fdfe87101b21d556417ad2b8e8f2700dbad90721d5d50a1f435f2dee0b9dc981ac8aa26469706673582212207bed54c2fc9094712b4c86e9f31696c36ac8fdd270abcd87a35741beee1ded1764736f6c63430008120033",
  "devdoc": {
    "author": "Mohammed Haddouti",
    "details": "v3.0 (Diamond)",
    "errors": {
      "InsufficientBalance(uint256,uint256)": [
        {
          "params": {
            "available": "balance available.",
            "required": "requested amount to transfer."
          }
        }
      ]
    },
    "kind": "dev",
    "methods": {
      "closeFund(uint256)": {
        "params": {
          "id": "the id of the term"
        }
      },
      "closeFundingPeriod(uint256)": {
        "params": {
          "id": "the id of the term"
        }
      },
      "emptyFundAfterEnd(uint256)": {
        "params": {
          "id": "the id of the term"
        }
      },
      "initFund(uint256)": {
        "params": {
          "termId": "the id of the term"
        }
      },
      "isBeneficiary(uint256,address)": {
        "params": {
          "beneficiary": "the address of the participant to check",
          "id": "the id of the term"
        },
        "returns": {
          "_0": "true if the participant is a beneficiary"
        }
      },
      "payContribution(uint256)": {
        "params": {
          "id": "the id of the term"
        }
      },
      "payContributionOnBehalfOf(uint256,address)": {
        "params": {
          "id": "the id of the term",
          "participant": "the address the msg.sender is paying for, the address must be part of the fund"
        }
      },
      "selectBeneficiary(uint256)": {
        "details": "This shouldn't happen, but is here in case there's an edge-case we didn't take into account, can possibly be removed in the future",
        "params": {
          "id": "the id of the term"
        }
      },
      "startNewCycle(uint256)": {
        "params": {
          "id": "the id of the term"
        }
      },
      "toggleAutoPay(uint256)": {
        "params": {
          "id": "the id of the term"
        }
      },
      "withdrawFund(uint256)": {
        "details": "This follows the pull-over-push pattern.",
        "params": {
          "id": "the id of the term"
        }
      }
    },
    "title": "Takaturn Fund",
    "version": 1
  },
  "userdoc": {
    "errors": {
      "InsufficientBalance(uint256,uint256)": [
        {
          "notice": "Insufficient balance for transfer. Needed `required` but only `available` available."
        }
      ]
    },
    "kind": "user",
    "methods": {
      "closeFund(uint256)": {
        "notice": "called by the owner to close the fund for emergency reasons."
      },
      "closeFundingPeriod(uint256)": {
        "notice": "Must be called at the end of the contribution period after the time has passed by the owner"
      },
      "emptyFundAfterEnd(uint256)": {
        "notice": "allow the owner to empty the fund if there's any excess fund left after 180 days,         this with the assumption that beneficiaries can't claim it themselves due to losing their keys for example,         and prevent the fund to be stuck in limbo"
      },
      "initFund(uint256)": {
        "notice": "called by the term to init the fund"
      },
      "payContribution(uint256)": {
        "notice": "This is the function participants call to pay the contribution"
      },
      "payContributionOnBehalfOf(uint256,address)": {
        "notice": "This function is here to give the possibility to pay using a different wallet"
      },
      "selectBeneficiary(uint256)": {
        "notice": "Fallback function, if the internal call fails somehow and the state gets stuck, allow owner to call the function again manually"
      },
      "startNewCycle(uint256)": {
        "notice": "starts a new cycle manually called by the owner. Only the first cycle starts automatically upon deploy"
      },
      "toggleAutoPay(uint256)": {
        "notice": "function to enable/disable autopay"
      },
      "withdrawFund(uint256)": {
        "notice": "Called by the beneficiary to withdraw the fund"
      }
    },
    "notice": "This is used to operate the Takaturn fund",
    "version": 1
  },
  "storageLayout": {
    "storage": [],
    "types": null
  }
}