{
  "address": "0x80fCd683DC69f569cD924Ae8701c73A2c755B7Dc",
  "abi": [
    {
      "inputs": [
        {
          "internalType": "address",
          "name": "participant",
          "type": "address"
        },
        {
          "internalType": "uint256",
          "name": "termId",
          "type": "uint256"
        }
      ],
      "name": "currentOrNextCyclePaid",
      "outputs": [
        {
          "internalType": "bool",
          "name": "",
          "type": "bool"
        },
        {
          "internalType": "bool",
          "name": "",
          "type": "bool"
        }
      ],
      "stateMutability": "view",
      "type": "function"
    },
    {
      "inputs": [
        {
          "internalType": "uint256",
          "name": "termId",
          "type": "uint256"
        },
        {
          "internalType": "address",
          "name": "user",
          "type": "address"
        }
      ],
      "name": "expelledBeforeBeneficiary",
      "outputs": [
        {
          "internalType": "bool",
          "name": "",
          "type": "bool"
        }
      ],
      "stateMutability": "view",
      "type": "function"
    },
    {
      "inputs": [
        {
          "internalType": "address",
          "name": "participant",
          "type": "address"
        }
      ],
      "name": "getAllJoinedTerms",
      "outputs": [
        {
          "internalType": "uint256[]",
          "name": "",
          "type": "uint256[]"
        }
      ],
      "stateMutability": "view",
      "type": "function"
    },
    {
      "inputs": [
        {
          "internalType": "uint256",
          "name": "termId",
          "type": "uint256"
        }
      ],
      "name": "getCollateralSummary",
      "outputs": [
        {
          "internalType": "bool",
          "name": "",
          "type": "bool"
        },
        {
          "internalType": "enum LibCollateralStorage.CollateralStates",
          "name": "",
          "type": "uint8"
        },
        {
          "internalType": "uint256",
          "name": "",
          "type": "uint256"
        },
        {
          "internalType": "uint256",
          "name": "",
          "type": "uint256"
        },
        {
          "internalType": "address[]",
          "name": "",
          "type": "address[]"
        }
      ],
      "stateMutability": "view",
      "type": "function"
    },
    {
      "inputs": [
        {
          "internalType": "string",
          "name": "firstAggregator",
          "type": "string"
        },
        {
          "internalType": "string",
          "name": "secondAggregator",
          "type": "string"
        },
        {
          "internalType": "string",
          "name": "zapAddress",
          "type": "string"
        },
        {
          "internalType": "string",
          "name": "vaultAddress",
          "type": "string"
        }
      ],
      "name": "getConstants",
      "outputs": [
        {
          "internalType": "address",
          "name": "",
          "type": "address"
        },
        {
          "internalType": "address",
          "name": "",
          "type": "address"
        },
        {
          "internalType": "address",
          "name": "",
          "type": "address"
        },
        {
          "internalType": "address",
          "name": "",
          "type": "address"
        }
      ],
      "stateMutability": "view",
      "type": "function"
    },
    {
      "inputs": [
        {
          "internalType": "uint256",
          "name": "termId",
          "type": "uint256"
        }
      ],
      "name": "getCurrentBeneficiary",
      "outputs": [
        {
          "internalType": "address",
          "name": "",
          "type": "address"
        }
      ],
      "stateMutability": "view",
      "type": "function"
    },
    {
      "inputs": [
        {
          "internalType": "address",
          "name": "depositor",
          "type": "address"
        },
        {
          "internalType": "uint256",
          "name": "termId",
          "type": "uint256"
        }
      ],
      "name": "getDepositorCollateralSummary",
      "outputs": [
        {
          "internalType": "bool",
          "name": "",
          "type": "bool"
        },
        {
          "internalType": "uint256",
          "name": "",
          "type": "uint256"
        },
        {
          "internalType": "uint256",
          "name": "",
          "type": "uint256"
        },
        {
          "internalType": "uint256",
          "name": "",
          "type": "uint256"
        },
        {
          "internalType": "uint256",
          "name": "",
          "type": "uint256"
        }
      ],
      "stateMutability": "view",
      "type": "function"
    },
    {
      "inputs": [
        {
          "internalType": "address",
          "name": "participant",
          "type": "address"
        }
      ],
      "name": "getExpelledTerms",
      "outputs": [
        {
          "internalType": "uint256[]",
          "name": "",
          "type": "uint256[]"
        }
      ],
      "stateMutability": "view",
      "type": "function"
    },
    {
      "inputs": [
        {
          "internalType": "uint256",
          "name": "termId",
          "type": "uint256"
        }
      ],
      "name": "getFundSummary",
      "outputs": [
        {
          "internalType": "bool",
          "name": "",
          "type": "bool"
        },
        {
          "internalType": "enum LibFundStorage.FundStates",
          "name": "",
          "type": "uint8"
        },
        {
          "internalType": "contract IERC20",
          "name": "",
          "type": "address"
        },
        {
          "internalType": "address[]",
          "name": "",
          "type": "address[]"
        },
        {
          "internalType": "uint256",
          "name": "",
          "type": "uint256"
        },
        {
          "internalType": "uint256",
          "name": "",
          "type": "uint256"
        },
        {
          "internalType": "uint256",
          "name": "",
          "type": "uint256"
        },
        {
          "internalType": "uint256",
          "name": "",
          "type": "uint256"
        }
      ],
      "stateMutability": "view",
      "type": "function"
    },
    {
      "inputs": [
        {
          "internalType": "address",
          "name": "participant",
          "type": "address"
        },
        {
          "internalType": "enum LibTermStorage.TermStates",
          "name": "state",
          "type": "uint8"
        }
      ],
      "name": "getJoinedTermsByState",
      "outputs": [
        {
          "internalType": "uint256[]",
          "name": "",
          "type": "uint256[]"
        }
      ],
      "stateMutability": "view",
      "type": "function"
    },
    {
      "inputs": [],
      "name": "getLatestPrice",
      "outputs": [
        {
          "internalType": "uint256",
          "name": "",
          "type": "uint256"
        }
      ],
      "stateMutability": "view",
      "type": "function"
    },
    {
      "inputs": [
        {
          "internalType": "address",
          "name": "user",
          "type": "address"
        }
      ],
      "name": "getNeededAllowance",
      "outputs": [
        {
          "internalType": "uint256",
          "name": "",
          "type": "uint256"
        }
      ],
      "stateMutability": "view",
      "type": "function"
    },
    {
      "inputs": [
        {
          "internalType": "uint256",
          "name": "termId",
          "type": "uint256"
        }
      ],
      "name": "getNextBeneficiary",
      "outputs": [
        {
          "internalType": "address",
          "name": "",
          "type": "address"
        }
      ],
      "stateMutability": "view",
      "type": "function"
    },
    {
      "inputs": [
        {
          "internalType": "address",
          "name": "participant",
          "type": "address"
        },
        {
          "internalType": "uint256",
          "name": "termId",
          "type": "uint256"
        }
      ],
      "name": "getParticipantFundSummary",
      "outputs": [
        {
          "internalType": "bool",
          "name": "",
          "type": "bool"
        },
        {
          "internalType": "bool",
          "name": "",
          "type": "bool"
        },
        {
          "internalType": "bool",
          "name": "",
          "type": "bool"
        },
        {
          "internalType": "bool",
          "name": "",
          "type": "bool"
        },
        {
          "internalType": "uint256",
          "name": "",
          "type": "uint256"
        },
        {
          "internalType": "bool",
          "name": "",
          "type": "bool"
        }
      ],
      "stateMutability": "view",
      "type": "function"
    },
    {
      "inputs": [
        {
          "internalType": "uint256",
          "name": "termId",
          "type": "uint256"
        }
      ],
      "name": "getRemainingContributionTime",
      "outputs": [
        {
          "internalType": "uint256",
          "name": "",
          "type": "uint256"
        }
      ],
      "stateMutability": "view",
      "type": "function"
    },
    {
      "inputs": [
        {
          "internalType": "uint256",
          "name": "termId",
          "type": "uint256"
        }
      ],
      "name": "getRemainingCycleTime",
      "outputs": [
        {
          "internalType": "uint256",
          "name": "",
          "type": "uint256"
        }
      ],
      "stateMutability": "view",
      "type": "function"
    },
    {
      "inputs": [
        {
          "internalType": "uint256",
          "name": "termId",
          "type": "uint256"
        }
      ],
      "name": "getRemainingCycles",
      "outputs": [
        {
          "internalType": "uint256",
          "name": "",
          "type": "uint256"
        }
      ],
      "stateMutability": "view",
      "type": "function"
    },
    {
      "inputs": [
        {
          "internalType": "uint256",
          "name": "termId",
          "type": "uint256"
        }
      ],
      "name": "getRemainingCyclesContributionWei",
      "outputs": [
        {
          "internalType": "uint256",
          "name": "",
          "type": "uint256"
        }
      ],
      "stateMutability": "view",
      "type": "function"
    },
    {
      "inputs": [
        {
          "internalType": "uint256",
          "name": "termId",
          "type": "uint256"
        }
      ],
      "name": "getRemainingRegistrationTime",
      "outputs": [
        {
          "internalType": "uint256",
          "name": "",
          "type": "uint256"
        }
      ],
      "stateMutability": "view",
      "type": "function"
    },
    {
      "inputs": [
        {
          "internalType": "uint256",
          "name": "termId",
          "type": "uint256"
        }
      ],
      "name": "getTermSummary",
      "outputs": [
        {
          "components": [
            {
              "internalType": "bool",
              "name": "initialized",
              "type": "bool"
            },
            {
              "internalType": "enum LibTermStorage.TermStates",
              "name": "state",
              "type": "uint8"
            },
            {
              "internalType": "address",
              "name": "termOwner",
              "type": "address"
            },
            {
              "internalType": "uint256",
              "name": "creationTime",
              "type": "uint256"
            },
            {
              "internalType": "uint256",
              "name": "termId",
              "type": "uint256"
            },
            {
              "internalType": "uint256",
              "name": "registrationPeriod",
              "type": "uint256"
            },
            {
              "internalType": "uint256",
              "name": "totalParticipants",
              "type": "uint256"
            },
            {
              "internalType": "uint256",
              "name": "cycleTime",
              "type": "uint256"
            },
            {
              "internalType": "uint256",
              "name": "contributionAmount",
              "type": "uint256"
            },
            {
              "internalType": "uint256",
              "name": "contributionPeriod",
              "type": "uint256"
            },
            {
              "internalType": "address",
              "name": "stableTokenAddress",
              "type": "address"
            }
          ],
          "internalType": "struct LibTermStorage.Term",
          "name": "",
          "type": "tuple"
        }
      ],
      "stateMutability": "view",
      "type": "function"
    },
    {
      "inputs": [],
      "name": "getTermsId",
      "outputs": [
        {
          "internalType": "uint256",
          "name": "",
          "type": "uint256"
        },
        {
          "internalType": "uint256",
          "name": "",
          "type": "uint256"
        }
      ],
      "stateMutability": "view",
      "type": "function"
    },
    {
      "inputs": [
        {
          "internalType": "uint256",
          "name": "USDAmount",
          "type": "uint256"
        }
      ],
      "name": "getToCollateralConversionRate",
      "outputs": [
        {
          "internalType": "uint256",
          "name": "",
          "type": "uint256"
        }
      ],
      "stateMutability": "view",
      "type": "function"
    },
    {
      "inputs": [
        {
          "internalType": "uint256",
          "name": "ethAmount",
          "type": "uint256"
        }
      ],
      "name": "getToStableConversionRate",
      "outputs": [
        {
          "internalType": "uint256",
          "name": "",
          "type": "uint256"
        }
      ],
      "stateMutability": "view",
      "type": "function"
    },
    {
      "inputs": [
        {
          "internalType": "address",
          "name": "participant",
          "type": "address"
        },
        {
          "internalType": "uint256",
          "name": "termId",
          "type": "uint256"
        }
      ],
      "name": "getUserSet",
      "outputs": [
        {
          "internalType": "bool",
          "name": "",
          "type": "bool"
        },
        {
          "internalType": "bool",
          "name": "",
          "type": "bool"
        },
        {
          "internalType": "bool",
          "name": "",
          "type": "bool"
        }
      ],
      "stateMutability": "view",
      "type": "function"
    },
    {
      "inputs": [
        {
          "internalType": "address",
          "name": "user",
          "type": "address"
        },
        {
          "internalType": "uint256",
          "name": "termId",
          "type": "uint256"
        }
      ],
      "name": "getUserYieldSummary",
      "outputs": [
        {
          "internalType": "bool",
          "name": "",
          "type": "bool"
        },
        {
          "internalType": "uint256",
          "name": "",
          "type": "uint256"
        },
        {
          "internalType": "uint256",
          "name": "",
          "type": "uint256"
        },
        {
          "internalType": "uint256",
          "name": "",
          "type": "uint256"
        },
        {
          "internalType": "uint256",
          "name": "",
          "type": "uint256"
        },
        {
          "internalType": "uint256",
          "name": "",
          "type": "uint256"
        }
      ],
      "stateMutability": "view",
      "type": "function"
    },
    {
      "inputs": [
        {
          "internalType": "uint256",
          "name": "termId",
          "type": "uint256"
        },
        {
          "internalType": "address",
          "name": "user",
          "type": "address"
        }
      ],
      "name": "getWithdrawableUserBalance",
      "outputs": [
        {
          "internalType": "uint256",
          "name": "allowedWithdrawal",
          "type": "uint256"
        }
      ],
      "stateMutability": "view",
      "type": "function"
    },
    {
      "inputs": [],
      "name": "getYieldLockState",
      "outputs": [
        {
          "internalType": "bool",
          "name": "",
          "type": "bool"
        }
      ],
      "stateMutability": "view",
      "type": "function"
    },
    {
      "inputs": [
        {
          "internalType": "uint256",
          "name": "termId",
          "type": "uint256"
        }
      ],
      "name": "getYieldSummary",
      "outputs": [
        {
          "internalType": "bool",
          "name": "",
          "type": "bool"
        },
        {
          "internalType": "uint256",
          "name": "",
          "type": "uint256"
        },
        {
          "internalType": "uint256",
          "name": "",
          "type": "uint256"
        },
        {
          "internalType": "uint256",
          "name": "",
          "type": "uint256"
        },
        {
          "internalType": "uint256",
          "name": "",
          "type": "uint256"
        },
        {
          "internalType": "address[]",
          "name": "",
          "type": "address[]"
        },
        {
          "internalType": "address",
          "name": "",
          "type": "address"
        },
        {
          "internalType": "address",
          "name": "",
          "type": "address"
        }
      ],
      "stateMutability": "view",
      "type": "function"
    },
    {
      "inputs": [
        {
          "internalType": "uint256",
          "name": "termId",
          "type": "uint256"
        },
        {
          "internalType": "address",
          "name": "beneficiary",
          "type": "address"
        }
      ],
      "name": "isBeneficiary",
      "outputs": [
        {
          "internalType": "bool",
          "name": "",
          "type": "bool"
        }
      ],
      "stateMutability": "view",
      "type": "function"
    },
    {
      "inputs": [
        {
          "internalType": "uint256",
          "name": "termId",
          "type": "uint256"
        },
        {
          "internalType": "uint256",
          "name": "cycle",
          "type": "uint256"
        },
        {
          "internalType": "address",
          "name": "user",
          "type": "address"
        }
      ],
      "name": "isExempted",
      "outputs": [
        {
          "internalType": "bool",
          "name": "",
          "type": "bool"
        }
      ],
      "stateMutability": "view",
      "type": "function"
    },
    {
      "inputs": [
        {
          "internalType": "uint256",
          "name": "termId",
          "type": "uint256"
        },
        {
          "internalType": "address",
          "name": "member",
          "type": "address"
        }
      ],
      "name": "isUnderCollaterized",
      "outputs": [
        {
          "internalType": "bool",
          "name": "",
          "type": "bool"
        }
      ],
      "stateMutability": "view",
      "type": "function"
    },
    {
      "inputs": [
        {
          "internalType": "uint256",
          "name": "termId",
          "type": "uint256"
        },
        {
          "internalType": "uint256",
          "name": "depositorIndex",
          "type": "uint256"
        }
      ],
      "name": "minCollateralToDeposit",
      "outputs": [
        {
          "internalType": "uint256",
          "name": "amount",
          "type": "uint256"
        }
      ],
      "stateMutability": "view",
      "type": "function"
    },
    {
      "inputs": [
        {
          "internalType": "uint256",
          "name": "termId",
          "type": "uint256"
        }
      ],
      "name": "termAPY",
      "outputs": [
        {
          "internalType": "uint256",
          "name": "",
          "type": "uint256"
        }
      ],
      "stateMutability": "view",
      "type": "function"
    },
    {
      "inputs": [
        {
          "internalType": "uint256",
          "name": "termId",
          "type": "uint256"
        }
      ],
      "name": "totalYieldGenerated",
      "outputs": [
        {
          "internalType": "uint256",
          "name": "",
          "type": "uint256"
        }
      ],
      "stateMutability": "view",
      "type": "function"
    },
    {
      "inputs": [
        {
          "internalType": "uint256",
          "name": "termId",
          "type": "uint256"
        },
        {
          "internalType": "address",
          "name": "user",
          "type": "address"
        }
      ],
      "name": "userAPY",
      "outputs": [
        {
          "internalType": "uint256",
          "name": "",
          "type": "uint256"
        }
      ],
      "stateMutability": "view",
      "type": "function"
    },
    {
      "inputs": [
        {
          "internalType": "uint256",
          "name": "termId",
          "type": "uint256"
        },
        {
          "internalType": "address",
          "name": "user",
          "type": "address"
        }
      ],
      "name": "userHasoptedInYG",
      "outputs": [
        {
          "internalType": "bool",
          "name": "",
          "type": "bool"
        }
      ],
      "stateMutability": "view",
      "type": "function"
    },
    {
      "inputs": [
        {
          "internalType": "uint256",
          "name": "termId",
          "type": "uint256"
        },
        {
          "internalType": "address",
          "name": "user",
          "type": "address"
        }
      ],
      "name": "wasExpelled",
      "outputs": [
        {
          "internalType": "bool",
          "name": "",
          "type": "bool"
        }
      ],
      "stateMutability": "view",
      "type": "function"
    }
  ],
  "transactionHash": "0xc2c416966200ac6f52715b852087b6e6badbc3e23e1f7a015c4cbe8978bd9019",
  "args": [],
  "numDeployments": 2,
  "solcInputHash": "b5dda25a70667bdda8fc65f97f7d4af7",
  "bytecode": "0x608060405234801561001057600080fd5b50612dda806100206000396000f3fe608060405234801561001057600080fd5b50600436106102275760003560e01c806391ce5ff711610130578063d7992e5b116100b8578063dc9e24ae1161007c578063dc9e24ae1461063f578063e51a629514610652578063e9783e6014610665578063f0d826e714610678578063fd4dba9d1461068b57600080fd5b8063d7992e5b146105c2578063d8f8e991146105d5578063da3791ca146105e8578063dbd576831461060c578063dbf428101461062c57600080fd5b8063b7cf483f116100ff578063b7cf483f14610525578063bb91b76d14610538578063c177f09114610575578063d072f4bc14610588578063d72bb87e1461059b57600080fd5b806391ce5ff71461049257806392a6c802146104a55780639d4eb26f146104b8578063b6abd1a4146104df57600080fd5b806365654fe3116101b357806377778baf1161018257806377778baf1461041d5780637aed53a614610430578063805307311461044d57806384bc198d146104605780638e15f4731461048a57600080fd5b806365654fe31461039a5780636bbbb5fb146103ad57806375aaa78c146103c057806375d4e40b146103d357600080fd5b80631e993b53116101fa5780631e993b53146102f35780632d591bdc146103135780633d17f1e01461033e5780636191474c1461037457806362f02abd1461038757600080fd5b80630c64c6971461022c5780630fc4a7ef146102525780631268612d146102655780631c162dbe146102b1575b600080fd5b61023f61023a366004612654565b6106bd565b6040519081526020015b60405180910390f35b61023f610260366004612676565b61077f565b6102786102733660046126ab565b6107b3565b604080519615158752941515602087015292151593850193909352151560608401526080830191909152151560a082015260c001610249565b6102c46102bf3660046126ab565b61084e565b6040805196151587526020870195909552938501929092526060840152608083015260a082015260c001610249565b6103066103013660046126d5565b6108e4565b60405161024991906126f0565b610326610321366004612676565b610a57565b6040516001600160a01b039091168152602001610249565b7f7c039906f7f8ca11e01b6987a88513563589699678f7d2a6c8447f44d69375f35460ff165b6040519015158152602001610249565b61023f610382366004612676565b610aaa565b61023f610395366004612676565b610b68565b61023f6103a8366004612734565b610bac565b6103646103bb366004612734565b610c83565b6103066103ce3660046126d5565b610cbd565b6103646103e1366004612734565b6000918252600080516020612d25833981519152602090815260408084206001600160a01b039390931684526007909201905290205460ff1690565b61023f61042b366004612734565b610d5d565b610438610f34565b60408051928352602083019190915201610249565b61023f61045b366004612676565b610f65565b61047361046e3660046126ab565b610fcc565b604080519215158352901515602083015201610249565b61023f61101b565b61023f6104a0366004612676565b6112af565b61023f6104b3366004612676565b611377565b6104cb6104c6366004612676565b6113c4565b6040516102499897969594939291906127a4565b6104f26104ed3660046128a4565b6114ff565b604080516001600160a01b0395861681529385166020850152918416918301919091529091166060820152608001610249565b610364610533366004612951565b611601565b61054b6105463660046126ab565b611644565b6040805195151586526020860194909452928401919091526060830152608082015260a001610249565b610364610583366004612734565b61173b565b61023f610596366004612676565b611747565b6105ae6105a9366004612676565b611769565b60405161024998979695949392919061299c565b6103646105d0366004612734565b61183f565b6103266105e3366004612676565b6118d4565b6105fb6105f6366004612676565b611916565b604051610249959493929190612a1a565b61061f61061a366004612676565b6119cc565b6040516102499190612a5d565b61023f61063a366004612676565b611b15565b61030661064d366004612afb565b611c40565b61023f6106603660046126d5565b611e01565b610364610673366004612734565b611f64565b61023f610686366004612676565b611f9e565b61069e6106993660046126ab565b612025565b6040805193151584529115156020840152151590820152606001610249565b6000828152600080516020612d4583398151915260205260408120600481015483106107265760405162461bcd60e51b8152602060048201526013602482015272496e646578206f7574206f6620626f756e647360681b60448201526064015b60405180910390fd5b60006107438260060154670de0b6b3a76400006105969190612b4c565b905060648483600401546107579190612b63565b6107619083612b4c565b61076c906096612b4c565b6107769190612b8c565b95945050505050565b60008061078a61101b565b90506000670de0b6b3a76400006107a18584612b4c565b6107ab9190612b8c565b949350505050565b60008060008060008060006107c6612083565b60008981526020919091526040812091506107e18a8a6120a7565b6001600160a01b039a909a1660009081526005830160209081526040808320546006860183528184205460078701845282852054600888018552838620546009909801909452919093205460ff9384169e9184169d9284169c509290941699509097509550909350505050565b6000818152600080516020612d2583398151915260205260408120819081908190819081908161087e898b61215d565b6001600160a01b039a909a1660009081526007830160209081526040808320546008860183528184205460098701845282852054600a8801855283862054600b909801909452919093205460ff9093169d909c919b509399509097509550909350505050565b606060006108f183610cbd565b90506000815167ffffffffffffffff81111561090f5761090f612801565b604051908082528060200260200182016040528015610938578160200160208202803683370190505b508251909150600090815b818110156109ba5761096e85828151811061096057610960612ba0565b60200260200101518861183f565b156109b25784818151811061098557610985612ba0565b602002602001015184848151811061099f5761099f612ba0565b6020026020010181815250508260010192505b600101610943565b5060008267ffffffffffffffff8111156109d6576109d6612801565b6040519080825280602002602001820160405280156109ff578160200160208202803683370190505b50905060005b83811015610a4c57848181518110610a1f57610a1f612ba0565b6020026020010151828281518110610a3957610a39612ba0565b6020908102919091010152600101610a05565b509695505050505050565b600080610a62612083565b6000848152602091909152604090206004810154600182018054929350918110610a8e57610a8e612ba0565b6000918252602090912001546001600160a01b03169392505050565b600080610ab5612083565b600084815260209182526040808220600080516020612d458339815191529093529020815491925090600190610100900460ff166004811115610afa57610afa612986565b14610b09575060009392505050565b60008160070154836002015460018560040154610b269190612b63565b8460050154610b359190612b4c565b610b3f9190612bb6565b610b499190612bb6565b905080421115610b5e57506000949350505050565b6107764282612b63565b600080610b73612083565b6000848152602091909152604090206004810154601482015491925090610b9b906001612bb6565b610ba59190612b63565b9392505050565b6000828152600080516020612d2583398151915260209081526040808320600080516020612d65833981519152909252822060028201548390610bef9042612b63565b90506000610bfd878761215d565b6001600160a01b0387166000908152600886016020526040902054610c229190612bb6565b6001600160a01b03871660009081526005850160205260409020549091508290610c5483670de0b6b3a7640000612b4c565b610c5e9190612b8c565b610c6c906301e13380612b4c565b610c769190612b8c565b9450505050505b92915050565b600080610c8e612083565b6000858152602091825260408082206001600160a01b0387168352601501909252205460ff1691505092915050565b6001600160a01b03811660009081527f87101b21d556417ad2b8e8f2700dbad90721d5d50a1f435f2dee0b9dc981ac8b602090815260408083208054825181850281018501909352808352606094600080516020612d85833981519152949093929190830182828015610d4f57602002820191906000526020600020905b815481526020019060010190808311610d3b575b509398975050505050505050565b6000828152600080516020612d458339815191526020526040812081610d81612083565b600086815260209182526040808220600080516020612d658339815191528452818320600080516020612d2583398151915285528284206001600160a01b038a16855260058201865283852054600a8201875284862054601585019097529390942054815492965090949160ff918216916002916101009004166003811115610e0c57610e0c612986565b1480610e155750805b15610e2b57610e248284612bb6565b9750610f27565b60018554610100900460ff166003811115610e4857610e48612986565b03610f22576001600160a01b038916600090815260078701602052604081205460ff16610e9657600a610e7a8c611f9e565b610e8590600f612b4c565b610e8f9190612b8c565b9050610ef3565b600087600401548860140154610eac9190612b63565b90506000610ecb8a60060154670de0b6b3a76400006105969190612b4c565b9050600a610ed98284612b4c565b610ee490600f612b4c565b610eee9190612b8c565b925050505b80841115610f175782610f068286612b63565b610f109190612bb6565b9850610f1c565b600098505b50610f27565b600097505b5050505050505092915050565b600080516020612d85833981519152805460009182918290610f5890600190612b63565b9154919491935090915050565b6000818152600080516020612d258339815191526020526040812060028101548290610f919042612b63565b9050808260040154610fa286611b15565b610fb490670de0b6b3a7640000612b4c565b610fbe9190612b8c565b6107a1906301e13380612b4c565b6000806000610fd9612083565b6000858152602091825260408082206001600160a01b038916835260078101845281832054601690910190935290205460ff9182169450169150509250929050565b6000807f138fa7b895cc6132bd44317f3510a9c38821e93ca223f9fdc532527c01963ec490506000806000808460000160405161106590661155120bd554d160ca1b815260070190565b9081526040805191829003602001822054633fabe5a360e21b835290516001600160a01b039091169163feaf968c9160048083019260a09291908290030181865afa1580156110b8573d6000803e3d6000fd5b505050506040513d601f19601f820116820180604052508101906110dc9190612be0565b945094505093509350816000141580156111085750836001600160501b0316816001600160501b031610155b80156111145750600083135b6111605760405162461bcd60e51b815260206004820152601b60248201527f436861696e6c696e6b4f7261636c653a207374616c6520646174610000000000604482015260640161071d565b6000806000808860000160405161118590671554d110cbd554d160c21b815260080190565b9081526040805191829003602001822054633fabe5a360e21b835290516001600160a01b039091169163feaf968c9160048083019260a09291908290030181865afa1580156111d8573d6000803e3d6000fd5b505050506040513d601f19601f820116820180604052508101906111fc9190612be0565b945094505093509350816000141580156112285750836001600160501b0316816001600160501b031610155b80156112345750600083135b6112805760405162461bcd60e51b815260206004820152601b60248201527f436861696e6c696e6b4f7261636c653a207374616c6520646174610000000000604482015260640161071d565b600061128c8489612c30565b90506112a081670de0b6b3a7640000612c5e565b9a505050505050505050505090565b6000818152600080516020612d4583398151915260209081526040808320600080516020612d658339815191529092528220600181015483036113345760405162461bcd60e51b815260206004820152601860248201527f4e6f626f647920686173206465706f7369746564207965740000000000000000604482015260640161071d565b816003015481600101546113489190612bb6565b4210611358575060009392505050565b428260030154826001015461136d9190612bb6565b6107ab9190612b63565b600080611382612083565b600084815260209182526040808220600080516020612d45833981519152909352812060028301546004840154600583015494955091939091610b3f91612b4c565b6000808080806060818080600080516020612d2583398151915260000160008b815260200190815260200160002090508060000160009054906101000a900460ff168160020154826003015483600401548460050154856006018660010160405161143e906816985e5b95985d5b1d60ba1b815260090190565b908152604051908190036020018120546001600160a01b0316906001890190611474906605a61796e5a61760cc1b815260070190565b908152604080519182900360209081018320548554808302850183019093528284526001600160a01b0316929185918301828280156114dc57602002820191906000526020600020905b81546001600160a01b031681526001909101906020018083116114be575b505050505092509850985098509850985098509850985050919395975091939597565b6040516000908190819081907f138fa7b895cc6132bd44317f3510a9c38821e93ca223f9fdc532527c01963ec4907ff27a5986330dc78d016d8604ee1a040d5a789fbaa2d0c27f5dfded4b616b897790829061155c908c90612c8e565b908152604051908190036020018120546001600160a01b0316908390611583908c90612c8e565b908152604051908190036020018120546001600160a01b03169083906115aa908c90612c8e565b908152604051908190036020018120546001600160a01b03169084906115d1908c90612c8e565b9081526040519081900360200190205492985090965094506001600160a01b031692505050945094509450949050565b60008061160c612083565b600086815260209182526040808220878352600c0183528082206001600160a01b0387168352909252205460ff169150509392505050565b6000818152600080516020612d6583398151915260205260408120819081908190819081611670612083565b600089815260209182526040808220600080516020612d4583398151915284528183206001600160a01b038e168452600682019094529082205490935060ff166116d6576116cf8260060154670de0b6b3a76400006105969190612b4c565b90506116e2565b6116df8a611f9e565b90505b6001600160a01b039a909a1660009081526004840160209081526040808320546005870183528184205460068801845282852054600790980190935292205460ff9092169c909b949a5090985092965091945050505050565b6000610ba58383612186565b60008061175261101b565b90506000816107a185670de0b6b3a7640000612b4c565b600080600060606000806000806000611780612083565b60008b81526020918252604090819020805460028201546003830154600484015460148501546001860180548851818b0281018b0190995280895296995060ff80871699610100880490911698620100009097046001600160a01b031697919691879183018282801561181c57602002820191906000526020600020905b81546001600160a01b031681526001909101906020018083116117fe575b505050505094509850985098509850985098509850985050919395975091939597565b60008061184a612083565b600085815260209182526040808220600080516020612d6583398151915284528183206001600160a01b03881684526005820190945291205490925060ff161580156118b157506001600160a01b038416600090815260048201602052604090205460ff16155b156118c157600192505050610c7d565b600092505050610c7d565b505092915050565b6000806118df612083565b60008481526020919091526040902060048101549091506001808301916119069190612b63565b81548110610a8e57610a8e612ba0565b6000808080606081600080516020612d658339815191526000888152602091825260409081902080546001820154600283015460038401805486518189028101890190975280875294975060ff8085169761010090950416959294919390929183918301828280156119b157602002820191906000526020600020905b81546001600160a01b03168152600190910190602001808311611993575b50505050509050955095509550955095505091939590929450565b611a3c60408051610160810190915260008082526020820190815260200160006001600160a01b031681526020016000815260200160008152602001600081526020016000815260200160008152602001600081526020016000815260200160006001600160a01b031681525090565b6000828152600080516020612d45833981519152602090815260409182902082516101608101909352805460ff808216151585529192840191610100909104166003811115611a8d57611a8d612986565b6003811115611a9e57611a9e612986565b815281546001600160a01b036201000090910481166020830152600183015460408301526002830154606083015260038301546080830152600483015460a0830152600583015460c0830152600683015460e083015260078301546101008301526008909201549091166101209091015292915050565b6000818152600080516020612d2583398151915260209081526040808320600681018054835181860281018601909452808452919385938493909291830182828015611b8a57602002820191906000526020600020905b81546001600160a01b03168152600190910190602001808311611b6c575b505083519394506000925050505b81811015611bf657846008016000848381518110611bb857611bb8612ba0565b60200260200101516001600160a01b03166001600160a01b031681526020019081526020016000205484611bec9190612bb6565b9350600101611b98565b506000611c0387866122b0565b90508460040154811115611c35576004850154611c208286612bb6565b611c2a9190612b63565b979650505050505050565b509195945050505050565b60606000611c4d84610cbd565b90506000815167ffffffffffffffff811115611c6b57611c6b612801565b604051908082528060200260200182016040528015611c94578160200160208202803683370190505b508251909150600090815b81811015611d6357866003811115611cb957611cb9612986565b600080516020612d858339815191526001016000878481518110611cdf57611cdf612ba0565b6020026020010151815260200190815260200160002060000160019054906101000a900460ff166003811115611d1757611d17612986565b03611d5b57848181518110611d2e57611d2e612ba0565b6020026020010151848481518110611d4857611d48612ba0565b6020026020010181815250508260010192505b600101611c9f565b5060008267ffffffffffffffff811115611d7f57611d7f612801565b604051908082528060200260200182016040528015611da8578160200160208202803683370190505b50905060005b83811015611df557848181518110611dc857611dc8612ba0565b6020026020010151828281518110611de257611de2612ba0565b6020908102919091010152600101611dae565b50979650505050505050565b6000806000611e11846001611c40565b90506000611e20856000611c40565b825181519192509060005b82811015611ece576000600080516020612d858339815191526001016000878481518110611e5b57611e5b612ba0565b6020026020010151815260200190815260200160002090506000611e97878481518110611e8a57611e8a612ba0565b6020026020010151610b68565b8260060154611ea69190612b4c565b611eb390620f4240612b4c565b9050611ebf8189612bb6565b97508260010192505050611e2b565b5060005b81811015611f58576000600080516020612d858339815191526001016000868481518110611f0257611f02612ba0565b602002602001015181526020019081526020016000209050600081600401548260060154611f309190612b4c565b611f3d90620f4240612b4c565b9050611f498189612bb6565b97508260010192505050611ed2565b50939695505050505050565b600080611f6f612083565b6000858152602091825260408082206001600160a01b0387168352600601909252205460ff1691505092915050565b600080611fa9612083565b600084815260209182526040808220600080516020612d458339815191529093528120600483015460148401549394509092611fe6906001612bb6565b611ff09190612b63565b9050600061200f8360060154670de0b6b3a76400006105969190612b4c565b905061201b8183612b4c565b9695505050505050565b600080600080612033612083565b6000868152602091909152604081209150612051600d8301886123fc565b9050600061206283600f01896123fc565b90506000612073846011018a6123fc565b9299919850919650945050505050565b7f6751f7e27cecf86d7136f5749c224248cae80a39fafb59f8f6bf12c52816307c90565b6000806120b2612083565b600084815260209182526040808220600080516020612d6583398151915284528183206001600160a01b03891684526015820190945291205490925060ff16156120ff57600092506118cc565b6000606461210c86611f9e565b61211790606e612b4c565b6121219190612b8c565b6001600160a01b038716600090815260058401602052604090205490915081111561214f5760019350612154565b600093505b50505092915050565b600080670de0b6b3a7640000612173858561241e565b61217c866124aa565b6107a19190612b4c565b6000828152600080516020612d65833981519152602090815260408083206001600160a01b03851684526005810190925282205482906121c586612636565b6122445760405163bb91b76d60e01b81526001600160a01b038616600482015260248101879052309063bb91b76d9060440160a060405180830381865afa158015612214573d6000803e3d6000fd5b505050506040513d601f19601f820116820180604052508101906122389190612cbd565b95506122a79350505050565b60405163f0d826e760e01b815260048101879052309063f0d826e790602401602060405180830381865afa158015612280573d6000803e3d6000fd5b505050506040513d601f19601f820116820180604052508101906122a49190612d0b565b91505b10949350505050565b600080826001016040516122d3906816985e5b95985d5b1d60ba1b815260090190565b90815260405190819003602001812054631398fee160e31b82526001600160a01b031690639cc7f7089061230f90879060040190815260200190565b602060405180830381865afa15801561232c573d6000803e3d6000fd5b505050506040513d601f19601f820116820180604052508101906123509190612d0b565b9050600083600101604051612374906816985e5b95985d5b1d60ba1b815260090190565b908152604080516020928190038301812054631df1ee3f60e21b825291516001600160a01b03909216926377c7b8fc926004808401938290030181865afa1580156123c3573d6000803e3d6000fd5b505050506040513d601f19601f820116820180604052508101906123e79190612d0b565b9050670de0b6b3a764000061076c8284612b4c565b6001600160a01b03811660009081526001830160205260408120541515610ba5565b6000828152600080516020612d25833981519152602052604081206004810154820361244e576000915050610c7d565b60038101546001600160a01b0384166000908152600983016020908152604080832054600b8601909252909120546124869190612b63565b61249890670de0b6b3a7640000612b4c565b6124a29190612b8c565b915050610c7d565b6000818152600080516020612d25833981519152602052604080822081516816985e5b95985d5b1d60ba1b8152600182016009820152915191829003602901822054631398fee160e31b835260048301859052909183916001600160a01b031690639cc7f70890602401602060405180830381865afa158015612531573d6000803e3d6000fd5b505050506040513d601f19601f820116820180604052508101906125559190612d0b565b9050600082600101604051612579906816985e5b95985d5b1d60ba1b815260090190565b908152604080516020928190038301812054631df1ee3f60e21b825291516001600160a01b03909216926377c7b8fc926004808401938290030181865afa1580156125c8573d6000803e3d6000fd5b505050506040513d601f19601f820116820180604052508101906125ec9190612d0b565b90506000670de0b6b3a76400006126038385612b4c565b61260d9190612b8c565b9050836004015481111561262a57600484015461201b9082612b63565b50600095945050505050565b6000612640612083565b600092835260205250604090205460ff1690565b6000806040838503121561266757600080fd5b50508035926020909101359150565b60006020828403121561268857600080fd5b5035919050565b80356001600160a01b03811681146126a657600080fd5b919050565b600080604083850312156126be57600080fd5b6126c78361268f565b946020939093013593505050565b6000602082840312156126e757600080fd5b610ba58261268f565b6020808252825182820181905260009190848201906040850190845b818110156127285783518352928401929184019160010161270c565b50909695505050505050565b6000806040838503121561274757600080fd5b823591506127576020840161268f565b90509250929050565b600081518084526020808501945080840160005b838110156127995781516001600160a01b031687529582019590820190600101612774565b509495945050505050565b60006101008a151583528960208401528860408401528760608401528660808401528060a08401526127d881840187612760565b6001600160a01b0395861660c08501529390941660e09092019190915250979650505050505050565b634e487b7160e01b600052604160045260246000fd5b600082601f83011261282857600080fd5b813567ffffffffffffffff8082111561284357612843612801565b604051601f8301601f19908116603f0116810190828211818310171561286b5761286b612801565b8160405283815286602085880101111561288457600080fd5b836020870160208301376000602085830101528094505050505092915050565b600080600080608085870312156128ba57600080fd5b843567ffffffffffffffff808211156128d257600080fd5b6128de88838901612817565b955060208701359150808211156128f457600080fd5b61290088838901612817565b9450604087013591508082111561291657600080fd5b61292288838901612817565b9350606087013591508082111561293857600080fd5b5061294587828801612817565b91505092959194509250565b60008060006060848603121561296657600080fd5b833592506020840135915061297d6040850161268f565b90509250925092565b634e487b7160e01b600052602160045260246000fd5b60006101008a1515835260058a106129b6576129b6612986565b602083018a90526001600160a01b0389166040840152606083018190526129df81840189612760565b9150508560808301528460a08301528360c08301528260e08301529998505050505050505050565b60048110612a1757612a17612986565b50565b8515158152612a2885612a07565b84602082015283604082015282606082015260a060808201526000611c2a60a0830184612760565b612a5981612a07565b9052565b81511515815261016081016020830151612a7a6020840182612a50565b506040830151612a9560408401826001600160a01b03169052565b50606083015160608301526080830151608083015260a083015160a083015260c083015160c083015260e083015160e0830152610100808401518184015250610120808401518184015250610140808401516118cc828501826001600160a01b03169052565b60008060408385031215612b0e57600080fd5b612b178361268f565b9150602083013560048110612b2b57600080fd5b809150509250929050565b634e487b7160e01b600052601160045260246000fd5b8082028115828204841417610c7d57610c7d612b36565b81810381811115610c7d57610c7d612b36565b634e487b7160e01b600052601260045260246000fd5b600082612b9b57612b9b612b76565b500490565b634e487b7160e01b600052603260045260246000fd5b80820180821115610c7d57610c7d612b36565b80516001600160501b03811681146126a657600080fd5b600080600080600060a08688031215612bf857600080fd5b612c0186612bc9565b9450602086015193506040860151925060608601519150612c2460808701612bc9565b90509295509295909350565b600082612c3f57612c3f612b76565b600160ff1b821460001984141615612c5957612c59612b36565b500590565b80820260008212600160ff1b84141615612c7a57612c7a612b36565b8181058314821517610c7d57610c7d612b36565b6000825160005b81811015612caf5760208186018101518583015201612c95565b506000920191825250919050565b600080600080600060a08688031215612cd557600080fd5b85518015158114612ce557600080fd5b602087015160408801516060890151608090990151929a91995097965090945092505050565b600060208284031215612d1d57600080fd5b505191905056fe29d9cba46c358ba7c1b8945751229339792c7c62e3197c240fa98916e75ffbf987101b21d556417ad2b8e8f2700dbad90721d5d50a1f435f2dee0b9dc981ac8a35fa70a6f9ae8a4d427ebe0c1be62ffd2870fecc1df41c6fda0bf5803e56288887101b21d556417ad2b8e8f2700dbad90721d5d50a1f435f2dee0b9dc981ac89a26469706673582212209786da259717467e5fb7e1eaf22a2954e6ee8875fa8ce9c8c2e8ccd72bd243b864736f6c63430008120033",
  "devdoc": {
    "kind": "dev",
    "methods": {
      "currentOrNextCyclePaid(address,uint256)": {
        "params": {
          "participant": "the user to get the info from",
          "termId": "the fund id"
        },
        "returns": {
          "_0": "paidThisCycle, true if has paid the current cycle",
          "_1": "paidNextCycle, true if has paid the next cycle"
        }
      },
      "expelledBeforeBeneficiary(uint256,address)": {
        "params": {
          "termId": "the id of the term",
          "user": "the address of the participant to check"
        },
        "returns": {
          "_0": "true if the participant is expelled before being a beneficiary"
        }
      },
      "getAllJoinedTerms(address)": {
        "params": {
          "participant": "the participant address"
        },
        "returns": {
          "_0": "an array with the term ids the participant is part of"
        }
      },
      "getCollateralSummary(uint256)": {
        "params": {
          "termId": "the collateral id"
        },
        "returns": {
          "_0": "collateral initialized",
          "_1": "collateral state",
          "_2": "collateral firstDepositTime",
          "_3": "counterMembers",
          "_4": "collateral depositors"
        }
      },
      "getConstants(string,string,string,string)": {
        "params": {
          "firstAggregator": "The name of the first aggregator. Example: \"ETH/USD\"",
          "secondAggregator": "The name of the second aggregator. Example: \"USDC/USD\"",
          "vaultAddress": "The name of the vault address. Example: \"ZaynVault\"",
          "zapAddress": "The name of the zap address. Example: \"ZaynZap\""
        }
      },
      "getCurrentBeneficiary(uint256)": {
        "params": {
          "termId": "the fund id"
        },
        "returns": {
          "_0": "the current beneficiary"
        }
      },
      "getDepositorCollateralSummary(address,uint256)": {
        "params": {
          "depositor": "the depositor address",
          "termId": "the collateral id"
        },
        "returns": {
          "_0": "isCollateralMember",
          "_1": "collateralMembersBank",
          "_2": "collateralPaymentBank",
          "_3": "collateralDepositByUser",
          "_4": "expulsion limit"
        }
      },
      "getExpelledTerms(address)": {
        "params": {
          "participant": "the participant address"
        },
        "returns": {
          "_0": "an array the term ids the participant is part of, giving the state of the term"
        }
      },
      "getFundSummary(uint256)": {
        "params": {
          "termId": "the fund id"
        },
        "returns": {
          "_0": "fund initialized",
          "_1": "fund currentState",
          "_2": "fund stableToken",
          "_3": "fund beneficiariesOrder",
          "_4": "fund fundStart",
          "_5": "fund fundEnd",
          "_6": "fund currentCycle",
          "_7": "fund totalAmountOfCycles"
        }
      },
      "getJoinedTermsByState(address,uint8)": {
        "params": {
          "participant": "the participant address",
          "state": "the term state"
        },
        "returns": {
          "_0": "an array with the term ids the participant is part of, giving the state of the term"
        }
      },
      "getLatestPrice()": {
        "returns": {
          "_0": "uint latest price in Wei Note: 18 decimals"
        }
      },
      "getNeededAllowance(address)": {
        "params": {
          "user": "the user address"
        },
        "returns": {
          "_0": "the needed allowance"
        }
      },
      "getNextBeneficiary(uint256)": {
        "params": {
          "termId": "the fund id"
        },
        "returns": {
          "_0": "the current beneficiary"
        }
      },
      "getParticipantFundSummary(address,uint256)": {
        "params": {
          "participant": "the user to get the info from",
          "termId": "the fund id"
        },
        "returns": {
          "_0": "isParticipant, true if is participant",
          "_1": "isBeneficiary, true if has been beneficiary",
          "_2": "paidThisCycle, true if has paid the current cycle",
          "_3": "autoPayEnabled, true if auto pay is enabled",
          "_4": "beneficiariesPool, the beneficiary pool, 6 decimals",
          "_5": "beneficiariesFrozenPool, true if the beneficiary pool is frozen"
        }
      },
      "getRemainingContributionTime(uint256)": {
        "params": {
          "termId": "the fund id"
        },
        "returns": {
          "_0": "the time left to contribute"
        }
      },
      "getRemainingCycleTime(uint256)": {
        "params": {
          "termId": "the term id"
        },
        "returns": {
          "_0": "remaining time in the current cycle"
        }
      },
      "getRemainingCycles(uint256)": {
        "params": {
          "termId": "the term id"
        },
        "returns": {
          "_0": "remaining cycles"
        }
      },
      "getRemainingCyclesContributionWei(uint256)": {
        "params": {
          "termId": "the term id"
        },
        "returns": {
          "_0": "remaining cycles contribution"
        }
      },
      "getRemainingRegistrationTime(uint256)": {
        "params": {
          "termId": "the term id"
        },
        "returns": {
          "_0": "remaining contribution period"
        }
      },
      "getTermSummary(uint256)": {
        "params": {
          "termId": "the term id"
        },
        "returns": {
          "_0": "the term struct"
        }
      },
      "getTermsId()": {
        "returns": {
          "_0": "the current term id",
          "_1": "the next term id"
        }
      },
      "getToCollateralConversionRate(uint256)": {
        "details": "should we always deal with in Wei?",
        "params": {
          "USDAmount": "The amount in USD with 18 decimals"
        },
        "returns": {
          "_0": "uint converted amount in wei"
        }
      },
      "getToStableConversionRate(uint256)": {
        "details": "should we always deal with in Wei?",
        "params": {
          "ethAmount": "The amount in ETH"
        },
        "returns": {
          "_0": "uint converted amount in USD correct to 18 decimals"
        }
      },
      "getUserSet(address,uint256)": {
        "params": {
          "participant": "the user to get the info from",
          "termId": "the fund id"
        },
        "returns": {
          "_0": "on participant set",
          "_1": "on beneficiary set",
          "_2": "on defaulter set"
        }
      },
      "getUserYieldSummary(address,uint256)": {
        "params": {
          "termId": "the collateral id",
          "user": "the depositor address"
        },
        "returns": {
          "_0": "hasOptedIn",
          "_1": "withdrawnYield",
          "_2": "withdrawnCollateral",
          "_3": "availableYield",
          "_4": "depositedCollateralByUser",
          "_5": "yieldDistributed"
        }
      },
      "getWithdrawableUserBalance(uint256,address)": {
        "params": {
          "termId": "term id",
          "user": "depositor address"
        },
        "returns": {
          "allowedWithdrawal": "amount the amount of collateral the depositor can withdraw"
        }
      },
      "getYieldSummary(uint256)": {
        "params": {
          "termId": "the collateral id"
        },
        "returns": {
          "_0": "initialized",
          "_1": "startTimeStamp",
          "_2": "totalDeposit",
          "_3": "currentTotalDeposit",
          "_4": "totalShares",
          "_5": "yieldUsers",
          "_6": "vaultAddress",
          "_7": "zapAddress"
        }
      },
      "isBeneficiary(uint256,address)": {
        "params": {
          "beneficiary": "the address of the participant to check",
          "termId": "the id of the term"
        },
        "returns": {
          "_0": "true if the participant is a beneficiary"
        }
      },
      "isExempted(uint256,uint256,address)": {
        "params": {
          "cycle": "the cycle to check",
          "termId": "the fund id",
          "user": "the user to check"
        },
        "returns": {
          "_0": "true if the user is exempted"
        }
      },
      "isUnderCollaterized(uint256,address)": {
        "details": "This will revert if called during ReleasingCollateral or after",
        "params": {
          "member": "The user to check for",
          "termId": "The term id"
        },
        "returns": {
          "_0": "Bool check if member is below 1.0x of collateralDeposit"
        }
      },
      "minCollateralToDeposit(uint256,uint256)": {
        "details": "The minimum collateral amount is calculated based on the index on the depositors arrayThe return value should be the minimum msg.value when calling joinTermC = 1.5 Cp (Tp - I) where C = minimum collateral amount, Cp = contribution amount, Tp = total participants, I = depositor index (starts at 0). 1.5",
        "returns": {
          "amount": "the minimum collateral amount to deposit in wei"
        }
      },
      "termAPY(uint256)": {
        "params": {
          "termId": "The term id for which the APY is being calculated"
        },
        "returns": {
          "_0": "The APY for the term"
        }
      },
      "totalYieldGenerated(uint256)": {
        "params": {
          "termId": "The term id for which the yield is being calculated"
        },
        "returns": {
          "_0": "The total yield generated for the term"
        }
      },
      "userAPY(uint256,address)": {
        "params": {
          "termId": "The term id for which the APY is being calculated",
          "user": "The user for which the APY is being calculated"
        },
        "returns": {
          "_0": "The APY for the user"
        }
      },
      "userHasoptedInYG(uint256,address)": {
        "params": {
          "termId": "The term id for which the check is being made",
          "user": "The user for which the check is being made"
        },
        "returns": {
          "_0": "True if the user has opted in"
        }
      },
      "wasExpelled(uint256,address)": {
        "params": {
          "termId": "the fund id",
          "user": "the user to check"
        },
        "returns": {
          "_0": "true if the user was expelled before"
        }
      }
    },
    "version": 1
  },
  "userdoc": {
    "kind": "user",
    "methods": {
      "currentOrNextCyclePaid(address,uint256)": {
        "notice": "function to get fund information of a specific participant"
      },
      "getConstants(string,string,string,string)": {
        "notice": "This function return the current constant values for oracles and yield providers"
      },
      "getCurrentBeneficiary(uint256)": {
        "notice": "function to get the current beneficiary"
      },
      "getFundSummary(uint256)": {
        "notice": "function to get the cycle information in one go"
      },
      "getLatestPrice()": {
        "notice": "Gets latest ETH / USD price"
      },
      "getNeededAllowance(address)": {
        "notice": "a function to get the needed allowance for every active term the user is part of"
      },
      "getNextBeneficiary(uint256)": {
        "notice": "function to get the current beneficiary"
      },
      "getParticipantFundSummary(address,uint256)": {
        "notice": "function to get fund information of a specific participant"
      },
      "getRemainingContributionTime(uint256)": {
        "notice": "returns the time left to contribute for this cycle"
      },
      "getRemainingRegistrationTime(uint256)": {
        "notice": "Gets the remaining registration period for a term"
      },
      "getToCollateralConversionRate(uint256)": {
        "notice": "Gets the conversion rate of an amount in USD to ETH"
      },
      "getToStableConversionRate(uint256)": {
        "notice": "Gets the conversion rate of an amount in ETH to USD"
      },
      "getUserSet(address,uint256)": {
        "notice": "function to get cycle information of a specific participant"
      },
      "getWithdrawableUserBalance(uint256,address)": {
        "notice": "Called to check how much collateral a user can withdraw"
      },
      "getYieldLockState()": {
        "notice": "This function is used to get the current state of the yield lock"
      },
      "isExempted(uint256,uint256,address)": {
        "notice": "function to see if a user is exempted from paying a cycle"
      },
      "isUnderCollaterized(uint256,address)": {
        "notice": "Checks if a user has a collateral below 1.0x of total contribution amount"
      },
      "minCollateralToDeposit(uint256,uint256)": {
        "notice": "Called to check the minimum collateral amount to deposit in wei"
      },
      "termAPY(uint256)": {
        "notice": "This function is used to get a term APY"
      },
      "totalYieldGenerated(uint256)": {
        "notice": "This function is used to get the total yield generated for a term"
      },
      "userAPY(uint256,address)": {
        "notice": "This function is used to get a user APY"
      },
      "userHasoptedInYG(uint256,address)": {
        "notice": "This function is used to check if a user has opted in for yield generation"
      },
      "wasExpelled(uint256,address)": {
        "notice": "function to know if a user was expelled before"
      }
    },
    "version": 1
  },
  "storageLayout": {
    "storage": [],
    "types": null
  }
}