{
  "address": "0x228828d72fcBd316a4FCc2ec96EB52b5647120d9",
  "abi": [
    {
      "inputs": [
        {
          "internalType": "uint256",
          "name": "id",
          "type": "uint256"
        }
      ],
      "name": "getCollateralSummary",
      "outputs": [
        {
          "internalType": "bool",
          "name": "",
          "type": "bool"
        },
        {
          "internalType": "enum LibCollateral.CollateralStates",
          "name": "",
          "type": "uint8"
        },
        {
          "internalType": "uint256",
          "name": "",
          "type": "uint256"
        },
        {
          "internalType": "uint256",
          "name": "",
          "type": "uint256"
        },
        {
          "internalType": "address[]",
          "name": "",
          "type": "address[]"
        },
        {
          "internalType": "uint256",
          "name": "",
          "type": "uint256"
        }
      ],
      "stateMutability": "view",
      "type": "function"
    },
    {
      "inputs": [
        {
          "internalType": "address",
          "name": "depositor",
          "type": "address"
        },
        {
          "internalType": "uint256",
          "name": "id",
          "type": "uint256"
        }
      ],
      "name": "getDepositorCollateralSummary",
      "outputs": [
        {
          "internalType": "bool",
          "name": "",
          "type": "bool"
        },
        {
          "internalType": "uint256",
          "name": "",
          "type": "uint256"
        },
        {
          "internalType": "uint256",
          "name": "",
          "type": "uint256"
        }
      ],
      "stateMutability": "view",
      "type": "function"
    },
    {
      "inputs": [
        {
          "internalType": "uint256",
          "name": "id",
          "type": "uint256"
        }
      ],
      "name": "getFundSummary",
      "outputs": [
        {
          "internalType": "bool",
          "name": "",
          "type": "bool"
        },
        {
          "internalType": "enum LibFund.FundStates",
          "name": "",
          "type": "uint8"
        },
        {
          "internalType": "contract IERC20",
          "name": "",
          "type": "address"
        },
        {
          "internalType": "uint256",
          "name": "",
          "type": "uint256"
        },
        {
          "internalType": "address[]",
          "name": "",
          "type": "address[]"
        },
        {
          "internalType": "uint256",
          "name": "",
          "type": "uint256"
        },
        {
          "internalType": "uint256",
          "name": "",
          "type": "uint256"
        },
        {
          "internalType": "address",
          "name": "",
          "type": "address"
        },
        {
          "internalType": "uint256",
          "name": "",
          "type": "uint256"
        },
        {
          "internalType": "uint256",
          "name": "",
          "type": "uint256"
        }
      ],
      "stateMutability": "view",
      "type": "function"
    },
    {
      "inputs": [
        {
          "internalType": "address",
          "name": "participant",
          "type": "address"
        },
        {
          "internalType": "uint256",
          "name": "id",
          "type": "uint256"
        }
      ],
      "name": "getParticipantFundSummary",
      "outputs": [
        {
          "internalType": "bool",
          "name": "",
          "type": "bool"
        },
        {
          "internalType": "bool",
          "name": "",
          "type": "bool"
        },
        {
          "internalType": "bool",
          "name": "",
          "type": "bool"
        },
        {
          "internalType": "bool",
          "name": "",
          "type": "bool"
        },
        {
          "internalType": "uint256",
          "name": "",
          "type": "uint256"
        }
      ],
      "stateMutability": "view",
      "type": "function"
    },
    {
      "inputs": [
        {
          "internalType": "uint256",
          "name": "id",
          "type": "uint256"
        }
      ],
      "name": "getRemainingContributionTime",
      "outputs": [
        {
          "internalType": "uint256",
          "name": "",
          "type": "uint256"
        }
      ],
      "stateMutability": "view",
      "type": "function"
    },
    {
      "inputs": [
        {
          "internalType": "uint256",
          "name": "id",
          "type": "uint256"
        }
      ],
      "name": "getRemainingCycleTime",
      "outputs": [
        {
          "internalType": "uint256",
          "name": "",
          "type": "uint256"
        }
      ],
      "stateMutability": "view",
      "type": "function"
    },
    {
      "inputs": [
        {
          "internalType": "uint256",
          "name": "id",
          "type": "uint256"
        }
      ],
      "name": "getTermSummary",
      "outputs": [
        {
          "components": [
            {
              "internalType": "bool",
              "name": "initialized",
              "type": "bool"
            },
            {
              "internalType": "address",
              "name": "termOwner",
              "type": "address"
            },
            {
              "internalType": "uint256",
              "name": "creationTime",
              "type": "uint256"
            },
            {
              "internalType": "uint256",
              "name": "termId",
              "type": "uint256"
            },
            {
              "internalType": "uint256",
              "name": "totalParticipants",
              "type": "uint256"
            },
            {
              "internalType": "uint256",
              "name": "cycleTime",
              "type": "uint256"
            },
            {
              "internalType": "uint256",
              "name": "contributionAmount",
              "type": "uint256"
            },
            {
              "internalType": "uint256",
              "name": "contributionPeriod",
              "type": "uint256"
            },
            {
              "internalType": "uint256",
              "name": "fixedCollateralEth",
              "type": "uint256"
            },
            {
              "internalType": "address",
              "name": "stableTokenAddress",
              "type": "address"
            },
            {
              "internalType": "address",
              "name": "aggregatorAddress",
              "type": "address"
            }
          ],
          "internalType": "struct LibTerm.Term",
          "name": "",
          "type": "tuple"
        }
      ],
      "stateMutability": "view",
      "type": "function"
    },
    {
      "inputs": [],
      "name": "getTermsId",
      "outputs": [
        {
          "internalType": "uint256",
          "name": "",
          "type": "uint256"
        },
        {
          "internalType": "uint256",
          "name": "",
          "type": "uint256"
        }
      ],
      "stateMutability": "view",
      "type": "function"
    }
  ],
  "transactionHash": "0xaa28831fe65aa2d414617eb006101c3de823f27a4d20ff9c81e64c7302eb9b3c",
  "args": [],
  "numDeployments": 1,
  "solcInputHash": "9f7a732c1897a3dc667c51fd3f255384",
  "bytecode": "0x608060405234801561001057600080fd5b506109d8806100206000396000f3fe608060405234801561001057600080fd5b50600436106100885760003560e01c8063bb91b76d1161005b578063bb91b76d14610197578063d72bb87e14610228578063da3791ca14610251578063dbd576831461027657600080fd5b80631268612d1461008d5780636191474c146101465780637aed53a61461016757806392a6c80214610184575b600080fd5b61011161009b366004610711565b6000908152600080516020610983833981519152602090815260408083206001600160a01b03949094168352600584018252808320546006850183528184205460078601845282852054600887018552838620546009909701909452919093205460ff9384169591841694928416939092169190565b6040805195151586529315156020860152911515928401929092529015156060830152608082015260a0015b60405180910390f35b610159610154366004610749565b610296565b60405190815260200161013d565b61016f61036f565b6040805192835260208301919091520161013d565b610159610192366004610749565b6103b2565b61020b6101a5366004610711565b60009081527f35fa70a6f9ae8a4d427ebe0c1be62ffd2870fecc1df41c6fda0bf5803e562888602090815260408083206001600160a01b03949094168352600484018252808320546005850183528184205460069095019092529091205460ff90911692565b60408051931515845260208401929092529082015260600161013d565b61023b610236366004610749565b610411565b60405161013d9a999897969594939291906107bc565b61026461025f366004610749565b610504565b60405161013d96959493929190610836565b610289610284366004610749565b6105d5565b60405161013d9190610886565b6000818152600080516020610983833981519152602090815260408083207f87101b21d556417ad2b8e8f2700dbad90721d5d50a1f435f2dee0b9dc981ac8a90925282208154600190610100900460ff1660048111156102f8576102f8610762565b14610307575060009392505050565b60008160060154836002015460018560040154610324919061093f565b84600401546103339190610958565b61033d919061096f565b610347919061096f565b90508042111561035c57506000949350505050565b610366428261093f565b95945050505050565b7f87101b21d556417ad2b8e8f2700dbad90721d5d50a1f435f2dee0b9dc981ac898054600091829182906103a59060019061093f565b9154919491935090915050565b6000818152600080516020610983833981519152602090815260408083207f87101b21d556417ad2b8e8f2700dbad90721d5d50a1f435f2dee0b9dc981ac8a909252822060028201546004808401549083015485929161033d91610958565b6000808080606081808080808060008051602061098383398151915260008d815260209182526040908190208054600482015460028301546011840154601285015460038601546001870180548951818c0281018c01909a52808a52979a5060ff8088169a6101008904909116996001600160a01b036201000090990489169997989297899690931694939290918891908301828280156104db57602002820191906000526020600020905b81546001600160a01b031681526001909101906020018083116104bd575b505050505095509a509a509a509a509a509a509a509a509a509a50509193959799509193959799565b6000808080606081807f35fa70a6f9ae8a4d427ebe0c1be62ffd2870fecc1df41c6fda0bf5803e5628886000898152602091825260409081902080546001820154600283015460078401546003850180548751818a0281018a0190985280885295985060ff808616986101009096041696939592949093919284918301828280156105b857602002820191906000526020600020905b81546001600160a01b0316815260019091019060200180831161059a575b505050505091509650965096509650965096505091939550919395565b61064f60405180610160016040528060001515815260200160006001600160a01b031681526020016000815260200160008152602001600081526020016000815260200160008152602001600081526020016000815260200160006001600160a01b0316815260200160006001600160a01b031681525090565b5060009081527f87101b21d556417ad2b8e8f2700dbad90721d5d50a1f435f2dee0b9dc981ac8a6020908152604091829020825161016081018452815460ff8116151582526001600160a01b03610100918290048116948301949094526001830154948201949094526002820154606082015260038201546080820152600482015460a0820152600582015460c0820152600682015460e082015260078201549381019390935260088101548216610120840152600901541661014082015290565b6000806040838503121561072457600080fd5b82356001600160a01b038116811461073b57600080fd5b946020939093013593505050565b60006020828403121561075b57600080fd5b5035919050565b634e487b7160e01b600052602160045260246000fd5b600081518084526020808501945080840160005b838110156107b15781516001600160a01b03168752958201959082019060010161078c565b509495945050505050565b60006101408c1515835260058c106107d6576107d6610762565b602083018c90526001600160a01b038b81166040850152606084018b9052608084018290526108078285018b610778565b60a085019990995260c084019790975250509290931660e0830152610100820152610120015295945050505050565b861515815260006004871061084d5761084d610762565b86602083015285604083015284606083015260c0608083015261087360c0830185610778565b90508260a0830152979650505050505050565b815115158152610160810160208301516108ab60208401826001600160a01b03169052565b5060408301516040830152606083015160608301526080830151608083015260a083015160a083015260c083015160c083015260e083015160e08301526101008084015181840152506101208084015161090f828501826001600160a01b03169052565b5050610140928301516001600160a01b0316919092015290565b634e487b7160e01b600052601160045260246000fd5b8181038181111561095257610952610929565b92915050565b808202811582820484141761095257610952610929565b808201808211156109525761095261092956fe6751f7e27cecf86d7136f5749c224248cae80a39fafb59f8f6bf12c52816307ca2646970667358221220ace7c3f326f091226210940f551c5196c87454c9db5f472e8acaa23d55eed65f64736f6c63430008120033",
  "devdoc": {
    "kind": "dev",
    "methods": {
      "getCollateralSummary(uint256)": {
        "params": {
          "id": "the collateral id"
        },
        "returns": {
          "_0": "collateral: initialized, state, firstDepositTime, counterMembers, depositors, collateralDeposit"
        }
      },
      "getDepositorCollateralSummary(address,uint256)": {
        "params": {
          "depositor": "the depositor address",
          "id": "the collateral id"
        },
        "returns": {
          "_0": "isCollateralMember, collateralMembersBank, collateralPaymentBank"
        }
      },
      "getFundSummary(uint256)": {
        "params": {
          "id": "the fund id"
        },
        "returns": {
          "_0": "initialized, currentState, stableToken, currentCycle, beneficiariesOrder, fundStart, currentCycle, lastBeneficiary, totalAmountOfCycles, fundEnd"
        }
      },
      "getParticipantFundSummary(address,uint256)": {
        "params": {
          "id": "the fund id",
          "participant": "the user to get the info from"
        },
        "returns": {
          "_0": "isParticipant, isBeneficiary, paidThisCycle, autoPayEnabled, beneficiariesPool"
        }
      },
      "getRemainingContributionTime(uint256)": {
        "params": {
          "id": "the fund id"
        },
        "returns": {
          "_0": "the time left to contribute"
        }
      },
      "getRemainingCycleTime(uint256)": {
        "params": {
          "id": "the term id"
        },
        "returns": {
          "_0": "remaining time in the current cycle"
        }
      },
      "getTermSummary(uint256)": {
        "params": {
          "id": "the term id"
        },
        "returns": {
          "_0": "the term struct"
        }
      },
      "getTermsId()": {
        "returns": {
          "_0": "the current term id",
          "_1": "the next term id"
        }
      }
    },
    "version": 1
  },
  "userdoc": {
    "kind": "user",
    "methods": {
      "getFundSummary(uint256)": {
        "notice": "function to get the cycle information in one go"
      },
      "getParticipantFundSummary(address,uint256)": {
        "notice": "function to get cycle information of a specific participant"
      },
      "getRemainingContributionTime(uint256)": {
        "notice": "returns the time left to contribute for this cycle"
      }
    },
    "version": 1
  },
  "storageLayout": {
    "storage": [],
    "types": null
  }
}