{
  "address": "0xcE1661aF62c5Ed5Fdab007cf849cFC10b7c6f556",
  "abi": [
    {
      "inputs": [
        {
          "internalType": "uint256",
          "name": "id",
          "type": "uint256"
        }
      ],
      "name": "getCollateralSummary",
      "outputs": [
        {
          "internalType": "bool",
          "name": "",
          "type": "bool"
        },
        {
          "internalType": "enum LibCollateralV2.CollateralStates",
          "name": "",
          "type": "uint8"
        },
        {
          "internalType": "uint256",
          "name": "",
          "type": "uint256"
        },
        {
          "internalType": "uint256",
          "name": "",
          "type": "uint256"
        },
        {
          "internalType": "address[]",
          "name": "",
          "type": "address[]"
        }
      ],
      "stateMutability": "view",
      "type": "function"
    },
    {
      "inputs": [
        {
          "internalType": "uint256",
          "name": "id",
          "type": "uint256"
        }
      ],
      "name": "getCurrentBeneficiary",
      "outputs": [
        {
          "internalType": "address",
          "name": "",
          "type": "address"
        }
      ],
      "stateMutability": "view",
      "type": "function"
    },
    {
      "inputs": [
        {
          "internalType": "address",
          "name": "depositor",
          "type": "address"
        },
        {
          "internalType": "uint256",
          "name": "id",
          "type": "uint256"
        }
      ],
      "name": "getDepositorCollateralSummary",
      "outputs": [
        {
          "internalType": "bool",
          "name": "",
          "type": "bool"
        },
        {
          "internalType": "uint256",
          "name": "",
          "type": "uint256"
        },
        {
          "internalType": "uint256",
          "name": "",
          "type": "uint256"
        },
        {
          "internalType": "uint256",
          "name": "",
          "type": "uint256"
        }
      ],
      "stateMutability": "view",
      "type": "function"
    },
    {
      "inputs": [
        {
          "internalType": "uint256",
          "name": "id",
          "type": "uint256"
        }
      ],
      "name": "getFundSummary",
      "outputs": [
        {
          "internalType": "bool",
          "name": "",
          "type": "bool"
        },
        {
          "internalType": "enum LibFundV2.FundStates",
          "name": "",
          "type": "uint8"
        },
        {
          "internalType": "contract IERC20",
          "name": "",
          "type": "address"
        },
        {
          "internalType": "address[]",
          "name": "",
          "type": "address[]"
        },
        {
          "internalType": "uint256",
          "name": "",
          "type": "uint256"
        },
        {
          "internalType": "uint256",
          "name": "",
          "type": "uint256"
        },
        {
          "internalType": "uint256",
          "name": "",
          "type": "uint256"
        },
        {
          "internalType": "address",
          "name": "",
          "type": "address"
        },
        {
          "internalType": "uint256",
          "name": "",
          "type": "uint256"
        }
      ],
      "stateMutability": "view",
      "type": "function"
    },
    {
      "inputs": [],
      "name": "getLatestPrice",
      "outputs": [
        {
          "internalType": "uint256",
          "name": "",
          "type": "uint256"
        }
      ],
      "stateMutability": "view",
      "type": "function"
    },
    {
      "inputs": [
        {
          "internalType": "address",
          "name": "participant",
          "type": "address"
        },
        {
          "internalType": "uint256",
          "name": "id",
          "type": "uint256"
        }
      ],
      "name": "getParticipantFundSummary",
      "outputs": [
        {
          "internalType": "bool",
          "name": "",
          "type": "bool"
        },
        {
          "internalType": "bool",
          "name": "",
          "type": "bool"
        },
        {
          "internalType": "bool",
          "name": "",
          "type": "bool"
        },
        {
          "internalType": "bool",
          "name": "",
          "type": "bool"
        },
        {
          "internalType": "uint256",
          "name": "",
          "type": "uint256"
        }
      ],
      "stateMutability": "view",
      "type": "function"
    },
    {
      "inputs": [
        {
          "internalType": "address",
          "name": "participant",
          "type": "address"
        }
      ],
      "name": "getParticipantTerms",
      "outputs": [
        {
          "internalType": "uint256[]",
          "name": "",
          "type": "uint256[]"
        }
      ],
      "stateMutability": "view",
      "type": "function"
    },
    {
      "inputs": [
        {
          "internalType": "uint256",
          "name": "id",
          "type": "uint256"
        }
      ],
      "name": "getRemainingContributionTime",
      "outputs": [
        {
          "internalType": "uint256",
          "name": "",
          "type": "uint256"
        }
      ],
      "stateMutability": "view",
      "type": "function"
    },
    {
      "inputs": [
        {
          "internalType": "uint256",
          "name": "id",
          "type": "uint256"
        }
      ],
      "name": "getRemainingCycleTime",
      "outputs": [
        {
          "internalType": "uint256",
          "name": "",
          "type": "uint256"
        }
      ],
      "stateMutability": "view",
      "type": "function"
    },
    {
      "inputs": [
        {
          "internalType": "uint256",
          "name": "id",
          "type": "uint256"
        }
      ],
      "name": "getTermSummary",
      "outputs": [
        {
          "components": [
            {
              "internalType": "bool",
              "name": "initialized",
              "type": "bool"
            },
            {
              "internalType": "address",
              "name": "termOwner",
              "type": "address"
            },
            {
              "internalType": "uint256",
              "name": "creationTime",
              "type": "uint256"
            },
            {
              "internalType": "uint256",
              "name": "termId",
              "type": "uint256"
            },
            {
              "internalType": "uint256",
              "name": "totalParticipants",
              "type": "uint256"
            },
            {
              "internalType": "uint256",
              "name": "cycleTime",
              "type": "uint256"
            },
            {
              "internalType": "uint256",
              "name": "contributionAmount",
              "type": "uint256"
            },
            {
              "internalType": "uint256",
              "name": "contributionPeriod",
              "type": "uint256"
            },
            {
              "internalType": "address",
              "name": "stableTokenAddress",
              "type": "address"
            }
          ],
          "internalType": "struct LibTermV2.Term",
          "name": "",
          "type": "tuple"
        }
      ],
      "stateMutability": "view",
      "type": "function"
    },
    {
      "inputs": [],
      "name": "getTermsId",
      "outputs": [
        {
          "internalType": "uint256",
          "name": "",
          "type": "uint256"
        },
        {
          "internalType": "uint256",
          "name": "",
          "type": "uint256"
        }
      ],
      "stateMutability": "view",
      "type": "function"
    },
    {
      "inputs": [
        {
          "internalType": "uint256",
          "name": "USDAmount",
          "type": "uint256"
        }
      ],
      "name": "getToEthConversionRate",
      "outputs": [
        {
          "internalType": "uint256",
          "name": "",
          "type": "uint256"
        }
      ],
      "stateMutability": "view",
      "type": "function"
    },
    {
      "inputs": [
        {
          "internalType": "uint256",
          "name": "ethAmount",
          "type": "uint256"
        }
      ],
      "name": "getToUSDConversionRate",
      "outputs": [
        {
          "internalType": "uint256",
          "name": "",
          "type": "uint256"
        }
      ],
      "stateMutability": "view",
      "type": "function"
    },
    {
      "inputs": [
        {
          "components": [
            {
              "internalType": "bool",
              "name": "initialized",
              "type": "bool"
            },
            {
              "internalType": "address",
              "name": "termOwner",
              "type": "address"
            },
            {
              "internalType": "uint256",
              "name": "creationTime",
              "type": "uint256"
            },
            {
              "internalType": "uint256",
              "name": "termId",
              "type": "uint256"
            },
            {
              "internalType": "uint256",
              "name": "totalParticipants",
              "type": "uint256"
            },
            {
              "internalType": "uint256",
              "name": "cycleTime",
              "type": "uint256"
            },
            {
              "internalType": "uint256",
              "name": "contributionAmount",
              "type": "uint256"
            },
            {
              "internalType": "uint256",
              "name": "contributionPeriod",
              "type": "uint256"
            },
            {
              "internalType": "address",
              "name": "stableTokenAddress",
              "type": "address"
            }
          ],
          "internalType": "struct LibTermV2.Term",
          "name": "term",
          "type": "tuple"
        },
        {
          "internalType": "uint256",
          "name": "depositorIndex",
          "type": "uint256"
        }
      ],
      "name": "minCollateralToDeposit",
      "outputs": [
        {
          "internalType": "uint256",
          "name": "amount",
          "type": "uint256"
        }
      ],
      "stateMutability": "view",
      "type": "function"
    }
  ],
  "transactionHash": "0xa6bba06367c63881cafddf3b2aef714ac143bbe48e9bda432493ecb34d3d99c7",
  "args": [],
  "numDeployments": 1,
  "solcInputHash": "fcf3f5ced1f3d5f96be9fe2a13cdc034",
  "bytecode": "0x608060405234801561001057600080fd5b506110b4806100206000396000f3fe608060405234801561001057600080fd5b50600436106100ea5760003560e01c8063bb91b76d1161008c578063d7f8cffd11610066578063d7f8cffd14610312578063d8f8e99114610325578063da3791ca14610350578063dbd576831461037457600080fd5b8063bb91b76d14610227578063c39179c2146102ca578063d72bb87e146102ea57600080fd5b80637aed53a6116100c85780637aed53a6146101dc5780638e15f473146101f957806392a6c802146102015780639e195b401461021457600080fd5b80631268612d146100ef5780635f0f1f42146101a85780636191474c146101c9575b600080fd5b6101736100fd366004610c0a565b600090815260008051602061105f833981519152602090815260408083206001600160a01b03949094168352600584018252808320546006850183528184205460078601845282852054600887018552838620546009909701909452919093205460ff9384169591841694928416939092169190565b6040805195151586529315156020860152911515928401929092529015156060830152608082015260a0015b60405180910390f35b6101bb6101b6366004610c34565b610394565b60405190815260200161019f565b6101bb6101d7366004610c34565b6103c8565b6101e46104a1565b6040805192835260208301919091520161019f565b6101bb6104e4565b6101bb61020f366004610c34565b61075a565b6101bb610222366004610c34565b6107b9565b6102a8610235366004610c0a565b60009081527f35fa70a6f9ae8a4d427ebe0c1be62ffd2870fecc1df41c6fda0bf5803e562888602090815260408083206001600160a01b03949094168352600484018252808320546005850183528184205460068601845282852054600790960190935292205460ff9092169390929190565b604080519415158552602085019390935291830152606082015260800161019f565b6102dd6102d8366004610c4d565b6107db565b60405161019f9190610c6f565b6102fd6102f8366004610c34565b61088d565b60405161019f99989796959493929190610d0d565b6101bb610320366004610dc7565b610975565b610338610333366004610c34565b6109bc565b6040516001600160a01b03909116815260200161019f565b61036361035e366004610c34565b610a18565b60405161019f959493929190610e6b565b610387610382366004610c34565b610ae0565b60405161019f9190610eb3565b60008061039f6104e4565b90506000670de0b6b3a76400006103b68584610f49565b6103c09190610f66565b949350505050565b600081815260008051602061105f833981519152602090815260408083207f87101b21d556417ad2b8e8f2700dbad90721d5d50a1f435f2dee0b9dc981ac8a90925282208154600190610100900460ff16600481111561042a5761042a610cb3565b14610439575060009392505050565b600081600601548360020154600185600401546104569190610f88565b84600401546104659190610f49565b61046f9190610f9b565b6104799190610f9b565b90508042111561048e57506000949350505050565b6104984282610f88565b95945050505050565b7f87101b21d556417ad2b8e8f2700dbad90721d5d50a1f435f2dee0b9dc981ac898054600091829182906104d790600190610f88565b9154919491935090915050565b7f138fa7b895cc6132bd44317f3510a9c38821e93ca223f9fdc532527c01963ec55460408051633fabe5a360e21b815290516000927f138fa7b895cc6132bd44317f3510a9c38821e93ca223f9fdc532527c01963ec492849283926001600160a01b03169163feaf968c9160048083019260a09291908290030181865afa158015610573573d6000803e3d6000fd5b505050506040513d601f19601f820116820180604052508101906105979190610fc8565b50509250925050816000146105e45760405162461bcd60e51b815260206004820152600e60248201526d29b2b8bab2b731b2b9103237bbb760911b60448201526064015b60405180910390fd5b6105ee8142610f88565b835411156106365760405162461bcd60e51b8152602060048201526015602482015274053657175656e636572207374617274696e6720757605c1b60448201526064016105db565b6000806000808660020160009054906101000a90046001600160a01b03166001600160a01b031663feaf968c6040518163ffffffff1660e01b815260040160a060405180830381865afa158015610691573d6000803e3d6000fd5b505050506040513d601f19601f820116820180604052508101906106b59190610fc8565b945094505093509350816000141580156106e757508369ffffffffffffffffffff168169ffffffffffffffffffff1610155b80156106f35750600083135b61073f5760405162461bcd60e51b815260206004820152601b60248201527f436861696e6c696e6b4f7261636c653a207374616c652064617461000000000060448201526064016105db565b61074e836402540be400611018565b97505050505050505090565b600081815260008051602061105f833981519152602090815260408083207f87101b21d556417ad2b8e8f2700dbad90721d5d50a1f435f2dee0b9dc981ac8a909252822060028201546004808401549083015485929161046f91610f49565b6000806107c46104e4565b90506000816103b685670de0b6b3a7640000610f49565b6001600160a01b03811660009081527f87101b21d556417ad2b8e8f2700dbad90721d5d50a1f435f2dee0b9dc981ac8b6020908152604080832080548251818502810185019093528083526060947f87101b21d556417ad2b8e8f2700dbad90721d5d50a1f435f2dee0b9dc981ac8994909392919083018282801561087f57602002820191906000526020600020905b81548152602001906001019080831161086b575b509398975050505050505050565b60008080606081808080808060008051602061105f83398151915260008c815260209182526040908190208054600282015460038301546004840154601185015460128601546001870180548951818c0281018c01909a52808a52979a5060ff8088169a610100890490911699620100009098046001600160a01b0390811699929894169391889183018282801561094e57602002820191906000526020600020905b81546001600160a01b03168152600190910190602001808311610930575b50505050509550995099509950995099509950995099509950509193959799909294969850565b6000806109938460c00151670de0b6b3a76400006102229190610f49565b905060648385608001516109a79190610f88565b6109b19083610f49565b6103b6906096610f49565b600081815260008051602061105f8339815191526020526040812060048101546001808301916109ec9190610f88565b815481106109fc576109fc611048565b6000918252602090912001546001600160a01b03169392505050565b60008080806060817f35fa70a6f9ae8a4d427ebe0c1be62ffd2870fecc1df41c6fda0bf5803e5628886000888152602091825260409081902080546001820154600283015460038401805486518189028101890190975280875294975060ff808516976101009095041695929491939092918391830182828015610ac557602002820191906000526020600020905b81546001600160a01b03168152600190910190602001808311610aa7575b50505050509050955095509550955095505091939590929450565b610b4360405180610120016040528060001515815260200160006001600160a01b0316815260200160008152602001600081526020016000815260200160008152602001600081526020016000815260200160006001600160a01b031681525090565b7f87101b21d556417ad2b8e8f2700dbad90721d5d50a1f435f2dee0b9dc981ac89600092835260019081016020908152604093849020845161012081018652815460ff8116151582526001600160a01b036101009182900481169483019490945293820154958101959095526002810154606086015260038101546080860152600481015460a0860152600581015460c0860152600681015460e08601526007015416908301525090565b80356001600160a01b0381168114610c0557600080fd5b919050565b60008060408385031215610c1d57600080fd5b610c2683610bee565b946020939093013593505050565b600060208284031215610c4657600080fd5b5035919050565b600060208284031215610c5f57600080fd5b610c6882610bee565b9392505050565b6020808252825182820181905260009190848201906040850190845b81811015610ca757835183529284019291840191600101610c8b565b50909695505050505050565b634e487b7160e01b600052602160045260246000fd5b600081518084526020808501945080840160005b83811015610d025781516001600160a01b031687529582019590820190600101610cdd565b509495945050505050565b60006101208b1515835260058b10610d2757610d27610cb3565b602083018b90526001600160a01b038a8116604085015260608401829052610d518285018b610cc9565b608085019990995260a0840197909752505060c0810193909352921660e08201526101000152949350505050565b604051610120810167ffffffffffffffff81118282101715610db157634e487b7160e01b600052604160045260246000fd5b60405290565b80358015158114610c0557600080fd5b600080828403610140811215610ddc57600080fd5b61012080821215610dec57600080fd5b610df4610d7f565b9150610dff85610db7565b8252610e0d60208601610bee565b602083015260408501356040830152606085013560608301526080850135608083015260a085013560a083015260c085013560c083015260e085013560e0830152610100610e5c818701610bee565b90830152909593013593505050565b8515158152600060048610610e8257610e82610cb3565b85602083015284604083015283606083015260a06080830152610ea860a0830184610cc9565b979650505050505050565b60006101208201905082511515825260018060a01b03602084015116602083015260408301516040830152606083015160608301526080830151608083015260a083015160a083015260c083015160c083015260e083015160e083015261010080840151610f2b828501826001600160a01b03169052565b505092915050565b634e487b7160e01b600052601160045260246000fd5b8082028115828204841417610f6057610f60610f33565b92915050565b600082610f8357634e487b7160e01b600052601260045260246000fd5b500490565b81810381811115610f6057610f60610f33565b80820180821115610f6057610f60610f33565b805169ffffffffffffffffffff81168114610c0557600080fd5b600080600080600060a08688031215610fe057600080fd5b610fe986610fae565b945060208601519350604086015192506060860151915061100c60808701610fae565b90509295509295909350565b80820260008212600160ff1b8414161561103457611034610f33565b8181058314821517610f6057610f60610f33565b634e487b7160e01b600052603260045260246000fdfe6751f7e27cecf86d7136f5749c224248cae80a39fafb59f8f6bf12c52816307ca2646970667358221220af970555bf3e49f621cc957bef96fbe4f0dcef1560386218dbab0790db5bfce564736f6c63430008120033",
  "devdoc": {
    "kind": "dev",
    "methods": {
      "getCollateralSummary(uint256)": {
        "params": {
          "id": "the collateral id"
        },
        "returns": {
          "_0": "collateral: initialized, state, firstDepositTime, counterMembers, depositors, collateralDeposit"
        }
      },
      "getCurrentBeneficiary(uint256)": {
        "params": {
          "id": "the fund id"
        },
        "returns": {
          "_0": "the current beneficiary"
        }
      },
      "getDepositorCollateralSummary(address,uint256)": {
        "params": {
          "depositor": "the depositor address",
          "id": "the collateral id"
        },
        "returns": {
          "_0": "isCollateralMember, collateralMembersBank, collateralPaymentBank"
        }
      },
      "getFundSummary(uint256)": {
        "params": {
          "id": "the fund id"
        },
        "returns": {
          "_0": "initialized, currentState, stableToken, currentCycle, beneficiariesOrder, fundStart, currentCycle, lastBeneficiary, totalAmountOfCycles, fundEnd"
        }
      },
      "getLatestPrice()": {
        "returns": {
          "_0": "uint latest price in Wei Note: 18 decimals"
        }
      },
      "getParticipantFundSummary(address,uint256)": {
        "params": {
          "id": "the fund id",
          "participant": "the user to get the info from"
        },
        "returns": {
          "_0": "isParticipant, isBeneficiary, paidThisCycle, autoPayEnabled, beneficiariesPool"
        }
      },
      "getParticipantTerms(address)": {
        "params": {
          "participant": "the participant address"
        },
        "returns": {
          "_0": "the term ids the participant is part of"
        }
      },
      "getRemainingContributionTime(uint256)": {
        "params": {
          "id": "the fund id"
        },
        "returns": {
          "_0": "the time left to contribute"
        }
      },
      "getRemainingCycleTime(uint256)": {
        "params": {
          "id": "the term id"
        },
        "returns": {
          "_0": "remaining time in the current cycle"
        }
      },
      "getTermSummary(uint256)": {
        "params": {
          "id": "the term id"
        },
        "returns": {
          "_0": "the term struct"
        }
      },
      "getTermsId()": {
        "returns": {
          "_0": "the current term id",
          "_1": "the next term id"
        }
      },
      "getToEthConversionRate(uint256)": {
        "details": "should we always deal with in Wei?",
        "params": {
          "USDAmount": "The amount in USD"
        },
        "returns": {
          "_0": "uint converted amount in wei"
        }
      },
      "getToUSDConversionRate(uint256)": {
        "details": "should we always deal with in Wei?",
        "params": {
          "ethAmount": "The amount in ETH"
        },
        "returns": {
          "_0": "uint converted amount in USD correct to 18 decimals"
        }
      },
      "minCollateralToDeposit((bool,address,uint256,uint256,uint256,uint256,uint256,uint256,address),uint256)": {
        "details": "The minimum collateral amount is calculated based on the index on the depositors arrayThe return value should be the minimum msg.value when calling joinTermC = 1.5 Cp (Tp - I) where C = minimum collateral amount, Cp = contribution amount, Tp = total participants, I = depositor index (starts at 0). 1.5",
        "returns": {
          "amount": "the minimum collateral amount to deposit in wei"
        }
      }
    },
    "version": 1
  },
  "userdoc": {
    "kind": "user",
    "methods": {
      "getCurrentBeneficiary(uint256)": {
        "notice": "function to get the current beneficiary"
      },
      "getFundSummary(uint256)": {
        "notice": "function to get the cycle information in one go"
      },
      "getLatestPrice()": {
        "notice": "Gets latest ETH / USD price"
      },
      "getParticipantFundSummary(address,uint256)": {
        "notice": "function to get cycle information of a specific participant"
      },
      "getRemainingContributionTime(uint256)": {
        "notice": "returns the time left to contribute for this cycle"
      },
      "getToEthConversionRate(uint256)": {
        "notice": "Gets the conversion rate of an amount in USD to ETH"
      },
      "getToUSDConversionRate(uint256)": {
        "notice": "Gets the conversion rate of an amount in ETH to USD"
      },
      "minCollateralToDeposit((bool,address,uint256,uint256,uint256,uint256,uint256,uint256,address),uint256)": {
        "notice": "Called to check the minimum collateral amount to deposit in wei"
      }
    },
    "version": 1
  },
  "storageLayout": {
    "storage": [],
    "types": null
  }
}