{
  "address": "0x8bDC8d475bebD34F2C702eBCCC9c41d267A95a21",
  "abi": [
    {
      "inputs": [
        {
          "internalType": "uint256",
          "name": "termId",
          "type": "uint256"
        }
      ],
      "name": "getCollateralSummary",
      "outputs": [
        {
          "internalType": "bool",
          "name": "",
          "type": "bool"
        },
        {
          "internalType": "enum LibCollateralV2.CollateralStates",
          "name": "",
          "type": "uint8"
        },
        {
          "internalType": "uint256",
          "name": "",
          "type": "uint256"
        },
        {
          "internalType": "uint256",
          "name": "",
          "type": "uint256"
        },
        {
          "internalType": "address[]",
          "name": "",
          "type": "address[]"
        }
      ],
      "stateMutability": "view",
      "type": "function"
    },
    {
      "inputs": [
        {
          "internalType": "uint256",
          "name": "termId",
          "type": "uint256"
        }
      ],
      "name": "getCurrentBeneficiary",
      "outputs": [
        {
          "internalType": "address",
          "name": "",
          "type": "address"
        }
      ],
      "stateMutability": "view",
      "type": "function"
    },
    {
      "inputs": [
        {
          "internalType": "address",
          "name": "depositor",
          "type": "address"
        },
        {
          "internalType": "uint256",
          "name": "termId",
          "type": "uint256"
        }
      ],
      "name": "getDepositorCollateralSummary",
      "outputs": [
        {
          "internalType": "bool",
          "name": "",
          "type": "bool"
        },
        {
          "internalType": "uint256",
          "name": "",
          "type": "uint256"
        },
        {
          "internalType": "uint256",
          "name": "",
          "type": "uint256"
        },
        {
          "internalType": "uint256",
          "name": "",
          "type": "uint256"
        }
      ],
      "stateMutability": "view",
      "type": "function"
    },
    {
      "inputs": [
        {
          "internalType": "uint256",
          "name": "termId",
          "type": "uint256"
        }
      ],
      "name": "getFundSummary",
      "outputs": [
        {
          "internalType": "bool",
          "name": "",
          "type": "bool"
        },
        {
          "internalType": "enum LibFundV2.FundStates",
          "name": "",
          "type": "uint8"
        },
        {
          "internalType": "contract IERC20",
          "name": "",
          "type": "address"
        },
        {
          "internalType": "address[]",
          "name": "",
          "type": "address[]"
        },
        {
          "internalType": "uint256",
          "name": "",
          "type": "uint256"
        },
        {
          "internalType": "uint256",
          "name": "",
          "type": "uint256"
        },
        {
          "internalType": "uint256",
          "name": "",
          "type": "uint256"
        },
        {
          "internalType": "uint256",
          "name": "",
          "type": "uint256"
        }
      ],
      "stateMutability": "view",
      "type": "function"
    },
    {
      "inputs": [],
      "name": "getLatestPrice",
      "outputs": [
        {
          "internalType": "uint256",
          "name": "",
          "type": "uint256"
        }
      ],
      "stateMutability": "view",
      "type": "function"
    },
    {
      "inputs": [
        {
          "internalType": "address",
          "name": "participant",
          "type": "address"
        },
        {
          "internalType": "uint256",
          "name": "termId",
          "type": "uint256"
        }
      ],
      "name": "getParticipantFundSummary",
      "outputs": [
        {
          "internalType": "bool",
          "name": "",
          "type": "bool"
        },
        {
          "internalType": "bool",
          "name": "",
          "type": "bool"
        },
        {
          "internalType": "bool",
          "name": "",
          "type": "bool"
        },
        {
          "internalType": "bool",
          "name": "",
          "type": "bool"
        },
        {
          "internalType": "uint256",
          "name": "",
          "type": "uint256"
        }
      ],
      "stateMutability": "view",
      "type": "function"
    },
    {
      "inputs": [
        {
          "internalType": "address",
          "name": "participant",
          "type": "address"
        }
      ],
      "name": "getParticipantTerms",
      "outputs": [
        {
          "internalType": "uint256[]",
          "name": "",
          "type": "uint256[]"
        }
      ],
      "stateMutability": "view",
      "type": "function"
    },
    {
      "inputs": [
        {
          "internalType": "uint256",
          "name": "termId",
          "type": "uint256"
        }
      ],
      "name": "getRemainingContributionPeriod",
      "outputs": [
        {
          "internalType": "uint256",
          "name": "",
          "type": "uint256"
        }
      ],
      "stateMutability": "view",
      "type": "function"
    },
    {
      "inputs": [
        {
          "internalType": "uint256",
          "name": "termId",
          "type": "uint256"
        }
      ],
      "name": "getRemainingContributionTime",
      "outputs": [
        {
          "internalType": "uint256",
          "name": "",
          "type": "uint256"
        }
      ],
      "stateMutability": "view",
      "type": "function"
    },
    {
      "inputs": [
        {
          "internalType": "uint256",
          "name": "termId",
          "type": "uint256"
        }
      ],
      "name": "getRemainingCycleTime",
      "outputs": [
        {
          "internalType": "uint256",
          "name": "",
          "type": "uint256"
        }
      ],
      "stateMutability": "view",
      "type": "function"
    },
    {
      "inputs": [
        {
          "internalType": "uint256",
          "name": "termId",
          "type": "uint256"
        }
      ],
      "name": "getRemainingCycles",
      "outputs": [
        {
          "internalType": "uint256",
          "name": "",
          "type": "uint256"
        }
      ],
      "stateMutability": "view",
      "type": "function"
    },
    {
      "inputs": [
        {
          "internalType": "uint256",
          "name": "termId",
          "type": "uint256"
        }
      ],
      "name": "getRemainingCyclesContributionWei",
      "outputs": [
        {
          "internalType": "uint256",
          "name": "",
          "type": "uint256"
        }
      ],
      "stateMutability": "view",
      "type": "function"
    },
    {
      "inputs": [
        {
          "internalType": "uint256",
          "name": "termId",
          "type": "uint256"
        }
      ],
      "name": "getTermSummary",
      "outputs": [
        {
          "components": [
            {
              "internalType": "bool",
              "name": "initialized",
              "type": "bool"
            },
            {
              "internalType": "bool",
              "name": "expired",
              "type": "bool"
            },
            {
              "internalType": "address",
              "name": "termOwner",
              "type": "address"
            },
            {
              "internalType": "uint256",
              "name": "creationTime",
              "type": "uint256"
            },
            {
              "internalType": "uint256",
              "name": "termId",
              "type": "uint256"
            },
            {
              "internalType": "uint256",
              "name": "registrationPeriod",
              "type": "uint256"
            },
            {
              "internalType": "uint256",
              "name": "totalParticipants",
              "type": "uint256"
            },
            {
              "internalType": "uint256",
              "name": "cycleTime",
              "type": "uint256"
            },
            {
              "internalType": "uint256",
              "name": "contributionAmount",
              "type": "uint256"
            },
            {
              "internalType": "uint256",
              "name": "contributionPeriod",
              "type": "uint256"
            },
            {
              "internalType": "address",
              "name": "stableTokenAddress",
              "type": "address"
            }
          ],
          "internalType": "struct LibTermV2.Term",
          "name": "",
          "type": "tuple"
        }
      ],
      "stateMutability": "view",
      "type": "function"
    },
    {
      "inputs": [],
      "name": "getTermsId",
      "outputs": [
        {
          "internalType": "uint256",
          "name": "",
          "type": "uint256"
        },
        {
          "internalType": "uint256",
          "name": "",
          "type": "uint256"
        }
      ],
      "stateMutability": "view",
      "type": "function"
    },
    {
      "inputs": [
        {
          "internalType": "uint256",
          "name": "USDAmount",
          "type": "uint256"
        }
      ],
      "name": "getToEthConversionRate",
      "outputs": [
        {
          "internalType": "uint256",
          "name": "",
          "type": "uint256"
        }
      ],
      "stateMutability": "view",
      "type": "function"
    },
    {
      "inputs": [
        {
          "internalType": "uint256",
          "name": "ethAmount",
          "type": "uint256"
        }
      ],
      "name": "getToUSDConversionRate",
      "outputs": [
        {
          "internalType": "uint256",
          "name": "",
          "type": "uint256"
        }
      ],
      "stateMutability": "view",
      "type": "function"
    },
    {
      "inputs": [
        {
          "components": [
            {
              "internalType": "bool",
              "name": "initialized",
              "type": "bool"
            },
            {
              "internalType": "bool",
              "name": "expired",
              "type": "bool"
            },
            {
              "internalType": "address",
              "name": "termOwner",
              "type": "address"
            },
            {
              "internalType": "uint256",
              "name": "creationTime",
              "type": "uint256"
            },
            {
              "internalType": "uint256",
              "name": "termId",
              "type": "uint256"
            },
            {
              "internalType": "uint256",
              "name": "registrationPeriod",
              "type": "uint256"
            },
            {
              "internalType": "uint256",
              "name": "totalParticipants",
              "type": "uint256"
            },
            {
              "internalType": "uint256",
              "name": "cycleTime",
              "type": "uint256"
            },
            {
              "internalType": "uint256",
              "name": "contributionAmount",
              "type": "uint256"
            },
            {
              "internalType": "uint256",
              "name": "contributionPeriod",
              "type": "uint256"
            },
            {
              "internalType": "address",
              "name": "stableTokenAddress",
              "type": "address"
            }
          ],
          "internalType": "struct LibTermV2.Term",
          "name": "term",
          "type": "tuple"
        },
        {
          "internalType": "uint256",
          "name": "depositorIndex",
          "type": "uint256"
        }
      ],
      "name": "minCollateralToDeposit",
      "outputs": [
        {
          "internalType": "uint256",
          "name": "amount",
          "type": "uint256"
        }
      ],
      "stateMutability": "view",
      "type": "function"
    },
    {
      "inputs": [
        {
          "internalType": "uint256",
          "name": "termId",
          "type": "uint256"
        }
      ],
      "name": "termAPR",
      "outputs": [
        {
          "internalType": "uint256",
          "name": "",
          "type": "uint256"
        }
      ],
      "stateMutability": "view",
      "type": "function"
    },
    {
      "inputs": [
        {
          "internalType": "uint256",
          "name": "termId",
          "type": "uint256"
        }
      ],
      "name": "totalYieldGenerated",
      "outputs": [
        {
          "internalType": "uint256",
          "name": "",
          "type": "uint256"
        }
      ],
      "stateMutability": "view",
      "type": "function"
    },
    {
      "inputs": [
        {
          "internalType": "uint256",
          "name": "termId",
          "type": "uint256"
        },
        {
          "internalType": "address",
          "name": "user",
          "type": "address"
        }
      ],
      "name": "userAPR",
      "outputs": [
        {
          "internalType": "uint256",
          "name": "",
          "type": "uint256"
        }
      ],
      "stateMutability": "view",
      "type": "function"
    },
    {
      "inputs": [
        {
          "internalType": "uint256",
          "name": "termId",
          "type": "uint256"
        },
        {
          "internalType": "address",
          "name": "user",
          "type": "address"
        }
      ],
      "name": "userYieldGenerated",
      "outputs": [
        {
          "internalType": "uint256",
          "name": "",
          "type": "uint256"
        }
      ],
      "stateMutability": "view",
      "type": "function"
    },
    {
      "inputs": [
        {
          "internalType": "uint256",
          "name": "termId",
          "type": "uint256"
        },
        {
          "internalType": "address",
          "name": "user",
          "type": "address"
        }
      ],
      "name": "wasExpelled",
      "outputs": [
        {
          "internalType": "bool",
          "name": "",
          "type": "bool"
        }
      ],
      "stateMutability": "view",
      "type": "function"
    },
    {
      "inputs": [
        {
          "internalType": "uint256",
          "name": "termId",
          "type": "uint256"
        },
        {
          "internalType": "address",
          "name": "user",
          "type": "address"
        }
      ],
      "name": "yieldDistributionRatio",
      "outputs": [
        {
          "internalType": "uint256",
          "name": "",
          "type": "uint256"
        }
      ],
      "stateMutability": "view",
      "type": "function"
    }
  ],
  "transactionHash": "0xe47430e2c39d5456ffc2775bd89f4225f932410212808202d0042bf315bcd8a0",
  "args": [],
  "numDeployments": 1,
  "solcInputHash": "7fd8a3dd9f976d40ffd25cccf6b1d82b",
  "bytecode": "0x608060405234801561001057600080fd5b506118ef806100206000396000f3fe608060405234801561001057600080fd5b506004361061014d5760003560e01c8063bb91b76d116100c3578063da3791ca1161007c578063da3791ca1461040f578063dbd5768314610433578063dbf4281014610453578063e6bbeae514610466578063e6e9e05714610479578063f0d826e71461048c57600080fd5b8063bb91b76d146102d6578063c39179c214610367578063cd78fa4214610387578063d72bb87e1461039a578063d7992e5b146103c1578063d8f8e991146103e457600080fd5b80637aed53a6116101155780637aed53a61461026557806382bceea5146102825780638e15f4731461029557806392a6c8021461029d5780639e195b40146102b0578063afa6b963146102c357600080fd5b80631268612d146101525780631a1faa071461020b5780635f0f1f421461022c5780636191474c1461023f57806362f02abd14610252575b600080fd5b6101d6610160366004611343565b600090815260008051602061185a833981519152602090815260408083206001600160a01b03949094168352600584018252808320546006850183528184205460078601845282852054600887018552838620546009909701909452919093205460ff9384169591841694928416939092169190565b6040805195151586529315156020860152911515928401929092529015156060830152608082015260a0015b60405180910390f35b61021e61021936600461136d565b61049f565b604051908152602001610202565b61021e61023a36600461136d565b610505565b61021e61024d36600461136d565b610527565b61021e61026036600461136d565b6105ee565b61026d61062f565b60408051928352602083019190915201610202565b61021e610290366004611386565b610672565b61021e6106dc565b61021e6102ab36600461136d565b610a9e565b61021e6102be36600461136d565b610aeb565b61021e6102d1366004611386565b610b0d565b6103456102e4366004611343565b600090815260008051602061189a833981519152602090815260408083206001600160a01b03949094168352600484018252808320546005850183528184205460068601845282852054600790960190935292205460ff9092169390929190565b6040805194151585526020850193909352918301526060820152608001610202565b61037a6103753660046113b2565b610b6a565b60405161020291906113cd565b61021e610395366004611459565b610c1c565b6103ad6103a836600461136d565b610c64565b604051610202989796959493929190611576565b6103d46103cf366004611386565b610d3d565b6040519015158152602001610202565b6103f76103f236600461136d565b610dd7565b6040516001600160a01b039091168152602001610202565b61042261041d36600461136d565b610e33565b6040516102029594939291906115e1565b61044661044136600461136d565b610ee9565b6040516102029190611629565b61021e61046136600461136d565b611013565b61021e610474366004611386565b611191565b61021e61048736600461136d565b6111ea565b61021e61049a36600461136d565b61123d565b600081815260008051602061183a83398151915260205260408120600181015482906104cb90426116de565b90506104db816301e133806116f1565b82600301546104e986611013565b6104f3919061171e565b6104fd919061171e565b949350505050565b6000806105106106dc565b90506000670de0b6b3a76400006104f385846116f1565b600081815260008051602061185a8339815191526020908152604080832060008051602061187a83398151915290925282208154600190610100900460ff1660048111156105775761057761151c565b14610586575060009392505050565b600081600701548360020154600185600401546105a391906116de565b84600501546105b291906116f1565b6105bc9190611732565b6105c69190611732565b9050804211156105db57506000949350505050565b6105e542826116de565b95945050505050565b600081815260008051602061185a833981519152602052604081206004810154601282015461061e906001611732565b61062891906116de565b9392505050565b7f87101b21d556417ad2b8e8f2700dbad90721d5d50a1f435f2dee0b9dc981ac89805460009182918290610665906001906116de565b9154919491935090915050565b600082815260008051602061183a833981519152602052604081206001810154829061069e90426116de565b90506106ae816301e133806116f1565b82600301546106bd8787610b0d565b6106c7919061171e565b6106d1919061171e565b925050505b92915050565b7f138fa7b895cc6132bd44317f3510a9c38821e93ca223f9fdc532527c01963ec55460408051633fabe5a360e21b815290516000927f138fa7b895cc6132bd44317f3510a9c38821e93ca223f9fdc532527c01963ec492849283926001600160a01b03169163feaf968c9160048083019260a09291908290030181865afa15801561076b573d6000803e3d6000fd5b505050506040513d601f19601f8201168201806040525081019061078f919061175c565b50509250925050816000146107dc5760405162461bcd60e51b815260206004820152600e60248201526d29b2b8bab2b731b2b9103237bbb760911b60448201526064015b60405180910390fd5b6107e681426116de565b8354111561082e5760405162461bcd60e51b8152602060048201526015602482015274053657175656e636572207374617274696e6720757605c1b60448201526064016107d3565b6000806000808660020160405161085290661155120bd554d160ca1b815260070190565b9081526040805191829003602001822054633fabe5a360e21b835290516001600160a01b039091169163feaf968c9160048083019260a09291908290030181865afa1580156108a5573d6000803e3d6000fd5b505050506040513d601f19601f820116820180604052508101906108c9919061175c565b945094505093509350816000141580156108f55750836001600160501b0316816001600160501b031610155b80156109015750600083135b61094d5760405162461bcd60e51b815260206004820152601b60248201527f436861696e6c696e6b4f7261636c653a207374616c652064617461000000000060448201526064016107d3565b6000806000808a60020160405161097290675553442f5553444360c01b815260080190565b9081526040805191829003602001822054633fabe5a360e21b835290516001600160a01b039091169163feaf968c9160048083019260a09291908290030181865afa1580156109c5573d6000803e3d6000fd5b505050506040513d601f19601f820116820180604052508101906109e9919061175c565b94509450509350935081600014158015610a155750836001600160501b0316816001600160501b031610155b8015610a215750600083135b610a6d5760405162461bcd60e51b815260206004820152601b60248201527f436861696e6c696e6b4f7261636c653a207374616c652064617461000000000060448201526064016107d3565b6000610a7984896117ac565b9050610a8d81670de0b6b3a76400006117da565b9c5050505050505050505050505090565b600081815260008051602061185a8339815191526020908152604080832060008051602061187a83398151915290925282206002820154600483015460058301548592916105bc916116f1565b600080610af66106dc565b90506000816104f385670de0b6b3a76400006116f1565b600082815260008051602061183a83398151915260205260408120610b328484611191565b610b3b85611013565b6001600160a01b0385166000908152600884016020526040902054610b609190611732565b6104fd91906116de565b6001600160a01b03811660009081527f87101b21d556417ad2b8e8f2700dbad90721d5d50a1f435f2dee0b9dc981ac8b6020908152604080832080548251818502810185019093528083526060947f87101b21d556417ad2b8e8f2700dbad90721d5d50a1f435f2dee0b9dc981ac89949093929190830182828015610c0e57602002820191906000526020600020905b815481526020019060010190808311610bfa575b509398975050505050505050565b600080610c3b846101000151670de0b6b3a76400006102be91906116f1565b90506064838560c00151610c4f91906116de565b610c5990836116f1565b6104f39060966116f1565b600080806060818080808060008051602061185a83398151915260008b81526020918252604090819020805460028201546003830154600484015460128501546001860180548851818b0281018b0190995280895296995060ff80871699610100880490911698620100009097046001600160a01b0316979196918791830182828015610d1a57602002820191906000526020600020905b81546001600160a01b03168152600190910190602001808311610cfc575b505050505094509850985098509850985098509850985050919395975091939597565b600082815260008051602061185a8339815191526020908152604080832060008051602061189a83398151915283528184206001600160a01b0386168552600582019093529083205490919060ff16158015610db457506001600160a01b038416600090815260048201602052604090205460ff16155b15610dc4576001925050506106d6565b6000925050506106d6565b505092915050565b600081815260008051602061185a833981519152602052604081206004810154600180830191610e0791906116de565b81548110610e1757610e1761180a565b6000918252602090912001546001600160a01b03169392505050565b600080808060608160008051602061189a8339815191526000888152602091825260409081902080546001820154600283015460038401805486518189028101890190975280875294975060ff808516976101009095041695929491939092918391830182828015610ece57602002820191906000526020600020905b81546001600160a01b03168152600190910190602001808311610eb0575b50505050509050955095509550955095505091939590929450565b610f5c60405180610160016040528060001515815260200160001515815260200160006001600160a01b031681526020016000815260200160008152602001600081526020016000815260200160008152602001600081526020016000815260200160006001600160a01b031681525090565b50600090815260008051602061187a8339815191526020908152604091829020825161016081018452815460ff808216151583526101008083049091161515948301949094526201000090046001600160a01b03908116948201949094526001820154606082015260028201546080820152600382015460a0820152600482015460c0820152600582015460e082015260068201549281019290925260078101546101208301526008015490911661014082015290565b600081815260008051602061183a8339815191526020908152604080832060068101805483518186028101860190945280845291938593849390929183018282801561108857602002820191906000526020600020905b81546001600160a01b0316815260019091019060200180831161106a575b505083519394506000925050505b818110156110f4578460080160008483815181106110b6576110b661180a565b60200260200101516001600160a01b03166001600160a01b0316815260200190815260200160002054846110ea9190611732565b9350600101611096565b508360050160009054906101000a90046001600160a01b03166001600160a01b031663b69ef8a86040518163ffffffff1660e01b8152600401602060405180830381865afa15801561114a573d6000803e3d6000fd5b505050506040513d601f19601f8201168201806040525081019061116e9190611820565b846002015461117d91906116de565b6111879084611732565b9695505050505050565b600082815260008051602061183a8339815191526020908152604080832060008051602061189a833981519152835281842060038201546001600160a01b0387168652600582019094529184205490926106d19161171e565b600081815260008051602061187a83398151915260205260408120600381015460018201546112199190611732565b42106112285750600092915050565b428160030154826001015461061e9190611732565b600081815260008051602061185a8339815191526020908152604080832060008051602061187a833981519152909252822060048201546012830154849190611287906001611732565b61129191906116de565b90506000306001600160a01b0316639e195b408460060154670de0b6b3a76400006112bc91906116f1565b6040518263ffffffff1660e01b81526004016112da91815260200190565b602060405180830381865afa1580156112f7573d6000803e3d6000fd5b505050506040513d601f19601f8201168201806040525081019061131b9190611820565b905061118781836116f1565b80356001600160a01b038116811461133e57600080fd5b919050565b6000806040838503121561135657600080fd5b61135f83611327565b946020939093013593505050565b60006020828403121561137f57600080fd5b5035919050565b6000806040838503121561139957600080fd5b823591506113a960208401611327565b90509250929050565b6000602082840312156113c457600080fd5b61062882611327565b6020808252825182820181905260009190848201906040850190845b81811015611405578351835292840192918401916001016113e9565b50909695505050505050565b604051610160810167ffffffffffffffff8111828210171561144357634e487b7160e01b600052604160045260246000fd5b60405290565b8035801515811461133e57600080fd5b60008082840361018081121561146e57600080fd5b6101608082121561147e57600080fd5b611486611411565b915061149185611449565b825261149f60208601611449565b60208301526114b060408601611327565b6040830152606085013560608301526080850135608083015260a085013560a083015260c085013560c083015260e085013560e083015261010080860135818401525061012080860135818401525061014061150d818701611327565b90830152909593013593505050565b634e487b7160e01b600052602160045260246000fd5b600081518084526020808501945080840160005b8381101561156b5781516001600160a01b031687529582019590820190600101611546565b509495945050505050565b60006101008a1515835260058a106115905761159061151c565b602083018a90526001600160a01b0389166040840152606083018190526115b981840189611532565b9150508560808301528460a08301528360c08301528260e08301529998505050505050505050565b85151581526000600486106115f8576115f861151c565b85602083015284604083015283606083015260a0608083015261161e60a0830184611532565b979650505050505050565b81511515815261016081016020830151611647602084018215159052565b50604083015161166260408401826001600160a01b03169052565b50606083015160608301526080830151608083015260a083015160a083015260c083015160c083015260e083015160e083015261010080840151818401525061012080840151818401525061014080840151610dcf828501826001600160a01b03169052565b634e487b7160e01b600052601160045260246000fd5b818103818111156106d6576106d66116c8565b80820281158282048414176106d6576106d66116c8565b634e487b7160e01b600052601260045260246000fd5b60008261172d5761172d611708565b500490565b808201808211156106d6576106d66116c8565b80516001600160501b038116811461133e57600080fd5b600080600080600060a0868803121561177457600080fd5b61177d86611745565b94506020860151935060408601519250606086015191506117a060808701611745565b90509295509295909350565b6000826117bb576117bb611708565b600160ff1b8214600019841416156117d5576117d56116c8565b500590565b80820260008212600160ff1b841416156117f6576117f66116c8565b81810583148215176106d6576106d66116c8565b634e487b7160e01b600052603260045260246000fd5b60006020828403121561183257600080fd5b505191905056fe29d9cba46c358ba7c1b8945751229339792c7c62e3197c240fa98916e75ffbf96751f7e27cecf86d7136f5749c224248cae80a39fafb59f8f6bf12c52816307c87101b21d556417ad2b8e8f2700dbad90721d5d50a1f435f2dee0b9dc981ac8a35fa70a6f9ae8a4d427ebe0c1be62ffd2870fecc1df41c6fda0bf5803e562888a264697066735822122052c63830535f5cf1b1d2e24b0c5b92f17a6c278967cd31b0b5dd0fd89a371b7064736f6c63430008120033",
  "devdoc": {
    "kind": "dev",
    "methods": {
      "getCollateralSummary(uint256)": {
        "params": {
          "termId": "the collateral id"
        },
        "returns": {
          "_0": "collateral: initialized, state, firstDepositTime, counterMembers, depositors, collateralDeposit"
        }
      },
      "getCurrentBeneficiary(uint256)": {
        "params": {
          "termId": "the fund id"
        },
        "returns": {
          "_0": "the current beneficiary"
        }
      },
      "getDepositorCollateralSummary(address,uint256)": {
        "params": {
          "depositor": "the depositor address",
          "termId": "the collateral id"
        },
        "returns": {
          "_0": "isCollateralMember, collateralMembersBank, collateralPaymentBank"
        }
      },
      "getFundSummary(uint256)": {
        "params": {
          "termId": "the fund id"
        },
        "returns": {
          "_0": "initialized, currentState, stableToken, currentCycle, beneficiariesOrder, fundStart, currentCycle, totalAmountOfCycles, fundEnd"
        }
      },
      "getLatestPrice()": {
        "returns": {
          "_0": "uint latest price in Wei Note: 18 decimals"
        }
      },
      "getParticipantFundSummary(address,uint256)": {
        "params": {
          "participant": "the user to get the info from",
          "termId": "the fund id"
        },
        "returns": {
          "_0": "isParticipant, isBeneficiary, paidThisCycle, autoPayEnabled, beneficiariesPool"
        }
      },
      "getParticipantTerms(address)": {
        "params": {
          "participant": "the participant address"
        },
        "returns": {
          "_0": "the term ids the participant is part of"
        }
      },
      "getRemainingContributionPeriod(uint256)": {
        "params": {
          "termId": "the term id"
        },
        "returns": {
          "_0": "the remaining contribution period"
        }
      },
      "getRemainingContributionTime(uint256)": {
        "params": {
          "termId": "the fund id"
        },
        "returns": {
          "_0": "the time left to contribute"
        }
      },
      "getRemainingCycleTime(uint256)": {
        "params": {
          "termId": "the term id"
        },
        "returns": {
          "_0": "remaining time in the current cycle"
        }
      },
      "getRemainingCycles(uint256)": {
        "params": {
          "termId": "the term id"
        },
        "returns": {
          "_0": "remaining time in the current cycle"
        }
      },
      "getRemainingCyclesContributionWei(uint256)": {
        "params": {
          "termId": "the term id"
        },
        "returns": {
          "_0": "remaining cycles contribution"
        }
      },
      "getTermSummary(uint256)": {
        "params": {
          "termId": "the term id"
        },
        "returns": {
          "_0": "the term struct"
        }
      },
      "getTermsId()": {
        "returns": {
          "_0": "the current term id",
          "_1": "the next term id"
        }
      },
      "getToEthConversionRate(uint256)": {
        "details": "should we always deal with in Wei?",
        "params": {
          "USDAmount": "The amount in USD"
        },
        "returns": {
          "_0": "uint converted amount in wei"
        }
      },
      "getToUSDConversionRate(uint256)": {
        "details": "should we always deal with in Wei?",
        "params": {
          "ethAmount": "The amount in ETH"
        },
        "returns": {
          "_0": "uint converted amount in USD correct to 18 decimals"
        }
      },
      "minCollateralToDeposit((bool,bool,address,uint256,uint256,uint256,uint256,uint256,uint256,uint256,address),uint256)": {
        "details": "The minimum collateral amount is calculated based on the index on the depositors arrayThe return value should be the minimum msg.value when calling joinTermC = 1.5 Cp (Tp - I) where C = minimum collateral amount, Cp = contribution amount, Tp = total participants, I = depositor index (starts at 0). 1.5",
        "returns": {
          "amount": "the minimum collateral amount to deposit in wei"
        }
      },
      "termAPR(uint256)": {
        "params": {
          "termId": "The term id for which the APR is being calculated"
        },
        "returns": {
          "_0": "The APR for the term"
        }
      },
      "totalYieldGenerated(uint256)": {
        "params": {
          "termId": "The term id for which the yield is being calculated"
        },
        "returns": {
          "_0": "The total yield generated for the term"
        }
      },
      "userAPR(uint256,address)": {
        "params": {
          "termId": "The term id for which the APR is being calculated",
          "user": "The user for which the APR is being calculated"
        },
        "returns": {
          "_0": "The APR for the user"
        }
      },
      "userYieldGenerated(uint256,address)": {
        "params": {
          "termId": "The term id for which the yield is being calculated",
          "user": "The user for which the yield is being calculated"
        },
        "returns": {
          "_0": "The total yield generated for the user"
        }
      },
      "wasExpelled(uint256,address)": {
        "params": {
          "termId": "the fund id",
          "user": "the user to check"
        },
        "returns": {
          "_0": "true if the user was expelled before"
        }
      },
      "yieldDistributionRatio(uint256,address)": {
        "params": {
          "termId": "The term id for which the ratio is being calculated",
          "user": "The user for which the ratio is being calculated"
        },
        "returns": {
          "_0": "The yield distribution ratio for the user"
        }
      }
    },
    "version": 1
  },
  "userdoc": {
    "kind": "user",
    "methods": {
      "getCurrentBeneficiary(uint256)": {
        "notice": "function to get the current beneficiary"
      },
      "getFundSummary(uint256)": {
        "notice": "function to get the cycle information in one go"
      },
      "getLatestPrice()": {
        "notice": "Gets latest ETH / USD price"
      },
      "getParticipantFundSummary(address,uint256)": {
        "notice": "function to get cycle information of a specific participant"
      },
      "getRemainingContributionPeriod(uint256)": {
        "notice": "Gets the remaining contribution period of a term"
      },
      "getRemainingContributionTime(uint256)": {
        "notice": "returns the time left to contribute for this cycle"
      },
      "getToEthConversionRate(uint256)": {
        "notice": "Gets the conversion rate of an amount in USD to ETH"
      },
      "getToUSDConversionRate(uint256)": {
        "notice": "Gets the conversion rate of an amount in ETH to USD"
      },
      "minCollateralToDeposit((bool,bool,address,uint256,uint256,uint256,uint256,uint256,uint256,uint256,address),uint256)": {
        "notice": "Called to check the minimum collateral amount to deposit in wei"
      },
      "termAPR(uint256)": {
        "notice": "This function is used to get a term APR"
      },
      "totalYieldGenerated(uint256)": {
        "notice": "This function is used to get the total yield generated for a term"
      },
      "userAPR(uint256,address)": {
        "notice": "This function is used to get a user APR"
      },
      "userYieldGenerated(uint256,address)": {
        "notice": "This function is used to get the total yield generated for a user"
      },
      "wasExpelled(uint256,address)": {
        "notice": "function to know if a user was expelled before"
      },
      "yieldDistributionRatio(uint256,address)": {
        "notice": "This function is used to get the yield distribution ratio for a user"
      }
    },
    "version": 1
  },
  "storageLayout": {
    "storage": [],
    "types": null
  }
}