{
  "address": "0x64F6aB9cb4590dDAEBbE7bd4B556F0B8D4452381",
  "abi": [
    {
      "inputs": [
        {
          "internalType": "uint256",
          "name": "id",
          "type": "uint256"
        }
      ],
      "name": "getBeneficiariesOrder",
      "outputs": [
        {
          "internalType": "address[]",
          "name": "",
          "type": "address[]"
        }
      ],
      "stateMutability": "view",
      "type": "function"
    },
    {
      "inputs": [
        {
          "internalType": "uint256",
          "name": "id",
          "type": "uint256"
        }
      ],
      "name": "getCollateralSummary",
      "outputs": [
        {
          "internalType": "bool",
          "name": "",
          "type": "bool"
        },
        {
          "internalType": "enum LibCollateral.CollateralStates",
          "name": "",
          "type": "uint8"
        },
        {
          "internalType": "uint256",
          "name": "",
          "type": "uint256"
        },
        {
          "internalType": "uint256",
          "name": "",
          "type": "uint256"
        },
        {
          "internalType": "address[]",
          "name": "",
          "type": "address[]"
        },
        {
          "internalType": "uint256",
          "name": "",
          "type": "uint256"
        }
      ],
      "stateMutability": "view",
      "type": "function"
    },
    {
      "inputs": [
        {
          "internalType": "address",
          "name": "depositor",
          "type": "address"
        },
        {
          "internalType": "uint256",
          "name": "id",
          "type": "uint256"
        }
      ],
      "name": "getDepositorCollateralSummary",
      "outputs": [
        {
          "internalType": "bool",
          "name": "",
          "type": "bool"
        },
        {
          "internalType": "uint256",
          "name": "",
          "type": "uint256"
        },
        {
          "internalType": "uint256",
          "name": "",
          "type": "uint256"
        }
      ],
      "stateMutability": "view",
      "type": "function"
    },
    {
      "inputs": [
        {
          "internalType": "uint256",
          "name": "id",
          "type": "uint256"
        }
      ],
      "name": "getFundSummary",
      "outputs": [
        {
          "internalType": "bool",
          "name": "",
          "type": "bool"
        },
        {
          "internalType": "enum LibFund.FundStates",
          "name": "",
          "type": "uint8"
        },
        {
          "internalType": "contract IERC20",
          "name": "",
          "type": "address"
        },
        {
          "internalType": "uint256",
          "name": "",
          "type": "uint256"
        },
        {
          "internalType": "address[]",
          "name": "",
          "type": "address[]"
        },
        {
          "internalType": "uint256",
          "name": "",
          "type": "uint256"
        },
        {
          "internalType": "uint256",
          "name": "",
          "type": "uint256"
        },
        {
          "internalType": "address",
          "name": "",
          "type": "address"
        },
        {
          "internalType": "uint256",
          "name": "",
          "type": "uint256"
        },
        {
          "internalType": "uint256",
          "name": "",
          "type": "uint256"
        }
      ],
      "stateMutability": "view",
      "type": "function"
    },
    {
      "inputs": [
        {
          "internalType": "address",
          "name": "participant",
          "type": "address"
        },
        {
          "internalType": "uint256",
          "name": "id",
          "type": "uint256"
        }
      ],
      "name": "getParticipantFundSummary",
      "outputs": [
        {
          "internalType": "bool",
          "name": "",
          "type": "bool"
        },
        {
          "internalType": "bool",
          "name": "",
          "type": "bool"
        },
        {
          "internalType": "bool",
          "name": "",
          "type": "bool"
        },
        {
          "internalType": "bool",
          "name": "",
          "type": "bool"
        },
        {
          "internalType": "uint256",
          "name": "",
          "type": "uint256"
        }
      ],
      "stateMutability": "view",
      "type": "function"
    },
    {
      "inputs": [
        {
          "internalType": "uint256",
          "name": "id",
          "type": "uint256"
        }
      ],
      "name": "getRemainingContributionTime",
      "outputs": [
        {
          "internalType": "uint256",
          "name": "",
          "type": "uint256"
        }
      ],
      "stateMutability": "view",
      "type": "function"
    },
    {
      "inputs": [
        {
          "internalType": "uint256",
          "name": "id",
          "type": "uint256"
        }
      ],
      "name": "getRemainingCycleTime",
      "outputs": [
        {
          "internalType": "uint256",
          "name": "",
          "type": "uint256"
        }
      ],
      "stateMutability": "view",
      "type": "function"
    },
    {
      "inputs": [
        {
          "internalType": "uint256",
          "name": "id",
          "type": "uint256"
        }
      ],
      "name": "getTermSummary",
      "outputs": [
        {
          "components": [
            {
              "internalType": "bool",
              "name": "initialized",
              "type": "bool"
            },
            {
              "internalType": "address",
              "name": "termOwner",
              "type": "address"
            },
            {
              "internalType": "uint256",
              "name": "creationTime",
              "type": "uint256"
            },
            {
              "internalType": "uint256",
              "name": "termId",
              "type": "uint256"
            },
            {
              "internalType": "uint256",
              "name": "totalParticipants",
              "type": "uint256"
            },
            {
              "internalType": "uint256",
              "name": "cycleTime",
              "type": "uint256"
            },
            {
              "internalType": "uint256",
              "name": "contributionAmount",
              "type": "uint256"
            },
            {
              "internalType": "uint256",
              "name": "contributionPeriod",
              "type": "uint256"
            },
            {
              "internalType": "uint256",
              "name": "fixedCollateralEth",
              "type": "uint256"
            },
            {
              "internalType": "address",
              "name": "stableTokenAddress",
              "type": "address"
            },
            {
              "internalType": "address",
              "name": "aggregatorAddress",
              "type": "address"
            }
          ],
          "internalType": "struct LibTerm.Term",
          "name": "",
          "type": "tuple"
        }
      ],
      "stateMutability": "view",
      "type": "function"
    },
    {
      "inputs": [],
      "name": "getTermsId",
      "outputs": [
        {
          "internalType": "uint256",
          "name": "",
          "type": "uint256"
        },
        {
          "internalType": "uint256",
          "name": "",
          "type": "uint256"
        }
      ],
      "stateMutability": "view",
      "type": "function"
    }
  ],
  "transactionHash": "0x825589ebd93bf862c46180e24a4236090409f4ab41c155afdf275bd713bbfff6",
  "args": [],
  "numDeployments": 1,
  "solcInputHash": "be7b57ce45c34b546ad2dd923dcb09b5",
  "bytecode": "0x608060405234801561001057600080fd5b50610a9c806100206000396000f3fe608060405234801561001057600080fd5b50600436106100935760003560e01c806392a6c8021161006657806392a6c802146101af578063bb91b76d146101c2578063d72bb87e14610253578063da3791ca1461027c578063dbd57683146102a157600080fd5b80631268612d146100985780636191474c146101515780637aed53a6146101725780638e32a8ae1461018f575b600080fd5b61011c6100a63660046107bb565b6000908152600080516020610a47833981519152602090815260408083206001600160a01b03949094168352600584018252808320546006850183528184205460078601845282852054600887018552838620546009909701909452919093205460ff9384169591841694928416939092169190565b6040805195151586529315156020860152911515928401929092529015156060830152608082015260a0015b60405180910390f35b61016461015f3660046107f3565b6102c1565b604051908152602001610148565b61017a61039a565b60408051928352602083019190915201610148565b6101a261019d3660046107f3565b6103dd565b6040516101489190610850565b6101646101bd3660046107f3565b61045c565b6102366101d03660046107bb565b60009081527f35fa70a6f9ae8a4d427ebe0c1be62ffd2870fecc1df41c6fda0bf5803e562888602090815260408083206001600160a01b03949094168352600484018252808320546005850183528184205460069095019092529091205460ff90911692565b604080519315158452602084019290925290820152606001610148565b6102666102613660046107f3565b6104bb565b6040516101489a99989796959493929190610880565b61028f61028a3660046107f3565b6105ae565b604051610148969594939291906108fa565b6102b46102af3660046107f3565b61067f565b604051610148919061094a565b6000818152600080516020610a47833981519152602090815260408083207f87101b21d556417ad2b8e8f2700dbad90721d5d50a1f435f2dee0b9dc981ac8a90925282208154600190610100900460ff1660048111156103235761032361086a565b14610332575060009392505050565b6000816006015483600201546001856004015461034f9190610a03565b846004015461035e9190610a1c565b6103689190610a33565b6103729190610a33565b90508042111561038757506000949350505050565b6103914282610a03565b95945050505050565b7f87101b21d556417ad2b8e8f2700dbad90721d5d50a1f435f2dee0b9dc981ac898054600091829182906103d090600190610a03565b9154919491935090915050565b6000818152600080516020610a478339815191526020908152604091829020600181018054845181850281018501909552808552606094929383018282801561044f57602002820191906000526020600020905b81546001600160a01b03168152600190910190602001808311610431575b5050505050915050919050565b6000818152600080516020610a47833981519152602090815260408083207f87101b21d556417ad2b8e8f2700dbad90721d5d50a1f435f2dee0b9dc981ac8a909252822060028201546004808401549083015485929161036891610a1c565b60008080806060818080808080600080516020610a4783398151915260008d815260209182526040908190208054600482015460028301546011840154601285015460038601546001870180548951818c0281018c01909a52808a52979a5060ff8088169a6101008904909116996001600160a01b0362010000909904891699979892978996909316949392909188919083018282801561058557602002820191906000526020600020905b81546001600160a01b03168152600190910190602001808311610567575b505050505095509a509a509a509a509a509a509a509a509a509a50509193959799509193959799565b6000808080606081807f35fa70a6f9ae8a4d427ebe0c1be62ffd2870fecc1df41c6fda0bf5803e5628886000898152602091825260409081902080546001820154600283015460078401546003850180548751818a0281018a0190985280885295985060ff8086169861010090960416969395929490939192849183018282801561066257602002820191906000526020600020905b81546001600160a01b03168152600190910190602001808311610644575b505050505091509650965096509650965096505091939550919395565b6106f960405180610160016040528060001515815260200160006001600160a01b031681526020016000815260200160008152602001600081526020016000815260200160008152602001600081526020016000815260200160006001600160a01b0316815260200160006001600160a01b031681525090565b5060009081527f87101b21d556417ad2b8e8f2700dbad90721d5d50a1f435f2dee0b9dc981ac8a6020908152604091829020825161016081018452815460ff8116151582526001600160a01b03610100918290048116948301949094526001830154948201949094526002820154606082015260038201546080820152600482015460a0820152600582015460c0820152600682015460e082015260078201549381019390935260088101548216610120840152600901541661014082015290565b600080604083850312156107ce57600080fd5b82356001600160a01b03811681146107e557600080fd5b946020939093013593505050565b60006020828403121561080557600080fd5b5035919050565b600081518084526020808501945080840160005b838110156108455781516001600160a01b031687529582019590820190600101610820565b509495945050505050565b602081526000610863602083018461080c565b9392505050565b634e487b7160e01b600052602160045260246000fd5b60006101408c1515835260058c1061089a5761089a61086a565b602083018c90526001600160a01b038b81166040850152606084018b9052608084018290526108cb8285018b61080c565b60a085019990995260c084019790975250509290931660e0830152610100820152610120015295945050505050565b86151581526000600487106109115761091161086a565b86602083015285604083015284606083015260c0608083015261093760c083018561080c565b90508260a0830152979650505050505050565b8151151581526101608101602083015161096f60208401826001600160a01b03169052565b5060408301516040830152606083015160608301526080830151608083015260a083015160a083015260c083015160c083015260e083015160e0830152610100808401518184015250610120808401516109d3828501826001600160a01b03169052565b5050610140928301516001600160a01b0316919092015290565b634e487b7160e01b600052601160045260246000fd5b81810381811115610a1657610a166109ed565b92915050565b8082028115828204841417610a1657610a166109ed565b80820180821115610a1657610a166109ed56fe6751f7e27cecf86d7136f5749c224248cae80a39fafb59f8f6bf12c52816307ca2646970667358221220a8701ee7a2818e2d5983e556a4036ac0761658b58152c9a0b838346e31471b8b64736f6c63430008120033",
  "devdoc": {
    "kind": "dev",
    "methods": {
      "getBeneficiariesOrder(uint256)": {
        "params": {
          "id": "the fund id"
        },
        "returns": {
          "_0": "the beneficiaries order"
        }
      },
      "getCollateralSummary(uint256)": {
        "params": {
          "id": "the collateral id"
        },
        "returns": {
          "_0": "collateral: initialized, state, firstDepositTime, counterMembers, depositors, collateralDeposit"
        }
      },
      "getDepositorCollateralSummary(address,uint256)": {
        "params": {
          "depositor": "the depositor address",
          "id": "the collateral id"
        },
        "returns": {
          "_0": "isCollateralMember, collateralMembersBank, collateralPaymentBank"
        }
      },
      "getFundSummary(uint256)": {
        "params": {
          "id": "the fund id"
        },
        "returns": {
          "_0": "initialized, currentState, stableToken, currentCycle, beneficiariesOrder, fundStart, currentCycle, lastBeneficiary, totalAmountOfCycles, fundEnd"
        }
      },
      "getParticipantFundSummary(address,uint256)": {
        "params": {
          "id": "the fund id",
          "participant": "the user to get the info from"
        },
        "returns": {
          "_0": "isParticipant, isBeneficiary, paidThisCycle, autoPayEnabled, beneficiariesPool"
        }
      },
      "getRemainingContributionTime(uint256)": {
        "params": {
          "id": "the fund id"
        },
        "returns": {
          "_0": "the time left to contribute"
        }
      },
      "getRemainingCycleTime(uint256)": {
        "params": {
          "id": "the term id"
        },
        "returns": {
          "_0": "remaining time in the current cycle"
        }
      },
      "getTermSummary(uint256)": {
        "params": {
          "id": "the term id"
        },
        "returns": {
          "_0": "the term struct"
        }
      },
      "getTermsId()": {
        "returns": {
          "_0": "the current term id",
          "_1": "the next term id"
        }
      }
    },
    "version": 1
  },
  "userdoc": {
    "kind": "user",
    "methods": {
      "getBeneficiariesOrder(uint256)": {
        "notice": "returns the beneficiaries order as an array"
      },
      "getFundSummary(uint256)": {
        "notice": "function to get the cycle information in one go"
      },
      "getParticipantFundSummary(address,uint256)": {
        "notice": "function to get cycle information of a specific participant"
      },
      "getRemainingContributionTime(uint256)": {
        "notice": "returns the time left to contribute for this cycle"
      }
    },
    "version": 1
  },
  "storageLayout": {
    "storage": [],
    "types": null
  }
}