{
  "address": "0xe7f1725E7734CE288F8367e1Bb143E90bb3F0512",
  "abi": [
    {
      "inputs": [
        {
          "internalType": "uint8",
          "name": "_numDecimals",
          "type": "uint8"
        },
        {
          "internalType": "int256",
          "name": "_price",
          "type": "int256"
        }
      ],
      "stateMutability": "nonpayable",
      "type": "constructor"
    },
    {
      "inputs": [],
      "name": "decimals",
      "outputs": [
        {
          "internalType": "uint8",
          "name": "",
          "type": "uint8"
        }
      ],
      "stateMutability": "view",
      "type": "function"
    },
    {
      "inputs": [],
      "name": "description",
      "outputs": [
        {
          "internalType": "string",
          "name": "",
          "type": "string"
        }
      ],
      "stateMutability": "pure",
      "type": "function"
    },
    {
      "inputs": [
        {
          "internalType": "uint80",
          "name": "_roundId",
          "type": "uint80"
        }
      ],
      "name": "getRoundData",
      "outputs": [
        {
          "internalType": "uint80",
          "name": "roundId",
          "type": "uint80"
        },
        {
          "internalType": "int256",
          "name": "answer",
          "type": "int256"
        },
        {
          "internalType": "uint256",
          "name": "startedAt",
          "type": "uint256"
        },
        {
          "internalType": "uint256",
          "name": "updatedAt",
          "type": "uint256"
        },
        {
          "internalType": "uint80",
          "name": "answeredInRound",
          "type": "uint80"
        }
      ],
      "stateMutability": "view",
      "type": "function"
    },
    {
      "inputs": [],
      "name": "latestRoundData",
      "outputs": [
        {
          "internalType": "uint80",
          "name": "roundId",
          "type": "uint80"
        },
        {
          "internalType": "int256",
          "name": "answer",
          "type": "int256"
        },
        {
          "internalType": "uint256",
          "name": "startedAt",
          "type": "uint256"
        },
        {
          "internalType": "uint256",
          "name": "updatedAt",
          "type": "uint256"
        },
        {
          "internalType": "uint80",
          "name": "answeredInRound",
          "type": "uint80"
        }
      ],
      "stateMutability": "view",
      "type": "function"
    },
    {
      "inputs": [
        {
          "internalType": "uint8",
          "name": "_decimals",
          "type": "uint8"
        }
      ],
      "name": "setDecimals",
      "outputs": [],
      "stateMutability": "nonpayable",
      "type": "function"
    },
    {
      "inputs": [
        {
          "internalType": "int256",
          "name": "_price",
          "type": "int256"
        }
      ],
      "name": "setPrice",
      "outputs": [],
      "stateMutability": "nonpayable",
      "type": "function"
    },
    {
      "inputs": [],
      "name": "setSequencerAnswer",
      "outputs": [
        {
          "internalType": "int256",
          "name": "",
          "type": "int256"
        }
      ],
      "stateMutability": "nonpayable",
      "type": "function"
    },
    {
      "inputs": [],
      "name": "version",
      "outputs": [
        {
          "internalType": "uint256",
          "name": "",
          "type": "uint256"
        }
      ],
      "stateMutability": "pure",
      "type": "function"
    }
  ],
  "transactionHash": "0x64f19f7e1931b51bd97a5a3a832ad09c51d64ed9f675d63d40e4b81f0003e09d",
  "args": [
    "8",
    "200000000000"
  ],
  "numDeployments": 1,
  "solcInputHash": "fcf3f5ced1f3d5f96be9fe2a13cdc034",
  "bytecode": "0x608060405234801561001057600080fd5b5060405161035638038061035683398101604081905261002f91610055565b60009081556001805460ff191660ff939093169290921790915560025542600355610089565b6000806040838503121561006857600080fd5b825160ff8116811461007957600080fd5b6020939093015192949293505050565b6102be806100986000396000f3fe608060405234801561001057600080fd5b50600436106100885760003560e01c80637a1395aa1161005b5780637a1395aa146101035780639a6fc8f514610129578063f7a3080614610180578063feaf968c1461019357600080fd5b806325a0a17a1461008d578063313ce567146100a857806354fd4d50146100bd5780637284e416146100c4575b600080fd5b6100956101a4565b6040519081526020015b60405180910390f35b60015460405160ff909116815260200161009f565b6001610095565b604080518082018252601a81527f4d6f636b2053657175656e63657220557074696d6520466565640000000000006020820152905161009f91906101cb565b610127610111366004610219565b6001805460ff191660ff92909216919091179055565b005b610149610137366004610243565b60025460035491929091908190600090565b6040805169ffffffffffffffffffff968716815260208101959095528401929092526060830152909116608082015260a00161009f565b61012761018e36600461026f565b600055565b600254600354600091908083610149565b60006002546000036101ba5760016002556101c4565b6000600255426003555b5060025490565b600060208083528351808285015260005b818110156101f8578581018301518582016040015282016101dc565b506000604082860101526040601f19601f8301168501019250505092915050565b60006020828403121561022b57600080fd5b813560ff8116811461023c57600080fd5b9392505050565b60006020828403121561025557600080fd5b813569ffffffffffffffffffff8116811461023c57600080fd5b60006020828403121561028157600080fd5b503591905056fea26469706673582212203fa605e7a0eff4f767a8912a0cc84abc419005f408c08593f41e92331035d4fc64736f6c63430008120033",
  "devdoc": {
    "kind": "dev",
    "methods": {},
    "version": 1
  },
  "userdoc": {
    "kind": "user",
    "methods": {},
    "version": 1
  },
  "storageLayout": {
    "storage": [
      {
        "astId": 766,
        "contract": "contracts/mocks/MockSequencer.sol:MockSequencer",
        "label": "price",
        "offset": 0,
        "slot": "0",
        "type": "t_int256"
      },
      {
        "astId": 768,
        "contract": "contracts/mocks/MockSequencer.sol:MockSequencer",
        "label": "numDecimals",
        "offset": 0,
        "slot": "1",
        "type": "t_uint8"
      },
      {
        "astId": 770,
        "contract": "contracts/mocks/MockSequencer.sol:MockSequencer",
        "label": "sequencerAnswer",
        "offset": 0,
        "slot": "2",
        "type": "t_int256"
      },
      {
        "astId": 772,
        "contract": "contracts/mocks/MockSequencer.sol:MockSequencer",
        "label": "time",
        "offset": 0,
        "slot": "3",
        "type": "t_uint256"
      }
    ],
    "types": {
      "t_int256": {
        "encoding": "inplace",
        "label": "int256",
        "numberOfBytes": "32"
      },
      "t_uint256": {
        "encoding": "inplace",
        "label": "uint256",
        "numberOfBytes": "32"
      },
      "t_uint8": {
        "encoding": "inplace",
        "label": "uint8",
        "numberOfBytes": "1"
      }
    }
  }
}