{
  "address": "0x6792A43fF27c2a708A85DEB8069FAA772255B631",
  "abi": [
    {
      "anonymous": false,
      "inputs": [
        {
          "components": [
            {
              "internalType": "address",
              "name": "facetAddress",
              "type": "address"
            },
            {
              "internalType": "enum IDiamondCut.FacetCutAction",
              "name": "action",
              "type": "uint8"
            },
            {
              "internalType": "bytes4[]",
              "name": "functionSelectors",
              "type": "bytes4[]"
            }
          ],
          "indexed": false,
          "internalType": "struct IDiamondCut.FacetCut[]",
          "name": "_diamondCut",
          "type": "tuple[]"
        },
        {
          "indexed": false,
          "internalType": "address",
          "name": "_init",
          "type": "address"
        },
        {
          "indexed": false,
          "internalType": "bytes",
          "name": "_calldata",
          "type": "bytes"
        }
      ],
      "name": "DiamondCut",
      "type": "event"
    },
    {
      "inputs": [
        {
          "components": [
            {
              "internalType": "address",
              "name": "facetAddress",
              "type": "address"
            },
            {
              "internalType": "enum IDiamondCut.FacetCutAction",
              "name": "action",
              "type": "uint8"
            },
            {
              "internalType": "bytes4[]",
              "name": "functionSelectors",
              "type": "bytes4[]"
            }
          ],
          "internalType": "struct IDiamondCut.FacetCut[]",
          "name": "_diamondCut",
          "type": "tuple[]"
        },
        {
          "internalType": "address",
          "name": "_init",
          "type": "address"
        },
        {
          "internalType": "bytes",
          "name": "_calldata",
          "type": "bytes"
        }
      ],
      "name": "diamondCut",
      "outputs": [],
      "stateMutability": "nonpayable",
      "type": "function"
    }
  ],
  "transactionHash": "0x6ad790450614338715755d2c5ede061d417761d52a02f4ba3e201d3fb5961e8d",
  "args": [],
  "numDeployments": 1,
  "solcInputHash": "c8676bb379b5d9470d644df6021c6819",
  "bytecode": "0x608060405234801561001057600080fd5b50611441806100206000396000f3fe608060405234801561001057600080fd5b506004361061002b5760003560e01c80631f931c1c14610030575b600080fd5b61004361003e366004610e68565b610045565b005b61008f6100528587610fae565b8484848080601f01602080910402602001604051908101604052809392919081815260200183838082843760009201919091525061009692505050565b5050505050565b60005b83518110156102615760008482815181106100b6576100b66110f2565b6020026020010151602001519050600060028111156100d7576100d7611108565b8160028111156100e9576100e9611108565b0361013757610132858381518110610103576101036110f2565b602002602001015160000151868481518110610121576101216110f2565b6020026020010151604001516102ac565b61024e565b600181600281111561014b5761014b611108565b0361019457610132858381518110610165576101656110f2565b602002602001015160000151868481518110610183576101836110f2565b602002602001015160400151610436565b60028160028111156101a8576101a8611108565b036101f1576101328583815181106101c2576101c26110f2565b6020026020010151600001518684815181106101e0576101e06110f2565b6020026020010151604001516105d8565b60405162461bcd60e51b815260206004820152602760248201527f4c69624469616d6f6e644375743a20496e636f727265637420466163657443756044820152663a20b1ba34b7b760c91b60648201526084015b60405180910390fd5b508061025981611134565b915050610099565b507f8faa70878671ccd212d20771b795c50af8fd3ff6cf27f4bde57e5d4de0aeb6738383836040516102959392919061119d565b60405180910390a16102a78282610708565b505050565b60008151116102cd5760405162461bcd60e51b81526004016102459061129d565b7fc8fcad8db84d3cc18b4c41d551ea0ee66dd599cde068d998e57d5e09332c131c6001600160a01b0383166103145760405162461bcd60e51b8152600401610245906112e8565b6001600160a01b0383166000908152600182016020526040812054906001600160601b038216900361034a5761034a8285610915565b60005b835181101561008f57600084828151811061036a5761036a6110f2565b6020908102919091018101516001600160e01b031981166000908152918690526040909120549091506001600160a01b031680156104085760405162461bcd60e51b815260206004820152603560248201527f4c69624469616d6f6e644375743a2043616e2774206164642066756e6374696f6044820152746e207468617420616c72656164792065786973747360581b6064820152608401610245565b6104148583868a61097f565b8361041e81611334565b9450505050808061042e90611134565b91505061034d565b60008151116104575760405162461bcd60e51b81526004016102459061129d565b7fc8fcad8db84d3cc18b4c41d551ea0ee66dd599cde068d998e57d5e09332c131c6001600160a01b03831661049e5760405162461bcd60e51b8152600401610245906112e8565b6001600160a01b0383166000908152600182016020526040812054906001600160601b03821690036104d4576104d48285610915565b60005b835181101561008f5760008482815181106104f4576104f46110f2565b6020908102919091018101516001600160e01b031981166000908152918690526040909120549091506001600160a01b03908116908716810361059f5760405162461bcd60e51b815260206004820152603860248201527f4c69624469616d6f6e644375743a2043616e2774207265706c6163652066756e60448201527f6374696f6e20776974682073616d652066756e6374696f6e00000000000000006064820152608401610245565b6105aa858284610a1f565b6105b68583868a61097f565b836105c081611334565b945050505080806105d090611134565b9150506104d7565b60008151116105f95760405162461bcd60e51b81526004016102459061129d565b7fc8fcad8db84d3cc18b4c41d551ea0ee66dd599cde068d998e57d5e09332c131c6001600160a01b038316156106905760405162461bcd60e51b815260206004820152603660248201527f4c69624469616d6f6e644375743a2052656d6f76652066616365742061646472604482015275657373206d757374206265206164647265737328302960501b6064820152608401610245565b60005b82518110156107025760008382815181106106b0576106b06110f2565b6020908102919091018101516001600160e01b031981166000908152918590526040909120549091506001600160a01b03166106ed848284610a1f565b505080806106fa90611134565b915050610693565b50505050565b6001600160a01b03821661078f5780511561078b5760405162461bcd60e51b815260206004820152603c60248201527f4c69624469616d6f6e644375743a205f696e697420697320616464726573732860448201527f3029206275745f63616c6c64617461206973206e6f7420656d707479000000006064820152608401610245565b5050565b60008151116108065760405162461bcd60e51b815260206004820152603d60248201527f4c69624469616d6f6e644375743a205f63616c6c6461746120697320656d707460448201527f7920627574205f696e6974206973206e6f7420616464726573732830290000006064820152608401610245565b6001600160a01b038216301461083857610838826040518060600160405280602881526020016113c060289139610de2565b600080836001600160a01b031683604051610853919061135a565b600060405180830381855af49150503d806000811461088e576040519150601f19603f3d011682016040523d82523d6000602084013e610893565b606091505b509150915081610702578051156108be578060405162461bcd60e51b81526004016102459190611376565b60405162461bcd60e51b815260206004820152602660248201527f4c69624469616d6f6e644375743a205f696e69742066756e6374696f6e2072656044820152651d995c9d195960d21b6064820152608401610245565b610937816040518060600160405280602481526020016113e860249139610de2565b6002820180546001600160a01b0390921660008181526001948501602090815260408220860185905594840183559182529290200180546001600160a01b0319169091179055565b6001600160e01b0319831660008181526020868152604080832080546001600160601b03909716600160a01b026001600160a01b0397881617815594909516808352600180890183529583208054968701815583528183206008870401805460e09890981c60046007909816979097026101000a96870263ffffffff9097021990971695909517909555529290915281546001600160a01b031916179055565b6001600160a01b038216610a9b5760405162461bcd60e51b815260206004820152603760248201527f4c69624469616d6f6e644375743a2043616e27742072656d6f76652066756e6360448201527f74696f6e207468617420646f65736e27742065786973740000000000000000006064820152608401610245565b306001600160a01b03831603610b0a5760405162461bcd60e51b815260206004820152602e60248201527f4c69624469616d6f6e644375743a2043616e27742072656d6f766520696d6d7560448201526d3a30b1363290333ab731ba34b7b760911b6064820152608401610245565b6001600160e01b03198116600090815260208481526040808320546001600160a01b0386168452600180880190935290832054600160a01b9091046001600160601b03169291610b5991611390565b9050808214610c4b576001600160a01b03841660009081526001860160205260408120805483908110610b8e57610b8e6110f2565b600091825260208083206008830401546001600160a01b038916845260018a019091526040909220805460079092166004026101000a90920460e01b925082919085908110610bdf57610bdf6110f2565b600091825260208083206008830401805463ffffffff60079094166004026101000a938402191660e09590951c929092029390931790556001600160e01b03199290921682528690526040902080546001600160a01b0316600160a01b6001600160601b038516021790555b6001600160a01b03841660009081526001860160205260409020805480610c7457610c746113a9565b60008281526020808220600860001990940193840401805463ffffffff600460078716026101000a0219169055919092556001600160e01b0319851682528690526040812081905581900361008f576002850154600090610cd790600190611390565b6001600160a01b0386166000908152600180890160205260409091200154909150808214610d86576000876002018381548110610d1657610d166110f2565b6000918252602090912001546002890180546001600160a01b039092169250829184908110610d4757610d476110f2565b600091825260208083209190910180546001600160a01b0319166001600160a01b03948516179055929091168152600189810190925260409020018190555b86600201805480610d9957610d996113a9565b60008281526020808220830160001990810180546001600160a01b03191690559092019092556001600160a01b0388168252600189810190915260408220015550505050505050565b813b81816107025760405162461bcd60e51b81526004016102459190611376565b80356001600160a01b0381168114610e1a57600080fd5b919050565b60008083601f840112610e3157600080fd5b50813567ffffffffffffffff811115610e4957600080fd5b602083019150836020828501011115610e6157600080fd5b9250929050565b600080600080600060608688031215610e8057600080fd5b853567ffffffffffffffff80821115610e9857600080fd5b818801915088601f830112610eac57600080fd5b813581811115610ebb57600080fd5b8960208260051b8501011115610ed057600080fd5b60208301975080965050610ee660208901610e03565b94506040880135915080821115610efc57600080fd5b50610f0988828901610e1f565b969995985093965092949392505050565b634e487b7160e01b600052604160045260246000fd5b6040516060810167ffffffffffffffff81118282101715610f5357610f53610f1a565b60405290565b604051601f8201601f1916810167ffffffffffffffff81118282101715610f8257610f82610f1a565b604052919050565b600067ffffffffffffffff821115610fa457610fa4610f1a565b5060051b60200190565b6000610fc1610fbc84610f8a565b610f59565b83815260208082019190600586811b860136811115610fdf57600080fd5b865b818110156110e557803567ffffffffffffffff808211156110025760008081fd5b818a019150606082360312156110185760008081fd5b611020610f30565b61102983610e03565b8152868301356003811061103d5760008081fd5b81880152604083810135838111156110555760008081fd5b939093019236601f85011261106c57600092508283fd5b8335925061107c610fbc84610f8a565b83815292871b840188019288810190368511156110995760008081fd5b948901945b848610156110ce5785356001600160e01b0319811681146110bf5760008081fd5b8252948901949089019061109e565b918301919091525088525050948301948301610fe1565b5092979650505050505050565b634e487b7160e01b600052603260045260246000fd5b634e487b7160e01b600052602160045260246000fd5b634e487b7160e01b600052601160045260246000fd5b6000600182016111465761114661111e565b5060010190565b60005b83811015611168578181015183820152602001611150565b50506000910152565b6000815180845261118981602086016020860161114d565b601f01601f19169290920160200192915050565b60006060808301818452808751808352608092508286019150828160051b8701016020808b0160005b8481101561126d57898403607f19018652815180516001600160a01b0316855283810151898601906003811061120c57634e487b7160e01b600052602160045260246000fd5b868601526040918201519186018a905281519081905290840190600090898701905b808310156112585783516001600160e01b031916825292860192600192909201919086019061122e565b509785019795505050908201906001016111c6565b50506001600160a01b038a1690880152868103604088015261128f8189611171565b9a9950505050505050505050565b6020808252602b908201527f4c69624469616d6f6e644375743a204e6f2073656c6563746f727320696e206660408201526a1858d95d081d1bc818dd5d60aa1b606082015260800190565b6020808252602c908201527f4c69624469616d6f6e644375743a204164642066616365742063616e2774206260408201526b65206164647265737328302960a01b606082015260800190565b60006001600160601b038083168181036113505761135061111e565b6001019392505050565b6000825161136c81846020870161114d565b9190910192915050565b6020815260006113896020830184611171565b9392505050565b818103818111156113a3576113a361111e565b92915050565b634e487b7160e01b600052603160045260246000fdfe4c69624469616d6f6e644375743a205f696e6974206164647265737320686173206e6f20636f64654c69624469616d6f6e644375743a204e657720666163657420686173206e6f20636f6465a2646970667358221220a094675bf74d53b9139c1d65df3f2fbe8fa88ca8f22b309bcb8019a64cd0898a64736f6c63430008120033",
  "devdoc": {
    "kind": "dev",
    "methods": {
      "diamondCut((address,uint8,bytes4[])[],address,bytes)": {
        "params": {
          "_calldata": "A function call, including function selector and arguments                  _calldata is executed with delegatecall on _init",
          "_diamondCut": "Contains the facet addresses and function selectors",
          "_init": "The address of the contract or facet to execute _calldata"
        }
      }
    },
    "version": 1
  },
  "userdoc": {
    "kind": "user",
    "methods": {
      "diamondCut((address,uint8,bytes4[])[],address,bytes)": {
        "notice": "Add/replace/remove any number of functions and optionally execute         a function with delegatecall"
      }
    },
    "version": 1
  },
  "storageLayout": {
    "storage": [],
    "types": null
  }
}