{
  "address": "0x3378b974E111B6A27Df5CF8b96AD646b1860EcD0",
  "abi": [
    {
      "inputs": [
        {
          "internalType": "uint8",
          "name": "_numDecimals",
          "type": "uint8"
        },
        {
          "internalType": "int256",
          "name": "_price",
          "type": "int256"
        }
      ],
      "stateMutability": "nonpayable",
      "type": "constructor"
    },
    {
      "inputs": [],
      "name": "decimals",
      "outputs": [
        {
          "internalType": "uint8",
          "name": "",
          "type": "uint8"
        }
      ],
      "stateMutability": "view",
      "type": "function"
    },
    {
      "inputs": [],
      "name": "description",
      "outputs": [
        {
          "internalType": "string",
          "name": "",
          "type": "string"
        }
      ],
      "stateMutability": "pure",
      "type": "function"
    },
    {
      "inputs": [
        {
          "internalType": "uint80",
          "name": "_roundId",
          "type": "uint80"
        }
      ],
      "name": "getRoundData",
      "outputs": [
        {
          "internalType": "uint80",
          "name": "roundId",
          "type": "uint80"
        },
        {
          "internalType": "int256",
          "name": "answer",
          "type": "int256"
        },
        {
          "internalType": "uint256",
          "name": "startedAt",
          "type": "uint256"
        },
        {
          "internalType": "uint256",
          "name": "updatedAt",
          "type": "uint256"
        },
        {
          "internalType": "uint80",
          "name": "answeredInRound",
          "type": "uint80"
        }
      ],
      "stateMutability": "view",
      "type": "function"
    },
    {
      "inputs": [],
      "name": "latestRoundData",
      "outputs": [
        {
          "internalType": "uint80",
          "name": "roundId",
          "type": "uint80"
        },
        {
          "internalType": "int256",
          "name": "answer",
          "type": "int256"
        },
        {
          "internalType": "uint256",
          "name": "startedAt",
          "type": "uint256"
        },
        {
          "internalType": "uint256",
          "name": "updatedAt",
          "type": "uint256"
        },
        {
          "internalType": "uint80",
          "name": "answeredInRound",
          "type": "uint80"
        }
      ],
      "stateMutability": "view",
      "type": "function"
    },
    {
      "inputs": [
        {
          "internalType": "uint256",
          "name": "_age",
          "type": "uint256"
        }
      ],
      "name": "setAge",
      "outputs": [],
      "stateMutability": "nonpayable",
      "type": "function"
    },
    {
      "inputs": [
        {
          "internalType": "uint8",
          "name": "_decimals",
          "type": "uint8"
        }
      ],
      "name": "setDecimals",
      "outputs": [],
      "stateMutability": "nonpayable",
      "type": "function"
    },
    {
      "inputs": [
        {
          "internalType": "int256",
          "name": "_price",
          "type": "int256"
        }
      ],
      "name": "setPrice",
      "outputs": [],
      "stateMutability": "nonpayable",
      "type": "function"
    },
    {
      "inputs": [],
      "name": "version",
      "outputs": [
        {
          "internalType": "uint256",
          "name": "",
          "type": "uint256"
        }
      ],
      "stateMutability": "pure",
      "type": "function"
    }
  ],
  "transactionHash": "0x3542b41e4a6c20e62c9eaf0c4ccb14119a5170f3fdd88fbc9ff28f872c26b349",
  "args": [
    "8",
    "100000000"
  ],
  "numDeployments": 1,
  "solcInputHash": "0b1cf0c99605727dc8e30dd89ad0803d",
  "bytecode": "0x608060405234801561001057600080fd5b506040516103ab3803806103ab83398101604081905261002f91610050565b6000556001805460ff191660ff92909216919091179055601e600255610084565b6000806040838503121561006357600080fd5b825160ff8116811461007457600080fd5b6020939093015192949293505050565b610318806100936000396000f3fe608060405234801561001057600080fd5b50600436106100885760003560e01c80639a6fc8f51161005b5780639a6fc8f51461011b578063d5dcf12714610165578063f7a3080614610178578063feaf968c1461018b57600080fd5b8063313ce5671461008d57806354fd4d50146100a75780637284e416146100b65780637a1395aa146100f5575b600080fd5b60015460405160ff90911681526020015b60405180910390f35b6040516001815260200161009e565b604080518082018252601a81527f4d6f636b20436861696e6c696e6b204f7261636c6520466565640000000000006020820152905161009e91906101fe565b61011961010336600461024c565b6001805460ff191660ff92909216919091179055565b005b61012e610129366004610276565b610193565b6040805169ffffffffffffffffffff968716815260208101959095528401929092526060830152909116608082015260a00161009e565b6101196101733660046102a2565b600255565b6101196101863660046102a2565b600055565b61012e6101ca565b60008054600254839290819081906101ab90426102bb565b9250600254426101bb91906102bb565b91506000905091939590929450565b600080546002548290819081906101e190426102bb565b9250600254426101f191906102bb565b9150600090509091929394565b600060208083528351808285015260005b8181101561022b5785810183015185820160400152820161020f565b506000604082860101526040601f19601f8301168501019250505092915050565b60006020828403121561025e57600080fd5b813560ff8116811461026f57600080fd5b9392505050565b60006020828403121561028857600080fd5b813569ffffffffffffffffffff8116811461026f57600080fd5b6000602082840312156102b457600080fd5b5035919050565b818103818111156102dc57634e487b7160e01b600052601160045260246000fd5b9291505056fea26469706673582212206e026b513339a494afca0e4d9eeb21d70b4f8620aa7c30eb41161c1995a8e73164736f6c63430008120033",
  "devdoc": {
    "kind": "dev",
    "methods": {},
    "version": 1
  },
  "userdoc": {
    "kind": "user",
    "methods": {},
    "version": 1
  },
  "storageLayout": {
    "storage": [
      {
        "astId": 9801,
        "contract": "contracts/mocks/MockV3Aggregator.sol:MockV3Aggregator",
        "label": "price",
        "offset": 0,
        "slot": "0",
        "type": "t_int256"
      },
      {
        "astId": 9803,
        "contract": "contracts/mocks/MockV3Aggregator.sol:MockV3Aggregator",
        "label": "numDecimals",
        "offset": 0,
        "slot": "1",
        "type": "t_uint8"
      },
      {
        "astId": 9805,
        "contract": "contracts/mocks/MockV3Aggregator.sol:MockV3Aggregator",
        "label": "age",
        "offset": 0,
        "slot": "2",
        "type": "t_uint256"
      }
    ],
    "types": {
      "t_int256": {
        "encoding": "inplace",
        "label": "int256",
        "numberOfBytes": "32"
      },
      "t_uint256": {
        "encoding": "inplace",
        "label": "uint256",
        "numberOfBytes": "32"
      },
      "t_uint8": {
        "encoding": "inplace",
        "label": "uint8",
        "numberOfBytes": "1"
      }
    }
  }
}