{
  "address": "0xAD6e28855Aa5F21b8D542B1f0337d36d9291898e",
  "abi": [
    {
      "anonymous": false,
      "inputs": [
        {
          "indexed": true,
          "internalType": "uint256",
          "name": "termId",
          "type": "uint256"
        },
        {
          "indexed": true,
          "internalType": "address",
          "name": "user",
          "type": "address"
        }
      ],
      "name": "OnCollateralDeposited",
      "type": "event"
    },
    {
      "inputs": [],
      "name": "TERM_VERSION",
      "outputs": [
        {
          "internalType": "uint256",
          "name": "",
          "type": "uint256"
        }
      ],
      "stateMutability": "view",
      "type": "function"
    },
    {
      "inputs": [
        {
          "internalType": "uint256",
          "name": "totalParticipants",
          "type": "uint256"
        },
        {
          "internalType": "uint256",
          "name": "cycleTime",
          "type": "uint256"
        },
        {
          "internalType": "uint256",
          "name": "contributionAmount",
          "type": "uint256"
        },
        {
          "internalType": "uint256",
          "name": "contributionPeriod",
          "type": "uint256"
        },
        {
          "internalType": "address",
          "name": "stableTokenAddress",
          "type": "address"
        }
      ],
      "name": "createTerm",
      "outputs": [
        {
          "internalType": "uint256",
          "name": "",
          "type": "uint256"
        }
      ],
      "stateMutability": "nonpayable",
      "type": "function"
    },
    {
      "inputs": [
        {
          "internalType": "uint256",
          "name": "termId",
          "type": "uint256"
        }
      ],
      "name": "joinTerm",
      "outputs": [],
      "stateMutability": "payable",
      "type": "function"
    },
    {
      "inputs": [
        {
          "internalType": "uint256",
          "name": "termId",
          "type": "uint256"
        }
      ],
      "name": "startTerm",
      "outputs": [],
      "stateMutability": "nonpayable",
      "type": "function"
    }
  ],
  "transactionHash": "0xdd8331244733483ffc6d1f6737a6b455cf13d2a215e4401c44305eb46e14a8bd",
  "args": [],
  "numDeployments": 1,
  "solcInputHash": "fcf3f5ced1f3d5f96be9fe2a13cdc034",
  "bytecode": "0x608060405234801561001057600080fd5b50610e50806100206000396000f3fe60806040526004361061003f5760003560e01c806336f6f6b5146100445780633e4986cd1461006b578063485fd076146100805780637b377243146100a0575b600080fd5b34801561005057600080fd5b50610059600281565b60405190815260200160405180910390f35b61007e610079366004610bf8565b6100c0565b005b34801561008c57600080fd5b5061007e61009b366004610bf8565b6100cc565b3480156100ac57600080fd5b506100596100bb366004610c11565b6100d5565b6100c9816100ee565b50565b6100c9816104b6565b60006100e48686868686610762565b9695505050505050565b6000818152600080516020610ddb83398151915260208181526040808420815161012081018352815460ff81168015158352610100918290046001600160a01b03908116848801526001850154848701526002850154606085015260038501546080850152600485015460a0850152600585015460c0850152600685015460e085015260079094015490931690820152868652600080516020610dfb833981519152845291909420929091527f87101b21d556417ad2b8e8f2700dbad90721d5d50a1f435f2dee0b9dc981ac899290919080156101cf57506101cf84610917565b6101d857600080fd5b816080015181600201541061021f5760405162461bcd60e51b81526020600482015260086024820152674e6f20737061636560c01b60448201526064015b60405180910390fd5b33600090815260048201602052604090205460ff161561026b5760405162461bcd60e51b81526020600482015260076024820152665265656e74727960c81b6044820152606401610216565b600381015460005b8181101561047e5760006001600160a01b031683600301828154811061029b5761029b610c6a565b6000918252602090912001546001600160a01b0316036104765760405163d7f8cffd60e01b8152600090309063d7f8cffd906102dd9088908690600401610c80565b602060405180830381865afa1580156102fa573d6000803e3d6000fd5b505050506040513d601f19601f8201168201806040525081019061031e9190610d08565b9050803410156103665760405162461bcd60e51b8152602060048201526013602482015272457468207061796d656e7420746f6f206c6f7760681b6044820152606401610216565b33600090815260058501602052604081208054349290610387908490610d37565b90915550503360008181526004860160205260409020805460ff19166001179055600385018054849081106103be576103be610c6a565b6000918252602082200180546001600160a01b0319166001600160a01b039390931692909217909155600285018054916103f783610d50565b90915550503360009081526007850160205260408120805434929061041d908490610d37565b9091555050336000818152600288016020908152604080832080546001810182559084529183209091018a90555189917fe031011da4ef7503b7885a296cf64287b8463ecd29055e798b7db96e6f97188091a35061047e565b600101610273565b508160020154600103610492574260018301555b82608001518260020154036104af57815461ff0019166101001782555b5050505050565b6000818152600080516020610ddb833981519152602052604090205460ff1680156104e557506104e581610917565b6104ee57600080fd5b6000818152600080516020610ddb83398151915260209081526040808320815161012081018352815460ff8116151582526001600160a01b0361010091829004811683870152600184015483860152600284015460608401526003808501546080850152600485015460a0850152600585015460c0850152600685015460e08501526007909401541690820152858552600080516020610dfb83398151915284528285209182018054845181870281018701909552808552919592949293929091908301828280156105e957602002820191906000526020600020905b81546001600160a01b031681526001909101906020018083116105cb575b50505050509050600081519050836080015183600201541461060a57600080fd5b60005b818110156106f957306001600160a01b031663c177f0918785848151811061063757610637610c6a565b60200260200101516040518363ffffffff1660e01b815260040161066e9291909182526001600160a01b0316602082015260400190565b602060405180830381865afa15801561068b573d6000803e3d6000fd5b505050506040513d601f19601f820116820180604052508101906106af9190610d69565b156106f15760405162461bcd60e51b8152602060048201526012602482015271115d1a081c1c9a58d95cc8191c9bdc1c195960721b6044820152606401610216565b60010161060d565b506107038461093d565b6040516302c1ed1f60e01b815230906302c1ed1f90610729908890600190600401610d92565b600060405180830381600087803b15801561074357600080fd5b505af1158015610757573d6000803e3d6000fd5b505050505050505050565b6000841580159061077257508315155b801561077d57508215155b801561078857508515155b801561079357508483105b80156107a757506001600160a01b03821615155b6107e45760405162461bcd60e51b815260206004820152600e60248201526d496e76616c696420696e7075747360901b6044820152606401610216565b7f87101b21d556417ad2b8e8f2700dbad90721d5d50a1f435f2dee0b9dc981ac898054604080516101208101825260608101838152608082018b815260a083018b815260c084018b815260e085018b81526001600160a01b038b8116610100808901918252336020808b01918252428b8d019081526001808d5260008f8152600080516020610ddb8339815191529093529c82208c51815494516001600160a81b0319909516901515610100600160a81b0319161793871690940292909217835590519a82019a909a55965160028801559451600387015592516004860155905160058501555160068401559051600790920180546001600160a01b031916929091169190911790558354909184906108fc83610d50565b919050555061090b828a610a90565b50979650505050505050565b6000600080516020610dfb8339815191525b600092835260205250604090205460ff1690565b61094a8160600151610b16565b1561098d5760405162461bcd60e51b815260206004820152601360248201527246756e6420616c72656164792065786973747360681b6044820152606401610216565b60608101805160009081527f6751f7e27cecf86d7136f5749c224248cae80a39fafb59f8f6bf12c52816307c6020908152604080832093518352600080516020610dfb833981519152909152902061010083015182546001600160a01b03909116620100000262010000600160b01b0319909116178255600381018054610a18916001850191610b3e565b50815460ff191660019081178355820154601283015560608301516040516305e920e960e51b8152309163bd241d2091610a59919060040190815260200190565b600060405180830381600087803b158015610a7357600080fd5b505af1158015610a87573d6000803e3d6000fd5b50505050505050565b6000828152600080516020610dfb83398151915260205260409020805461ffff191660011781558167ffffffffffffffff811115610ad057610ad0610dc4565b604051908082528060200260200182016040528015610af9578160200160208202803683370190505b508051610b10916003840191602090910190610b8e565b50505050565b60007f6751f7e27cecf86d7136f5749c224248cae80a39fafb59f8f6bf12c52816307c610929565b828054828255906000526020600020908101928215610b7e5760005260206000209182015b82811115610b7e578254825591600101919060010190610b63565b50610b8a929150610be3565b5090565b828054828255906000526020600020908101928215610b7e579160200282015b82811115610b7e57825182546001600160a01b0319166001600160a01b03909116178255602090920191600190910190610bae565b5b80821115610b8a5760008155600101610be4565b600060208284031215610c0a57600080fd5b5035919050565b600080600080600060a08688031215610c2957600080fd5b8535945060208601359350604086013592506060860135915060808601356001600160a01b0381168114610c5c57600080fd5b809150509295509295909350565b634e487b7160e01b600052603260045260246000fd5b60006101408201905083511515825260018060a01b03602085015116602083015260408401516040830152606084015160608301526080840151608083015260a084015160a083015260c084015160c083015260e084015160e083015261010080850151610cf8828501826001600160a01b03169052565b5050826101208301529392505050565b600060208284031215610d1a57600080fd5b5051919050565b634e487b7160e01b600052601160045260246000fd5b80820180821115610d4a57610d4a610d21565b92915050565b600060018201610d6257610d62610d21565b5060010190565b600060208284031215610d7b57600080fd5b81518015158114610d8b57600080fd5b9392505050565b8281526040810160048310610db757634e487b7160e01b600052602160045260246000fd5b8260208301529392505050565b634e487b7160e01b600052604160045260246000fdfe87101b21d556417ad2b8e8f2700dbad90721d5d50a1f435f2dee0b9dc981ac8a35fa70a6f9ae8a4d427ebe0c1be62ffd2870fecc1df41c6fda0bf5803e562888a264697066735822122073729432920a1e959367ca7b5fa264c9248d03363bf45753451980ab7baa9a4164736f6c63430008120033",
  "devdoc": {
    "author": "Mohammed Haddouti",
    "details": "v3.0 (Diamond)",
    "kind": "dev",
    "methods": {},
    "title": "Takaturn Term",
    "version": 1
  },
  "userdoc": {
    "kind": "user",
    "methods": {},
    "notice": "This is used to deploy the collateral & fund contracts",
    "version": 1
  },
  "storageLayout": {
    "storage": [],
    "types": null
  }
}