{
  "address": "0x2a5E37771Aca6487F2D71033af93Aa4f52a00bde",
  "abi": [
    {
      "anonymous": false,
      "inputs": [
        {
          "indexed": true,
          "internalType": "uint256",
          "name": "termId",
          "type": "uint256"
        },
        {
          "indexed": true,
          "internalType": "address",
          "name": "user",
          "type": "address"
        }
      ],
      "name": "OnCollateralDeposited",
      "type": "event"
    },
    {
      "inputs": [],
      "name": "TERM_VERSION",
      "outputs": [
        {
          "internalType": "uint256",
          "name": "",
          "type": "uint256"
        }
      ],
      "stateMutability": "view",
      "type": "function"
    },
    {
      "inputs": [
        {
          "internalType": "uint256",
          "name": "totalParticipants",
          "type": "uint256"
        },
        {
          "internalType": "uint256",
          "name": "cycleTime",
          "type": "uint256"
        },
        {
          "internalType": "uint256",
          "name": "contributionAmount",
          "type": "uint256"
        },
        {
          "internalType": "uint256",
          "name": "contributionPeriod",
          "type": "uint256"
        },
        {
          "internalType": "uint256",
          "name": "fixedCollateralEth",
          "type": "uint256"
        },
        {
          "internalType": "uint256",
          "name": "collateralAmount",
          "type": "uint256"
        },
        {
          "internalType": "address",
          "name": "stableTokenAddress",
          "type": "address"
        },
        {
          "internalType": "address",
          "name": "aggregatorAddress",
          "type": "address"
        }
      ],
      "name": "createTerm",
      "outputs": [
        {
          "internalType": "uint256",
          "name": "",
          "type": "uint256"
        }
      ],
      "stateMutability": "nonpayable",
      "type": "function"
    },
    {
      "inputs": [
        {
          "internalType": "uint256",
          "name": "termId",
          "type": "uint256"
        }
      ],
      "name": "joinTerm",
      "outputs": [],
      "stateMutability": "payable",
      "type": "function"
    },
    {
      "inputs": [
        {
          "internalType": "uint256",
          "name": "termId",
          "type": "uint256"
        }
      ],
      "name": "startTerm",
      "outputs": [],
      "stateMutability": "nonpayable",
      "type": "function"
    }
  ],
  "transactionHash": "0x5a82a003636cd0835637d1a587fe2ec810fa8a7e08ec4ac915f50b5018e41132",
  "args": [],
  "numDeployments": 1,
  "solcInputHash": "fcf3f5ced1f3d5f96be9fe2a13cdc034",
  "bytecode": "0x608060405234801561001057600080fd5b50610fa3806100206000396000f3fe60806040526004361061003f5760003560e01c806336f6f6b5146100445780633e4986cd1461006b578063485fd07614610080578063bcdf9352146100a0575b600080fd5b34801561005057600080fd5b50610059600181565b60405190815260200160405180910390f35b61007e610079366004610da5565b6100c0565b005b34801561008c57600080fd5b5061007e61009b366004610da5565b6100cc565b3480156100ac57600080fd5b506100596100bb366004610dda565b6100d5565b6100c9816100f4565b50565b6100c981610428565b60006100e78989898989898989610711565b9998505050505050505050565b6000818152600080516020610f2e83398151915260208181526040808420815161016081018352815460ff81168015158352610100918290046001600160a01b03908116848801526001850154848701526002850154606085015260038501546080850152600485015460a0850152600585015460c0850152600685015460e08501526007850154928401929092526008840154821661012084015260099093015416610140820152868652600080516020610f4e83398151915280855292909520939092527f87101b21d556417ad2b8e8f2700dbad90721d5d50a1f435f2dee0b9dc981ac899392909180156101ef57506101ef85610a25565b6101f857600080fd5b826080015181600201541061023f5760405162461bcd60e51b81526020600482015260086024820152674e6f20737061636560c01b60448201526064015b60405180910390fd5b33600090815260048201602052604090205460ff161561028b5760405162461bcd60e51b81526020600482015260076024820152665265656e74727960c81b6044820152606401610236565b8261010001513410156102d65760405162461bcd60e51b8152602060048201526013602482015272457468207061796d656e7420746f6f206c6f7760681b6044820152606401610236565b336000908152600582016020526040812080543492906102f7908490610e5d565b90915550503360009081526004820160205260408120805460ff191660011790556003820154905b818110156104025760006001600160a01b031683600301828154811061034757610347610e76565b6000918252602090912001546001600160a01b0316036103fa573383600301828154811061037757610377610e76565b6000918252602082200180546001600160a01b0319166001600160a01b039390931692909217909155600284018054916103b083610e8c565b9091555050604051339088907fe031011da4ef7503b7885a296cf64287b8463ecd29055e798b7db96e6f97188090600090a382600201546001036103f5574260018401555b610402565b60010161031f565b50836080015182600201540361042057815461ff0019166101001782555b505050505050565b6000818152600080516020610f2e833981519152602052604090205460ff168015610457575061045781610a25565b61046057600080fd5b6000818152600080516020610f2e83398151915260209081526040808320815161016081018352815460ff8116151582526001600160a01b0361010091829004811683870152600184015483860152600284015460608401526003808501546080850152600485015460a0850152600585015460c0850152600685015460e085015260078501549284019290925260088401548116610120840152600990930154909216610140820152858552600080516020610f4e83398151915280855283862092830180548551818802810188019096528086527f87101b21d556417ad2b8e8f2700dbad90721d5d50a1f435f2dee0b9dc981ac8997939692959283018282801561059657602002820191906000526020600020905b81546001600160a01b03168152600190910190602001808311610578575b5050505050905060008151905084608001518360020154146105b757600080fd5b60005b818110156106a657306001600160a01b031663c177f091898584815181106105e4576105e4610e76565b60200260200101516040518363ffffffff1660e01b815260040161061b9291909182526001600160a01b0316602082015260400190565b602060405180830381865afa158015610638573d6000803e3d6000fd5b505050506040513d601f19601f8201168201806040525081019061065c9190610ea5565b1561069e5760405162461bcd60e51b8152602060048201526012602482015271115d1a081c1c9a58d95cc8191c9bdc1c195960721b6044820152606401610236565b6001016105ba565b506106b087610a4b565b6040516302c1ed1f60e01b815230906302c1ed1f906106d6908a90600190600401610ece565b600060405180830381600087803b1580156106f057600080fd5b505af1158015610704573d6000803e3d6000fd5b5050505050505050505050565b6000871580159061072157508615155b801561072c57508515155b801561073757508815155b801561074257508786105b801561074d57508315155b801561076157506001600160a01b03831615155b801561077557506001600160a01b03821615155b6107b25760405162461bcd60e51b815260206004820152600e60248201526d496e76616c696420696e7075747360901b6044820152606401610236565b60007f87101b21d556417ad2b8e8f2700dbad90721d5d50a1f435f2dee0b9dc981ac8980546040805161016081018252600080825260208201819052918101829052606081018290526080810182905260a0810182905260c0810182905260e081018290526101008101829052610120810182905261014081019190915291925090818160600181815250508b8160800181815250508a8160a0018181525050898160c0018181525050888160e00181815250508781610100018181525050858161012001906001600160a01b031690816001600160a01b031681525050848161014001906001600160a01b031690816001600160a01b0316815250503381602001906001600160a01b031690816001600160a01b0316815250504281604001818152505060018160000190151590811515815250508083600101600084815260200190815260200160002060008201518160000160006101000a81548160ff02191690831515021790555060208201518160000160016101000a8154816001600160a01b0302191690836001600160a01b0316021790555060408201518160010155606082015181600201556080820151816003015560a0820151816004015560c0820151816005015560e0820151816006015561010082015181600701556101208201518160080160006101000a8154816001600160a01b0302191690836001600160a01b031602179055506101408201518160090160006101000a8154816001600160a01b0302191690836001600160a01b03160217905550905050826000016000815480929190610a0690610e8c565b9190505550610a16828d89610c25565b509a9950505050505050505050565b6000600080516020610f4e8339815191525b600092835260205250604090205460ff1690565b610a5481610cc3565b15610a975760405162461bcd60e51b815260206004820152601360248201527246756e6420616c72656164792065786973747360681b6044820152606401610236565b60008181527f6751f7e27cecf86d7136f5749c224248cae80a39fafb59f8f6bf12c52816307c60209081526040808320600080516020610f2e8339815191528352818420825161016081018452815460ff8116151582526001600160a01b036101009182900481168388015260018085015484880152600285015460608501526003808601546080860152600486015460a0860152600586015460c0860152600686015460e08601526007860154938501939093526008850154821661012085019081526009909501548216610140850152898952600080516020610f4e83398151915290975294909620915183549416620100000262010000600160b01b0319909416939093178255938401805491949293610bb8929086019190610ceb565b50825460ff19166001908117845583015460128401556040516305e920e960e51b815260048101859052309063bd241d2090602401600060405180830381600087803b158015610c0757600080fd5b505af1158015610c1b573d6000803e3d6000fd5b5050505050505050565b6000838152600080516020610f4e83398151915260205260409020805461ffff191660011781558267ffffffffffffffff811115610c6557610c65610f00565b604051908082528060200260200182016040528015610c8e578160200160208202803683370190505b508051610ca5916003840191602090910190610d3b565b50610cb882670de0b6b3a7640000610f16565b600790910155505050565b60007f6751f7e27cecf86d7136f5749c224248cae80a39fafb59f8f6bf12c52816307c610a37565b828054828255906000526020600020908101928215610d2b5760005260206000209182015b82811115610d2b578254825591600101919060010190610d10565b50610d37929150610d90565b5090565b828054828255906000526020600020908101928215610d2b579160200282015b82811115610d2b57825182546001600160a01b0319166001600160a01b03909116178255602090920191600190910190610d5b565b5b80821115610d375760008155600101610d91565b600060208284031215610db757600080fd5b5035919050565b80356001600160a01b0381168114610dd557600080fd5b919050565b600080600080600080600080610100898b031215610df757600080fd5b883597506020890135965060408901359550606089013594506080890135935060a08901359250610e2a60c08a01610dbe565b9150610e3860e08a01610dbe565b90509295985092959890939650565b634e487b7160e01b600052601160045260246000fd5b80820180821115610e7057610e70610e47565b92915050565b634e487b7160e01b600052603260045260246000fd5b600060018201610e9e57610e9e610e47565b5060010190565b600060208284031215610eb757600080fd5b81518015158114610ec757600080fd5b9392505050565b8281526040810160048310610ef357634e487b7160e01b600052602160045260246000fd5b8260208301529392505050565b634e487b7160e01b600052604160045260246000fd5b8082028115828204841417610e7057610e70610e4756fe87101b21d556417ad2b8e8f2700dbad90721d5d50a1f435f2dee0b9dc981ac8a35fa70a6f9ae8a4d427ebe0c1be62ffd2870fecc1df41c6fda0bf5803e562888a2646970667358221220d26a2522eaca406c18aab85d1b42b284a06b70367a845767ede3279b28a071e064736f6c63430008120033",
  "devdoc": {
    "author": "Mohammed Haddouti",
    "details": "v3.0 (Diamond)",
    "kind": "dev",
    "methods": {},
    "title": "Takaturn Term",
    "version": 1
  },
  "userdoc": {
    "kind": "user",
    "methods": {},
    "notice": "This is used to deploy the collateral & fund contracts",
    "version": 1
  },
  "storageLayout": {
    "storage": [],
    "types": null
  }
}