{
  "address": "0xB793bC73Fb9b301c654201f9411CbC6e2355d299",
  "abi": [
    {
      "anonymous": false,
      "inputs": [
        {
          "indexed": true,
          "internalType": "uint256",
          "name": "amount",
          "type": "uint256"
        },
        {
          "indexed": true,
          "internalType": "address",
          "name": "receiver",
          "type": "address"
        }
      ],
      "name": "OnGoerliEthWithdraw",
      "type": "event"
    },
    {
      "inputs": [
        {
          "internalType": "address",
          "name": "newManager",
          "type": "address"
        }
      ],
      "name": "addTrustedAddress",
      "outputs": [],
      "stateMutability": "nonpayable",
      "type": "function"
    },
    {
      "inputs": [],
      "name": "withdrawGoerliEth",
      "outputs": [],
      "stateMutability": "nonpayable",
      "type": "function"
    }
  ],
  "transactionHash": "0x8b9f096771d060e16b29d0d2006a1b924517853f32ea68a6c43832b07f3cf7cc",
  "args": [],
  "numDeployments": 1,
  "solcInputHash": "c5035efd64456f874a006856b57fdabf",
  "bytecode": "0x608060405234801561001057600080fd5b50610394806100206000396000f3fe608060405234801561001057600080fd5b50600436106100365760003560e01c806345c805ac1461003b578063fe62150514610045575b600080fd5b610043610058565b005b610043610053366004610318565b61012e565b61006061014e565b3361006a816101d7565b506040514790600090339083908381818185875af1925050503d80600081146100af576040519150601f19603f3d011682016040523d82523d6000602084013e6100b4565b606091505b50509050806100fc5760405162461bcd60e51b815260206004820152600f60248201526e15da5d1a191c985dc819985a5b1959608a1b60448201526064015b60405180910390fd5b604051339083907fa68f8bfef6961822df5bff6bdf6435179a910467d6b29fabce8037cce12e18c090600090a3505050565b61013661014e565b33610140816101d7565b5061014a8261025f565b5050565b7fc8fcad8db84d3cc18b4c41d551ea0ee66dd599cde068d998e57d5e09332c131c600401546001600160a01b031633146101d55760405162461bcd60e51b815260206004820152602260248201527f4c69624469616d6f6e643a204d75737420626520636f6e7472616374206f776e60448201526132b960f11b60648201526084016100f3565b565b7f4efa3dfb8278a6c13676dce2b971b4769b8326f4544abbc9c2a7223e05d7b9c1805460009190825b8181101561025457846001600160a01b031683600001828154811061022757610227610348565b6000918252602090912001546001600160a01b03160361024c57506001949350505050565b600101610200565b506000949350505050565b6001600160a01b0381166102a75760405162461bcd60e51b815260206004820152600f60248201526e496e76616c6964206164647265737360881b60448201526064016100f3565b7f4efa3dfb8278a6c13676dce2b971b4769b8326f4544abbc9c2a7223e05d7b9c180546001810182556000919091527f32fe72c073e511a3396253bbc1c888f0e5dd0082c29c33ce53ca95608d675af20180546001600160a01b0319166001600160a01b0392909216919091179055565b60006020828403121561032a57600080fd5b81356001600160a01b038116811461034157600080fd5b9392505050565b634e487b7160e01b600052603260045260246000fdfea26469706673582212205d64bbd3642d2f448d642b3ca672b7fdce825404022ef79a8707431d5b0b64af64736f6c63430008120033",
  "devdoc": {
    "kind": "dev",
    "methods": {},
    "version": 1
  },
  "userdoc": {
    "kind": "user",
    "methods": {},
    "version": 1
  },
  "storageLayout": {
    "storage": [],
    "types": null
  }
}