{
  "address": "0x80fCd683DC69f569cD924Ae8701c73A2c755B7Dc",
  "abi": [
    {
      "anonymous": false,
      "inputs": [
        {
          "indexed": true,
          "internalType": "uint256",
          "name": "termId",
          "type": "uint256"
        },
        {
          "indexed": true,
          "internalType": "address",
          "name": "user",
          "type": "address"
        },
        {
          "indexed": true,
          "internalType": "uint256",
          "name": "amount",
          "type": "uint256"
        }
      ],
      "name": "OnWithdrawnBalanceRestored",
      "type": "event"
    },
    {
      "anonymous": false,
      "inputs": [
        {
          "indexed": true,
          "internalType": "uint256",
          "name": "termId",
          "type": "uint256"
        },
        {
          "indexed": true,
          "internalType": "address",
          "name": "user",
          "type": "address"
        },
        {
          "indexed": true,
          "internalType": "bool",
          "name": "optedIn",
          "type": "bool"
        }
      ],
      "name": "OnYGOptInToggled",
      "type": "event"
    },
    {
      "anonymous": false,
      "inputs": [
        {
          "indexed": true,
          "internalType": "uint256",
          "name": "termId",
          "type": "uint256"
        },
        {
          "indexed": true,
          "internalType": "address",
          "name": "user",
          "type": "address"
        },
        {
          "indexed": false,
          "internalType": "address",
          "name": "receiver",
          "type": "address"
        },
        {
          "indexed": true,
          "internalType": "uint256",
          "name": "amount",
          "type": "uint256"
        }
      ],
      "name": "OnYieldClaimed",
      "type": "event"
    },
    {
      "anonymous": false,
      "inputs": [
        {
          "indexed": true,
          "internalType": "uint256",
          "name": "termId",
          "type": "uint256"
        },
        {
          "indexed": true,
          "internalType": "address",
          "name": "user",
          "type": "address"
        },
        {
          "indexed": true,
          "internalType": "uint256",
          "name": "amount",
          "type": "uint256"
        }
      ],
      "name": "OnYieldCompensated",
      "type": "event"
    },
    {
      "anonymous": false,
      "inputs": [
        {
          "indexed": true,
          "internalType": "uint256",
          "name": "termId",
          "type": "uint256"
        },
        {
          "indexed": true,
          "internalType": "address",
          "name": "user",
          "type": "address"
        },
        {
          "indexed": true,
          "internalType": "uint256",
          "name": "amount",
          "type": "uint256"
        }
      ],
      "name": "OnYieldReimbursed",
      "type": "event"
    },
    {
      "anonymous": false,
      "inputs": [
        {
          "indexed": true,
          "internalType": "uint256",
          "name": "termId",
          "type": "uint256"
        }
      ],
      "name": "OnYieldTermUpdated",
      "type": "event"
    },
    {
      "inputs": [
        {
          "internalType": "uint256",
          "name": "termId",
          "type": "uint256"
        },
        {
          "internalType": "address",
          "name": "receiver",
          "type": "address"
        }
      ],
      "name": "claimAvailableYield",
      "outputs": [],
      "stateMutability": "nonpayable",
      "type": "function"
    },
    {
      "inputs": [
        {
          "internalType": "uint256[]",
          "name": "termIds",
          "type": "uint256[]"
        },
        {
          "internalType": "uint256[]",
          "name": "originalWithdrawals",
          "type": "uint256[]"
        },
        {
          "internalType": "uint256[]",
          "name": "originalShares",
          "type": "uint256[]"
        },
        {
          "internalType": "address[]",
          "name": "users",
          "type": "address[]"
        }
      ],
      "name": "rescueStuckYields",
      "outputs": [],
      "stateMutability": "payable",
      "type": "function"
    },
    {
      "inputs": [
        {
          "internalType": "uint256[]",
          "name": "termIds",
          "type": "uint256[]"
        }
      ],
      "name": "restoreYieldBalance",
      "outputs": [],
      "stateMutability": "payable",
      "type": "function"
    },
    {
      "inputs": [
        {
          "internalType": "uint256",
          "name": "termId",
          "type": "uint256"
        }
      ],
      "name": "toggleOptInYG",
      "outputs": [],
      "stateMutability": "nonpayable",
      "type": "function"
    },
    {
      "inputs": [],
      "name": "toggleYieldLock",
      "outputs": [
        {
          "internalType": "bool",
          "name": "",
          "type": "bool"
        }
      ],
      "stateMutability": "nonpayable",
      "type": "function"
    },
    {
      "inputs": [
        {
          "internalType": "uint256",
          "name": "termId",
          "type": "uint256"
        },
        {
          "internalType": "string",
          "name": "providerString",
          "type": "string"
        },
        {
          "internalType": "address",
          "name": "providerAddress",
          "type": "address"
        }
      ],
      "name": "updateProviderAddressOnTerms",
      "outputs": [],
      "stateMutability": "nonpayable",
      "type": "function"
    },
    {
      "inputs": [
        {
          "internalType": "string",
          "name": "providerString",
          "type": "string"
        },
        {
          "internalType": "address",
          "name": "providerAddress",
          "type": "address"
        }
      ],
      "name": "updateYieldProvider",
      "outputs": [],
      "stateMutability": "nonpayable",
      "type": "function"
    }
  ],
  "transactionHash": "0xaaa830c64f3dfbb8792d443f5ec3fe00b541807dea0a9d53f89bad0220e0cb8f",
  "args": [],
  "numDeployments": 2,
  "solcInputHash": "454842cabf73bffc3d94a352b049b499",
  "bytecode": "0x608060405234801561001057600080fd5b50611bbc806100206000396000f3fe6080604052600436106100705760003560e01c8063c8eeb5781161004e578063c8eeb578146100ca578063efbb9761146100f3578063f6a40d2a14610113578063f741e19e1461013357600080fd5b806327ff9f351461007557806383da1d761461009757806383de6e99146100b7575b600080fd5b34801561008157600080fd5b506100956100903660046116c0565b610146565b005b3480156100a357600080fd5b506100956100b23660046117ac565b6102c5565b6100956100c5366004611889565b610335565b3480156100d657600080fd5b506100df610a68565b604051901515815260200160405180910390f35b3480156100ff57600080fd5b5061009561010e366004611990565b610aab565b34801561011f57600080fd5b5061009561012e3660046119e7565b610c56565b610095610141366004611a0a565b610d8f565b6000818152600080516020611b67833981519152602090815260408083207f35fa70a6f9ae8a4d427ebe0c1be62ffd2870fecc1df41c6fda0bf5803e5628889092528220805491929091610100900460ff1660038111156101a9576101a9611a47565b146101fb5760405162461bcd60e51b815260206004820152601c60248201527f546f6f206c61746520746f206368616e6765205947206f707420696e0000000060448201526064015b60405180910390fd5b33600090815260048201602052604090205460ff1661026e5760405162461bcd60e51b815260206004820152602960248201527f5061792074686520636f6c6c61746572616c207365637572697479206465706f6044820152681cda5d08199a5c9cdd60ba1b60648201526084016101f2565b336000818152600784016020526040808220805460ff81161560ff199091168117909155905190928392909187917f9c0d71d8ccd3ac3b8b8463f9dff1237a9e545a61f6e803ee0948ff02c7cef56691a450505050565b6102cd611496565b6040517ff27a5986330dc78d016d8604ee1a040d5a789fbaa2d0c27f5dfded4b616b89779082908290610301908690611a5d565b90815260405190819003602001902080546001600160a01b03929092166001600160a01b0319909216919091179055505050565b83518351811480156103475750825181145b80156103535750815181145b6103945760405162461bcd60e51b8152602060048201526012602482015271082e4e4c2f2e640c8dedc4ee840dac2e8c6d60731b60448201526064016101f2565b6000805b828110156109b65760008782815181106103b4576103b4611a8c565b6020026020010151905060008583815181106103d2576103d2611a8c565b6020026020010151905060006103f3600080516020611b6783398151915290565b6000848152602091825260408082206001600160a01b03861683526007810190935290205490915060ff166104745760405162461bcd60e51b815260206004820152602160248201527f55736572206e6f742070617274206f66207969656c642067656e65726174696f6044820152603760f91b60648201526084016101f2565b600081600101604051610496906816985e5b95985d5b1d60ba1b815260090190565b908152604051908190036020018120546001600160a01b0316915060009060018401906104d0906605a61796e5a61760cc1b815260070190565b908152602001604051809103902060009054906101000a90046001600160a01b0316905060006105338c888151811061050b5761050b611a8c565b60200260200101518c898151811061052557610525611a8c565b60200260200101518661151f565b9050600081131561066a576040516316d5e29b60e11b81526001600160a01b03848116600483015260248201839052604482018890528291600091851690632dabc536906064016020604051808303816000875af1158015610599573d6000803e3d6000fd5b505050506040513d601f19601f820116820180604052508101906105bd9190611aa2565b6001600160a01b03881660009081526008880160205260408120805492935083929091906105ec908490611ad1565b90915550506001600160a01b0387166000908152600a870160205260408120805483929061061b908490611ad1565b9091555061062c9050888880611588565b80876001600160a01b0316897e94f0db15b32d9d12a13c5a2c4be5153bda7550fd0cbf0abc3fc6a5d0d41d7a60405160405180910390a450506109a5565b60008112156109a557600061068182600019611aea565b90506000846001600160a01b03166377c7b8fc6040518163ffffffff1660e01b8152600401602060405180830381865afa1580156106c3573d6000803e3d6000fd5b505050506040513d601f19601f820116820180604052508101906106e79190611aa2565b90506000678ac7230489e800008261070085600f611b1a565b61070a9190611b1a565b6107149190611b31565b604051631398fee160e31b8152600481018b90529091506000906001600160a01b03881690639cc7f70890602401602060405180830381865afa15801561075f573d6000803e3d6000fd5b505050506040513d601f19601f820116820180604052508101906107839190611aa2565b9050346107908d84611ad1565b11156107da5760405162461bcd60e51b8152602060048201526019602482015278139bdd08195b9bdd59da08115512081d985b1d59481cd95b9d603a1b60448201526064016101f2565b604051632af34be360e11b81526001600160a01b038881166004830152602482018c90528716906355e697c69084906044016000604051808303818588803b15801561082557600080fd5b505af1158015610839573d6000803e3d6000fd5b5050505050818c61084a9190611ad1565b604051631398fee160e31b8152600481018c9052909c506000906001600160a01b03891690639cc7f70890602401602060405180830381865afa158015610895573d6000803e3d6000fd5b505050506040513d601f19601f820116820180604052508101906108b99190611aa2565b905060006001600160a01b038816632dabc5368a886108d88787611b53565b6108e29190611b53565b6040516001600160e01b031960e085901b1681526001600160a01b0390921660048301526024820152604481018f90526064016020604051808303816000875af1158015610934573d6000803e3d6000fd5b505050506040513d601f19601f820116820180604052508101906109589190611aa2565b9050610964818f611b53565b9d50838b6001600160a01b03168d7fb661b35109646d6776b783a742f7e50d155cebc74454b6b8ab6dec5cf6f0a2e860405160405180910390a45050505050505b866001019650505050505050610398565b5034811015610a60576000336109cc8334611b53565b604051600081818185875af1925050503d8060008114610a08576040519150601f19603f3d011682016040523d82523d6000602084013e610a0d565b606091505b5050905080610a5e5760405162461bcd60e51b815260206004820181905260248201527f4661696c656420746f2073656e64206c6566746f76657220455448206261636b60448201526064016101f2565b505b505050505050565b6000610a72611496565b507f7c039906f7f8ca11e01b6987a88513563589699678f7d2a6c8447f44d69375f3805460ff19811660ff918216159081179092551690565b610ab3611496565b6000838152600080516020611b67833981519152602090815260408083207f6751f7e27cecf86d7136f5749c224248cae80a39fafb59f8f6bf12c52816307c9092529091205460ff16610b3e5760405162461bcd60e51b8152602060048201526013602482015272119d5b9908191bd95cc81b9bdd08195e1a5cdd606a1b60448201526064016101f2565b6001600160a01b038216610b945760405162461bcd60e51b815260206004820152601860248201527f496e76616c69642070726f76696465722061646472657373000000000000000060448201526064016101f2565b816001600160a01b03168160010184604051610bb09190611a5d565b908152604051908190036020019020546001600160a01b031603610c0e5760405162461bcd60e51b815260206004820152601560248201527453616d652070726f7669646572206164647265737360581b60448201526064016101f2565b818160010184604051610c219190611a5d565b90815260405190819003602001902080546001600160a01b03929092166001600160a01b031990921691909117905550505050565b60008281527f6751f7e27cecf86d7136f5749c224248cae80a39fafb59f8f6bf12c52816307c60209081526040808320600181018054835181860281018601909452808452919493909190830182828015610cda57602002820191906000526020600020905b81546001600160a01b03168152600190910190602001808311610cbc575b505050505090506000815190506000805b82811015610d3657336001600160a01b0316848281518110610d0f57610d0f611a8c565b60200260200101516001600160a01b031603610d2e5760019150610d36565b600101610ceb565b5080610d845760405162461bcd60e51b815260206004820181905260248201527f5468652063616c6c6572206d7573742062652061207061727469636970616e7460448201526064016101f2565b610a60863387611588565b610d97611496565b6000805b82518110156113e8576000838281518110610db857610db8611a8c565b602002602001015190506000610dd9600080516020611b6783398151915290565b60008381526020918252604080822081516816985e5b95985d5b1d60ba1b815260018201600982018190528351918290036029018220546605a61796e5a61760cc1b83526007830191909152835191829003602701822054600684018054808902850189019096528584529397506001600160a01b03918216969116949391929190830182828015610e9457602002820191906000526020600020905b81546001600160a01b03168152600190910190602001808311610e76575b505050505090506000805b8251811015610f64576000838281518110610ebc57610ebc611a8c565b6020908102919091018101516001600160a01b038116600090815260098a018352604080822054600b8c0190945290205490925080821115610f5657610f028183611b53565b610f0c9086611ad1565b6001600160a01b038416600081815260098c0160205260408082208590555192975083928d917fc12f54eeeae0f5ca9f6561845a215b9d282ff63875074a39ac0679eb904bd80491a45b836001019350505050610e9f565b5060008111610fc95760405162461bcd60e51b815260206004820152602b60248201527f7465726d496420646f6573206e6f74206861766520746f6f206d75636820776960448201526a0e8d0c8e4c2eedc408aa8960ab1b60648201526084016101f2565b80856004016000828254610fdd9190611ad1565b909155505060038501546005860154600487015460009291610ffe91611b1a565b6110089190611b31565b604051632af34be360e11b81526001600160a01b038781166004830152602482018a9052919250908516906355e697c69084906044016000604051808303818588803b15801561105757600080fd5b505af115801561106b573d6000803e3d6000fd5b5050604051631398fee160e31b8152600481018b9052600093506001600160a01b0389169250639cc7f7089150602401602060405180830381865afa1580156110b8573d6000803e3d6000fd5b505050506040513d601f19601f820116820180604052508101906110dc9190611aa2565b90508181111561112e5760405162461bcd60e51b815260206004820152601c60248201527f546f6f206d616e792073686172657320666f72206465706f736974210000000060448201526064016101f2565b808211156113aa576000866001600160a01b03166377c7b8fc6040518163ffffffff1660e01b8152600401602060405180830381865afa158015611176573d6000803e3d6000fd5b505050506040513d601f19601f8201168201806040525081019061119a9190611aa2565b90506000678ac7230489e80000826111b28587611b53565b6111bd90600f611b1a565b6111c79190611b1a565b6111d19190611b31565b9050346111de8d83611ad1565b11156112285760405162461bcd60e51b8152602060048201526019602482015278139bdd08195b9bdd59da08115512081d985b1d59481cd95b9d603a1b60448201526064016101f2565b604051632af34be360e11b81526001600160a01b038981166004830152602482018c90528816906355e697c69083906044016000604051808303818588803b15801561127357600080fd5b505af1158015611287573d6000803e3d6000fd5b5050505050808c6112989190611ad1565b604051631398fee160e31b8152600481018c9052909c506001600160a01b03891690639cc7f70890602401602060405180830381865afa1580156112e0573d6000803e3d6000fd5b505050506040513d601f19601f820116820180604052508101906113049190611aa2565b925060006001600160a01b038816632dabc5368a6113228888611b53565b6040516001600160e01b031960e085901b1681526001600160a01b0390921660048301526024820152604481018e90526064016020604051808303816000875af1158015611374573d6000803e3d6000fd5b505050506040513d601f19601f820116820180604052508101906113989190611aa2565b90506113a4818e611b53565b9c505050505b60405160019099019888907f8dab6229cedadb02e768ce539e22f5fcdd8f33d86329faf12a4c8cd63f22b3a490600090a25050505050505050610d9b565b5034811015611492576000336113fe8334611b53565b604051600081818185875af1925050503d806000811461143a576040519150601f19603f3d011682016040523d82523d6000602084013e61143f565b606091505b50509050806114905760405162461bcd60e51b815260206004820181905260248201527f4661696c656420746f2073656e64206c6566746f76657220455448206261636b60448201526064016101f2565b505b5050565b7fc8fcad8db84d3cc18b4c41d551ea0ee66dd599cde068d998e57d5e09332c131c600401546001600160a01b0316331461151d5760405162461bcd60e51b815260206004820152602260248201527f4c69624469616d6f6e643a204d75737420626520636f6e7472616374206f776e60448201526132b960f11b60648201526084016101f2565b565b60008082600301548360050154866115379190611b1a565b6115419190611b31565b90508381111561155d576115558482611b53565b915050611581565b8381101561157b5761156f8185611b53565b61155590600019611aea565b60009150505b9392505050565b6000838152600080516020611b67833981519152602090815260408083206001600160a01b0386168452600a810190925290912054806116015760405162461bcd60e51b81526020600482015260146024820152734e6f207969656c6420746f20776974686472617760601b60448201526064016101f2565b6001600160a01b038481166000908152600a8401602052604080822082905551909185169083908381818185875af1925050503d8060008114611660576040519150601f19603f3d011682016040523d82523d6000602084013e611665565b606091505b505090508061167357600080fd5b6040516001600160a01b03858116825283919087169088907fdb2460ca9a22614b8fe3f598b727569022250e691340edbbaf8ff069969155f09060200160405180910390a4505050505050565b6000602082840312156116d257600080fd5b5035919050565b634e487b7160e01b600052604160045260246000fd5b604051601f8201601f1916810167ffffffffffffffff81118282101715611718576117186116d9565b604052919050565b600082601f83011261173157600080fd5b813567ffffffffffffffff81111561174b5761174b6116d9565b61175e601f8201601f19166020016116ef565b81815284602083860101111561177357600080fd5b816020850160208301376000918101602001919091529392505050565b80356001600160a01b03811681146117a757600080fd5b919050565b600080604083850312156117bf57600080fd5b823567ffffffffffffffff8111156117d657600080fd5b6117e285828601611720565b9250506117f160208401611790565b90509250929050565b600067ffffffffffffffff821115611814576118146116d9565b5060051b60200190565b600082601f83011261182f57600080fd5b8135602061184461183f836117fa565b6116ef565b82815260059290921b8401810191818101908684111561186357600080fd5b8286015b8481101561187e5780358352918301918301611867565b509695505050505050565b6000806000806080858703121561189f57600080fd5b843567ffffffffffffffff808211156118b757600080fd5b6118c38883890161181e565b95506020915081870135818111156118da57600080fd5b6118e689828a0161181e565b9550506040870135818111156118fb57600080fd5b61190789828a0161181e565b94505060608701358181111561191c57600080fd5b87019050601f8101881361192f57600080fd5b803561193d61183f826117fa565b81815260059190911b8201830190838101908a83111561195c57600080fd5b928401925b828410156119815761197284611790565b82529284019290840190611961565b979a9699509497505050505050565b6000806000606084860312156119a557600080fd5b83359250602084013567ffffffffffffffff8111156119c357600080fd5b6119cf86828701611720565b9250506119de60408501611790565b90509250925092565b600080604083850312156119fa57600080fd5b823591506117f160208401611790565b600060208284031215611a1c57600080fd5b813567ffffffffffffffff811115611a3357600080fd5b611a3f8482850161181e565b949350505050565b634e487b7160e01b600052602160045260246000fd5b6000825160005b81811015611a7e5760208186018101518583015201611a64565b506000920191825250919050565b634e487b7160e01b600052603260045260246000fd5b600060208284031215611ab457600080fd5b5051919050565b634e487b7160e01b600052601160045260246000fd5b80820180821115611ae457611ae4611abb565b92915050565b80820260008212600160ff1b84141615611b0657611b06611abb565b8181058314821517611ae457611ae4611abb565b8082028115828204841417611ae457611ae4611abb565b600082611b4e57634e487b7160e01b600052601260045260246000fd5b500490565b81810381811115611ae457611ae4611abb56fe29d9cba46c358ba7c1b8945751229339792c7c62e3197c240fa98916e75ffbf9a2646970667358221220d1ba015917b1f8589f67e5753c77fdd027eae079498e0c76d109d5bd5e288a9364736f6c63430008120033",
  "devdoc": {
    "kind": "dev",
    "methods": {
      "claimAvailableYield(uint256,address)": {
        "details": "for emergency use only, in case the claimed yield is not sent to the user when withdrawing the collateral",
        "params": {
          "receiver": "The address of the user who will receive the yield",
          "termId": "The term id for which the yield is being claimed"
        }
      },
      "rescueStuckYields(uint256[],uint256[],uint256[],address[])": {
        "params": {
          "originalShares": "The original calculated shares amounts of each bad transaction",
          "originalWithdrawals": "The original ETH withdrawal amounts of each bad transaction",
          "termIds": "The term ids for which the yield is being rescued",
          "users": "The users to be reimbursed"
        }
      },
      "restoreYieldBalance(uint256[])": {
        "params": {
          "termIds": "The term ids for which the yield balance is to be restored"
        }
      },
      "toggleOptInYG(uint256)": {
        "details": "only allowed before the term starts",
        "params": {
          "termId": "The term id for which the yield is being claimed"
        }
      },
      "updateProviderAddressOnTerms(uint256,string,address)": {
        "params": {
          "providerAddress": "The new address of the provider",
          "providerString": "The provider string for which the address is being updated",
          "termId": "The term id for which the yield is being claimed"
        }
      },
      "updateYieldProvider(string,address)": {
        "params": {
          "providerAddress": "The new address of the provider",
          "providerString": "The provider string for which the address is being updated"
        }
      }
    },
    "version": 1
  },
  "userdoc": {
    "kind": "user",
    "methods": {
      "claimAvailableYield(uint256,address)": {
        "notice": "This function allows a user to claim the current available yield"
      },
      "rescueStuckYields(uint256[],uint256[],uint256[],address[])": {
        "notice": "To be used in case of emergency, when yield got stuck in the vaultThe position of each array is used as a set in the calculation"
      },
      "restoreYieldBalance(uint256[])": {
        "notice": "To be used in case of emergency, when the user has withdrawn too much eth from yield into the smart contract"
      },
      "toggleOptInYG(uint256)": {
        "notice": "This function allows a user to toggle their yield generation"
      },
      "toggleYieldLock()": {
        "notice": "This function allows the owner to disable the yield generation feature in case of emergency"
      },
      "updateProviderAddressOnTerms(uint256,string,address)": {
        "notice": "To be used in case of emergency, when the provider needs to change the zap or the vault"
      },
      "updateYieldProvider(string,address)": {
        "notice": "This function allows the owner to update the global variable for new yield provider"
      }
    },
    "version": 1
  },
  "storageLayout": {
    "storage": [],
    "types": null
  }
}