{
  "address": "0x87C590778B35381A631824e835298286dd63f160",
  "abi": [
    {
      "anonymous": false,
      "inputs": [
        {
          "indexed": true,
          "internalType": "uint256",
          "name": "termId",
          "type": "uint256"
        },
        {
          "indexed": true,
          "internalType": "address",
          "name": "user",
          "type": "address"
        },
        {
          "indexed": true,
          "internalType": "uint256",
          "name": "amount",
          "type": "uint256"
        }
      ],
      "name": "OnWithdrawnBalanceRestored",
      "type": "event"
    },
    {
      "anonymous": false,
      "inputs": [
        {
          "indexed": true,
          "internalType": "uint256",
          "name": "termId",
          "type": "uint256"
        },
        {
          "indexed": true,
          "internalType": "address",
          "name": "user",
          "type": "address"
        },
        {
          "indexed": true,
          "internalType": "bool",
          "name": "optedIn",
          "type": "bool"
        }
      ],
      "name": "OnYGOptInToggled",
      "type": "event"
    },
    {
      "anonymous": false,
      "inputs": [
        {
          "indexed": true,
          "internalType": "uint256",
          "name": "termId",
          "type": "uint256"
        },
        {
          "indexed": true,
          "internalType": "address",
          "name": "user",
          "type": "address"
        },
        {
          "indexed": false,
          "internalType": "address",
          "name": "receiver",
          "type": "address"
        },
        {
          "indexed": true,
          "internalType": "uint256",
          "name": "amount",
          "type": "uint256"
        }
      ],
      "name": "OnYieldClaimed",
      "type": "event"
    },
    {
      "anonymous": false,
      "inputs": [
        {
          "indexed": true,
          "internalType": "uint256",
          "name": "termId",
          "type": "uint256"
        },
        {
          "indexed": true,
          "internalType": "address",
          "name": "user",
          "type": "address"
        },
        {
          "indexed": true,
          "internalType": "uint256",
          "name": "amount",
          "type": "uint256"
        }
      ],
      "name": "OnYieldCompensated",
      "type": "event"
    },
    {
      "anonymous": false,
      "inputs": [
        {
          "indexed": true,
          "internalType": "uint256",
          "name": "termId",
          "type": "uint256"
        },
        {
          "indexed": true,
          "internalType": "address",
          "name": "user",
          "type": "address"
        },
        {
          "indexed": true,
          "internalType": "uint256",
          "name": "amount",
          "type": "uint256"
        }
      ],
      "name": "OnYieldReimbursed",
      "type": "event"
    },
    {
      "anonymous": false,
      "inputs": [
        {
          "indexed": true,
          "internalType": "uint256",
          "name": "termId",
          "type": "uint256"
        },
        {
          "indexed": true,
          "internalType": "uint256",
          "name": "amountRestored",
          "type": "uint256"
        },
        {
          "indexed": true,
          "internalType": "uint256",
          "name": "amountCompensated",
          "type": "uint256"
        }
      ],
      "name": "OnYieldTermUpdated",
      "type": "event"
    },
    {
      "inputs": [
        {
          "internalType": "uint256",
          "name": "termId",
          "type": "uint256"
        },
        {
          "internalType": "address",
          "name": "receiver",
          "type": "address"
        }
      ],
      "name": "claimAvailableYield",
      "outputs": [],
      "stateMutability": "nonpayable",
      "type": "function"
    },
    {
      "inputs": [
        {
          "internalType": "uint256[]",
          "name": "termIds",
          "type": "uint256[]"
        }
      ],
      "name": "reimburseExtraYield",
      "outputs": [],
      "stateMutability": "payable",
      "type": "function"
    },
    {
      "inputs": [
        {
          "internalType": "uint256[]",
          "name": "termIds",
          "type": "uint256[]"
        },
        {
          "internalType": "uint256[]",
          "name": "originalWithdrawals",
          "type": "uint256[]"
        },
        {
          "internalType": "uint256[]",
          "name": "originalShares",
          "type": "uint256[]"
        },
        {
          "internalType": "address[]",
          "name": "users",
          "type": "address[]"
        }
      ],
      "name": "rescueStuckYields",
      "outputs": [],
      "stateMutability": "payable",
      "type": "function"
    },
    {
      "inputs": [
        {
          "internalType": "uint256[]",
          "name": "termIds",
          "type": "uint256[]"
        }
      ],
      "name": "restoreYieldBalance",
      "outputs": [],
      "stateMutability": "payable",
      "type": "function"
    },
    {
      "inputs": [
        {
          "internalType": "uint256",
          "name": "termId",
          "type": "uint256"
        }
      ],
      "name": "toggleOptInYG",
      "outputs": [],
      "stateMutability": "nonpayable",
      "type": "function"
    },
    {
      "inputs": [],
      "name": "toggleYieldLock",
      "outputs": [
        {
          "internalType": "bool",
          "name": "",
          "type": "bool"
        }
      ],
      "stateMutability": "nonpayable",
      "type": "function"
    },
    {
      "inputs": [
        {
          "internalType": "uint256",
          "name": "termId",
          "type": "uint256"
        },
        {
          "internalType": "string",
          "name": "providerString",
          "type": "string"
        },
        {
          "internalType": "address",
          "name": "providerAddress",
          "type": "address"
        }
      ],
      "name": "updateProviderAddressOnTerms",
      "outputs": [],
      "stateMutability": "nonpayable",
      "type": "function"
    },
    {
      "inputs": [
        {
          "internalType": "string",
          "name": "providerString",
          "type": "string"
        },
        {
          "internalType": "address",
          "name": "providerAddress",
          "type": "address"
        }
      ],
      "name": "updateYieldProvider",
      "outputs": [],
      "stateMutability": "nonpayable",
      "type": "function"
    }
  ],
  "transactionHash": "0xb1c51c92067cbb9b40c1bc79933be9f0545a2d008d9470d93d65bd2abc1dc8cf",
  "args": [],
  "numDeployments": 2,
  "solcInputHash": "b5dda25a70667bdda8fc65f97f7d4af7",
  "bytecode": "0x608060405234801561001057600080fd5b50612744806100206000396000f3fe60806040526004361061007b5760003560e01c8063c8eeb5781161004e578063c8eeb578146100e8578063efbb976114610111578063f6a40d2a14610131578063f741e19e1461015157600080fd5b806327ff9f351461008057806383da1d76146100a257806383de6e99146100c25780639253c073146100d5575b600080fd5b34801561008c57600080fd5b506100a061009b366004612227565b610164565b005b3480156100ae57600080fd5b506100a06100bd366004612313565b6102e3565b6100a06100d03660046123f0565b610353565b6100a06100e33660046124f7565b610b45565b3480156100f457600080fd5b506100fd61123e565b604051901515815260200160405180910390f35b34801561011d57600080fd5b506100a061012c366004612534565b611281565b34801561013d57600080fd5b506100a061014c36600461258b565b61142c565b6100a061015f3660046124f7565b611565565b60008181526000805160206126ef833981519152602090815260408083207f35fa70a6f9ae8a4d427ebe0c1be62ffd2870fecc1df41c6fda0bf5803e5628889092528220805491929091610100900460ff1660038111156101c7576101c76125ae565b146102195760405162461bcd60e51b815260206004820152601c60248201527f546f6f206c61746520746f206368616e6765205947206f707420696e0000000060448201526064015b60405180910390fd5b33600090815260048201602052604090205460ff1661028c5760405162461bcd60e51b815260206004820152602960248201527f5061792074686520636f6c6c61746572616c207365637572697479206465706f6044820152681cda5d08199a5c9cdd60ba1b6064820152608401610210565b336000818152600784016020526040808220805460ff81161560ff199091168117909155905190928392909187917f9c0d71d8ccd3ac3b8b8463f9dff1237a9e545a61f6e803ee0948ff02c7cef56691a450505050565b6102eb611ffd565b6040517ff27a5986330dc78d016d8604ee1a040d5a789fbaa2d0c27f5dfded4b616b8977908290829061031f9086906125c4565b90815260405190819003602001902080546001600160a01b03929092166001600160a01b0319909216919091179055505050565b61035b611ffd565b835183518114801561036d5750825181145b80156103795750815181145b6103ba5760405162461bcd60e51b8152602060048201526012602482015271082e4e4c2f2e640c8dedc4ee840dac2e8c6d60731b6044820152606401610210565b6000805b82811015610a935760008782815181106103da576103da6125f3565b6020026020010151905060008583815181106103f8576103f86125f3565b6020026020010151905060006104196000805160206126ef83398151915290565b6000848152602091825260408082206001600160a01b03861683526007810190935290205490915060ff1661049a5760405162461bcd60e51b815260206004820152602160248201527f55736572206e6f742070617274206f66207969656c642067656e65726174696f6044820152603760f91b6064820152608401610210565b6000816001016040516104bc906816985e5b95985d5b1d60ba1b815260090190565b908152604051908190036020018120546001600160a01b0316915060009060018401906104f6906605a61796e5a61760cc1b815260070190565b908152602001604051809103902060009054906101000a90046001600160a01b0316905060006105598c8881518110610531576105316125f3565b60200260200101518c898151811061054b5761054b6125f3565b602002602001015186612086565b90506000811315610689576040516316d5e29b60e11b815281906000906001600160a01b03851690632dabc5369061059990889086908d90600401612609565b6020604051808303816000875af11580156105b8573d6000803e3d6000fd5b505050506040513d601f19601f820116820180604052508101906105dc919061262a565b6001600160a01b038816600090815260088801602052604081208054929350839290919061060b908490612659565b90915550506001600160a01b0387166000908152600a870160205260408120805483929061063a908490612659565b9091555061064b90508888806120ef565b80876001600160a01b0316897e94f0db15b32d9d12a13c5a2c4be5153bda7550fd0cbf0abc3fc6a5d0d41d7a60405160405180910390a45050610a82565b6000811215610a825760006106a082600019612672565b90506000846001600160a01b03166377c7b8fc6040518163ffffffff1660e01b8152600401602060405180830381865afa1580156106e2573d6000803e3d6000fd5b505050506040513d601f19601f82011682018060405250810190610706919061262a565b90506000678ac7230489e800008261071f85600f6126a2565b61072991906126a2565b61073391906126b9565b604051631398fee160e31b8152600481018b90529091506000906001600160a01b03881690639cc7f70890602401602060405180830381865afa15801561077e573d6000803e3d6000fd5b505050506040513d601f19601f820116820180604052508101906107a2919061262a565b9050346107af8d84612659565b11156107f95760405162461bcd60e51b8152602060048201526019602482015278139bdd08195b9bdd59da08115512081d985b1d59481cd95b9d603a1b6044820152606401610210565b604051632af34be360e11b81526001600160a01b038881166004830152602482018c90528716906355e697c69084906044016000604051808303818588803b15801561084457600080fd5b505af1158015610858573d6000803e3d6000fd5b5050505050818c6108699190612659565b604051631398fee160e31b8152600481018c9052909c506000906001600160a01b03891690639cc7f70890602401602060405180830381865afa1580156108b4573d6000803e3d6000fd5b505050506040513d601f19601f820116820180604052508101906108d8919061262a565b905060006001600160a01b038816632dabc5368a886108f787876126db565b61090191906126db565b8f6040518463ffffffff1660e01b815260040161092093929190612609565b6020604051808303816000875af115801561093f573d6000803e3d6000fd5b505050506040513d601f19601f82011682018060405250810190610963919061262a565b604051631398fee160e31b8152600481018e90529091506000906001600160a01b038b1690639cc7f70890602401602060405180830381865afa1580156109ae573d6000803e3d6000fd5b505050506040513d601f19601f820116820180604052508101906109d2919061262a565b90506109de84826126db565b8714610a2c5760405162461bcd60e51b815260206004820152601d60248201527f46696e616c2073686172652062616c616e636520696e636f72726563740000006044820152606401610210565b818f610a3891906126db565b9e50610a4482866126db565b6040516001600160a01b038e16908f907fb661b35109646d6776b783a742f7e50d155cebc74454b6b8ab6dec5cf6f0a2e890600090a4505050505050505b8660010196505050505050506103be565b5034811015610b3d57600033610aa983346126db565b604051600081818185875af1925050503d8060008114610ae5576040519150601f19603f3d011682016040523d82523d6000602084013e610aea565b606091505b5050905080610b3b5760405162461bcd60e51b815260206004820181905260248201527f4661696c656420746f2073656e64206c6566746f76657220455448206261636b6044820152606401610210565b505b505050505050565b610b4d611ffd565b6000805b8251811015611190576000838281518110610b6e57610b6e6125f3565b602002602001015190506000610b8f6000805160206126ef83398151915290565b600083815260209190915260409020805490915060ff16610bb4575050600101610b51565b600081600101604051610bd6906816985e5b95985d5b1d60ba1b815260090190565b908152604051908190036020018120546001600160a01b031691506000906001840190610c10906605a61796e5a61760cc1b815260070190565b908152604051908190036020019020546003840154600585015460048601546001600160a01b039093169350600092610c4991906126a2565b610c5391906126b9565b604051631398fee160e31b8152600481018790529091506000906001600160a01b03851690639cc7f70890602401602060405180830381865afa158015610c9e573d6000803e3d6000fd5b505050506040513d601f19601f82011682018060405250810190610cc2919061262a565b9050818103610cdc57866001019650505050505050610b51565b600085600601805480602002602001604051908101604052809291908181526020018280548015610d3657602002820191906000526020600020905b81546001600160a01b03168152600190910190602001808311610d18575b50505050509050600080620186a08585610d5091906126db565b1015610f9557604051632af34be360e11b81526001600160a01b038881166004830152602482018b90528716906355e697c690620186a0906044016000604051808303818588803b158015610da457600080fd5b505af1158015610db8573d6000803e3d6000fd5b5050505050620186a08b610dcc9190612659565b9a50856001600160a01b0316632dabc53688878a6001600160a01b0316639cc7f7088e6040518263ffffffff1660e01b8152600401610e0d91815260200190565b602060405180830381865afa158015610e2a573d6000803e3d6000fd5b505050506040513d601f19601f82011682018060405250810190610e4e919061262a565b610e5891906126db565b8c6040518463ffffffff1660e01b8152600401610e7793929190612609565b6020604051808303816000875af1158015610e96573d6000803e3d6000fd5b505050506040513d601f19601f82011682018060405250810190610eba919061262a565b9050610ec6818c6126db565b604051631398fee160e31b8152600481018b9052909b506001600160a01b03881690639cc7f708906024015b602060405180830381865afa158015610f0f573d6000803e3d6000fd5b505050506040513d601f19601f82011682018060405250810190610f33919061262a565b8514610f815760405162461bcd60e51b815260206004820152601a60248201527f53686172657320746172676574206e6f742072656163686564210000000000006044820152606401610210565b896001019950505050505050505050610b51565b60005b8351811015611162576000848281518110610fb557610fb56125f3565b6020026020010151905060008551836001610fd09190612659565b03610ff15784610fe089896126db565b610fea91906126db565b905061103e565b60038b01546001600160a01b0383166000908152600b8d01602052604090205461101b8a8a6126db565b61102591906126a2565b61102f91906126b9565b905061103b8186612659565b94505b886001600160a01b0316632dabc5368b838f6040518463ffffffff1660e01b815260040161106e93929190612609565b6020604051808303816000875af115801561108d573d6000803e3d6000fd5b505050506040513d601f19601f820116820180604052508101906110b1919061262a565b6001600160a01b038316600090815260088d0160205260408120805492965086929091906110e0908490612659565b90915550506001600160a01b0382166000908152600a8c0160205260408120805486929061110f908490612659565b9091555061112090508c83806120ef565b83826001600160a01b03168d7fb661b35109646d6776b783a742f7e50d155cebc74454b6b8ab6dec5cf6f0a2e860405160405180910390a45050600101610f98565b50604051631398fee160e31b8152600481018a90526001600160a01b03881690639cc7f70890602401610ef2565b503481101561123a576000336111a683346126db565b604051600081818185875af1925050503d80600081146111e2576040519150601f19603f3d011682016040523d82523d6000602084013e6111e7565b606091505b50509050806112385760405162461bcd60e51b815260206004820181905260248201527f4661696c656420746f2073656e64206c6566746f76657220455448206261636b6044820152606401610210565b505b5050565b6000611248611ffd565b507f7c039906f7f8ca11e01b6987a88513563589699678f7d2a6c8447f44d69375f3805460ff19811660ff918216159081179092551690565b611289611ffd565b60008381526000805160206126ef833981519152602090815260408083207f6751f7e27cecf86d7136f5749c224248cae80a39fafb59f8f6bf12c52816307c9092529091205460ff166113145760405162461bcd60e51b8152602060048201526013602482015272119d5b9908191bd95cc81b9bdd08195e1a5cdd606a1b6044820152606401610210565b6001600160a01b03821661136a5760405162461bcd60e51b815260206004820152601860248201527f496e76616c69642070726f7669646572206164647265737300000000000000006044820152606401610210565b816001600160a01b0316816001018460405161138691906125c4565b908152604051908190036020019020546001600160a01b0316036113e45760405162461bcd60e51b815260206004820152601560248201527453616d652070726f7669646572206164647265737360581b6044820152606401610210565b8181600101846040516113f791906125c4565b90815260405190819003602001902080546001600160a01b03929092166001600160a01b031990921691909117905550505050565b60008281527f6751f7e27cecf86d7136f5749c224248cae80a39fafb59f8f6bf12c52816307c602090815260408083206001810180548351818602810186019094528084529194939091908301828280156114b057602002820191906000526020600020905b81546001600160a01b03168152600190910190602001808311611492575b505050505090506000815190506000805b8281101561150c57336001600160a01b03168482815181106114e5576114e56125f3565b60200260200101516001600160a01b031603611504576001915061150c565b6001016114c1565b508061155a5760405162461bcd60e51b815260206004820181905260248201527f5468652063616c6c6572206d7573742062652061207061727469636970616e746044820152606401610210565b610b3d8633876120ef565b61156d611ffd565b6000805b825181101561119057600083828151811061158e5761158e6125f3565b6020026020010151905060006115af6000805160206126ef83398151915290565b600083815260209190915260409020805490915060ff166115d4575050600101611571565b6000816001016040516115f6906816985e5b95985d5b1d60ba1b815260090190565b908152604051908190036020018120546001600160a01b031691506000906001840190611630906605a61796e5a61760cc1b815260070190565b908152604051908190036020019020546003840154600585015460048601546001600160a01b03909316935060009261166991906126a2565b61167391906126b9565b604051631398fee160e31b8152600481018790529091506001600160a01b03841690639cc7f70890602401602060405180830381865afa1580156116bb573d6000803e3d6000fd5b505050506040513d601f19601f820116820180604052508101906116df919061262a565b81146117475760405162461bcd60e51b815260206004820152603160248201527f63757272656e74546f74616c4465706f73697420646f6573206e6f74206d61746044820152706368206e6565646564207368617265732160781b6064820152608401610210565b6000846006018054806020026020016040519081016040528092919081815260200182805480156117a157602002820191906000526020600020905b81546001600160a01b03168152600190910190602001808311611783575b505050505090506000805b82518110156118715760008382815181106117c9576117c96125f3565b6020908102919091018101516001600160a01b038116600090815260098b018352604080822054600b8d01909452902054909250808211156118635761180f81836126db565b6118199086612659565b6001600160a01b038416600081815260098d0160205260408082208590555192975083928e917fc12f54eeeae0f5ca9f6561845a215b9d282ff63875074a39ac0679eb904bd80491a45b8360010193505050506117ac565b508060000361188c5787600101975050505050505050611571565b808660040160008282546118a09190612659565b90915550506003860154600587015460048801546118be91906126a2565b6118c891906126b9565b604051632af34be360e11b81526001600160a01b038781166004830152602482018a9052919450908516906355e697c69083906044016000604051808303818588803b15801561191757600080fd5b505af115801561192b573d6000803e3d6000fd5b5050604051631398fee160e31b8152600481018b9052600093506001600160a01b0389169250639cc7f7089150602401602060405180830381865afa158015611978573d6000803e3d6000fd5b505050506040513d601f19601f8201168201806040525081019061199c919061262a565b905080841115611cf9576000866001600160a01b03166377c7b8fc6040518163ffffffff1660e01b8152600401602060405180830381865afa1580156119e6573d6000803e3d6000fd5b505050506040513d601f19601f82011682018060405250810190611a0a919061262a565b90506000678ac7230489e8000082611a2285896126db565b611a2d90600f6126a2565b611a3791906126a2565b611a4191906126b9565b905034611a4e8d83612659565b1115611a985760405162461bcd60e51b8152602060048201526019602482015278139bdd08195b9bdd59da08115512081d985b1d59481cd95b9d603a1b6044820152606401610210565b604051632af34be360e11b81526001600160a01b038981166004830152602482018c90528816906355e697c69083906044016000604051808303818588803b158015611ae357600080fd5b505af1158015611af7573d6000803e3d6000fd5b5050505050808c611b089190612659565b604051631398fee160e31b8152600481018c9052909c506001600160a01b03891690639cc7f70890602401602060405180830381865afa158015611b50573d6000803e3d6000fd5b505050506040513d601f19601f82011682018060405250810190611b74919061262a565b925060006001600160a01b038816632dabc5368a611b928a886126db565b8e6040518463ffffffff1660e01b8152600401611bb193929190612609565b6020604051808303816000875af1158015611bd0573d6000803e3d6000fd5b505050506040513d601f19601f82011682018060405250810190611bf4919061262a565b604051631398fee160e31b8152600481018d90529091506001600160a01b038a1690639cc7f70890602401602060405180830381865afa158015611c3c573d6000803e3d6000fd5b505050506040513d601f19601f82011682018060405250810190611c60919061262a565b8714611cae5760405162461bcd60e51b815260206004820152601d60248201527f46696e616c2073686172652062616c616e636520696e636f72726563740000006044820152606401610210565b611cb8818e6126db565b9c50611cc481836126db565b60405186908d907fd061db9ba41d1cdaa449d1cc902bdabf9f54ecf0ea1e6f32695e61d70dd039aa90600090a4505050611daf565b83811115611daf576001600160a01b038516632dabc53687611d1b87856126db565b8b6040518463ffffffff1660e01b8152600401611d3a93929190612609565b6020604051808303816000875af1158015611d59573d6000803e3d6000fd5b505050506040513d601f19601f82011682018060405250810190611d7d919061262a565b50600082897fd061db9ba41d1cdaa449d1cc902bdabf9f54ecf0ea1e6f32695e61d70dd039aa60405160405180910390a45b6000805b8451811015611ec8576000858281518110611dd057611dd06125f3565b6020908102919091018101516001600160a01b038116600090815260098d018352604080822054600b8f0190945290205490925081811015611e545760405162461bcd60e51b815260206004820152601d60248201527f57697468647261772067726561746572207468616e206465706f7369740000006044820152606401610210565b8b6009016000846001600160a01b03166001600160a01b03168152602001908152602001600020548c600b016000856001600160a01b03166001600160a01b0316815260200190815260200160002054611eae91906126db565b611eb89086612659565b9450836001019350505050611db3565b5080886004015414611f1c5760405162461bcd60e51b815260206004820152601b60248201527f63757272656e74546f74616c4465706f73697420696e76616c696400000000006044820152606401610210565b60008860030154896005015483611f3391906126a2565b611f3d91906126b9565b604051631398fee160e31b8152600481018c90529091506001600160a01b03891690639cc7f70890602401602060405180830381865afa158015611f85573d6000803e3d6000fd5b505050506040513d601f19601f82011682018060405250810190611fa9919061262a565b8114611fe85760405162461bcd60e51b815260206004820152600e60248201526d14da185c995cc81a5b9d985b1a5960921b6044820152606401610210565b8a6001019a5050505050505050505050611571565b7fc8fcad8db84d3cc18b4c41d551ea0ee66dd599cde068d998e57d5e09332c131c600401546001600160a01b031633146120845760405162461bcd60e51b815260206004820152602260248201527f4c69624469616d6f6e643a204d75737420626520636f6e7472616374206f776e60448201526132b960f11b6064820152608401610210565b565b600080826003015483600501548661209e91906126a2565b6120a891906126b9565b9050838111156120c4576120bc84826126db565b9150506120e8565b838110156120e2576120d681856126db565b6120bc90600019612672565b60009150505b9392505050565b60008381526000805160206126ef833981519152602090815260408083206001600160a01b0386168452600a810190925290912054806121685760405162461bcd60e51b81526020600482015260146024820152734e6f207969656c6420746f20776974686472617760601b6044820152606401610210565b6001600160a01b038481166000908152600a8401602052604080822082905551909185169083908381818185875af1925050503d80600081146121c7576040519150601f19603f3d011682016040523d82523d6000602084013e6121cc565b606091505b50509050806121da57600080fd5b6040516001600160a01b03858116825283919087169088907fdb2460ca9a22614b8fe3f598b727569022250e691340edbbaf8ff069969155f09060200160405180910390a4505050505050565b60006020828403121561223957600080fd5b5035919050565b634e487b7160e01b600052604160045260246000fd5b604051601f8201601f1916810167ffffffffffffffff8111828210171561227f5761227f612240565b604052919050565b600082601f83011261229857600080fd5b813567ffffffffffffffff8111156122b2576122b2612240565b6122c5601f8201601f1916602001612256565b8181528460208386010111156122da57600080fd5b816020850160208301376000918101602001919091529392505050565b80356001600160a01b038116811461230e57600080fd5b919050565b6000806040838503121561232657600080fd5b823567ffffffffffffffff81111561233d57600080fd5b61234985828601612287565b925050612358602084016122f7565b90509250929050565b600067ffffffffffffffff82111561237b5761237b612240565b5060051b60200190565b600082601f83011261239657600080fd5b813560206123ab6123a683612361565b612256565b82815260059290921b840181019181810190868411156123ca57600080fd5b8286015b848110156123e557803583529183019183016123ce565b509695505050505050565b6000806000806080858703121561240657600080fd5b843567ffffffffffffffff8082111561241e57600080fd5b61242a88838901612385565b955060209150818701358181111561244157600080fd5b61244d89828a01612385565b95505060408701358181111561246257600080fd5b61246e89828a01612385565b94505060608701358181111561248357600080fd5b87019050601f8101881361249657600080fd5b80356124a46123a682612361565b81815260059190911b8201830190838101908a8311156124c357600080fd5b928401925b828410156124e8576124d9846122f7565b825292840192908401906124c8565b979a9699509497505050505050565b60006020828403121561250957600080fd5b813567ffffffffffffffff81111561252057600080fd5b61252c84828501612385565b949350505050565b60008060006060848603121561254957600080fd5b83359250602084013567ffffffffffffffff81111561256757600080fd5b61257386828701612287565b925050612582604085016122f7565b90509250925092565b6000806040838503121561259e57600080fd5b82359150612358602084016122f7565b634e487b7160e01b600052602160045260246000fd5b6000825160005b818110156125e557602081860181015185830152016125cb565b506000920191825250919050565b634e487b7160e01b600052603260045260246000fd5b6001600160a01b039390931683526020830191909152604082015260600190565b60006020828403121561263c57600080fd5b5051919050565b634e487b7160e01b600052601160045260246000fd5b8082018082111561266c5761266c612643565b92915050565b80820260008212600160ff1b8414161561268e5761268e612643565b818105831482151761266c5761266c612643565b808202811582820484141761266c5761266c612643565b6000826126d657634e487b7160e01b600052601260045260246000fd5b500490565b8181038181111561266c5761266c61264356fe29d9cba46c358ba7c1b8945751229339792c7c62e3197c240fa98916e75ffbf9a2646970667358221220ca236d8b35f00d58a00996ad2d2b2c711b4eff8c2e1d20165d0761bb6f2e871b64736f6c63430008120033",
  "devdoc": {
    "kind": "dev",
    "methods": {
      "claimAvailableYield(uint256,address)": {
        "details": "for emergency use only, in case the claimed yield is not sent to the user when withdrawing the collateral",
        "params": {
          "receiver": "The address of the user who will receive the yield",
          "termId": "The term id for which the yield is being claimed"
        }
      },
      "reimburseExtraYield(uint256[])": {
        "params": {
          "termIds": "The term ids for which the yield balance is to be restored"
        }
      },
      "rescueStuckYields(uint256[],uint256[],uint256[],address[])": {
        "params": {
          "originalShares": "The original calculated shares amounts of each bad transaction",
          "originalWithdrawals": "The original ETH withdrawal amounts of each bad transaction",
          "termIds": "The term ids for which the yield is being rescued",
          "users": "The users to be reimbursed"
        }
      },
      "restoreYieldBalance(uint256[])": {
        "params": {
          "termIds": "The term ids for which the yield balance is to be restored"
        }
      },
      "toggleOptInYG(uint256)": {
        "details": "only allowed before the term starts",
        "params": {
          "termId": "The term id for which the yield is being claimed"
        }
      },
      "updateProviderAddressOnTerms(uint256,string,address)": {
        "params": {
          "providerAddress": "The new address of the provider",
          "providerString": "The provider string for which the address is being updated",
          "termId": "The term id for which the yield is being claimed"
        }
      },
      "updateYieldProvider(string,address)": {
        "params": {
          "providerAddress": "The new address of the provider",
          "providerString": "The provider string for which the address is being updated"
        }
      }
    },
    "version": 1
  },
  "userdoc": {
    "kind": "user",
    "methods": {
      "claimAvailableYield(uint256,address)": {
        "notice": "This function allows a user to claim the current available yield"
      },
      "reimburseExtraYield(uint256[])": {
        "notice": "To be used in case of emergency, when there are more shares deposited than expected"
      },
      "rescueStuckYields(uint256[],uint256[],uint256[],address[])": {
        "notice": "To be used in case of emergency, when yield got stuck in the vaultThe position of each array is used as a set in the calculation"
      },
      "restoreYieldBalance(uint256[])": {
        "notice": "To be used in case of emergency, when the user has withdrawn too much eth from yield into the smart contract"
      },
      "toggleOptInYG(uint256)": {
        "notice": "This function allows a user to toggle their yield generation"
      },
      "toggleYieldLock()": {
        "notice": "This function allows the owner to disable the yield generation feature in case of emergency"
      },
      "updateProviderAddressOnTerms(uint256,string,address)": {
        "notice": "To be used in case of emergency, when the provider needs to change the zap or the vault"
      },
      "updateYieldProvider(string,address)": {
        "notice": "This function allows the owner to update the global variable for new yield provider"
      }
    },
    "version": 1
  },
  "storageLayout": {
    "storage": [],
    "types": null
  }
}