{
  "address": "0xa714cb28ECc47aCc139C300A8BAdCBe1E86297d3",
  "abi": [
    {
      "anonymous": false,
      "inputs": [
        {
          "indexed": true,
          "internalType": "uint256",
          "name": "termId",
          "type": "uint256"
        },
        {
          "indexed": true,
          "internalType": "address",
          "name": "user",
          "type": "address"
        },
        {
          "indexed": true,
          "internalType": "uint256",
          "name": "amount",
          "type": "uint256"
        }
      ],
      "name": "OnWithdrawnBalanceRestored",
      "type": "event"
    },
    {
      "anonymous": false,
      "inputs": [
        {
          "indexed": true,
          "internalType": "uint256",
          "name": "termId",
          "type": "uint256"
        },
        {
          "indexed": true,
          "internalType": "address",
          "name": "user",
          "type": "address"
        },
        {
          "indexed": true,
          "internalType": "bool",
          "name": "optedIn",
          "type": "bool"
        }
      ],
      "name": "OnYGOptInToggled",
      "type": "event"
    },
    {
      "anonymous": false,
      "inputs": [
        {
          "indexed": true,
          "internalType": "uint256",
          "name": "termId",
          "type": "uint256"
        },
        {
          "indexed": true,
          "internalType": "address",
          "name": "user",
          "type": "address"
        },
        {
          "indexed": false,
          "internalType": "address",
          "name": "receiver",
          "type": "address"
        },
        {
          "indexed": true,
          "internalType": "uint256",
          "name": "amount",
          "type": "uint256"
        }
      ],
      "name": "OnYieldClaimed",
      "type": "event"
    },
    {
      "anonymous": false,
      "inputs": [
        {
          "indexed": true,
          "internalType": "uint256",
          "name": "termId",
          "type": "uint256"
        },
        {
          "indexed": true,
          "internalType": "address",
          "name": "user",
          "type": "address"
        },
        {
          "indexed": true,
          "internalType": "uint256",
          "name": "amount",
          "type": "uint256"
        }
      ],
      "name": "OnYieldCompensated",
      "type": "event"
    },
    {
      "anonymous": false,
      "inputs": [
        {
          "indexed": true,
          "internalType": "uint256",
          "name": "termId",
          "type": "uint256"
        },
        {
          "indexed": true,
          "internalType": "address",
          "name": "user",
          "type": "address"
        },
        {
          "indexed": true,
          "internalType": "uint256",
          "name": "amount",
          "type": "uint256"
        }
      ],
      "name": "OnYieldReimbursed",
      "type": "event"
    },
    {
      "anonymous": false,
      "inputs": [
        {
          "indexed": true,
          "internalType": "uint256",
          "name": "termId",
          "type": "uint256"
        },
        {
          "indexed": true,
          "internalType": "uint256",
          "name": "amountRestored",
          "type": "uint256"
        },
        {
          "indexed": true,
          "internalType": "uint256",
          "name": "amountCompensated",
          "type": "uint256"
        }
      ],
      "name": "OnYieldTermUpdated",
      "type": "event"
    },
    {
      "inputs": [
        {
          "internalType": "uint256",
          "name": "termId",
          "type": "uint256"
        },
        {
          "internalType": "address",
          "name": "receiver",
          "type": "address"
        }
      ],
      "name": "claimAvailableYield",
      "outputs": [],
      "stateMutability": "nonpayable",
      "type": "function"
    },
    {
      "inputs": [
        {
          "internalType": "uint256[]",
          "name": "termIds",
          "type": "uint256[]"
        }
      ],
      "name": "reimburseExtraYield",
      "outputs": [],
      "stateMutability": "nonpayable",
      "type": "function"
    },
    {
      "inputs": [
        {
          "internalType": "uint256[]",
          "name": "termIds",
          "type": "uint256[]"
        },
        {
          "internalType": "uint256[]",
          "name": "originalWithdrawals",
          "type": "uint256[]"
        },
        {
          "internalType": "uint256[]",
          "name": "originalShares",
          "type": "uint256[]"
        },
        {
          "internalType": "address[]",
          "name": "users",
          "type": "address[]"
        }
      ],
      "name": "rescueStuckYields",
      "outputs": [],
      "stateMutability": "payable",
      "type": "function"
    },
    {
      "inputs": [
        {
          "internalType": "uint256[]",
          "name": "termIds",
          "type": "uint256[]"
        }
      ],
      "name": "restoreYieldBalance",
      "outputs": [],
      "stateMutability": "payable",
      "type": "function"
    },
    {
      "inputs": [
        {
          "internalType": "uint256",
          "name": "termId",
          "type": "uint256"
        }
      ],
      "name": "toggleOptInYG",
      "outputs": [],
      "stateMutability": "nonpayable",
      "type": "function"
    },
    {
      "inputs": [],
      "name": "toggleYieldLock",
      "outputs": [
        {
          "internalType": "bool",
          "name": "",
          "type": "bool"
        }
      ],
      "stateMutability": "nonpayable",
      "type": "function"
    },
    {
      "inputs": [
        {
          "internalType": "uint256",
          "name": "termId",
          "type": "uint256"
        },
        {
          "internalType": "string",
          "name": "providerString",
          "type": "string"
        },
        {
          "internalType": "address",
          "name": "providerAddress",
          "type": "address"
        }
      ],
      "name": "updateProviderAddressOnTerms",
      "outputs": [],
      "stateMutability": "nonpayable",
      "type": "function"
    },
    {
      "inputs": [
        {
          "internalType": "string",
          "name": "providerString",
          "type": "string"
        },
        {
          "internalType": "address",
          "name": "providerAddress",
          "type": "address"
        }
      ],
      "name": "updateYieldProvider",
      "outputs": [],
      "stateMutability": "nonpayable",
      "type": "function"
    }
  ],
  "transactionHash": "0x263e25951e42d6ddf8f5442ef0ffe49ea9d32b7120f7acb9789ddce92267d3a3",
  "args": [],
  "numDeployments": 2,
  "solcInputHash": "cc6a67fd244848db88c1ab4c8df510f4",
  "bytecode": "0x608060405234801561001057600080fd5b506124e0806100206000396000f3fe60806040526004361061007b5760003560e01c8063c8eeb5781161004e578063c8eeb578146100f5578063efbb97611461011e578063f6a40d2a1461013e578063f741e19e1461015e57600080fd5b806327ff9f351461008057806383da1d76146100a257806383de6e99146100c25780639253c073146100d5575b600080fd5b34801561008c57600080fd5b506100a061009b366004611fc3565b610171565b005b3480156100ae57600080fd5b506100a06100bd3660046120af565b6102f0565b6100a06100d036600461218c565b610360565b3480156100e157600080fd5b506100a06100f0366004612293565b610b4a565b34801561010157600080fd5b5061010a610f2d565b604051901515815260200160405180910390f35b34801561012a57600080fd5b506100a06101393660046122d0565b610f70565b34801561014a57600080fd5b506100a0610159366004612327565b61111b565b6100a061016c366004612293565b611254565b600081815260008051602061248b833981519152602090815260408083207f35fa70a6f9ae8a4d427ebe0c1be62ffd2870fecc1df41c6fda0bf5803e5628889092528220805491929091610100900460ff1660038111156101d4576101d461234a565b146102265760405162461bcd60e51b815260206004820152601c60248201527f546f6f206c61746520746f206368616e6765205947206f707420696e0000000060448201526064015b60405180910390fd5b33600090815260048201602052604090205460ff166102995760405162461bcd60e51b815260206004820152602960248201527f5061792074686520636f6c6c61746572616c207365637572697479206465706f6044820152681cda5d08199a5c9cdd60ba1b606482015260840161021d565b336000818152600784016020526040808220805460ff81161560ff199091168117909155905190928392909187917f9c0d71d8ccd3ac3b8b8463f9dff1237a9e545a61f6e803ee0948ff02c7cef56691a450505050565b6102f8611d99565b6040517ff27a5986330dc78d016d8604ee1a040d5a789fbaa2d0c27f5dfded4b616b8977908290829061032c908690612360565b90815260405190819003602001902080546001600160a01b03929092166001600160a01b0319909216919091179055505050565b83518351811480156103725750825181145b801561037e5750815181145b6103bf5760405162461bcd60e51b8152602060048201526012602482015271082e4e4c2f2e640c8dedc4ee840dac2e8c6d60731b604482015260640161021d565b6000805b82811015610a985760008782815181106103df576103df61238f565b6020026020010151905060008583815181106103fd576103fd61238f565b60200260200101519050600061041e60008051602061248b83398151915290565b6000848152602091825260408082206001600160a01b03861683526007810190935290205490915060ff1661049f5760405162461bcd60e51b815260206004820152602160248201527f55736572206e6f742070617274206f66207969656c642067656e65726174696f6044820152603760f91b606482015260840161021d565b6000816001016040516104c1906816985e5b95985d5b1d60ba1b815260090190565b908152604051908190036020018120546001600160a01b0316915060009060018401906104fb906605a61796e5a61760cc1b815260070190565b908152602001604051809103902060009054906101000a90046001600160a01b03169050600061055e8c88815181106105365761053661238f565b60200260200101518c89815181106105505761055061238f565b602002602001015186611e22565b9050600081131561068e576040516316d5e29b60e11b815281906000906001600160a01b03851690632dabc5369061059e90889086908d906004016123a5565b6020604051808303816000875af11580156105bd573d6000803e3d6000fd5b505050506040513d601f19601f820116820180604052508101906105e191906123c6565b6001600160a01b03881660009081526008880160205260408120805492935083929091906106109084906123f5565b90915550506001600160a01b0387166000908152600a870160205260408120805483929061063f9084906123f5565b909155506106509050888880611e8b565b80876001600160a01b0316897e94f0db15b32d9d12a13c5a2c4be5153bda7550fd0cbf0abc3fc6a5d0d41d7a60405160405180910390a45050610a87565b6000811215610a875760006106a58260001961240e565b90506000846001600160a01b03166377c7b8fc6040518163ffffffff1660e01b8152600401602060405180830381865afa1580156106e7573d6000803e3d6000fd5b505050506040513d601f19601f8201168201806040525081019061070b91906123c6565b90506000678ac7230489e800008261072485600f61243e565b61072e919061243e565b6107389190612455565b604051631398fee160e31b8152600481018b90529091506000906001600160a01b03881690639cc7f70890602401602060405180830381865afa158015610783573d6000803e3d6000fd5b505050506040513d601f19601f820116820180604052508101906107a791906123c6565b9050346107b48d846123f5565b11156107fe5760405162461bcd60e51b8152602060048201526019602482015278139bdd08195b9bdd59da08115512081d985b1d59481cd95b9d603a1b604482015260640161021d565b604051632af34be360e11b81526001600160a01b038881166004830152602482018c90528716906355e697c69084906044016000604051808303818588803b15801561084957600080fd5b505af115801561085d573d6000803e3d6000fd5b5050505050818c61086e91906123f5565b604051631398fee160e31b8152600481018c9052909c506000906001600160a01b03891690639cc7f70890602401602060405180830381865afa1580156108b9573d6000803e3d6000fd5b505050506040513d601f19601f820116820180604052508101906108dd91906123c6565b905060006001600160a01b038816632dabc5368a886108fc8787612477565b6109069190612477565b8f6040518463ffffffff1660e01b8152600401610925939291906123a5565b6020604051808303816000875af1158015610944573d6000803e3d6000fd5b505050506040513d601f19601f8201168201806040525081019061096891906123c6565b604051631398fee160e31b8152600481018e90529091506000906001600160a01b038b1690639cc7f70890602401602060405180830381865afa1580156109b3573d6000803e3d6000fd5b505050506040513d601f19601f820116820180604052508101906109d791906123c6565b90506109e38482612477565b8714610a315760405162461bcd60e51b815260206004820152601d60248201527f46696e616c2073686172652062616c616e636520696e636f7272656374000000604482015260640161021d565b818f610a3d9190612477565b9e50610a498286612477565b6040516001600160a01b038e16908f907fb661b35109646d6776b783a742f7e50d155cebc74454b6b8ab6dec5cf6f0a2e890600090a4505050505050505b8660010196505050505050506103c3565b5034811015610b4257600033610aae8334612477565b604051600081818185875af1925050503d8060008114610aea576040519150601f19603f3d011682016040523d82523d6000602084013e610aef565b606091505b5050905080610b405760405162461bcd60e51b815260206004820181905260248201527f4661696c656420746f2073656e64206c6566746f76657220455448206261636b604482015260640161021d565b505b505050505050565b610b52611d99565b60005b8151811015610f29576000828281518110610b7257610b7261238f565b602002602001015190506000610b9360008051602061248b83398151915290565b600083815260209190915260409020805490915060ff16610bb8575050600101610b55565b600081600101604051610bda906816985e5b95985d5b1d60ba1b815260090190565b908152604051908190036020018120546001600160a01b031691506000906001840190610c14906605a61796e5a61760cc1b815260070190565b908152604051908190036020019020546003840154600585015460048601546001600160a01b039093169350600092610c4d919061243e565b610c579190612455565b604051631398fee160e31b8152600481018790529091506000906001600160a01b03851690639cc7f70890602401602060405180830381865afa158015610ca2573d6000803e3d6000fd5b505050506040513d601f19601f82011682018060405250810190610cc691906123c6565b9050818111610ce057866001019650505050505050610b55565b600085600601805480602002602001604051908101604052809291908181526020018280548015610d3a57602002820191906000526020600020905b81546001600160a01b03168152600190910190602001808311610d1c575b505050505090506000805b8251811015610f15576000838281518110610d6257610d6261238f565b6020026020010151905060008451836001610d7d91906123f5565b03610d9e5783610d8d8888612477565b610d979190612477565b9050610deb565b60038a01546001600160a01b0383166000908152600b8c016020526040902054610dc88989612477565b610dd2919061243e565b610ddc9190612455565b9050610de881856123f5565b93505b6000886001600160a01b0316632dabc5368b848f6040518463ffffffff1660e01b8152600401610e1d939291906123a5565b6020604051808303816000875af1158015610e3c573d6000803e3d6000fd5b505050506040513d601f19601f82011682018060405250810190610e6091906123c6565b6001600160a01b038416600090815260088d016020526040812080549293508392909190610e8f9084906123f5565b90915550506001600160a01b0383166000908152600a8c01602052604081208054839290610ebe9084906123f5565b90915550610ecf90508c8480611e8b565b80836001600160a01b03168d7fb661b35109646d6776b783a742f7e50d155cebc74454b6b8ab6dec5cf6f0a2e860405160405180910390a4836001019350505050610d45565b508860010198505050505050505050610b55565b5050565b6000610f37611d99565b507f7c039906f7f8ca11e01b6987a88513563589699678f7d2a6c8447f44d69375f3805460ff19811660ff918216159081179092551690565b610f78611d99565b600083815260008051602061248b833981519152602090815260408083207f6751f7e27cecf86d7136f5749c224248cae80a39fafb59f8f6bf12c52816307c9092529091205460ff166110035760405162461bcd60e51b8152602060048201526013602482015272119d5b9908191bd95cc81b9bdd08195e1a5cdd606a1b604482015260640161021d565b6001600160a01b0382166110595760405162461bcd60e51b815260206004820152601860248201527f496e76616c69642070726f766964657220616464726573730000000000000000604482015260640161021d565b816001600160a01b031681600101846040516110759190612360565b908152604051908190036020019020546001600160a01b0316036110d35760405162461bcd60e51b815260206004820152601560248201527453616d652070726f7669646572206164647265737360581b604482015260640161021d565b8181600101846040516110e69190612360565b90815260405190819003602001902080546001600160a01b03929092166001600160a01b031990921691909117905550505050565b60008281527f6751f7e27cecf86d7136f5749c224248cae80a39fafb59f8f6bf12c52816307c6020908152604080832060018101805483518186028101860190945280845291949390919083018282801561119f57602002820191906000526020600020905b81546001600160a01b03168152600190910190602001808311611181575b505050505090506000815190506000805b828110156111fb57336001600160a01b03168482815181106111d4576111d461238f565b60200260200101516001600160a01b0316036111f357600191506111fb565b6001016111b0565b50806112495760405162461bcd60e51b815260206004820181905260248201527f5468652063616c6c6572206d7573742062652061207061727469636970616e74604482015260640161021d565b610b42863387611e8b565b61125c611d99565b6000805b8251811015611cec57600083828151811061127d5761127d61238f565b60200260200101519050600061129e60008051602061248b83398151915290565b600083815260209190915260409020805490915060ff166112c3575050600101611260565b6000816001016040516112e5906816985e5b95985d5b1d60ba1b815260090190565b908152604051908190036020018120546001600160a01b03169150600090600184019061131f906605a61796e5a61760cc1b815260070190565b908152604051908190036020019020546003840154600585015460048601546001600160a01b039093169350600092611358919061243e565b6113629190612455565b604051631398fee160e31b8152600481018790529091506001600160a01b03841690639cc7f70890602401602060405180830381865afa1580156113aa573d6000803e3d6000fd5b505050506040513d601f19601f820116820180604052508101906113ce91906123c6565b81146114365760405162461bcd60e51b815260206004820152603160248201527f63757272656e74546f74616c4465706f73697420646f6573206e6f74206d61746044820152706368206e6565646564207368617265732160781b606482015260840161021d565b60008460060180548060200260200160405190810160405280929190818152602001828054801561149057602002820191906000526020600020905b81546001600160a01b03168152600190910190602001808311611472575b505050505090506000805b82518110156115605760008382815181106114b8576114b861238f565b6020908102919091018101516001600160a01b038116600090815260098b018352604080822054600b8d0190945290205490925080821115611552576114fe8183612477565b61150890866123f5565b6001600160a01b038416600081815260098d0160205260408082208590555192975083928e917fc12f54eeeae0f5ca9f6561845a215b9d282ff63875074a39ac0679eb904bd80491a45b83600101935050505061149b565b508060000361157b5787600101975050505050505050611260565b8086600401600082825461158f91906123f5565b90915550506003860154600587015460048801546115ad919061243e565b6115b79190612455565b604051632af34be360e11b81526001600160a01b038781166004830152602482018a9052919450908516906355e697c69083906044016000604051808303818588803b15801561160657600080fd5b505af115801561161a573d6000803e3d6000fd5b5050604051631398fee160e31b8152600481018b9052600093506001600160a01b0389169250639cc7f7089150602401602060405180830381865afa158015611667573d6000803e3d6000fd5b505050506040513d601f19601f8201168201806040525081019061168b91906123c6565b9050808411156119e8576000866001600160a01b03166377c7b8fc6040518163ffffffff1660e01b8152600401602060405180830381865afa1580156116d5573d6000803e3d6000fd5b505050506040513d601f19601f820116820180604052508101906116f991906123c6565b90506000678ac7230489e80000826117118589612477565b61171c90600f61243e565b611726919061243e565b6117309190612455565b90503461173d8d836123f5565b11156117875760405162461bcd60e51b8152602060048201526019602482015278139bdd08195b9bdd59da08115512081d985b1d59481cd95b9d603a1b604482015260640161021d565b604051632af34be360e11b81526001600160a01b038981166004830152602482018c90528816906355e697c69083906044016000604051808303818588803b1580156117d257600080fd5b505af11580156117e6573d6000803e3d6000fd5b5050505050808c6117f791906123f5565b604051631398fee160e31b8152600481018c9052909c506001600160a01b03891690639cc7f70890602401602060405180830381865afa15801561183f573d6000803e3d6000fd5b505050506040513d601f19601f8201168201806040525081019061186391906123c6565b925060006001600160a01b038816632dabc5368a6118818a88612477565b8e6040518463ffffffff1660e01b81526004016118a0939291906123a5565b6020604051808303816000875af11580156118bf573d6000803e3d6000fd5b505050506040513d601f19601f820116820180604052508101906118e391906123c6565b604051631398fee160e31b8152600481018d90529091506001600160a01b038a1690639cc7f70890602401602060405180830381865afa15801561192b573d6000803e3d6000fd5b505050506040513d601f19601f8201168201806040525081019061194f91906123c6565b871461199d5760405162461bcd60e51b815260206004820152601d60248201527f46696e616c2073686172652062616c616e636520696e636f7272656374000000604482015260640161021d565b6119a7818e612477565b9c506119b38183612477565b60405186908d907fd061db9ba41d1cdaa449d1cc902bdabf9f54ecf0ea1e6f32695e61d70dd039aa90600090a4505050611a9e565b83811115611a9e576001600160a01b038516632dabc53687611a0a8785612477565b8b6040518463ffffffff1660e01b8152600401611a29939291906123a5565b6020604051808303816000875af1158015611a48573d6000803e3d6000fd5b505050506040513d601f19601f82011682018060405250810190611a6c91906123c6565b50600082897fd061db9ba41d1cdaa449d1cc902bdabf9f54ecf0ea1e6f32695e61d70dd039aa60405160405180910390a45b6000805b8451811015611bb7576000858281518110611abf57611abf61238f565b6020908102919091018101516001600160a01b038116600090815260098d018352604080822054600b8f0190945290205490925081811015611b435760405162461bcd60e51b815260206004820152601d60248201527f57697468647261772067726561746572207468616e206465706f736974000000604482015260640161021d565b8b6009016000846001600160a01b03166001600160a01b03168152602001908152602001600020548c600b016000856001600160a01b03166001600160a01b0316815260200190815260200160002054611b9d9190612477565b611ba790866123f5565b9450836001019350505050611aa2565b5080886004015414611c0b5760405162461bcd60e51b815260206004820152601b60248201527f63757272656e74546f74616c4465706f73697420696e76616c69640000000000604482015260640161021d565b60008860030154896005015483611c22919061243e565b611c2c9190612455565b604051631398fee160e31b8152600481018c90529091506001600160a01b03891690639cc7f70890602401602060405180830381865afa158015611c74573d6000803e3d6000fd5b505050506040513d601f19601f82011682018060405250810190611c9891906123c6565b8114611cd75760405162461bcd60e51b815260206004820152600e60248201526d14da185c995cc81a5b9d985b1a5960921b604482015260640161021d565b8a6001019a5050505050505050505050611260565b5034811015610f2957600033611d028334612477565b604051600081818185875af1925050503d8060008114611d3e576040519150601f19603f3d011682016040523d82523d6000602084013e611d43565b606091505b5050905080611d945760405162461bcd60e51b815260206004820181905260248201527f4661696c656420746f2073656e64206c6566746f76657220455448206261636b604482015260640161021d565b505050565b7fc8fcad8db84d3cc18b4c41d551ea0ee66dd599cde068d998e57d5e09332c131c600401546001600160a01b03163314611e205760405162461bcd60e51b815260206004820152602260248201527f4c69624469616d6f6e643a204d75737420626520636f6e7472616374206f776e60448201526132b960f11b606482015260840161021d565b565b6000808260030154836005015486611e3a919061243e565b611e449190612455565b905083811115611e6057611e588482612477565b915050611e84565b83811015611e7e57611e728185612477565b611e589060001961240e565b60009150505b9392505050565b600083815260008051602061248b833981519152602090815260408083206001600160a01b0386168452600a81019092529091205480611f045760405162461bcd60e51b81526020600482015260146024820152734e6f207969656c6420746f20776974686472617760601b604482015260640161021d565b6001600160a01b038481166000908152600a8401602052604080822082905551909185169083908381818185875af1925050503d8060008114611f63576040519150601f19603f3d011682016040523d82523d6000602084013e611f68565b606091505b5050905080611f7657600080fd5b6040516001600160a01b03858116825283919087169088907fdb2460ca9a22614b8fe3f598b727569022250e691340edbbaf8ff069969155f09060200160405180910390a4505050505050565b600060208284031215611fd557600080fd5b5035919050565b634e487b7160e01b600052604160045260246000fd5b604051601f8201601f1916810167ffffffffffffffff8111828210171561201b5761201b611fdc565b604052919050565b600082601f83011261203457600080fd5b813567ffffffffffffffff81111561204e5761204e611fdc565b612061601f8201601f1916602001611ff2565b81815284602083860101111561207657600080fd5b816020850160208301376000918101602001919091529392505050565b80356001600160a01b03811681146120aa57600080fd5b919050565b600080604083850312156120c257600080fd5b823567ffffffffffffffff8111156120d957600080fd5b6120e585828601612023565b9250506120f460208401612093565b90509250929050565b600067ffffffffffffffff82111561211757612117611fdc565b5060051b60200190565b600082601f83011261213257600080fd5b81356020612147612142836120fd565b611ff2565b82815260059290921b8401810191818101908684111561216657600080fd5b8286015b84811015612181578035835291830191830161216a565b509695505050505050565b600080600080608085870312156121a257600080fd5b843567ffffffffffffffff808211156121ba57600080fd5b6121c688838901612121565b95506020915081870135818111156121dd57600080fd5b6121e989828a01612121565b9550506040870135818111156121fe57600080fd5b61220a89828a01612121565b94505060608701358181111561221f57600080fd5b87019050601f8101881361223257600080fd5b8035612240612142826120fd565b81815260059190911b8201830190838101908a83111561225f57600080fd5b928401925b828410156122845761227584612093565b82529284019290840190612264565b979a9699509497505050505050565b6000602082840312156122a557600080fd5b813567ffffffffffffffff8111156122bc57600080fd5b6122c884828501612121565b949350505050565b6000806000606084860312156122e557600080fd5b83359250602084013567ffffffffffffffff81111561230357600080fd5b61230f86828701612023565b92505061231e60408501612093565b90509250925092565b6000806040838503121561233a57600080fd5b823591506120f460208401612093565b634e487b7160e01b600052602160045260246000fd5b6000825160005b818110156123815760208186018101518583015201612367565b506000920191825250919050565b634e487b7160e01b600052603260045260246000fd5b6001600160a01b039390931683526020830191909152604082015260600190565b6000602082840312156123d857600080fd5b5051919050565b634e487b7160e01b600052601160045260246000fd5b80820180821115612408576124086123df565b92915050565b80820260008212600160ff1b8414161561242a5761242a6123df565b8181058314821517612408576124086123df565b8082028115828204841417612408576124086123df565b60008261247257634e487b7160e01b600052601260045260246000fd5b500490565b81810381811115612408576124086123df56fe29d9cba46c358ba7c1b8945751229339792c7c62e3197c240fa98916e75ffbf9a2646970667358221220799bc622b82eee907dd55fe5609a888b2636af26b530f552943ea0be229d685b64736f6c63430008120033",
  "devdoc": {
    "kind": "dev",
    "methods": {
      "claimAvailableYield(uint256,address)": {
        "details": "for emergency use only, in case the claimed yield is not sent to the user when withdrawing the collateral",
        "params": {
          "receiver": "The address of the user who will receive the yield",
          "termId": "The term id for which the yield is being claimed"
        }
      },
      "reimburseExtraYield(uint256[])": {
        "params": {
          "termIds": "The term ids for which the yield balance is to be restored"
        }
      },
      "rescueStuckYields(uint256[],uint256[],uint256[],address[])": {
        "params": {
          "originalShares": "The original calculated shares amounts of each bad transaction",
          "originalWithdrawals": "The original ETH withdrawal amounts of each bad transaction",
          "termIds": "The term ids for which the yield is being rescued",
          "users": "The users to be reimbursed"
        }
      },
      "restoreYieldBalance(uint256[])": {
        "params": {
          "termIds": "The term ids for which the yield balance is to be restored"
        }
      },
      "toggleOptInYG(uint256)": {
        "details": "only allowed before the term starts",
        "params": {
          "termId": "The term id for which the yield is being claimed"
        }
      },
      "updateProviderAddressOnTerms(uint256,string,address)": {
        "params": {
          "providerAddress": "The new address of the provider",
          "providerString": "The provider string for which the address is being updated",
          "termId": "The term id for which the yield is being claimed"
        }
      },
      "updateYieldProvider(string,address)": {
        "params": {
          "providerAddress": "The new address of the provider",
          "providerString": "The provider string for which the address is being updated"
        }
      }
    },
    "version": 1
  },
  "userdoc": {
    "kind": "user",
    "methods": {
      "claimAvailableYield(uint256,address)": {
        "notice": "This function allows a user to claim the current available yield"
      },
      "reimburseExtraYield(uint256[])": {
        "notice": "To be used in case of emergency, when there are more shares deposited than expected"
      },
      "rescueStuckYields(uint256[],uint256[],uint256[],address[])": {
        "notice": "To be used in case of emergency, when yield got stuck in the vaultThe position of each array is used as a set in the calculation"
      },
      "restoreYieldBalance(uint256[])": {
        "notice": "To be used in case of emergency, when the user has withdrawn too much eth from yield into the smart contract"
      },
      "toggleOptInYG(uint256)": {
        "notice": "This function allows a user to toggle their yield generation"
      },
      "toggleYieldLock()": {
        "notice": "This function allows the owner to disable the yield generation feature in case of emergency"
      },
      "updateProviderAddressOnTerms(uint256,string,address)": {
        "notice": "To be used in case of emergency, when the provider needs to change the zap or the vault"
      },
      "updateYieldProvider(string,address)": {
        "notice": "This function allows the owner to update the global variable for new yield provider"
      }
    },
    "version": 1
  },
  "storageLayout": {
    "storage": [],
    "types": null
  }
}