{
  "address": "0xa714cb28ECc47aCc139C300A8BAdCBe1E86297d3",
  "abi": [
    {
      "anonymous": false,
      "inputs": [
        {
          "indexed": true,
          "internalType": "uint256",
          "name": "termId",
          "type": "uint256"
        },
        {
          "indexed": true,
          "internalType": "address",
          "name": "user",
          "type": "address"
        },
        {
          "indexed": true,
          "internalType": "uint256",
          "name": "amount",
          "type": "uint256"
        }
      ],
      "name": "OnWithdrawnBalanceRestored",
      "type": "event"
    },
    {
      "anonymous": false,
      "inputs": [
        {
          "indexed": true,
          "internalType": "uint256",
          "name": "termId",
          "type": "uint256"
        },
        {
          "indexed": true,
          "internalType": "address",
          "name": "user",
          "type": "address"
        },
        {
          "indexed": true,
          "internalType": "bool",
          "name": "optedIn",
          "type": "bool"
        }
      ],
      "name": "OnYGOptInToggled",
      "type": "event"
    },
    {
      "anonymous": false,
      "inputs": [
        {
          "indexed": true,
          "internalType": "uint256",
          "name": "termId",
          "type": "uint256"
        },
        {
          "indexed": true,
          "internalType": "address",
          "name": "user",
          "type": "address"
        },
        {
          "indexed": false,
          "internalType": "address",
          "name": "receiver",
          "type": "address"
        },
        {
          "indexed": true,
          "internalType": "uint256",
          "name": "amount",
          "type": "uint256"
        }
      ],
      "name": "OnYieldClaimed",
      "type": "event"
    },
    {
      "anonymous": false,
      "inputs": [
        {
          "indexed": true,
          "internalType": "uint256",
          "name": "termId",
          "type": "uint256"
        },
        {
          "indexed": true,
          "internalType": "address",
          "name": "user",
          "type": "address"
        },
        {
          "indexed": true,
          "internalType": "uint256",
          "name": "amount",
          "type": "uint256"
        }
      ],
      "name": "OnYieldCompensated",
      "type": "event"
    },
    {
      "anonymous": false,
      "inputs": [
        {
          "indexed": true,
          "internalType": "uint256",
          "name": "termId",
          "type": "uint256"
        },
        {
          "indexed": true,
          "internalType": "address",
          "name": "user",
          "type": "address"
        },
        {
          "indexed": true,
          "internalType": "uint256",
          "name": "amount",
          "type": "uint256"
        }
      ],
      "name": "OnYieldReimbursed",
      "type": "event"
    },
    {
      "anonymous": false,
      "inputs": [
        {
          "indexed": true,
          "internalType": "uint256",
          "name": "termId",
          "type": "uint256"
        }
      ],
      "name": "OnYieldTermUpdated",
      "type": "event"
    },
    {
      "inputs": [
        {
          "internalType": "uint256",
          "name": "termId",
          "type": "uint256"
        },
        {
          "internalType": "address",
          "name": "receiver",
          "type": "address"
        }
      ],
      "name": "claimAvailableYield",
      "outputs": [],
      "stateMutability": "nonpayable",
      "type": "function"
    },
    {
      "inputs": [
        {
          "internalType": "uint256[]",
          "name": "termIds",
          "type": "uint256[]"
        },
        {
          "internalType": "uint256[]",
          "name": "originalWithdrawals",
          "type": "uint256[]"
        },
        {
          "internalType": "uint256[]",
          "name": "originalShares",
          "type": "uint256[]"
        },
        {
          "internalType": "address[]",
          "name": "users",
          "type": "address[]"
        }
      ],
      "name": "rescueStuckYields",
      "outputs": [],
      "stateMutability": "payable",
      "type": "function"
    },
    {
      "inputs": [
        {
          "internalType": "uint256[]",
          "name": "termIds",
          "type": "uint256[]"
        }
      ],
      "name": "restoreYieldBalance",
      "outputs": [],
      "stateMutability": "payable",
      "type": "function"
    },
    {
      "inputs": [
        {
          "internalType": "uint256",
          "name": "termId",
          "type": "uint256"
        }
      ],
      "name": "toggleOptInYG",
      "outputs": [],
      "stateMutability": "nonpayable",
      "type": "function"
    },
    {
      "inputs": [],
      "name": "toggleYieldLock",
      "outputs": [
        {
          "internalType": "bool",
          "name": "",
          "type": "bool"
        }
      ],
      "stateMutability": "nonpayable",
      "type": "function"
    },
    {
      "inputs": [
        {
          "internalType": "uint256",
          "name": "termId",
          "type": "uint256"
        },
        {
          "internalType": "string",
          "name": "providerString",
          "type": "string"
        },
        {
          "internalType": "address",
          "name": "providerAddress",
          "type": "address"
        }
      ],
      "name": "updateProviderAddressOnTerms",
      "outputs": [],
      "stateMutability": "nonpayable",
      "type": "function"
    },
    {
      "inputs": [
        {
          "internalType": "string",
          "name": "providerString",
          "type": "string"
        },
        {
          "internalType": "address",
          "name": "providerAddress",
          "type": "address"
        }
      ],
      "name": "updateYieldProvider",
      "outputs": [],
      "stateMutability": "nonpayable",
      "type": "function"
    }
  ],
  "transactionHash": "0x0090ad427cd0d0b89b778ced6bfc7cea9cf4d4bdafa062505cd08bd3d3251c90",
  "args": [],
  "numDeployments": 2,
  "solcInputHash": "fdc4d3fbb449bbdcf397c1d310cd42b7",
  "bytecode": "0x608060405234801561001057600080fd5b50611d99806100206000396000f3fe6080604052600436106100705760003560e01c8063c8eeb5781161004e578063c8eeb578146100ca578063efbb9761146100f3578063f6a40d2a14610113578063f741e19e1461013357600080fd5b806327ff9f351461007557806383da1d761461009757806383de6e99146100b7575b600080fd5b34801561008157600080fd5b50610095610090366004611859565b610146565b005b3480156100a357600080fd5b506100956100b2366004611945565b6102c5565b6100956100c5366004611a22565b610335565b3480156100d657600080fd5b506100df610a68565b604051901515815260200160405180910390f35b3480156100ff57600080fd5b5061009561010e366004611b29565b610aab565b34801561011f57600080fd5b5061009561012e366004611b80565b610c56565b610095610141366004611ba3565b610d8f565b6000818152600080516020611d44833981519152602090815260408083207f35fa70a6f9ae8a4d427ebe0c1be62ffd2870fecc1df41c6fda0bf5803e5628889092528220805491929091610100900460ff1660038111156101a9576101a9611be0565b146101fb5760405162461bcd60e51b815260206004820152601c60248201527f546f6f206c61746520746f206368616e6765205947206f707420696e0000000060448201526064015b60405180910390fd5b33600090815260048201602052604090205460ff1661026e5760405162461bcd60e51b815260206004820152602960248201527f5061792074686520636f6c6c61746572616c207365637572697479206465706f6044820152681cda5d08199a5c9cdd60ba1b60648201526084016101f2565b336000818152600784016020526040808220805460ff81161560ff199091168117909155905190928392909187917f9c0d71d8ccd3ac3b8b8463f9dff1237a9e545a61f6e803ee0948ff02c7cef56691a450505050565b6102cd61153b565b6040517ff27a5986330dc78d016d8604ee1a040d5a789fbaa2d0c27f5dfded4b616b89779082908290610301908690611c1a565b90815260405190819003602001902080546001600160a01b03929092166001600160a01b0319909216919091179055505050565b83518351811480156103475750825181145b80156103535750815181145b6103945760405162461bcd60e51b8152602060048201526012602482015271082e4e4c2f2e640c8dedc4ee840dac2e8c6d60731b60448201526064016101f2565b6000805b828110156109b65760008782815181106103b4576103b4611c36565b6020026020010151905060008583815181106103d2576103d2611c36565b6020026020010151905060006103f3600080516020611d4483398151915290565b6000848152602091825260408082206001600160a01b03861683526007810190935290205490915060ff166104745760405162461bcd60e51b815260206004820152602160248201527f55736572206e6f742070617274206f66207969656c642067656e65726174696f6044820152603760f91b60648201526084016101f2565b600081600101604051610496906816985e5b95985d5b1d60ba1b815260090190565b908152604051908190036020018120546001600160a01b0316915060009060018401906104d0906605a61796e5a61760cc1b815260070190565b908152602001604051809103902060009054906101000a90046001600160a01b0316905060006105338c888151811061050b5761050b611c36565b60200260200101518c898151811061052557610525611c36565b6020026020010151866115c4565b9050600081131561066a576040516316d5e29b60e11b81526001600160a01b03848116600483015260248201839052604482018890528291600091851690632dabc536906064016020604051808303816000875af1158015610599573d6000803e3d6000fd5b505050506040513d601f19601f820116820180604052508101906105bd9190611c4c565b6001600160a01b03881660009081526008880160205260408120805492935083929091906105ec908490611c7b565b90915550506001600160a01b0387166000908152600a870160205260408120805483929061061b908490611c7b565b9091555061062c905088888061162d565b80876001600160a01b0316897e94f0db15b32d9d12a13c5a2c4be5153bda7550fd0cbf0abc3fc6a5d0d41d7a60405160405180910390a450506109a5565b60008112156109a557600061068182600019611c94565b90506000846001600160a01b03166377c7b8fc6040518163ffffffff1660e01b8152600401602060405180830381865afa1580156106c3573d6000803e3d6000fd5b505050506040513d601f19601f820116820180604052508101906106e79190611c4c565b90506000678ac7230489e800008261070085600f611cc4565b61070a9190611cc4565b6107149190611cdb565b604051631398fee160e31b8152600481018b90529091506000906001600160a01b03881690639cc7f70890602401602060405180830381865afa15801561075f573d6000803e3d6000fd5b505050506040513d601f19601f820116820180604052508101906107839190611c4c565b9050346107908d84611c7b565b11156107da5760405162461bcd60e51b8152602060048201526019602482015278139bdd08195b9bdd59da08115512081d985b1d59481cd95b9d603a1b60448201526064016101f2565b604051632af34be360e11b81526001600160a01b038881166004830152602482018c90528716906355e697c69084906044016000604051808303818588803b15801561082557600080fd5b505af1158015610839573d6000803e3d6000fd5b5050505050818c61084a9190611c7b565b604051631398fee160e31b8152600481018c9052909c506000906001600160a01b03891690639cc7f70890602401602060405180830381865afa158015610895573d6000803e3d6000fd5b505050506040513d601f19601f820116820180604052508101906108b99190611c4c565b905060006001600160a01b038816632dabc5368a886108d88787611cfd565b6108e29190611cfd565b6040516001600160e01b031960e085901b1681526001600160a01b0390921660048301526024820152604481018f90526064016020604051808303816000875af1158015610934573d6000803e3d6000fd5b505050506040513d601f19601f820116820180604052508101906109589190611c4c565b9050610964818f611cfd565b9d50838b6001600160a01b03168d7fb661b35109646d6776b783a742f7e50d155cebc74454b6b8ab6dec5cf6f0a2e860405160405180910390a45050505050505b866001019650505050505050610398565b5034811015610a60576000336109cc8334611cfd565b604051600081818185875af1925050503d8060008114610a08576040519150601f19603f3d011682016040523d82523d6000602084013e610a0d565b606091505b5050905080610a5e5760405162461bcd60e51b815260206004820181905260248201527f4661696c656420746f2073656e64206c6566746f76657220455448206261636b60448201526064016101f2565b505b505050505050565b6000610a7261153b565b507f7c039906f7f8ca11e01b6987a88513563589699678f7d2a6c8447f44d69375f3805460ff19811660ff918216159081179092551690565b610ab361153b565b6000838152600080516020611d44833981519152602090815260408083207f6751f7e27cecf86d7136f5749c224248cae80a39fafb59f8f6bf12c52816307c9092529091205460ff16610b3e5760405162461bcd60e51b8152602060048201526013602482015272119d5b9908191bd95cc81b9bdd08195e1a5cdd606a1b60448201526064016101f2565b6001600160a01b038216610b945760405162461bcd60e51b815260206004820152601860248201527f496e76616c69642070726f76696465722061646472657373000000000000000060448201526064016101f2565b816001600160a01b03168160010184604051610bb09190611c1a565b908152604051908190036020019020546001600160a01b031603610c0e5760405162461bcd60e51b815260206004820152601560248201527453616d652070726f7669646572206164647265737360581b60448201526064016101f2565b818160010184604051610c219190611c1a565b90815260405190819003602001902080546001600160a01b03929092166001600160a01b031990921691909117905550505050565b60008281527f6751f7e27cecf86d7136f5749c224248cae80a39fafb59f8f6bf12c52816307c60209081526040808320600181018054835181860281018601909452808452919493909190830182828015610cda57602002820191906000526020600020905b81546001600160a01b03168152600190910190602001808311610cbc575b505050505090506000815190506000805b82811015610d3657336001600160a01b0316848281518110610d0f57610d0f611c36565b60200260200101516001600160a01b031603610d2e5760019150610d36565b600101610ceb565b5080610d845760405162461bcd60e51b815260206004820181905260248201527f5468652063616c6c6572206d7573742062652061207061727469636970616e7460448201526064016101f2565b610a6086338761162d565b6000805b825181101561148d576000838281518110610db057610db0611c36565b602002602001015190506000610dd1600080516020611d4483398151915290565b60008381526020918252604080822081516816985e5b95985d5b1d60ba1b815260018201600982018190528351918290036029018220546605a61796e5a61760cc1b83526007830191909152835191829003602701822054600684018054808902850189019096528584529397506001600160a01b03918216969116949391929190830182828015610e8c57602002820191906000526020600020905b81546001600160a01b03168152600190910190602001808311610e6e575b505050505090506000610eb882600081518110610eab57610eab611c36565b6020026020010151611765565b610ece82600181518110610eab57610eab611c36565b610ee482600281518110610eab57610eab611c36565b610efa82600381518110610eab57610eab611c36565b60005b8251811015611009576000838281518110610f1a57610f1a611c36565b6020908102919091018101516001600160a01b038116600090815260098a018352604080822054600b8c0190945290205490925080821115610ffb57610f946040518060400160405280601881526020017f41515549494949494949494949494949494949494949494900000000000000008152506117b0565b610f9d846117f3565b610fa78183611cfd565b610fb19086611c7b565b6001600160a01b038416600081815260098c0160205260408082208590555192975083928d917fc12f54eeeae0f5ca9f6561845a215b9d282ff63875074a39ac0679eb904bd80491a45b836001019350505050610efd565b506000811161106e5760405162461bcd60e51b815260206004820152602b60248201527f7465726d496420646f6573206e6f74206861766520746f6f206d75636820776960448201526a0e8d0c8e4c2eedc408aa8960ab1b60648201526084016101f2565b808560040160008282546110829190611c7b565b9091555050600385015460058601546004870154600092916110a391611cc4565b6110ad9190611cdb565b604051632af34be360e11b81526001600160a01b038781166004830152602482018a9052919250908516906355e697c69084906044016000604051808303818588803b1580156110fc57600080fd5b505af1158015611110573d6000803e3d6000fd5b5050604051631398fee160e31b8152600481018b9052600093506001600160a01b0389169250639cc7f7089150602401602060405180830381865afa15801561115d573d6000803e3d6000fd5b505050506040513d601f19601f820116820180604052508101906111819190611c4c565b9050818111156111d35760405162461bcd60e51b815260206004820152601c60248201527f546f6f206d616e792073686172657320666f72206465706f736974210000000060448201526064016101f2565b8082111561144f576000866001600160a01b03166377c7b8fc6040518163ffffffff1660e01b8152600401602060405180830381865afa15801561121b573d6000803e3d6000fd5b505050506040513d601f19601f8201168201806040525081019061123f9190611c4c565b90506000678ac7230489e80000826112578587611cfd565b61126290600f611cc4565b61126c9190611cc4565b6112769190611cdb565b9050346112838d83611c7b565b11156112cd5760405162461bcd60e51b8152602060048201526019602482015278139bdd08195b9bdd59da08115512081d985b1d59481cd95b9d603a1b60448201526064016101f2565b604051632af34be360e11b81526001600160a01b038981166004830152602482018c90528816906355e697c69083906044016000604051808303818588803b15801561131857600080fd5b505af115801561132c573d6000803e3d6000fd5b5050505050808c61133d9190611c7b565b604051631398fee160e31b8152600481018c9052909c506001600160a01b03891690639cc7f70890602401602060405180830381865afa158015611385573d6000803e3d6000fd5b505050506040513d601f19601f820116820180604052508101906113a99190611c4c565b925060006001600160a01b038816632dabc5368a6113c78888611cfd565b6040516001600160e01b031960e085901b1681526001600160a01b0390921660048301526024820152604481018e90526064016020604051808303816000875af1158015611419573d6000803e3d6000fd5b505050506040513d601f19601f8201168201806040525081019061143d9190611c4c565b9050611449818e611cfd565b9c505050505b60405160019099019888907f8dab6229cedadb02e768ce539e22f5fcdd8f33d86329faf12a4c8cd63f22b3a490600090a25050505050505050610d93565b5034811015611537576000336114a38334611cfd565b604051600081818185875af1925050503d80600081146114df576040519150601f19603f3d011682016040523d82523d6000602084013e6114e4565b606091505b50509050806115355760405162461bcd60e51b815260206004820181905260248201527f4661696c656420746f2073656e64206c6566746f76657220455448206261636b60448201526064016101f2565b505b5050565b7fc8fcad8db84d3cc18b4c41d551ea0ee66dd599cde068d998e57d5e09332c131c600401546001600160a01b031633146115c25760405162461bcd60e51b815260206004820152602260248201527f4c69624469616d6f6e643a204d75737420626520636f6e7472616374206f776e60448201526132b960f11b60648201526084016101f2565b565b60008082600301548360050154866115dc9190611cc4565b6115e69190611cdb565b905083811115611602576115fa8482611cfd565b915050611626565b83811015611620576116148185611cfd565b6115fa90600019611c94565b60009150505b9392505050565b6000838152600080516020611d44833981519152602090815260408083206001600160a01b0386168452600a810190925290912054806116a65760405162461bcd60e51b81526020600482015260146024820152734e6f207969656c6420746f20776974686472617760601b60448201526064016101f2565b6001600160a01b038481166000908152600a8401602052604080822082905551909185169083908381818185875af1925050503d8060008114611705576040519150601f19603f3d011682016040523d82523d6000602084013e61170a565b606091505b505090508061171857600080fd5b6040516001600160a01b03858116825283919087169088907fdb2460ca9a22614b8fe3f598b727569022250e691340edbbaf8ff069969155f09060200160405180910390a4505050505050565b6040516001600160a01b03821660248201526117ad9060440160408051601f198184030181529190526020810180516001600160e01b031663161765e160e11b179052611834565b50565b6117ad816040516024016117c49190611d10565b60408051601f198184030181529190526020810180516001600160e01b031663104c13eb60e21b179052611834565b6117ad8160405160240161180991815260200190565b60408051601f198184030181529190526020810180516001600160e01b031663f82c50f160e01b1790525b6117ad8160006a636f6e736f6c652e6c6f679050600080835160208501845afa505050565b60006020828403121561186b57600080fd5b5035919050565b634e487b7160e01b600052604160045260246000fd5b604051601f8201601f1916810167ffffffffffffffff811182821017156118b1576118b1611872565b604052919050565b600082601f8301126118ca57600080fd5b813567ffffffffffffffff8111156118e4576118e4611872565b6118f7601f8201601f1916602001611888565b81815284602083860101111561190c57600080fd5b816020850160208301376000918101602001919091529392505050565b80356001600160a01b038116811461194057600080fd5b919050565b6000806040838503121561195857600080fd5b823567ffffffffffffffff81111561196f57600080fd5b61197b858286016118b9565b92505061198a60208401611929565b90509250929050565b600067ffffffffffffffff8211156119ad576119ad611872565b5060051b60200190565b600082601f8301126119c857600080fd5b813560206119dd6119d883611993565b611888565b82815260059290921b840181019181810190868411156119fc57600080fd5b8286015b84811015611a175780358352918301918301611a00565b509695505050505050565b60008060008060808587031215611a3857600080fd5b843567ffffffffffffffff80821115611a5057600080fd5b611a5c888389016119b7565b9550602091508187013581811115611a7357600080fd5b611a7f89828a016119b7565b955050604087013581811115611a9457600080fd5b611aa089828a016119b7565b945050606087013581811115611ab557600080fd5b87019050601f81018813611ac857600080fd5b8035611ad66119d882611993565b81815260059190911b8201830190838101908a831115611af557600080fd5b928401925b82841015611b1a57611b0b84611929565b82529284019290840190611afa565b979a9699509497505050505050565b600080600060608486031215611b3e57600080fd5b83359250602084013567ffffffffffffffff811115611b5c57600080fd5b611b68868287016118b9565b925050611b7760408501611929565b90509250925092565b60008060408385031215611b9357600080fd5b8235915061198a60208401611929565b600060208284031215611bb557600080fd5b813567ffffffffffffffff811115611bcc57600080fd5b611bd8848285016119b7565b949350505050565b634e487b7160e01b600052602160045260246000fd5b60005b83811015611c11578181015183820152602001611bf9565b50506000910152565b60008251611c2c818460208701611bf6565b9190910192915050565b634e487b7160e01b600052603260045260246000fd5b600060208284031215611c5e57600080fd5b5051919050565b634e487b7160e01b600052601160045260246000fd5b80820180821115611c8e57611c8e611c65565b92915050565b80820260008212600160ff1b84141615611cb057611cb0611c65565b8181058314821517611c8e57611c8e611c65565b8082028115828204841417611c8e57611c8e611c65565b600082611cf857634e487b7160e01b600052601260045260246000fd5b500490565b81810381811115611c8e57611c8e611c65565b6020815260008251806020840152611d2f816040850160208701611bf6565b601f01601f1916919091016040019291505056fe29d9cba46c358ba7c1b8945751229339792c7c62e3197c240fa98916e75ffbf9a26469706673582212208bde8774164ad1876f9bb891b951909162c23078a14e1d3459ff2b1dc9d9fe5264736f6c63430008120033",
  "devdoc": {
    "kind": "dev",
    "methods": {
      "claimAvailableYield(uint256,address)": {
        "details": "for emergency use only, in case the claimed yield is not sent to the user when withdrawing the collateral",
        "params": {
          "receiver": "The address of the user who will receive the yield",
          "termId": "The term id for which the yield is being claimed"
        }
      },
      "rescueStuckYields(uint256[],uint256[],uint256[],address[])": {
        "params": {
          "originalShares": "The original calculated shares amounts of each bad transaction",
          "originalWithdrawals": "The original ETH withdrawal amounts of each bad transaction",
          "termIds": "The term ids for which the yield is being rescued",
          "users": "The users to be reimbursed"
        }
      },
      "restoreYieldBalance(uint256[])": {
        "params": {
          "termIds": "The term ids for which the yield balance is to be restored"
        }
      },
      "toggleOptInYG(uint256)": {
        "details": "only allowed before the term starts",
        "params": {
          "termId": "The term id for which the yield is being claimed"
        }
      },
      "updateProviderAddressOnTerms(uint256,string,address)": {
        "params": {
          "providerAddress": "The new address of the provider",
          "providerString": "The provider string for which the address is being updated",
          "termId": "The term id for which the yield is being claimed"
        }
      },
      "updateYieldProvider(string,address)": {
        "params": {
          "providerAddress": "The new address of the provider",
          "providerString": "The provider string for which the address is being updated"
        }
      }
    },
    "version": 1
  },
  "userdoc": {
    "kind": "user",
    "methods": {
      "claimAvailableYield(uint256,address)": {
        "notice": "This function allows a user to claim the current available yield"
      },
      "rescueStuckYields(uint256[],uint256[],uint256[],address[])": {
        "notice": "To be used in case of emergency, when yield got stuck in the vaultThe position of each array is used as a set in the calculation"
      },
      "restoreYieldBalance(uint256[])": {
        "notice": "To be used in case of emergency, when the user has withdrawn too much eth from yield into the smart contract"
      },
      "toggleOptInYG(uint256)": {
        "notice": "This function allows a user to toggle their yield generation"
      },
      "toggleYieldLock()": {
        "notice": "This function allows the owner to disable the yield generation feature in case of emergency"
      },
      "updateProviderAddressOnTerms(uint256,string,address)": {
        "notice": "To be used in case of emergency, when the provider needs to change the zap or the vault"
      },
      "updateYieldProvider(string,address)": {
        "notice": "This function allows the owner to update the global variable for new yield provider"
      }
    },
    "version": 1
  },
  "storageLayout": {
    "storage": [],
    "types": null
  }
}