{
  "address": "0x80fCd683DC69f569cD924Ae8701c73A2c755B7Dc",
  "abi": [
    {
      "anonymous": false,
      "inputs": [
        {
          "indexed": true,
          "internalType": "uint256",
          "name": "termId",
          "type": "uint256"
        },
        {
          "indexed": true,
          "internalType": "address",
          "name": "user",
          "type": "address"
        },
        {
          "indexed": true,
          "internalType": "bool",
          "name": "optedIn",
          "type": "bool"
        }
      ],
      "name": "OnYGOptInToggled",
      "type": "event"
    },
    {
      "anonymous": false,
      "inputs": [
        {
          "indexed": true,
          "internalType": "uint256",
          "name": "termId",
          "type": "uint256"
        },
        {
          "indexed": true,
          "internalType": "address",
          "name": "user",
          "type": "address"
        },
        {
          "indexed": false,
          "internalType": "address",
          "name": "receiver",
          "type": "address"
        },
        {
          "indexed": true,
          "internalType": "uint256",
          "name": "amount",
          "type": "uint256"
        }
      ],
      "name": "OnYieldClaimed",
      "type": "event"
    },
    {
      "inputs": [
        {
          "internalType": "uint256",
          "name": "termId",
          "type": "uint256"
        },
        {
          "internalType": "address",
          "name": "receiver",
          "type": "address"
        }
      ],
      "name": "claimAvailableYield",
      "outputs": [],
      "stateMutability": "nonpayable",
      "type": "function"
    },
    {
      "inputs": [
        {
          "internalType": "uint256[]",
          "name": "termIds",
          "type": "uint256[]"
        },
        {
          "internalType": "uint256[]",
          "name": "originalWithdrawals",
          "type": "uint256[]"
        },
        {
          "internalType": "uint256[]",
          "name": "originalShares",
          "type": "uint256[]"
        },
        {
          "internalType": "address[]",
          "name": "users",
          "type": "address[]"
        }
      ],
      "name": "rescueStuckYields",
      "outputs": [],
      "stateMutability": "payable",
      "type": "function"
    },
    {
      "inputs": [
        {
          "internalType": "uint256",
          "name": "termId",
          "type": "uint256"
        }
      ],
      "name": "toggleOptInYG",
      "outputs": [],
      "stateMutability": "nonpayable",
      "type": "function"
    },
    {
      "inputs": [],
      "name": "toggleYieldLock",
      "outputs": [
        {
          "internalType": "bool",
          "name": "",
          "type": "bool"
        }
      ],
      "stateMutability": "nonpayable",
      "type": "function"
    },
    {
      "inputs": [
        {
          "internalType": "uint256",
          "name": "termId",
          "type": "uint256"
        },
        {
          "internalType": "string",
          "name": "providerString",
          "type": "string"
        },
        {
          "internalType": "address",
          "name": "providerAddress",
          "type": "address"
        }
      ],
      "name": "updateProviderAddressOnTerms",
      "outputs": [],
      "stateMutability": "nonpayable",
      "type": "function"
    },
    {
      "inputs": [
        {
          "internalType": "string",
          "name": "providerString",
          "type": "string"
        },
        {
          "internalType": "address",
          "name": "providerAddress",
          "type": "address"
        }
      ],
      "name": "updateYieldProvider",
      "outputs": [],
      "stateMutability": "nonpayable",
      "type": "function"
    }
  ],
  "transactionHash": "0x747fe30e684b6e03180f5cebbfd654b1f9841b20be3d9f70cde22fbeb8f93b14",
  "args": [],
  "numDeployments": 2,
  "solcInputHash": "4597f27d0b04e0c6f87577888d3a956e",
  "bytecode": "0x608060405234801561001057600080fd5b5061148e806100206000396000f3fe6080604052600436106100555760003560e01c806327ff9f351461005a57806383da1d761461007c57806383de6e991461009c578063c8eeb578146100af578063efbb9761146100d8578063f6a40d2a146100f8575b600080fd5b34801561006657600080fd5b5061007a610075366004610fcf565b610118565b005b34801561008857600080fd5b5061007a6100973660046110bb565b610297565b61007a6100aa366004611198565b610307565b3480156100bb57600080fd5b506100c4610a7e565b604051901515815260200160405180910390f35b3480156100e457600080fd5b5061007a6100f336600461129f565b610ac1565b34801561010457600080fd5b5061007a6101133660046112f6565b610c6c565b6000818152600080516020611439833981519152602090815260408083207f35fa70a6f9ae8a4d427ebe0c1be62ffd2870fecc1df41c6fda0bf5803e5628889092528220805491929091610100900460ff16600381111561017b5761017b611319565b146101cd5760405162461bcd60e51b815260206004820152601c60248201527f546f6f206c61746520746f206368616e6765205947206f707420696e0000000060448201526064015b60405180910390fd5b33600090815260048201602052604090205460ff166102405760405162461bcd60e51b815260206004820152602960248201527f5061792074686520636f6c6c61746572616c207365637572697479206465706f6044820152681cda5d08199a5c9cdd60ba1b60648201526084016101c4565b336000818152600784016020526040808220805460ff81161560ff199091168117909155905190928392909187917f9c0d71d8ccd3ac3b8b8463f9dff1237a9e545a61f6e803ee0948ff02c7cef56691a450505050565b61029f610da5565b6040517ff27a5986330dc78d016d8604ee1a040d5a789fbaa2d0c27f5dfded4b616b897790829082906102d390869061132f565b90815260405190819003602001902080546001600160a01b03929092166001600160a01b0319909216919091179055505050565b61030f610da5565b83518351811480156103215750825181145b801561032d5750815181145b61036e5760405162461bcd60e51b8152602060048201526012602482015271082e4e4c2f2e640c8dedc4ee840dac2e8c6d60731b60448201526064016101c4565b6000805b828110156109cc57600087828151811061038e5761038e61135e565b6020026020010151905060008583815181106103ac576103ac61135e565b6020026020010151905060006103cd60008051602061143983398151915290565b6000848152602091825260408082206001600160a01b03861683526007810190935290205490915060ff1661044e5760405162461bcd60e51b815260206004820152602160248201527f55736572206e6f742070617274206f66207969656c642067656e65726174696f6044820152603760f91b60648201526084016101c4565b600081600101604051610470906816985e5b95985d5b1d60ba1b815260090190565b908152604051908190036020018120546001600160a01b0316915060009060018401906104aa906605a61796e5a61760cc1b815260070190565b908152602001604051809103902060009054906101000a90046001600160a01b03169050600061050d8c88815181106104e5576104e561135e565b60200260200101518c89815181106104ff576104ff61135e565b602002602001015186610e2e565b9050600081131561060d576040516316d5e29b60e11b81526001600160a01b03848116600483015260248201839052604482018890528291600091851690632dabc536906064016020604051808303816000875af1158015610573573d6000803e3d6000fd5b505050506040513d601f19601f820116820180604052508101906105979190611374565b6001600160a01b03881660009081526008880160205260408120805492935083929091906105c69084906113a3565b90915550506001600160a01b0387166000908152600a87016020526040812080548392906105f59084906113a3565b909155506106069050888880610e97565b50506109bb565b60008112156109bb576000610624826000196113bc565b90506000846001600160a01b03166377c7b8fc6040518163ffffffff1660e01b8152600401602060405180830381865afa158015610666573d6000803e3d6000fd5b505050506040513d601f19601f8201168201806040525081019061068a9190611374565b90506000678ac7230489e80000826106a385600f6113ec565b6106ad91906113ec565b6106b79190611403565b604051631398fee160e31b8152600481018b90529091506000906001600160a01b03881690639cc7f70890602401602060405180830381865afa158015610702573d6000803e3d6000fd5b505050506040513d601f19601f820116820180604052508101906107269190611374565b9050346107338d846113a3565b11156107815760405162461bcd60e51b815260206004820152601960248201527f4e6f7420656e6f756768204554482076616c75652073656e740000000000000060448201526064016101c4565b8188600401600082825461079591906113a3565b9091555050604051632af34be360e11b81526001600160a01b038881166004830152602482018c90528716906355e697c69084906044016000604051808303818588803b1580156107e557600080fd5b505af11580156107f9573d6000803e3d6000fd5b5050505050818c61080a91906113a3565b604051631398fee160e31b8152600481018c9052909c506000906001600160a01b03891690639cc7f70890602401602060405180830381865afa158015610855573d6000803e3d6000fd5b505050506040513d601f19601f820116820180604052508101906108799190611374565b905060006001600160a01b038816632dabc5368a886108988787611425565b6108a29190611425565b6040516001600160e01b031960e085901b1681526001600160a01b0390921660048301526024820152604481018f90526064016020604051808303816000875af11580156108f4573d6000803e3d6000fd5b505050506040513d601f19601f820116820180604052508101906109189190611374565b604051909150600090339083908381818185875af1925050503d806000811461095d576040519150601f19603f3d011682016040523d82523d6000602084013e610962565b606091505b50509050806109b35760405162461bcd60e51b815260206004820181905260248201527f4661696c656420746f2073656e6420657874726120736861726573206261636b60448201526064016101c4565b505050505050505b866001019650505050505050610372565b5034811015610a76576000336109e28334611425565b604051600081818185875af1925050503d8060008114610a1e576040519150601f19603f3d011682016040523d82523d6000602084013e610a23565b606091505b5050905080610a745760405162461bcd60e51b815260206004820181905260248201527f4661696c656420746f2073656e64206c6566746f76657220455448206261636b60448201526064016101c4565b505b505050505050565b6000610a88610da5565b507f7c039906f7f8ca11e01b6987a88513563589699678f7d2a6c8447f44d69375f3805460ff19811660ff918216159081179092551690565b610ac9610da5565b6000838152600080516020611439833981519152602090815260408083207f6751f7e27cecf86d7136f5749c224248cae80a39fafb59f8f6bf12c52816307c9092529091205460ff16610b545760405162461bcd60e51b8152602060048201526013602482015272119d5b9908191bd95cc81b9bdd08195e1a5cdd606a1b60448201526064016101c4565b6001600160a01b038216610baa5760405162461bcd60e51b815260206004820152601860248201527f496e76616c69642070726f76696465722061646472657373000000000000000060448201526064016101c4565b816001600160a01b03168160010184604051610bc6919061132f565b908152604051908190036020019020546001600160a01b031603610c245760405162461bcd60e51b815260206004820152601560248201527453616d652070726f7669646572206164647265737360581b60448201526064016101c4565b818160010184604051610c37919061132f565b90815260405190819003602001902080546001600160a01b03929092166001600160a01b031990921691909117905550505050565b60008281527f6751f7e27cecf86d7136f5749c224248cae80a39fafb59f8f6bf12c52816307c60209081526040808320600181018054835181860281018601909452808452919493909190830182828015610cf057602002820191906000526020600020905b81546001600160a01b03168152600190910190602001808311610cd2575b505050505090506000815190506000805b82811015610d4c57336001600160a01b0316848281518110610d2557610d2561135e565b60200260200101516001600160a01b031603610d445760019150610d4c565b600101610d01565b5080610d9a5760405162461bcd60e51b815260206004820181905260248201527f5468652063616c6c6572206d7573742062652061207061727469636970616e7460448201526064016101c4565b610a76863387610e97565b7fc8fcad8db84d3cc18b4c41d551ea0ee66dd599cde068d998e57d5e09332c131c600401546001600160a01b03163314610e2c5760405162461bcd60e51b815260206004820152602260248201527f4c69624469616d6f6e643a204d75737420626520636f6e7472616374206f776e60448201526132b960f11b60648201526084016101c4565b565b6000808260030154836005015486610e4691906113ec565b610e509190611403565b905083811115610e6c57610e648482611425565b915050610e90565b83811015610e8a57610e7e8185611425565b610e64906000196113bc565b60009150505b9392505050565b6000838152600080516020611439833981519152602090815260408083206001600160a01b0386168452600a81019092529091205480610f105760405162461bcd60e51b81526020600482015260146024820152734e6f207969656c6420746f20776974686472617760601b60448201526064016101c4565b6001600160a01b038481166000908152600a8401602052604080822082905551909185169083908381818185875af1925050503d8060008114610f6f576040519150601f19603f3d011682016040523d82523d6000602084013e610f74565b606091505b5050905080610f8257600080fd5b6040516001600160a01b03858116825283919087169088907fdb2460ca9a22614b8fe3f598b727569022250e691340edbbaf8ff069969155f09060200160405180910390a4505050505050565b600060208284031215610fe157600080fd5b5035919050565b634e487b7160e01b600052604160045260246000fd5b604051601f8201601f1916810167ffffffffffffffff8111828210171561102757611027610fe8565b604052919050565b600082601f83011261104057600080fd5b813567ffffffffffffffff81111561105a5761105a610fe8565b61106d601f8201601f1916602001610ffe565b81815284602083860101111561108257600080fd5b816020850160208301376000918101602001919091529392505050565b80356001600160a01b03811681146110b657600080fd5b919050565b600080604083850312156110ce57600080fd5b823567ffffffffffffffff8111156110e557600080fd5b6110f18582860161102f565b9250506111006020840161109f565b90509250929050565b600067ffffffffffffffff82111561112357611123610fe8565b5060051b60200190565b600082601f83011261113e57600080fd5b8135602061115361114e83611109565b610ffe565b82815260059290921b8401810191818101908684111561117257600080fd5b8286015b8481101561118d5780358352918301918301611176565b509695505050505050565b600080600080608085870312156111ae57600080fd5b843567ffffffffffffffff808211156111c657600080fd5b6111d28883890161112d565b95506020915081870135818111156111e957600080fd5b6111f589828a0161112d565b95505060408701358181111561120a57600080fd5b61121689828a0161112d565b94505060608701358181111561122b57600080fd5b87019050601f8101881361123e57600080fd5b803561124c61114e82611109565b81815260059190911b8201830190838101908a83111561126b57600080fd5b928401925b82841015611290576112818461109f565b82529284019290840190611270565b979a9699509497505050505050565b6000806000606084860312156112b457600080fd5b83359250602084013567ffffffffffffffff8111156112d257600080fd5b6112de8682870161102f565b9250506112ed6040850161109f565b90509250925092565b6000806040838503121561130957600080fd5b823591506111006020840161109f565b634e487b7160e01b600052602160045260246000fd5b6000825160005b818110156113505760208186018101518583015201611336565b506000920191825250919050565b634e487b7160e01b600052603260045260246000fd5b60006020828403121561138657600080fd5b5051919050565b634e487b7160e01b600052601160045260246000fd5b808201808211156113b6576113b661138d565b92915050565b80820260008212600160ff1b841416156113d8576113d861138d565b81810583148215176113b6576113b661138d565b80820281158282048414176113b6576113b661138d565b60008261142057634e487b7160e01b600052601260045260246000fd5b500490565b818103818111156113b6576113b661138d56fe29d9cba46c358ba7c1b8945751229339792c7c62e3197c240fa98916e75ffbf9a26469706673582212207f98a163744bf3780119ed72cf1ad9699f35db9c1fa277a8f03ce3979729f29864736f6c63430008120033",
  "devdoc": {
    "kind": "dev",
    "methods": {
      "claimAvailableYield(uint256,address)": {
        "details": "for emergency use only, in case the claimed yield is not sent to the user when withdrawing the collateral",
        "params": {
          "receiver": "The address of the user who will receive the yield",
          "termId": "The term id for which the yield is being claimed"
        }
      },
      "rescueStuckYields(uint256[],uint256[],uint256[],address[])": {
        "params": {
          "originalShares": "The original calculated shares amounts of each bad transaction",
          "originalWithdrawals": "The original ETH withdrawal amounts of each bad transaction",
          "termIds": "The term ids for which the yield is being rescued",
          "users": "The users to be reimbursed"
        }
      },
      "toggleOptInYG(uint256)": {
        "details": "only allowed before the term starts",
        "params": {
          "termId": "The term id for which the yield is being claimed"
        }
      },
      "updateProviderAddressOnTerms(uint256,string,address)": {
        "params": {
          "providerAddress": "The new address of the provider",
          "providerString": "The provider string for which the address is being updated",
          "termId": "The term id for which the yield is being claimed"
        }
      },
      "updateYieldProvider(string,address)": {
        "params": {
          "providerAddress": "The new address of the provider",
          "providerString": "The provider string for which the address is being updated"
        }
      }
    },
    "version": 1
  },
  "userdoc": {
    "kind": "user",
    "methods": {
      "claimAvailableYield(uint256,address)": {
        "notice": "This function allows a user to claim the current available yield"
      },
      "rescueStuckYields(uint256[],uint256[],uint256[],address[])": {
        "notice": "To be used in case of emergency, when yield got stuck in the vaultThe position of each array is used as a set in the calculation"
      },
      "toggleOptInYG(uint256)": {
        "notice": "This function allows a user to toggle their yield generation"
      },
      "toggleYieldLock()": {
        "notice": "This function allows the owner to disable the yield generation feature in case of emergency"
      },
      "updateProviderAddressOnTerms(uint256,string,address)": {
        "notice": "To be used in case of emergency, when the provider needs to change the zap or the vault"
      },
      "updateYieldProvider(string,address)": {
        "notice": "This function allows the owner to update the global variable for new yield provider"
      }
    },
    "version": 1
  },
  "storageLayout": {
    "storage": [],
    "types": null
  }
}