{
  "address": "0x2961661DD7ffB585d1D7a2411a39b9a1752B6Fe8",
  "abi": [
    {
      "inputs": [],
      "name": "FunctionInvalidAtThisState",
      "type": "error"
    },
    {
      "anonymous": false,
      "inputs": [
        {
          "indexed": true,
          "internalType": "uint256",
          "name": "termId",
          "type": "uint256"
        },
        {
          "indexed": true,
          "internalType": "address",
          "name": "user",
          "type": "address"
        },
        {
          "indexed": true,
          "internalType": "uint256",
          "name": "amount",
          "type": "uint256"
        }
      ],
      "name": "OnCollateralLiquidated",
      "type": "event"
    },
    {
      "anonymous": false,
      "inputs": [
        {
          "indexed": true,
          "internalType": "uint256",
          "name": "termId",
          "type": "uint256"
        },
        {
          "indexed": true,
          "internalType": "enum LibCollateralStorage.CollateralStates",
          "name": "oldState",
          "type": "uint8"
        },
        {
          "indexed": true,
          "internalType": "enum LibCollateralStorage.CollateralStates",
          "name": "newState",
          "type": "uint8"
        }
      ],
      "name": "OnCollateralStateChanged",
      "type": "event"
    },
    {
      "anonymous": false,
      "inputs": [
        {
          "indexed": true,
          "internalType": "uint256",
          "name": "termId",
          "type": "uint256"
        },
        {
          "indexed": true,
          "internalType": "address",
          "name": "user",
          "type": "address"
        },
        {
          "indexed": false,
          "internalType": "address",
          "name": "receiver",
          "type": "address"
        },
        {
          "indexed": true,
          "internalType": "uint256",
          "name": "collateralAmount",
          "type": "uint256"
        }
      ],
      "name": "OnCollateralWithdrawal",
      "type": "event"
    },
    {
      "anonymous": false,
      "inputs": [
        {
          "indexed": true,
          "internalType": "uint256",
          "name": "termId",
          "type": "uint256"
        },
        {
          "indexed": true,
          "internalType": "address",
          "name": "user",
          "type": "address"
        },
        {
          "indexed": true,
          "internalType": "uint256",
          "name": "amount",
          "type": "uint256"
        }
      ],
      "name": "OnFrozenMoneyPotLiquidated",
      "type": "event"
    },
    {
      "anonymous": false,
      "inputs": [
        {
          "indexed": true,
          "internalType": "uint256",
          "name": "termId",
          "type": "uint256"
        },
        {
          "indexed": true,
          "internalType": "address",
          "name": "participant",
          "type": "address"
        },
        {
          "indexed": false,
          "internalType": "address",
          "name": "receiver",
          "type": "address"
        },
        {
          "indexed": true,
          "internalType": "uint256",
          "name": "amount",
          "type": "uint256"
        }
      ],
      "name": "OnReimbursementWithdrawn",
      "type": "event"
    },
    {
      "anonymous": false,
      "inputs": [
        {
          "indexed": true,
          "internalType": "uint256",
          "name": "termId",
          "type": "uint256"
        },
        {
          "indexed": true,
          "internalType": "address",
          "name": "user",
          "type": "address"
        },
        {
          "indexed": false,
          "internalType": "address",
          "name": "receiver",
          "type": "address"
        },
        {
          "indexed": true,
          "internalType": "uint256",
          "name": "amount",
          "type": "uint256"
        }
      ],
      "name": "OnYieldClaimed",
      "type": "event"
    },
    {
      "inputs": [
        {
          "internalType": "uint256",
          "name": "termId",
          "type": "uint256"
        }
      ],
      "name": "emptyCollateralAfterEnd",
      "outputs": [],
      "stateMutability": "nonpayable",
      "type": "function"
    },
    {
      "inputs": [
        {
          "internalType": "uint256",
          "name": "termId",
          "type": "uint256"
        },
        {
          "internalType": "address",
          "name": "user",
          "type": "address"
        }
      ],
      "name": "emptyCollateralByUser",
      "outputs": [],
      "stateMutability": "nonpayable",
      "type": "function"
    },
    {
      "inputs": [
        {
          "internalType": "uint256",
          "name": "termId",
          "type": "uint256"
        }
      ],
      "name": "releaseCollateral",
      "outputs": [],
      "stateMutability": "nonpayable",
      "type": "function"
    },
    {
      "inputs": [
        {
          "components": [
            {
              "internalType": "bool",
              "name": "initialized",
              "type": "bool"
            },
            {
              "internalType": "enum LibTermStorage.TermStates",
              "name": "state",
              "type": "uint8"
            },
            {
              "internalType": "address",
              "name": "termOwner",
              "type": "address"
            },
            {
              "internalType": "uint256",
              "name": "creationTime",
              "type": "uint256"
            },
            {
              "internalType": "uint256",
              "name": "termId",
              "type": "uint256"
            },
            {
              "internalType": "uint256",
              "name": "registrationPeriod",
              "type": "uint256"
            },
            {
              "internalType": "uint256",
              "name": "totalParticipants",
              "type": "uint256"
            },
            {
              "internalType": "uint256",
              "name": "cycleTime",
              "type": "uint256"
            },
            {
              "internalType": "uint256",
              "name": "contributionAmount",
              "type": "uint256"
            },
            {
              "internalType": "uint256",
              "name": "contributionPeriod",
              "type": "uint256"
            },
            {
              "internalType": "address",
              "name": "stableTokenAddress",
              "type": "address"
            }
          ],
          "internalType": "struct LibTermStorage.Term",
          "name": "term",
          "type": "tuple"
        },
        {
          "internalType": "address[]",
          "name": "defaulters",
          "type": "address[]"
        }
      ],
      "name": "requestContribution",
      "outputs": [
        {
          "internalType": "address[]",
          "name": "",
          "type": "address[]"
        }
      ],
      "stateMutability": "nonpayable",
      "type": "function"
    },
    {
      "inputs": [
        {
          "internalType": "uint256",
          "name": "termId",
          "type": "uint256"
        }
      ],
      "name": "withdrawCollateral",
      "outputs": [],
      "stateMutability": "nonpayable",
      "type": "function"
    },
    {
      "inputs": [
        {
          "internalType": "uint256",
          "name": "termId",
          "type": "uint256"
        },
        {
          "internalType": "address",
          "name": "receiver",
          "type": "address"
        }
      ],
      "name": "withdrawCollateralToAnotherAddress",
      "outputs": [],
      "stateMutability": "nonpayable",
      "type": "function"
    }
  ],
  "transactionHash": "0x7624cc918103a9e1d967c60b390c6f40d026bb655d7dbf02bcee23ee09902367",
  "args": [],
  "numDeployments": 18,
  "solcInputHash": "554053b294f47195b0be8c8f60c58874",
  "bytecode": "0x608060405234801561001057600080fd5b50612890806100206000396000f3fe608060405234801561001057600080fd5b50600436106100625760003560e01c80631c5a1e1c146100675780632081c1af1461007c57806339007b77146100a55780634c7a351f146100b85780636112fe2e146100cb578063c3bfb61c146100de575b600080fd5b61007a610075366004612326565b6100f1565b005b61008f61008a366004612403565b6103e6565b60405161009c91906124f1565b60405180910390f35b61007a6100b336600461253e565b610561565b61007a6100c6366004612326565b6105e0565b61007a6100d936600461253e565b6106f9565b61007a6100ec36600461253e565b610706565b6100f9610a4a565b8160026101068282610ad3565b600084815260008051602061283b833981519152602090815260408083206000805160206127db83398151915283528184207f87101b21d556417ad2b8e8f2700dbad90721d5d50a1f435f2dee0b9dc981ac8a845282852083516101608101909452805460ff8082161515865293969295929493919284019161010090910416600381111561019757610197612557565b60038111156101a8576101a8612557565b815281546001600160a01b03620100009091048116602083015260018301546040830152600280840154606084015260038401546080840152600484015460a0840152600584015460c0840152600684015460e0840152600784015461010084015260089093015416610120909101529091508160200151600381111561023157610231612557565b0361026e5760405162461bcd60e51b815260206004820152600860248201526754542d54462d313560c01b60448201526064015b60405180910390fd5b604051636b95dc3f60e11b815260048101889052600090309063d72bb87e90602401600060405180830381865afa1580156102ad573d6000803e3d6000fd5b505050506040513d6000823e601f3d908101601f191682016040526102d5919081019061256d565b5050955050505050508062ed4e006102ed91906126b6565b42116103265760405162461bcd60e51b815260206004820152600860248201526754542d43462d303360c01b6044820152606401610265565b6001600160a01b0387166000908152600585016020908152604080832080546006890190935290832080549184905583905590916103668b8b8589610b3e565b905060008161037584866126b6565b61037f91906126b6565b604051909150600090339083908381818185875af1925050503d80600081146103c4576040519150601f19603f3d011682016040523d82523d6000602084013e6103c9565b606091505b50509050806103d757600080fd5b50505050505050505050505050565b6060836080015160016103f98282610ad3565b608086018051600090815260008051602061283b83398151915260209081526040808320935183526000805160206127fb833981519152909152902030331461044157600080fd5b600080610483848b858c8c80806020026020016040519081016040528093929190818152602001838360200280828437600092019190915250610bd192505050565b915091506000806104948686611094565b9092509050811561055157825160005b818110156104d9576104d1878683815181106104c2576104c26126c9565b602002602001015186866111ba565b6001016104a4565b506104e483866126df565b945060005b8381101561054e578588600601600085848151811061050a5761050a6126c9565b60200260200101516001600160a01b03166001600160a01b03168152602001908152602001600020600082825461054191906126b6565b90915550506001016104e9565b50505b50909a9950505050505050505050565b60008181526000805160206127fb833981519152602052604090208054600490610100900460ff168181111561059957610599612557565b146105d15760405162461bcd60e51b81526020600482015260086024820152672a2a16a1a316981960c11b6044820152606401610265565b6105dc8260026112b4565b5050565b60008281526000805160206127fb8339815191526020908152604080832060018101805483518186028101860190945280845291949390919083018282801561065257602002820191906000526020600020905b81546001600160a01b03168152600190910190602001808311610634575b505050505090506000815190506000805b828110156106ae57336001600160a01b0316848281518110610687576106876126c9565b60200260200101516001600160a01b0316036106a657600191506106ae565b600101610663565b50806106e75760405162461bcd60e51b815260206004820152600860248201526754542d43462d303160c01b6044820152606401610265565b6106f18686611351565b505050505050565b6107038133611351565b50565b61070e610a4a565b80600261071b8282610ad3565b600083815260008051602061283b833981519152602090815260408083206000805160206127db83398151915283528184207f87101b21d556417ad2b8e8f2700dbad90721d5d50a1f435f2dee0b9dc981ac8a845282852083516101608101909452805460ff808216151586529396929592949391928401916101009091041660038111156107ac576107ac612557565b60038111156107bd576107bd612557565b815281546001600160a01b03620100009091048116602083015260018301546040830152600280840154606084015260038401546080840152600484015460a0840152600584015460c0840152600684015460e0840152600784015461010084015260089093015416610120909101529091508160200151600381111561084657610846612557565b0361087e5760405162461bcd60e51b815260206004820152600860248201526754542d54462d313560c01b6044820152606401610265565b604051636b95dc3f60e11b815260048101879052600090309063d72bb87e90602401600060405180830381865afa1580156108bd573d6000803e3d6000fd5b505050506040513d6000823e601f3d908101601f191682016040526108e5919081019061256d565b5050955050505050508062ed4e006108fd91906126b6565b42116109365760405162461bcd60e51b815260206004820152600860248201526754542d43462d303360c01b6044820152606401610265565b6003840154600090815b818110156109dd57600087600301828154811061095f5761095f6126c9565b6000918252602080832091909101546001600160a01b031680835260058b0182526040808420805460068e0190945290842080549185905584905590935090916109ab8e85858d610b3e565b9050806109b883856126b6565b6109c291906126b6565b6109cc90886126b6565b965084600101945050505050610940565b506109e98960036112b4565b604051600090339084908381818185875af1925050503d8060008114610a2b576040519150601f19603f3d011682016040523d82523d6000602084013e610a30565b606091505b5050905080610a3e57600080fd5b50505050505050505050565b7fc8fcad8db84d3cc18b4c41d551ea0ee66dd599cde068d998e57d5e09332c131c600401546001600160a01b03163314610ad15760405162461bcd60e51b815260206004820152602260248201527f4c69624469616d6f6e643a204d75737420626520636f6e7472616374206f776e60448201526132b960f11b6064820152608401610265565b565b600082815260008051602061283b8339815191526020526040902054610100900460ff16816003811115610b0957610b09612557565b816003811115610b1b57610b1b612557565b14610b395760405163201328a760e01b815260040160405180910390fd5b505050565b6001600160a01b038316600090815260078201602052604081205460ff1615610bc5576001600160a01b0384166000908152600983016020908152604080832054600b8601909252822054610b939190612701565b905080600003610ba65760009150610bbf565b83811115610bb15750825b610bbc8682876117e6565b91505b50610bc9565b5060005b949350505050565b600060606000835167ffffffffffffffff811115610bf157610bf1612356565b604051908082528060200260200182016040528015610c1a578160200160208202803683370190505b5090506000806000306001600160a01b031663d072f4bc8a6101000151670de0b6b3a7640000610c4a9190612714565b6040518263ffffffff1660e01b8152600401610c6891815260200190565b602060405180830381865afa158015610c85573d6000803e3d6000fd5b505050506040513d601f19601f82011682018060405250810190610ca9919061272b565b905060005b8751811015611083576040805160808101825260008082526020820181905291810182905260608101919091528960060160008a8481518110610cf357610cf36126c9565b6020908102919091018101516001600160a01b0316825281019190915260400160009081205460ff1615156060830152895160058e019082908c9086908110610d3e57610d3e6126c9565b60200260200101516001600160a01b03166001600160a01b03168152602001908152602001600020549050816060015115610f7057610d9a8c608001518b8581518110610d8d57610d8d6126c9565b6020026020010151611a8b565b15610f59578a600a0160008b8581518110610db757610db76126c9565b6020908102919091018101516001600160a01b031682528101919091526040016000205460ff1615610f4357838110610e0157600182526000602083018190526040830152610fa0565b60008b60090160008c8681518110610e1b57610e1b6126c9565b60200260200101516001600160a01b03166001600160a01b03168152602001908152602001600020541115610e60576000808352600160208401526040830152610fa0565b60808c015160405163f0d826e760e01b81526004810191909152309063f0d826e790602401602060405180830381865afa158015610ea2573d6000803e3d6000fd5b505050506040513d601f19601f82011682018060405250810190610ec6919061272b565b8d60060160008c8681518110610ede57610ede6126c9565b60200260200101516001600160a01b03166001600160a01b031681526020019081526020016000205482610f1291906126b6565b10610f2d576001808352602083015260006040830152610fa0565b6001808352602083018190526040830152610fa0565b6001808352600060208401526040830152610fa0565b600182526000602083018190526040830152610fa0565b838110610f8e57600182526000602083018190526040830152610fa0565b60008083526020830152600160408301525b610fc78d8c8e8d8781518110610fb857610fb86126c9565b60200260200101518887611bd4565b610fd190866126b6565b945081604001511561107957898381518110610fef57610fef6126c9565b6020026020010151878781518110611009576110096126c9565b60200260200101906001600160a01b031690816001600160a01b0316815250508a600401548b600b016000898981518110611046576110466126c9565b60200260200101516001600160a01b03166001600160a01b03168152602001908152602001600020819055508560010195505b5050600101610cae565b509099929850919650505050505050565b60006060600080856003018054905067ffffffffffffffff8111156110bb576110bb612356565b6040519080825280602002602001820160405280156110e4578160200160208202803683370190505b506003870154909150600090815b818110156111a95788600301818154811061110f5761110f6126c9565b60009182526020808320909101546001600160a01b031680835260068b0190915260409091205490955060ff1615801561116357506001600160a01b038516600090815260048a01602052604090205460ff165b156111a1578484848151811061117b5761117b6126c9565b6001600160a01b03909216602092830291909101909101528261119d81612744565b9350505b6001016110f2565b5090945090925050505b9250929050565b6001600160a01b038316600090815260068501602052604090205460ff166112ae576001840154600090815b8181101561123c57866001018181548110611203576112036126c9565b6000918252602090912001546001600160a01b03908116908716036112345761122d8160016126b6565b925061123c565b6001016111e6565b5060005b848110156112aa576000838152600c880160205260408120855160019290879085908110611270576112706126c9565b6020908102919091018101516001600160a01b03168252810191909152604001600020805460ff1916911515919091179055600101611240565b5050505b50505050565b600082815260008051602061283b83398151915260205260409020805461010080820460ff16918491849161ff001916908360038111156112f7576112f7612557565b021790555082600381111561130e5761130e612557565b81600381111561132057611320612557565b60405186907ffe918112a2fca8c18cc609a5d585d9fc8448267cb7b9d6c19a445fe5c0c199c890600090a450505050565b60008281526000805160206127fb8339815191526020908152604080832060008051602061283b83398151915283528184206000805160206127db83398151915284528285207f87101b21d556417ad2b8e8f2700dbad90721d5d50a1f435f2dee0b9dc981ac8a855283862084516101608101909552805460ff80821615158752949793969295939491928401916101009091041660038111156113f7576113f7612557565b600381111561140857611408612557565b815281546201000090046001600160a01b0390811660208301526001830154604080840191909152600284015460608401526003840154608084015260048085015460a0850152600585015460c0850152600685015460e0850152600785015461010085015260089094015490911661012090920191909152516377778baf60e01b815290810188905233602482015290915060009030906377778baf90604401602060405180830381865afa1580156114c6573d6000803e3d6000fd5b505050506040513d601f19601f820116820180604052508101906114ea919061272b565b9050600081116115275760405162461bcd60e51b815260206004820152600860248201526715150b50d18b4c0d60c21b6044820152606401610265565b33600090815260158601602052604081205460ff1660028654610100900460ff16600381111561155957611559612557565b14806115625750805b156116765733600090815260058701602052604081205560028460200151600381111561159157611591612557565b146115a4576115a289338588610b3e565b505b60028654610100900460ff1660038111156115c1576115c1612557565b036115dc5785600201600081546115d79061275d565b909155505b6040516001600160a01b038916908490600081818185875af1925050503d8060008114611625576040519150601f19603f3d011682016040523d82523d6000602084013e61162a565b606091505b50506040516001600160a01b038a168152909250839033908b907f696258e73a905f06a50d1acab2d3cf608c8704658f737fce596b7f8dc97fdec99060200160405180910390a4611762565b60018654610100900460ff16600381111561169357611693612557565b0361176257336000908152600587016020526040812080548592906116b9908490612701565b909155506116cb905089338588610b3e565b506040516001600160a01b038916908490600081818185875af1925050503d8060008114611715576040519150601f19603f3d011682016040523d82523d6000602084013e61171a565b606091505b50506040516001600160a01b038a168152909250839033908b907f696258e73a905f06a50d1acab2d3cf608c8704658f737fce596b7f8dc97fdec99060200160405180910390a45b8161179a5760405162461bcd60e51b815260206004820152600860248201526754542d43462d303560c01b6044820152606401610265565b33600090815260078601602052604090205460ff1680156117cb5750336000908152600a8601602052604090205415155b156117db576117db89338a6121ad565b505050505050505050565b60008381526000805160206127db83398151915260205260408120600581015460038201548391611819918791906122da565b6001600160a01b03851660009081526009840160205260408120805492935087929091906118489084906126b6565b92505081905550848260040160008282546118639190612701565b9091555050604080516605a61796e5a61760cc1b815260018401600782018190529151908190036027018120546816985e5b95985d5b1d60ba1b82526001600160a01b03169160009160090190815260405190819003602001812054631398fee160e31b82526001600160a01b031691506000908290639cc7f708906118f1908c9060040190815260200190565b602060405180830381865afa15801561190e573d6000803e3d6000fd5b505050506040513d601f19601f82011682018060405250810190611932919061272b565b905080841115611958576127106119498286612701565b1015611953578093505b61196f565b6127106119658583612701565b101561196f578093505b6040516316d5e29b60e11b81526001600160a01b03838116600483015260248201869052604482018b905260009190851690632dabc536906064016020604051808303816000875af11580156119c9573d6000803e3d6000fd5b505050506040513d601f19601f820116820180604052508101906119ed919061272b565b905088811015611a065760009650505050505050611a84565b6000611a128a83612701565b6001600160a01b038a166000908152600889016020526040812080549293508392909190611a419084906126b6565b90915550506001600160a01b0389166000908152600a8801602052604081208054839290611a709084906126b6565b90915550909750611a849650505050505050565b9392505050565b600082815260008051602061283b833981519152602090815260408083206001600160a01b0385168452600581019092528220548290611ae78660009081526000805160206127fb833981519152602052604090205460ff1690565b611b665760405163bb91b76d60e01b81526001600160a01b038616600482015260248101879052309063bb91b76d9060440160a060405180830381865afa158015611b36573d6000803e3d6000fd5b505050506040513d601f19601f82011682018060405250810190611b5a9190612774565b9550611bc99350505050565b60405163f0d826e760e01b815260048101879052309063f0d826e790602401602060405180830381865afa158015611ba2573d6000803e3d6000fd5b505050506040513d601f19601f82011682018060405250810190611bc6919061272b565b91505b109150505b92915050565b60808401805160009081526000805160206127db83398151915260205260408082209251905163d8f8e99160e01b815260048101919091529091908290309063d8f8e99190602401602060405180830381865afa158015611c39573d6000803e3d6000fd5b505050506040513d601f19601f82011682018060405250810190611c5d91906127bd565b84519091508015611c7057508360200151155b15611de357836040015115611d3857836060015115611d11576001600160a01b038616600090815260058a0160205260409020546080880151611cb590888386610b3e565b50611cc081856126b6565b6001600160a01b038816600081815260058d01602052604080822082905560808c01519051939750849390917f10f8476f9a23ac06c638b35201072d11e362a5abe0247195ce64284bbe94ce9a91a4505b6001600160a01b038616600090815260048a0160205260409020805460ff19169055611de3565b611d488760800151878785610b3e565b506001600160a01b038616600090815260058a01602052604081208054879290611d73908490612701565b90915550506001600160a01b038116600090815260068a01602052604081208054879290611da29084906126b6565b9091555050608087015160405186916001600160a01b038916917f10f8476f9a23ac06c638b35201072d11e362a5abe0247195ce64284bbe94ce9a90600090a45b83602001518015611df357508351155b15611eab57610100870151611e0b90620f4240612714565b6001600160a01b038716600090815260098a01602052604081208054909190611e35908490612701565b9091555050610100870151611e4d90620f4240612714565b6001600160a01b038216600090815260098a01602052604081208054909190611e779084906126b6565b909155505061010087015160808801516040516001600160a01b038916919060008051602061281b83398151915290600090a45b83518015611eba575083602001515b156121a1576001600160a01b038616600090815260058a01602090815260408083205460068d019092528220546101008a015191929091309063d072f4bc90611f0b90670de0b6b3a7640000612714565b6040518263ffffffff1660e01b8152600401611f2991815260200190565b602060405180830381865afa158015611f46573d6000803e3d6000fd5b505050506040513d601f19601f82011682018060405250810190611f6a919061272b565b90508215611fbf57611f828a608001518a8588610b3e565b5060808a015160405184916001600160a01b038c16917f10f8476f9a23ac06c638b35201072d11e362a5abe0247195ce64284bbe94ce9a90600090a45b86604001511561206857611fd382846126b6565b611fdd90876126b6565b955060008c60050160008b6001600160a01b03166001600160a01b031681526020019081526020016000208190555060008c60060160008b6001600160a01b03166001600160a01b031681526020019081526020016000208190555081896001600160a01b03168b6080015160008051602061281b83398151915260405160405180910390a461219d565b821561211457600061207a8483612701565b905060008d60050160008c6001600160a01b03166001600160a01b0316815260200190815260200160002081905550808d60060160008c6001600160a01b03166001600160a01b0316815260200190815260200160002060008282546120e09190612701565b909155505060808b015160405184916001600160a01b038d169160008051602061281b83398151915290600090a45061216d565b6001600160a01b038916600090815260068d0160205260408120805483929061213e908490612701565b909155505060808a015160405182916001600160a01b038c169160008051602061281b83398151915290600090a45b6001600160a01b038416600090815260068d016020526040812080548a92906121979084906126b6565b90915550505b5050505b50509695505050505050565b60008381526000805160206127db833981519152602090815260408083206001600160a01b0386168452600a8101909252909120548061221b5760405162461bcd60e51b815260206004820152600960248201526854542d4c59472d303160b81b6044820152606401610265565b6001600160a01b038481166000908152600a8401602052604080822082905551909185169083908381818185875af1925050503d806000811461227a576040519150601f19603f3d011682016040523d82523d6000602084013e61227f565b606091505b505090508061228d57600080fd5b6040516001600160a01b03858116825283919087169088907fdb2460ca9a22614b8fe3f598b727569022250e691340edbbaf8ff069969155f09060200160405180910390a4505050505050565b6000816000036122ec57506000611a84565b816122f78486612714565b610bc991906126df565b6001600160a01b038116811461070357600080fd5b803561232181612301565b919050565b6000806040838503121561233957600080fd5b82359150602083013561234b81612301565b809150509250929050565b634e487b7160e01b600052604160045260246000fd5b604051610160810167ffffffffffffffff8111828210171561239057612390612356565b60405290565b801515811461070357600080fd5b803561232181612396565b80356004811061232157600080fd5b60008083601f8401126123d057600080fd5b50813567ffffffffffffffff8111156123e857600080fd5b6020830191508360208260051b85010111156111b357600080fd5b600080600083850361018081121561241a57600080fd5b6101608082121561242a57600080fd5b61243261236c565b915061243d866123a4565b825261244b602087016123af565b602083015261245c60408701612316565b6040830152606086013560608301526080860135608083015260a086013560a083015260c086013560c083015260e086013560e08301526101008087013581840152506101208087013581840152506101406124b9818801612316565b9083015290935084013567ffffffffffffffff8111156124d857600080fd5b6124e4868287016123be565b9497909650939450505050565b6020808252825182820181905260009190848201906040850190845b818110156125325783516001600160a01b03168352928401929184019160010161250d565b50909695505050505050565b60006020828403121561255057600080fd5b5035919050565b634e487b7160e01b600052602160045260246000fd5b600080600080600080600080610100898b03121561258a57600080fd5b885161259581612396565b809850506020808a0151600581106125ac57600080fd5b60408b01519098506125bd81612301565b60608b015190975067ffffffffffffffff808211156125db57600080fd5b818c0191508c601f8301126125ef57600080fd5b81518181111561260157612601612356565b8060051b604051601f19603f8301168101818110858211171561262657612626612356565b60405291825284820192508381018501918f83111561264457600080fd5b938501935b8285101561266e578451915061265e82612301565b8184529385019392850192612649565b809a505050505050506080890151935060a0890151925060c0890151915060e089015190509295985092959890939650565b634e487b7160e01b600052601160045260246000fd5b80820180821115611bce57611bce6126a0565b634e487b7160e01b600052603260045260246000fd5b6000826126fc57634e487b7160e01b600052601260045260246000fd5b500490565b81810381811115611bce57611bce6126a0565b8082028115828204841417611bce57611bce6126a0565b60006020828403121561273d57600080fd5b5051919050565b600060018201612756576127566126a0565b5060010190565b60008161276c5761276c6126a0565b506000190190565b600080600080600060a0868803121561278c57600080fd5b855161279781612396565b602087015160408801516060890151608090990151929a91995097965090945092505050565b6000602082840312156127cf57600080fd5b8151611a848161230156fe29d9cba46c358ba7c1b8945751229339792c7c62e3197c240fa98916e75ffbf96751f7e27cecf86d7136f5749c224248cae80a39fafb59f8f6bf12c52816307c9ecbf86544b133eb80eba635946daf018f997778387601f4c8d43c851b2ec07435fa70a6f9ae8a4d427ebe0c1be62ffd2870fecc1df41c6fda0bf5803e562888a2646970667358221220dd1cb15294bb8475856ed26f0ef994bc0df535d1b61ac0f740b19c02a0f6feb864736f6c63430008120033",
  "devdoc": {
    "author": "Aisha El Allam",
    "details": "v3.0 (Diamond)",
    "kind": "dev",
    "methods": {
      "emptyCollateralAfterEnd(uint256)": {
        "details": "Revert if the collateral is not at releasing collateralRevert if the caller is not the contract ownerRevert if the time is not met",
        "params": {
          "termId": "The term id"
        }
      },
      "emptyCollateralByUser(uint256,address)": {
        "details": "Revert if the collateral is not at releasing collateralRevert if the caller is not the contract ownerRevert if the time is not met",
        "params": {
          "termId": "The term id",
          "user": "The user to empty the collateral"
        }
      },
      "releaseCollateral(uint256)": {
        "details": "Does not withdraw anything, just set the state for users to withdrawOnly succeeds when fund is closed or term is expired",
        "params": {
          "termId": "term id"
        }
      },
      "requestContribution((bool,uint8,address,uint256,uint256,uint256,uint256,uint256,uint256,uint256,address),address[])": {
        "details": "Check EnumerableMap (openzeppelin) for arrays that are being accessed from Fund contractRevert if the caller is not the Diamond proxy",
        "params": {
          "defaulters": "Addressess of all defaulters of the current cycle",
          "term": "Term object"
        },
        "returns": {
          "_0": "expellants array of addresses that were expelled"
        }
      },
      "withdrawCollateral(uint256)": {
        "details": "This follows the pull-over-push pattern.",
        "params": {
          "termId": "term id"
        }
      },
      "withdrawCollateralToAnotherAddress(uint256,address)": {
        "details": "This follows the pull-over-push pattern.Revert if the caller is not a participant",
        "params": {
          "receiver": "receiver address",
          "termId": "term id"
        }
      }
    },
    "title": "Takaturn Collateral Facet",
    "version": 1
  },
  "userdoc": {
    "kind": "user",
    "methods": {
      "emptyCollateralAfterEnd(uint256)": {
        "notice": "allow the owner to empty the Collateral after 180 days"
      },
      "emptyCollateralByUser(uint256,address)": {
        "notice": "allow the owner to empty the Collateral for any user due to emergency issues"
      },
      "releaseCollateral(uint256)": {
        "notice": "Allows to withdraw all collateral from the at the term's end"
      },
      "requestContribution((bool,uint8,address,uint256,uint256,uint256,uint256,uint256,uint256,uint256,address),address[])": {
        "notice": "Called from Fund facet when someone defaults"
      },
      "withdrawCollateral(uint256)": {
        "notice": "Called by each member after during or at the end of the term to withraw collateral"
      },
      "withdrawCollateralToAnotherAddress(uint256,address)": {
        "notice": "Called by each member after during or at the end of the term to withraw collateral to a different address than the caller"
      }
    },
    "notice": "This is used to operate the Takaturn collateral",
    "version": 1
  },
  "storageLayout": {
    "storage": [],
    "types": null
  }
}