{
  "address": "0xC893487eecf38cb537297df55aA42ad994e0D936",
  "abi": [
    {
      "inputs": [
        {
          "internalType": "address",
          "name": "_aggregatorAddressEthUsd",
          "type": "address"
        },
        {
          "internalType": "address",
          "name": "_aggregatorAddressUsdUsdc",
          "type": "address"
        },
        {
          "internalType": "address",
          "name": "_zapAddress",
          "type": "address"
        },
        {
          "internalType": "address",
          "name": "_vaultAddress",
          "type": "address"
        },
        {
          "internalType": "bool",
          "name": "_yieldLock",
          "type": "bool"
        }
      ],
      "name": "init",
      "outputs": [],
      "stateMutability": "nonpayable",
      "type": "function"
    }
  ],
  "transactionHash": "0x79e42ce1bee4cbfcb48bbc1f88b681ea2dfbce444253e09e2c898bfa1b6c2011",
  "args": [],
  "numDeployments": 5,
  "solcInputHash": "70fa51dc678758a2f3df34746017ca3d",
  "bytecode": "0x608060405234801561001057600080fd5b506102e0806100206000396000f3fe608060405234801561001057600080fd5b506004361061002b5760003560e01c80639ff6ec0a14610030575b600080fd5b61004361003e36600461023c565b610045565b005b61004d610193565b60408051661155120bd554d160ca1b81527f138fa7b895cc6132bd44317f3510a9c38821e93ca223f9fdc532527c01963ec460078083018290528351928390036027908101842080546001600160a01b038c81166001600160a01b031992831617909255671554d110cbd554d160c21b865260088601859052865195869003602801862080548c84169083161790556605a61796e5a61760cc1b86527ff27a5986330dc78d016d8604ee1a040d5a789fbaa2d0c27f5dfded4b616b8977938601849052865195869003909201852080548a83169084161790556816985e5b95985d5b1d60ba1b8552600985018390529451938490036029019093208054948716949093169390931790915590827f7c039906f7f8ca11e01b6987a88513563589699678f7d2a6c8447f44d69375f3805460ff191691151591909117905550505050505050565b7fc8fcad8db84d3cc18b4c41d551ea0ee66dd599cde068d998e57d5e09332c131c600401546001600160a01b0316331461021e5760405162461bcd60e51b815260206004820152602260248201527f4c69624469616d6f6e643a204d75737420626520636f6e7472616374206f776e60448201526132b960f11b606482015260840160405180910390fd5b565b80356001600160a01b038116811461023757600080fd5b919050565b600080600080600060a0868803121561025457600080fd5b61025d86610220565b945061026b60208701610220565b935061027960408701610220565b925061028760608701610220565b91506080860135801515811461029c57600080fd5b80915050929550929590935056fea2646970667358221220e9acb86f3cac87b0ed45dc9957745eec07dc7abbafca4b7ca243daaa358d826364736f6c63430008120033",
  "devdoc": {
    "kind": "dev",
    "methods": {
      "init(address,address,address,address,bool)": {
        "params": {
          "_aggregatorAddressEthUsd": "Chainlink aggregator address for ETH/USD",
          "_aggregatorAddressUsdUsdc": "Chainlink aggregator address for USDC/USD",
          "_vaultAddress": "Zaynfi Vault address",
          "_yieldLock": "Yield lock",
          "_zapAddress": "Zaynfi Zap address"
        }
      }
    },
    "version": 1
  },
  "userdoc": {
    "kind": "user",
    "methods": {
      "init(address,address,address,address,bool)": {
        "notice": "Initialize the contract"
      }
    },
    "version": 1
  },
  "storageLayout": {
    "storage": [],
    "types": null
  }
}