{
  "address": "0x7c91e00295f56641876Afc0de52874325FF93283",
  "abi": [
    {
      "inputs": [
        {
          "internalType": "uint256",
          "name": "available",
          "type": "uint256"
        },
        {
          "internalType": "uint256",
          "name": "required",
          "type": "uint256"
        }
      ],
      "name": "InsufficientBalance",
      "type": "error"
    },
    {
      "anonymous": false,
      "inputs": [
        {
          "indexed": true,
          "internalType": "uint256",
          "name": "termId",
          "type": "uint256"
        },
        {
          "indexed": true,
          "internalType": "address",
          "name": "participant",
          "type": "address"
        },
        {
          "indexed": true,
          "internalType": "bool",
          "name": "enabled",
          "type": "bool"
        }
      ],
      "name": "OnAutoPayToggled",
      "type": "event"
    },
    {
      "anonymous": false,
      "inputs": [
        {
          "indexed": true,
          "internalType": "uint256",
          "name": "termId",
          "type": "uint256"
        },
        {
          "indexed": true,
          "internalType": "address",
          "name": "beneficiary",
          "type": "address"
        }
      ],
      "name": "OnBeneficiaryAwarded",
      "type": "event"
    },
    {
      "anonymous": false,
      "inputs": [
        {
          "indexed": true,
          "internalType": "uint256",
          "name": "termId",
          "type": "uint256"
        },
        {
          "indexed": true,
          "internalType": "uint256",
          "name": "currentCycle",
          "type": "uint256"
        },
        {
          "indexed": true,
          "internalType": "address",
          "name": "expellant",
          "type": "address"
        }
      ],
      "name": "OnDefaulterExpelled",
      "type": "event"
    },
    {
      "anonymous": false,
      "inputs": [
        {
          "indexed": true,
          "internalType": "uint256",
          "name": "termId",
          "type": "uint256"
        },
        {
          "indexed": true,
          "internalType": "uint256",
          "name": "currentCycle",
          "type": "uint256"
        },
        {
          "indexed": true,
          "internalType": "enum LibFundStorage.FundStates",
          "name": "newState",
          "type": "uint8"
        }
      ],
      "name": "OnFundStateChanged",
      "type": "event"
    },
    {
      "anonymous": false,
      "inputs": [
        {
          "indexed": true,
          "internalType": "uint256",
          "name": "termId",
          "type": "uint256"
        },
        {
          "indexed": true,
          "internalType": "address",
          "name": "participant",
          "type": "address"
        },
        {
          "indexed": false,
          "internalType": "address",
          "name": "receiver",
          "type": "address"
        },
        {
          "indexed": true,
          "internalType": "uint256",
          "name": "amount",
          "type": "uint256"
        }
      ],
      "name": "OnFundWithdrawn",
      "type": "event"
    },
    {
      "anonymous": false,
      "inputs": [
        {
          "indexed": true,
          "internalType": "uint256",
          "name": "termId",
          "type": "uint256"
        },
        {
          "indexed": true,
          "internalType": "address",
          "name": "payer",
          "type": "address"
        },
        {
          "indexed": true,
          "internalType": "uint256",
          "name": "currentCycle",
          "type": "uint256"
        }
      ],
      "name": "OnPaidContribution",
      "type": "event"
    },
    {
      "anonymous": false,
      "inputs": [
        {
          "indexed": true,
          "internalType": "uint256",
          "name": "termId",
          "type": "uint256"
        },
        {
          "indexed": true,
          "internalType": "uint256",
          "name": "currentCycle",
          "type": "uint256"
        },
        {
          "indexed": true,
          "internalType": "address",
          "name": "defaulter",
          "type": "address"
        }
      ],
      "name": "OnParticipantDefaulted",
      "type": "event"
    },
    {
      "inputs": [
        {
          "internalType": "uint256",
          "name": "termId",
          "type": "uint256"
        }
      ],
      "name": "closeFundingPeriod",
      "outputs": [],
      "stateMutability": "nonpayable",
      "type": "function"
    },
    {
      "inputs": [
        {
          "internalType": "uint256",
          "name": "termId",
          "type": "uint256"
        }
      ],
      "name": "emptyFundAfterEnd",
      "outputs": [],
      "stateMutability": "nonpayable",
      "type": "function"
    },
    {
      "inputs": [
        {
          "internalType": "uint256",
          "name": "termId",
          "type": "uint256"
        }
      ],
      "name": "payContribution",
      "outputs": [],
      "stateMutability": "nonpayable",
      "type": "function"
    },
    {
      "inputs": [
        {
          "internalType": "uint256",
          "name": "termId",
          "type": "uint256"
        },
        {
          "internalType": "address",
          "name": "participant",
          "type": "address"
        }
      ],
      "name": "payContributionOnBehalfOf",
      "outputs": [],
      "stateMutability": "nonpayable",
      "type": "function"
    },
    {
      "inputs": [
        {
          "internalType": "uint256",
          "name": "termId",
          "type": "uint256"
        }
      ],
      "name": "startNewCycle",
      "outputs": [],
      "stateMutability": "nonpayable",
      "type": "function"
    },
    {
      "inputs": [
        {
          "internalType": "uint256",
          "name": "termId",
          "type": "uint256"
        }
      ],
      "name": "toggleAutoPay",
      "outputs": [],
      "stateMutability": "nonpayable",
      "type": "function"
    },
    {
      "inputs": [
        {
          "internalType": "uint256",
          "name": "termId",
          "type": "uint256"
        }
      ],
      "name": "withdrawFund",
      "outputs": [],
      "stateMutability": "nonpayable",
      "type": "function"
    },
    {
      "inputs": [
        {
          "internalType": "uint256",
          "name": "termId",
          "type": "uint256"
        },
        {
          "internalType": "address",
          "name": "receiver",
          "type": "address"
        }
      ],
      "name": "withdrawFundOnAnotherWallet",
      "outputs": [],
      "stateMutability": "nonpayable",
      "type": "function"
    }
  ],
  "transactionHash": "0xd4227d413e2a58dd4884d73b59cf78fd68bd3ea8e783a4f2c2f42d9fe6a7ee3f",
  "args": [],
  "numDeployments": 9,
  "solcInputHash": "a70e704facf264ce00f532333adc8e5a",
  "bytecode": "0x608060405234801561001057600080fd5b50612b5a806100206000396000f3fe608060405234801561001057600080fd5b50600436106100885760003560e01c80636fee6ee81161005b5780636fee6ee8146100db5780637be2ecea146100ee5780638443162914610101578063ea28b9bb1461011457600080fd5b80630cee17251461008d5780632009844b146100a25780634b5c9c80146100b557806358733dec146100c8575b600080fd5b6100a061009b366004612705565b610127565b005b6100a06100b0366004612705565b610134565b6100a06100c3366004612705565b61016e565b6100a06100d6366004612705565b6103cd565b6100a06100e9366004612733565b61085d565b6100a06100fc366004612705565b61086b565b6100a061010f366004612733565b610874565b6100a0610122366004612705565b6108af565b61013181336109ce565b50565b6000818152600080516020612ac5833981519152602052604081209061015b828433610cd4565b905061016983333384611056565b505050565b8061017881611267565b6000828152600080516020612ac5833981519152602052604090208054600490610100900460ff16818111156101b0576101b0612763565b1480156101cd575060038101546101ca9062ed4e0061278f565b42115b6102105760405162461bcd60e51b815260206004820152600f60248201526e10d85b89dd08195b5c1d1e481e595d608a1b60448201526064015b60405180910390fd5b6001810154600090815b8181101561030157600084600901600086600101848154811061023f5761023f6127a2565b60009182526020808320909101546001600160a01b0316835282019290925260400190205411156102f957836009016000856001018381548110610285576102856127a2565b60009182526020808320909101546001600160a01b031683528201929092526040019020546102b4908461278f565b925060008460090160008660010184815481106102d3576102d36127a2565b60009182526020808320909101546001600160a01b031683528201929092526040019020555b60010161021a565b5081156103c657825460405163a9059cbb60e01b8152336004820152602481018490526000916201000090046001600160a01b03169063a9059cbb906044016020604051808303816000875af115801561035f573d6000803e3d6000fd5b505050506040513d601f19601f8201168201806040525081019061038391906127b8565b9050806103c45760405162461bcd60e51b815260206004820152600f60248201526e151c985b9cd9995c8819985a5b1959608a1b6044820152606401610207565b505b5050505050565b6000818152600080516020612ac583398151915260209081526040808320600080516020612ae583398151915290925290912060078101546002830154600484015461041b906001906127da565b836005015461042a91906127ed565b610434919061278f565b61043e919061278f565b421161048c5760405162461bcd60e51b815260206004820152601860248201527f5374696c6c2074696d6520746f20636f6e7472696275746500000000000000006044820152606401610207565b60018254610100900460ff1660048111156104a9576104a9612763565b146104c65760405162461bcd60e51b815260040161020790612804565b60405163d8f8e99160e01b815260048101849052600090309063d8f8e99190602401602060405180830381865afa158015610505573d6000803e3d6000fd5b505050506040513d601f19601f820116820180604052508101906105299190612839565b9050610534846112ed565b61053f8460026114b6565b60008360010180548060200260200160405190810160405280929190818152602001828054801561059957602002820191906000526020600020905b81546001600160a01b0316815260019091019060200180831161057b575b50508351600489015494955093925060009150505b828110156108315760008482815181106105ca576105ca6127a2565b60200260200101519050856001600160a01b0316816001600160a01b0316148061061857506000838152600c8901602090815260408083206001600160a01b038516845290915290205460ff165b156106815761062a8860110182611595565b156106785761063c88601101826115bc565b50856001600160a01b0316816001600160a01b0316036106695761066388600f01826115d1565b50610678565b61067688600d01826115d1565b505b506001016105ae565b6001600160a01b038116600090815260078901602052604090205460ff16156106f6576001600160a01b038116600090815260068901602052604090205460ff16156106da576106d488600f01826115d1565b506106e9565b6106e788600d01826115d1565b505b61066388601101826115bc565b6107038860110182611595565b15801561077c575060405163d7992e5b60e01b8152600481018a90526001600160a01b0382166024820152309063d7992e5b90604401602060405180830381865afa158015610756573d6000803e3d6000fd5b505050506040513d601f19601f8201168201806040525081019061077a91906127b8565b155b156106785760405163d7992e5b60e01b8152600481018a90526001600160a01b0387166024820152309063d7992e5b90604401602060405180830381865afa1580156107cc573d6000803e3d6000fd5b505050506040513d601f19601f820116820180604052508101906107f091906127b8565b15610827576001600160a01b038116600090815260068901602052604090205460ff16156108225761082289826115e6565b610678565b61067889826115e6565b5061083c86866116bc565b85601401548660040154106108545761085487611ace565b50505050505050565b61086782826109ce565b5050565b61013181611b6c565b6000828152600080516020612ac5833981519152602052604081209061089b828585610cd4565b90506108a984338584611056565b50505050565b6000818152600080516020612b0583398151915260209081526040808320600080516020612ac583398151915283528184203385526004820190935292205460ff1661093d5760405162461bcd60e51b815260206004820152601d60248201527f50617920636f6c6c61746572616c2073656375726974792066697273740000006044820152606401610207565b60048154610100900460ff16600481111561095a5761095a612763565b036109775760405162461bcd60e51b815260040161020790612804565b336000818152600883016020526040808220805460ff81161560ff199091168117909155905190928392909187917f8bd3cffd2d87eca262a8e2d638c1ff3d3b61c604208115af6295b089acaf72b991a450505050565b6000828152600080516020612ac583398151915260209081526040808320600080516020612b05833981519152835281842033855260158201909352922054825460ff9182169160049161010090041681811115610a2e57610a2e612763565b1480610a4b575033600090815260068401602052604090205460ff165b80610a535750805b610a9f5760405162461bcd60e51b815260206004820181905260248201527f5468652063616c6c6572206d7573742062652061207061727469636970616e746044820152606401610207565b336000908152600984016020908152604080832054600a8701835281842054600687019093529220549115159160ff9091169015158280610add5750815b80610ae55750805b610b275760405162461bcd60e51b81526020600482015260136024820152724e6f7468696e6720746f20776974686472617760681b6044820152606401610207565b8115610ca8576000888152600080516020612ae58339815191526020908152604080832081516101608101909252805460ff80821615158452610c07948401916101009004166003811115610b7e57610b7e612763565b6003811115610b8f57610b8f612763565b815281546001600160a01b036201000090910481166020830152600183015460408301526002830154606083015260038301546080830152600483015460a0830152600583015460c0830152600683015460e08301526007830154610100830152600890920154909116610120909101528833611d9b565b905060048754610100900460ff166004811115610c2657610c26612763565b14610c97578015610c975760405162461bcd60e51b815260206004820152603560248201527f4e656564206174206c6561737420312e3152434320636f6c6c61746572616c206044820152741d1bc81d5b999c99595e99481e5bdd5c88199d5b99605a1b6064820152608401610207565b610ca289338a611f29565b50610cb9565b8215610cb957610cb9883389611f29565b8015610cca57610cca88338961211e565b5050505050505050565b600060018454610100900460ff166004811115610cf357610cf3612763565b1480610d19575060038454610100900460ff166004811115610d1757610d17612763565b145b610d355760405162461bcd60e51b815260040161020790612804565b6001600160a01b038216600090815260058501602052604090205460ff16610d935760405162461bcd60e51b8152602060048201526011602482015270139bdd0818481c185c9d1a58da5c185b9d607a1b6044820152606401610207565b60008060018654610100900460ff166004811115610db357610db3612763565b03610e8e576001600160a01b038416600090815260078701602052604090205460ff1615610e1c5760405162461bcd60e51b8152602060048201526016602482015275416c7265616479207061696420666f72206379636c6560501b6044820152606401610207565b5060048581015460405163d8f8e99160e01b815291820186905290309063d8f8e99190602401602060405180830381865afa158015610e5f573d6000803e3d6000fd5b505050506040513d601f19601f82011682018060405250810190610e839190612839565b915060009250610f6c565b6001600160a01b038416600090815260168701602052604090205460ff1615610ef25760405162461bcd60e51b8152602060048201526016602482015275416c7265616479207061696420666f72206379636c6560501b6044820152606401610207565b6004860154610f0290600161278f565b604051630b5646f760e21b8152600481018790529091503090632d591bdc90602401602060405180830381865afa158015610f41573d6000803e3d6000fd5b505050506040513d601f19601f82011682018060405250810190610f659190612839565b9150600192505b836001600160a01b0316826001600160a01b031603610fcd5760405162461bcd60e51b815260206004820152601760248201527f42656e656669636961727920646f65736e2774207061790000000000000000006044820152606401610207565b6000818152600c8701602090815260408083206001600160a01b038816845290915290205460ff161561104d5760405162461bcd60e51b815260206004820152602260248201527f5061727469636970616e74206973206578656d707465642074686973206379636044820152616c6560f01b6064820152608401610207565b50509392505050565b6000848152600080516020612ac583398151915260209081526040808320600080516020612ae5833981519152909252822060068101549192909161109e90620f42406127ed565b83546040516323b872dd60e01b81526001600160a01b0389811660048301523060248301526044820184905292935060009262010000909204909116906323b872dd906064016020604051808303816000875af1158015611103573d6000803e3d6000fd5b505050506040513d601f19601f8201168201806040525081019061112791906127b8565b9050806111915760405162461bcd60e51b815260206004820152603260248201527f436f6e747269627574696f6e206661696c65642c2064696420796f7520617070604482015271726f766520737461626c6520746f6b656e3f60701b6064820152608401610207565b846111f1576001600160a01b0386166000818152600786016020526040808220805460ff19166001179055600487015490519092918b917fe1122b3cea22012386ebf236fc23dd8a783b91c046d5dec812901846464624ae9190a4610cca565b6001600160a01b03861660009081526016850160205260409020805460ff1916600190811790915560048501546112279161278f565b6040516001600160a01b038816908a907fe1122b3cea22012386ebf236fc23dd8a783b91c046d5dec812901846464624ae90600090a45050505050505050565b6000818152600080516020612ae583398151915260205260409020546001600160a01b03620100009091041633146101315760405162461bcd60e51b8152602060048201526024808201527f5465726d4f776e61626c653a2063616c6c6572206973206e6f7420746865206f6044820152633bb732b960e11b6064820152608401610207565b6000600080516020612ac583398151915260008381526020919091526040808220905163d8f8e99160e01b815260048101859052909250309063d8f8e99190602401602060405180830381865afa15801561134c573d6000803e3d6000fd5b505050506040513d601f19601f820116820180604052508101906113709190612839565b90506000826001018054806020026020016040519081016040528092919081815260200182805480156113cc57602002820191906000526020600020905b81546001600160a01b031681526001909101906020018083116113ae575b505083519394506000925050505b818110156103c45760008382815181106113f6576113f66127a2565b60200260200101519050806001600160a01b0316856001600160a01b03160361142257506001016113da565b6001600160a01b038116600090815260088701602052604090205460ff16801561146757506001600160a01b038116600090815260078701602052604090205460ff16155b801561149d575060048601546000908152600c8701602090815260408083206001600160a01b038516845290915290205460ff16155b156114ad576114ad8782836122a9565b506001016113da565b6000828152600080516020612ac5833981519152602052604090208054600490610100900460ff16818111156114ee576114ee612763565b036115295760405162461bcd60e51b815260206004820152600b60248201526a119d5b990818db1bdcd95960aa1b6044820152606401610207565b80548290829061ff00191661010083600481111561154957611549612763565b021790555081600481111561156057611560612763565b600482015460405185907fe515107ce875160b9ed93bfd1367820d3ffbf412cd63d05140f6bc5535b51de390600090a4505050565b6001600160a01b038116600090815260018301602052604081205415155b90505b92915050565b60006115b3836001600160a01b0384166123d9565b60006115b3836001600160a01b0384166124cc565b6000828152600080516020612ac5833981519152602052604081209061160f600d8301846115bc565b9050806116265761162382600f01846115bc565b90505b8061166c5760405162461bcd60e51b815260206004820152601660248201527521b0b713ba103932b6b7bb32903232b330bab63a32b960511b6044820152606401610207565b61167982601101846115d1565b50826001600160a01b03168260040154857f482c1cb26174abc97f4629d6f41ab133dbda268210ea1ced6c07c27857469a0360405160405180910390a450505050565b600281015460405163d8f8e99160e01b8152600091309163d8f8e991916116e99160040190815260200190565b602060405180830381865afa158015611706573d6000803e3d6000fd5b505050506040513d601f19601f8201168201806040525081019061172a9190612839565b9050600061173a8460110161251b565b111561186a57600030632081c1af8461175560118801612525565b6040518363ffffffff1660e01b81526004016117729291906128bc565b6000604051808303816000875af1158015611791573d6000803e3d6000fd5b505050506040513d6000823e601f3d908101601f191682016040526117b9919081019061297e565b805190915060005b818110156118665760006001600160a01b03168382815181106117e6576117e66127a2565b60200260200101516001600160a01b0316148061182d5750836001600160a01b031683828151811061181a5761181a6127a2565b60200260200101516001600160a01b0316145b1561183a576001016117c1565b61185e8686858481518110611851576118516127a2565b6020026020010151612539565b6001016117c1565b5050505b61187783600d01826115bc565b1561188b5761188983600f01826115d1565b505b6001600160a01b03811660009081526006840160209081526040808320805460ff1916600190811790915586018054825181850281018501909352808352849383018282801561190457602002820191906000526020600020905b81546001600160a01b031681526001909101906020018083116118e6575b505083519394506000925050505b8181101561197457866007016000848381518110611932576119326127a2565b6020908102919091018101516001600160a01b031682528101919091526040016000205460ff161561196c578361196881612a43565b9450505b600101611912565b50604080516101608101909152855460ff80821615158352611a3892918891602084019161010090041660038111156119af576119af612763565b60038111156119c0576119c0612763565b815281546001600160a01b036201000090910481166020830152600183015460408301526002830154606083015260038301546080830152600483015460a0830152600583015460c0830152600683015460e08301526007830154610100830152600890920154909116610120909101528786611d9b565b50828560060154611a4991906127ed565b611a5690620f42406127ed565b6001600160a01b038516600090815260098801602052604081208054909190611a8090849061278f565b909155505060028501546040516001600160a01b03861691907f1f2267669c1e46109302869b7cd09b21fd5ac4d2da01a6bbc086c1fe7b997fa390600090a36103c4856002015460036114b6565b6000818152600080516020612ac583398151915260209081526040808320600080516020612ae5833981519152909252909120426003830155805461ff001916610300178155611b1f8360046114b6565b6040516339007b7760e01b81526004810184905230906339007b7790602401600060405180830381600087803b158015611b5857600080fd5b505af1158015610854573d6000803e3d6000fd5b6000818152600080516020612ac583398151915260209081526040808320600080516020612ae5833981519152909252909120600282015460048301546005830154611bb891906127ed565b611bc2919061278f565b4211611c105760405162461bcd60e51b815260206004820152601c60248201527f546f6f206561726c7920746f207374617274206e6577206379636c65000000006044820152606401610207565b60008254610100900460ff166004811115611c2d57611c2d612763565b1480611c53575060038254610100900460ff166004811115611c5157611c51612763565b145b611c6f5760405162461bcd60e51b815260040161020790612804565b8160040160008154611c8090612a43565b90915550600182015460005b81811015611d8657836016016000856001018381548110611caf57611caf6127a2565b60009182526020808320909101546001600160a01b0316835282019290925260400181205460018601805460ff90921692600788019290919085908110611cf857611cf86127a2565b6000918252602080832091909101546001600160a01b031683528201929092526040018120805460ff1916921515929092179091556001850180546016870191839185908110611d4a57611d4a6127a2565b6000918252602080832091909101546001600160a01b031683528201929092526040019020805460ff1916911515919091179055600101611c8c565b50611d928460016114b6565b6108a9846112ed565b60808301516000908152600080516020612b05833981519152602090815260408083206001600160a01b03851684526015860190925282205460ff168015611e04576001600160a01b0384166000908152600a860160205260409020805460ff19169055611f02565b608086015160405163f0d826e760e01b8152600091309163f0d826e791611e319160040190815260200190565b602060405180830381865afa158015611e4e573d6000803e3d6000fd5b505050506040513d601f19601f82011682018060405250810190611e729190612a5c565b905060006064611e8383606e6127ed565b611e8d9190612a75565b6001600160a01b0387166000908152600586016020526040902054909150811115611edc576001600160a01b0386166000908152600a880160205260409020805460ff19166001179055611eff565b6001600160a01b0386166000908152600a880160205260409020805460ff191690555b50505b5050506001600160a01b03166000908152600a91909101602052604090205460ff16919050565b6000600080516020612ac58339815191526000858152602091825260408082206001600160a01b0387811684526009820190945281832054815492516370a0823160e01b81523060048201529195509362010000909204909116906370a0823190602401602060405180830381865afa158015611faa573d6000803e3d6000fd5b505050506040513d601f19601f82011682018060405250810190611fce9190612a5c565b905081811015611ffb5760405163cf47918160e01b81526004810182905260248101839052604401610207565b6001600160a01b0385811660009081526009850160205260408082208290558554905163a9059cbb60e01b8152878416600482015260248101869052919262010000909104169063a9059cbb906044016020604051808303816000875af115801561206a573d6000803e3d6000fd5b505050506040513d601f19601f8201168201806040525081019061208e91906127b8565b9050806120cf5760405162461bcd60e51b815260206004820152600f60248201526e151c985b9cd9995c8819985a5b1959608a1b6044820152606401610207565b506040516001600160a01b03858116825283919087169088907fe7e8d59c293d6fd984f4662b0040f878f38468324cb305b1e3153ca7f220fbb7906020015b60405180910390a4505050505050565b6000838152600080516020612ac5833981519152602052604090205460ff166121805760405162461bcd60e51b815260206004820152601460248201527346756e6420646f6573206e6f742065786973747360601b6044820152606401610207565b6000838152600080516020612b05833981519152602090815260408083206001600160a01b03861684526006810190925290912054806121f55760405162461bcd60e51b815260206004820152601060248201526f4e6f7468696e6720746f20636c61696d60801b6044820152606401610207565b6001600160a01b03848116600090815260068401602052604080822082905551909185169083908381818185875af1925050503d8060008114612254576040519150601f19603f3d011682016040523d82523d6000602084013e612259565b606091505b505090508061226757600080fd5b6040516001600160a01b03858116825283919087169088907f9ab9de9b3736782afba7d3401b3151a36aaf0b758b1db77e9c96536b73d025809060200161210e565b6000838152600080516020612ac583398151915260209081526040808320600080516020612ae583398151915290925282206006810154919290916122f190620f42406127ed565b83546040516323b872dd60e01b81526001600160a01b0388811660048301523060248301526044820184905292935062010000909104909116906323b872dd906064016020604051808303816000875af192505050801561236f575060408051601f3d908101601f1916820190925261236c918101906127b8565b60015b156103c4578015610854576001600160a01b0385166000818152600786016020526040808220805460ff19166001179055600487015490519092918a917fe1122b3cea22012386ebf236fc23dd8a783b91c046d5dec812901846464624ae9190a450505050505050565b600081815260018301602052604081205480156124c25760006123fd6001836127da565b8554909150600090612411906001906127da565b9050818114612476576000866000018281548110612431576124316127a2565b9060005260206000200154905080876000018481548110612454576124546127a2565b6000918252602080832090910192909255918252600188019052604090208390555b855486908061248757612487612a97565b6001900381819060005260206000200160009055905585600101600086815260200190815260200160002060009055600193505050506115b6565b60009150506115b6565b6000818152600183016020526040812054612513575081546001818101845560008481526020808220909301849055845484825282860190935260409020919091556115b6565b5060006115b6565b60006115b6825490565b60606000612532836126a9565b9392505050565b6001600160a01b038116600090815260058401602052604090205460ff16801561256b575061256b83601101826115bc565b6125ad5760405162461bcd60e51b8152602060048201526013602482015272115e1c195b1b185b9d081b9bdd08199bdd5b99606a1b6044820152606401610207565b60028201546000908152600080516020612b05833981519152602090815260408083206001600160a01b0385168452600587018352818420805460ff1990811690915560048201845282852080549091169055600687019092529091205460ff16612638576001600160a01b03821660009081526015850160205260409020805460ff191660011790555b826004016000815461264990612aad565b9091555060138401805460009061265f90612a43565b90915550600484015460028401546040516001600160a01b0385169291907f75072bae902443c91c7fe516bbb4da2a101e088aa10737ec2ecb7aa3beb023d190600090a450505050565b6060816000018054806020026020016040519081016040528092919081815260200182805480156126f957602002820191906000526020600020905b8154815260200190600101908083116126e5575b50505050509050919050565b60006020828403121561271757600080fd5b5035919050565b6001600160a01b038116811461013157600080fd5b6000806040838503121561274657600080fd5b8235915060208301356127588161271e565b809150509250929050565b634e487b7160e01b600052602160045260246000fd5b634e487b7160e01b600052601160045260246000fd5b808201808211156115b6576115b6612779565b634e487b7160e01b600052603260045260246000fd5b6000602082840312156127ca57600080fd5b8151801515811461253257600080fd5b818103818111156115b6576115b6612779565b80820281158282048414176115b6576115b6612779565b6020808252600b908201526a57726f6e6720737461746560a81b604082015260600190565b80516128348161271e565b919050565b60006020828403121561284b57600080fd5b81516125328161271e565b6004811061287457634e487b7160e01b600052602160045260246000fd5b9052565b600081518084526020808501945080840160005b838110156128b15781516001600160a01b03168752958201959082019060010161288c565b509495945050505050565b600061018084546128d18460ff831615159052565b6128e46020850160ff8360081c16612856565b60101c6001600160a01b0390811660408501526001860154606085015260028601546080850152600386015460a0850152600486015460c0850152600586015460e085015260068601546101008501526007860154610120850152600886015416610140840152610160830181905261295f81840185612878565b95945050505050565b634e487b7160e01b600052604160045260246000fd5b6000602080838503121561299157600080fd5b825167ffffffffffffffff808211156129a957600080fd5b818501915085601f8301126129bd57600080fd5b8151818111156129cf576129cf612968565b8060051b604051601f19603f830116810181811085821117156129f4576129f4612968565b604052918252848201925083810185019188831115612a1257600080fd5b938501935b82851015612a3757612a2885612829565b84529385019392850192612a17565b98975050505050505050565b600060018201612a5557612a55612779565b5060010190565b600060208284031215612a6e57600080fd5b5051919050565b600082612a9257634e487b7160e01b600052601260045260246000fd5b500490565b634e487b7160e01b600052603160045260246000fd5b600081612abc57612abc612779565b50600019019056fe6751f7e27cecf86d7136f5749c224248cae80a39fafb59f8f6bf12c52816307c87101b21d556417ad2b8e8f2700dbad90721d5d50a1f435f2dee0b9dc981ac8a35fa70a6f9ae8a4d427ebe0c1be62ffd2870fecc1df41c6fda0bf5803e562888a2646970667358221220575173648df2f24dd79070de5f96e0815324b92c7b7e8bc59ef994dd928aa3e164736f6c63430008120033",
  "devdoc": {
    "author": "Mohammed Haddouti",
    "details": "v3.0 (Diamond)",
    "errors": {
      "InsufficientBalance(uint256,uint256)": [
        {
          "details": "Insufficient balance for transfer. Needed `required` but only `available` available.",
          "params": {
            "available": "balance available.",
            "required": "requested amount to transfer."
          }
        }
      ]
    },
    "kind": "dev",
    "methods": {
      "closeFundingPeriod(uint256)": {
        "details": "Revert if there is still time to contributeRevert if Fund is not accepting contributions",
        "params": {
          "termId": "the id of the term"
        }
      },
      "emptyFundAfterEnd(uint256)": {
        "details": "Revert if the caller is not the term ownerRevert if the time is not met (180 days)",
        "params": {
          "termId": "the id of the term"
        }
      },
      "payContribution(uint256)": {
        "params": {
          "termId": "the id of the term"
        }
      },
      "payContributionOnBehalfOf(uint256,address)": {
        "params": {
          "participant": "the address the msg.sender is paying for, the address must be part of the fund",
          "termId": "the id of the term"
        }
      },
      "startNewCycle(uint256)": {
        "params": {
          "termId": "the id of the term"
        }
      },
      "toggleAutoPay(uint256)": {
        "details": "Revert if the user is not a collateral memberRevert if the Fund is closedIt needs the user to have enough tokens and allow the contract as spenderCan be set before the Fund starts",
        "params": {
          "termId": "the id of the term"
        }
      },
      "withdrawFund(uint256)": {
        "details": "This follows the pull-over-push pattern.",
        "params": {
          "termId": "the id of the term"
        }
      },
      "withdrawFundOnAnotherWallet(uint256,address)": {
        "details": "This follows the pull-over-push pattern.",
        "params": {
          "receiver": "the address that will receive the fund",
          "termId": "the id of the term"
        }
      }
    },
    "title": "Takaturn Fund Facet",
    "version": 1
  },
  "userdoc": {
    "kind": "user",
    "methods": {
      "closeFundingPeriod(uint256)": {
        "notice": "Must be called at the end of the contribution period after the time has passed by the owner"
      },
      "emptyFundAfterEnd(uint256)": {
        "notice": "allow the owner to empty the fund if there's any excess fund left after 180 days,         this with the assumption that beneficiaries can't claim it themselves due to losing their keys for example,         and prevent the fund to be stuck in limbo"
      },
      "payContribution(uint256)": {
        "notice": "This is the function participants call to pay the contribution"
      },
      "payContributionOnBehalfOf(uint256,address)": {
        "notice": "This function is here to give the possibility to pay using a different wallet"
      },
      "startNewCycle(uint256)": {
        "notice": "starts a new cycle manually called by the owner. Only the first cycle starts automatically upon deploy"
      },
      "toggleAutoPay(uint256)": {
        "notice": "function to enable/disable autopay"
      },
      "withdrawFund(uint256)": {
        "notice": "Called by the beneficiary to withdraw the fund"
      },
      "withdrawFundOnAnotherWallet(uint256,address)": {
        "notice": "Called by the beneficiary to withdraw the fund"
      }
    },
    "notice": "This is used to operate the Takaturn fund",
    "version": 1
  },
  "storageLayout": {
    "storage": [],
    "types": null
  }
}