{
  "address": "0x0F2D24766a5386026740f01DFddA74056E565C40",
  "abi": [
    {
      "inputs": [
        {
          "internalType": "uint256",
          "name": "available",
          "type": "uint256"
        },
        {
          "internalType": "uint256",
          "name": "required",
          "type": "uint256"
        }
      ],
      "name": "InsufficientBalance",
      "type": "error"
    },
    {
      "anonymous": false,
      "inputs": [
        {
          "indexed": true,
          "internalType": "uint256",
          "name": "termId",
          "type": "uint256"
        },
        {
          "indexed": true,
          "internalType": "address",
          "name": "participant",
          "type": "address"
        },
        {
          "indexed": true,
          "internalType": "bool",
          "name": "enabled",
          "type": "bool"
        }
      ],
      "name": "OnAutoPayToggled",
      "type": "event"
    },
    {
      "anonymous": false,
      "inputs": [
        {
          "indexed": true,
          "internalType": "uint256",
          "name": "termId",
          "type": "uint256"
        },
        {
          "indexed": true,
          "internalType": "address",
          "name": "beneficiary",
          "type": "address"
        }
      ],
      "name": "OnBeneficiaryAwarded",
      "type": "event"
    },
    {
      "anonymous": false,
      "inputs": [
        {
          "indexed": true,
          "internalType": "uint256",
          "name": "termId",
          "type": "uint256"
        },
        {
          "indexed": true,
          "internalType": "uint256",
          "name": "currentCycle",
          "type": "uint256"
        },
        {
          "indexed": true,
          "internalType": "address",
          "name": "expellant",
          "type": "address"
        }
      ],
      "name": "OnDefaulterExpelled",
      "type": "event"
    },
    {
      "anonymous": false,
      "inputs": [
        {
          "indexed": true,
          "internalType": "uint256",
          "name": "termId",
          "type": "uint256"
        },
        {
          "indexed": true,
          "internalType": "uint256",
          "name": "currentCycle",
          "type": "uint256"
        },
        {
          "indexed": true,
          "internalType": "enum LibFundStorage.FundStates",
          "name": "newState",
          "type": "uint8"
        }
      ],
      "name": "OnFundStateChanged",
      "type": "event"
    },
    {
      "anonymous": false,
      "inputs": [
        {
          "indexed": true,
          "internalType": "uint256",
          "name": "termId",
          "type": "uint256"
        },
        {
          "indexed": true,
          "internalType": "address",
          "name": "participant",
          "type": "address"
        },
        {
          "indexed": false,
          "internalType": "address",
          "name": "receiver",
          "type": "address"
        },
        {
          "indexed": true,
          "internalType": "uint256",
          "name": "amount",
          "type": "uint256"
        }
      ],
      "name": "OnFundWithdrawn",
      "type": "event"
    },
    {
      "anonymous": false,
      "inputs": [
        {
          "indexed": true,
          "internalType": "uint256",
          "name": "termId",
          "type": "uint256"
        },
        {
          "indexed": true,
          "internalType": "address",
          "name": "payer",
          "type": "address"
        },
        {
          "indexed": true,
          "internalType": "uint256",
          "name": "currentCycle",
          "type": "uint256"
        }
      ],
      "name": "OnPaidContribution",
      "type": "event"
    },
    {
      "anonymous": false,
      "inputs": [
        {
          "indexed": true,
          "internalType": "uint256",
          "name": "termId",
          "type": "uint256"
        },
        {
          "indexed": true,
          "internalType": "uint256",
          "name": "currentCycle",
          "type": "uint256"
        },
        {
          "indexed": true,
          "internalType": "address",
          "name": "defaulter",
          "type": "address"
        }
      ],
      "name": "OnParticipantDefaulted",
      "type": "event"
    },
    {
      "inputs": [
        {
          "internalType": "uint256",
          "name": "termId",
          "type": "uint256"
        }
      ],
      "name": "closeFundingPeriod",
      "outputs": [],
      "stateMutability": "nonpayable",
      "type": "function"
    },
    {
      "inputs": [
        {
          "internalType": "uint256",
          "name": "termId",
          "type": "uint256"
        }
      ],
      "name": "emptyFundAfterEnd",
      "outputs": [],
      "stateMutability": "nonpayable",
      "type": "function"
    },
    {
      "inputs": [
        {
          "internalType": "uint256",
          "name": "termId",
          "type": "uint256"
        }
      ],
      "name": "payContribution",
      "outputs": [],
      "stateMutability": "nonpayable",
      "type": "function"
    },
    {
      "inputs": [
        {
          "internalType": "uint256",
          "name": "termId",
          "type": "uint256"
        },
        {
          "internalType": "address",
          "name": "participant",
          "type": "address"
        }
      ],
      "name": "payContributionOnBehalfOf",
      "outputs": [],
      "stateMutability": "nonpayable",
      "type": "function"
    },
    {
      "inputs": [
        {
          "internalType": "uint256",
          "name": "termId",
          "type": "uint256"
        }
      ],
      "name": "startNewCycle",
      "outputs": [],
      "stateMutability": "nonpayable",
      "type": "function"
    },
    {
      "inputs": [
        {
          "internalType": "uint256",
          "name": "termId",
          "type": "uint256"
        }
      ],
      "name": "toggleAutoPay",
      "outputs": [],
      "stateMutability": "nonpayable",
      "type": "function"
    },
    {
      "inputs": [
        {
          "internalType": "uint256",
          "name": "termId",
          "type": "uint256"
        }
      ],
      "name": "withdrawFund",
      "outputs": [],
      "stateMutability": "nonpayable",
      "type": "function"
    },
    {
      "inputs": [
        {
          "internalType": "uint256",
          "name": "termId",
          "type": "uint256"
        },
        {
          "internalType": "address",
          "name": "receiver",
          "type": "address"
        }
      ],
      "name": "withdrawFundOnAnotherWallet",
      "outputs": [],
      "stateMutability": "nonpayable",
      "type": "function"
    }
  ],
  "transactionHash": "0xcb0b73d2392648e3f681e3d71322151d967f6b55f50dcb22420337ea56e97fa6",
  "args": [],
  "numDeployments": 11,
  "solcInputHash": "487de8ae64cb645597e858458198626c",
  "bytecode": "0x608060405234801561001057600080fd5b506129f1806100206000396000f3fe608060405234801561001057600080fd5b50600436106100885760003560e01c80636fee6ee81161005b5780636fee6ee8146100db5780637be2ecea146100ee5780638443162914610101578063ea28b9bb1461011457600080fd5b80630cee17251461008d5780632009844b146100a25780634b5c9c80146100b557806358733dec146100c8575b600080fd5b6100a061009b36600461259f565b610127565b005b6100a06100b036600461259f565b610134565b6100a06100c336600461259f565b61016e565b6100a06100d636600461259f565b6103bf565b6100a06100e93660046125cd565b61083a565b6100a06100fc36600461259f565b610848565b6100a061010f3660046125cd565b610851565b6100a061012236600461259f565b61088c565b6101318133610996565b50565b600081815260008051602061295c833981519152602052604081209061015b828433610c49565b905061016983333384610f71565b505050565b8061017881611152565b600082815260008051602061295c833981519152602052604090208054600490610100900460ff16818111156101b0576101b06125fd565b1480156101cd575060038101546101ca9062ed4e00612629565b42115b6102095760405162461bcd60e51b815260206004820152600860248201526754542d46462d303360c01b60448201526064015b60405180910390fd5b6001810154600090815b818110156102fa5760008460090160008660010184815481106102385761023861263c565b60009182526020808320909101546001600160a01b0316835282019290925260400190205411156102f25783600901600085600101838154811061027e5761027e61263c565b60009182526020808320909101546001600160a01b031683528201929092526040019020546102ad9084612629565b925060008460090160008660010184815481106102cc576102cc61263c565b60009182526020808320909101546001600160a01b031683528201929092526040019020555b600101610213565b5081156103b857825460405163a9059cbb60e01b8152336004820152602481018490526000916201000090046001600160a01b03169063a9059cbb906044016020604051808303816000875af1158015610358573d6000803e3d6000fd5b505050506040513d601f19601f8201168201806040525081019061037c9190612652565b9050806103b65760405162461bcd60e51b815260206004820152600860248201526715150b51918b4c0d60c21b6044820152606401610200565b505b5050505050565b600081815260008051602061295c8339815191526020908152604080832060008051602061297c83398151915290925290912060078101546002830154600484015461040d90600190612674565b836005015461041c9190612687565b6104269190612629565b6104309190612629565b42116104695760405162461bcd60e51b815260206004820152600860248201526754542d46462d303160c01b6044820152606401610200565b60018254610100900460ff166004811115610486576104866125fd565b146104a35760405162461bcd60e51b81526004016102009061269e565b60405163d8f8e99160e01b815260048101849052600090309063d8f8e99190602401602060405180830381865afa1580156104e2573d6000803e3d6000fd5b505050506040513d601f19601f8201168201806040525081019061050691906126d0565b9050610511846111b8565b61051c846002611381565b60008360010180548060200260200160405190810160405280929190818152602001828054801561057657602002820191906000526020600020905b81546001600160a01b03168152600190910190602001808311610558575b50508351600489015494955093925060009150505b8281101561080e5760008482815181106105a7576105a761263c565b60200260200101519050856001600160a01b0316816001600160a01b031614806105f557506000838152600c8901602090815260408083206001600160a01b038516845290915290205460ff165b1561065e57610607886011018261145d565b15610655576106198860110182611484565b50856001600160a01b0316816001600160a01b0316036106465761064088600f0182611499565b50610655565b61065388600d0182611499565b505b5060010161058b565b6001600160a01b038116600090815260078901602052604090205460ff16156106d3576001600160a01b038116600090815260068901602052604090205460ff16156106b7576106b188600f0182611499565b506106c6565b6106c488600d0182611499565b505b6106408860110182611484565b6106e0886011018261145d565b158015610759575060405163d7992e5b60e01b8152600481018a90526001600160a01b0382166024820152309063d7992e5b90604401602060405180830381865afa158015610733573d6000803e3d6000fd5b505050506040513d601f19601f820116820180604052508101906107579190612652565b155b156106555760405163d7992e5b60e01b8152600481018a90526001600160a01b0387166024820152309063d7992e5b90604401602060405180830381865afa1580156107a9573d6000803e3d6000fd5b505050506040513d601f19601f820116820180604052508101906107cd9190612652565b15610804576001600160a01b038116600090815260068901602052604090205460ff16156107ff576107ff89826114ae565b610655565b61065589826114ae565b506108198686611576565b85601401548660040154106108315761083187611988565b50505050505050565b6108448282610996565b5050565b61013181611a26565b600082815260008051602061295c8339815191526020526040812090610878828585610c49565b905061088684338584610f71565b50505050565b600081815260008051602061299c8339815191526020908152604080832060008051602061295c83398151915283528184203385526004820190935292205460ff166109055760405162461bcd60e51b815260206004820152600860248201526754542d46462d303560c01b6044820152606401610200565b60048154610100900460ff166004811115610922576109226125fd565b0361093f5760405162461bcd60e51b81526004016102009061269e565b336000818152600883016020526040808220805460ff81161560ff199091168117909155905190928392909187917f8bd3cffd2d87eca262a8e2d638c1ff3d3b61c604208115af6295b089acaf72b991a450505050565b600082815260008051602061295c8339815191526020908152604080832060008051602061299c833981519152835281842033855260158201909352922054825460ff91821691600491610100900416818111156109f6576109f66125fd565b1480610a13575033600090815260068401602052604090205460ff165b80610a1b5750805b610a525760405162461bcd60e51b81526020600482015260086024820152670a8a85a8c8c5a60760c31b6044820152606401610200565b336000908152600984016020908152604080832054600a8701835281842054600687019093529220549115159160ff9091169015158280610a905750815b80610a985750805b610acf5760405162461bcd60e51b815260206004820152600860248201526754542d46462d303960c01b6044820152606401610200565b8115610c1d57600088815260008051602061297c8339815191526020908152604080832081516101608101909252805460ff80821615158452610baf948401916101009004166003811115610b2657610b266125fd565b6003811115610b3757610b376125fd565b815281546001600160a01b036201000090910481166020830152600183015460408301526002830154606083015260038301546080830152600483015460a0830152600583015460c0830152600683015460e08301526007830154610100830152600890920154909116610120909101528833611c5b565b905060048754610100900460ff166004811115610bce57610bce6125fd565b14610c0c578015610c0c5760405162461bcd60e51b8152602060048201526008602482015267054542d46462d31360c41b6044820152606401610200565b610c1789338a611de9565b50610c2e565b8215610c2e57610c2e883389611de9565b8015610c3f57610c3f883389611fd7565b5050505050505050565b600060018454610100900460ff166004811115610c6857610c686125fd565b1480610c8e575060038454610100900460ff166004811115610c8c57610c8c6125fd565b145b610caa5760405162461bcd60e51b81526004016102009061269e565b6001600160a01b038216600090815260058501602052604090205460ff16610cff5760405162461bcd60e51b81526020600482015260086024820152672a2a16a32316989960c11b6044820152606401610200565b60008060018654610100900460ff166004811115610d1f57610d1f6125fd565b03610dec576001600160a01b038416600090815260078701602052604090205460ff1615610d7a5760405162461bcd60e51b815260206004820152600860248201526754542d46462d313360c01b6044820152606401610200565b5060048581015460405163d8f8e99160e01b815291820186905290309063d8f8e99190602401602060405180830381865afa158015610dbd573d6000803e3d6000fd5b505050506040513d601f19601f82011682018060405250810190610de191906126d0565b915060009250610ebc565b6001600160a01b038416600090815260168701602052604090205460ff1615610e425760405162461bcd60e51b815260206004820152600860248201526754542d46462d313360c01b6044820152606401610200565b6004860154610e52906001612629565b604051630b5646f760e21b8152600481018790529091503090632d591bdc90602401602060405180830381865afa158015610e91573d6000803e3d6000fd5b505050506040513d601f19601f82011682018060405250810190610eb591906126d0565b9150600192505b836001600160a01b0316826001600160a01b031603610f085760405162461bcd60e51b815260206004820152600860248201526715150b51918b4c4d60c21b6044820152606401610200565b6000818152600c8701602090815260408083206001600160a01b038816845290915290205460ff1615610f685760405162461bcd60e51b815260206004820152600860248201526754542d46462d313560c01b6044820152606401610200565b50509392505050565b600084815260008051602061295c8339815191526020908152604080832060008051602061297c8339815191529092528220600681015491929091610fb990620f4240612687565b83546040516323b872dd60e01b81526001600160a01b0389811660048301523060248301526044820184905292935060009262010000909204909116906323b872dd906064016020604051808303816000875af115801561101e573d6000803e3d6000fd5b505050506040513d601f19601f820116820180604052508101906110429190612652565b90508061107c5760405162461bcd60e51b815260206004820152600860248201526754542d46462d303760c01b6044820152606401610200565b846110dc576001600160a01b0386166000818152600786016020526040808220805460ff19166001179055600487015490519092918b917fe1122b3cea22012386ebf236fc23dd8a783b91c046d5dec812901846464624ae9190a4610c3f565b6001600160a01b03861660009081526016850160205260409020805460ff19166001908117909155600485015461111291612629565b6040516001600160a01b038816908a907fe1122b3cea22012386ebf236fc23dd8a783b91c046d5dec812901846464624ae90600090a45050505050505050565b600081815260008051602061297c83398151915260205260409020546001600160a01b03620100009091041633146101315760405162461bcd60e51b815260206004820152600960248201526854542d4c544f2d303160b81b6044820152606401610200565b600060008051602061295c83398151915260008381526020919091526040808220905163d8f8e99160e01b815260048101859052909250309063d8f8e99190602401602060405180830381865afa158015611217573d6000803e3d6000fd5b505050506040513d601f19601f8201168201806040525081019061123b91906126d0565b905060008260010180548060200260200160405190810160405280929190818152602001828054801561129757602002820191906000526020600020905b81546001600160a01b03168152600190910190602001808311611279575b505083519394506000925050505b818110156103b65760008382815181106112c1576112c161263c565b60200260200101519050806001600160a01b0316856001600160a01b0316036112ed57506001016112a5565b6001600160a01b038116600090815260088701602052604090205460ff16801561133257506001600160a01b038116600090815260078701602052604090205460ff16155b8015611368575060048601546000908152600c8701602090815260408083206001600160a01b038516845290915290205460ff16155b156113785761137887828361214e565b506001016112a5565b600082815260008051602061295c833981519152602052604090208054600490610100900460ff16818111156113b9576113b96125fd565b036113f15760405162461bcd60e51b815260206004820152600860248201526754542d4c462d303360c01b6044820152606401610200565b80548290829061ff001916610100836004811115611411576114116125fd565b0217905550816004811115611428576114286125fd565b600482015460405185907fe515107ce875160b9ed93bfd1367820d3ffbf412cd63d05140f6bc5535b51de390600090a4505050565b6001600160a01b038116600090815260018301602052604081205415155b90505b92915050565b600061147b836001600160a01b03841661227e565b600061147b836001600160a01b038416612371565b600082815260008051602061295c83398151915260205260408120906114d7600d830184611484565b9050806114ee576114eb82600f0184611484565b90505b806115265760405162461bcd60e51b81526020600482015260086024820152672a2a16a32316981b60c11b6044820152606401610200565b6115338260110184611499565b50826001600160a01b03168260040154857f482c1cb26174abc97f4629d6f41ab133dbda268210ea1ced6c07c27857469a0360405160405180910390a450505050565b600281015460405163d8f8e99160e01b8152600091309163d8f8e991916115a39160040190815260200190565b602060405180830381865afa1580156115c0573d6000803e3d6000fd5b505050506040513d601f19601f820116820180604052508101906115e491906126d0565b905060006115f4846011016123c0565b111561172457600030632081c1af8461160f601188016123ca565b6040518363ffffffff1660e01b815260040161162c929190612753565b6000604051808303816000875af115801561164b573d6000803e3d6000fd5b505050506040513d6000823e601f3d908101601f191682016040526116739190810190612815565b805190915060005b818110156117205760006001600160a01b03168382815181106116a0576116a061263c565b60200260200101516001600160a01b031614806116e75750836001600160a01b03168382815181106116d4576116d461263c565b60200260200101516001600160a01b0316145b156116f45760010161167b565b611718868685848151811061170b5761170b61263c565b60200260200101516123de565b60010161167b565b5050505b61173183600d0182611484565b156117455761174383600f0182611499565b505b6001600160a01b03811660009081526006840160209081526040808320805460ff191660019081179091558601805482518185028101850190935280835284938301828280156117be57602002820191906000526020600020905b81546001600160a01b031681526001909101906020018083116117a0575b505083519394506000925050505b8181101561182e578660070160008483815181106117ec576117ec61263c565b6020908102919091018101516001600160a01b031682528101919091526040016000205460ff16156118265783611822816128da565b9450505b6001016117cc565b50604080516101608101909152855460ff808216151583526118f29291889160208401916101009004166003811115611869576118696125fd565b600381111561187a5761187a6125fd565b815281546001600160a01b036201000090910481166020830152600183015460408301526002830154606083015260038301546080830152600483015460a0830152600583015460c0830152600683015460e08301526007830154610100830152600890920154909116610120909101528786611c5b565b508285600601546119039190612687565b61191090620f4240612687565b6001600160a01b03851660009081526009880160205260408120805490919061193a908490612629565b909155505060028501546040516001600160a01b03861691907f1f2267669c1e46109302869b7cd09b21fd5ac4d2da01a6bbc086c1fe7b997fa390600090a36103b685600201546003611381565b600081815260008051602061295c8339815191526020908152604080832060008051602061297c833981519152909252909120426003830155805461ff0019166103001781556119d9836004611381565b6040516339007b7760e01b81526004810184905230906339007b7790602401600060405180830381600087803b158015611a1257600080fd5b505af1158015610831573d6000803e3d6000fd5b600081815260008051602061295c8339815191526020908152604080832060008051602061297c833981519152909252909120600282015460048301546005830154611a729190612687565b611a7c9190612629565b4211611ab55760405162461bcd60e51b815260206004820152600860248201526754542d4c462d303160c01b6044820152606401610200565b60008254610100900460ff166004811115611ad257611ad26125fd565b1480611af8575060038254610100900460ff166004811115611af657611af66125fd565b145b611b2f5760405162461bcd60e51b81526020600482015260086024820152672a2a16a62316981960c11b6044820152606401610200565b8160040160008154611b40906128da565b90915550600182015460005b81811015611c4657836016016000856001018381548110611b6f57611b6f61263c565b60009182526020808320909101546001600160a01b0316835282019290925260400181205460018601805460ff90921692600788019290919085908110611bb857611bb861263c565b6000918252602080832091909101546001600160a01b031683528201929092526040018120805460ff1916921515929092179091556001850180546016870191839185908110611c0a57611c0a61263c565b6000918252602080832091909101546001600160a01b031683528201929092526040019020805460ff1916911515919091179055600101611b4c565b50611c52846001611381565b610886846111b8565b6080830151600090815260008051602061299c833981519152602090815260408083206001600160a01b03851684526015860190925282205460ff168015611cc4576001600160a01b0384166000908152600a860160205260409020805460ff19169055611dc2565b608086015160405163f0d826e760e01b8152600091309163f0d826e791611cf19160040190815260200190565b602060405180830381865afa158015611d0e573d6000803e3d6000fd5b505050506040513d601f19601f82011682018060405250810190611d3291906128f3565b905060006064611d4383606e612687565b611d4d919061290c565b6001600160a01b0387166000908152600586016020526040902054909150811115611d9c576001600160a01b0386166000908152600a880160205260409020805460ff19166001179055611dbf565b6001600160a01b0386166000908152600a880160205260409020805460ff191690555b50505b5050506001600160a01b03166000908152600a91909101602052604090205460ff16919050565b600060008051602061295c8339815191526000858152602091825260408082206001600160a01b0387811684526009820190945281832054815492516370a0823160e01b81523060048201529195509362010000909204909116906370a0823190602401602060405180830381865afa158015611e6a573d6000803e3d6000fd5b505050506040513d601f19601f82011682018060405250810190611e8e91906128f3565b905081811015611ebb5760405163cf47918160e01b81526004810182905260248101839052604401610200565b6001600160a01b0385811660009081526009850160205260408082208290558554905163a9059cbb60e01b8152878416600482015260248101869052919262010000909104169063a9059cbb906044016020604051808303816000875af1158015611f2a573d6000803e3d6000fd5b505050506040513d601f19601f82011682018060405250810190611f4e9190612652565b905080611f885760405162461bcd60e51b815260206004820152600860248201526715150b51918b4c0d60c21b6044820152606401610200565b506040516001600160a01b03858116825283919087169088907fe7e8d59c293d6fd984f4662b0040f878f38468324cb305b1e3153ca7f220fbb7906020015b60405180910390a4505050505050565b600083815260008051602061295c833981519152602052604090205460ff1661202d5760405162461bcd60e51b815260206004820152600860248201526754542d4c432d303160c01b6044820152606401610200565b600083815260008051602061299c833981519152602090815260408083206001600160a01b038616845260068101909252909120548061209a5760405162461bcd60e51b81526020600482015260086024820152672a2a16a62196981960c11b6044820152606401610200565b6001600160a01b03848116600090815260068401602052604080822082905551909185169083908381818185875af1925050503d80600081146120f9576040519150601f19603f3d011682016040523d82523d6000602084013e6120fe565b606091505b505090508061210c57600080fd5b6040516001600160a01b03858116825283919087169088907f9ab9de9b3736782afba7d3401b3151a36aaf0b758b1db77e9c96536b73d0258090602001611fc7565b600083815260008051602061295c8339815191526020908152604080832060008051602061297c833981519152909252822060068101549192909161219690620f4240612687565b83546040516323b872dd60e01b81526001600160a01b0388811660048301523060248301526044820184905292935062010000909104909116906323b872dd906064016020604051808303816000875af1925050508015612214575060408051601f3d908101601f1916820190925261221191810190612652565b60015b156103b6578015610831576001600160a01b0385166000818152600786016020526040808220805460ff19166001179055600487015490519092918a917fe1122b3cea22012386ebf236fc23dd8a783b91c046d5dec812901846464624ae9190a450505050505050565b600081815260018301602052604081205480156123675760006122a2600183612674565b85549091506000906122b690600190612674565b905081811461231b5760008660000182815481106122d6576122d661263c565b90600052602060002001549050808760000184815481106122f9576122f961263c565b6000918252602080832090910192909255918252600188019052604090208390555b855486908061232c5761232c61292e565b60019003818190600052602060002001600090559055856001016000868152602001908152602001600020600090556001935050505061147e565b600091505061147e565b60008181526001830160205260408120546123b85750815460018181018455600084815260208082209093018490558454848252828601909352604090209190915561147e565b50600061147e565b600061147e825490565b606060006123d783612543565b9392505050565b6001600160a01b038116600090815260058401602052604090205460ff16801561241057506124108360110182611484565b6124475760405162461bcd60e51b815260206004820152600860248201526754542d46462d313160c01b6044820152606401610200565b6002820154600090815260008051602061299c833981519152602090815260408083206001600160a01b0385168452600587018352818420805460ff1990811690915560048201845282852080549091169055600687019092529091205460ff166124d2576001600160a01b03821660009081526015850160205260409020805460ff191660011790555b82600401600081546124e390612944565b909155506013840180546000906124f9906128da565b90915550600484015460028401546040516001600160a01b0385169291907f75072bae902443c91c7fe516bbb4da2a101e088aa10737ec2ecb7aa3beb023d190600090a450505050565b60608160000180548060200260200160405190810160405280929190818152602001828054801561259357602002820191906000526020600020905b81548152602001906001019080831161257f575b50505050509050919050565b6000602082840312156125b157600080fd5b5035919050565b6001600160a01b038116811461013157600080fd5b600080604083850312156125e057600080fd5b8235915060208301356125f2816125b8565b809150509250929050565b634e487b7160e01b600052602160045260246000fd5b634e487b7160e01b600052601160045260246000fd5b8082018082111561147e5761147e612613565b634e487b7160e01b600052603260045260246000fd5b60006020828403121561266457600080fd5b815180151581146123d757600080fd5b8181038181111561147e5761147e612613565b808202811582820484141761147e5761147e612613565b6020808252600890820152672a2a16a32316981960c11b604082015260600190565b80516126cb816125b8565b919050565b6000602082840312156126e257600080fd5b81516123d7816125b8565b6004811061270b57634e487b7160e01b600052602160045260246000fd5b9052565b600081518084526020808501945080840160005b838110156127485781516001600160a01b031687529582019590820190600101612723565b509495945050505050565b600061018084546127688460ff831615159052565b61277b6020850160ff8360081c166126ed565b60101c6001600160a01b0390811660408501526001860154606085015260028601546080850152600386015460a0850152600486015460c0850152600586015460e08501526006860154610100850152600786015461012085015260088601541661014084015261016083018190526127f68184018561270f565b95945050505050565b634e487b7160e01b600052604160045260246000fd5b6000602080838503121561282857600080fd5b825167ffffffffffffffff8082111561284057600080fd5b818501915085601f83011261285457600080fd5b815181811115612866576128666127ff565b8060051b604051601f19603f8301168101818110858211171561288b5761288b6127ff565b6040529182528482019250838101850191888311156128a957600080fd5b938501935b828510156128ce576128bf856126c0565b845293850193928501926128ae565b98975050505050505050565b6000600182016128ec576128ec612613565b5060010190565b60006020828403121561290557600080fd5b5051919050565b60008261292957634e487b7160e01b600052601260045260246000fd5b500490565b634e487b7160e01b600052603160045260246000fd5b60008161295357612953612613565b50600019019056fe6751f7e27cecf86d7136f5749c224248cae80a39fafb59f8f6bf12c52816307c87101b21d556417ad2b8e8f2700dbad90721d5d50a1f435f2dee0b9dc981ac8a35fa70a6f9ae8a4d427ebe0c1be62ffd2870fecc1df41c6fda0bf5803e562888a26469706673582212203e403f9d1be7540ed81120e028e5ca969f14422231b03a65db5466ebc77256f764736f6c63430008120033",
  "devdoc": {
    "author": "Mohammed Haddouti",
    "details": "v3.0 (Diamond)",
    "errors": {
      "InsufficientBalance(uint256,uint256)": [
        {
          "details": "Insufficient balance for transfer. Needed `required` but only `available` available.",
          "params": {
            "available": "balance available.",
            "required": "requested amount to transfer."
          }
        }
      ]
    },
    "kind": "dev",
    "methods": {
      "closeFundingPeriod(uint256)": {
        "details": "Revert if there is still time to contributeRevert if Fund is not accepting contributions",
        "params": {
          "termId": "the id of the term"
        }
      },
      "emptyFundAfterEnd(uint256)": {
        "details": "Revert if the caller is not the term ownerRevert if the time is not met (180 days)",
        "params": {
          "termId": "the id of the term"
        }
      },
      "payContribution(uint256)": {
        "params": {
          "termId": "the id of the term"
        }
      },
      "payContributionOnBehalfOf(uint256,address)": {
        "params": {
          "participant": "the address the msg.sender is paying for, the address must be part of the fund",
          "termId": "the id of the term"
        }
      },
      "startNewCycle(uint256)": {
        "params": {
          "termId": "the id of the term"
        }
      },
      "toggleAutoPay(uint256)": {
        "details": "Revert if the user is not a collateral memberRevert if the Fund is closedIt needs the user to have enough tokens and allow the contract as spenderCan be set before the Fund starts",
        "params": {
          "termId": "the id of the term"
        }
      },
      "withdrawFund(uint256)": {
        "details": "This follows the pull-over-push pattern.",
        "params": {
          "termId": "the id of the term"
        }
      },
      "withdrawFundOnAnotherWallet(uint256,address)": {
        "details": "This follows the pull-over-push pattern.",
        "params": {
          "receiver": "the address that will receive the fund",
          "termId": "the id of the term"
        }
      }
    },
    "title": "Takaturn Fund Facet",
    "version": 1
  },
  "userdoc": {
    "kind": "user",
    "methods": {
      "closeFundingPeriod(uint256)": {
        "notice": "Must be called at the end of the contribution period after the time has passed by the owner"
      },
      "emptyFundAfterEnd(uint256)": {
        "notice": "allow the owner to empty the fund if there's any excess fund left after 180 days,         this with the assumption that beneficiaries can't claim it themselves due to losing their keys for example,         and prevent the fund to be stuck in limbo"
      },
      "payContribution(uint256)": {
        "notice": "This is the function participants call to pay the contribution"
      },
      "payContributionOnBehalfOf(uint256,address)": {
        "notice": "This function is here to give the possibility to pay using a different wallet"
      },
      "startNewCycle(uint256)": {
        "notice": "starts a new cycle manually called by the owner. Only the first cycle starts automatically upon deploy"
      },
      "toggleAutoPay(uint256)": {
        "notice": "function to enable/disable autopay"
      },
      "withdrawFund(uint256)": {
        "notice": "Called by the beneficiary to withdraw the fund"
      },
      "withdrawFundOnAnotherWallet(uint256,address)": {
        "notice": "Called by the beneficiary to withdraw the fund"
      }
    },
    "notice": "This is used to operate the Takaturn fund",
    "version": 1
  },
  "storageLayout": {
    "storage": [],
    "types": null
  }
}