{
  "address": "0xf3C3BB177789dF5bf1EDA25AB28A75b3BBd14506",
  "abi": [
    {
      "inputs": [
        {
          "internalType": "uint256",
          "name": "termId",
          "type": "uint256"
        },
        {
          "internalType": "address",
          "name": "user",
          "type": "address"
        }
      ],
      "name": "expelledBeforeBeneficiary",
      "outputs": [
        {
          "internalType": "bool",
          "name": "",
          "type": "bool"
        }
      ],
      "stateMutability": "view",
      "type": "function"
    },
    {
      "inputs": [
        {
          "internalType": "address",
          "name": "participant",
          "type": "address"
        }
      ],
      "name": "getAllJoinedTerms",
      "outputs": [
        {
          "internalType": "uint256[]",
          "name": "",
          "type": "uint256[]"
        }
      ],
      "stateMutability": "view",
      "type": "function"
    },
    {
      "inputs": [
        {
          "internalType": "uint256",
          "name": "termId",
          "type": "uint256"
        }
      ],
      "name": "getAvailablePositionsAndSecurityAmount",
      "outputs": [
        {
          "internalType": "uint256[]",
          "name": "",
          "type": "uint256[]"
        },
        {
          "internalType": "uint256[]",
          "name": "",
          "type": "uint256[]"
        }
      ],
      "stateMutability": "view",
      "type": "function"
    },
    {
      "inputs": [
        {
          "internalType": "uint256",
          "name": "termId",
          "type": "uint256"
        }
      ],
      "name": "getCollateralSummary",
      "outputs": [
        {
          "internalType": "bool",
          "name": "",
          "type": "bool"
        },
        {
          "internalType": "enum LibCollateralStorage.CollateralStates",
          "name": "",
          "type": "uint8"
        },
        {
          "internalType": "uint256",
          "name": "",
          "type": "uint256"
        },
        {
          "internalType": "uint256",
          "name": "",
          "type": "uint256"
        },
        {
          "internalType": "address[]",
          "name": "",
          "type": "address[]"
        }
      ],
      "stateMutability": "view",
      "type": "function"
    },
    {
      "inputs": [
        {
          "internalType": "string",
          "name": "firstAggregator",
          "type": "string"
        },
        {
          "internalType": "string",
          "name": "secondAggregator",
          "type": "string"
        },
        {
          "internalType": "string",
          "name": "zapAddress",
          "type": "string"
        },
        {
          "internalType": "string",
          "name": "vaultAddress",
          "type": "string"
        }
      ],
      "name": "getConstants",
      "outputs": [
        {
          "internalType": "address",
          "name": "",
          "type": "address"
        },
        {
          "internalType": "address",
          "name": "",
          "type": "address"
        },
        {
          "internalType": "address",
          "name": "",
          "type": "address"
        },
        {
          "internalType": "address",
          "name": "",
          "type": "address"
        }
      ],
      "stateMutability": "view",
      "type": "function"
    },
    {
      "inputs": [
        {
          "internalType": "uint256",
          "name": "termId",
          "type": "uint256"
        }
      ],
      "name": "getCurrentBeneficiary",
      "outputs": [
        {
          "internalType": "address",
          "name": "",
          "type": "address"
        }
      ],
      "stateMutability": "view",
      "type": "function"
    },
    {
      "inputs": [
        {
          "internalType": "address",
          "name": "depositor",
          "type": "address"
        },
        {
          "internalType": "uint256",
          "name": "termId",
          "type": "uint256"
        }
      ],
      "name": "getDepositorCollateralSummary",
      "outputs": [
        {
          "internalType": "bool",
          "name": "",
          "type": "bool"
        },
        {
          "internalType": "uint256",
          "name": "",
          "type": "uint256"
        },
        {
          "internalType": "uint256",
          "name": "",
          "type": "uint256"
        },
        {
          "internalType": "uint256",
          "name": "",
          "type": "uint256"
        },
        {
          "internalType": "uint256",
          "name": "",
          "type": "uint256"
        }
      ],
      "stateMutability": "view",
      "type": "function"
    },
    {
      "inputs": [
        {
          "internalType": "address",
          "name": "participant",
          "type": "address"
        }
      ],
      "name": "getExpelledTerms",
      "outputs": [
        {
          "internalType": "uint256[]",
          "name": "",
          "type": "uint256[]"
        }
      ],
      "stateMutability": "view",
      "type": "function"
    },
    {
      "inputs": [
        {
          "internalType": "uint256",
          "name": "termId",
          "type": "uint256"
        }
      ],
      "name": "getFundSummary",
      "outputs": [
        {
          "internalType": "bool",
          "name": "",
          "type": "bool"
        },
        {
          "internalType": "enum LibFundStorage.FundStates",
          "name": "",
          "type": "uint8"
        },
        {
          "internalType": "contract IERC20",
          "name": "",
          "type": "address"
        },
        {
          "internalType": "address[]",
          "name": "",
          "type": "address[]"
        },
        {
          "internalType": "uint256",
          "name": "",
          "type": "uint256"
        },
        {
          "internalType": "uint256",
          "name": "",
          "type": "uint256"
        },
        {
          "internalType": "uint256",
          "name": "",
          "type": "uint256"
        },
        {
          "internalType": "uint256",
          "name": "",
          "type": "uint256"
        }
      ],
      "stateMutability": "view",
      "type": "function"
    },
    {
      "inputs": [
        {
          "internalType": "address",
          "name": "participant",
          "type": "address"
        },
        {
          "internalType": "enum LibTermStorage.TermStates",
          "name": "state",
          "type": "uint8"
        }
      ],
      "name": "getJoinedTermsByState",
      "outputs": [
        {
          "internalType": "uint256[]",
          "name": "",
          "type": "uint256[]"
        }
      ],
      "stateMutability": "view",
      "type": "function"
    },
    {
      "inputs": [],
      "name": "getLatestPrice",
      "outputs": [
        {
          "internalType": "uint256",
          "name": "",
          "type": "uint256"
        }
      ],
      "stateMutability": "view",
      "type": "function"
    },
    {
      "inputs": [
        {
          "internalType": "address",
          "name": "user",
          "type": "address"
        }
      ],
      "name": "getNeededAllowance",
      "outputs": [
        {
          "internalType": "uint256",
          "name": "",
          "type": "uint256"
        }
      ],
      "stateMutability": "view",
      "type": "function"
    },
    {
      "inputs": [
        {
          "internalType": "address",
          "name": "participant",
          "type": "address"
        },
        {
          "internalType": "uint256",
          "name": "termId",
          "type": "uint256"
        }
      ],
      "name": "getParticipantFundSummary",
      "outputs": [
        {
          "internalType": "bool",
          "name": "",
          "type": "bool"
        },
        {
          "internalType": "bool",
          "name": "",
          "type": "bool"
        },
        {
          "internalType": "bool",
          "name": "",
          "type": "bool"
        },
        {
          "internalType": "bool",
          "name": "",
          "type": "bool"
        },
        {
          "internalType": "uint256",
          "name": "",
          "type": "uint256"
        },
        {
          "internalType": "bool",
          "name": "",
          "type": "bool"
        }
      ],
      "stateMutability": "view",
      "type": "function"
    },
    {
      "inputs": [
        {
          "internalType": "uint256",
          "name": "termId",
          "type": "uint256"
        }
      ],
      "name": "getRemainingContributionTime",
      "outputs": [
        {
          "internalType": "uint256",
          "name": "",
          "type": "uint256"
        }
      ],
      "stateMutability": "view",
      "type": "function"
    },
    {
      "inputs": [
        {
          "internalType": "uint256",
          "name": "termId",
          "type": "uint256"
        }
      ],
      "name": "getRemainingCycleTime",
      "outputs": [
        {
          "internalType": "uint256",
          "name": "",
          "type": "uint256"
        }
      ],
      "stateMutability": "view",
      "type": "function"
    },
    {
      "inputs": [
        {
          "internalType": "uint256",
          "name": "termId",
          "type": "uint256"
        }
      ],
      "name": "getRemainingCycles",
      "outputs": [
        {
          "internalType": "uint256",
          "name": "",
          "type": "uint256"
        }
      ],
      "stateMutability": "view",
      "type": "function"
    },
    {
      "inputs": [
        {
          "internalType": "uint256",
          "name": "termId",
          "type": "uint256"
        }
      ],
      "name": "getRemainingCyclesContributionWei",
      "outputs": [
        {
          "internalType": "uint256",
          "name": "",
          "type": "uint256"
        }
      ],
      "stateMutability": "view",
      "type": "function"
    },
    {
      "inputs": [
        {
          "internalType": "uint256",
          "name": "termId",
          "type": "uint256"
        }
      ],
      "name": "getRemainingRegistrationTime",
      "outputs": [
        {
          "internalType": "uint256",
          "name": "",
          "type": "uint256"
        }
      ],
      "stateMutability": "view",
      "type": "function"
    },
    {
      "inputs": [
        {
          "internalType": "uint256",
          "name": "termId",
          "type": "uint256"
        }
      ],
      "name": "getTermSummary",
      "outputs": [
        {
          "components": [
            {
              "internalType": "bool",
              "name": "initialized",
              "type": "bool"
            },
            {
              "internalType": "enum LibTermStorage.TermStates",
              "name": "state",
              "type": "uint8"
            },
            {
              "internalType": "address",
              "name": "termOwner",
              "type": "address"
            },
            {
              "internalType": "uint256",
              "name": "creationTime",
              "type": "uint256"
            },
            {
              "internalType": "uint256",
              "name": "termId",
              "type": "uint256"
            },
            {
              "internalType": "uint256",
              "name": "registrationPeriod",
              "type": "uint256"
            },
            {
              "internalType": "uint256",
              "name": "totalParticipants",
              "type": "uint256"
            },
            {
              "internalType": "uint256",
              "name": "cycleTime",
              "type": "uint256"
            },
            {
              "internalType": "uint256",
              "name": "contributionAmount",
              "type": "uint256"
            },
            {
              "internalType": "uint256",
              "name": "contributionPeriod",
              "type": "uint256"
            },
            {
              "internalType": "address",
              "name": "stableTokenAddress",
              "type": "address"
            }
          ],
          "internalType": "struct LibTermStorage.Term",
          "name": "",
          "type": "tuple"
        }
      ],
      "stateMutability": "view",
      "type": "function"
    },
    {
      "inputs": [],
      "name": "getTermsId",
      "outputs": [
        {
          "internalType": "uint256",
          "name": "",
          "type": "uint256"
        },
        {
          "internalType": "uint256",
          "name": "",
          "type": "uint256"
        }
      ],
      "stateMutability": "view",
      "type": "function"
    },
    {
      "inputs": [
        {
          "internalType": "uint256",
          "name": "USDAmount",
          "type": "uint256"
        }
      ],
      "name": "getToCollateralConversionRate",
      "outputs": [
        {
          "internalType": "uint256",
          "name": "",
          "type": "uint256"
        }
      ],
      "stateMutability": "view",
      "type": "function"
    },
    {
      "inputs": [
        {
          "internalType": "uint256",
          "name": "ethAmount",
          "type": "uint256"
        }
      ],
      "name": "getToStableConversionRate",
      "outputs": [
        {
          "internalType": "uint256",
          "name": "",
          "type": "uint256"
        }
      ],
      "stateMutability": "view",
      "type": "function"
    },
    {
      "inputs": [
        {
          "internalType": "address",
          "name": "participant",
          "type": "address"
        },
        {
          "internalType": "uint256",
          "name": "termId",
          "type": "uint256"
        }
      ],
      "name": "getUserSet",
      "outputs": [
        {
          "internalType": "bool",
          "name": "",
          "type": "bool"
        },
        {
          "internalType": "bool",
          "name": "",
          "type": "bool"
        },
        {
          "internalType": "bool",
          "name": "",
          "type": "bool"
        }
      ],
      "stateMutability": "view",
      "type": "function"
    },
    {
      "inputs": [
        {
          "internalType": "address",
          "name": "user",
          "type": "address"
        },
        {
          "internalType": "uint256",
          "name": "termId",
          "type": "uint256"
        }
      ],
      "name": "getUserYieldSummary",
      "outputs": [
        {
          "internalType": "bool",
          "name": "",
          "type": "bool"
        },
        {
          "internalType": "uint256",
          "name": "",
          "type": "uint256"
        },
        {
          "internalType": "uint256",
          "name": "",
          "type": "uint256"
        },
        {
          "internalType": "uint256",
          "name": "",
          "type": "uint256"
        },
        {
          "internalType": "uint256",
          "name": "",
          "type": "uint256"
        },
        {
          "internalType": "uint256",
          "name": "",
          "type": "uint256"
        }
      ],
      "stateMutability": "view",
      "type": "function"
    },
    {
      "inputs": [
        {
          "internalType": "uint256",
          "name": "termId",
          "type": "uint256"
        },
        {
          "internalType": "address",
          "name": "user",
          "type": "address"
        }
      ],
      "name": "getWithdrawableUserBalance",
      "outputs": [
        {
          "internalType": "uint256",
          "name": "allowedWithdrawal",
          "type": "uint256"
        }
      ],
      "stateMutability": "view",
      "type": "function"
    },
    {
      "inputs": [],
      "name": "getYieldLockState",
      "outputs": [
        {
          "internalType": "bool",
          "name": "",
          "type": "bool"
        }
      ],
      "stateMutability": "view",
      "type": "function"
    },
    {
      "inputs": [
        {
          "internalType": "uint256",
          "name": "termId",
          "type": "uint256"
        }
      ],
      "name": "getYieldSummary",
      "outputs": [
        {
          "internalType": "bool",
          "name": "",
          "type": "bool"
        },
        {
          "internalType": "uint256",
          "name": "",
          "type": "uint256"
        },
        {
          "internalType": "uint256",
          "name": "",
          "type": "uint256"
        },
        {
          "internalType": "uint256",
          "name": "",
          "type": "uint256"
        },
        {
          "internalType": "uint256",
          "name": "",
          "type": "uint256"
        },
        {
          "internalType": "address[]",
          "name": "",
          "type": "address[]"
        },
        {
          "internalType": "address",
          "name": "",
          "type": "address"
        },
        {
          "internalType": "address",
          "name": "",
          "type": "address"
        }
      ],
      "stateMutability": "view",
      "type": "function"
    },
    {
      "inputs": [
        {
          "internalType": "uint256",
          "name": "termId",
          "type": "uint256"
        },
        {
          "internalType": "address",
          "name": "beneficiary",
          "type": "address"
        }
      ],
      "name": "isBeneficiary",
      "outputs": [
        {
          "internalType": "bool",
          "name": "",
          "type": "bool"
        }
      ],
      "stateMutability": "view",
      "type": "function"
    },
    {
      "inputs": [
        {
          "internalType": "uint256",
          "name": "termId",
          "type": "uint256"
        },
        {
          "internalType": "uint256",
          "name": "cycle",
          "type": "uint256"
        },
        {
          "internalType": "address",
          "name": "user",
          "type": "address"
        }
      ],
      "name": "isExempted",
      "outputs": [
        {
          "internalType": "bool",
          "name": "",
          "type": "bool"
        }
      ],
      "stateMutability": "view",
      "type": "function"
    },
    {
      "inputs": [
        {
          "internalType": "uint256",
          "name": "termId",
          "type": "uint256"
        },
        {
          "internalType": "address",
          "name": "member",
          "type": "address"
        }
      ],
      "name": "isUnderCollaterized",
      "outputs": [
        {
          "internalType": "bool",
          "name": "",
          "type": "bool"
        }
      ],
      "stateMutability": "view",
      "type": "function"
    },
    {
      "inputs": [
        {
          "internalType": "uint256",
          "name": "termId",
          "type": "uint256"
        },
        {
          "internalType": "uint256",
          "name": "depositorIndex",
          "type": "uint256"
        }
      ],
      "name": "minCollateralToDeposit",
      "outputs": [
        {
          "internalType": "uint256",
          "name": "amount",
          "type": "uint256"
        }
      ],
      "stateMutability": "view",
      "type": "function"
    },
    {
      "inputs": [
        {
          "internalType": "uint256",
          "name": "termId",
          "type": "uint256"
        }
      ],
      "name": "termAPY",
      "outputs": [
        {
          "internalType": "uint256",
          "name": "",
          "type": "uint256"
        }
      ],
      "stateMutability": "view",
      "type": "function"
    },
    {
      "inputs": [
        {
          "internalType": "uint256",
          "name": "termId",
          "type": "uint256"
        }
      ],
      "name": "totalYieldGenerated",
      "outputs": [
        {
          "internalType": "uint256",
          "name": "",
          "type": "uint256"
        }
      ],
      "stateMutability": "view",
      "type": "function"
    },
    {
      "inputs": [
        {
          "internalType": "uint256",
          "name": "termId",
          "type": "uint256"
        },
        {
          "internalType": "address",
          "name": "user",
          "type": "address"
        }
      ],
      "name": "userAPY",
      "outputs": [
        {
          "internalType": "uint256",
          "name": "",
          "type": "uint256"
        }
      ],
      "stateMutability": "view",
      "type": "function"
    },
    {
      "inputs": [
        {
          "internalType": "uint256",
          "name": "termId",
          "type": "uint256"
        },
        {
          "internalType": "address",
          "name": "user",
          "type": "address"
        }
      ],
      "name": "userHasoptedInYG",
      "outputs": [
        {
          "internalType": "bool",
          "name": "",
          "type": "bool"
        }
      ],
      "stateMutability": "view",
      "type": "function"
    },
    {
      "inputs": [
        {
          "internalType": "uint256",
          "name": "termId",
          "type": "uint256"
        },
        {
          "internalType": "address",
          "name": "user",
          "type": "address"
        }
      ],
      "name": "wasExpelled",
      "outputs": [
        {
          "internalType": "bool",
          "name": "",
          "type": "bool"
        }
      ],
      "stateMutability": "view",
      "type": "function"
    }
  ],
  "transactionHash": "0x3963c4f60d2c9344c302d623ed4cf834e05f1af73456406a6fa83bf025be5ac1",
  "args": [],
  "numDeployments": 7,
  "solcInputHash": "08c23afa62e82f82321d9506a544e74d",
  "bytecode": "0x608060405234801561001057600080fd5b50612f59806100206000396000f3fe608060405234801561001057600080fd5b506004361061021c5760003560e01c806392a6c80211610125578063d8f8e991116100ad578063dc9e24ae1161007c578063dc9e24ae1461068d578063e51a6295146106a0578063e9783e60146106b3578063f0d826e7146106fd578063fd4dba9d1461071057600080fd5b8063d8f8e9911461060b578063da3791ca14610636578063dbd576831461065a578063dbf428101461067a57600080fd5b8063bb91b76d116100f4578063bb91b76d1461056e578063c177f091146105ab578063d072f4bc146105be578063d72bb87e146105d1578063d7992e5b146105f857600080fd5b806392a6c8021461049d5780639d4eb26f146104b0578063b6abd1a4146104d7578063b7cf483f1461051d57600080fd5b80636bbbb5fb116101a857806377778baf1161017757806377778baf1461043f5780637aed53a614610452578063805307311461046f5780638e15f4731461048257806391ce5ff71461048a57600080fd5b80636bbbb5fb146103775780637063f618146103c157806375aaa78c146103e257806375d4e40b146103f557600080fd5b80631e993b53116101ef5780631e993b53146102e85780633d17f1e0146103085780636191474c1461033e57806362f02abd1461035157806365654fe31461036457600080fd5b80630c64c697146102215780630fc4a7ef146102475780631268612d1461025a5780631c162dbe146102a6575b600080fd5b61023461022f36600461278f565b610742565b6040519081526020015b60405180910390f35b6102346102553660046127b1565b610804565b61026d6102683660046127e6565b610838565b604080519615158752941515602087015292151593850193909352151560608401526080830191909152151560a082015260c00161023e565b6102b96102b43660046127e6565b6108d5565b6040805196151587526020870195909552938501929092526060840152608083015260a082015260c00161023e565b6102fb6102f6366004612810565b61096b565b60405161023e9190612866565b7f7c039906f7f8ca11e01b6987a88513563589699678f7d2a6c8447f44d69375f35460ff165b604051901515815260200161023e565b61023461034c3660046127b1565b610ade565b61023461035f3660046127b1565b610b9c565b610234610372366004612879565b610bdd565b61032e610385366004612879565b6000918252600080516020612ea4833981519152602090815260408084206001600160a01b039390931684526015909201905290205460ff1690565b6103d46103cf3660046127b1565b610cb4565b60405161023e9291906128a5565b6102fb6103f0366004612810565b610ebd565b61032e610403366004612879565b6000918252600080516020612e84833981519152602090815260408084206001600160a01b039390931684526007909201905290205460ff1690565b61023461044d366004612879565b610f5d565b61045a611135565b6040805192835260208301919091520161023e565b61023461047d3660046127b1565b611166565b6102346111cd565b6102346104983660046127b1565b611461565b6102346104ab3660046127b1565b611529565b6104c36104be3660046127b1565b611576565b60405161023e989796959493929190612903565b6104ea6104e5366004612a03565b6116b1565b604080516001600160a01b039586168152938516602085015291841691830191909152909116606082015260800161023e565b61032e61052b366004612ab0565b6000928352600080516020612ea483398151915260209081526040808520938552600c90930181528284206001600160a01b039290921684525290205460ff1690565b61058161057c3660046127e6565b6117b3565b6040805195151586526020860194909452928401919091526060830152608082015260a00161023e565b61032e6105b9366004612879565b6118ab565b6102346105cc3660046127b1565b6118b7565b6105e46105df3660046127b1565b6118d9565b60405161023e989796959493929190612afb565b61032e610606366004612879565b6119b2565b61061e6106193660046127b1565b611a4c565b6040516001600160a01b03909116815260200161023e565b6106496106443660046127b1565b611aa8565b60405161023e959493929190612b79565b61066d6106683660046127b1565b611b5e565b60405161023e9190612bbc565b6102346106883660046127b1565b611ca7565b6102fb61069b366004612c5a565b611dd2565b6102346106ae366004612810565b611f93565b61032e6106c1366004612879565b6000918252600080516020612ea4833981519152602090815260408084206001600160a01b039390931684526006909201905290205460ff1690565b61023461070b3660046127b1565b6120f6565b61072361071e3660046127e6565b61217f565b604080519315158452911515602084015215159082015260600161023e565b6000828152600080516020612ec483398151915260205260408120600481015483106107ab5760405162461bcd60e51b8152602060048201526013602482015272496e646578206f7574206f6620626f756e647360681b60448201526064015b60405180910390fd5b60006107c88260060154670de0b6b3a76400006105cc9190612cab565b905060648483600401546107dc9190612cc2565b6107e69083612cab565b6107f1906096612cab565b6107fb9190612ceb565b95945050505050565b60008061080f6111cd565b90506000670de0b6b3a76400006108268584612cab565b6108309190612ceb565b949350505050565b6000818152600080516020612ea48339815191526020526040812081908190819081908190816108688a8a6121de565b6001600160a01b039a909a1660009081526005830160209081526040808320546006860183528184205460078701845282852054600888018552838620546009909801909452919093205460ff9384169e9184169d9284169c509290941699509097509550909350505050565b6000818152600080516020612e84833981519152602052604081208190819081908190819081610905898b612299565b6001600160a01b039a909a1660009081526007830160209081526040808320546008860183528184205460098701845282852054600a8801855283862054600b909801909452919093205460ff9093169d909c919b509399509097509550909350505050565b6060600061097883610ebd565b90506000815167ffffffffffffffff81111561099657610996612960565b6040519080825280602002602001820160405280156109bf578160200160208202803683370190505b508251909150600090815b81811015610a41576109f58582815181106109e7576109e7612cff565b6020026020010151886119b2565b15610a3957848181518110610a0c57610a0c612cff565b6020026020010151848481518110610a2657610a26612cff565b6020026020010181815250508260010192505b6001016109ca565b5060008267ffffffffffffffff811115610a5d57610a5d612960565b604051908082528060200260200182016040528015610a86578160200160208202803683370190505b50905060005b83811015610ad357848181518110610aa657610aa6612cff565b6020026020010151828281518110610ac057610ac0612cff565b6020908102919091010152600101610a8c565b509695505050505050565b6000818152600080516020612ea483398151915260209081526040808320600080516020612ec483398151915290925282208154600190610100900460ff166004811115610b2e57610b2e612ae5565b14610b3d575060009392505050565b60008160070154836002015460018560040154610b5a9190612cc2565b8460050154610b699190612cab565b610b739190612d15565b610b7d9190612d15565b905080421115610b9257506000949350505050565b6107fb4282612cc2565b6000818152600080516020612ea48339815191526020526040812060048101546014820154610bcc906001612d15565b610bd69190612cc2565b9392505050565b6000828152600080516020612e8483398151915260209081526040808320600080516020612ee4833981519152909252822060028201548390610c209042612cc2565b90506000610c2e8787612299565b6001600160a01b0387166000908152600886016020526040902054610c539190612d15565b6001600160a01b03871660009081526005850160205260409020549091508290610c8583670de0b6b3a7640000612cab565b610c8f9190612ceb565b610c9d906301e13380612cab565b610ca79190612ceb565b9450505050505b92915050565b6000818152600080516020612ee4833981519152602052604081206003810154606092839291908167ffffffffffffffff811115610cf457610cf4612960565b604051908082528060200260200182016040528015610d1d578160200160208202803683370190505b5090506000805b83811015610d945760006001600160a01b0316856003018281548110610d4c57610d4c612cff565b6000918252602090912001546001600160a01b031603610d8c5780838381518110610d7957610d79612cff565b6020026020010181815250508160010191505b600101610d24565b5060008167ffffffffffffffff811115610db057610db0612960565b604051908082528060200260200182016040528015610dd9578160200160208202803683370190505b50905060008267ffffffffffffffff811115610df757610df7612960565b604051908082528060200260200182016040528015610e20578160200160208202803683370190505b50905060005b83811015610eae57848181518110610e4057610e40612cff565b6020026020010151838281518110610e5a57610e5a612cff565b602002602001018181525050610e898a868381518110610e7c57610e7c612cff565b6020026020010151610742565b828281518110610e9b57610e9b612cff565b6020908102919091010152600101610e26565b50909890975095505050505050565b6001600160a01b03811660009081527f87101b21d556417ad2b8e8f2700dbad90721d5d50a1f435f2dee0b9dc981ac8b602090815260408083208054825181850281018501909352808352606094600080516020612f04833981519152949093929190830182828015610f4f57602002820191906000526020600020905b815481526020019060010190808311610f3b575b509398975050505050505050565b6000828152600080516020612ec483398151915260209081526040808320600080516020612ea48339815191528352818420600080516020612ee48339815191528452828520600080516020612e8483398151915285528386206001600160a01b038816875260058201865284872054600a82018752858820546015850190975294872054825494969395929491939160ff91821691600291610100900416600381111561100d5761100d612ae5565b14806110165750805b1561102c576110258284612d15565b9750611128565b60018554610100900460ff16600381111561104957611049612ae5565b03611123576001600160a01b038916600090815260078701602052604081205460ff1661109757600a61107b8c6120f6565b61108690600f612cab565b6110909190612ceb565b90506110f4565b6000876004015488601401546110ad9190612cc2565b905060006110cc8a60060154670de0b6b3a76400006105cc9190612cab565b9050600a6110da8284612cab565b6110e590600f612cab565b6110ef9190612ceb565b925050505b8084111561111857826111078286612cc2565b6111119190612d15565b985061111d565b600098505b50611128565b600097505b5050505050505092915050565b600080516020612f0483398151915280546000918291829061115990600190612cc2565b9154919491935090915050565b6000818152600080516020612e8483398151915260205260408120600281015482906111929042612cc2565b90508082600401546111a386611ca7565b6111b590670de0b6b3a7640000612cab565b6111bf9190612ceb565b610826906301e13380612cab565b6000807f138fa7b895cc6132bd44317f3510a9c38821e93ca223f9fdc532527c01963ec490506000806000808460000160405161121790661155120bd554d160ca1b815260070190565b9081526040805191829003602001822054633fabe5a360e21b835290516001600160a01b039091169163feaf968c9160048083019260a09291908290030181865afa15801561126a573d6000803e3d6000fd5b505050506040513d601f19601f8201168201806040525081019061128e9190612d3f565b945094505093509350816000141580156112ba5750836001600160501b0316816001600160501b031610155b80156112c65750600083135b6113125760405162461bcd60e51b815260206004820152601b60248201527f436861696e6c696e6b4f7261636c653a207374616c652064617461000000000060448201526064016107a2565b6000806000808860000160405161133790671554d110cbd554d160c21b815260080190565b9081526040805191829003602001822054633fabe5a360e21b835290516001600160a01b039091169163feaf968c9160048083019260a09291908290030181865afa15801561138a573d6000803e3d6000fd5b505050506040513d601f19601f820116820180604052508101906113ae9190612d3f565b945094505093509350816000141580156113da5750836001600160501b0316816001600160501b031610155b80156113e65750600083135b6114325760405162461bcd60e51b815260206004820152601b60248201527f436861696e6c696e6b4f7261636c653a207374616c652064617461000000000060448201526064016107a2565b600061143e8489612d8f565b905061145281670de0b6b3a7640000612dbd565b9a505050505050505050505090565b6000818152600080516020612ec483398151915260209081526040808320600080516020612ee48339815191529092528220600181015483036114e65760405162461bcd60e51b815260206004820152601860248201527f4e6f626f647920686173206465706f736974656420796574000000000000000060448201526064016107a2565b816003015481600101546114fa9190612d15565b421061150a575060009392505050565b428260030154826001015461151f9190612d15565b6108309190612cc2565b6000818152600080516020612ea483398151915260209081526040808320600080516020612ec48339815191529092528220600282015460048301546005830154859291610b7391612cab565b6000808080806060818080600080516020612e8483398151915260000160008b815260200190815260200160002090508060000160009054906101000a900460ff16816002015482600301548360040154846005015485600601866001016040516115f0906816985e5b95985d5b1d60ba1b815260090190565b908152604051908190036020018120546001600160a01b0316906001890190611626906605a61796e5a61760cc1b815260070190565b908152604080519182900360209081018320548554808302850183019093528284526001600160a01b03169291859183018282801561168e57602002820191906000526020600020905b81546001600160a01b03168152600190910190602001808311611670575b505050505092509850985098509850985098509850985050919395975091939597565b6040516000908190819081907f138fa7b895cc6132bd44317f3510a9c38821e93ca223f9fdc532527c01963ec4907ff27a5986330dc78d016d8604ee1a040d5a789fbaa2d0c27f5dfded4b616b897790829061170e908c90612ded565b908152604051908190036020018120546001600160a01b0316908390611735908c90612ded565b908152604051908190036020018120546001600160a01b031690839061175c908c90612ded565b908152604051908190036020018120546001600160a01b0316908490611783908c90612ded565b9081526040519081900360200190205492985090965094506001600160a01b031692505050945094509450949050565b6000818152600080516020612ee483398151915260209081526040808320600080516020612ea48339815191528352818420600080516020612ec483398151915284528285206001600160a01b038816865260068201909452918420548493849384938493909290849060ff166118465761183f8260060154670de0b6b3a76400006105cc9190612cab565b9050611852565b61184f8a6120f6565b90505b6001600160a01b039a909a1660009081526004840160209081526040808320546005870183528184205460068801845282852054600790980190935292205460ff9092169c909b949a5090985092965091945050505050565b6000610bd683836122c2565b6000806118c26111cd565b905060008161082685670de0b6b3a7640000612cab565b6000808060608180808080600080516020612ea483398151915260008b81526020918252604090819020805460028201546003830154600484015460148501546001860180548851818b0281018b0190995280895296995060ff80871699610100880490911698620100009097046001600160a01b031697919691879183018282801561198f57602002820191906000526020600020905b81546001600160a01b03168152600190910190602001808311611971575b505050505094509850985098509850985098509850985050919395975091939597565b6000828152600080516020612ea483398151915260209081526040808320600080516020612ee483398151915283528184206001600160a01b0386168552600582019093529083205490919060ff16158015611a2957506001600160a01b038416600090815260048201602052604090205460ff16155b15611a3957600192505050610cae565b600092505050610cae565b505092915050565b6000818152600080516020612ea4833981519152602052604081206004810154600180830191611a7c9190612cc2565b81548110611a8c57611a8c612cff565b6000918252602090912001546001600160a01b03169392505050565b6000808080606081600080516020612ee48339815191526000888152602091825260409081902080546001820154600283015460038401805486518189028101890190975280875294975060ff808516976101009095041695929491939092918391830182828015611b4357602002820191906000526020600020905b81546001600160a01b03168152600190910190602001808311611b25575b50505050509050955095509550955095505091939590929450565b611bce60408051610160810190915260008082526020820190815260200160006001600160a01b031681526020016000815260200160008152602001600081526020016000815260200160008152602001600081526020016000815260200160006001600160a01b031681525090565b6000828152600080516020612ec4833981519152602090815260409182902082516101608101909352805460ff808216151585529192840191610100909104166003811115611c1f57611c1f612ae5565b6003811115611c3057611c30612ae5565b815281546001600160a01b036201000090910481166020830152600183015460408301526002830154606083015260038301546080830152600483015460a0830152600583015460c0830152600683015460e083015260078301546101008301526008909201549091166101209091015292915050565b6000818152600080516020612e8483398151915260209081526040808320600681018054835181860281018601909452808452919385938493909291830182828015611d1c57602002820191906000526020600020905b81546001600160a01b03168152600190910190602001808311611cfe575b505083519394506000925050505b81811015611d8857846008016000848381518110611d4a57611d4a612cff565b60200260200101516001600160a01b03166001600160a01b031681526020019081526020016000205484611d7e9190612d15565b9350600101611d2a565b506000611d958786612409565b90508460040154811115611dc7576004850154611db28286612d15565b611dbc9190612cc2565b979650505050505050565b509195945050505050565b60606000611ddf84610ebd565b90506000815167ffffffffffffffff811115611dfd57611dfd612960565b604051908082528060200260200182016040528015611e26578160200160208202803683370190505b508251909150600090815b81811015611ef557866003811115611e4b57611e4b612ae5565b600080516020612f048339815191526001016000878481518110611e7157611e71612cff565b6020026020010151815260200190815260200160002060000160019054906101000a900460ff166003811115611ea957611ea9612ae5565b03611eed57848181518110611ec057611ec0612cff565b6020026020010151848481518110611eda57611eda612cff565b6020026020010181815250508260010192505b600101611e31565b5060008267ffffffffffffffff811115611f1157611f11612960565b604051908082528060200260200182016040528015611f3a578160200160208202803683370190505b50905060005b83811015611f8757848181518110611f5a57611f5a612cff565b6020026020010151828281518110611f7457611f74612cff565b6020908102919091010152600101611f40565b50979650505050505050565b6000806000611fa3846001611dd2565b90506000611fb2856000611dd2565b825181519192509060005b82811015612060576000600080516020612f048339815191526001016000878481518110611fed57611fed612cff565b602002602001015181526020019081526020016000209050600061202987848151811061201c5761201c612cff565b6020026020010151610b9c565b82600601546120389190612cab565b61204590620f4240612cab565b90506120518189612d15565b97508260010192505050611fbd565b5060005b818110156120ea576000600080516020612f04833981519152600101600086848151811061209457612094612cff565b6020026020010151815260200190815260200160002090506000816004015482600601546120c29190612cab565b6120cf90620f4240612cab565b90506120db8189612d15565b97508260010192505050612064565b50939695505050505050565b6000818152600080516020612ea483398151915260209081526040808320600080516020612ec4833981519152909252822060048201546014830154849190612140906001612d15565b61214a9190612cc2565b905060006121698360060154670de0b6b3a76400006105cc9190612cab565b90506121758183612cab565b9695505050505050565b6000818152600080516020612ea48339815191526020526040812081908190816121ac600d830188612555565b905060006121bd83600f0189612555565b905060006121ce846011018a612555565b9299919850919650945050505050565b6000818152600080516020612ea483398151915260209081526040808320600080516020612ee483398151915283528184206001600160a01b0387168552601582019093529083205490919060ff161561223b5760009250611a44565b60006064612248866120f6565b61225390606e612cab565b61225d9190612ceb565b6001600160a01b038716600090815260058401602052604090205490915081111561228b5760019350612290565b600093505b50505092915050565b600080670de0b6b3a76400006122af8585612577565b6122b886612603565b6108269190612cab565b6000828152600080516020612ee4833981519152602090815260408083206001600160a01b038516845260058101909252822054829061231e866000908152600080516020612ea4833981519152602052604090205460ff1690565b61239d5760405163bb91b76d60e01b81526001600160a01b038616600482015260248101879052309063bb91b76d9060440160a060405180830381865afa15801561236d573d6000803e3d6000fd5b505050506040513d601f19601f820116820180604052508101906123919190612e1c565b95506124009350505050565b60405163f0d826e760e01b815260048101879052309063f0d826e790602401602060405180830381865afa1580156123d9573d6000803e3d6000fd5b505050506040513d601f19601f820116820180604052508101906123fd9190612e6a565b91505b10949350505050565b6000808260010160405161242c906816985e5b95985d5b1d60ba1b815260090190565b90815260405190819003602001812054631398fee160e31b82526001600160a01b031690639cc7f7089061246890879060040190815260200190565b602060405180830381865afa158015612485573d6000803e3d6000fd5b505050506040513d601f19601f820116820180604052508101906124a99190612e6a565b90506000836001016040516124cd906816985e5b95985d5b1d60ba1b815260090190565b908152604080516020928190038301812054631df1ee3f60e21b825291516001600160a01b03909216926377c7b8fc926004808401938290030181865afa15801561251c573d6000803e3d6000fd5b505050506040513d601f19601f820116820180604052508101906125409190612e6a565b9050670de0b6b3a76400006107f18284612cab565b6001600160a01b03811660009081526001830160205260408120541515610bd6565b6000828152600080516020612e8483398151915260205260408120600481015482036125a7576000915050610cae565b60038101546001600160a01b0384166000908152600983016020908152604080832054600b8601909252909120546125df9190612cc2565b6125f190670de0b6b3a7640000612cab565b6125fb9190612ceb565b915050610cae565b6000818152600080516020612e84833981519152602052604080822081516816985e5b95985d5b1d60ba1b8152600182016009820152915191829003602901822054631398fee160e31b835260048301859052909183916001600160a01b031690639cc7f70890602401602060405180830381865afa15801561268a573d6000803e3d6000fd5b505050506040513d601f19601f820116820180604052508101906126ae9190612e6a565b90506000826001016040516126d2906816985e5b95985d5b1d60ba1b815260090190565b908152604080516020928190038301812054631df1ee3f60e21b825291516001600160a01b03909216926377c7b8fc926004808401938290030181865afa158015612721573d6000803e3d6000fd5b505050506040513d601f19601f820116820180604052508101906127459190612e6a565b90506000670de0b6b3a764000061275c8385612cab565b6127669190612ceb565b905083600401548111156127835760048401546121759082612cc2565b50600095945050505050565b600080604083850312156127a257600080fd5b50508035926020909101359150565b6000602082840312156127c357600080fd5b5035919050565b80356001600160a01b03811681146127e157600080fd5b919050565b600080604083850312156127f957600080fd5b612802836127ca565b946020939093013593505050565b60006020828403121561282257600080fd5b610bd6826127ca565b600081518084526020808501945080840160005b8381101561285b5781518752958201959082019060010161283f565b509495945050505050565b602081526000610bd6602083018461282b565b6000806040838503121561288c57600080fd5b8235915061289c602084016127ca565b90509250929050565b6040815260006128b8604083018561282b565b82810360208401526107fb818561282b565b600081518084526020808501945080840160005b8381101561285b5781516001600160a01b0316875295820195908201906001016128de565b60006101008a151583528960208401528860408401528760608401528660808401528060a0840152612937818401876128ca565b6001600160a01b0395861660c08501529390941660e09092019190915250979650505050505050565b634e487b7160e01b600052604160045260246000fd5b600082601f83011261298757600080fd5b813567ffffffffffffffff808211156129a2576129a2612960565b604051601f8301601f19908116603f011681019082821181831017156129ca576129ca612960565b816040528381528660208588010111156129e357600080fd5b836020870160208301376000602085830101528094505050505092915050565b60008060008060808587031215612a1957600080fd5b843567ffffffffffffffff80821115612a3157600080fd5b612a3d88838901612976565b95506020870135915080821115612a5357600080fd5b612a5f88838901612976565b94506040870135915080821115612a7557600080fd5b612a8188838901612976565b93506060870135915080821115612a9757600080fd5b50612aa487828801612976565b91505092959194509250565b600080600060608486031215612ac557600080fd5b8335925060208401359150612adc604085016127ca565b90509250925092565b634e487b7160e01b600052602160045260246000fd5b60006101008a1515835260058a10612b1557612b15612ae5565b602083018a90526001600160a01b038916604084015260608301819052612b3e818401896128ca565b9150508560808301528460a08301528360c08301528260e08301529998505050505050505050565b60048110612b7657612b76612ae5565b50565b8515158152612b8785612b66565b84602082015283604082015282606082015260a060808201526000611dbc60a08301846128ca565b612bb881612b66565b9052565b81511515815261016081016020830151612bd96020840182612baf565b506040830151612bf460408401826001600160a01b03169052565b50606083015160608301526080830151608083015260a083015160a083015260c083015160c083015260e083015160e083015261010080840151818401525061012080840151818401525061014080840151611a44828501826001600160a01b03169052565b60008060408385031215612c6d57600080fd5b612c76836127ca565b9150602083013560048110612c8a57600080fd5b809150509250929050565b634e487b7160e01b600052601160045260246000fd5b8082028115828204841417610cae57610cae612c95565b81810381811115610cae57610cae612c95565b634e487b7160e01b600052601260045260246000fd5b600082612cfa57612cfa612cd5565b500490565b634e487b7160e01b600052603260045260246000fd5b80820180821115610cae57610cae612c95565b80516001600160501b03811681146127e157600080fd5b600080600080600060a08688031215612d5757600080fd5b612d6086612d28565b9450602086015193506040860151925060608601519150612d8360808701612d28565b90509295509295909350565b600082612d9e57612d9e612cd5565b600160ff1b821460001984141615612db857612db8612c95565b500590565b80820260008212600160ff1b84141615612dd957612dd9612c95565b8181058314821517610cae57610cae612c95565b6000825160005b81811015612e0e5760208186018101518583015201612df4565b506000920191825250919050565b600080600080600060a08688031215612e3457600080fd5b85518015158114612e4457600080fd5b602087015160408801516060890151608090990151929a91995097965090945092505050565b600060208284031215612e7c57600080fd5b505191905056fe29d9cba46c358ba7c1b8945751229339792c7c62e3197c240fa98916e75ffbf96751f7e27cecf86d7136f5749c224248cae80a39fafb59f8f6bf12c52816307c87101b21d556417ad2b8e8f2700dbad90721d5d50a1f435f2dee0b9dc981ac8a35fa70a6f9ae8a4d427ebe0c1be62ffd2870fecc1df41c6fda0bf5803e56288887101b21d556417ad2b8e8f2700dbad90721d5d50a1f435f2dee0b9dc981ac89a26469706673582212208e1e1ee5b212eca569bd17f778d9f0f5d857e64a9d0e03fa581f14b05902fbe864736f6c63430008120033",
  "devdoc": {
    "kind": "dev",
    "methods": {
      "expelledBeforeBeneficiary(uint256,address)": {
        "params": {
          "termId": "the id of the term",
          "user": "the address of the participant to check"
        },
        "returns": {
          "_0": "true if the participant is expelled before being a beneficiary"
        }
      },
      "getAllJoinedTerms(address)": {
        "params": {
          "participant": "the participant address"
        },
        "returns": {
          "_0": "an array with the term ids the participant is part of"
        }
      },
      "getAvailablePositionsAndSecurityAmount(uint256)": {
        "params": {
          "termId": "the term id"
        }
      },
      "getCollateralSummary(uint256)": {
        "params": {
          "termId": "the collateral id"
        },
        "returns": {
          "_0": "collateral initialized",
          "_1": "collateral state",
          "_2": "collateral firstDepositTime",
          "_3": "counterMembers",
          "_4": "collateral depositors"
        }
      },
      "getConstants(string,string,string,string)": {
        "params": {
          "firstAggregator": "The name of the first aggregator. Example: \"ETH/USD\"",
          "secondAggregator": "The name of the second aggregator. Example: \"USDC/USD\"",
          "vaultAddress": "The name of the vault address. Example: \"ZaynVault\"",
          "zapAddress": "The name of the zap address. Example: \"ZaynZap\""
        }
      },
      "getCurrentBeneficiary(uint256)": {
        "params": {
          "termId": "the fund id"
        },
        "returns": {
          "_0": "the current beneficiary"
        }
      },
      "getDepositorCollateralSummary(address,uint256)": {
        "params": {
          "depositor": "the depositor address",
          "termId": "the collateral id"
        },
        "returns": {
          "_0": "isCollateralMember",
          "_1": "collateralMembersBank",
          "_2": "collateralPaymentBank",
          "_3": "collateralDepositByUser",
          "_4": "expulsion limit"
        }
      },
      "getExpelledTerms(address)": {
        "params": {
          "participant": "the participant address"
        },
        "returns": {
          "_0": "an array the term ids the participant is part of, giving the state of the term"
        }
      },
      "getFundSummary(uint256)": {
        "params": {
          "termId": "the fund id"
        },
        "returns": {
          "_0": "fund initialized",
          "_1": "fund currentState",
          "_2": "fund stableToken",
          "_3": "fund beneficiariesOrder",
          "_4": "fund fundStart",
          "_5": "fund fundEnd",
          "_6": "fund currentCycle",
          "_7": "fund totalAmountOfCycles"
        }
      },
      "getJoinedTermsByState(address,uint8)": {
        "params": {
          "participant": "the participant address",
          "state": "the term state"
        },
        "returns": {
          "_0": "an array with the term ids the participant is part of, giving the state of the term"
        }
      },
      "getLatestPrice()": {
        "returns": {
          "_0": "uint latest price in Wei Note: 18 decimals"
        }
      },
      "getNeededAllowance(address)": {
        "params": {
          "user": "the user address"
        },
        "returns": {
          "_0": "the needed allowance"
        }
      },
      "getParticipantFundSummary(address,uint256)": {
        "params": {
          "participant": "the user to get the info from",
          "termId": "the fund id"
        },
        "returns": {
          "_0": "fund isParticipant, true if is participant",
          "_1": "fund isBeneficiary, true if has been beneficiary",
          "_2": "fund paidThisCycle, true if has paid the current cycle",
          "_3": "fund autoPayEnabled, true if auto pay is enabled",
          "_4": "fund beneficiariesPool, the beneficiary pool, 6 decimals",
          "_5": "fund beneficiariesFrozenPool, true if the beneficiary pool is frozen"
        }
      },
      "getRemainingContributionTime(uint256)": {
        "params": {
          "termId": "the fund id"
        },
        "returns": {
          "_0": "the time left to contribute"
        }
      },
      "getRemainingCycleTime(uint256)": {
        "params": {
          "termId": "the term id"
        },
        "returns": {
          "_0": "remaining time in the current cycle"
        }
      },
      "getRemainingCycles(uint256)": {
        "params": {
          "termId": "the term id"
        },
        "returns": {
          "_0": "remaining cycles"
        }
      },
      "getRemainingCyclesContributionWei(uint256)": {
        "params": {
          "termId": "the term id"
        },
        "returns": {
          "_0": "remaining cycles contribution"
        }
      },
      "getRemainingRegistrationTime(uint256)": {
        "params": {
          "termId": "the term id"
        },
        "returns": {
          "_0": "remaining contribution period"
        }
      },
      "getTermSummary(uint256)": {
        "params": {
          "termId": "the term id"
        },
        "returns": {
          "_0": "the term struct"
        }
      },
      "getTermsId()": {
        "returns": {
          "_0": "the current term id",
          "_1": "the next term id"
        }
      },
      "getToCollateralConversionRate(uint256)": {
        "details": "should we always deal with in Wei?",
        "params": {
          "USDAmount": "The amount in USD with 18 decimals"
        },
        "returns": {
          "_0": "uint converted amount in wei"
        }
      },
      "getToStableConversionRate(uint256)": {
        "details": "should we always deal with in Wei?",
        "params": {
          "ethAmount": "The amount in ETH"
        },
        "returns": {
          "_0": "uint converted amount in USD correct to 18 decimals"
        }
      },
      "getUserSet(address,uint256)": {
        "params": {
          "participant": "the user to get the info from",
          "termId": "the fund id"
        },
        "returns": {
          "_0": "on participant set",
          "_1": "on beneficiary set",
          "_2": "on defaulter set"
        }
      },
      "getUserYieldSummary(address,uint256)": {
        "params": {
          "termId": "the collateral id",
          "user": "the depositor address"
        },
        "returns": {
          "_0": "hasOptedIn",
          "_1": "withdrawnYield",
          "_2": "withdrawnCollateral",
          "_3": "availableYield",
          "_4": "depositedCollateralByUser",
          "_5": "yieldDistributed"
        }
      },
      "getWithdrawableUserBalance(uint256,address)": {
        "params": {
          "termId": "term id",
          "user": "depositor address"
        },
        "returns": {
          "allowedWithdrawal": "amount the amount of collateral the depositor can withdraw"
        }
      },
      "getYieldSummary(uint256)": {
        "params": {
          "termId": "the collateral id"
        },
        "returns": {
          "_0": "initialized",
          "_1": "startTimeStamp",
          "_2": "totalDeposit",
          "_3": "currentTotalDeposit",
          "_4": "totalShares",
          "_5": "yieldUsers",
          "_6": "vaultAddress",
          "_7": "zapAddress"
        }
      },
      "isBeneficiary(uint256,address)": {
        "params": {
          "beneficiary": "the address of the participant to check",
          "termId": "the id of the term"
        },
        "returns": {
          "_0": "true if the participant is a beneficiary"
        }
      },
      "isExempted(uint256,uint256,address)": {
        "params": {
          "cycle": "the cycle to check",
          "termId": "the fund id",
          "user": "the user to check"
        },
        "returns": {
          "_0": "true if the user is exempted"
        }
      },
      "isUnderCollaterized(uint256,address)": {
        "details": "This will revert if called during ReleasingCollateral or after",
        "params": {
          "member": "The user to check for",
          "termId": "The term id"
        },
        "returns": {
          "_0": "Bool check if member is below 1.0x of collateralDeposit"
        }
      },
      "minCollateralToDeposit(uint256,uint256)": {
        "details": "The minimum collateral amount is calculated based on the index on the depositors arrayThe return value should be the minimum msg.value when calling joinTermC = 1.5 Cp (Tp - I) where C = minimum collateral amount, Cp = contribution amount, Tp = total participants, I = depositor index (starts at 0). 1.5",
        "returns": {
          "amount": "the minimum collateral amount to deposit in wei"
        }
      },
      "termAPY(uint256)": {
        "params": {
          "termId": "The term id for which the APY is being calculated"
        },
        "returns": {
          "_0": "The APY for the term"
        }
      },
      "totalYieldGenerated(uint256)": {
        "params": {
          "termId": "The term id for which the yield is being calculated"
        },
        "returns": {
          "_0": "The total yield generated for the term"
        }
      },
      "userAPY(uint256,address)": {
        "params": {
          "termId": "The term id for which the APY is being calculated",
          "user": "The user for which the APY is being calculated"
        },
        "returns": {
          "_0": "The APY for the user"
        }
      },
      "userHasoptedInYG(uint256,address)": {
        "params": {
          "termId": "The term id for which the check is being made",
          "user": "The user for which the check is being made"
        },
        "returns": {
          "_0": "True if the user has opted in"
        }
      },
      "wasExpelled(uint256,address)": {
        "params": {
          "termId": "the fund id",
          "user": "the user to check"
        },
        "returns": {
          "_0": "true if the user was expelled before"
        }
      }
    },
    "version": 1
  },
  "userdoc": {
    "kind": "user",
    "methods": {
      "getAvailablePositionsAndSecurityAmount(uint256)": {
        "notice": "Gets the remaining positions in a term and the corresponding security amount"
      },
      "getConstants(string,string,string,string)": {
        "notice": "This function return the current constant values for oracles and yield providers"
      },
      "getCurrentBeneficiary(uint256)": {
        "notice": "function to get the current beneficiary"
      },
      "getFundSummary(uint256)": {
        "notice": "function to get the cycle information in one go"
      },
      "getLatestPrice()": {
        "notice": "Gets latest ETH / USD price"
      },
      "getNeededAllowance(address)": {
        "notice": "a function to get the needed allowance for every active term the user is part of"
      },
      "getParticipantFundSummary(address,uint256)": {
        "notice": "function to get fund information of a specific participant"
      },
      "getRemainingContributionTime(uint256)": {
        "notice": "returns the time left to contribute for this cycle"
      },
      "getRemainingRegistrationTime(uint256)": {
        "notice": "Gets the remaining registration period for a term"
      },
      "getToCollateralConversionRate(uint256)": {
        "notice": "Gets the conversion rate of an amount in USD to ETH"
      },
      "getToStableConversionRate(uint256)": {
        "notice": "Gets the conversion rate of an amount in ETH to USD"
      },
      "getUserSet(address,uint256)": {
        "notice": "function to get cycle information of a specific participant"
      },
      "getWithdrawableUserBalance(uint256,address)": {
        "notice": "Called to check how much collateral a user can withdraw"
      },
      "getYieldLockState()": {
        "notice": "This function is used to get the current state of the yield lock"
      },
      "isExempted(uint256,uint256,address)": {
        "notice": "function to see if a user is exempted from paying a cycle"
      },
      "isUnderCollaterized(uint256,address)": {
        "notice": "Checks if a user has a collateral below 1.0x of total contribution amount"
      },
      "minCollateralToDeposit(uint256,uint256)": {
        "notice": "Called to check the minimum collateral amount to deposit in wei"
      },
      "termAPY(uint256)": {
        "notice": "This function is used to get a term APY"
      },
      "totalYieldGenerated(uint256)": {
        "notice": "This function is used to get the total yield generated for a term"
      },
      "userAPY(uint256,address)": {
        "notice": "This function is used to get a user APY"
      },
      "userHasoptedInYG(uint256,address)": {
        "notice": "This function is used to check if a user has opted in for yield generation"
      },
      "wasExpelled(uint256,address)": {
        "notice": "function to know if a user was expelled before"
      }
    },
    "version": 1
  },
  "storageLayout": {
    "storage": [],
    "types": null
  }
}