{
  "address": "0x7d272C90436Cf70Dc071843199c9c832ac5A9c1e",
  "abi": [
    {
      "inputs": [
        {
          "internalType": "uint256",
          "name": "termId",
          "type": "uint256"
        },
        {
          "internalType": "address",
          "name": "user",
          "type": "address"
        }
      ],
      "name": "expelledBeforeBeneficiary",
      "outputs": [
        {
          "internalType": "bool",
          "name": "",
          "type": "bool"
        }
      ],
      "stateMutability": "view",
      "type": "function"
    },
    {
      "inputs": [
        {
          "internalType": "address",
          "name": "participant",
          "type": "address"
        }
      ],
      "name": "getAllJoinedTerms",
      "outputs": [
        {
          "internalType": "uint256[]",
          "name": "",
          "type": "uint256[]"
        }
      ],
      "stateMutability": "view",
      "type": "function"
    },
    {
      "inputs": [
        {
          "internalType": "uint256",
          "name": "termId",
          "type": "uint256"
        }
      ],
      "name": "getCollateralSummary",
      "outputs": [
        {
          "internalType": "bool",
          "name": "",
          "type": "bool"
        },
        {
          "internalType": "enum LibCollateralStorage.CollateralStates",
          "name": "",
          "type": "uint8"
        },
        {
          "internalType": "uint256",
          "name": "",
          "type": "uint256"
        },
        {
          "internalType": "uint256",
          "name": "",
          "type": "uint256"
        },
        {
          "internalType": "address[]",
          "name": "",
          "type": "address[]"
        }
      ],
      "stateMutability": "view",
      "type": "function"
    },
    {
      "inputs": [
        {
          "internalType": "string",
          "name": "firstAggregator",
          "type": "string"
        },
        {
          "internalType": "string",
          "name": "secondAggregator",
          "type": "string"
        },
        {
          "internalType": "string",
          "name": "zapAddress",
          "type": "string"
        },
        {
          "internalType": "string",
          "name": "vaultAddress",
          "type": "string"
        }
      ],
      "name": "getConstants",
      "outputs": [
        {
          "internalType": "address",
          "name": "",
          "type": "address"
        },
        {
          "internalType": "address",
          "name": "",
          "type": "address"
        },
        {
          "internalType": "address",
          "name": "",
          "type": "address"
        },
        {
          "internalType": "address",
          "name": "",
          "type": "address"
        }
      ],
      "stateMutability": "view",
      "type": "function"
    },
    {
      "inputs": [
        {
          "internalType": "uint256",
          "name": "termId",
          "type": "uint256"
        }
      ],
      "name": "getCurrentBeneficiary",
      "outputs": [
        {
          "internalType": "address",
          "name": "",
          "type": "address"
        }
      ],
      "stateMutability": "view",
      "type": "function"
    },
    {
      "inputs": [
        {
          "internalType": "address",
          "name": "depositor",
          "type": "address"
        },
        {
          "internalType": "uint256",
          "name": "termId",
          "type": "uint256"
        }
      ],
      "name": "getDepositorCollateralSummary",
      "outputs": [
        {
          "internalType": "bool",
          "name": "",
          "type": "bool"
        },
        {
          "internalType": "uint256",
          "name": "",
          "type": "uint256"
        },
        {
          "internalType": "uint256",
          "name": "",
          "type": "uint256"
        },
        {
          "internalType": "uint256",
          "name": "",
          "type": "uint256"
        },
        {
          "internalType": "uint256",
          "name": "",
          "type": "uint256"
        }
      ],
      "stateMutability": "view",
      "type": "function"
    },
    {
      "inputs": [
        {
          "internalType": "address",
          "name": "participant",
          "type": "address"
        }
      ],
      "name": "getExpelledTerms",
      "outputs": [
        {
          "internalType": "uint256[]",
          "name": "",
          "type": "uint256[]"
        }
      ],
      "stateMutability": "view",
      "type": "function"
    },
    {
      "inputs": [
        {
          "internalType": "uint256",
          "name": "termId",
          "type": "uint256"
        }
      ],
      "name": "getFundSummary",
      "outputs": [
        {
          "internalType": "bool",
          "name": "",
          "type": "bool"
        },
        {
          "internalType": "enum LibFundStorage.FundStates",
          "name": "",
          "type": "uint8"
        },
        {
          "internalType": "contract IERC20",
          "name": "",
          "type": "address"
        },
        {
          "internalType": "address[]",
          "name": "",
          "type": "address[]"
        },
        {
          "internalType": "uint256",
          "name": "",
          "type": "uint256"
        },
        {
          "internalType": "uint256",
          "name": "",
          "type": "uint256"
        },
        {
          "internalType": "uint256",
          "name": "",
          "type": "uint256"
        },
        {
          "internalType": "uint256",
          "name": "",
          "type": "uint256"
        }
      ],
      "stateMutability": "view",
      "type": "function"
    },
    {
      "inputs": [
        {
          "internalType": "address",
          "name": "participant",
          "type": "address"
        },
        {
          "internalType": "enum LibTermStorage.TermStates",
          "name": "state",
          "type": "uint8"
        }
      ],
      "name": "getJoinedTermsByState",
      "outputs": [
        {
          "internalType": "uint256[]",
          "name": "",
          "type": "uint256[]"
        }
      ],
      "stateMutability": "view",
      "type": "function"
    },
    {
      "inputs": [],
      "name": "getLatestPrice",
      "outputs": [
        {
          "internalType": "uint256",
          "name": "",
          "type": "uint256"
        }
      ],
      "stateMutability": "view",
      "type": "function"
    },
    {
      "inputs": [
        {
          "internalType": "address",
          "name": "user",
          "type": "address"
        }
      ],
      "name": "getNeededAllowance",
      "outputs": [
        {
          "internalType": "uint256",
          "name": "",
          "type": "uint256"
        }
      ],
      "stateMutability": "view",
      "type": "function"
    },
    {
      "inputs": [
        {
          "internalType": "address",
          "name": "participant",
          "type": "address"
        },
        {
          "internalType": "uint256",
          "name": "termId",
          "type": "uint256"
        }
      ],
      "name": "getParticipantFundSummary",
      "outputs": [
        {
          "internalType": "bool",
          "name": "",
          "type": "bool"
        },
        {
          "internalType": "bool",
          "name": "",
          "type": "bool"
        },
        {
          "internalType": "bool",
          "name": "",
          "type": "bool"
        },
        {
          "internalType": "bool",
          "name": "",
          "type": "bool"
        },
        {
          "internalType": "uint256",
          "name": "",
          "type": "uint256"
        },
        {
          "internalType": "bool",
          "name": "",
          "type": "bool"
        }
      ],
      "stateMutability": "view",
      "type": "function"
    },
    {
      "inputs": [
        {
          "internalType": "uint256",
          "name": "termId",
          "type": "uint256"
        }
      ],
      "name": "getRemainingContributionTime",
      "outputs": [
        {
          "internalType": "uint256",
          "name": "",
          "type": "uint256"
        }
      ],
      "stateMutability": "view",
      "type": "function"
    },
    {
      "inputs": [
        {
          "internalType": "uint256",
          "name": "termId",
          "type": "uint256"
        }
      ],
      "name": "getRemainingCycleTime",
      "outputs": [
        {
          "internalType": "uint256",
          "name": "",
          "type": "uint256"
        }
      ],
      "stateMutability": "view",
      "type": "function"
    },
    {
      "inputs": [
        {
          "internalType": "uint256",
          "name": "termId",
          "type": "uint256"
        }
      ],
      "name": "getRemainingCycles",
      "outputs": [
        {
          "internalType": "uint256",
          "name": "",
          "type": "uint256"
        }
      ],
      "stateMutability": "view",
      "type": "function"
    },
    {
      "inputs": [
        {
          "internalType": "uint256",
          "name": "termId",
          "type": "uint256"
        }
      ],
      "name": "getRemainingCyclesContributionWei",
      "outputs": [
        {
          "internalType": "uint256",
          "name": "",
          "type": "uint256"
        }
      ],
      "stateMutability": "view",
      "type": "function"
    },
    {
      "inputs": [
        {
          "internalType": "uint256",
          "name": "termId",
          "type": "uint256"
        }
      ],
      "name": "getRemainingRegistrationTime",
      "outputs": [
        {
          "internalType": "uint256",
          "name": "",
          "type": "uint256"
        }
      ],
      "stateMutability": "view",
      "type": "function"
    },
    {
      "inputs": [
        {
          "internalType": "uint256",
          "name": "termId",
          "type": "uint256"
        }
      ],
      "name": "getTermSummary",
      "outputs": [
        {
          "components": [
            {
              "internalType": "bool",
              "name": "initialized",
              "type": "bool"
            },
            {
              "internalType": "enum LibTermStorage.TermStates",
              "name": "state",
              "type": "uint8"
            },
            {
              "internalType": "address",
              "name": "termOwner",
              "type": "address"
            },
            {
              "internalType": "uint256",
              "name": "creationTime",
              "type": "uint256"
            },
            {
              "internalType": "uint256",
              "name": "termId",
              "type": "uint256"
            },
            {
              "internalType": "uint256",
              "name": "registrationPeriod",
              "type": "uint256"
            },
            {
              "internalType": "uint256",
              "name": "totalParticipants",
              "type": "uint256"
            },
            {
              "internalType": "uint256",
              "name": "cycleTime",
              "type": "uint256"
            },
            {
              "internalType": "uint256",
              "name": "contributionAmount",
              "type": "uint256"
            },
            {
              "internalType": "uint256",
              "name": "contributionPeriod",
              "type": "uint256"
            },
            {
              "internalType": "address",
              "name": "stableTokenAddress",
              "type": "address"
            }
          ],
          "internalType": "struct LibTermStorage.Term",
          "name": "",
          "type": "tuple"
        }
      ],
      "stateMutability": "view",
      "type": "function"
    },
    {
      "inputs": [],
      "name": "getTermsId",
      "outputs": [
        {
          "internalType": "uint256",
          "name": "",
          "type": "uint256"
        },
        {
          "internalType": "uint256",
          "name": "",
          "type": "uint256"
        }
      ],
      "stateMutability": "view",
      "type": "function"
    },
    {
      "inputs": [
        {
          "internalType": "uint256",
          "name": "USDAmount",
          "type": "uint256"
        }
      ],
      "name": "getToCollateralConversionRate",
      "outputs": [
        {
          "internalType": "uint256",
          "name": "",
          "type": "uint256"
        }
      ],
      "stateMutability": "view",
      "type": "function"
    },
    {
      "inputs": [
        {
          "internalType": "uint256",
          "name": "ethAmount",
          "type": "uint256"
        }
      ],
      "name": "getToStableConversionRate",
      "outputs": [
        {
          "internalType": "uint256",
          "name": "",
          "type": "uint256"
        }
      ],
      "stateMutability": "view",
      "type": "function"
    },
    {
      "inputs": [
        {
          "internalType": "address",
          "name": "participant",
          "type": "address"
        },
        {
          "internalType": "uint256",
          "name": "termId",
          "type": "uint256"
        }
      ],
      "name": "getUserSet",
      "outputs": [
        {
          "internalType": "bool",
          "name": "",
          "type": "bool"
        },
        {
          "internalType": "bool",
          "name": "",
          "type": "bool"
        },
        {
          "internalType": "bool",
          "name": "",
          "type": "bool"
        }
      ],
      "stateMutability": "view",
      "type": "function"
    },
    {
      "inputs": [
        {
          "internalType": "address",
          "name": "user",
          "type": "address"
        },
        {
          "internalType": "uint256",
          "name": "termId",
          "type": "uint256"
        }
      ],
      "name": "getUserYieldSummary",
      "outputs": [
        {
          "internalType": "bool",
          "name": "",
          "type": "bool"
        },
        {
          "internalType": "uint256",
          "name": "",
          "type": "uint256"
        },
        {
          "internalType": "uint256",
          "name": "",
          "type": "uint256"
        },
        {
          "internalType": "uint256",
          "name": "",
          "type": "uint256"
        },
        {
          "internalType": "uint256",
          "name": "",
          "type": "uint256"
        },
        {
          "internalType": "uint256",
          "name": "",
          "type": "uint256"
        }
      ],
      "stateMutability": "view",
      "type": "function"
    },
    {
      "inputs": [
        {
          "internalType": "uint256",
          "name": "termId",
          "type": "uint256"
        },
        {
          "internalType": "address",
          "name": "user",
          "type": "address"
        }
      ],
      "name": "getWithdrawableUserBalance",
      "outputs": [
        {
          "internalType": "uint256",
          "name": "allowedWithdrawal",
          "type": "uint256"
        }
      ],
      "stateMutability": "view",
      "type": "function"
    },
    {
      "inputs": [],
      "name": "getYieldLockState",
      "outputs": [
        {
          "internalType": "bool",
          "name": "",
          "type": "bool"
        }
      ],
      "stateMutability": "view",
      "type": "function"
    },
    {
      "inputs": [
        {
          "internalType": "uint256",
          "name": "termId",
          "type": "uint256"
        }
      ],
      "name": "getYieldSummary",
      "outputs": [
        {
          "internalType": "bool",
          "name": "",
          "type": "bool"
        },
        {
          "internalType": "uint256",
          "name": "",
          "type": "uint256"
        },
        {
          "internalType": "uint256",
          "name": "",
          "type": "uint256"
        },
        {
          "internalType": "uint256",
          "name": "",
          "type": "uint256"
        },
        {
          "internalType": "uint256",
          "name": "",
          "type": "uint256"
        },
        {
          "internalType": "address[]",
          "name": "",
          "type": "address[]"
        },
        {
          "internalType": "address",
          "name": "",
          "type": "address"
        },
        {
          "internalType": "address",
          "name": "",
          "type": "address"
        }
      ],
      "stateMutability": "view",
      "type": "function"
    },
    {
      "inputs": [
        {
          "internalType": "uint256",
          "name": "termId",
          "type": "uint256"
        },
        {
          "internalType": "address",
          "name": "beneficiary",
          "type": "address"
        }
      ],
      "name": "isBeneficiary",
      "outputs": [
        {
          "internalType": "bool",
          "name": "",
          "type": "bool"
        }
      ],
      "stateMutability": "view",
      "type": "function"
    },
    {
      "inputs": [
        {
          "internalType": "uint256",
          "name": "termId",
          "type": "uint256"
        },
        {
          "internalType": "uint256",
          "name": "cycle",
          "type": "uint256"
        },
        {
          "internalType": "address",
          "name": "user",
          "type": "address"
        }
      ],
      "name": "isExempted",
      "outputs": [
        {
          "internalType": "bool",
          "name": "",
          "type": "bool"
        }
      ],
      "stateMutability": "view",
      "type": "function"
    },
    {
      "inputs": [
        {
          "internalType": "uint256",
          "name": "termId",
          "type": "uint256"
        },
        {
          "internalType": "address",
          "name": "member",
          "type": "address"
        }
      ],
      "name": "isUnderCollaterized",
      "outputs": [
        {
          "internalType": "bool",
          "name": "",
          "type": "bool"
        }
      ],
      "stateMutability": "view",
      "type": "function"
    },
    {
      "inputs": [
        {
          "internalType": "uint256",
          "name": "termId",
          "type": "uint256"
        },
        {
          "internalType": "uint256",
          "name": "depositorIndex",
          "type": "uint256"
        }
      ],
      "name": "minCollateralToDeposit",
      "outputs": [
        {
          "internalType": "uint256",
          "name": "amount",
          "type": "uint256"
        }
      ],
      "stateMutability": "view",
      "type": "function"
    },
    {
      "inputs": [
        {
          "internalType": "uint256",
          "name": "termId",
          "type": "uint256"
        }
      ],
      "name": "termAPY",
      "outputs": [
        {
          "internalType": "uint256",
          "name": "",
          "type": "uint256"
        }
      ],
      "stateMutability": "view",
      "type": "function"
    },
    {
      "inputs": [
        {
          "internalType": "uint256",
          "name": "termId",
          "type": "uint256"
        }
      ],
      "name": "totalYieldGenerated",
      "outputs": [
        {
          "internalType": "uint256",
          "name": "",
          "type": "uint256"
        }
      ],
      "stateMutability": "view",
      "type": "function"
    },
    {
      "inputs": [
        {
          "internalType": "uint256",
          "name": "termId",
          "type": "uint256"
        },
        {
          "internalType": "address",
          "name": "user",
          "type": "address"
        }
      ],
      "name": "userAPY",
      "outputs": [
        {
          "internalType": "uint256",
          "name": "",
          "type": "uint256"
        }
      ],
      "stateMutability": "view",
      "type": "function"
    },
    {
      "inputs": [
        {
          "internalType": "uint256",
          "name": "termId",
          "type": "uint256"
        },
        {
          "internalType": "address",
          "name": "user",
          "type": "address"
        }
      ],
      "name": "userHasoptedInYG",
      "outputs": [
        {
          "internalType": "bool",
          "name": "",
          "type": "bool"
        }
      ],
      "stateMutability": "view",
      "type": "function"
    },
    {
      "inputs": [
        {
          "internalType": "uint256",
          "name": "termId",
          "type": "uint256"
        },
        {
          "internalType": "address",
          "name": "user",
          "type": "address"
        }
      ],
      "name": "wasExpelled",
      "outputs": [
        {
          "internalType": "bool",
          "name": "",
          "type": "bool"
        }
      ],
      "stateMutability": "view",
      "type": "function"
    }
  ],
  "args": [],
  "numDeployments": 6,
  "solcInputHash": "3441dacc34435139cf714f9b0c7ae0b3",
  "bytecode": "0x608060405234801561001057600080fd5b50612c0e806100206000396000f3fe608060405234801561001057600080fd5b50600436106102115760003560e01c806392a6c80211610125578063d8f8e991116100ad578063dc9e24ae1161007c578063dc9e24ae146106de578063e51a6295146106f1578063e9783e6014610704578063f0d826e71461074e578063fd4dba9d1461076157600080fd5b8063d8f8e9911461065c578063da3791ca14610687578063dbd57683146106ab578063dbf42810146106cb57600080fd5b8063bb91b76d116100f4578063bb91b76d146105bf578063c177f091146105fc578063d072f4bc1461060f578063d72bb87e14610622578063d7992e5b1461064957600080fd5b806392a6c802146104ee5780639d4eb26f14610501578063b6abd1a414610528578063b7cf483f1461056e57600080fd5b806365654fe3116101a857806377778baf1161017757806377778baf146104905780637aed53a6146104a357806380530731146104c05780638e15f473146104d357806391ce5ff7146104db57600080fd5b806365654fe3146103d65780636bbbb5fb146103e957806375aaa78c1461043357806375d4e40b1461044657600080fd5b80631e993b53116101e45780631e993b531461035a5780633d17f1e01461037a5780636191474c146103b057806362f02abd146103c357600080fd5b80630c64c697146102165780630fc4a7ef1461023c5780631268612d1461024f5780631c162dbe14610318575b600080fd5b610229610224366004612468565b610793565b6040519081526020015b60405180910390f35b61022961024a36600461248a565b610855565b6102df61025d3660046124bf565b6000908152600080516020612b59833981519152602090815260408083206001600160a01b039490941683526005840182528083205460068501835281842054600786018452828520546008870185528386205460098801865284872054600a909801909552929094205460ff91821696948216959282169493821693911690565b604080519615158752941515602087015292151593850193909352151560608401526080830191909152151560a082015260c001610233565b61032b6103263660046124bf565b610889565b6040805196151587526020870195909552938501929092526060840152608083015260a082015260c001610233565b61036d6103683660046124e9565b61091f565b6040516102339190612504565b7f7c039906f7f8ca11e01b6987a88513563589699678f7d2a6c8447f44d69375f35460ff165b6040519015158152602001610233565b6102296103be36600461248a565b610a92565b6102296103d136600461248a565b610b50565b6102296103e4366004612548565b610b91565b6103a06103f7366004612548565b6000918252600080516020612b59833981519152602090815260408084206001600160a01b039390931684526015909201905290205460ff1690565b61036d6104413660046124e9565b610c68565b6103a0610454366004612548565b6000918252600080516020612b39833981519152602090815260408084206001600160a01b039390931684526007909201905290205460ff1690565b61022961049e366004612548565b610d08565b6104ab610ec9565b60408051928352602083019190915201610233565b6102296104ce36600461248a565b610efa565b610229610f61565b6102296104e936600461248a565b6111f5565b6102296104fc36600461248a565b6112bd565b61051461050f36600461248a565b61130a565b6040516102339897969594939291906125b8565b61053b6105363660046126b8565b611445565b604080516001600160a01b0395861681529385166020850152918416918301919091529091166060820152608001610233565b6103a061057c366004612765565b6000928352600080516020612b5983398151915260209081526040808520938552600c90930181528284206001600160a01b039290921684525290205460ff1690565b6105d26105cd3660046124bf565b611547565b6040805195151586526020860194909452928401919091526060830152608082015260a001610233565b6103a061060a366004612548565b61163f565b61022961061d36600461248a565b61164b565b61063561063036600461248a565b61166d565b6040516102339897969594939291906127b0565b6103a0610657366004612548565b611746565b61066f61066a36600461248a565b6117e0565b6040516001600160a01b039091168152602001610233565b61069a61069536600461248a565b61183c565b60405161023395949392919061282e565b6106be6106b936600461248a565b6118f2565b6040516102339190612871565b6102296106d936600461248a565b611a3b565b61036d6106ec36600461290f565b611b66565b6102296106ff3660046124e9565b611d27565b6103a0610712366004612548565b6000918252600080516020612b59833981519152602090815260408084206001600160a01b039390931684526006909201905290205460ff1690565b61022961075c36600461248a565b611e8a565b61077461076f3660046124bf565b611f13565b6040805193151584529115156020840152151590820152606001610233565b6000828152600080516020612b7983398151915260205260408120600481015483106107fc5760405162461bcd60e51b8152602060048201526013602482015272496e646578206f7574206f6620626f756e647360681b60448201526064015b60405180910390fd5b60006108198260060154670de0b6b3a764000061061d9190612960565b9050606484836004015461082d9190612977565b6108379083612960565b610842906096612960565b61084c91906129a0565b95945050505050565b600080610860610f61565b90506000670de0b6b3a76400006108778584612960565b61088191906129a0565b949350505050565b6000818152600080516020612b398339815191526020526040812081908190819081908190816108b9898b611f72565b6001600160a01b039a909a1660009081526007830160209081526040808320546008860183528184205460098701845282852054600a8801855283862054600b909801909452919093205460ff9093169d909c919b509399509097509550909350505050565b6060600061092c83610c68565b90506000815167ffffffffffffffff81111561094a5761094a612615565b604051908082528060200260200182016040528015610973578160200160208202803683370190505b508251909150600090815b818110156109f5576109a985828151811061099b5761099b6129b4565b602002602001015188611746565b156109ed578481815181106109c0576109c06129b4565b60200260200101518484815181106109da576109da6129b4565b6020026020010181815250508260010192505b60010161097e565b5060008267ffffffffffffffff811115610a1157610a11612615565b604051908082528060200260200182016040528015610a3a578160200160208202803683370190505b50905060005b83811015610a8757848181518110610a5a57610a5a6129b4565b6020026020010151828281518110610a7457610a746129b4565b6020908102919091010152600101610a40565b509695505050505050565b6000818152600080516020612b5983398151915260209081526040808320600080516020612b7983398151915290925282208154600190610100900460ff166004811115610ae257610ae261279a565b14610af1575060009392505050565b60008160070154836002015460018560040154610b0e9190612977565b8460050154610b1d9190612960565b610b2791906129ca565b610b3191906129ca565b905080421115610b4657506000949350505050565b61084c4282612977565b6000818152600080516020612b598339815191526020526040812060048101546014820154610b809060016129ca565b610b8a9190612977565b9392505050565b6000828152600080516020612b3983398151915260209081526040808320600080516020612b99833981519152909252822060028201548390610bd49042612977565b90506000610be28787611f72565b6001600160a01b0387166000908152600886016020526040902054610c0791906129ca565b6001600160a01b03871660009081526005850160205260409020549091508290610c3983670de0b6b3a7640000612960565b610c4391906129a0565b610c51906301e13380612960565b610c5b91906129a0565b9450505050505b92915050565b6001600160a01b03811660009081527f87101b21d556417ad2b8e8f2700dbad90721d5d50a1f435f2dee0b9dc981ac8b602090815260408083208054825181850281018501909352808352606094600080516020612bb9833981519152949093929190830182828015610cfa57602002820191906000526020600020905b815481526020019060010190808311610ce6575b509398975050505050505050565b6000828152600080516020612b7983398151915260209081526040808320600080516020612b598339815191528352818420600080516020612b998339815191528452828520600080516020612b3983398151915285528386206001600160a01b038816875260058201865284872054600a82018752858820546015850190975294872054825494969395929491939160ff918216916002916101009004166003811115610db857610db861279a565b1480610dc15750805b15610dd757610dd082846129ca565b9750610ebc565b60018554610100900460ff166003811115610df457610df461279a565b03610eb7576001600160a01b038916600090815260078701602052604081205460ff16610e4257600a610e268c611e8a565b610e3190600f612960565b610e3b91906129a0565b9050610e88565b600087600401548860140154610e589190612977565b90506000610e778a60060154670de0b6b3a764000061061d9190612960565b9050610e838183612960565b925050505b80841115610eac5782610e9b8286612977565b610ea591906129ca565b9850610eb1565b600098505b50610ebc565b600097505b5050505050505092915050565b600080516020612bb9833981519152805460009182918290610eed90600190612977565b9154919491935090915050565b6000818152600080516020612b398339815191526020526040812060028101548290610f269042612977565b9050808260040154610f3786611a3b565b610f4990670de0b6b3a7640000612960565b610f5391906129a0565b610877906301e13380612960565b6000807f138fa7b895cc6132bd44317f3510a9c38821e93ca223f9fdc532527c01963ec4905060008060008084600001604051610fab90661155120bd554d160ca1b815260070190565b9081526040805191829003602001822054633fabe5a360e21b835290516001600160a01b039091169163feaf968c9160048083019260a09291908290030181865afa158015610ffe573d6000803e3d6000fd5b505050506040513d601f19601f8201168201806040525081019061102291906129f4565b9450945050935093508160001415801561104e5750836001600160501b0316816001600160501b031610155b801561105a5750600083135b6110a65760405162461bcd60e51b815260206004820152601b60248201527f436861696e6c696e6b4f7261636c653a207374616c652064617461000000000060448201526064016107f3565b600080600080886000016040516110cb90671554d110cbd554d160c21b815260080190565b9081526040805191829003602001822054633fabe5a360e21b835290516001600160a01b039091169163feaf968c9160048083019260a09291908290030181865afa15801561111e573d6000803e3d6000fd5b505050506040513d601f19601f8201168201806040525081019061114291906129f4565b9450945050935093508160001415801561116e5750836001600160501b0316816001600160501b031610155b801561117a5750600083135b6111c65760405162461bcd60e51b815260206004820152601b60248201527f436861696e6c696e6b4f7261636c653a207374616c652064617461000000000060448201526064016107f3565b60006111d28489612a44565b90506111e681670de0b6b3a7640000612a72565b9a505050505050505050505090565b6000818152600080516020612b7983398151915260209081526040808320600080516020612b9983398151915290925282206001810154830361127a5760405162461bcd60e51b815260206004820152601860248201527f4e6f626f647920686173206465706f736974656420796574000000000000000060448201526064016107f3565b8160030154816001015461128e91906129ca565b421061129e575060009392505050565b42826003015482600101546112b391906129ca565b6108819190612977565b6000818152600080516020612b5983398151915260209081526040808320600080516020612b798339815191529092528220600282015460048301546005830154859291610b2791612960565b6000808080806060818080600080516020612b3983398151915260000160008b815260200190815260200160002090508060000160009054906101000a900460ff1681600201548260030154836004015484600501548560060186600101604051611384906816985e5b95985d5b1d60ba1b815260090190565b908152604051908190036020018120546001600160a01b03169060018901906113ba906605a61796e5a61760cc1b815260070190565b908152604080519182900360209081018320548554808302850183019093528284526001600160a01b03169291859183018282801561142257602002820191906000526020600020905b81546001600160a01b03168152600190910190602001808311611404575b505050505092509850985098509850985098509850985050919395975091939597565b6040516000908190819081907f138fa7b895cc6132bd44317f3510a9c38821e93ca223f9fdc532527c01963ec4907ff27a5986330dc78d016d8604ee1a040d5a789fbaa2d0c27f5dfded4b616b89779082906114a2908c90612aa2565b908152604051908190036020018120546001600160a01b03169083906114c9908c90612aa2565b908152604051908190036020018120546001600160a01b03169083906114f0908c90612aa2565b908152604051908190036020018120546001600160a01b0316908490611517908c90612aa2565b9081526040519081900360200190205492985090965094506001600160a01b031692505050945094509450949050565b6000818152600080516020612b9983398151915260209081526040808320600080516020612b598339815191528352818420600080516020612b7983398151915284528285206001600160a01b038816865260068201909452918420548493849384938493909290849060ff166115da576115d38260060154670de0b6b3a764000061061d9190612960565b90506115e6565b6115e38a611e8a565b90505b6001600160a01b039a909a1660009081526004840160209081526040808320546005870183528184205460068801845282852054600790980190935292205460ff9092169c909b949a5090985092965091945050505050565b6000610b8a8383611f9b565b600080611656610f61565b905060008161087785670de0b6b3a7640000612960565b6000808060608180808080600080516020612b5983398151915260008b81526020918252604090819020805460028201546003830154600484015460148501546001860180548851818b0281018b0190995280895296995060ff80871699610100880490911698620100009097046001600160a01b031697919691879183018282801561172357602002820191906000526020600020905b81546001600160a01b03168152600190910190602001808311611705575b505050505094509850985098509850985098509850985050919395975091939597565b6000828152600080516020612b5983398151915260209081526040808320600080516020612b9983398151915283528184206001600160a01b0386168552600582019093529083205490919060ff161580156117bd57506001600160a01b038416600090815260048201602052604090205460ff16155b156117cd57600192505050610c62565b600092505050610c62565b505092915050565b6000818152600080516020612b598339815191526020526040812060048101546001808301916118109190612977565b81548110611820576118206129b4565b6000918252602090912001546001600160a01b03169392505050565b6000808080606081600080516020612b998339815191526000888152602091825260409081902080546001820154600283015460038401805486518189028101890190975280875294975060ff8085169761010090950416959294919390929183918301828280156118d757602002820191906000526020600020905b81546001600160a01b031681526001909101906020018083116118b9575b50505050509050955095509550955095505091939590929450565b61196260408051610160810190915260008082526020820190815260200160006001600160a01b031681526020016000815260200160008152602001600081526020016000815260200160008152602001600081526020016000815260200160006001600160a01b031681525090565b6000828152600080516020612b79833981519152602090815260409182902082516101608101909352805460ff8082161515855291928401916101009091041660038111156119b3576119b361279a565b60038111156119c4576119c461279a565b815281546001600160a01b036201000090910481166020830152600183015460408301526002830154606083015260038301546080830152600483015460a0830152600583015460c0830152600683015460e083015260078301546101008301526008909201549091166101209091015292915050565b6000818152600080516020612b3983398151915260209081526040808320600681018054835181860281018601909452808452919385938493909291830182828015611ab057602002820191906000526020600020905b81546001600160a01b03168152600190910190602001808311611a92575b505083519394506000925050505b81811015611b1c57846008016000848381518110611ade57611ade6129b4565b60200260200101516001600160a01b03166001600160a01b031681526020019081526020016000205484611b1291906129ca565b9350600101611abe565b506000611b2987866120e2565b90508460040154811115611b5b576004850154611b4682866129ca565b611b509190612977565b979650505050505050565b509195945050505050565b60606000611b7384610c68565b90506000815167ffffffffffffffff811115611b9157611b91612615565b604051908082528060200260200182016040528015611bba578160200160208202803683370190505b508251909150600090815b81811015611c8957866003811115611bdf57611bdf61279a565b600080516020612bb98339815191526001016000878481518110611c0557611c056129b4565b6020026020010151815260200190815260200160002060000160019054906101000a900460ff166003811115611c3d57611c3d61279a565b03611c8157848181518110611c5457611c546129b4565b6020026020010151848481518110611c6e57611c6e6129b4565b6020026020010181815250508260010192505b600101611bc5565b5060008267ffffffffffffffff811115611ca557611ca5612615565b604051908082528060200260200182016040528015611cce578160200160208202803683370190505b50905060005b83811015611d1b57848181518110611cee57611cee6129b4565b6020026020010151828281518110611d0857611d086129b4565b6020908102919091010152600101611cd4565b50979650505050505050565b6000806000611d37846001611b66565b90506000611d46856000611b66565b825181519192509060005b82811015611df4576000600080516020612bb98339815191526001016000878481518110611d8157611d816129b4565b6020026020010151815260200190815260200160002090506000611dbd878481518110611db057611db06129b4565b6020026020010151610b50565b8260060154611dcc9190612960565b611dd990620f4240612960565b9050611de581896129ca565b97508260010192505050611d51565b5060005b81811015611e7e576000600080516020612bb98339815191526001016000868481518110611e2857611e286129b4565b602002602001015181526020019081526020016000209050600081600401548260060154611e569190612960565b611e6390620f4240612960565b9050611e6f81896129ca565b97508260010192505050611df8565b50939695505050505050565b6000818152600080516020612b5983398151915260209081526040808320600080516020612b79833981519152909252822060048201546014830154849190611ed49060016129ca565b611ede9190612977565b90506000611efd8360060154670de0b6b3a764000061061d9190612960565b9050611f098183612960565b9695505050505050565b6000818152600080516020612b59833981519152602052604081208190819081611f40600d83018861222e565b90506000611f5183600f018961222e565b90506000611f62846011018a61222e565b9299919850919650945050505050565b600080670de0b6b3a7640000611f888585612250565b611f91866122dc565b6108779190612960565b6000828152600080516020612b99833981519152602090815260408083206001600160a01b0385168452600581019092528220548290611ff7866000908152600080516020612b59833981519152602052604090205460ff1690565b6120765760405163bb91b76d60e01b81526001600160a01b038616600482015260248101879052309063bb91b76d9060440160a060405180830381865afa158015612046573d6000803e3d6000fd5b505050506040513d601f19601f8201168201806040525081019061206a9190612ad1565b95506120d99350505050565b60405163f0d826e760e01b815260048101879052309063f0d826e790602401602060405180830381865afa1580156120b2573d6000803e3d6000fd5b505050506040513d601f19601f820116820180604052508101906120d69190612b1f565b91505b10949350505050565b60008082600101604051612105906816985e5b95985d5b1d60ba1b815260090190565b90815260405190819003602001812054631398fee160e31b82526001600160a01b031690639cc7f7089061214190879060040190815260200190565b602060405180830381865afa15801561215e573d6000803e3d6000fd5b505050506040513d601f19601f820116820180604052508101906121829190612b1f565b90506000836001016040516121a6906816985e5b95985d5b1d60ba1b815260090190565b908152604080516020928190038301812054631df1ee3f60e21b825291516001600160a01b03909216926377c7b8fc926004808401938290030181865afa1580156121f5573d6000803e3d6000fd5b505050506040513d601f19601f820116820180604052508101906122199190612b1f565b9050670de0b6b3a76400006108428284612960565b6001600160a01b03811660009081526001830160205260408120541515610b8a565b6000828152600080516020612b398339815191526020526040812060048101548203612280576000915050610c62565b60048101546001600160a01b0384166000908152600983016020908152604080832054600b8601909252909120546122b89190612977565b6122ca90670de0b6b3a7640000612960565b6122d491906129a0565b915050610c62565b6000818152600080516020612b39833981519152602052604080822081516816985e5b95985d5b1d60ba1b8152600182016009820152915191829003602901822054631398fee160e31b835260048301859052909183916001600160a01b031690639cc7f70890602401602060405180830381865afa158015612363573d6000803e3d6000fd5b505050506040513d601f19601f820116820180604052508101906123879190612b1f565b90506000826001016040516123ab906816985e5b95985d5b1d60ba1b815260090190565b908152604080516020928190038301812054631df1ee3f60e21b825291516001600160a01b03909216926377c7b8fc926004808401938290030181865afa1580156123fa573d6000803e3d6000fd5b505050506040513d601f19601f8201168201806040525081019061241e9190612b1f565b90506000670de0b6b3a76400006124358385612960565b61243f91906129a0565b9050836004015481111561245c576004840154611f099082612977565b50600095945050505050565b6000806040838503121561247b57600080fd5b50508035926020909101359150565b60006020828403121561249c57600080fd5b5035919050565b80356001600160a01b03811681146124ba57600080fd5b919050565b600080604083850312156124d257600080fd5b6124db836124a3565b946020939093013593505050565b6000602082840312156124fb57600080fd5b610b8a826124a3565b6020808252825182820181905260009190848201906040850190845b8181101561253c57835183529284019291840191600101612520565b50909695505050505050565b6000806040838503121561255b57600080fd5b8235915061256b602084016124a3565b90509250929050565b600081518084526020808501945080840160005b838110156125ad5781516001600160a01b031687529582019590820190600101612588565b509495945050505050565b60006101008a151583528960208401528860408401528760608401528660808401528060a08401526125ec81840187612574565b6001600160a01b0395861660c08501529390941660e09092019190915250979650505050505050565b634e487b7160e01b600052604160045260246000fd5b600082601f83011261263c57600080fd5b813567ffffffffffffffff8082111561265757612657612615565b604051601f8301601f19908116603f0116810190828211818310171561267f5761267f612615565b8160405283815286602085880101111561269857600080fd5b836020870160208301376000602085830101528094505050505092915050565b600080600080608085870312156126ce57600080fd5b843567ffffffffffffffff808211156126e657600080fd5b6126f28883890161262b565b9550602087013591508082111561270857600080fd5b6127148883890161262b565b9450604087013591508082111561272a57600080fd5b6127368883890161262b565b9350606087013591508082111561274c57600080fd5b506127598782880161262b565b91505092959194509250565b60008060006060848603121561277a57600080fd5b8335925060208401359150612791604085016124a3565b90509250925092565b634e487b7160e01b600052602160045260246000fd5b60006101008a1515835260058a106127ca576127ca61279a565b602083018a90526001600160a01b0389166040840152606083018190526127f381840189612574565b9150508560808301528460a08301528360c08301528260e08301529998505050505050505050565b6004811061282b5761282b61279a565b50565b851515815261283c8561281b565b84602082015283604082015282606082015260a060808201526000611b5060a0830184612574565b61286d8161281b565b9052565b8151151581526101608101602083015161288e6020840182612864565b5060408301516128a960408401826001600160a01b03169052565b50606083015160608301526080830151608083015260a083015160a083015260c083015160c083015260e083015160e0830152610100808401518184015250610120808401518184015250610140808401516117d8828501826001600160a01b03169052565b6000806040838503121561292257600080fd5b61292b836124a3565b915060208301356004811061293f57600080fd5b809150509250929050565b634e487b7160e01b600052601160045260246000fd5b8082028115828204841417610c6257610c6261294a565b81810381811115610c6257610c6261294a565b634e487b7160e01b600052601260045260246000fd5b6000826129af576129af61298a565b500490565b634e487b7160e01b600052603260045260246000fd5b80820180821115610c6257610c6261294a565b80516001600160501b03811681146124ba57600080fd5b600080600080600060a08688031215612a0c57600080fd5b612a15866129dd565b9450602086015193506040860151925060608601519150612a38608087016129dd565b90509295509295909350565b600082612a5357612a5361298a565b600160ff1b821460001984141615612a6d57612a6d61294a565b500590565b80820260008212600160ff1b84141615612a8e57612a8e61294a565b8181058314821517610c6257610c6261294a565b6000825160005b81811015612ac35760208186018101518583015201612aa9565b506000920191825250919050565b600080600080600060a08688031215612ae957600080fd5b85518015158114612af957600080fd5b602087015160408801516060890151608090990151929a91995097965090945092505050565b600060208284031215612b3157600080fd5b505191905056fe29d9cba46c358ba7c1b8945751229339792c7c62e3197c240fa98916e75ffbf96751f7e27cecf86d7136f5749c224248cae80a39fafb59f8f6bf12c52816307c87101b21d556417ad2b8e8f2700dbad90721d5d50a1f435f2dee0b9dc981ac8a35fa70a6f9ae8a4d427ebe0c1be62ffd2870fecc1df41c6fda0bf5803e56288887101b21d556417ad2b8e8f2700dbad90721d5d50a1f435f2dee0b9dc981ac89a2646970667358221220668ce581aef7fcba659c4e99b2a0ae17c1204fef77a2c238d40d56eb44fb0cff64736f6c63430008120033",
  "devdoc": {
    "kind": "dev",
    "methods": {
      "expelledBeforeBeneficiary(uint256,address)": {
        "params": {
          "termId": "the id of the term",
          "user": "the address of the participant to check"
        },
        "returns": {
          "_0": "true if the participant is expelled before being a beneficiary"
        }
      },
      "getAllJoinedTerms(address)": {
        "params": {
          "participant": "the participant address"
        },
        "returns": {
          "_0": "an array with the term ids the participant is part of"
        }
      },
      "getCollateralSummary(uint256)": {
        "params": {
          "termId": "the collateral id"
        },
        "returns": {
          "_0": "collateral initialized",
          "_1": "collateral state",
          "_2": "collateral firstDepositTime",
          "_3": "counterMembers",
          "_4": "collateral depositors"
        }
      },
      "getConstants(string,string,string,string)": {
        "params": {
          "firstAggregator": "The name of the first aggregator. Example: \"ETH/USD\"",
          "secondAggregator": "The name of the second aggregator. Example: \"USDC/USD\"",
          "vaultAddress": "The name of the vault address. Example: \"ZaynVault\"",
          "zapAddress": "The name of the zap address. Example: \"ZaynZap\""
        }
      },
      "getCurrentBeneficiary(uint256)": {
        "params": {
          "termId": "the fund id"
        },
        "returns": {
          "_0": "the current beneficiary"
        }
      },
      "getDepositorCollateralSummary(address,uint256)": {
        "params": {
          "depositor": "the depositor address",
          "termId": "the collateral id"
        },
        "returns": {
          "_0": "isCollateralMember",
          "_1": "collateralMembersBank",
          "_2": "collateralPaymentBank",
          "_3": "collateralDepositByUser",
          "_4": "expulsion limit"
        }
      },
      "getExpelledTerms(address)": {
        "params": {
          "participant": "the participant address"
        },
        "returns": {
          "_0": "an array the term ids the participant is part of, giving the state of the term"
        }
      },
      "getFundSummary(uint256)": {
        "params": {
          "termId": "the fund id"
        },
        "returns": {
          "_0": "fund initialized",
          "_1": "fund currentState",
          "_2": "fund stableToken",
          "_3": "fund beneficiariesOrder",
          "_4": "fund fundStart",
          "_5": "fund fundEnd",
          "_6": "fund currentCycle",
          "_7": "fund totalAmountOfCycles"
        }
      },
      "getJoinedTermsByState(address,uint8)": {
        "params": {
          "participant": "the participant address",
          "state": "the term state"
        },
        "returns": {
          "_0": "an array with the term ids the participant is part of, giving the state of the term"
        }
      },
      "getLatestPrice()": {
        "returns": {
          "_0": "uint latest price in Wei Note: 18 decimals"
        }
      },
      "getNeededAllowance(address)": {
        "params": {
          "user": "the user address"
        },
        "returns": {
          "_0": "the needed allowance"
        }
      },
      "getParticipantFundSummary(address,uint256)": {
        "params": {
          "participant": "the user to get the info from",
          "termId": "the fund id"
        },
        "returns": {
          "_0": "fund isParticipant, true if is participant",
          "_1": "fund isBeneficiary, true if has been beneficiary",
          "_2": "fund paidThisCycle, true if has paid the current cycle",
          "_3": "fund autoPayEnabled, true if auto pay is enabled",
          "_4": "fund beneficiariesPool, the beneficiary pool, 6 decimals",
          "_5": "fund beneficiariesFrozenPool, true if the beneficiary pool is frozen"
        }
      },
      "getRemainingContributionTime(uint256)": {
        "params": {
          "termId": "the fund id"
        },
        "returns": {
          "_0": "the time left to contribute"
        }
      },
      "getRemainingCycleTime(uint256)": {
        "params": {
          "termId": "the term id"
        },
        "returns": {
          "_0": "remaining time in the current cycle"
        }
      },
      "getRemainingCycles(uint256)": {
        "params": {
          "termId": "the term id"
        },
        "returns": {
          "_0": "remaining cycles"
        }
      },
      "getRemainingCyclesContributionWei(uint256)": {
        "params": {
          "termId": "the term id"
        },
        "returns": {
          "_0": "remaining cycles contribution"
        }
      },
      "getRemainingRegistrationTime(uint256)": {
        "params": {
          "termId": "the term id"
        },
        "returns": {
          "_0": "remaining contribution period"
        }
      },
      "getTermSummary(uint256)": {
        "params": {
          "termId": "the term id"
        },
        "returns": {
          "_0": "the term struct"
        }
      },
      "getTermsId()": {
        "returns": {
          "_0": "the current term id",
          "_1": "the next term id"
        }
      },
      "getToCollateralConversionRate(uint256)": {
        "details": "should we always deal with in Wei?",
        "params": {
          "USDAmount": "The amount in USD with 18 decimals"
        },
        "returns": {
          "_0": "uint converted amount in wei"
        }
      },
      "getToStableConversionRate(uint256)": {
        "details": "should we always deal with in Wei?",
        "params": {
          "ethAmount": "The amount in ETH"
        },
        "returns": {
          "_0": "uint converted amount in USD correct to 18 decimals"
        }
      },
      "getUserSet(address,uint256)": {
        "params": {
          "participant": "the user to get the info from",
          "termId": "the fund id"
        },
        "returns": {
          "_0": "on participant set",
          "_1": "on beneficiary set",
          "_2": "on defaulter set"
        }
      },
      "getUserYieldSummary(address,uint256)": {
        "params": {
          "termId": "the collateral id",
          "user": "the depositor address"
        },
        "returns": {
          "_0": "hasOptedIn",
          "_1": "withdrawnYield",
          "_2": "withdrawnCollateral",
          "_3": "availableYield",
          "_4": "depositedCollateralByUser",
          "_5": "yieldDistributed"
        }
      },
      "getWithdrawableUserBalance(uint256,address)": {
        "params": {
          "termId": "term id",
          "user": "depositor address"
        },
        "returns": {
          "allowedWithdrawal": "amount the amount of collateral the depositor can withdraw"
        }
      },
      "getYieldSummary(uint256)": {
        "params": {
          "termId": "the collateral id"
        },
        "returns": {
          "_0": "initialized",
          "_1": "startTimeStamp",
          "_2": "totalDeposit",
          "_3": "currentTotalDeposit",
          "_4": "totalShares",
          "_5": "yieldUsers",
          "_6": "vaultAddress",
          "_7": "zapAddress"
        }
      },
      "isBeneficiary(uint256,address)": {
        "params": {
          "beneficiary": "the address of the participant to check",
          "termId": "the id of the term"
        },
        "returns": {
          "_0": "true if the participant is a beneficiary"
        }
      },
      "isExempted(uint256,uint256,address)": {
        "params": {
          "cycle": "the cycle to check",
          "termId": "the fund id",
          "user": "the user to check"
        },
        "returns": {
          "_0": "true if the user is exempted"
        }
      },
      "isUnderCollaterized(uint256,address)": {
        "details": "This will revert if called during ReleasingCollateral or after",
        "params": {
          "member": "The user to check for",
          "termId": "The term id"
        },
        "returns": {
          "_0": "Bool check if member is below 1.0x of collateralDeposit"
        }
      },
      "minCollateralToDeposit(uint256,uint256)": {
        "details": "The minimum collateral amount is calculated based on the index on the depositors arrayThe return value should be the minimum msg.value when calling joinTermC = 1.5 Cp (Tp - I) where C = minimum collateral amount, Cp = contribution amount, Tp = total participants, I = depositor index (starts at 0). 1.5",
        "returns": {
          "amount": "the minimum collateral amount to deposit in wei"
        }
      },
      "termAPY(uint256)": {
        "params": {
          "termId": "The term id for which the APY is being calculated"
        },
        "returns": {
          "_0": "The APY for the term"
        }
      },
      "totalYieldGenerated(uint256)": {
        "params": {
          "termId": "The term id for which the yield is being calculated"
        },
        "returns": {
          "_0": "The total yield generated for the term"
        }
      },
      "userAPY(uint256,address)": {
        "params": {
          "termId": "The term id for which the APY is being calculated",
          "user": "The user for which the APY is being calculated"
        },
        "returns": {
          "_0": "The APY for the user"
        }
      },
      "userHasoptedInYG(uint256,address)": {
        "params": {
          "termId": "The term id for which the check is being made",
          "user": "The user for which the check is being made"
        },
        "returns": {
          "_0": "True if the user has opted in"
        }
      },
      "wasExpelled(uint256,address)": {
        "params": {
          "termId": "the fund id",
          "user": "the user to check"
        },
        "returns": {
          "_0": "true if the user was expelled before"
        }
      }
    },
    "version": 1
  },
  "userdoc": {
    "kind": "user",
    "methods": {
      "getConstants(string,string,string,string)": {
        "notice": "This function return the current constant values for oracles and yield providers"
      },
      "getCurrentBeneficiary(uint256)": {
        "notice": "function to get the current beneficiary"
      },
      "getFundSummary(uint256)": {
        "notice": "function to get the cycle information in one go"
      },
      "getLatestPrice()": {
        "notice": "Gets latest ETH / USD price"
      },
      "getNeededAllowance(address)": {
        "notice": "a function to get the needed allowance for every active term the user is part of"
      },
      "getParticipantFundSummary(address,uint256)": {
        "notice": "function to get fund information of a specific participant"
      },
      "getRemainingContributionTime(uint256)": {
        "notice": "returns the time left to contribute for this cycle"
      },
      "getRemainingRegistrationTime(uint256)": {
        "notice": "Gets the remaining registration period for a term"
      },
      "getToCollateralConversionRate(uint256)": {
        "notice": "Gets the conversion rate of an amount in USD to ETH"
      },
      "getToStableConversionRate(uint256)": {
        "notice": "Gets the conversion rate of an amount in ETH to USD"
      },
      "getUserSet(address,uint256)": {
        "notice": "function to get cycle information of a specific participant"
      },
      "getWithdrawableUserBalance(uint256,address)": {
        "notice": "Called to check how much collateral a user can withdraw"
      },
      "getYieldLockState()": {
        "notice": "This function is used to get the current state of the yield lock"
      },
      "isExempted(uint256,uint256,address)": {
        "notice": "function to see if a user is exempted from paying a cycle"
      },
      "isUnderCollaterized(uint256,address)": {
        "notice": "Checks if a user has a collateral below 1.0x of total contribution amount"
      },
      "minCollateralToDeposit(uint256,uint256)": {
        "notice": "Called to check the minimum collateral amount to deposit in wei"
      },
      "termAPY(uint256)": {
        "notice": "This function is used to get a term APY"
      },
      "totalYieldGenerated(uint256)": {
        "notice": "This function is used to get the total yield generated for a term"
      },
      "userAPY(uint256,address)": {
        "notice": "This function is used to get a user APY"
      },
      "userHasoptedInYG(uint256,address)": {
        "notice": "This function is used to check if a user has opted in for yield generation"
      },
      "wasExpelled(uint256,address)": {
        "notice": "function to know if a user was expelled before"
      }
    },
    "version": 1
  },
  "storageLayout": {
    "storage": [],
    "types": null
  }
}