{
  "address": "0x0c0B03E8Af6C1FC6d46E5F3CeEc62954ED900A7a",
  "abi": [
    {
      "inputs": [
        {
          "internalType": "address",
          "name": "participant",
          "type": "address"
        },
        {
          "internalType": "uint256",
          "name": "termId",
          "type": "uint256"
        }
      ],
      "name": "currentOrNextCyclePaid",
      "outputs": [
        {
          "internalType": "bool",
          "name": "",
          "type": "bool"
        },
        {
          "internalType": "bool",
          "name": "",
          "type": "bool"
        }
      ],
      "stateMutability": "view",
      "type": "function"
    },
    {
      "inputs": [
        {
          "internalType": "uint256",
          "name": "termId",
          "type": "uint256"
        },
        {
          "internalType": "address",
          "name": "user",
          "type": "address"
        }
      ],
      "name": "expelledBeforeBeneficiary",
      "outputs": [
        {
          "internalType": "bool",
          "name": "",
          "type": "bool"
        }
      ],
      "stateMutability": "view",
      "type": "function"
    },
    {
      "inputs": [
        {
          "internalType": "address",
          "name": "participant",
          "type": "address"
        }
      ],
      "name": "getAllJoinedTerms",
      "outputs": [
        {
          "internalType": "uint256[]",
          "name": "",
          "type": "uint256[]"
        }
      ],
      "stateMutability": "view",
      "type": "function"
    },
    {
      "inputs": [
        {
          "internalType": "uint256",
          "name": "termId",
          "type": "uint256"
        }
      ],
      "name": "getAvailablePositionsAndSecurityAmount",
      "outputs": [
        {
          "internalType": "uint256[]",
          "name": "",
          "type": "uint256[]"
        },
        {
          "internalType": "uint256[]",
          "name": "",
          "type": "uint256[]"
        }
      ],
      "stateMutability": "view",
      "type": "function"
    },
    {
      "inputs": [
        {
          "internalType": "uint256",
          "name": "termId",
          "type": "uint256"
        }
      ],
      "name": "getCollateralSummary",
      "outputs": [
        {
          "internalType": "bool",
          "name": "",
          "type": "bool"
        },
        {
          "internalType": "enum LibCollateralStorage.CollateralStates",
          "name": "",
          "type": "uint8"
        },
        {
          "internalType": "uint256",
          "name": "",
          "type": "uint256"
        },
        {
          "internalType": "uint256",
          "name": "",
          "type": "uint256"
        },
        {
          "internalType": "address[]",
          "name": "",
          "type": "address[]"
        }
      ],
      "stateMutability": "view",
      "type": "function"
    },
    {
      "inputs": [
        {
          "internalType": "string",
          "name": "firstAggregator",
          "type": "string"
        },
        {
          "internalType": "string",
          "name": "secondAggregator",
          "type": "string"
        },
        {
          "internalType": "string",
          "name": "zapAddress",
          "type": "string"
        },
        {
          "internalType": "string",
          "name": "vaultAddress",
          "type": "string"
        }
      ],
      "name": "getConstants",
      "outputs": [
        {
          "internalType": "address",
          "name": "",
          "type": "address"
        },
        {
          "internalType": "address",
          "name": "",
          "type": "address"
        },
        {
          "internalType": "address",
          "name": "",
          "type": "address"
        },
        {
          "internalType": "address",
          "name": "",
          "type": "address"
        }
      ],
      "stateMutability": "view",
      "type": "function"
    },
    {
      "inputs": [
        {
          "internalType": "uint256",
          "name": "termId",
          "type": "uint256"
        }
      ],
      "name": "getCurrentBeneficiary",
      "outputs": [
        {
          "internalType": "address",
          "name": "",
          "type": "address"
        }
      ],
      "stateMutability": "view",
      "type": "function"
    },
    {
      "inputs": [
        {
          "internalType": "address",
          "name": "depositor",
          "type": "address"
        },
        {
          "internalType": "uint256",
          "name": "termId",
          "type": "uint256"
        }
      ],
      "name": "getDepositorCollateralSummary",
      "outputs": [
        {
          "internalType": "bool",
          "name": "",
          "type": "bool"
        },
        {
          "internalType": "uint256",
          "name": "",
          "type": "uint256"
        },
        {
          "internalType": "uint256",
          "name": "",
          "type": "uint256"
        },
        {
          "internalType": "uint256",
          "name": "",
          "type": "uint256"
        },
        {
          "internalType": "uint256",
          "name": "",
          "type": "uint256"
        }
      ],
      "stateMutability": "view",
      "type": "function"
    },
    {
      "inputs": [
        {
          "internalType": "address",
          "name": "participant",
          "type": "address"
        }
      ],
      "name": "getExpelledTerms",
      "outputs": [
        {
          "internalType": "uint256[]",
          "name": "",
          "type": "uint256[]"
        }
      ],
      "stateMutability": "view",
      "type": "function"
    },
    {
      "inputs": [
        {
          "internalType": "uint256",
          "name": "termId",
          "type": "uint256"
        }
      ],
      "name": "getFundSummary",
      "outputs": [
        {
          "internalType": "bool",
          "name": "",
          "type": "bool"
        },
        {
          "internalType": "enum LibFundStorage.FundStates",
          "name": "",
          "type": "uint8"
        },
        {
          "internalType": "contract IERC20",
          "name": "",
          "type": "address"
        },
        {
          "internalType": "address[]",
          "name": "",
          "type": "address[]"
        },
        {
          "internalType": "uint256",
          "name": "",
          "type": "uint256"
        },
        {
          "internalType": "uint256",
          "name": "",
          "type": "uint256"
        },
        {
          "internalType": "uint256",
          "name": "",
          "type": "uint256"
        },
        {
          "internalType": "uint256",
          "name": "",
          "type": "uint256"
        }
      ],
      "stateMutability": "view",
      "type": "function"
    },
    {
      "inputs": [
        {
          "internalType": "address",
          "name": "participant",
          "type": "address"
        },
        {
          "internalType": "enum LibTermStorage.TermStates",
          "name": "state",
          "type": "uint8"
        }
      ],
      "name": "getJoinedTermsByState",
      "outputs": [
        {
          "internalType": "uint256[]",
          "name": "",
          "type": "uint256[]"
        }
      ],
      "stateMutability": "view",
      "type": "function"
    },
    {
      "inputs": [],
      "name": "getLatestPrice",
      "outputs": [
        {
          "internalType": "uint256",
          "name": "",
          "type": "uint256"
        }
      ],
      "stateMutability": "view",
      "type": "function"
    },
    {
      "inputs": [
        {
          "internalType": "address",
          "name": "user",
          "type": "address"
        }
      ],
      "name": "getNeededAllowance",
      "outputs": [
        {
          "internalType": "uint256",
          "name": "",
          "type": "uint256"
        }
      ],
      "stateMutability": "view",
      "type": "function"
    },
    {
      "inputs": [
        {
          "internalType": "uint256",
          "name": "termId",
          "type": "uint256"
        }
      ],
      "name": "getNextBeneficiary",
      "outputs": [
        {
          "internalType": "address",
          "name": "",
          "type": "address"
        }
      ],
      "stateMutability": "view",
      "type": "function"
    },
    {
      "inputs": [
        {
          "internalType": "address",
          "name": "participant",
          "type": "address"
        },
        {
          "internalType": "uint256",
          "name": "termId",
          "type": "uint256"
        }
      ],
      "name": "getParticipantFundSummary",
      "outputs": [
        {
          "internalType": "bool",
          "name": "",
          "type": "bool"
        },
        {
          "internalType": "bool",
          "name": "",
          "type": "bool"
        },
        {
          "internalType": "bool",
          "name": "",
          "type": "bool"
        },
        {
          "internalType": "bool",
          "name": "",
          "type": "bool"
        },
        {
          "internalType": "uint256",
          "name": "",
          "type": "uint256"
        },
        {
          "internalType": "bool",
          "name": "",
          "type": "bool"
        }
      ],
      "stateMutability": "view",
      "type": "function"
    },
    {
      "inputs": [
        {
          "internalType": "uint256",
          "name": "termId",
          "type": "uint256"
        }
      ],
      "name": "getRemainingContributionTime",
      "outputs": [
        {
          "internalType": "uint256",
          "name": "",
          "type": "uint256"
        }
      ],
      "stateMutability": "view",
      "type": "function"
    },
    {
      "inputs": [
        {
          "internalType": "uint256",
          "name": "termId",
          "type": "uint256"
        }
      ],
      "name": "getRemainingCycleTime",
      "outputs": [
        {
          "internalType": "uint256",
          "name": "",
          "type": "uint256"
        }
      ],
      "stateMutability": "view",
      "type": "function"
    },
    {
      "inputs": [
        {
          "internalType": "uint256",
          "name": "termId",
          "type": "uint256"
        }
      ],
      "name": "getRemainingCycles",
      "outputs": [
        {
          "internalType": "uint256",
          "name": "",
          "type": "uint256"
        }
      ],
      "stateMutability": "view",
      "type": "function"
    },
    {
      "inputs": [
        {
          "internalType": "uint256",
          "name": "termId",
          "type": "uint256"
        }
      ],
      "name": "getRemainingCyclesContributionWei",
      "outputs": [
        {
          "internalType": "uint256",
          "name": "",
          "type": "uint256"
        }
      ],
      "stateMutability": "view",
      "type": "function"
    },
    {
      "inputs": [
        {
          "internalType": "uint256",
          "name": "termId",
          "type": "uint256"
        }
      ],
      "name": "getRemainingRegistrationTime",
      "outputs": [
        {
          "internalType": "uint256",
          "name": "",
          "type": "uint256"
        }
      ],
      "stateMutability": "view",
      "type": "function"
    },
    {
      "inputs": [
        {
          "internalType": "uint256",
          "name": "termId",
          "type": "uint256"
        }
      ],
      "name": "getTermSummary",
      "outputs": [
        {
          "components": [
            {
              "internalType": "bool",
              "name": "initialized",
              "type": "bool"
            },
            {
              "internalType": "enum LibTermStorage.TermStates",
              "name": "state",
              "type": "uint8"
            },
            {
              "internalType": "address",
              "name": "termOwner",
              "type": "address"
            },
            {
              "internalType": "uint256",
              "name": "creationTime",
              "type": "uint256"
            },
            {
              "internalType": "uint256",
              "name": "termId",
              "type": "uint256"
            },
            {
              "internalType": "uint256",
              "name": "registrationPeriod",
              "type": "uint256"
            },
            {
              "internalType": "uint256",
              "name": "totalParticipants",
              "type": "uint256"
            },
            {
              "internalType": "uint256",
              "name": "cycleTime",
              "type": "uint256"
            },
            {
              "internalType": "uint256",
              "name": "contributionAmount",
              "type": "uint256"
            },
            {
              "internalType": "uint256",
              "name": "contributionPeriod",
              "type": "uint256"
            },
            {
              "internalType": "address",
              "name": "stableTokenAddress",
              "type": "address"
            }
          ],
          "internalType": "struct LibTermStorage.Term",
          "name": "",
          "type": "tuple"
        }
      ],
      "stateMutability": "view",
      "type": "function"
    },
    {
      "inputs": [],
      "name": "getTermsId",
      "outputs": [
        {
          "internalType": "uint256",
          "name": "",
          "type": "uint256"
        },
        {
          "internalType": "uint256",
          "name": "",
          "type": "uint256"
        }
      ],
      "stateMutability": "view",
      "type": "function"
    },
    {
      "inputs": [
        {
          "internalType": "uint256",
          "name": "USDAmount",
          "type": "uint256"
        }
      ],
      "name": "getToCollateralConversionRate",
      "outputs": [
        {
          "internalType": "uint256",
          "name": "",
          "type": "uint256"
        }
      ],
      "stateMutability": "view",
      "type": "function"
    },
    {
      "inputs": [
        {
          "internalType": "uint256",
          "name": "ethAmount",
          "type": "uint256"
        }
      ],
      "name": "getToStableConversionRate",
      "outputs": [
        {
          "internalType": "uint256",
          "name": "",
          "type": "uint256"
        }
      ],
      "stateMutability": "view",
      "type": "function"
    },
    {
      "inputs": [
        {
          "internalType": "address",
          "name": "participant",
          "type": "address"
        },
        {
          "internalType": "uint256",
          "name": "termId",
          "type": "uint256"
        }
      ],
      "name": "getUserSet",
      "outputs": [
        {
          "internalType": "bool",
          "name": "",
          "type": "bool"
        },
        {
          "internalType": "bool",
          "name": "",
          "type": "bool"
        },
        {
          "internalType": "bool",
          "name": "",
          "type": "bool"
        }
      ],
      "stateMutability": "view",
      "type": "function"
    },
    {
      "inputs": [
        {
          "internalType": "address",
          "name": "user",
          "type": "address"
        },
        {
          "internalType": "uint256",
          "name": "termId",
          "type": "uint256"
        }
      ],
      "name": "getUserYieldSummary",
      "outputs": [
        {
          "internalType": "bool",
          "name": "",
          "type": "bool"
        },
        {
          "internalType": "uint256",
          "name": "",
          "type": "uint256"
        },
        {
          "internalType": "uint256",
          "name": "",
          "type": "uint256"
        },
        {
          "internalType": "uint256",
          "name": "",
          "type": "uint256"
        },
        {
          "internalType": "uint256",
          "name": "",
          "type": "uint256"
        },
        {
          "internalType": "uint256",
          "name": "",
          "type": "uint256"
        }
      ],
      "stateMutability": "view",
      "type": "function"
    },
    {
      "inputs": [
        {
          "internalType": "uint256",
          "name": "termId",
          "type": "uint256"
        },
        {
          "internalType": "address",
          "name": "user",
          "type": "address"
        }
      ],
      "name": "getWithdrawableUserBalance",
      "outputs": [
        {
          "internalType": "uint256",
          "name": "allowedWithdrawal",
          "type": "uint256"
        }
      ],
      "stateMutability": "view",
      "type": "function"
    },
    {
      "inputs": [],
      "name": "getYieldLockState",
      "outputs": [
        {
          "internalType": "bool",
          "name": "",
          "type": "bool"
        }
      ],
      "stateMutability": "view",
      "type": "function"
    },
    {
      "inputs": [
        {
          "internalType": "uint256",
          "name": "termId",
          "type": "uint256"
        }
      ],
      "name": "getYieldSummary",
      "outputs": [
        {
          "internalType": "bool",
          "name": "",
          "type": "bool"
        },
        {
          "internalType": "uint256",
          "name": "",
          "type": "uint256"
        },
        {
          "internalType": "uint256",
          "name": "",
          "type": "uint256"
        },
        {
          "internalType": "uint256",
          "name": "",
          "type": "uint256"
        },
        {
          "internalType": "uint256",
          "name": "",
          "type": "uint256"
        },
        {
          "internalType": "address[]",
          "name": "",
          "type": "address[]"
        },
        {
          "internalType": "address",
          "name": "",
          "type": "address"
        },
        {
          "internalType": "address",
          "name": "",
          "type": "address"
        }
      ],
      "stateMutability": "view",
      "type": "function"
    },
    {
      "inputs": [
        {
          "internalType": "uint256",
          "name": "termId",
          "type": "uint256"
        },
        {
          "internalType": "address",
          "name": "beneficiary",
          "type": "address"
        }
      ],
      "name": "isBeneficiary",
      "outputs": [
        {
          "internalType": "bool",
          "name": "",
          "type": "bool"
        }
      ],
      "stateMutability": "view",
      "type": "function"
    },
    {
      "inputs": [
        {
          "internalType": "uint256",
          "name": "termId",
          "type": "uint256"
        },
        {
          "internalType": "uint256",
          "name": "cycle",
          "type": "uint256"
        },
        {
          "internalType": "address",
          "name": "user",
          "type": "address"
        }
      ],
      "name": "isExempted",
      "outputs": [
        {
          "internalType": "bool",
          "name": "",
          "type": "bool"
        }
      ],
      "stateMutability": "view",
      "type": "function"
    },
    {
      "inputs": [
        {
          "internalType": "uint256",
          "name": "termId",
          "type": "uint256"
        },
        {
          "internalType": "address",
          "name": "member",
          "type": "address"
        }
      ],
      "name": "isUnderCollaterized",
      "outputs": [
        {
          "internalType": "bool",
          "name": "",
          "type": "bool"
        }
      ],
      "stateMutability": "view",
      "type": "function"
    },
    {
      "inputs": [
        {
          "internalType": "uint256",
          "name": "termId",
          "type": "uint256"
        },
        {
          "internalType": "uint256",
          "name": "depositorIndex",
          "type": "uint256"
        }
      ],
      "name": "minCollateralToDeposit",
      "outputs": [
        {
          "internalType": "uint256",
          "name": "amount",
          "type": "uint256"
        }
      ],
      "stateMutability": "view",
      "type": "function"
    },
    {
      "inputs": [
        {
          "internalType": "uint256",
          "name": "termId",
          "type": "uint256"
        }
      ],
      "name": "termAPY",
      "outputs": [
        {
          "internalType": "uint256",
          "name": "",
          "type": "uint256"
        }
      ],
      "stateMutability": "view",
      "type": "function"
    },
    {
      "inputs": [
        {
          "internalType": "uint256",
          "name": "termId",
          "type": "uint256"
        }
      ],
      "name": "totalYieldGenerated",
      "outputs": [
        {
          "internalType": "uint256",
          "name": "",
          "type": "uint256"
        }
      ],
      "stateMutability": "view",
      "type": "function"
    },
    {
      "inputs": [
        {
          "internalType": "uint256",
          "name": "termId",
          "type": "uint256"
        },
        {
          "internalType": "address",
          "name": "user",
          "type": "address"
        }
      ],
      "name": "userAPY",
      "outputs": [
        {
          "internalType": "uint256",
          "name": "",
          "type": "uint256"
        }
      ],
      "stateMutability": "view",
      "type": "function"
    },
    {
      "inputs": [
        {
          "internalType": "uint256",
          "name": "termId",
          "type": "uint256"
        },
        {
          "internalType": "address",
          "name": "user",
          "type": "address"
        }
      ],
      "name": "userHasoptedInYG",
      "outputs": [
        {
          "internalType": "bool",
          "name": "",
          "type": "bool"
        }
      ],
      "stateMutability": "view",
      "type": "function"
    },
    {
      "inputs": [
        {
          "internalType": "uint256",
          "name": "termId",
          "type": "uint256"
        },
        {
          "internalType": "address",
          "name": "user",
          "type": "address"
        }
      ],
      "name": "wasExpelled",
      "outputs": [
        {
          "internalType": "bool",
          "name": "",
          "type": "bool"
        }
      ],
      "stateMutability": "view",
      "type": "function"
    }
  ],
  "transactionHash": "0x7baf335a16867a266b6f2c45a069eb5105b669088bbd1ddf4dbd3f38b20671d9",
  "args": [],
  "numDeployments": 11,
  "solcInputHash": "9ff99cd523283007852f1e2d08c39f7b",
  "bytecode": "0x608060405234801561001057600080fd5b5061319f806100206000396000f3fe608060405234801561001057600080fd5b50600436106102325760003560e01c806391ce5ff711610130578063d7992e5b116100b8578063dc9e24ae1161007c578063dc9e24ae1461066b578063e51a62951461067e578063e9783e6014610691578063f0d826e7146106a4578063fd4dba9d146106b757600080fd5b8063d7992e5b146105ee578063d8f8e99114610601578063da3791ca14610614578063dbd5768314610638578063dbf428101461065857600080fd5b8063b7cf483f116100ff578063b7cf483f14610551578063bb91b76d14610564578063c177f091146105a1578063d072f4bc146105b4578063d72bb87e146105c757600080fd5b806391ce5ff7146104be57806392a6c802146104d15780639d4eb26f146104e4578063b6abd1a41461050b57600080fd5b806365654fe3116101be57806377778baf1161018257806377778baf146104495780637aed53a61461045c578063805307311461047957806384bc198d1461048c5780638e15f473146104b657600080fd5b806365654fe3146103a55780636bbbb5fb146103b85780637063f618146103cb57806375aaa78c146103ec57806375d4e40b146103ff57600080fd5b80631e993b53116102055780631e993b53146102fe5780632d591bdc1461031e5780633d17f1e0146103495780636191474c1461037f57806362f02abd1461039257600080fd5b80630c64c697146102375780630fc4a7ef1461025d5780631268612d146102705780631c162dbe146102bc575b600080fd5b61024a6102453660046129f5565b6106e9565b6040519081526020015b60405180910390f35b61024a61026b366004612a17565b6107ab565b61028361027e366004612a4c565b6107df565b604080519615158752941515602087015292151593850193909352151560608401526080830191909152151560a082015260c001610254565b6102cf6102ca366004612a4c565b61087a565b6040805196151587526020870195909552938501929092526060840152608083015260a082015260c001610254565b61031161030c366004612a76565b610910565b6040516102549190612acc565b61033161032c366004612a17565b610a83565b6040516001600160a01b039091168152602001610254565b7f7c039906f7f8ca11e01b6987a88513563589699678f7d2a6c8447f44d69375f35460ff165b6040519015158152602001610254565b61024a61038d366004612a17565b610ad6565b61024a6103a0366004612a17565b610b94565b61024a6103b3366004612adf565b610bd8565b61036f6103c6366004612adf565b610caf565b6103de6103d9366004612a17565b610ce9565b604051610254929190612b0b565b6103116103fa366004612a76565b610ef2565b61036f61040d366004612adf565b60009182526000805160206130ea833981519152602090815260408084206001600160a01b039390931684526007909201905290205460ff1690565b61024a610457366004612adf565b610f92565b6104646112d5565b60408051928352602083019190915201610254565b61024a610487366004612a17565b611306565b61049f61049a366004612a4c565b61136d565b604080519215158352901515602083015201610254565b61024a6113bc565b61024a6104cc366004612a17565b611650565b61024a6104df366004612a17565b611718565b6104f76104f2366004612a17565b611765565b604051610254989796959493929190612b69565b61051e610519366004612c69565b6118a0565b604080516001600160a01b0395861681529385166020850152918416918301919091529091166060820152608001610254565b61036f61055f366004612d16565b6119a2565b610577610572366004612a4c565b6119e5565b6040805195151586526020860194909452928401919091526060830152608082015260a001610254565b61036f6105af366004612adf565b611adc565b61024a6105c2366004612a17565b611ae8565b6105da6105d5366004612a17565b611b0a565b604051610254989796959493929190612d61565b61036f6105fc366004612adf565b611be0565b61033161060f366004612a17565b611c75565b610627610622366004612a17565b611cb7565b604051610254959493929190612ddf565b61064b610646366004612a17565b611d6d565b6040516102549190612e22565b61024a610666366004612a17565b611eb6565b610311610679366004612ec0565b611fe1565b61024a61068c366004612a76565b6121a2565b61036f61069f366004612adf565b612305565b61024a6106b2366004612a17565b61233f565b6106ca6106c5366004612a4c565b6123c6565b6040805193151584529115156020840152151590820152606001610254565b600082815260008051602061310a83398151915260205260408120600481015483106107525760405162461bcd60e51b8152602060048201526013602482015272496e646578206f7574206f6620626f756e647360681b60448201526064015b60405180910390fd5b600061076f8260060154670de0b6b3a76400006105c29190612f11565b905060648483600401546107839190612f28565b61078d9083612f11565b610798906096612f11565b6107a29190612f51565b95945050505050565b6000806107b66113bc565b90506000670de0b6b3a76400006107cd8584612f11565b6107d79190612f51565b949350505050565b60008060008060008060006107f2612424565b600089815260209190915260408120915061080d8a8a612448565b6001600160a01b039a909a1660009081526005830160209081526040808320546006860183528184205460078701845282852054600888018552838620546009909801909452919093205460ff9384169e9184169d9284169c509290941699509097509550909350505050565b60008181526000805160206130ea8339815191526020526040812081908190819081908190816108aa898b6124fe565b6001600160a01b039a909a1660009081526007830160209081526040808320546008860183528184205460098701845282852054600a8801855283862054600b909801909452919093205460ff9093169d909c919b509399509097509550909350505050565b6060600061091d83610ef2565b90506000815167ffffffffffffffff81111561093b5761093b612bc6565b604051908082528060200260200182016040528015610964578160200160208202803683370190505b508251909150600090815b818110156109e65761099a85828151811061098c5761098c612f65565b602002602001015188611be0565b156109de578481815181106109b1576109b1612f65565b60200260200101518484815181106109cb576109cb612f65565b6020026020010181815250508260010192505b60010161096f565b5060008267ffffffffffffffff811115610a0257610a02612bc6565b604051908082528060200260200182016040528015610a2b578160200160208202803683370190505b50905060005b83811015610a7857848181518110610a4b57610a4b612f65565b6020026020010151828281518110610a6557610a65612f65565b6020908102919091010152600101610a31565b509695505050505050565b600080610a8e612424565b6000848152602091909152604090206004810154600182018054929350918110610aba57610aba612f65565b6000918252602090912001546001600160a01b03169392505050565b600080610ae1612424565b60008481526020918252604080822060008051602061310a8339815191529093529020815491925090600190610100900460ff166004811115610b2657610b26612d4b565b14610b35575060009392505050565b60008160070154836002015460018560040154610b529190612f28565b8460050154610b619190612f11565b610b6b9190612f7b565b610b759190612f7b565b905080421115610b8a57506000949350505050565b6107a24282612f28565b600080610b9f612424565b6000848152602091909152604090206004810154601482015491925090610bc7906001612f7b565b610bd19190612f28565b9392505050565b60008281526000805160206130ea8339815191526020908152604080832060008051602061312a833981519152909252822060028201548390610c1b9042612f28565b90506000610c2987876124fe565b6001600160a01b0387166000908152600886016020526040902054610c4e9190612f7b565b6001600160a01b03871660009081526005850160205260409020549091508290610c8083670de0b6b3a7640000612f11565b610c8a9190612f51565b610c98906301e13380612f11565b610ca29190612f51565b9450505050505b92915050565b600080610cba612424565b6000858152602091825260408082206001600160a01b0387168352601501909252205460ff1691505092915050565b600081815260008051602061312a833981519152602052604081206003810154606092839291908167ffffffffffffffff811115610d2957610d29612bc6565b604051908082528060200260200182016040528015610d52578160200160208202803683370190505b5090506000805b83811015610dc95760006001600160a01b0316856003018281548110610d8157610d81612f65565b6000918252602090912001546001600160a01b031603610dc15780838381518110610dae57610dae612f65565b6020026020010181815250508160010191505b600101610d59565b5060008167ffffffffffffffff811115610de557610de5612bc6565b604051908082528060200260200182016040528015610e0e578160200160208202803683370190505b50905060008267ffffffffffffffff811115610e2c57610e2c612bc6565b604051908082528060200260200182016040528015610e55578160200160208202803683370190505b50905060005b83811015610ee357848181518110610e7557610e75612f65565b6020026020010151838281518110610e8f57610e8f612f65565b602002602001018181525050610ebe8a868381518110610eb157610eb1612f65565b60200260200101516106e9565b828281518110610ed057610ed0612f65565b6020908102919091010152600101610e5b565b50909890975095505050505050565b6001600160a01b03811660009081527f87101b21d556417ad2b8e8f2700dbad90721d5d50a1f435f2dee0b9dc981ac8b60209081526040808320805482518185028101850190935280835260609460008051602061314a833981519152949093929190830182828015610f8457602002820191906000526020600020905b815481526020019060010190808311610f70575b509398975050505050505050565b600082815260008051602061310a8339815191526020526040812081610fb6612424565b60008681526020918252604080822060008051602061312a83398151915284528183206000805160206130ea83398151915285528284206001600160a01b038a16855260058201865283852054600a8201875284862054601585019097529390942054815492965090949160ff91821691600291610100900416600381111561104157611041612d4b565b148061104a5750805b15611060576110598284612f7b565b97506112c8565b60018554610100900460ff16600381111561107d5761107d612d4b565b036112c3576001600160a01b038916600090815260078701602052604081205460ff161580156110c857506001600160a01b038a16600090815260168801602052604090205460ff16155b156110f057600a6110d88c61233f565b6110e390600f612f11565b6110ed9190612f51565b90505b6001600160a01b038a16600090815260078801602052604090205460ff16801561113557506001600160a01b038a16600090815260168801602052604090205460ff16155b8061118057506001600160a01b038a16600090815260168801602052604090205460ff16801561118057506001600160a01b038a16600090815260078801602052604090205460ff16155b156111e25760008760040154886014015461119b9190612f28565b905060006111ba8a60060154670de0b6b3a76400006105c29190612f11565b9050600a6111c88284612f11565b6111d390600f612f11565b6111dd9190612f51565b925050505b6001600160a01b038a16600090815260078801602052604090205460ff16801561122657506001600160a01b038a16600090815260168801602052604090205460ff165b156112945760006001886004015489601401546112439190612f28565b61124d9190612f28565b9050600061126c8a60060154670de0b6b3a76400006105c29190612f11565b9050600a61127a8284612f11565b61128590600f612f11565b61128f9190612f51565b925050505b808411156112b857826112a78286612f28565b6112b19190612f7b565b98506112bd565b600098505b506112c8565b600097505b5050505050505092915050565b60008051602061314a8339815191528054600091829182906112f990600190612f28565b9154919491935090915050565b60008181526000805160206130ea83398151915260205260408120600281015482906113329042612f28565b905080826004015461134386611eb6565b61135590670de0b6b3a7640000612f11565b61135f9190612f51565b6107cd906301e13380612f11565b600080600061137a612424565b6000858152602091825260408082206001600160a01b038916835260078101845281832054601690910190935290205460ff9182169450169150509250929050565b6000807f138fa7b895cc6132bd44317f3510a9c38821e93ca223f9fdc532527c01963ec490506000806000808460000160405161140690661155120bd554d160ca1b815260070190565b9081526040805191829003602001822054633fabe5a360e21b835290516001600160a01b039091169163feaf968c9160048083019260a09291908290030181865afa158015611459573d6000803e3d6000fd5b505050506040513d601f19601f8201168201806040525081019061147d9190612fa5565b945094505093509350816000141580156114a95750836001600160501b0316816001600160501b031610155b80156114b55750600083135b6115015760405162461bcd60e51b815260206004820152601b60248201527f436861696e6c696e6b4f7261636c653a207374616c65206461746100000000006044820152606401610749565b6000806000808860000160405161152690671554d110cbd554d160c21b815260080190565b9081526040805191829003602001822054633fabe5a360e21b835290516001600160a01b039091169163feaf968c9160048083019260a09291908290030181865afa158015611579573d6000803e3d6000fd5b505050506040513d601f19601f8201168201806040525081019061159d9190612fa5565b945094505093509350816000141580156115c95750836001600160501b0316816001600160501b031610155b80156115d55750600083135b6116215760405162461bcd60e51b815260206004820152601b60248201527f436861696e6c696e6b4f7261636c653a207374616c65206461746100000000006044820152606401610749565b600061162d8489612ff5565b905061164181670de0b6b3a7640000613023565b9a505050505050505050505090565b600081815260008051602061310a8339815191526020908152604080832060008051602061312a8339815191529092528220600181015483036116d55760405162461bcd60e51b815260206004820152601860248201527f4e6f626f647920686173206465706f73697465642079657400000000000000006044820152606401610749565b816003015481600101546116e99190612f7b565b42106116f9575060009392505050565b428260030154826001015461170e9190612f7b565b6107d79190612f28565b600080611723612424565b60008481526020918252604080822060008051602061310a833981519152909352812060028301546004840154600583015494955091939091610b6b91612f11565b60008080808060608180806000805160206130ea83398151915260000160008b815260200190815260200160002090508060000160009054906101000a900460ff16816002015482600301548360040154846005015485600601866001016040516117df906816985e5b95985d5b1d60ba1b815260090190565b908152604051908190036020018120546001600160a01b0316906001890190611815906605a61796e5a61760cc1b815260070190565b908152604080519182900360209081018320548554808302850183019093528284526001600160a01b03169291859183018282801561187d57602002820191906000526020600020905b81546001600160a01b0316815260019091019060200180831161185f575b505050505092509850985098509850985098509850985050919395975091939597565b6040516000908190819081907f138fa7b895cc6132bd44317f3510a9c38821e93ca223f9fdc532527c01963ec4907ff27a5986330dc78d016d8604ee1a040d5a789fbaa2d0c27f5dfded4b616b89779082906118fd908c90613053565b908152604051908190036020018120546001600160a01b0316908390611924908c90613053565b908152604051908190036020018120546001600160a01b031690839061194b908c90613053565b908152604051908190036020018120546001600160a01b0316908490611972908c90613053565b9081526040519081900360200190205492985090965094506001600160a01b031692505050945094509450949050565b6000806119ad612424565b600086815260209182526040808220878352600c0183528082206001600160a01b0387168352909252205460ff169150509392505050565b600081815260008051602061312a83398151915260205260408120819081908190819081611a11612424565b60008981526020918252604080822060008051602061310a83398151915284528183206001600160a01b038e168452600682019094529082205490935060ff16611a7757611a708260060154670de0b6b3a76400006105c29190612f11565b9050611a83565b611a808a61233f565b90505b6001600160a01b039a909a1660009081526004840160209081526040808320546005870183528184205460068801845282852054600790980190935292205460ff9092169c909b949a5090985092965091945050505050565b6000610bd18383612527565b600080611af36113bc565b90506000816107cd85670de0b6b3a7640000612f11565b600080600060606000806000806000611b21612424565b60008b81526020918252604090819020805460028201546003830154600484015460148501546001860180548851818b0281018b0190995280895296995060ff80871699610100880490911698620100009097046001600160a01b0316979196918791830182828015611bbd57602002820191906000526020600020905b81546001600160a01b03168152600190910190602001808311611b9f575b505050505094509850985098509850985098509850985050919395975091939597565b600080611beb612424565b60008581526020918252604080822060008051602061312a83398151915284528183206001600160a01b03881684526005820190945291205490925060ff16158015611c5257506001600160a01b038416600090815260048201602052604090205460ff16155b15611c6257600192505050610ca9565b600092505050610ca9565b505092915050565b600080611c80612424565b6000848152602091909152604090206004810154909150600180830191611ca79190612f28565b81548110610aba57610aba612f65565b600080808060608160008051602061312a8339815191526000888152602091825260409081902080546001820154600283015460038401805486518189028101890190975280875294975060ff808516976101009095041695929491939092918391830182828015611d5257602002820191906000526020600020905b81546001600160a01b03168152600190910190602001808311611d34575b50505050509050955095509550955095505091939590929450565b611ddd60408051610160810190915260008082526020820190815260200160006001600160a01b031681526020016000815260200160008152602001600081526020016000815260200160008152602001600081526020016000815260200160006001600160a01b031681525090565b600082815260008051602061310a833981519152602090815260409182902082516101608101909352805460ff808216151585529192840191610100909104166003811115611e2e57611e2e612d4b565b6003811115611e3f57611e3f612d4b565b815281546001600160a01b036201000090910481166020830152600183015460408301526002830154606083015260038301546080830152600483015460a0830152600583015460c0830152600683015460e083015260078301546101008301526008909201549091166101209091015292915050565b60008181526000805160206130ea83398151915260209081526040808320600681018054835181860281018601909452808452919385938493909291830182828015611f2b57602002820191906000526020600020905b81546001600160a01b03168152600190910190602001808311611f0d575b505083519394506000925050505b81811015611f9757846008016000848381518110611f5957611f59612f65565b60200260200101516001600160a01b03166001600160a01b031681526020019081526020016000205484611f8d9190612f7b565b9350600101611f39565b506000611fa48786612651565b90508460040154811115611fd6576004850154611fc18286612f7b565b611fcb9190612f28565b979650505050505050565b509195945050505050565b60606000611fee84610ef2565b90506000815167ffffffffffffffff81111561200c5761200c612bc6565b604051908082528060200260200182016040528015612035578160200160208202803683370190505b508251909150600090815b818110156121045786600381111561205a5761205a612d4b565b60008051602061314a833981519152600101600087848151811061208057612080612f65565b6020026020010151815260200190815260200160002060000160019054906101000a900460ff1660038111156120b8576120b8612d4b565b036120fc578481815181106120cf576120cf612f65565b60200260200101518484815181106120e9576120e9612f65565b6020026020010181815250508260010192505b600101612040565b5060008267ffffffffffffffff81111561212057612120612bc6565b604051908082528060200260200182016040528015612149578160200160208202803683370190505b50905060005b838110156121965784818151811061216957612169612f65565b602002602001015182828151811061218357612183612f65565b602090810291909101015260010161214f565b50979650505050505050565b60008060006121b2846001611fe1565b905060006121c1856000611fe1565b825181519192509060005b8281101561226f57600060008051602061314a83398151915260010160008784815181106121fc576121fc612f65565b602002602001015181526020019081526020016000209050600061223887848151811061222b5761222b612f65565b6020026020010151610b94565b82600601546122479190612f11565b61225490620f4240612f11565b90506122608189612f7b565b975082600101925050506121cc565b5060005b818110156122f957600060008051602061314a83398151915260010160008684815181106122a3576122a3612f65565b6020026020010151815260200190815260200160002090506000816004015482600601546122d19190612f11565b6122de90620f4240612f11565b90506122ea8189612f7b565b97508260010192505050612273565b50939695505050505050565b600080612310612424565b6000858152602091825260408082206001600160a01b0387168352600601909252205460ff1691505092915050565b60008061234a612424565b60008481526020918252604080822060008051602061310a8339815191529093528120600483015460148401549394509092612387906001612f7b565b6123919190612f28565b905060006123b08360060154670de0b6b3a76400006105c29190612f11565b90506123bc8183612f11565b9695505050505050565b6000806000806123d4612424565b60008681526020919091526040812091506123f2600d83018861279d565b9050600061240383600f018961279d565b90506000612414846011018a61279d565b9299919850919650945050505050565b7f6751f7e27cecf86d7136f5749c224248cae80a39fafb59f8f6bf12c52816307c90565b600080612453612424565b60008481526020918252604080822060008051602061312a83398151915284528183206001600160a01b03891684526015820190945291205490925060ff16156124a05760009250611c6d565b600060646124ad8661233f565b6124b890606e612f11565b6124c29190612f51565b6001600160a01b03871660009081526005840160205260409020549091508111156124f057600193506124f5565b600093505b50505092915050565b600080670de0b6b3a764000061251485856127bf565b61251d8661284b565b6107cd9190612f11565b600082815260008051602061312a833981519152602090815260408083206001600160a01b0385168452600581019092528220548290612566866129d7565b6125e55760405163bb91b76d60e01b81526001600160a01b038616600482015260248101879052309063bb91b76d9060440160a060405180830381865afa1580156125b5573d6000803e3d6000fd5b505050506040513d601f19601f820116820180604052508101906125d99190613082565b95506126489350505050565b60405163f0d826e760e01b815260048101879052309063f0d826e790602401602060405180830381865afa158015612621573d6000803e3d6000fd5b505050506040513d601f19601f8201168201806040525081019061264591906130d0565b91505b10949350505050565b60008082600101604051612674906816985e5b95985d5b1d60ba1b815260090190565b90815260405190819003602001812054631398fee160e31b82526001600160a01b031690639cc7f708906126b090879060040190815260200190565b602060405180830381865afa1580156126cd573d6000803e3d6000fd5b505050506040513d601f19601f820116820180604052508101906126f191906130d0565b9050600083600101604051612715906816985e5b95985d5b1d60ba1b815260090190565b908152604080516020928190038301812054631df1ee3f60e21b825291516001600160a01b03909216926377c7b8fc926004808401938290030181865afa158015612764573d6000803e3d6000fd5b505050506040513d601f19601f8201168201806040525081019061278891906130d0565b9050670de0b6b3a76400006107988284612f11565b6001600160a01b03811660009081526001830160205260408120541515610bd1565b60008281526000805160206130ea83398151915260205260408120600481015482036127ef576000915050610ca9565b60048101546001600160a01b0384166000908152600983016020908152604080832054600b8601909252909120546128279190612f28565b61283990670de0b6b3a7640000612f11565b6128439190612f51565b915050610ca9565b60008181526000805160206130ea833981519152602052604080822081516816985e5b95985d5b1d60ba1b8152600182016009820152915191829003602901822054631398fee160e31b835260048301859052909183916001600160a01b031690639cc7f70890602401602060405180830381865afa1580156128d2573d6000803e3d6000fd5b505050506040513d601f19601f820116820180604052508101906128f691906130d0565b905060008260010160405161291a906816985e5b95985d5b1d60ba1b815260090190565b908152604080516020928190038301812054631df1ee3f60e21b825291516001600160a01b03909216926377c7b8fc926004808401938290030181865afa158015612969573d6000803e3d6000fd5b505050506040513d601f19601f8201168201806040525081019061298d91906130d0565b90506000670de0b6b3a76400006129a48385612f11565b6129ae9190612f51565b905083600401548111156129cb5760048401546123bc9082612f28565b50600095945050505050565b60006129e1612424565b600092835260205250604090205460ff1690565b60008060408385031215612a0857600080fd5b50508035926020909101359150565b600060208284031215612a2957600080fd5b5035919050565b80356001600160a01b0381168114612a4757600080fd5b919050565b60008060408385031215612a5f57600080fd5b612a6883612a30565b946020939093013593505050565b600060208284031215612a8857600080fd5b610bd182612a30565b600081518084526020808501945080840160005b83811015612ac157815187529582019590820190600101612aa5565b509495945050505050565b602081526000610bd16020830184612a91565b60008060408385031215612af257600080fd5b82359150612b0260208401612a30565b90509250929050565b604081526000612b1e6040830185612a91565b82810360208401526107a28185612a91565b600081518084526020808501945080840160005b83811015612ac15781516001600160a01b031687529582019590820190600101612b44565b60006101008a151583528960208401528860408401528760608401528660808401528060a0840152612b9d81840187612b30565b6001600160a01b0395861660c08501529390941660e09092019190915250979650505050505050565b634e487b7160e01b600052604160045260246000fd5b600082601f830112612bed57600080fd5b813567ffffffffffffffff80821115612c0857612c08612bc6565b604051601f8301601f19908116603f01168101908282118183101715612c3057612c30612bc6565b81604052838152866020858801011115612c4957600080fd5b836020870160208301376000602085830101528094505050505092915050565b60008060008060808587031215612c7f57600080fd5b843567ffffffffffffffff80821115612c9757600080fd5b612ca388838901612bdc565b95506020870135915080821115612cb957600080fd5b612cc588838901612bdc565b94506040870135915080821115612cdb57600080fd5b612ce788838901612bdc565b93506060870135915080821115612cfd57600080fd5b50612d0a87828801612bdc565b91505092959194509250565b600080600060608486031215612d2b57600080fd5b8335925060208401359150612d4260408501612a30565b90509250925092565b634e487b7160e01b600052602160045260246000fd5b60006101008a1515835260058a10612d7b57612d7b612d4b565b602083018a90526001600160a01b038916604084015260608301819052612da481840189612b30565b9150508560808301528460a08301528360c08301528260e08301529998505050505050505050565b60048110612ddc57612ddc612d4b565b50565b8515158152612ded85612dcc565b84602082015283604082015282606082015260a060808201526000611fcb60a0830184612b30565b612e1e81612dcc565b9052565b81511515815261016081016020830151612e3f6020840182612e15565b506040830151612e5a60408401826001600160a01b03169052565b50606083015160608301526080830151608083015260a083015160a083015260c083015160c083015260e083015160e083015261010080840151818401525061012080840151818401525061014080840151611c6d828501826001600160a01b03169052565b60008060408385031215612ed357600080fd5b612edc83612a30565b9150602083013560048110612ef057600080fd5b809150509250929050565b634e487b7160e01b600052601160045260246000fd5b8082028115828204841417610ca957610ca9612efb565b81810381811115610ca957610ca9612efb565b634e487b7160e01b600052601260045260246000fd5b600082612f6057612f60612f3b565b500490565b634e487b7160e01b600052603260045260246000fd5b80820180821115610ca957610ca9612efb565b80516001600160501b0381168114612a4757600080fd5b600080600080600060a08688031215612fbd57600080fd5b612fc686612f8e565b9450602086015193506040860151925060608601519150612fe960808701612f8e565b90509295509295909350565b60008261300457613004612f3b565b600160ff1b82146000198414161561301e5761301e612efb565b500590565b80820260008212600160ff1b8414161561303f5761303f612efb565b8181058314821517610ca957610ca9612efb565b6000825160005b81811015613074576020818601810151858301520161305a565b506000920191825250919050565b600080600080600060a0868803121561309a57600080fd5b855180151581146130aa57600080fd5b602087015160408801516060890151608090990151929a91995097965090945092505050565b6000602082840312156130e257600080fd5b505191905056fe29d9cba46c358ba7c1b8945751229339792c7c62e3197c240fa98916e75ffbf987101b21d556417ad2b8e8f2700dbad90721d5d50a1f435f2dee0b9dc981ac8a35fa70a6f9ae8a4d427ebe0c1be62ffd2870fecc1df41c6fda0bf5803e56288887101b21d556417ad2b8e8f2700dbad90721d5d50a1f435f2dee0b9dc981ac89a2646970667358221220651c31858990d96da4e0dcdbc66c1ac28aba0cf84f7394e72f2aa8b93f96cb1064736f6c63430008120033",
  "devdoc": {
    "author": "Maikel Ordaz",
    "details": "v3.0 (Diamond)",
    "kind": "dev",
    "methods": {
      "currentOrNextCyclePaid(address,uint256)": {
        "params": {
          "participant": "the user to get the info from",
          "termId": "the fund id"
        },
        "returns": {
          "_0": "paidThisCycle, true if has paid the current cycle",
          "_1": "paidNextCycle, true if has paid the next cycle"
        }
      },
      "expelledBeforeBeneficiary(uint256,address)": {
        "params": {
          "termId": "the id of the term",
          "user": "the address of the participant to check"
        },
        "returns": {
          "_0": "true if the participant is expelled before being a beneficiary"
        }
      },
      "getAllJoinedTerms(address)": {
        "params": {
          "participant": "the participant address"
        },
        "returns": {
          "_0": "an array with the term ids the participant is part of"
        }
      },
      "getAvailablePositionsAndSecurityAmount(uint256)": {
        "details": "Available positions starts at 0",
        "params": {
          "termId": "the term id"
        },
        "returns": {
          "_0": "availablePositions an array with the available positions",
          "_1": "securityAmount an array with the security amount for each available position"
        }
      },
      "getCollateralSummary(uint256)": {
        "params": {
          "termId": "the collateral id"
        },
        "returns": {
          "_0": "if collateral initialized",
          "_1": "current collateral state",
          "_2": "time of first deposit",
          "_3": "current members count",
          "_4": "list of depositors"
        }
      },
      "getConstants(string,string,string,string)": {
        "params": {
          "firstAggregator": "The name of the first aggregator. Example: \"ETH/USD\"",
          "secondAggregator": "The name of the second aggregator. Example: \"USDC/USD\"",
          "vaultAddress": "The name of the vault address. Example: \"ZaynVault\"",
          "zapAddress": "The name of the zap address. Example: \"ZaynZap\""
        },
        "returns": {
          "_0": "The addresses of the oracles and yield providers"
        }
      },
      "getCurrentBeneficiary(uint256)": {
        "params": {
          "termId": "the fund id"
        },
        "returns": {
          "_0": "the current beneficiary"
        }
      },
      "getDepositorCollateralSummary(address,uint256)": {
        "params": {
          "depositor": "the depositor address",
          "termId": "the collateral id"
        },
        "returns": {
          "_0": "if the user is a true member of the term",
          "_1": "current users locked collateral balance in wei",
          "_2": "current users unlocked collateral balance in wei",
          "_3": "initial users deposit in wei",
          "_4": "expulsion limit"
        }
      },
      "getExpelledTerms(address)": {
        "params": {
          "participant": "the participant address"
        },
        "returns": {
          "_0": "an array the term ids on which the participant was expelled"
        }
      },
      "getFundSummary(uint256)": {
        "params": {
          "termId": "the fund id"
        },
        "returns": {
          "_0": "if fund initialized",
          "_1": "current fund state",
          "_2": "stablecoin address used",
          "_3": "list of beneficiaries order",
          "_4": "when the fund starts in seconds",
          "_5": "when the fund ended, 0 if not ended",
          "_6": "current cycle number",
          "_7": "total amount of cycles"
        }
      },
      "getJoinedTermsByState(address,uint8)": {
        "params": {
          "participant": "the participant address",
          "state": "the term state"
        },
        "returns": {
          "_0": "an array with the term ids the participant is part of, giving the state of the term"
        }
      },
      "getLatestPrice()": {
        "details": "Revert if there is problem with chainlink data",
        "returns": {
          "_0": "uint latest price in Wei Note: 18 decimals"
        }
      },
      "getNeededAllowance(address)": {
        "params": {
          "user": "the user address"
        },
        "returns": {
          "_0": "the needed allowance"
        }
      },
      "getNextBeneficiary(uint256)": {
        "params": {
          "termId": "the fund id"
        },
        "returns": {
          "_0": "the next beneficiary"
        }
      },
      "getParticipantFundSummary(address,uint256)": {
        "params": {
          "participant": "the user to get the info from",
          "termId": "the fund id"
        },
        "returns": {
          "_0": "isParticipant, true if is participant",
          "_1": "isBeneficiary, true if has been beneficiary",
          "_2": "paidThisCycle, true if has paid the current cycle",
          "_3": "autoPayEnabled, true if auto pay is enabled",
          "_4": "beneficiariesPool, the beneficiary pool, 6 decimals",
          "_5": "beneficiariesFrozenPool, true if the beneficiary pool is frozen"
        }
      },
      "getRemainingContributionTime(uint256)": {
        "params": {
          "termId": "the fund id"
        },
        "returns": {
          "_0": "the time left to contribute"
        }
      },
      "getRemainingCycleTime(uint256)": {
        "params": {
          "termId": "the term id"
        },
        "returns": {
          "_0": "remaining time in the current cycle"
        }
      },
      "getRemainingCycles(uint256)": {
        "params": {
          "termId": "the term id"
        },
        "returns": {
          "_0": "remaining cycles"
        }
      },
      "getRemainingCyclesContributionWei(uint256)": {
        "params": {
          "termId": "the term id"
        },
        "returns": {
          "_0": "remaining cycles contribution in wei"
        }
      },
      "getRemainingRegistrationTime(uint256)": {
        "details": "Revert if nobody has deposited",
        "params": {
          "termId": "the term id"
        },
        "returns": {
          "_0": "remaining contribution period"
        }
      },
      "getTermSummary(uint256)": {
        "params": {
          "termId": "the term id"
        },
        "returns": {
          "_0": "the term object"
        }
      },
      "getTermsId()": {
        "returns": {
          "_0": "the current term id",
          "_1": "the next term id"
        }
      },
      "getToCollateralConversionRate(uint256)": {
        "params": {
          "USDAmount": "The amount in USD with 18 decimals"
        },
        "returns": {
          "_0": "uint converted amount in wei"
        }
      },
      "getToStableConversionRate(uint256)": {
        "params": {
          "ethAmount": "The amount in ETH"
        },
        "returns": {
          "_0": "uint converted amount in USD correct to 18 decimals"
        }
      },
      "getUserSet(address,uint256)": {
        "params": {
          "participant": "the user to get the info from",
          "termId": "the fund id"
        },
        "returns": {
          "_0": "on participant set",
          "_1": "on beneficiary set",
          "_2": "on defaulter set"
        }
      },
      "getUserYieldSummary(address,uint256)": {
        "params": {
          "termId": "the collateral id",
          "user": "the depositor address"
        },
        "returns": {
          "_0": "if the user opted in for yield",
          "_1": "amount withdrawn from yield",
          "_2": "amount withdrawn from collateral",
          "_3": "amount available in yield",
          "_4": "amount deposited by user in yield",
          "_5": "amount of yield distributed"
        }
      },
      "getWithdrawableUserBalance(uint256,address)": {
        "params": {
          "termId": "term id",
          "user": "depositor address"
        },
        "returns": {
          "allowedWithdrawal": "amount the amount of collateral the depositor can withdraw"
        }
      },
      "getYieldLockState()": {
        "returns": {
          "_0": "The current state of the yield lock"
        }
      },
      "getYieldSummary(uint256)": {
        "params": {
          "termId": "the collateral id"
        },
        "returns": {
          "_0": "if the yield is initialized",
          "_1": "start time stamp for yield deposit",
          "_2": "total deposit",
          "_3": "current amount in yield",
          "_4": "amount of total shares",
          "_5": "list of yield users",
          "_6": "address of vault",
          "_7": "address of zap"
        }
      },
      "isBeneficiary(uint256,address)": {
        "params": {
          "beneficiary": "the address of the participant to check",
          "termId": "the id of the term"
        },
        "returns": {
          "_0": "true if the participant is a beneficiary"
        }
      },
      "isExempted(uint256,uint256,address)": {
        "params": {
          "cycle": "the cycle to check",
          "termId": "the fund id",
          "user": "the user to check"
        },
        "returns": {
          "_0": "true if the user is exempted"
        }
      },
      "isUnderCollaterized(uint256,address)": {
        "details": "This will revert if called during ReleasingCollateral or after",
        "params": {
          "member": "The user to check for",
          "termId": "The term id"
        },
        "returns": {
          "_0": "Bool check if member is below 1.0x of collateralDeposit"
        }
      },
      "minCollateralToDeposit(uint256,uint256)": {
        "details": "The minimum collateral amount is calculated based on the index on the depositors arrayThe return value should be the minimum msg.value when calling joinTermC = 1.5 Cp (Tp - I) where C = minimum collateral amount, Cp = contribution amount,      Tp = total participants, I = depositor index (starts at 0). 1.5",
        "params": {
          "depositorIndex": "the index the depositor wants to join",
          "termId": "term id"
        },
        "returns": {
          "amount": "the minimum collateral amount to deposit in wei"
        }
      },
      "termAPY(uint256)": {
        "params": {
          "termId": "The term id for which the APY is being calculated"
        },
        "returns": {
          "_0": "The APY for the term"
        }
      },
      "totalYieldGenerated(uint256)": {
        "params": {
          "termId": "The term id for which the yield is being calculated"
        },
        "returns": {
          "_0": "The total yield generated for the term"
        }
      },
      "userAPY(uint256,address)": {
        "params": {
          "termId": "The term id for which the APY is being calculated",
          "user": "The user for which the APY is being calculated"
        },
        "returns": {
          "_0": "The APY for the user"
        }
      },
      "userHasoptedInYG(uint256,address)": {
        "params": {
          "termId": "The term id for which the check is being made",
          "user": "The user for which the check is being made"
        },
        "returns": {
          "_0": "True if the user has opted in"
        }
      },
      "wasExpelled(uint256,address)": {
        "params": {
          "termId": "the fund id",
          "user": "the user to check"
        },
        "returns": {
          "_0": "true if the user was expelled before"
        }
      }
    },
    "title": "Takaturn Getters Facet",
    "version": 1
  },
  "userdoc": {
    "kind": "user",
    "methods": {
      "currentOrNextCyclePaid(address,uint256)": {
        "notice": "function to get fund information of a specific participant"
      },
      "expelledBeforeBeneficiary(uint256,address)": {
        "notice": "checks if a participant have been expelled before being a beneficiary"
      },
      "getAllJoinedTerms(address)": {
        "notice": "Get all the terms a participant is part of"
      },
      "getAvailablePositionsAndSecurityAmount(uint256)": {
        "notice": "Gets the remaining positions in a term and the corresponding security amount"
      },
      "getCollateralSummary(uint256)": {
        "notice": "function to get the collateral object"
      },
      "getConstants(string,string,string,string)": {
        "notice": "This function return the current constant values for oracles and yield providers"
      },
      "getCurrentBeneficiary(uint256)": {
        "notice": "function to get the beneficiary from the current cycle"
      },
      "getDepositorCollateralSummary(address,uint256)": {
        "notice": "function to get the depositor collateral summary"
      },
      "getExpelledTerms(address)": {
        "notice": "Get all the terms a participant was expelled from"
      },
      "getFundSummary(uint256)": {
        "notice": "function to get the cycle information in one go"
      },
      "getJoinedTermsByState(address,uint8)": {
        "notice": "Get all the terms a participant is part of by a given state"
      },
      "getLatestPrice()": {
        "notice": "Gets latest ETH / USD price"
      },
      "getNeededAllowance(address)": {
        "notice": "a function to get the needed allowance for every active term the user is part of"
      },
      "getNextBeneficiary(uint256)": {
        "notice": "function to get the beneficiary from the next cycle"
      },
      "getParticipantFundSummary(address,uint256)": {
        "notice": "function to get fund information of a specific participant"
      },
      "getRemainingContributionTime(uint256)": {
        "notice": "returns the time left to contribute for this cycle"
      },
      "getRemainingCycleTime(uint256)": {
        "notice": "Get the term's remaining time in the current cycle"
      },
      "getRemainingCycles(uint256)": {
        "notice": "Get the term's remaining cycles"
      },
      "getRemainingCyclesContributionWei(uint256)": {
        "notice": "Get the term's remaining contribution amount converted from USDC to wei"
      },
      "getRemainingRegistrationTime(uint256)": {
        "notice": "Gets the remaining registration period for a term"
      },
      "getTermSummary(uint256)": {
        "notice": "Gets the term object"
      },
      "getToCollateralConversionRate(uint256)": {
        "notice": "Gets the conversion rate of an amount in USD to ETH"
      },
      "getToStableConversionRate(uint256)": {
        "notice": "Gets the conversion rate of an amount in ETH to USD"
      },
      "getUserSet(address,uint256)": {
        "notice": "function to get cycle information of a specific participant"
      },
      "getUserYieldSummary(address,uint256)": {
        "notice": "Gets the user yield summary"
      },
      "getWithdrawableUserBalance(uint256,address)": {
        "notice": "Called to check how much collateral a user can withdraw"
      },
      "getYieldLockState()": {
        "notice": "This function is used to get the current state of the yield lock"
      },
      "getYieldSummary(uint256)": {
        "notice": "Gets the yield object"
      },
      "isBeneficiary(uint256,address)": {
        "notice": "checks if a participant have been a beneficiary"
      },
      "isExempted(uint256,uint256,address)": {
        "notice": "function to see if a user is exempted from paying a cycle"
      },
      "isUnderCollaterized(uint256,address)": {
        "notice": "Checks if a user has a collateral below 1.0x of total contribution amount"
      },
      "minCollateralToDeposit(uint256,uint256)": {
        "notice": "Called to check the minimum collateral amount to deposit in wei"
      },
      "termAPY(uint256)": {
        "notice": "This function is used to get a term APY"
      },
      "totalYieldGenerated(uint256)": {
        "notice": "This function is used to get the total yield generated for a term"
      },
      "userAPY(uint256,address)": {
        "notice": "This function is used to get a user APY"
      },
      "userHasoptedInYG(uint256,address)": {
        "notice": "This function is used to check if a user has opted in for yield generation"
      },
      "wasExpelled(uint256,address)": {
        "notice": "function to know if a user was expelled before"
      }
    },
    "notice": "Getters for Takaturn protocol",
    "version": 1
  },
  "storageLayout": {
    "storage": [],
    "types": null
  }
}