{
  "address": "0x9eDc3F20cecd9530da34df10b145bAe79A08e39C",
  "abi": [
    {
      "inputs": [
        {
          "internalType": "uint256",
          "name": "termId",
          "type": "uint256"
        },
        {
          "internalType": "address",
          "name": "user",
          "type": "address"
        }
      ],
      "name": "expelledBeforeBeneficiary",
      "outputs": [
        {
          "internalType": "bool",
          "name": "",
          "type": "bool"
        }
      ],
      "stateMutability": "view",
      "type": "function"
    },
    {
      "inputs": [
        {
          "internalType": "address",
          "name": "participant",
          "type": "address"
        }
      ],
      "name": "getAllJoinedTerms",
      "outputs": [
        {
          "internalType": "uint256[]",
          "name": "",
          "type": "uint256[]"
        }
      ],
      "stateMutability": "view",
      "type": "function"
    },
    {
      "inputs": [
        {
          "internalType": "uint256",
          "name": "termId",
          "type": "uint256"
        }
      ],
      "name": "getCollateralSummary",
      "outputs": [
        {
          "internalType": "bool",
          "name": "",
          "type": "bool"
        },
        {
          "internalType": "enum LibCollateralStorage.CollateralStates",
          "name": "",
          "type": "uint8"
        },
        {
          "internalType": "uint256",
          "name": "",
          "type": "uint256"
        },
        {
          "internalType": "uint256",
          "name": "",
          "type": "uint256"
        },
        {
          "internalType": "address[]",
          "name": "",
          "type": "address[]"
        }
      ],
      "stateMutability": "view",
      "type": "function"
    },
    {
      "inputs": [
        {
          "internalType": "string",
          "name": "firstAggregator",
          "type": "string"
        },
        {
          "internalType": "string",
          "name": "secondAggregator",
          "type": "string"
        },
        {
          "internalType": "string",
          "name": "zapAddress",
          "type": "string"
        },
        {
          "internalType": "string",
          "name": "vaultAddress",
          "type": "string"
        }
      ],
      "name": "getConstants",
      "outputs": [
        {
          "internalType": "address",
          "name": "",
          "type": "address"
        },
        {
          "internalType": "address",
          "name": "",
          "type": "address"
        },
        {
          "internalType": "address",
          "name": "",
          "type": "address"
        },
        {
          "internalType": "address",
          "name": "",
          "type": "address"
        }
      ],
      "stateMutability": "view",
      "type": "function"
    },
    {
      "inputs": [
        {
          "internalType": "uint256",
          "name": "termId",
          "type": "uint256"
        }
      ],
      "name": "getCurrentBeneficiary",
      "outputs": [
        {
          "internalType": "address",
          "name": "",
          "type": "address"
        }
      ],
      "stateMutability": "view",
      "type": "function"
    },
    {
      "inputs": [
        {
          "internalType": "address",
          "name": "depositor",
          "type": "address"
        },
        {
          "internalType": "uint256",
          "name": "termId",
          "type": "uint256"
        }
      ],
      "name": "getDepositorCollateralSummary",
      "outputs": [
        {
          "internalType": "bool",
          "name": "",
          "type": "bool"
        },
        {
          "internalType": "uint256",
          "name": "",
          "type": "uint256"
        },
        {
          "internalType": "uint256",
          "name": "",
          "type": "uint256"
        },
        {
          "internalType": "uint256",
          "name": "",
          "type": "uint256"
        },
        {
          "internalType": "uint256",
          "name": "",
          "type": "uint256"
        }
      ],
      "stateMutability": "view",
      "type": "function"
    },
    {
      "inputs": [
        {
          "internalType": "address",
          "name": "participant",
          "type": "address"
        }
      ],
      "name": "getExpelledTerms",
      "outputs": [
        {
          "internalType": "uint256[]",
          "name": "",
          "type": "uint256[]"
        }
      ],
      "stateMutability": "view",
      "type": "function"
    },
    {
      "inputs": [
        {
          "internalType": "uint256",
          "name": "termId",
          "type": "uint256"
        }
      ],
      "name": "getFundSummary",
      "outputs": [
        {
          "internalType": "bool",
          "name": "",
          "type": "bool"
        },
        {
          "internalType": "enum LibFundStorage.FundStates",
          "name": "",
          "type": "uint8"
        },
        {
          "internalType": "contract IERC20",
          "name": "",
          "type": "address"
        },
        {
          "internalType": "address[]",
          "name": "",
          "type": "address[]"
        },
        {
          "internalType": "uint256",
          "name": "",
          "type": "uint256"
        },
        {
          "internalType": "uint256",
          "name": "",
          "type": "uint256"
        },
        {
          "internalType": "uint256",
          "name": "",
          "type": "uint256"
        },
        {
          "internalType": "uint256",
          "name": "",
          "type": "uint256"
        }
      ],
      "stateMutability": "view",
      "type": "function"
    },
    {
      "inputs": [
        {
          "internalType": "address",
          "name": "participant",
          "type": "address"
        },
        {
          "internalType": "enum LibTermStorage.TermStates",
          "name": "state",
          "type": "uint8"
        }
      ],
      "name": "getJoinedTermsByState",
      "outputs": [
        {
          "internalType": "uint256[]",
          "name": "",
          "type": "uint256[]"
        }
      ],
      "stateMutability": "view",
      "type": "function"
    },
    {
      "inputs": [],
      "name": "getLatestPrice",
      "outputs": [
        {
          "internalType": "uint256",
          "name": "",
          "type": "uint256"
        }
      ],
      "stateMutability": "view",
      "type": "function"
    },
    {
      "inputs": [
        {
          "internalType": "address",
          "name": "user",
          "type": "address"
        }
      ],
      "name": "getNeededAllowance",
      "outputs": [
        {
          "internalType": "uint256",
          "name": "",
          "type": "uint256"
        }
      ],
      "stateMutability": "view",
      "type": "function"
    },
    {
      "inputs": [
        {
          "internalType": "address",
          "name": "participant",
          "type": "address"
        },
        {
          "internalType": "uint256",
          "name": "termId",
          "type": "uint256"
        }
      ],
      "name": "getParticipantFundSummary",
      "outputs": [
        {
          "internalType": "bool",
          "name": "",
          "type": "bool"
        },
        {
          "internalType": "bool",
          "name": "",
          "type": "bool"
        },
        {
          "internalType": "bool",
          "name": "",
          "type": "bool"
        },
        {
          "internalType": "bool",
          "name": "",
          "type": "bool"
        },
        {
          "internalType": "uint256",
          "name": "",
          "type": "uint256"
        },
        {
          "internalType": "bool",
          "name": "",
          "type": "bool"
        }
      ],
      "stateMutability": "view",
      "type": "function"
    },
    {
      "inputs": [
        {
          "internalType": "uint256",
          "name": "termId",
          "type": "uint256"
        }
      ],
      "name": "getRemainingContributionTime",
      "outputs": [
        {
          "internalType": "uint256",
          "name": "",
          "type": "uint256"
        }
      ],
      "stateMutability": "view",
      "type": "function"
    },
    {
      "inputs": [
        {
          "internalType": "uint256",
          "name": "termId",
          "type": "uint256"
        }
      ],
      "name": "getRemainingCycleTime",
      "outputs": [
        {
          "internalType": "uint256",
          "name": "",
          "type": "uint256"
        }
      ],
      "stateMutability": "view",
      "type": "function"
    },
    {
      "inputs": [
        {
          "internalType": "uint256",
          "name": "termId",
          "type": "uint256"
        }
      ],
      "name": "getRemainingCycles",
      "outputs": [
        {
          "internalType": "uint256",
          "name": "",
          "type": "uint256"
        }
      ],
      "stateMutability": "view",
      "type": "function"
    },
    {
      "inputs": [
        {
          "internalType": "uint256",
          "name": "termId",
          "type": "uint256"
        }
      ],
      "name": "getRemainingCyclesContributionWei",
      "outputs": [
        {
          "internalType": "uint256",
          "name": "",
          "type": "uint256"
        }
      ],
      "stateMutability": "view",
      "type": "function"
    },
    {
      "inputs": [
        {
          "internalType": "uint256",
          "name": "termId",
          "type": "uint256"
        }
      ],
      "name": "getRemainingRegistrationTime",
      "outputs": [
        {
          "internalType": "uint256",
          "name": "",
          "type": "uint256"
        }
      ],
      "stateMutability": "view",
      "type": "function"
    },
    {
      "inputs": [
        {
          "internalType": "uint256",
          "name": "termId",
          "type": "uint256"
        }
      ],
      "name": "getTermSummary",
      "outputs": [
        {
          "components": [
            {
              "internalType": "bool",
              "name": "initialized",
              "type": "bool"
            },
            {
              "internalType": "enum LibTermStorage.TermStates",
              "name": "state",
              "type": "uint8"
            },
            {
              "internalType": "address",
              "name": "termOwner",
              "type": "address"
            },
            {
              "internalType": "uint256",
              "name": "creationTime",
              "type": "uint256"
            },
            {
              "internalType": "uint256",
              "name": "termId",
              "type": "uint256"
            },
            {
              "internalType": "uint256",
              "name": "registrationPeriod",
              "type": "uint256"
            },
            {
              "internalType": "uint256",
              "name": "totalParticipants",
              "type": "uint256"
            },
            {
              "internalType": "uint256",
              "name": "cycleTime",
              "type": "uint256"
            },
            {
              "internalType": "uint256",
              "name": "contributionAmount",
              "type": "uint256"
            },
            {
              "internalType": "uint256",
              "name": "contributionPeriod",
              "type": "uint256"
            },
            {
              "internalType": "address",
              "name": "stableTokenAddress",
              "type": "address"
            }
          ],
          "internalType": "struct LibTermStorage.Term",
          "name": "",
          "type": "tuple"
        }
      ],
      "stateMutability": "view",
      "type": "function"
    },
    {
      "inputs": [],
      "name": "getTermsId",
      "outputs": [
        {
          "internalType": "uint256",
          "name": "",
          "type": "uint256"
        },
        {
          "internalType": "uint256",
          "name": "",
          "type": "uint256"
        }
      ],
      "stateMutability": "view",
      "type": "function"
    },
    {
      "inputs": [
        {
          "internalType": "uint256",
          "name": "USDAmount",
          "type": "uint256"
        }
      ],
      "name": "getToCollateralConversionRate",
      "outputs": [
        {
          "internalType": "uint256",
          "name": "",
          "type": "uint256"
        }
      ],
      "stateMutability": "view",
      "type": "function"
    },
    {
      "inputs": [
        {
          "internalType": "uint256",
          "name": "ethAmount",
          "type": "uint256"
        }
      ],
      "name": "getToStableConversionRate",
      "outputs": [
        {
          "internalType": "uint256",
          "name": "",
          "type": "uint256"
        }
      ],
      "stateMutability": "view",
      "type": "function"
    },
    {
      "inputs": [
        {
          "internalType": "address",
          "name": "participant",
          "type": "address"
        },
        {
          "internalType": "uint256",
          "name": "termId",
          "type": "uint256"
        }
      ],
      "name": "getUserSet",
      "outputs": [
        {
          "internalType": "bool",
          "name": "",
          "type": "bool"
        },
        {
          "internalType": "bool",
          "name": "",
          "type": "bool"
        },
        {
          "internalType": "bool",
          "name": "",
          "type": "bool"
        }
      ],
      "stateMutability": "view",
      "type": "function"
    },
    {
      "inputs": [
        {
          "internalType": "address",
          "name": "user",
          "type": "address"
        },
        {
          "internalType": "uint256",
          "name": "termId",
          "type": "uint256"
        }
      ],
      "name": "getUserYieldSummary",
      "outputs": [
        {
          "internalType": "bool",
          "name": "",
          "type": "bool"
        },
        {
          "internalType": "uint256",
          "name": "",
          "type": "uint256"
        },
        {
          "internalType": "uint256",
          "name": "",
          "type": "uint256"
        },
        {
          "internalType": "uint256",
          "name": "",
          "type": "uint256"
        },
        {
          "internalType": "uint256",
          "name": "",
          "type": "uint256"
        },
        {
          "internalType": "uint256",
          "name": "",
          "type": "uint256"
        }
      ],
      "stateMutability": "view",
      "type": "function"
    },
    {
      "inputs": [
        {
          "internalType": "uint256",
          "name": "termId",
          "type": "uint256"
        },
        {
          "internalType": "address",
          "name": "user",
          "type": "address"
        }
      ],
      "name": "getWithdrawableUserBalance",
      "outputs": [
        {
          "internalType": "uint256",
          "name": "allowedWithdrawal",
          "type": "uint256"
        }
      ],
      "stateMutability": "view",
      "type": "function"
    },
    {
      "inputs": [],
      "name": "getYieldLockState",
      "outputs": [
        {
          "internalType": "bool",
          "name": "",
          "type": "bool"
        }
      ],
      "stateMutability": "view",
      "type": "function"
    },
    {
      "inputs": [
        {
          "internalType": "uint256",
          "name": "termId",
          "type": "uint256"
        }
      ],
      "name": "getYieldSummary",
      "outputs": [
        {
          "internalType": "bool",
          "name": "",
          "type": "bool"
        },
        {
          "internalType": "uint256",
          "name": "",
          "type": "uint256"
        },
        {
          "internalType": "uint256",
          "name": "",
          "type": "uint256"
        },
        {
          "internalType": "uint256",
          "name": "",
          "type": "uint256"
        },
        {
          "internalType": "uint256",
          "name": "",
          "type": "uint256"
        },
        {
          "internalType": "address[]",
          "name": "",
          "type": "address[]"
        },
        {
          "internalType": "address",
          "name": "",
          "type": "address"
        },
        {
          "internalType": "address",
          "name": "",
          "type": "address"
        }
      ],
      "stateMutability": "view",
      "type": "function"
    },
    {
      "inputs": [
        {
          "internalType": "uint256",
          "name": "termId",
          "type": "uint256"
        },
        {
          "internalType": "address",
          "name": "beneficiary",
          "type": "address"
        }
      ],
      "name": "isBeneficiary",
      "outputs": [
        {
          "internalType": "bool",
          "name": "",
          "type": "bool"
        }
      ],
      "stateMutability": "view",
      "type": "function"
    },
    {
      "inputs": [
        {
          "internalType": "uint256",
          "name": "termId",
          "type": "uint256"
        },
        {
          "internalType": "uint256",
          "name": "cycle",
          "type": "uint256"
        },
        {
          "internalType": "address",
          "name": "user",
          "type": "address"
        }
      ],
      "name": "isExempted",
      "outputs": [
        {
          "internalType": "bool",
          "name": "",
          "type": "bool"
        }
      ],
      "stateMutability": "view",
      "type": "function"
    },
    {
      "inputs": [
        {
          "internalType": "uint256",
          "name": "termId",
          "type": "uint256"
        },
        {
          "internalType": "address",
          "name": "member",
          "type": "address"
        }
      ],
      "name": "isUnderCollaterized",
      "outputs": [
        {
          "internalType": "bool",
          "name": "",
          "type": "bool"
        }
      ],
      "stateMutability": "view",
      "type": "function"
    },
    {
      "inputs": [
        {
          "internalType": "uint256",
          "name": "termId",
          "type": "uint256"
        },
        {
          "internalType": "uint256",
          "name": "depositorIndex",
          "type": "uint256"
        }
      ],
      "name": "minCollateralToDeposit",
      "outputs": [
        {
          "internalType": "uint256",
          "name": "amount",
          "type": "uint256"
        }
      ],
      "stateMutability": "view",
      "type": "function"
    },
    {
      "inputs": [
        {
          "internalType": "uint256",
          "name": "termId",
          "type": "uint256"
        }
      ],
      "name": "termAPY",
      "outputs": [
        {
          "internalType": "uint256",
          "name": "",
          "type": "uint256"
        }
      ],
      "stateMutability": "view",
      "type": "function"
    },
    {
      "inputs": [
        {
          "internalType": "uint256",
          "name": "termId",
          "type": "uint256"
        }
      ],
      "name": "totalYieldGenerated",
      "outputs": [
        {
          "internalType": "uint256",
          "name": "",
          "type": "uint256"
        }
      ],
      "stateMutability": "view",
      "type": "function"
    },
    {
      "inputs": [
        {
          "internalType": "uint256",
          "name": "termId",
          "type": "uint256"
        },
        {
          "internalType": "address",
          "name": "user",
          "type": "address"
        }
      ],
      "name": "userAPY",
      "outputs": [
        {
          "internalType": "uint256",
          "name": "",
          "type": "uint256"
        }
      ],
      "stateMutability": "view",
      "type": "function"
    },
    {
      "inputs": [
        {
          "internalType": "uint256",
          "name": "termId",
          "type": "uint256"
        },
        {
          "internalType": "address",
          "name": "user",
          "type": "address"
        }
      ],
      "name": "userHasoptedInYG",
      "outputs": [
        {
          "internalType": "bool",
          "name": "",
          "type": "bool"
        }
      ],
      "stateMutability": "view",
      "type": "function"
    },
    {
      "inputs": [
        {
          "internalType": "uint256",
          "name": "termId",
          "type": "uint256"
        },
        {
          "internalType": "address",
          "name": "user",
          "type": "address"
        }
      ],
      "name": "wasExpelled",
      "outputs": [
        {
          "internalType": "bool",
          "name": "",
          "type": "bool"
        }
      ],
      "stateMutability": "view",
      "type": "function"
    }
  ],
  "args": [],
  "numDeployments": 8,
  "solcInputHash": "337d17b1bdb88d71418f007482ea94ca",
  "bytecode": "0x608060405234801561001057600080fd5b50612d00806100206000396000f3fe608060405234801561001057600080fd5b50600436106102115760003560e01c806392a6c80211610125578063d8f8e991116100ad578063dc9e24ae1161007c578063dc9e24ae14610661578063e51a629514610674578063e9783e6014610687578063f0d826e7146106d1578063fd4dba9d146106e457600080fd5b8063d8f8e991146105df578063da3791ca1461060a578063dbd576831461062e578063dbf428101461064e57600080fd5b8063bb91b76d116100f4578063bb91b76d14610542578063c177f0911461057f578063d072f4bc14610592578063d72bb87e146105a5578063d7992e5b146105cc57600080fd5b806392a6c802146104715780639d4eb26f14610484578063b6abd1a4146104ab578063b7cf483f146104f157600080fd5b806365654fe3116101a857806377778baf1161017757806377778baf146104135780637aed53a61461042657806380530731146104435780638e15f4731461045657806391ce5ff71461045e57600080fd5b806365654fe3146103595780636bbbb5fb1461036c57806375aaa78c146103b657806375d4e40b146103c957600080fd5b80631e993b53116101e45780631e993b53146102dd5780633d17f1e0146102fd5780636191474c1461033357806362f02abd1461034657600080fd5b80630c64c697146102165780630fc4a7ef1461023c5780631268612d1461024f5780631c162dbe1461029b575b600080fd5b61022961022436600461255a565b610716565b6040519081526020015b60405180910390f35b61022961024a36600461257c565b6107d8565b61026261025d3660046125b1565b61080c565b604080519615158752941515602087015292151593850193909352151560608401526080830191909152151560a082015260c001610233565b6102ae6102a93660046125b1565b6108a9565b6040805196151587526020870195909552938501929092526060840152608083015260a082015260c001610233565b6102f06102eb3660046125db565b61093f565b60405161023391906125f6565b7f7c039906f7f8ca11e01b6987a88513563589699678f7d2a6c8447f44d69375f35460ff165b6040519015158152602001610233565b61022961034136600461257c565b610ab2565b61022961035436600461257c565b610b70565b61022961036736600461263a565b610bb1565b61032361037a36600461263a565b6000918252600080516020612c4b833981519152602090815260408084206001600160a01b039390931684526015909201905290205460ff1690565b6102f06103c43660046125db565b610c88565b6103236103d736600461263a565b6000918252600080516020612c2b833981519152602090815260408084206001600160a01b039390931684526007909201905290205460ff1690565b61022961042136600461263a565b610d28565b61042e610f00565b60408051928352602083019190915201610233565b61022961045136600461257c565b610f31565b610229610f98565b61022961046c36600461257c565b61122c565b61022961047f36600461257c565b6112f4565b61049761049236600461257c565b611341565b6040516102339897969594939291906126aa565b6104be6104b93660046127aa565b61147c565b604080516001600160a01b0395861681529385166020850152918416918301919091529091166060820152608001610233565b6103236104ff366004612857565b6000928352600080516020612c4b83398151915260209081526040808520938552600c90930181528284206001600160a01b039290921684525290205460ff1690565b6105556105503660046125b1565b61157e565b6040805195151586526020860194909452928401919091526060830152608082015260a001610233565b61032361058d36600461263a565b611676565b6102296105a036600461257c565b611682565b6105b86105b336600461257c565b6116a4565b6040516102339897969594939291906128a2565b6103236105da36600461263a565b61177d565b6105f26105ed36600461257c565b611817565b6040516001600160a01b039091168152602001610233565b61061d61061836600461257c565b611873565b604051610233959493929190612920565b61064161063c36600461257c565b611929565b6040516102339190612963565b61022961065c36600461257c565b611a72565b6102f061066f366004612a01565b611b9d565b6102296106823660046125db565b611d5e565b61032361069536600461263a565b6000918252600080516020612c4b833981519152602090815260408084206001600160a01b039390931684526006909201905290205460ff1690565b6102296106df36600461257c565b611ec1565b6106f76106f23660046125b1565b611f4a565b6040805193151584529115156020840152151590820152606001610233565b6000828152600080516020612c6b833981519152602052604081206004810154831061077f5760405162461bcd60e51b8152602060048201526013602482015272496e646578206f7574206f6620626f756e647360681b60448201526064015b60405180910390fd5b600061079c8260060154670de0b6b3a76400006105a09190612a52565b905060648483600401546107b09190612a69565b6107ba9083612a52565b6107c5906096612a52565b6107cf9190612a92565b95945050505050565b6000806107e3610f98565b90506000670de0b6b3a76400006107fa8584612a52565b6108049190612a92565b949350505050565b6000818152600080516020612c4b83398151915260205260408120819081908190819081908161083c8a8a611fa9565b6001600160a01b039a909a1660009081526005830160209081526040808320546006860183528184205460078701845282852054600888018552838620546009909801909452919093205460ff9384169e9184169d9284169c509290941699509097509550909350505050565b6000818152600080516020612c2b8339815191526020526040812081908190819081908190816108d9898b612064565b6001600160a01b039a909a1660009081526007830160209081526040808320546008860183528184205460098701845282852054600a8801855283862054600b909801909452919093205460ff9093169d909c919b509399509097509550909350505050565b6060600061094c83610c88565b90506000815167ffffffffffffffff81111561096a5761096a612707565b604051908082528060200260200182016040528015610993578160200160208202803683370190505b508251909150600090815b81811015610a15576109c98582815181106109bb576109bb612aa6565b60200260200101518861177d565b15610a0d578481815181106109e0576109e0612aa6565b60200260200101518484815181106109fa576109fa612aa6565b6020026020010181815250508260010192505b60010161099e565b5060008267ffffffffffffffff811115610a3157610a31612707565b604051908082528060200260200182016040528015610a5a578160200160208202803683370190505b50905060005b83811015610aa757848181518110610a7a57610a7a612aa6565b6020026020010151828281518110610a9457610a94612aa6565b6020908102919091010152600101610a60565b509695505050505050565b6000818152600080516020612c4b83398151915260209081526040808320600080516020612c6b83398151915290925282208154600190610100900460ff166004811115610b0257610b0261288c565b14610b11575060009392505050565b60008160070154836002015460018560040154610b2e9190612a69565b8460050154610b3d9190612a52565b610b479190612abc565b610b519190612abc565b905080421115610b6657506000949350505050565b6107cf4282612a69565b6000818152600080516020612c4b8339815191526020526040812060048101546014820154610ba0906001612abc565b610baa9190612a69565b9392505050565b6000828152600080516020612c2b83398151915260209081526040808320600080516020612c8b833981519152909252822060028201548390610bf49042612a69565b90506000610c028787612064565b6001600160a01b0387166000908152600886016020526040902054610c279190612abc565b6001600160a01b03871660009081526005850160205260409020549091508290610c5983670de0b6b3a7640000612a52565b610c639190612a92565b610c71906301e13380612a52565b610c7b9190612a92565b9450505050505b92915050565b6001600160a01b03811660009081527f87101b21d556417ad2b8e8f2700dbad90721d5d50a1f435f2dee0b9dc981ac8b602090815260408083208054825181850281018501909352808352606094600080516020612cab833981519152949093929190830182828015610d1a57602002820191906000526020600020905b815481526020019060010190808311610d06575b509398975050505050505050565b6000828152600080516020612c6b83398151915260209081526040808320600080516020612c4b8339815191528352818420600080516020612c8b8339815191528452828520600080516020612c2b83398151915285528386206001600160a01b038816875260058201865284872054600a82018752858820546015850190975294872054825494969395929491939160ff918216916002916101009004166003811115610dd857610dd861288c565b1480610de15750805b15610df757610df08284612abc565b9750610ef3565b60018554610100900460ff166003811115610e1457610e1461288c565b03610eee576001600160a01b038916600090815260078701602052604081205460ff16610e6257600a610e468c611ec1565b610e5190600f612a52565b610e5b9190612a92565b9050610ebf565b600087600401548860140154610e789190612a69565b90506000610e978a60060154670de0b6b3a76400006105a09190612a52565b9050600a610ea58284612a52565b610eb090600f612a52565b610eba9190612a92565b925050505b80841115610ee35782610ed28286612a69565b610edc9190612abc565b9850610ee8565b600098505b50610ef3565b600097505b5050505050505092915050565b600080516020612cab833981519152805460009182918290610f2490600190612a69565b9154919491935090915050565b6000818152600080516020612c2b8339815191526020526040812060028101548290610f5d9042612a69565b9050808260040154610f6e86611a72565b610f8090670de0b6b3a7640000612a52565b610f8a9190612a92565b6107fa906301e13380612a52565b6000807f138fa7b895cc6132bd44317f3510a9c38821e93ca223f9fdc532527c01963ec4905060008060008084600001604051610fe290661155120bd554d160ca1b815260070190565b9081526040805191829003602001822054633fabe5a360e21b835290516001600160a01b039091169163feaf968c9160048083019260a09291908290030181865afa158015611035573d6000803e3d6000fd5b505050506040513d601f19601f820116820180604052508101906110599190612ae6565b945094505093509350816000141580156110855750836001600160501b0316816001600160501b031610155b80156110915750600083135b6110dd5760405162461bcd60e51b815260206004820152601b60248201527f436861696e6c696e6b4f7261636c653a207374616c65206461746100000000006044820152606401610776565b6000806000808860000160405161110290671554d110cbd554d160c21b815260080190565b9081526040805191829003602001822054633fabe5a360e21b835290516001600160a01b039091169163feaf968c9160048083019260a09291908290030181865afa158015611155573d6000803e3d6000fd5b505050506040513d601f19601f820116820180604052508101906111799190612ae6565b945094505093509350816000141580156111a55750836001600160501b0316816001600160501b031610155b80156111b15750600083135b6111fd5760405162461bcd60e51b815260206004820152601b60248201527f436861696e6c696e6b4f7261636c653a207374616c65206461746100000000006044820152606401610776565b60006112098489612b36565b905061121d81670de0b6b3a7640000612b64565b9a505050505050505050505090565b6000818152600080516020612c6b83398151915260209081526040808320600080516020612c8b8339815191529092528220600181015483036112b15760405162461bcd60e51b815260206004820152601860248201527f4e6f626f647920686173206465706f73697465642079657400000000000000006044820152606401610776565b816003015481600101546112c59190612abc565b42106112d5575060009392505050565b42826003015482600101546112ea9190612abc565b6108049190612a69565b6000818152600080516020612c4b83398151915260209081526040808320600080516020612c6b8339815191529092528220600282015460048301546005830154859291610b4791612a52565b6000808080806060818080600080516020612c2b83398151915260000160008b815260200190815260200160002090508060000160009054906101000a900460ff16816002015482600301548360040154846005015485600601866001016040516113bb906816985e5b95985d5b1d60ba1b815260090190565b908152604051908190036020018120546001600160a01b03169060018901906113f1906605a61796e5a61760cc1b815260070190565b908152604080519182900360209081018320548554808302850183019093528284526001600160a01b03169291859183018282801561145957602002820191906000526020600020905b81546001600160a01b0316815260019091019060200180831161143b575b505050505092509850985098509850985098509850985050919395975091939597565b6040516000908190819081907f138fa7b895cc6132bd44317f3510a9c38821e93ca223f9fdc532527c01963ec4907ff27a5986330dc78d016d8604ee1a040d5a789fbaa2d0c27f5dfded4b616b89779082906114d9908c90612b94565b908152604051908190036020018120546001600160a01b0316908390611500908c90612b94565b908152604051908190036020018120546001600160a01b0316908390611527908c90612b94565b908152604051908190036020018120546001600160a01b031690849061154e908c90612b94565b9081526040519081900360200190205492985090965094506001600160a01b031692505050945094509450949050565b6000818152600080516020612c8b83398151915260209081526040808320600080516020612c4b8339815191528352818420600080516020612c6b83398151915284528285206001600160a01b038816865260068201909452918420548493849384938493909290849060ff166116115761160a8260060154670de0b6b3a76400006105a09190612a52565b905061161d565b61161a8a611ec1565b90505b6001600160a01b039a909a1660009081526004840160209081526040808320546005870183528184205460068801845282852054600790980190935292205460ff9092169c909b949a5090985092965091945050505050565b6000610baa838361208d565b60008061168d610f98565b90506000816107fa85670de0b6b3a7640000612a52565b6000808060608180808080600080516020612c4b83398151915260008b81526020918252604090819020805460028201546003830154600484015460148501546001860180548851818b0281018b0190995280895296995060ff80871699610100880490911698620100009097046001600160a01b031697919691879183018282801561175a57602002820191906000526020600020905b81546001600160a01b0316815260019091019060200180831161173c575b505050505094509850985098509850985098509850985050919395975091939597565b6000828152600080516020612c4b83398151915260209081526040808320600080516020612c8b83398151915283528184206001600160a01b0386168552600582019093529083205490919060ff161580156117f457506001600160a01b038416600090815260048201602052604090205460ff16155b1561180457600192505050610c82565b600092505050610c82565b505092915050565b6000818152600080516020612c4b8339815191526020526040812060048101546001808301916118479190612a69565b8154811061185757611857612aa6565b6000918252602090912001546001600160a01b03169392505050565b6000808080606081600080516020612c8b8339815191526000888152602091825260409081902080546001820154600283015460038401805486518189028101890190975280875294975060ff80851697610100909504169592949193909291839183018282801561190e57602002820191906000526020600020905b81546001600160a01b031681526001909101906020018083116118f0575b50505050509050955095509550955095505091939590929450565b61199960408051610160810190915260008082526020820190815260200160006001600160a01b031681526020016000815260200160008152602001600081526020016000815260200160008152602001600081526020016000815260200160006001600160a01b031681525090565b6000828152600080516020612c6b833981519152602090815260409182902082516101608101909352805460ff8082161515855291928401916101009091041660038111156119ea576119ea61288c565b60038111156119fb576119fb61288c565b815281546001600160a01b036201000090910481166020830152600183015460408301526002830154606083015260038301546080830152600483015460a0830152600583015460c0830152600683015460e083015260078301546101008301526008909201549091166101209091015292915050565b6000818152600080516020612c2b83398151915260209081526040808320600681018054835181860281018601909452808452919385938493909291830182828015611ae757602002820191906000526020600020905b81546001600160a01b03168152600190910190602001808311611ac9575b505083519394506000925050505b81811015611b5357846008016000848381518110611b1557611b15612aa6565b60200260200101516001600160a01b03166001600160a01b031681526020019081526020016000205484611b499190612abc565b9350600101611af5565b506000611b6087866121d4565b90508460040154811115611b92576004850154611b7d8286612abc565b611b879190612a69565b979650505050505050565b509195945050505050565b60606000611baa84610c88565b90506000815167ffffffffffffffff811115611bc857611bc8612707565b604051908082528060200260200182016040528015611bf1578160200160208202803683370190505b508251909150600090815b81811015611cc057866003811115611c1657611c1661288c565b600080516020612cab8339815191526001016000878481518110611c3c57611c3c612aa6565b6020026020010151815260200190815260200160002060000160019054906101000a900460ff166003811115611c7457611c7461288c565b03611cb857848181518110611c8b57611c8b612aa6565b6020026020010151848481518110611ca557611ca5612aa6565b6020026020010181815250508260010192505b600101611bfc565b5060008267ffffffffffffffff811115611cdc57611cdc612707565b604051908082528060200260200182016040528015611d05578160200160208202803683370190505b50905060005b83811015611d5257848181518110611d2557611d25612aa6565b6020026020010151828281518110611d3f57611d3f612aa6565b6020908102919091010152600101611d0b565b50979650505050505050565b6000806000611d6e846001611b9d565b90506000611d7d856000611b9d565b825181519192509060005b82811015611e2b576000600080516020612cab8339815191526001016000878481518110611db857611db8612aa6565b6020026020010151815260200190815260200160002090506000611df4878481518110611de757611de7612aa6565b6020026020010151610b70565b8260060154611e039190612a52565b611e1090620f4240612a52565b9050611e1c8189612abc565b97508260010192505050611d88565b5060005b81811015611eb5576000600080516020612cab8339815191526001016000868481518110611e5f57611e5f612aa6565b602002602001015181526020019081526020016000209050600081600401548260060154611e8d9190612a52565b611e9a90620f4240612a52565b9050611ea68189612abc565b97508260010192505050611e2f565b50939695505050505050565b6000818152600080516020612c4b83398151915260209081526040808320600080516020612c6b833981519152909252822060048201546014830154849190611f0b906001612abc565b611f159190612a69565b90506000611f348360060154670de0b6b3a76400006105a09190612a52565b9050611f408183612a52565b9695505050505050565b6000818152600080516020612c4b833981519152602052604081208190819081611f77600d830188612320565b90506000611f8883600f0189612320565b90506000611f99846011018a612320565b9299919850919650945050505050565b6000818152600080516020612c4b83398151915260209081526040808320600080516020612c8b83398151915283528184206001600160a01b0387168552601582019093529083205490919060ff1615612006576000925061180f565b6000606461201386611ec1565b61201e90606e612a52565b6120289190612a92565b6001600160a01b0387166000908152600584016020526040902054909150811115612056576001935061205b565b600093505b50505092915050565b600080670de0b6b3a764000061207a8585612342565b612083866123ce565b6107fa9190612a52565b6000828152600080516020612c8b833981519152602090815260408083206001600160a01b03851684526005810190925282205482906120e9866000908152600080516020612c4b833981519152602052604090205460ff1690565b6121685760405163bb91b76d60e01b81526001600160a01b038616600482015260248101879052309063bb91b76d9060440160a060405180830381865afa158015612138573d6000803e3d6000fd5b505050506040513d601f19601f8201168201806040525081019061215c9190612bc3565b95506121cb9350505050565b60405163f0d826e760e01b815260048101879052309063f0d826e790602401602060405180830381865afa1580156121a4573d6000803e3d6000fd5b505050506040513d601f19601f820116820180604052508101906121c89190612c11565b91505b10949350505050565b600080826001016040516121f7906816985e5b95985d5b1d60ba1b815260090190565b90815260405190819003602001812054631398fee160e31b82526001600160a01b031690639cc7f7089061223390879060040190815260200190565b602060405180830381865afa158015612250573d6000803e3d6000fd5b505050506040513d601f19601f820116820180604052508101906122749190612c11565b9050600083600101604051612298906816985e5b95985d5b1d60ba1b815260090190565b908152604080516020928190038301812054631df1ee3f60e21b825291516001600160a01b03909216926377c7b8fc926004808401938290030181865afa1580156122e7573d6000803e3d6000fd5b505050506040513d601f19601f8201168201806040525081019061230b9190612c11565b9050670de0b6b3a76400006107c58284612a52565b6001600160a01b03811660009081526001830160205260408120541515610baa565b6000828152600080516020612c2b8339815191526020526040812060048101548203612372576000915050610c82565b60038101546001600160a01b0384166000908152600983016020908152604080832054600b8601909252909120546123aa9190612a69565b6123bc90670de0b6b3a7640000612a52565b6123c69190612a92565b915050610c82565b6000818152600080516020612c2b833981519152602052604080822081516816985e5b95985d5b1d60ba1b8152600182016009820152915191829003602901822054631398fee160e31b835260048301859052909183916001600160a01b031690639cc7f70890602401602060405180830381865afa158015612455573d6000803e3d6000fd5b505050506040513d601f19601f820116820180604052508101906124799190612c11565b905060008260010160405161249d906816985e5b95985d5b1d60ba1b815260090190565b908152604080516020928190038301812054631df1ee3f60e21b825291516001600160a01b03909216926377c7b8fc926004808401938290030181865afa1580156124ec573d6000803e3d6000fd5b505050506040513d601f19601f820116820180604052508101906125109190612c11565b90506000670de0b6b3a76400006125278385612a52565b6125319190612a92565b9050836004015481111561254e576004840154611f409082612a69565b50600095945050505050565b6000806040838503121561256d57600080fd5b50508035926020909101359150565b60006020828403121561258e57600080fd5b5035919050565b80356001600160a01b03811681146125ac57600080fd5b919050565b600080604083850312156125c457600080fd5b6125cd83612595565b946020939093013593505050565b6000602082840312156125ed57600080fd5b610baa82612595565b6020808252825182820181905260009190848201906040850190845b8181101561262e57835183529284019291840191600101612612565b50909695505050505050565b6000806040838503121561264d57600080fd5b8235915061265d60208401612595565b90509250929050565b600081518084526020808501945080840160005b8381101561269f5781516001600160a01b03168752958201959082019060010161267a565b509495945050505050565b60006101008a151583528960208401528860408401528760608401528660808401528060a08401526126de81840187612666565b6001600160a01b0395861660c08501529390941660e09092019190915250979650505050505050565b634e487b7160e01b600052604160045260246000fd5b600082601f83011261272e57600080fd5b813567ffffffffffffffff8082111561274957612749612707565b604051601f8301601f19908116603f0116810190828211818310171561277157612771612707565b8160405283815286602085880101111561278a57600080fd5b836020870160208301376000602085830101528094505050505092915050565b600080600080608085870312156127c057600080fd5b843567ffffffffffffffff808211156127d857600080fd5b6127e48883890161271d565b955060208701359150808211156127fa57600080fd5b6128068883890161271d565b9450604087013591508082111561281c57600080fd5b6128288883890161271d565b9350606087013591508082111561283e57600080fd5b5061284b8782880161271d565b91505092959194509250565b60008060006060848603121561286c57600080fd5b833592506020840135915061288360408501612595565b90509250925092565b634e487b7160e01b600052602160045260246000fd5b60006101008a1515835260058a106128bc576128bc61288c565b602083018a90526001600160a01b0389166040840152606083018190526128e581840189612666565b9150508560808301528460a08301528360c08301528260e08301529998505050505050505050565b6004811061291d5761291d61288c565b50565b851515815261292e8561290d565b84602082015283604082015282606082015260a060808201526000611b8760a0830184612666565b61295f8161290d565b9052565b815115158152610160810160208301516129806020840182612956565b50604083015161299b60408401826001600160a01b03169052565b50606083015160608301526080830151608083015260a083015160a083015260c083015160c083015260e083015160e08301526101008084015181840152506101208084015181840152506101408084015161180f828501826001600160a01b03169052565b60008060408385031215612a1457600080fd5b612a1d83612595565b9150602083013560048110612a3157600080fd5b809150509250929050565b634e487b7160e01b600052601160045260246000fd5b8082028115828204841417610c8257610c82612a3c565b81810381811115610c8257610c82612a3c565b634e487b7160e01b600052601260045260246000fd5b600082612aa157612aa1612a7c565b500490565b634e487b7160e01b600052603260045260246000fd5b80820180821115610c8257610c82612a3c565b80516001600160501b03811681146125ac57600080fd5b600080600080600060a08688031215612afe57600080fd5b612b0786612acf565b9450602086015193506040860151925060608601519150612b2a60808701612acf565b90509295509295909350565b600082612b4557612b45612a7c565b600160ff1b821460001984141615612b5f57612b5f612a3c565b500590565b80820260008212600160ff1b84141615612b8057612b80612a3c565b8181058314821517610c8257610c82612a3c565b6000825160005b81811015612bb55760208186018101518583015201612b9b565b506000920191825250919050565b600080600080600060a08688031215612bdb57600080fd5b85518015158114612beb57600080fd5b602087015160408801516060890151608090990151929a91995097965090945092505050565b600060208284031215612c2357600080fd5b505191905056fe29d9cba46c358ba7c1b8945751229339792c7c62e3197c240fa98916e75ffbf96751f7e27cecf86d7136f5749c224248cae80a39fafb59f8f6bf12c52816307c87101b21d556417ad2b8e8f2700dbad90721d5d50a1f435f2dee0b9dc981ac8a35fa70a6f9ae8a4d427ebe0c1be62ffd2870fecc1df41c6fda0bf5803e56288887101b21d556417ad2b8e8f2700dbad90721d5d50a1f435f2dee0b9dc981ac89a264697066735822122096eac7953a648f71bd87627c88900439e66f95c977309690c2a26d9270cb653d64736f6c63430008120033",
  "devdoc": {
    "kind": "dev",
    "methods": {
      "expelledBeforeBeneficiary(uint256,address)": {
        "params": {
          "termId": "the id of the term",
          "user": "the address of the participant to check"
        },
        "returns": {
          "_0": "true if the participant is expelled before being a beneficiary"
        }
      },
      "getAllJoinedTerms(address)": {
        "params": {
          "participant": "the participant address"
        },
        "returns": {
          "_0": "an array with the term ids the participant is part of"
        }
      },
      "getCollateralSummary(uint256)": {
        "params": {
          "termId": "the collateral id"
        },
        "returns": {
          "_0": "collateral initialized",
          "_1": "collateral state",
          "_2": "collateral firstDepositTime",
          "_3": "counterMembers",
          "_4": "collateral depositors"
        }
      },
      "getConstants(string,string,string,string)": {
        "params": {
          "firstAggregator": "The name of the first aggregator. Example: \"ETH/USD\"",
          "secondAggregator": "The name of the second aggregator. Example: \"USDC/USD\"",
          "vaultAddress": "The name of the vault address. Example: \"ZaynVault\"",
          "zapAddress": "The name of the zap address. Example: \"ZaynZap\""
        }
      },
      "getCurrentBeneficiary(uint256)": {
        "params": {
          "termId": "the fund id"
        },
        "returns": {
          "_0": "the current beneficiary"
        }
      },
      "getDepositorCollateralSummary(address,uint256)": {
        "params": {
          "depositor": "the depositor address",
          "termId": "the collateral id"
        },
        "returns": {
          "_0": "isCollateralMember",
          "_1": "collateralMembersBank",
          "_2": "collateralPaymentBank",
          "_3": "collateralDepositByUser",
          "_4": "expulsion limit"
        }
      },
      "getExpelledTerms(address)": {
        "params": {
          "participant": "the participant address"
        },
        "returns": {
          "_0": "an array the term ids the participant is part of, giving the state of the term"
        }
      },
      "getFundSummary(uint256)": {
        "params": {
          "termId": "the fund id"
        },
        "returns": {
          "_0": "fund initialized",
          "_1": "fund currentState",
          "_2": "fund stableToken",
          "_3": "fund beneficiariesOrder",
          "_4": "fund fundStart",
          "_5": "fund fundEnd",
          "_6": "fund currentCycle",
          "_7": "fund totalAmountOfCycles"
        }
      },
      "getJoinedTermsByState(address,uint8)": {
        "params": {
          "participant": "the participant address",
          "state": "the term state"
        },
        "returns": {
          "_0": "an array with the term ids the participant is part of, giving the state of the term"
        }
      },
      "getLatestPrice()": {
        "returns": {
          "_0": "uint latest price in Wei Note: 18 decimals"
        }
      },
      "getNeededAllowance(address)": {
        "params": {
          "user": "the user address"
        },
        "returns": {
          "_0": "the needed allowance"
        }
      },
      "getParticipantFundSummary(address,uint256)": {
        "params": {
          "participant": "the user to get the info from",
          "termId": "the fund id"
        },
        "returns": {
          "_0": "fund isParticipant, true if is participant",
          "_1": "fund isBeneficiary, true if has been beneficiary",
          "_2": "fund paidThisCycle, true if has paid the current cycle",
          "_3": "fund autoPayEnabled, true if auto pay is enabled",
          "_4": "fund beneficiariesPool, the beneficiary pool, 6 decimals",
          "_5": "fund beneficiariesFrozenPool, true if the beneficiary pool is frozen"
        }
      },
      "getRemainingContributionTime(uint256)": {
        "params": {
          "termId": "the fund id"
        },
        "returns": {
          "_0": "the time left to contribute"
        }
      },
      "getRemainingCycleTime(uint256)": {
        "params": {
          "termId": "the term id"
        },
        "returns": {
          "_0": "remaining time in the current cycle"
        }
      },
      "getRemainingCycles(uint256)": {
        "params": {
          "termId": "the term id"
        },
        "returns": {
          "_0": "remaining cycles"
        }
      },
      "getRemainingCyclesContributionWei(uint256)": {
        "params": {
          "termId": "the term id"
        },
        "returns": {
          "_0": "remaining cycles contribution"
        }
      },
      "getRemainingRegistrationTime(uint256)": {
        "params": {
          "termId": "the term id"
        },
        "returns": {
          "_0": "remaining contribution period"
        }
      },
      "getTermSummary(uint256)": {
        "params": {
          "termId": "the term id"
        },
        "returns": {
          "_0": "the term struct"
        }
      },
      "getTermsId()": {
        "returns": {
          "_0": "the current term id",
          "_1": "the next term id"
        }
      },
      "getToCollateralConversionRate(uint256)": {
        "details": "should we always deal with in Wei?",
        "params": {
          "USDAmount": "The amount in USD with 18 decimals"
        },
        "returns": {
          "_0": "uint converted amount in wei"
        }
      },
      "getToStableConversionRate(uint256)": {
        "details": "should we always deal with in Wei?",
        "params": {
          "ethAmount": "The amount in ETH"
        },
        "returns": {
          "_0": "uint converted amount in USD correct to 18 decimals"
        }
      },
      "getUserSet(address,uint256)": {
        "params": {
          "participant": "the user to get the info from",
          "termId": "the fund id"
        },
        "returns": {
          "_0": "on participant set",
          "_1": "on beneficiary set",
          "_2": "on defaulter set"
        }
      },
      "getUserYieldSummary(address,uint256)": {
        "params": {
          "termId": "the collateral id",
          "user": "the depositor address"
        },
        "returns": {
          "_0": "hasOptedIn",
          "_1": "withdrawnYield",
          "_2": "withdrawnCollateral",
          "_3": "availableYield",
          "_4": "depositedCollateralByUser",
          "_5": "yieldDistributed"
        }
      },
      "getWithdrawableUserBalance(uint256,address)": {
        "params": {
          "termId": "term id",
          "user": "depositor address"
        },
        "returns": {
          "allowedWithdrawal": "amount the amount of collateral the depositor can withdraw"
        }
      },
      "getYieldSummary(uint256)": {
        "params": {
          "termId": "the collateral id"
        },
        "returns": {
          "_0": "initialized",
          "_1": "startTimeStamp",
          "_2": "totalDeposit",
          "_3": "currentTotalDeposit",
          "_4": "totalShares",
          "_5": "yieldUsers",
          "_6": "vaultAddress",
          "_7": "zapAddress"
        }
      },
      "isBeneficiary(uint256,address)": {
        "params": {
          "beneficiary": "the address of the participant to check",
          "termId": "the id of the term"
        },
        "returns": {
          "_0": "true if the participant is a beneficiary"
        }
      },
      "isExempted(uint256,uint256,address)": {
        "params": {
          "cycle": "the cycle to check",
          "termId": "the fund id",
          "user": "the user to check"
        },
        "returns": {
          "_0": "true if the user is exempted"
        }
      },
      "isUnderCollaterized(uint256,address)": {
        "details": "This will revert if called during ReleasingCollateral or after",
        "params": {
          "member": "The user to check for",
          "termId": "The term id"
        },
        "returns": {
          "_0": "Bool check if member is below 1.0x of collateralDeposit"
        }
      },
      "minCollateralToDeposit(uint256,uint256)": {
        "details": "The minimum collateral amount is calculated based on the index on the depositors arrayThe return value should be the minimum msg.value when calling joinTermC = 1.5 Cp (Tp - I) where C = minimum collateral amount, Cp = contribution amount, Tp = total participants, I = depositor index (starts at 0). 1.5",
        "returns": {
          "amount": "the minimum collateral amount to deposit in wei"
        }
      },
      "termAPY(uint256)": {
        "params": {
          "termId": "The term id for which the APY is being calculated"
        },
        "returns": {
          "_0": "The APY for the term"
        }
      },
      "totalYieldGenerated(uint256)": {
        "params": {
          "termId": "The term id for which the yield is being calculated"
        },
        "returns": {
          "_0": "The total yield generated for the term"
        }
      },
      "userAPY(uint256,address)": {
        "params": {
          "termId": "The term id for which the APY is being calculated",
          "user": "The user for which the APY is being calculated"
        },
        "returns": {
          "_0": "The APY for the user"
        }
      },
      "userHasoptedInYG(uint256,address)": {
        "params": {
          "termId": "The term id for which the check is being made",
          "user": "The user for which the check is being made"
        },
        "returns": {
          "_0": "True if the user has opted in"
        }
      },
      "wasExpelled(uint256,address)": {
        "params": {
          "termId": "the fund id",
          "user": "the user to check"
        },
        "returns": {
          "_0": "true if the user was expelled before"
        }
      }
    },
    "version": 1
  },
  "userdoc": {
    "kind": "user",
    "methods": {
      "getConstants(string,string,string,string)": {
        "notice": "This function return the current constant values for oracles and yield providers"
      },
      "getCurrentBeneficiary(uint256)": {
        "notice": "function to get the current beneficiary"
      },
      "getFundSummary(uint256)": {
        "notice": "function to get the cycle information in one go"
      },
      "getLatestPrice()": {
        "notice": "Gets latest ETH / USD price"
      },
      "getNeededAllowance(address)": {
        "notice": "a function to get the needed allowance for every active term the user is part of"
      },
      "getParticipantFundSummary(address,uint256)": {
        "notice": "function to get fund information of a specific participant"
      },
      "getRemainingContributionTime(uint256)": {
        "notice": "returns the time left to contribute for this cycle"
      },
      "getRemainingRegistrationTime(uint256)": {
        "notice": "Gets the remaining registration period for a term"
      },
      "getToCollateralConversionRate(uint256)": {
        "notice": "Gets the conversion rate of an amount in USD to ETH"
      },
      "getToStableConversionRate(uint256)": {
        "notice": "Gets the conversion rate of an amount in ETH to USD"
      },
      "getUserSet(address,uint256)": {
        "notice": "function to get cycle information of a specific participant"
      },
      "getWithdrawableUserBalance(uint256,address)": {
        "notice": "Called to check how much collateral a user can withdraw"
      },
      "getYieldLockState()": {
        "notice": "This function is used to get the current state of the yield lock"
      },
      "isExempted(uint256,uint256,address)": {
        "notice": "function to see if a user is exempted from paying a cycle"
      },
      "isUnderCollaterized(uint256,address)": {
        "notice": "Checks if a user has a collateral below 1.0x of total contribution amount"
      },
      "minCollateralToDeposit(uint256,uint256)": {
        "notice": "Called to check the minimum collateral amount to deposit in wei"
      },
      "termAPY(uint256)": {
        "notice": "This function is used to get a term APY"
      },
      "totalYieldGenerated(uint256)": {
        "notice": "This function is used to get the total yield generated for a term"
      },
      "userAPY(uint256,address)": {
        "notice": "This function is used to get a user APY"
      },
      "userHasoptedInYG(uint256,address)": {
        "notice": "This function is used to check if a user has opted in for yield generation"
      },
      "wasExpelled(uint256,address)": {
        "notice": "function to know if a user was expelled before"
      }
    },
    "version": 1
  },
  "storageLayout": {
    "storage": [],
    "types": null
  }
}