{
  "address": "0x017635F87514A1eDc3d8088D3D10eB5a9F91dadE",
  "abi": [
    {
      "anonymous": false,
      "inputs": [
        {
          "indexed": true,
          "internalType": "uint256",
          "name": "termId",
          "type": "uint256"
        },
        {
          "indexed": false,
          "internalType": "address",
          "name": "payer",
          "type": "address"
        },
        {
          "indexed": true,
          "internalType": "address",
          "name": "user",
          "type": "address"
        },
        {
          "indexed": false,
          "internalType": "uint256",
          "name": "amount",
          "type": "uint256"
        },
        {
          "indexed": true,
          "internalType": "uint256",
          "name": "position",
          "type": "uint256"
        }
      ],
      "name": "OnCollateralDeposited",
      "type": "event"
    },
    {
      "anonymous": false,
      "inputs": [
        {
          "indexed": true,
          "internalType": "uint256",
          "name": "termId",
          "type": "uint256"
        },
        {
          "indexed": true,
          "internalType": "address",
          "name": "termOwner",
          "type": "address"
        }
      ],
      "name": "OnTermCreated",
      "type": "event"
    },
    {
      "anonymous": false,
      "inputs": [
        {
          "indexed": true,
          "internalType": "uint256",
          "name": "termId",
          "type": "uint256"
        }
      ],
      "name": "OnTermExpired",
      "type": "event"
    },
    {
      "anonymous": false,
      "inputs": [
        {
          "indexed": true,
          "internalType": "uint256",
          "name": "termId",
          "type": "uint256"
        }
      ],
      "name": "OnTermFilled",
      "type": "event"
    },
    {
      "anonymous": false,
      "inputs": [
        {
          "indexed": true,
          "internalType": "uint256",
          "name": "termId",
          "type": "uint256"
        }
      ],
      "name": "OnTermStart",
      "type": "event"
    },
    {
      "inputs": [
        {
          "internalType": "uint256",
          "name": "totalParticipants",
          "type": "uint256"
        },
        {
          "internalType": "uint256",
          "name": "registrationPeriod",
          "type": "uint256"
        },
        {
          "internalType": "uint256",
          "name": "cycleTime",
          "type": "uint256"
        },
        {
          "internalType": "uint256",
          "name": "contributionAmount",
          "type": "uint256"
        },
        {
          "internalType": "uint256",
          "name": "contributionPeriod",
          "type": "uint256"
        },
        {
          "internalType": "address",
          "name": "stableTokenAddress",
          "type": "address"
        }
      ],
      "name": "createTerm",
      "outputs": [
        {
          "internalType": "uint256",
          "name": "",
          "type": "uint256"
        }
      ],
      "stateMutability": "nonpayable",
      "type": "function"
    },
    {
      "inputs": [
        {
          "internalType": "uint256",
          "name": "termId",
          "type": "uint256"
        }
      ],
      "name": "expireTerm",
      "outputs": [],
      "stateMutability": "nonpayable",
      "type": "function"
    },
    {
      "inputs": [
        {
          "internalType": "uint256",
          "name": "termId",
          "type": "uint256"
        },
        {
          "internalType": "bool",
          "name": "optYield",
          "type": "bool"
        }
      ],
      "name": "joinTerm",
      "outputs": [],
      "stateMutability": "payable",
      "type": "function"
    },
    {
      "inputs": [
        {
          "internalType": "uint256",
          "name": "termId",
          "type": "uint256"
        },
        {
          "internalType": "bool",
          "name": "optYield",
          "type": "bool"
        },
        {
          "internalType": "uint256",
          "name": "position",
          "type": "uint256"
        }
      ],
      "name": "joinTerm",
      "outputs": [],
      "stateMutability": "payable",
      "type": "function"
    },
    {
      "inputs": [
        {
          "internalType": "uint256",
          "name": "termId",
          "type": "uint256"
        },
        {
          "internalType": "bool",
          "name": "optYield",
          "type": "bool"
        },
        {
          "internalType": "address",
          "name": "newParticipant",
          "type": "address"
        }
      ],
      "name": "paySecurityOnBehalfOf",
      "outputs": [],
      "stateMutability": "payable",
      "type": "function"
    },
    {
      "inputs": [
        {
          "internalType": "uint256",
          "name": "termId",
          "type": "uint256"
        },
        {
          "internalType": "bool",
          "name": "optYield",
          "type": "bool"
        },
        {
          "internalType": "address",
          "name": "newParticipant",
          "type": "address"
        },
        {
          "internalType": "uint256",
          "name": "position",
          "type": "uint256"
        }
      ],
      "name": "paySecurityOnBehalfOf",
      "outputs": [],
      "stateMutability": "payable",
      "type": "function"
    },
    {
      "inputs": [
        {
          "internalType": "uint256",
          "name": "termId",
          "type": "uint256"
        }
      ],
      "name": "startTerm",
      "outputs": [],
      "stateMutability": "nonpayable",
      "type": "function"
    }
  ],
  "transactionHash": "0x8f8a172bf02573534c61f0db08874ed587706288ec37fc8cca415a5329a7dc26",
  "args": [],
  "numDeployments": 9,
  "solcInputHash": "70fa51dc678758a2f3df34746017ca3d",
  "bytecode": "0x608060405234801561001057600080fd5b5061275e806100206000396000f3fe6080604052600436106100705760003560e01c8063692d8ba71161004e578063692d8ba7146100bd578063aa31ef32146100d0578063b1705fa214610102578063c31cd44f1461012257600080fd5b80631bef083b146100755780632352a6761461008a578063485fd0761461009d575b600080fd5b6100886100833660046123dc565b610135565b005b61008861009836600461241e565b610145565b3480156100a957600080fd5b506100886100b8366004612466565b610157565b6100886100cb36600461247f565b610163565b3480156100dc57600080fd5b506100f06100eb3660046124af565b610172565b60405190815260200160405180910390f35b34801561010e57600080fd5b5061008861011d366004612466565b61018d565b610088610130366004612504565b610196565b6101408383836101a2565b505050565b61015184848385610461565b50505050565b61016081610a69565b50565b61016e8282336101a2565b5050565b6000610182878787878787610f30565b979650505050505050565b61016081611182565b61014083838333610461565b60008381526000805160206126e98339815191526020908152604080832081516101608101909252805460ff808216151584527f87101b21d556417ad2b8e8f2700dbad90721d5d50a1f435f2dee0b9dc981ac89959484019161010090041660038111156102125761021261253c565b60038111156102235761022361253c565b815281546201000090046001600160a01b039081166020830152600183015460408301526002830154606083015260038301546080830152600483015460a0830152600583015460c0830152600683015460e08301526007830154610100830152600890920154909116610120909101529050600060008051602061270983398151915260008781526020919091526040902090506102c186611353565b6103075760405162461bcd60e51b815260206004820152601260248201527115195c9b48191bd95cdb89dd08195e1a5cdd60721b60448201526064015b60405180910390fd5b60008154610100900460ff1660038111156103245761032461253c565b1461035a5760405162461bcd60e51b815260206004820152600660248201526510db1bdcd95960d21b60448201526064016102fe565b8160c0015181600201541061039c5760405162461bcd60e51b81526020600482015260086024820152674e6f20737061636560c01b60448201526064016102fe565b6001600160a01b038416600090815260048201602052604090205460ff16156103f15760405162461bcd60e51b81526020600482015260076024820152665265656e74727960c81b60448201526064016102fe565b6000805b8360c0015181101561044b5760006001600160a01b031683600301828154811061042157610421612552565b6000918252602090912001546001600160a01b0316036104435780915061044b565b6001016103f5565b5061045887878388610461565b50505050505050565b60008481526000805160206126e98339815191526020908152604080832081516101608101909252805460ff808216151584527f87101b21d556417ad2b8e8f2700dbad90721d5d50a1f435f2dee0b9dc981ac89959484019161010090041660038111156104d1576104d161253c565b60038111156104e2576104e261253c565b815281546201000090046001600160a01b039081166020830152600183015460408301526002830154606083015260038301546080830152600483015460a0830152600583015460c0830152600683015460e08301526007830154610100830152600890920154909116610120909101529050600060008051602061270983398151915260008881526020919091526040812091506000805160206126a983398151915260008981526020919091526040902090506105a088611353565b6105e15760405162461bcd60e51b815260206004820152601260248201527115195c9b48191bd95cdb89dd08195e1a5cdd60721b60448201526064016102fe565b60008254610100900460ff1660038111156105fe576105fe61253c565b146106345760405162461bcd60e51b815260206004820152600660248201526510db1bdcd95960d21b60448201526064016102fe565b8260c001518260020154106106765760405162461bcd60e51b81526020600482015260086024820152674e6f20737061636560c01b60448201526064016102fe565b6001600160a01b038516600090815260048301602052604090205460ff16156106cb5760405162461bcd60e51b81526020600482015260076024820152665265656e74727960c81b60448201526064016102fe565b60018360c001516106dc919061257e565b86111561071e5760405162461bcd60e51b815260206004820152601060248201526f24b73b30b634b2103837b9b4ba34b7b760811b60448201526064016102fe565b60006001600160a01b031682600301878154811061073e5761073e612552565b6000918252602090912001546001600160a01b0316146107995760405162461bcd60e51b81526020600482015260166024820152752837b9b4ba34b7b71030b63932b0b23c903a30b5b2b760511b60448201526064016102fe565b604051630c64c69760e01b815260048101899052602481018790526000903090630c64c69790604401602060405180830381865afa1580156107df573d6000803e3d6000fd5b505050506040513d601f19601f820116820180604052508101906108039190612591565b90508034101561084b5760405162461bcd60e51b8152602060048201526013602482015272457468207061796d656e7420746f6f206c6f7760681b60448201526064016102fe565b6001600160a01b0386166000908152600584016020526040812080543492906108759084906125aa565b90915550506001600160a01b03861660009081526004840160205260409020805460ff19166001179055600383018054879190899081106108b8576108b8612552565b6000918252602082200180546001600160a01b0319166001600160a01b039390931692909217909155600284018054916108f1836125bd565b90915550506001600160a01b0386166000908152600784016020526040812080543492906109209084906125aa565b90915550506001600160a01b03861660009081526002860160209081526040822080546001810182559083529120018990557f7c039906f7f8ca11e01b6987a88513563589699678f7d2a6c8447f44d69375f35460ff166109a6576001600160a01b03861660009081526007830160205260409020805460ff19168915151790556109c9565b6001600160a01b03861660009081526007830160205260409020805460ff191690555b6040805133815234602082015288916001600160a01b038916918c917f36398dfd64192e9c5e1cfe6f4d2d2a3a484d831e367ddacda4024ce63671929d910160405180910390a48260020154600103610a23574260018401555b8360c00151836002015403610a5e5760405189907fcb9c59095b121bb2ee6f91e996d96e8937149675a0dd11c12b5d08ec2cc7abba90600090a25b505050505050505050565b60008181526000805160206126e98339815191526020908152604080832060008051602061270983398151915283528184206000805160206126a9833981519152845282852060038201805485518188028101880190965280865293969295919492939091830182828015610b0757602002820191906000526020600020905b81546001600160a01b03168152600190910190602001808311610ae9575b5050505050905060008151905084600301548460010154610b2891906125aa565b4211610b765760405162461bcd60e51b815260206004820152601760248201527f5465726d206e6f7420726561647920746f20737461727400000000000000000060448201526064016102fe565b8460040154846002015414610bcd5760405162461bcd60e51b815260206004820152601860248201527f416c6c2073706f747320617265206e6f742066696c6c6564000000000000000060448201526064016102fe565b60005b81811015610c4957610bff8660020154848381518110610bf257610bf2612552565b6020026020010151611375565b15610c415760405162461bcd60e51b8152602060048201526012602482015271115d1a081c1c9a58d95cc8191c9bdc1c195960721b60448201526064016102fe565b600101610bd0565b50604080516101608101909152855460ff80821615158352610d0c9291889160208401916101009004166003811115610c8457610c8461253c565b6003811115610c9557610c9561253c565b815281546001600160a01b036201000090910481166020830152600183015460408301526002830154606083015260038301546080830152600483015460a0830152600583015460c0830152600683015460e0830152600783015461010083015260089092015490911661012090910152856114a1565b7f7c039906f7f8ca11e01b6987a88513563589699678f7d2a6c8447f44d69375f35460ff16610e595760005b81811015610e5357836007016000848381518110610d5857610d58612552565b6020908102919091018101516001600160a01b031682528101919091526040016000205460ff1615610e4b57604080516101608101909152865460ff80821615158352610e469291899160208401916101009004166003811115610dbe57610dbe61253c565b6003811115610dcf57610dcf61253c565b815281546001600160a01b036201000090910481166020830152600183015460408301526002830154606083015260038301546080830152600483015460a0830152600583015460c0830152600683015460e083015260078301546101008301526008909201549091166101209091015286611574565b610e53565b600101610d38565b50610f0c565b60005b81811015610f0a57836007016000848381518110610e7c57610e7c612552565b6020908102919091018101516001600160a01b031682528101919091526040016000205460ff1615610f02576000846007016000858481518110610ec257610ec2612552565b60200260200101516001600160a01b03166001600160a01b0316815260200190815260200160002060006101000a81548160ff0219169083151502179055505b600101610e5c565b505b610f1b856002015460016118b9565b5050825461ff00191661010017909255505050565b60008415801590610f4057508315155b8015610f4b57508215155b8015610f5657508615155b8015610f6157508515155b8015610f6c57508483105b8015610f8057506001600160a01b03821615155b610fbd5760405162461bcd60e51b815260206004820152600e60248201526d496e76616c696420696e7075747360901b60448201526064016102fe565b7f87101b21d556417ad2b8e8f2700dbad90721d5d50a1f435f2dee0b9dc981ac8980546040805161016081018252600060208083018281526080840186905260c084018e905260a084018d905260e084018c90526101008085018c905261012085018b90526001600160a01b038a166101408601523385870152426060860152600185528684526000805160206126e9833981519152909252939091208251815490151560ff198216811783559451939485949293849261ff001990921661ffff1990921691909117908360038111156110995761109961253c565b02179055506040820151815462010000600160b01b031916620100006001600160a01b0392831602178255606083015160018301556080830151600283015560a0830151600383015560c0830151600483015560e083015160058301556101008301516006830155610120830151600783015561014090920151600890910180546001600160a01b031916919092161790558254836000611139836125bd565b9190505550611148828b611956565b604051339083907f3bff48239db8f29891497cd2efd85d201f5723830e7c8cfaef44cc50a4bc024c90600090a35098975050505050505050565b60008181526000805160206126e9833981519152602090815260408083206000805160206127098339815191529092529091206111be83611353565b80156111ce57506111ce836119d6565b6111d757600080fd5b6001810154158015906111fc5750816003015481600101546111f991906125aa565b42115b6112485760405162461bcd60e51b815260206004820152601d60248201527f526567697374726174696f6e20706572696f64206e6f7420656e64656400000060448201526064016102fe565b81600401548160020154106112aa5760405162461bcd60e51b815260206004820152602260248201527f416c6c2073706f7473206172652066696c6c65642c2063616e27742065787069604482015261726560f01b60648201526084016102fe565b60028254610100900460ff1660038111156112c7576112c761253c565b0361130b5760405162461bcd60e51b815260206004820152601460248201527315195c9b48185b1c9958591e48195e1c1a5c995960621b60448201526064016102fe565b815461020061ff001991821681178455825490911617815560405183907f9983062774b9b7f1b9071acd776af98f78c06bf9ad065553a83395178ef6243a90600090a2505050565b60009081526000805160206126e9833981519152602052604090205460ff1690565b6000828152600080516020612709833981519152602090815260408083206001600160a01b03851684526005810190925282205482906113b4866119fc565b6114335760405163bb91b76d60e01b81526001600160a01b038616600482015260248101879052309063bb91b76d9060440160a060405180830381865afa158015611403573d6000803e3d6000fd5b505050506040513d601f19601f8201168201806040525081019061142791906125d6565b95506114969350505050565b60405163f0d826e760e01b815260048101879052309063f0d826e790602401602060405180830381865afa15801561146f573d6000803e3d6000fd5b505050506040513d601f19601f820116820180604052508101906114939190612591565b91505b109150505b92915050565b6114ae82608001516119fc565b156114f15760405162461bcd60e51b815260206004820152601360248201527246756e6420616c72656164792065786973747360681b60448201526064016102fe565b608082015160009081526000805160206126c98339815191526020526040902061014083015181546001600160a01b03909116620100000262010000600160b01b031990911617815560038201805461154e9160018401916122ff565b508054600180830154601484015561ffff19909116178155608083015161014090611a12565b608082015160009081526000805160206126a98339815191526020908152604080832060038501805483518186028101860190945280845291947ff27a5986330dc78d016d8604ee1a040d5a789fbaa2d0c27f5dfded4b616b8977949093849390929183018282801561161057602002820191906000526020600020905b81546001600160a01b031681526001909101906020018083116115f2575b505083519394506000925050505b818110156117b25785600701600084838151811061163e5761163e612552565b6020908102919091018101516001600160a01b031682528101919091526040016000205460ff16156117aa578560060183828151811061168057611680612552565b6020908102919091018101518254600181018455600093845291832090910180546001600160a01b0319166001600160a01b03909216919091179055835160649160058a01918690859081106116d8576116d8612552565b60200260200101516001600160a01b03166001600160a01b0316815260200190815260200160002054605f61170d919061261f565b6117179190612636565b86600b01600085848151811061172f5761172f612552565b60200260200101516001600160a01b03166001600160a01b031681526020019081526020016000208190555085600b01600084838151811061177357611773612552565b60200260200101516001600160a01b03166001600160a01b0316815260200190815260200160002054846117a791906125aa565b93505b60010161161e565b50821561045857426002860155845460ff1916600117855560405184906117e6906605a61796e5a61760cc1b815260070190565b908152604051908190036020018120546001600160a01b031690600187019061181c906605a61796e5a61760cc1b815260070190565b9081526040805191829003602001822080546001600160a01b039485166001600160a01b03199091161790556816985e5b95985d5b1d60ba1b808352600980840189905291519283900360290183205490835290921691600188019101908152602001604051809103902060006101000a8154816001600160a01b0302191690836001600160a01b03160217905550610458876080015184611b0d565b600082815260008051602061270983398151915260205260409020805461010080820460ff16918491849161ff001916908360038111156118fc576118fc61253c565b02179055508260038111156119135761191361253c565b8160038111156119255761192561253c565b60405186907ffe918112a2fca8c18cc609a5d585d9fc8448267cb7b9d6c19a445fe5c0c199c890600090a450505050565b600082815260008051602061270983398151915260205260409020805461ffff191660011781558167ffffffffffffffff81111561199657611996612658565b6040519080825280602002602001820160405280156119bf578160200160208202803683370190505b50805161015191600384019160209091019061234f565b60006000805160206127098339815191525b600092835260205250604090205460ff1690565b60006000805160206126c98339815191526119e8565b60008181526000805160206126c983398151915260205260408120600181015490915b81811015611acd57611a7383600d01846001018381548110611a5957611a59612552565b6000918252602090912001546001600160a01b0316611c67565b506001836005016000856001018481548110611a9157611a91612552565b6000918252602080832091909101546001600160a01b031683528201929092526040019020805460ff1916911515919091179055600101611a35565b50611ad783611c83565b42600283015560405183907fc3bfb99b88687651f8e660492ae2ee62a50d40e4131ace07f88ed4639b3a4bc390600090a2505050565b60008281526000805160206126a9833981519152602052604090819020600381018390556004810183905581516816985e5b95985d5b1d60ba1b815260018201600982018190529251908190036029018120546605a61796e5a61760cc1b825291926001600160a01b03909216919060070190815260405190819003602001812054632af34be360e11b82526001600160a01b0383811660048401526024830187905216906355e697c69085906044016000604051808303818588803b158015611bd657600080fd5b505af1158015611bea573d6000803e3d6000fd5b5050604051631398fee160e31b8152600481018890526001600160a01b0385169350639cc7f70892506024019050602060405180830381865afa158015611c35573d6000803e3d6000fd5b505050506040513d601f19601f82011682018060405250810190611c599190612591565b826005018190555050505050565b6000611c7c836001600160a01b038416611ed0565b9392505050565b60008181526000805160206126c9833981519152602090815260408083206000805160206126e9833981519152909252909120600282015460048301546005830154611ccf919061261f565b611cd991906125aa565b4211611d275760405162461bcd60e51b815260206004820152601c60248201527f546f6f206561726c7920746f207374617274206e6577206379636c650000000060448201526064016102fe565b60008254610100900460ff166004811115611d4457611d4461253c565b1480611d6a575060038254610100900460ff166004811115611d6857611d6861253c565b145b611da45760405162461bcd60e51b815260206004820152600b60248201526a57726f6e6720737461746560a81b60448201526064016102fe565b8160040160008154611db5906125bd565b90915550600182015460005b81811015611ebb57836016016000856001018381548110611de457611de4612552565b60009182526020808320909101546001600160a01b0316835282019290925260400181205460018601805460ff90921692600788019290919085908110611e2d57611e2d612552565b6000918252602080832091909101546001600160a01b031683528201929092526040018120805460ff1916921515929092179091556001850180546016870191839185908110611e7f57611e7f612552565b6000918252602080832091909101546001600160a01b031683528201929092526040019020805460ff1916911515919091179055600101611dc1565b50611ec7846001611f1f565b61015184611ffe565b6000818152600183016020526040812054611f175750815460018181018455600084815260208082209093018490558454848252828601909352604090209190915561149b565b50600061149b565b60008281526000805160206126c9833981519152602052604090208054600490610100900460ff1681811115611f5757611f5761253c565b03611f925760405162461bcd60e51b815260206004820152600b60248201526a119d5b990818db1bdcd95960aa1b60448201526064016102fe565b80548290829061ff001916610100836004811115611fb257611fb261253c565b0217905550816004811115611fc957611fc961253c565b600482015460405185907fe515107ce875160b9ed93bfd1367820d3ffbf412cd63d05140f6bc5535b51de390600090a4505050565b60006000805160206126c983398151915260008381526020919091526040808220905163d8f8e99160e01b815260048101859052909250309063d8f8e99190602401602060405180830381865afa15801561205d573d6000803e3d6000fd5b505050506040513d601f19601f82011682018060405250810190612081919061266e565b90506000826001018054806020026020016040519081016040528092919081815260200182805480156120dd57602002820191906000526020600020905b81546001600160a01b031681526001909101906020018083116120bf575b505083519394506000925050505b818110156121c757600083828151811061210757612107612552565b60200260200101519050806001600160a01b0316856001600160a01b03160361213357506001016120eb565b6001600160a01b038116600090815260088701602052604090205460ff16801561217857506001600160a01b038116600090815260078701602052604090205460ff16155b80156121ae575060048601546000908152600c8701602090815260408083206001600160a01b038516845290915290205460ff16155b156121be576121be8782836121cf565b506001016120eb565b505050505050565b60008381526000805160206126c9833981519152602090815260408083206000805160206126e9833981519152909252822060068101549192909161221790620f424061261f565b83546040516323b872dd60e01b81526001600160a01b0388811660048301523060248301526044820184905292935062010000909104909116906323b872dd906064016020604051808303816000875af1925050508015612295575060408051601f3d908101601f191682019092526122929181019061268b565b60015b156121c7578015610458576001600160a01b0385166000818152600786016020526040808220805460ff19166001179055600487015490519092918a917fe1122b3cea22012386ebf236fc23dd8a783b91c046d5dec812901846464624ae9190a450505050505050565b82805482825590600052602060002090810192821561233f5760005260206000209182015b8281111561233f578254825591600101919060010190612324565b5061234b9291506123a4565b5090565b82805482825590600052602060002090810192821561233f579160200282015b8281111561233f57825182546001600160a01b0319166001600160a01b0390911617825560209092019160019091019061236f565b5b8082111561234b57600081556001016123a5565b801515811461016057600080fd5b6001600160a01b038116811461016057600080fd5b6000806000606084860312156123f157600080fd5b833592506020840135612403816123b9565b91506040840135612413816123c7565b809150509250925092565b6000806000806080858703121561243457600080fd5b843593506020850135612446816123b9565b92506040850135612456816123c7565b9396929550929360600135925050565b60006020828403121561247857600080fd5b5035919050565b6000806040838503121561249257600080fd5b8235915060208301356124a4816123b9565b809150509250929050565b60008060008060008060c087890312156124c857600080fd5b863595506020870135945060408701359350606087013592506080870135915060a08701356124f6816123c7565b809150509295509295509295565b60008060006060848603121561251957600080fd5b83359250602084013561252b816123b9565b929592945050506040919091013590565b634e487b7160e01b600052602160045260246000fd5b634e487b7160e01b600052603260045260246000fd5b634e487b7160e01b600052601160045260246000fd5b8181038181111561149b5761149b612568565b6000602082840312156125a357600080fd5b5051919050565b8082018082111561149b5761149b612568565b6000600182016125cf576125cf612568565b5060010190565b600080600080600060a086880312156125ee57600080fd5b85516125f9816123b9565b602087015160408801516060890151608090990151929a91995097965090945092505050565b808202811582820484141761149b5761149b612568565b60008261265357634e487b7160e01b600052601260045260246000fd5b500490565b634e487b7160e01b600052604160045260246000fd5b60006020828403121561268057600080fd5b8151611c7c816123c7565b60006020828403121561269d57600080fd5b8151611c7c816123b956fe29d9cba46c358ba7c1b8945751229339792c7c62e3197c240fa98916e75ffbf96751f7e27cecf86d7136f5749c224248cae80a39fafb59f8f6bf12c52816307c87101b21d556417ad2b8e8f2700dbad90721d5d50a1f435f2dee0b9dc981ac8a35fa70a6f9ae8a4d427ebe0c1be62ffd2870fecc1df41c6fda0bf5803e562888a26469706673582212204e6507f8767ec25db14e66b2319a7f67686ee9d38a9fea77a67cc8be2c61478a64736f6c63430008120033",
  "devdoc": {
    "author": "Mohammed Haddouti",
    "details": "v3.0 (Diamond)",
    "kind": "dev",
    "methods": {
      "createTerm(uint256,uint256,uint256,uint256,uint256,address)": {
        "params": {
          "contributionAmount": "The amount of stable token that each participant will have to contribute",
          "contributionPeriod": "The time in seconds that the participants will have to contribute",
          "cycleTime": "The time in seconds that the term will last",
          "registrationPeriod": "The time in seconds that the term will be open for registration",
          "stableTokenAddress": "The address of the stable token",
          "totalParticipants": "The number of participants in the term"
        },
        "returns": {
          "_0": "termId The id of the new term"
        }
      },
      "expireTerm(uint256)": {
        "params": {
          "termId": "The id of the term"
        }
      },
      "joinTerm(uint256,bool)": {
        "params": {
          "optYield": "Whether the participant wants to opt in for yield generation",
          "termId": "The id of the term"
        }
      },
      "joinTerm(uint256,bool,uint256)": {
        "params": {
          "optYield": "Whether the participant wants to opt in for yield generation",
          "position": "The position in the term",
          "termId": "The id of the term"
        }
      },
      "paySecurityOnBehalfOf(uint256,bool,address)": {
        "params": {
          "newParticipant": "The address of the new participant",
          "optYield": "Whether the participant wants to opt in for yield generation",
          "termId": "The id of the term"
        }
      },
      "paySecurityOnBehalfOf(uint256,bool,address,uint256)": {
        "params": {
          "newParticipant": "The address of the new participant",
          "optYield": "Whether the participant wants to opt in for yield generation",
          "position": "The position in the term",
          "termId": "The id of the term"
        }
      },
      "startTerm(uint256)": {
        "params": {
          "termId": "The id of the term"
        }
      }
    },
    "title": "Takaturn Term Facet",
    "version": 1
  },
  "userdoc": {
    "kind": "user",
    "methods": {
      "createTerm(uint256,uint256,uint256,uint256,uint256,address)": {
        "notice": "Create a new term"
      },
      "expireTerm(uint256)": {
        "notice": "Expire a term"
      },
      "joinTerm(uint256,bool)": {
        "notice": "Join a term at the next available position"
      },
      "joinTerm(uint256,bool,uint256)": {
        "notice": "Join a term at a specific position"
      },
      "paySecurityOnBehalfOf(uint256,bool,address)": {
        "notice": "Pay security deposit on behalf of someone else, at the next available position"
      },
      "paySecurityOnBehalfOf(uint256,bool,address,uint256)": {
        "notice": "Pay security deposit on behalf of someone else, at a specific position"
      },
      "startTerm(uint256)": {
        "notice": "Start a term"
      }
    },
    "notice": "This is used to create terms",
    "version": 1
  },
  "storageLayout": {
    "storage": [],
    "types": null
  }
}