{
  "address": "0xD0f61C8692d85727aA838AE8612D693Ec0830d89",
  "abi": [
    {
      "anonymous": false,
      "inputs": [
        {
          "indexed": true,
          "internalType": "uint256",
          "name": "termId",
          "type": "uint256"
        },
        {
          "indexed": false,
          "internalType": "address",
          "name": "payer",
          "type": "address"
        },
        {
          "indexed": true,
          "internalType": "address",
          "name": "user",
          "type": "address"
        },
        {
          "indexed": false,
          "internalType": "uint256",
          "name": "amount",
          "type": "uint256"
        }
      ],
      "name": "OnCollateralDeposited",
      "type": "event"
    },
    {
      "anonymous": false,
      "inputs": [
        {
          "indexed": true,
          "internalType": "uint256",
          "name": "termId",
          "type": "uint256"
        },
        {
          "indexed": false,
          "internalType": "address",
          "name": "payer",
          "type": "address"
        },
        {
          "indexed": true,
          "internalType": "address",
          "name": "user",
          "type": "address"
        },
        {
          "indexed": false,
          "internalType": "uint256",
          "name": "amount",
          "type": "uint256"
        },
        {
          "indexed": true,
          "internalType": "uint256",
          "name": "position",
          "type": "uint256"
        }
      ],
      "name": "OnCollateralDepositedNext",
      "type": "event"
    },
    {
      "anonymous": false,
      "inputs": [
        {
          "indexed": true,
          "internalType": "uint256",
          "name": "termId",
          "type": "uint256"
        },
        {
          "indexed": true,
          "internalType": "address",
          "name": "termOwner",
          "type": "address"
        }
      ],
      "name": "OnTermCreated",
      "type": "event"
    },
    {
      "anonymous": false,
      "inputs": [
        {
          "indexed": true,
          "internalType": "uint256",
          "name": "termId",
          "type": "uint256"
        }
      ],
      "name": "OnTermExpired",
      "type": "event"
    },
    {
      "anonymous": false,
      "inputs": [
        {
          "indexed": true,
          "internalType": "uint256",
          "name": "termId",
          "type": "uint256"
        }
      ],
      "name": "OnTermFilled",
      "type": "event"
    },
    {
      "anonymous": false,
      "inputs": [
        {
          "indexed": true,
          "internalType": "uint256",
          "name": "termId",
          "type": "uint256"
        }
      ],
      "name": "OnTermStart",
      "type": "event"
    },
    {
      "inputs": [
        {
          "internalType": "uint256",
          "name": "totalParticipants",
          "type": "uint256"
        },
        {
          "internalType": "uint256",
          "name": "registrationPeriod",
          "type": "uint256"
        },
        {
          "internalType": "uint256",
          "name": "cycleTime",
          "type": "uint256"
        },
        {
          "internalType": "uint256",
          "name": "contributionAmount",
          "type": "uint256"
        },
        {
          "internalType": "uint256",
          "name": "contributionPeriod",
          "type": "uint256"
        },
        {
          "internalType": "address",
          "name": "stableTokenAddress",
          "type": "address"
        }
      ],
      "name": "createTerm",
      "outputs": [
        {
          "internalType": "uint256",
          "name": "",
          "type": "uint256"
        }
      ],
      "stateMutability": "nonpayable",
      "type": "function"
    },
    {
      "inputs": [
        {
          "internalType": "uint256",
          "name": "termId",
          "type": "uint256"
        }
      ],
      "name": "expireTerm",
      "outputs": [],
      "stateMutability": "nonpayable",
      "type": "function"
    },
    {
      "inputs": [
        {
          "internalType": "uint256",
          "name": "termId",
          "type": "uint256"
        },
        {
          "internalType": "bool",
          "name": "optYield",
          "type": "bool"
        }
      ],
      "name": "joinTerm",
      "outputs": [],
      "stateMutability": "payable",
      "type": "function"
    },
    {
      "inputs": [
        {
          "internalType": "uint256",
          "name": "termId",
          "type": "uint256"
        },
        {
          "internalType": "bool",
          "name": "optYield",
          "type": "bool"
        },
        {
          "internalType": "uint256",
          "name": "position",
          "type": "uint256"
        }
      ],
      "name": "joinTermOnPosition",
      "outputs": [],
      "stateMutability": "payable",
      "type": "function"
    },
    {
      "inputs": [
        {
          "internalType": "uint256",
          "name": "termId",
          "type": "uint256"
        },
        {
          "internalType": "bool",
          "name": "optYield",
          "type": "bool"
        },
        {
          "internalType": "address",
          "name": "newParticipant",
          "type": "address"
        }
      ],
      "name": "paySecurityOnBehalfOf",
      "outputs": [],
      "stateMutability": "payable",
      "type": "function"
    },
    {
      "inputs": [
        {
          "internalType": "uint256",
          "name": "termId",
          "type": "uint256"
        },
        {
          "internalType": "bool",
          "name": "optYield",
          "type": "bool"
        },
        {
          "internalType": "address",
          "name": "newParticipant",
          "type": "address"
        },
        {
          "internalType": "uint256",
          "name": "position",
          "type": "uint256"
        }
      ],
      "name": "paySecurityOnBehalfOf",
      "outputs": [],
      "stateMutability": "payable",
      "type": "function"
    },
    {
      "inputs": [
        {
          "internalType": "uint256",
          "name": "termId",
          "type": "uint256"
        }
      ],
      "name": "startTerm",
      "outputs": [],
      "stateMutability": "nonpayable",
      "type": "function"
    }
  ],
  "args": [],
  "numDeployments": 16,
  "solcInputHash": "9100f06a133b8e1224998fdff7efefb3",
  "bytecode": "0x608060405234801561001057600080fd5b506126d3806100206000396000f3fe6080604052600436106100705760003560e01c8063692d8ba71161004e578063692d8ba7146100bd578063aa31ef32146100d0578063b1705fa214610102578063d76639c01461012257600080fd5b80631bef083b146100755780632352a6761461008a578063485fd0761461009d575b600080fd5b610088610083366004612351565b610135565b005b610088610098366004612393565b610145565b3480156100a957600080fd5b506100886100b83660046123db565b610157565b6100886100cb3660046123f4565b610163565b3480156100dc57600080fd5b506100f06100eb366004612424565b610172565b60405190815260200160405180910390f35b34801561010e57600080fd5b5061008861011d3660046123db565b61018d565b610088610130366004612479565b610196565b6101408383836101a2565b505050565b6101518484838561045a565b50505050565b61016081610a7f565b50565b61016e8282336101a2565b5050565b6000610182878787878787610f12565b979650505050505050565b6101608161115e565b6101408383833361045a565b600083815260008051602061265e8339815191526020908152604080832081516101608101909252805460ff808216151584527f87101b21d556417ad2b8e8f2700dbad90721d5d50a1f435f2dee0b9dc981ac8995948401916101009004166003811115610212576102126124b1565b6003811115610223576102236124b1565b815281546201000090046001600160a01b039081166020830152600183015460408301526002830154606083015260038301546080830152600483015460a0830152600583015460c0830152600683015460e08301526007830154610100830152600890920154909116610120909101529050600060008051602061267e83398151915260008781526020919091526040902090506102c1866112ee565b6102fd5760405162461bcd60e51b81526020600482015260086024820152672a2a16aa2316981960c11b60448201526064015b60405180910390fd5b60008154610100900460ff16600381111561031a5761031a6124b1565b146103525760405162461bcd60e51b815260206004820152600860248201526754542d54462d303360c01b60448201526064016102f4565b8160c001518160020154106103945760405162461bcd60e51b815260206004820152600860248201526715150b55118b4c0d60c21b60448201526064016102f4565b6001600160a01b038416600090815260048201602052604090205460ff16156103ea5760405162461bcd60e51b815260206004820152600860248201526754542d54462d303560c01b60448201526064016102f4565b6000805b8360c001518110156104445760006001600160a01b031683600301828154811061041a5761041a6124c7565b6000918252602090912001546001600160a01b03160361043c57809150610444565b6001016103ee565b506104518787838861045a565b50505050505050565b600084815260008051602061265e8339815191526020908152604080832081516101608101909252805460ff808216151584527f87101b21d556417ad2b8e8f2700dbad90721d5d50a1f435f2dee0b9dc981ac89959484019161010090041660038111156104ca576104ca6124b1565b60038111156104db576104db6124b1565b815281546201000090046001600160a01b039081166020830152600183015460408301526002830154606083015260038301546080830152600483015460a0830152600583015460c0830152600683015460e08301526007830154610100830152600890920154909116610120909101529050600060008051602061267e833981519152600088815260209190915260408120915060008051602061261e8339815191526000898152602091909152604090209050610599886112ee565b6105d05760405162461bcd60e51b81526020600482015260086024820152672a2a16aa2316981960c11b60448201526064016102f4565b60008254610100900460ff1660038111156105ed576105ed6124b1565b146106255760405162461bcd60e51b815260206004820152600860248201526754542d54462d303360c01b60448201526064016102f4565b8260c001518260020154106106675760405162461bcd60e51b815260206004820152600860248201526715150b55118b4c0d60c21b60448201526064016102f4565b6001600160a01b038516600090815260048301602052604090205460ff16156106bd5760405162461bcd60e51b815260206004820152600860248201526754542d54462d303560c01b60448201526064016102f4565b60018360c001516106ce91906124f3565b8611156107085760405162461bcd60e51b81526020600482015260086024820152672a2a16aa2316981b60c11b60448201526064016102f4565b60006001600160a01b0316826003018781548110610728576107286124c7565b6000918252602090912001546001600160a01b0316146107755760405162461bcd60e51b815260206004820152600860248201526754542d54462d303760c01b60448201526064016102f4565b604051630c64c69760e01b815260048101899052602481018790526000903090630c64c69790604401602060405180830381865afa1580156107bb573d6000803e3d6000fd5b505050506040513d601f19601f820116820180604052508101906107df9190612506565b90508034101561081c5760405162461bcd60e51b81526020600482015260086024820152670a8a85aa88c5a60760c31b60448201526064016102f4565b6001600160a01b03861660009081526005840160205260408120805434929061084690849061251f565b90915550506001600160a01b03861660009081526004840160205260409020805460ff1916600117905560038301805487919089908110610889576108896124c7565b6000918252602082200180546001600160a01b0319166001600160a01b039390931692909217909155600284018054916108c283612532565b90915550506001600160a01b0386166000908152600784016020526040812080543492906108f190849061251f565b90915550506001600160a01b03861660009081526002860160209081526040822080546001810182559083529120018990557f7c039906f7f8ca11e01b6987a88513563589699678f7d2a6c8447f44d69375f35460ff16610977576001600160a01b03861660009081526007830160205260409020805460ff191689151517905561099a565b6001600160a01b03861660009081526007830160205260409020805460ff191690555b604080513381523460208201526001600160a01b038816918b917f605b45b8a3546497347a54d3c899591c9174b90708a89abaa3b91c69f6666859910160405180910390a36040805133815234602082015288916001600160a01b038916918c917f4cc5c3314e9ba3a7c404ca7a763fa46db88bb451f884037ddffbc7db778ada59910160405180910390a48260020154600103610a39574260018401555b8360c00151836002015403610a745760405189907fcb9c59095b121bb2ee6f91e996d96e8937149675a0dd11c12b5d08ec2cc7abba90600090a25b505050505050505050565b600081815260008051602061265e8339815191526020908152604080832060008051602061267e833981519152835281842060008051602061261e833981519152845282852060038201805485518188028101880190965280865293969295919492939091830182828015610b1d57602002820191906000526020600020905b81546001600160a01b03168152600190910190602001808311610aff575b5050505050905060008151905084600301548460010154610b3e919061251f565b4211610b775760405162461bcd60e51b815260206004820152600860248201526754542d54462d303960c01b60448201526064016102f4565b8460040154846002015414610bb95760405162461bcd60e51b8152602060048201526008602482015267054542d54462d31360c41b60448201526064016102f4565b60005b81811015610c2b57610beb8660020154848381518110610bde57610bde6124c7565b6020026020010151611310565b15610c235760405162461bcd60e51b815260206004820152600860248201526754542d54462d313160c01b60448201526064016102f4565b600101610bbc565b50604080516101608101909152855460ff80821615158352610cee9291889160208401916101009004166003811115610c6657610c666124b1565b6003811115610c7757610c776124b1565b815281546001600160a01b036201000090910481166020830152600183015460408301526002830154606083015260038301546080830152600483015460a0830152600583015460c0830152600683015460e08301526007830154610100830152600890920154909116610120909101528561143c565b7f7c039906f7f8ca11e01b6987a88513563589699678f7d2a6c8447f44d69375f35460ff16610e3b5760005b81811015610e3557836007016000848381518110610d3a57610d3a6124c7565b6020908102919091018101516001600160a01b031682528101919091526040016000205460ff1615610e2d57604080516101608101909152865460ff80821615158352610e289291899160208401916101009004166003811115610da057610da06124b1565b6003811115610db157610db16124b1565b815281546001600160a01b036201000090910481166020830152600183015460408301526002830154606083015260038301546080830152600483015460a0830152600583015460c0830152600683015460e083015260078301546101008301526008909201549091166101209091015286611504565b610e35565b600101610d1a565b50610eee565b60005b81811015610eec57836007016000848381518110610e5e57610e5e6124c7565b6020908102919091018101516001600160a01b031682528101919091526040016000205460ff1615610ee4576000846007016000858481518110610ea457610ea46124c7565b60200260200101516001600160a01b03166001600160a01b0316815260200190815260200160002060006101000a81548160ff0219169083151502179055505b600101610e3e565b505b610efd85600201546001611849565b5050825461ff00191661010017909255505050565b60008415801590610f2257508315155b8015610f2d57508215155b8015610f3857508615155b8015610f4357508515155b8015610f4e57508483105b8015610f6257506001600160a01b03821615155b610f995760405162461bcd60e51b815260206004820152600860248201526754542d54462d303160c01b60448201526064016102f4565b7f87101b21d556417ad2b8e8f2700dbad90721d5d50a1f435f2dee0b9dc981ac8980546040805161016081018252600060208083018281526080840186905260c084018e905260a084018d905260e084018c90526101008085018c905261012085018b90526001600160a01b038a1661014086015233858701524260608601526001855286845260008051602061265e833981519152909252939091208251815490151560ff198216811783559451939485949293849261ff001990921661ffff199092169190911790836003811115611075576110756124b1565b02179055506040820151815462010000600160b01b031916620100006001600160a01b0392831602178255606083015160018301556080830151600283015560a0830151600383015560c0830151600483015560e083015160058301556101008301516006830155610120830151600783015561014090920151600890910180546001600160a01b03191691909216179055825483600061111583612532565b9190505550611124828b6118e6565b604051339083907f3bff48239db8f29891497cd2efd85d201f5723830e7c8cfaef44cc50a4bc024c90600090a35098975050505050505050565b600081815260008051602061265e8339815191526020908152604080832060008051602061267e83398151915290925290912061119a836112ee565b80156111aa57506111aa83611966565b6111b357600080fd5b6001810154158015906111d85750816003015481600101546111d5919061251f565b42115b61120f5760405162461bcd60e51b815260206004820152600860248201526754542d54462d313360c01b60448201526064016102f4565b81600401548160020154106112515760405162461bcd60e51b815260206004820152600860248201526715150b55118b4c4d60c21b60448201526064016102f4565b60028254610100900460ff16600381111561126e5761126e6124b1565b036112a65760405162461bcd60e51b815260206004820152600860248201526754542d54462d313560c01b60448201526064016102f4565b815461020061ff001991821681178455825490911617815560405183907f9983062774b9b7f1b9071acd776af98f78c06bf9ad065553a83395178ef6243a90600090a2505050565b600090815260008051602061265e833981519152602052604090205460ff1690565b600082815260008051602061267e833981519152602090815260408083206001600160a01b038516845260058101909252822054829061134f8661198c565b6113ce5760405163bb91b76d60e01b81526001600160a01b038616600482015260248101879052309063bb91b76d9060440160a060405180830381865afa15801561139e573d6000803e3d6000fd5b505050506040513d601f19601f820116820180604052508101906113c2919061254b565b95506114319350505050565b60405163f0d826e760e01b815260048101879052309063f0d826e790602401602060405180830381865afa15801561140a573d6000803e3d6000fd5b505050506040513d601f19601f8201168201806040525081019061142e9190612506565b91505b109150505b92915050565b611449826080015161198c565b156114815760405162461bcd60e51b81526020600482015260086024820152672a2a16aa2316989960c11b60448201526064016102f4565b6080820151600090815260008051602061263e8339815191526020526040902061014083015181546001600160a01b03909116620100000262010000600160b01b03199091161781556003820180546114de916001840191612274565b508054600180830154601484015561ffff199091161781556080830151610140906119a2565b6080820151600090815260008051602061261e8339815191526020908152604080832060038501805483518186028101860190945280845291947ff27a5986330dc78d016d8604ee1a040d5a789fbaa2d0c27f5dfded4b616b897794909384939092918301828280156115a057602002820191906000526020600020905b81546001600160a01b03168152600190910190602001808311611582575b505083519394506000925050505b81811015611742578560070160008483815181106115ce576115ce6124c7565b6020908102919091018101516001600160a01b031682528101919091526040016000205460ff161561173a5785600601838281518110611610576116106124c7565b6020908102919091018101518254600181018455600093845291832090910180546001600160a01b0319166001600160a01b03909216919091179055835160649160058a0191869085908110611668576116686124c7565b60200260200101516001600160a01b03166001600160a01b0316815260200190815260200160002054605f61169d9190612594565b6116a791906125ab565b86600b0160008584815181106116bf576116bf6124c7565b60200260200101516001600160a01b03166001600160a01b031681526020019081526020016000208190555085600b016000848381518110611703576117036124c7565b60200260200101516001600160a01b03166001600160a01b031681526020019081526020016000205484611737919061251f565b93505b6001016115ae565b50821561045157426002860155845460ff191660011785556040518490611776906605a61796e5a61760cc1b815260070190565b908152604051908190036020018120546001600160a01b03169060018701906117ac906605a61796e5a61760cc1b815260070190565b9081526040805191829003602001822080546001600160a01b039485166001600160a01b03199091161790556816985e5b95985d5b1d60ba1b808352600980840189905291519283900360290183205490835290921691600188019101908152602001604051809103902060006101000a8154816001600160a01b0302191690836001600160a01b03160217905550610451876080015184611a9d565b600082815260008051602061267e83398151915260205260409020805461010080820460ff16918491849161ff0019169083600381111561188c5761188c6124b1565b02179055508260038111156118a3576118a36124b1565b8160038111156118b5576118b56124b1565b60405186907ffe918112a2fca8c18cc609a5d585d9fc8448267cb7b9d6c19a445fe5c0c199c890600090a450505050565b600082815260008051602061267e83398151915260205260409020805461ffff191660011781558167ffffffffffffffff811115611926576119266125cd565b60405190808252806020026020018201604052801561194f578160200160208202803683370190505b5080516101519160038401916020909101906122c4565b600060008051602061267e8339815191525b600092835260205250604090205460ff1690565b600060008051602061263e833981519152611978565b600081815260008051602061263e83398151915260205260408120600181015490915b81811015611a5d57611a0383600d018460010183815481106119e9576119e96124c7565b6000918252602090912001546001600160a01b0316611bf7565b506001836005016000856001018481548110611a2157611a216124c7565b6000918252602080832091909101546001600160a01b031683528201929092526040019020805460ff19169115159190911790556001016119c5565b50611a6783611c13565b42600283015560405183907fc3bfb99b88687651f8e660492ae2ee62a50d40e4131ace07f88ed4639b3a4bc390600090a2505050565b600082815260008051602061261e833981519152602052604090819020600381018390556004810183905581516816985e5b95985d5b1d60ba1b815260018201600982018190529251908190036029018120546605a61796e5a61760cc1b825291926001600160a01b03909216919060070190815260405190819003602001812054632af34be360e11b82526001600160a01b0383811660048401526024830187905216906355e697c69085906044016000604051808303818588803b158015611b6657600080fd5b505af1158015611b7a573d6000803e3d6000fd5b5050604051631398fee160e31b8152600481018890526001600160a01b0385169350639cc7f70892506024019050602060405180830381865afa158015611bc5573d6000803e3d6000fd5b505050506040513d601f19601f82011682018060405250810190611be99190612506565b826005018190555050505050565b6000611c0c836001600160a01b038416611e48565b9392505050565b600081815260008051602061263e8339815191526020908152604080832060008051602061265e833981519152909252909120600282015460048301546005830154611c5f9190612594565b611c69919061251f565b4211611ca25760405162461bcd60e51b815260206004820152600860248201526754542d4c462d303160c01b60448201526064016102f4565b60008254610100900460ff166004811115611cbf57611cbf6124b1565b1480611ce5575060038254610100900460ff166004811115611ce357611ce36124b1565b145b611d1c5760405162461bcd60e51b81526020600482015260086024820152672a2a16a62316981960c11b60448201526064016102f4565b8160040160008154611d2d90612532565b90915550600182015460005b81811015611e3357836016016000856001018381548110611d5c57611d5c6124c7565b60009182526020808320909101546001600160a01b0316835282019290925260400181205460018601805460ff90921692600788019290919085908110611da557611da56124c7565b6000918252602080832091909101546001600160a01b031683528201929092526040018120805460ff1916921515929092179091556001850180546016870191839185908110611df757611df76124c7565b6000918252602080832091909101546001600160a01b031683528201929092526040019020805460ff1916911515919091179055600101611d39565b50611e3f846001611e97565b61015184611f73565b6000818152600183016020526040812054611e8f57508154600181810184556000848152602080822090930184905584548482528286019093526040902091909155611436565b506000611436565b600082815260008051602061263e833981519152602052604090208054600490610100900460ff1681811115611ecf57611ecf6124b1565b03611f075760405162461bcd60e51b815260206004820152600860248201526754542d4c462d303360c01b60448201526064016102f4565b80548290829061ff001916610100836004811115611f2757611f276124b1565b0217905550816004811115611f3e57611f3e6124b1565b600482015460405185907fe515107ce875160b9ed93bfd1367820d3ffbf412cd63d05140f6bc5535b51de390600090a4505050565b600060008051602061263e83398151915260008381526020919091526040808220905163d8f8e99160e01b815260048101859052909250309063d8f8e99190602401602060405180830381865afa158015611fd2573d6000803e3d6000fd5b505050506040513d601f19601f82011682018060405250810190611ff691906125e3565b905060008260010180548060200260200160405190810160405280929190818152602001828054801561205257602002820191906000526020600020905b81546001600160a01b03168152600190910190602001808311612034575b505083519394506000925050505b8181101561213c57600083828151811061207c5761207c6124c7565b60200260200101519050806001600160a01b0316856001600160a01b0316036120a85750600101612060565b6001600160a01b038116600090815260088701602052604090205460ff1680156120ed57506001600160a01b038116600090815260078701602052604090205460ff16155b8015612123575060048601546000908152600c8701602090815260408083206001600160a01b038516845290915290205460ff16155b1561213357612133878283612144565b50600101612060565b505050505050565b600083815260008051602061263e8339815191526020908152604080832060008051602061265e833981519152909252822060068101549192909161218c90620f4240612594565b83546040516323b872dd60e01b81526001600160a01b0388811660048301523060248301526044820184905292935062010000909104909116906323b872dd906064016020604051808303816000875af192505050801561220a575060408051601f3d908101601f1916820190925261220791810190612600565b60015b1561213c578015610451576001600160a01b0385166000818152600786016020526040808220805460ff19166001179055600487015490519092918a917fe1122b3cea22012386ebf236fc23dd8a783b91c046d5dec812901846464624ae9190a450505050505050565b8280548282559060005260206000209081019282156122b45760005260206000209182015b828111156122b4578254825591600101919060010190612299565b506122c0929150612319565b5090565b8280548282559060005260206000209081019282156122b4579160200282015b828111156122b457825182546001600160a01b0319166001600160a01b039091161782556020909201916001909101906122e4565b5b808211156122c0576000815560010161231a565b801515811461016057600080fd5b6001600160a01b038116811461016057600080fd5b60008060006060848603121561236657600080fd5b8335925060208401356123788161232e565b915060408401356123888161233c565b809150509250925092565b600080600080608085870312156123a957600080fd5b8435935060208501356123bb8161232e565b925060408501356123cb8161233c565b9396929550929360600135925050565b6000602082840312156123ed57600080fd5b5035919050565b6000806040838503121561240757600080fd5b8235915060208301356124198161232e565b809150509250929050565b60008060008060008060c0878903121561243d57600080fd5b863595506020870135945060408701359350606087013592506080870135915060a087013561246b8161233c565b809150509295509295509295565b60008060006060848603121561248e57600080fd5b8335925060208401356124a08161232e565b929592945050506040919091013590565b634e487b7160e01b600052602160045260246000fd5b634e487b7160e01b600052603260045260246000fd5b634e487b7160e01b600052601160045260246000fd5b81810381811115611436576114366124dd565b60006020828403121561251857600080fd5b5051919050565b80820180821115611436576114366124dd565b600060018201612544576125446124dd565b5060010190565b600080600080600060a0868803121561256357600080fd5b855161256e8161232e565b602087015160408801516060890151608090990151929a91995097965090945092505050565b8082028115828204841417611436576114366124dd565b6000826125c857634e487b7160e01b600052601260045260246000fd5b500490565b634e487b7160e01b600052604160045260246000fd5b6000602082840312156125f557600080fd5b8151611c0c8161233c565b60006020828403121561261257600080fd5b8151611c0c8161232e56fe29d9cba46c358ba7c1b8945751229339792c7c62e3197c240fa98916e75ffbf96751f7e27cecf86d7136f5749c224248cae80a39fafb59f8f6bf12c52816307c87101b21d556417ad2b8e8f2700dbad90721d5d50a1f435f2dee0b9dc981ac8a35fa70a6f9ae8a4d427ebe0c1be62ffd2870fecc1df41c6fda0bf5803e562888a264697066735822122097e1d8acb1090e485a7692fc9fa2a21485c5a90e96a1d8c646afd97de77c9dca64736f6c63430008120033",
  "devdoc": {
    "author": "Mohammed Haddouti",
    "details": "v3.0 (Diamond)",
    "kind": "dev",
    "methods": {
      "createTerm(uint256,uint256,uint256,uint256,uint256,address)": {
        "params": {
          "contributionAmount": "The amount of stable token that each participant will have to contribute",
          "contributionPeriod": "The time in seconds that the participants will have to contribute",
          "cycleTime": "The time in seconds that the term will last",
          "registrationPeriod": "The time in seconds that the term will be open for registration",
          "stableTokenAddress": "The address of the stable token",
          "totalParticipants": "The number of participants in the term"
        },
        "returns": {
          "_0": "termId The id of the new term"
        }
      },
      "expireTerm(uint256)": {
        "params": {
          "termId": "The id of the term"
        }
      },
      "joinTerm(uint256,bool)": {
        "params": {
          "optYield": "Whether the participant wants to opt in for yield generation",
          "termId": "The id of the term"
        }
      },
      "joinTermOnPosition(uint256,bool,uint256)": {
        "params": {
          "optYield": "Whether the participant wants to opt in for yield generation",
          "position": "The position in the term",
          "termId": "The id of the term"
        }
      },
      "paySecurityOnBehalfOf(uint256,bool,address)": {
        "params": {
          "newParticipant": "The address of the new participant",
          "optYield": "Whether the participant wants to opt in for yield generation",
          "termId": "The id of the term"
        }
      },
      "paySecurityOnBehalfOf(uint256,bool,address,uint256)": {
        "params": {
          "newParticipant": "The address of the new participant",
          "optYield": "Whether the participant wants to opt in for yield generation",
          "position": "The position in the term",
          "termId": "The id of the term"
        }
      },
      "startTerm(uint256)": {
        "params": {
          "termId": "The id of the term"
        }
      }
    },
    "title": "Takaturn Term Facet",
    "version": 1
  },
  "userdoc": {
    "kind": "user",
    "methods": {
      "createTerm(uint256,uint256,uint256,uint256,uint256,address)": {
        "notice": "Create a new term"
      },
      "expireTerm(uint256)": {
        "notice": "Expire a term"
      },
      "joinTerm(uint256,bool)": {
        "notice": "Join a term at the next available position"
      },
      "joinTermOnPosition(uint256,bool,uint256)": {
        "notice": "Join a term at a specific position"
      },
      "paySecurityOnBehalfOf(uint256,bool,address)": {
        "notice": "Pay security deposit on behalf of someone else, at the next available position"
      },
      "paySecurityOnBehalfOf(uint256,bool,address,uint256)": {
        "notice": "Pay security deposit on behalf of someone else, at a specific position"
      },
      "startTerm(uint256)": {
        "notice": "Start a term"
      }
    },
    "notice": "This is used to create terms",
    "version": 1
  },
  "storageLayout": {
    "storage": [],
    "types": null
  }
}