{
  "address": "0xD503691042cABF2cE18F6E08d932432747C5c798",
  "abi": [
    {
      "anonymous": false,
      "inputs": [
        {
          "indexed": true,
          "internalType": "uint256",
          "name": "termId",
          "type": "uint256"
        },
        {
          "indexed": true,
          "internalType": "address",
          "name": "user",
          "type": "address"
        },
        {
          "indexed": false,
          "internalType": "uint256",
          "name": "amount",
          "type": "uint256"
        }
      ],
      "name": "OnCollateralDeposited",
      "type": "event"
    },
    {
      "anonymous": false,
      "inputs": [
        {
          "indexed": true,
          "internalType": "uint256",
          "name": "termId",
          "type": "uint256"
        },
        {
          "indexed": true,
          "internalType": "address",
          "name": "termOwner",
          "type": "address"
        }
      ],
      "name": "OnTermCreated",
      "type": "event"
    },
    {
      "anonymous": false,
      "inputs": [
        {
          "indexed": true,
          "internalType": "uint256",
          "name": "termId",
          "type": "uint256"
        }
      ],
      "name": "OnTermExpired",
      "type": "event"
    },
    {
      "anonymous": false,
      "inputs": [
        {
          "indexed": true,
          "internalType": "uint256",
          "name": "termId",
          "type": "uint256"
        }
      ],
      "name": "OnTermFilled",
      "type": "event"
    },
    {
      "anonymous": false,
      "inputs": [
        {
          "indexed": true,
          "internalType": "uint256",
          "name": "termId",
          "type": "uint256"
        }
      ],
      "name": "OnTermStart",
      "type": "event"
    },
    {
      "inputs": [
        {
          "internalType": "uint256",
          "name": "totalParticipants",
          "type": "uint256"
        },
        {
          "internalType": "uint256",
          "name": "registrationPeriod",
          "type": "uint256"
        },
        {
          "internalType": "uint256",
          "name": "cycleTime",
          "type": "uint256"
        },
        {
          "internalType": "uint256",
          "name": "contributionAmount",
          "type": "uint256"
        },
        {
          "internalType": "uint256",
          "name": "contributionPeriod",
          "type": "uint256"
        },
        {
          "internalType": "address",
          "name": "stableTokenAddress",
          "type": "address"
        }
      ],
      "name": "createTerm",
      "outputs": [
        {
          "internalType": "uint256",
          "name": "",
          "type": "uint256"
        }
      ],
      "stateMutability": "nonpayable",
      "type": "function"
    },
    {
      "inputs": [
        {
          "internalType": "uint256",
          "name": "termId",
          "type": "uint256"
        }
      ],
      "name": "expireTerm",
      "outputs": [],
      "stateMutability": "nonpayable",
      "type": "function"
    },
    {
      "inputs": [
        {
          "internalType": "uint256",
          "name": "termId",
          "type": "uint256"
        },
        {
          "internalType": "bool",
          "name": "optYield",
          "type": "bool"
        }
      ],
      "name": "joinTerm",
      "outputs": [],
      "stateMutability": "payable",
      "type": "function"
    },
    {
      "inputs": [
        {
          "internalType": "uint256",
          "name": "termId",
          "type": "uint256"
        },
        {
          "internalType": "bool",
          "name": "optYield",
          "type": "bool"
        },
        {
          "internalType": "uint256",
          "name": "position",
          "type": "uint256"
        }
      ],
      "name": "joinTerm",
      "outputs": [],
      "stateMutability": "payable",
      "type": "function"
    },
    {
      "inputs": [
        {
          "internalType": "uint256",
          "name": "termId",
          "type": "uint256"
        }
      ],
      "name": "startTerm",
      "outputs": [],
      "stateMutability": "nonpayable",
      "type": "function"
    }
  ],
  "args": [],
  "numDeployments": 7,
  "solcInputHash": "9aeee4a83e32dbfc4bc7e99f3bc4d015",
  "bytecode": "0x608060405234801561001057600080fd5b50612579806100206000396000f3fe60806040526004361061004a5760003560e01c8063485fd0761461004f578063692d8ba714610071578063aa31ef3214610084578063b1705fa2146100b6578063c31cd44f146100d6575b600080fd5b34801561005b57600080fd5b5061006f61006a36600461225e565b6100e9565b005b61006f61007f366004612285565b6100f5565b34801561009057600080fd5b506100a461009f3660046122ca565b610103565b60405190815260200160405180910390f35b3480156100c257600080fd5b5061006f6100d136600461225e565b61011e565b61006f6100e436600461231f565b610127565b6100f281610137565b50565b6100ff8282610603565b5050565b60006101138787878787876108b2565b979650505050505050565b6100f281610b04565b610132838383610cd5565b505050565b60008181526000805160206125048339815191526020908152604080832060008051602061252483398151915283528184206000805160206124c48339815191528452828520600382018054855181880281018801909652808652939692959194929390918301828280156101d557602002820191906000526020600020905b81546001600160a01b031681526001909101906020018083116101b7575b50505050509050600081519050846003015484600101546101f6919061236d565b42116102495760405162461bcd60e51b815260206004820152601760248201527f5465726d206e6f7420726561647920746f20737461727400000000000000000060448201526064015b60405180910390fd5b84600401548460020154146102a05760405162461bcd60e51b815260206004820152601860248201527f416c6c2073706f747320617265206e6f742066696c6c656400000000000000006044820152606401610240565b60005b8181101561031c576102d286600201548483815181106102c5576102c5612380565b602002602001015161128a565b156103145760405162461bcd60e51b8152602060048201526012602482015271115d1a081c1c9a58d95cc8191c9bdc1c195960721b6044820152606401610240565b6001016102a3565b50604080516101608101909152855460ff808216151583526103df929188916020840191610100900416600381111561035757610357612396565b600381111561036857610368612396565b815281546001600160a01b036201000090910481166020830152600183015460408301526002830154606083015260038301546080830152600483015460a0830152600583015460c0830152600683015460e0830152600783015461010083015260089092015490911661012090910152856113b6565b7f7c039906f7f8ca11e01b6987a88513563589699678f7d2a6c8447f44d69375f35460ff1661052c5760005b818110156105265783600701600084838151811061042b5761042b612380565b6020908102919091018101516001600160a01b031682528101919091526040016000205460ff161561051e57604080516101608101909152865460ff80821615158352610519929189916020840191610100900416600381111561049157610491612396565b60038111156104a2576104a2612396565b815281546001600160a01b036201000090910481166020830152600183015460408301526002830154606083015260038301546080830152600483015460a0830152600583015460c0830152600683015460e083015260078301546101008301526008909201549091166101209091015286611489565b610526565b60010161040b565b506105df565b60005b818110156105dd5783600701600084838151811061054f5761054f612380565b6020908102919091018101516001600160a01b031682528101919091526040016000205460ff16156105d557600084600701600085848151811061059557610595612380565b60200260200101516001600160a01b03166001600160a01b0316815260200190815260200160002060006101000a81548160ff0219169083151502179055505b60010161052f565b505b6105ee856002015460016117d7565b5050825461ff00191661010017909255505050565b60008281526000805160206125048339815191526020908152604080832081516101608101909252805460ff808216151584527f87101b21d556417ad2b8e8f2700dbad90721d5d50a1f435f2dee0b9dc981ac899594840191610100900416600381111561067357610673612396565b600381111561068457610684612396565b815281546201000090046001600160a01b039081166020830152600183015460408301526002830154606083015260038301546080830152600483015460a0830152600583015460c0830152600683015460e083015260078301546101008301526008909201549091166101209091015290506000600080516020612524833981519152600086815260209190915260409020905061072285611874565b6107635760405162461bcd60e51b815260206004820152601260248201527115195c9b48191bd95cdb89dd08195e1a5cdd60721b6044820152606401610240565b60008154610100900460ff16600381111561078057610780612396565b146107b65760405162461bcd60e51b815260206004820152600660248201526510db1bdcd95960d21b6044820152606401610240565b8160c001518160020154106107f85760405162461bcd60e51b81526020600482015260086024820152674e6f20737061636560c01b6044820152606401610240565b33600090815260048201602052604090205460ff16156108445760405162461bcd60e51b81526020600482015260076024820152665265656e74727960c81b6044820152606401610240565b6000805b8360c0015181101561089e5760006001600160a01b031683600301828154811061087457610874612380565b6000918252602090912001546001600160a01b0316036108965780915061089e565b600101610848565b506108aa868683610cd5565b505050505050565b600084158015906108c257508315155b80156108cd57508215155b80156108d857508615155b80156108e357508515155b80156108ee57508483105b801561090257506001600160a01b03821615155b61093f5760405162461bcd60e51b815260206004820152600e60248201526d496e76616c696420696e7075747360901b6044820152606401610240565b7f87101b21d556417ad2b8e8f2700dbad90721d5d50a1f435f2dee0b9dc981ac8980546040805161016081018252600060208083018281526080840186905260c084018e905260a084018d905260e084018c90526101008085018c905261012085018b90526001600160a01b038a16610140860152338587015242606086015260018552868452600080516020612504833981519152909252939091208251815490151560ff198216811783559451939485949293849261ff001990921661ffff199092169190911790836003811115610a1b57610a1b612396565b02179055506040820151815462010000600160b01b031916620100006001600160a01b0392831602178255606083015160018301556080830151600283015560a0830151600383015560c0830151600483015560e083015160058301556101008301516006830155610120830151600783015561014090920151600890910180546001600160a01b031916919092161790558254836000610abb836123ac565b9190505550610aca828b611896565b604051339083907f3bff48239db8f29891497cd2efd85d201f5723830e7c8cfaef44cc50a4bc024c90600090a35098975050505050505050565b600081815260008051602061250483398151915260209081526040808320600080516020612524833981519152909252909120610b4083611874565b8015610b505750610b508361191c565b610b5957600080fd5b600181015415801590610b7e575081600301548160010154610b7b919061236d565b42115b610bca5760405162461bcd60e51b815260206004820152601d60248201527f526567697374726174696f6e20706572696f64206e6f7420656e6465640000006044820152606401610240565b8160040154816002015410610c2c5760405162461bcd60e51b815260206004820152602260248201527f416c6c2073706f7473206172652066696c6c65642c2063616e27742065787069604482015261726560f01b6064820152608401610240565b60028254610100900460ff166003811115610c4957610c49612396565b03610c8d5760405162461bcd60e51b815260206004820152601460248201527315195c9b48185b1c9958591e48195e1c1a5c995960621b6044820152606401610240565b815461020061ff001991821681178455825490911617815560405183907f9983062774b9b7f1b9071acd776af98f78c06bf9ad065553a83395178ef6243a90600090a2505050565b60008381526000805160206125048339815191526020908152604080832081516101608101909252805460ff808216151584527f87101b21d556417ad2b8e8f2700dbad90721d5d50a1f435f2dee0b9dc981ac8995948401916101009004166003811115610d4557610d45612396565b6003811115610d5657610d56612396565b815281546201000090046001600160a01b039081166020830152600183015460408301526002830154606083015260038301546080830152600483015460a0830152600583015460c0830152600683015460e08301526007830154610100830152600890920154909116610120909101529050600060008051602061252483398151915260008781526020919091526040812091506000805160206124c48339815191526000888152602091909152604090209050610e1487611874565b610e555760405162461bcd60e51b815260206004820152601260248201527115195c9b48191bd95cdb89dd08195e1a5cdd60721b6044820152606401610240565b60008254610100900460ff166003811115610e7257610e72612396565b14610ea85760405162461bcd60e51b815260206004820152600660248201526510db1bdcd95960d21b6044820152606401610240565b8260c00151826002015410610eea5760405162461bcd60e51b81526020600482015260086024820152674e6f20737061636560c01b6044820152606401610240565b33600090815260048301602052604090205460ff1615610f365760405162461bcd60e51b81526020600482015260076024820152665265656e74727960c81b6044820152606401610240565b60018360c00151610f4791906123c5565b851115610f895760405162461bcd60e51b815260206004820152601060248201526f24b73b30b634b2103837b9b4ba34b7b760811b6044820152606401610240565b60006001600160a01b0316826003018681548110610fa957610fa9612380565b6000918252602090912001546001600160a01b0316146110045760405162461bcd60e51b81526020600482015260166024820152752837b9b4ba34b7b71030b63932b0b23c903a30b5b2b760511b6044820152606401610240565b604051630c64c69760e01b815260048101889052602481018690526000903090630c64c69790604401602060405180830381865afa15801561104a573d6000803e3d6000fd5b505050506040513d601f19601f8201168201806040525081019061106e91906123d8565b9050803410156110b65760405162461bcd60e51b8152602060048201526013602482015272457468207061796d656e7420746f6f206c6f7760681b6044820152606401610240565b336000908152600584016020526040812080543492906110d790849061236d565b90915550503360008181526004850160205260409020805460ff191660011790556003840180548890811061110e5761110e612380565b6000918252602082200180546001600160a01b0319166001600160a01b03939093169290921790915560028401805491611147836123ac565b90915550503360009081526007840160205260408120805434929061116d90849061236d565b90915550503360009081526002860160209081526040822080546001810182559083529120018890557f7c039906f7f8ca11e01b6987a88513563589699678f7d2a6c8447f44d69375f35460ff166111e1573360009081526007830160205260409020805460ff19168815151790556111fb565b3360009081526007830160205260409020805460ff191690555b604051348152339089907f6e0a2371131a7d423998fa7e71296a76f74b9c658d0b210b3f8e70eff0e536d89060200160405180910390a38260020154600103611245574260018401555b8360c001518360020154036112805760405188907fcb9c59095b121bb2ee6f91e996d96e8937149675a0dd11c12b5d08ec2cc7abba90600090a25b5050505050505050565b6000828152600080516020612524833981519152602090815260408083206001600160a01b03851684526005810190925282205482906112c986611942565b6113485760405163bb91b76d60e01b81526001600160a01b038616600482015260248101879052309063bb91b76d9060440160a060405180830381865afa158015611318573d6000803e3d6000fd5b505050506040513d601f19601f8201168201806040525081019061133c91906123f1565b95506113ab9350505050565b60405163f0d826e760e01b815260048101879052309063f0d826e790602401602060405180830381865afa158015611384573d6000803e3d6000fd5b505050506040513d601f19601f820116820180604052508101906113a891906123d8565b91505b109150505b92915050565b6113c38260800151611942565b156114065760405162461bcd60e51b815260206004820152601360248201527246756e6420616c72656164792065786973747360681b6044820152606401610240565b608082015160009081526000805160206124e48339815191526020526040902061014083015181546001600160a01b03909116620100000262010000600160b01b03199091161781556003820180546114639160018401916121a4565b508054600180830154601484015561ffff19909116178155608083015161013290611958565b608082015160009081526000805160206124c48339815191526020908152604080832060038501805483518186028101860190945280845291947ff27a5986330dc78d016d8604ee1a040d5a789fbaa2d0c27f5dfded4b616b8977949093849390929183018282801561152557602002820191906000526020600020905b81546001600160a01b03168152600190910190602001808311611507575b505083519394506000925050505b818110156116c75785600701600084838151811061155357611553612380565b6020908102919091018101516001600160a01b031682528101919091526040016000205460ff16156116bf578560060183828151811061159557611595612380565b6020908102919091018101518254600181018455600093845291832090910180546001600160a01b0319166001600160a01b03909216919091179055835160649160058a01918690859081106115ed576115ed612380565b60200260200101516001600160a01b03166001600160a01b0316815260200190815260200160002054605f611622919061243a565b61162c9190612451565b86600b01600085848151811061164457611644612380565b60200260200101516001600160a01b03166001600160a01b031681526020019081526020016000208190555085600b01600084838151811061168857611688612380565b60200260200101516001600160a01b03166001600160a01b0316815260200190815260200160002054846116bc919061236d565b93505b600101611533565b5082156117ce57426002860155845460ff1916600117855560405184906116fb906605a61796e5a61760cc1b815260070190565b908152604051908190036020018120546001600160a01b0316906001870190611731906605a61796e5a61760cc1b815260070190565b9081526040805191829003602001822080546001600160a01b039485166001600160a01b03199091161790556816985e5b95985d5b1d60ba1b808352600980840189905291519283900360290183205490835290921691600188019101908152602001604051809103902060006101000a8154816001600160a01b0302191690836001600160a01b031602179055506117ce876080015184611a53565b50505050505050565b600082815260008051602061252483398151915260205260409020805461010080820460ff16918491849161ff0019169083600381111561181a5761181a612396565b021790555082600381111561183157611831612396565b81600381111561184357611843612396565b60405186907ffe918112a2fca8c18cc609a5d585d9fc8448267cb7b9d6c19a445fe5c0c199c890600090a450505050565b6000908152600080516020612504833981519152602052604090205460ff1690565b600082815260008051602061252483398151915260205260409020805461ffff191660011781558167ffffffffffffffff8111156118d6576118d6612473565b6040519080825280602002602001820160405280156118ff578160200160208202803683370190505b5080516119169160038401916020909101906121f4565b50505050565b60006000805160206125248339815191525b600092835260205250604090205460ff1690565b60006000805160206124e483398151915261192e565b60008181526000805160206124e483398151915260205260408120600181015490915b81811015611a13576119b983600d0184600101838154811061199f5761199f612380565b6000918252602090912001546001600160a01b0316611bad565b5060018360050160008560010184815481106119d7576119d7612380565b6000918252602080832091909101546001600160a01b031683528201929092526040019020805460ff191691151591909117905560010161197b565b50611a1d83611bc9565b42600283015560405183907fc3bfb99b88687651f8e660492ae2ee62a50d40e4131ace07f88ed4639b3a4bc390600090a2505050565b60008281526000805160206124c4833981519152602052604090819020600381018390556004810183905581516816985e5b95985d5b1d60ba1b815260018201600982018190529251908190036029018120546605a61796e5a61760cc1b825291926001600160a01b03909216919060070190815260405190819003602001812054632af34be360e11b82526001600160a01b0383811660048401526024830187905216906355e697c69085906044016000604051808303818588803b158015611b1c57600080fd5b505af1158015611b30573d6000803e3d6000fd5b5050604051631398fee160e31b8152600481018890526001600160a01b0385169350639cc7f70892506024019050602060405180830381865afa158015611b7b573d6000803e3d6000fd5b505050506040513d601f19601f82011682018060405250810190611b9f91906123d8565b826005018190555050505050565b6000611bc2836001600160a01b038416611d7d565b9392505050565b60008181526000805160206124e483398151915260209081526040808320600080516020612504833981519152909252909120600282015460048301546005830154611c15919061243a565b611c1f919061236d565b4211611c6d5760405162461bcd60e51b815260206004820152601c60248201527f546f6f206561726c7920746f207374617274206e6577206379636c65000000006044820152606401610240565b60008254610100900460ff166004811115611c8a57611c8a612396565b1480611cb0575060038254610100900460ff166004811115611cae57611cae612396565b145b611cea5760405162461bcd60e51b815260206004820152600b60248201526a57726f6e6720737461746560a81b6044820152606401610240565b8160040160008154611cfb906123ac565b90915550600182015460005b81811015611d68576000846007016000866001018481548110611d2c57611d2c612380565b6000918252602080832091909101546001600160a01b031683528201929092526040019020805460ff1916911515919091179055600101611d07565b50611d74846001611dcc565b61191684611eab565b6000818152600183016020526040812054611dc4575081546001818101845560008481526020808220909301849055845484825282860190935260409020919091556113b0565b5060006113b0565b60008281526000805160206124e4833981519152602052604090208054600490610100900460ff1681811115611e0457611e04612396565b03611e3f5760405162461bcd60e51b815260206004820152600b60248201526a119d5b990818db1bdcd95960aa1b6044820152606401610240565b80548290829061ff001916610100836004811115611e5f57611e5f612396565b0217905550816004811115611e7657611e76612396565b600482015460405185907fe515107ce875160b9ed93bfd1367820d3ffbf412cd63d05140f6bc5535b51de390600090a4505050565b60006000805160206124e483398151915260008381526020919091526040808220905163d8f8e99160e01b815260048101859052909250309063d8f8e99190602401602060405180830381865afa158015611f0a573d6000803e3d6000fd5b505050506040513d601f19601f82011682018060405250810190611f2e9190612489565b9050600082600101805480602002602001604051908101604052809291908181526020018280548015611f8a57602002820191906000526020600020905b81546001600160a01b03168152600190910190602001808311611f6c575b505083519394506000925050505b818110156108aa576000838281518110611fb457611fb4612380565b60200260200101519050806001600160a01b0316856001600160a01b031603611fe05750600101611f98565b6001600160a01b038116600090815260088701602052604090205460ff16801561202557506001600160a01b038116600090815260078701602052604090205460ff16155b801561205b575060048601546000908152600c8701602090815260408083206001600160a01b038516845290915290205460ff16155b1561206b5761206b878283612074565b50600101611f98565b60008381526000805160206124e48339815191526020908152604080832060008051602061250483398151915290925282206006810154919290916120bc90620f424061243a565b83546040516323b872dd60e01b81526001600160a01b0388811660048301523060248301526044820184905292935062010000909104909116906323b872dd906064016020604051808303816000875af192505050801561213a575060408051601f3d908101601f19168201909252612137918101906124a6565b60015b156108aa5780156117ce576001600160a01b0385166000818152600786016020526040808220805460ff19166001179055600487015490519092918a917fe1122b3cea22012386ebf236fc23dd8a783b91c046d5dec812901846464624ae9190a450505050505050565b8280548282559060005260206000209081019282156121e45760005260206000209182015b828111156121e45782548255916001019190600101906121c9565b506121f0929150612249565b5090565b8280548282559060005260206000209081019282156121e4579160200282015b828111156121e457825182546001600160a01b0319166001600160a01b03909116178255602090920191600190910190612214565b5b808211156121f0576000815560010161224a565b60006020828403121561227057600080fd5b5035919050565b80151581146100f257600080fd5b6000806040838503121561229857600080fd5b8235915060208301356122aa81612277565b809150509250929050565b6001600160a01b03811681146100f257600080fd5b60008060008060008060c087890312156122e357600080fd5b863595506020870135945060408701359350606087013592506080870135915060a0870135612311816122b5565b809150509295509295509295565b60008060006060848603121561233457600080fd5b83359250602084013561234681612277565b929592945050506040919091013590565b634e487b7160e01b600052601160045260246000fd5b808201808211156113b0576113b0612357565b634e487b7160e01b600052603260045260246000fd5b634e487b7160e01b600052602160045260246000fd5b6000600182016123be576123be612357565b5060010190565b818103818111156113b0576113b0612357565b6000602082840312156123ea57600080fd5b5051919050565b600080600080600060a0868803121561240957600080fd5b855161241481612277565b602087015160408801516060890151608090990151929a91995097965090945092505050565b80820281158282048414176113b0576113b0612357565b60008261246e57634e487b7160e01b600052601260045260246000fd5b500490565b634e487b7160e01b600052604160045260246000fd5b60006020828403121561249b57600080fd5b8151611bc2816122b5565b6000602082840312156124b857600080fd5b8151611bc28161227756fe29d9cba46c358ba7c1b8945751229339792c7c62e3197c240fa98916e75ffbf96751f7e27cecf86d7136f5749c224248cae80a39fafb59f8f6bf12c52816307c87101b21d556417ad2b8e8f2700dbad90721d5d50a1f435f2dee0b9dc981ac8a35fa70a6f9ae8a4d427ebe0c1be62ffd2870fecc1df41c6fda0bf5803e562888a2646970667358221220c82b8239f1647a72234db3f8a4cd02594aa167ae91dad6da19f3ba6e4cfc51f364736f6c63430008120033",
  "devdoc": {
    "author": "Mohammed Haddouti",
    "details": "v3.0 (Diamond)",
    "kind": "dev",
    "methods": {},
    "title": "Takaturn Term",
    "version": 1
  },
  "userdoc": {
    "kind": "user",
    "methods": {},
    "notice": "This is used to deploy the collateral & fund contracts",
    "version": 1
  },
  "storageLayout": {
    "storage": [],
    "types": null
  }
}