{
  "address": "0xd88720495076805268F689934EBe43C19C1A139f",
  "abi": [
    {
      "anonymous": false,
      "inputs": [
        {
          "indexed": true,
          "internalType": "uint256",
          "name": "amount",
          "type": "uint256"
        },
        {
          "indexed": true,
          "internalType": "address",
          "name": "receiver",
          "type": "address"
        }
      ],
      "name": "OnTestEthWithdraw",
      "type": "event"
    },
    {
      "inputs": [
        {
          "internalType": "address",
          "name": "newManager",
          "type": "address"
        }
      ],
      "name": "addTrustedAddress",
      "outputs": [],
      "stateMutability": "nonpayable",
      "type": "function"
    },
    {
      "inputs": [],
      "name": "testCD",
      "outputs": [
        {
          "internalType": "string",
          "name": "",
          "type": "string"
        }
      ],
      "stateMutability": "pure",
      "type": "function"
    },
    {
      "inputs": [
        {
          "internalType": "uint256",
          "name": "termId",
          "type": "uint256"
        }
      ],
      "name": "testInsufficientBalance",
      "outputs": [],
      "stateMutability": "nonpayable",
      "type": "function"
    },
    {
      "inputs": [],
      "name": "withdrawTestEth",
      "outputs": [],
      "stateMutability": "nonpayable",
      "type": "function"
    }
  ],
  "args": [],
  "numDeployments": 8,
  "solcInputHash": "337d17b1bdb88d71418f007482ea94ca",
  "bytecode": "0x608060405234801561001057600080fd5b50610617806100206000396000f3fe608060405234801561001057600080fd5b506004361061004c5760003560e01c80633c24822c14610051578063be02bd5b1461008a578063c6f324f71461009f578063fe621505146100a7575b600080fd5b604080518082018252600e81526d54657374204344205b64656d6f5d60901b6020820152905161008191906104f9565b60405180910390f35b61009d610098366004610547565b6100ba565b005b61009d61023e565b61009d6100b5366004610560565b61030f565b6100c261032f565b336100cc816103b8565b5060007f6751f7e27cecf86d7136f5749c224248cae80a39fafb59f8f6bf12c52816307c60008481526020919091526040808220805491516370a0823160e01b8152306004820152909350620100009091046001600160a01b0316906370a0823190602401602060405180830381865afa15801561014e573d6000803e3d6000fd5b505050506040513d601f19601f820116820180604052508101906101729190610590565b825460405163a9059cbb60e01b815233600482015260248101839052919250600091620100009091046001600160a01b03169063a9059cbb906044016020604051808303816000875af11580156101cd573d6000803e3d6000fd5b505050506040513d601f19601f820116820180604052508101906101f191906105a9565b9050806102375760405162461bcd60e51b815260206004820152600f60248201526e151c985b9cd9995c8819985a5b1959608a1b60448201526064015b60405180910390fd5b5050505050565b61024661032f565b33610250816103b8565b506040514790600090339083908381818185875af1925050503d8060008114610295576040519150601f19603f3d011682016040523d82523d6000602084013e61029a565b606091505b50509050806102dd5760405162461bcd60e51b815260206004820152600f60248201526e15da5d1a191c985dc819985a5b1959608a1b604482015260640161022e565b604051339083907f3dacea426b49f4fd83b0402751e05a063171fd1d13decb101e329b18b59ad39b90600090a3505050565b61031761032f565b33610321816103b8565b5061032b82610440565b5050565b7fc8fcad8db84d3cc18b4c41d551ea0ee66dd599cde068d998e57d5e09332c131c600401546001600160a01b031633146103b65760405162461bcd60e51b815260206004820152602260248201527f4c69624469616d6f6e643a204d75737420626520636f6e7472616374206f776e60448201526132b960f11b606482015260840161022e565b565b7f4efa3dfb8278a6c13676dce2b971b4769b8326f4544abbc9c2a7223e05d7b9c1805460009190825b8181101561043557846001600160a01b0316836000018281548110610408576104086105cb565b6000918252602090912001546001600160a01b03160361042d57506001949350505050565b6001016103e1565b506000949350505050565b6001600160a01b0381166104885760405162461bcd60e51b815260206004820152600f60248201526e496e76616c6964206164647265737360881b604482015260640161022e565b7f4efa3dfb8278a6c13676dce2b971b4769b8326f4544abbc9c2a7223e05d7b9c180546001810182556000919091527f32fe72c073e511a3396253bbc1c888f0e5dd0082c29c33ce53ca95608d675af20180546001600160a01b0319166001600160a01b0392909216919091179055565b600060208083528351808285015260005b818110156105265785810183015185820160400152820161050a565b506000604082860101526040601f19601f8301168501019250505092915050565b60006020828403121561055957600080fd5b5035919050565b60006020828403121561057257600080fd5b81356001600160a01b038116811461058957600080fd5b9392505050565b6000602082840312156105a257600080fd5b5051919050565b6000602082840312156105bb57600080fd5b8151801515811461058957600080fd5b634e487b7160e01b600052603260045260246000fdfea26469706673582212208b1d4889868979cb2447de910c888ebafede165100729d5d39d4abc27f3f19eb64736f6c63430008120033",
  "devdoc": {
    "kind": "dev",
    "methods": {},
    "version": 1
  },
  "userdoc": {
    "kind": "user",
    "methods": {},
    "version": 1
  },
  "storageLayout": {
    "storage": [],
    "types": null
  }
}