{
  "address": "0x23B423EF6de644666835B76057A8BA39bf647A0D",
  "abi": [
    {
      "anonymous": false,
      "inputs": [
        {
          "indexed": true,
          "internalType": "uint256",
          "name": "termId",
          "type": "uint256"
        },
        {
          "indexed": true,
          "internalType": "address",
          "name": "user",
          "type": "address"
        },
        {
          "indexed": true,
          "internalType": "bool",
          "name": "optedIn",
          "type": "bool"
        }
      ],
      "name": "OnYGOptInToggled",
      "type": "event"
    },
    {
      "anonymous": false,
      "inputs": [
        {
          "indexed": true,
          "internalType": "uint256",
          "name": "termId",
          "type": "uint256"
        },
        {
          "indexed": true,
          "internalType": "address",
          "name": "user",
          "type": "address"
        },
        {
          "indexed": true,
          "internalType": "uint256",
          "name": "amount",
          "type": "uint256"
        }
      ],
      "name": "OnYieldClaimed",
      "type": "event"
    },
    {
      "inputs": [
        {
          "internalType": "uint256",
          "name": "termId",
          "type": "uint256"
        }
      ],
      "name": "claimAvailableYield",
      "outputs": [],
      "stateMutability": "nonpayable",
      "type": "function"
    },
    {
      "inputs": [
        {
          "internalType": "uint256",
          "name": "termId",
          "type": "uint256"
        },
        {
          "internalType": "address",
          "name": "user",
          "type": "address"
        }
      ],
      "name": "claimAvailableYield",
      "outputs": [],
      "stateMutability": "nonpayable",
      "type": "function"
    },
    {
      "inputs": [
        {
          "internalType": "uint256",
          "name": "termId",
          "type": "uint256"
        }
      ],
      "name": "toggleOptInYG",
      "outputs": [],
      "stateMutability": "nonpayable",
      "type": "function"
    },
    {
      "inputs": [],
      "name": "toggleYieldLock",
      "outputs": [
        {
          "internalType": "bool",
          "name": "",
          "type": "bool"
        }
      ],
      "stateMutability": "nonpayable",
      "type": "function"
    },
    {
      "inputs": [
        {
          "internalType": "uint256",
          "name": "termId",
          "type": "uint256"
        },
        {
          "internalType": "string",
          "name": "providerString",
          "type": "string"
        },
        {
          "internalType": "address",
          "name": "providerAddress",
          "type": "address"
        }
      ],
      "name": "updateProviderAddressOnTerms",
      "outputs": [],
      "stateMutability": "nonpayable",
      "type": "function"
    },
    {
      "inputs": [
        {
          "internalType": "string",
          "name": "providerString",
          "type": "string"
        },
        {
          "internalType": "address",
          "name": "providerAddress",
          "type": "address"
        }
      ],
      "name": "updateYieldProvider",
      "outputs": [],
      "stateMutability": "nonpayable",
      "type": "function"
    }
  ],
  "transactionHash": "0x06033d2b3cc3a4857fba60d4c9ccb509c5b3cde2f16b9092e7527aa815d5dcf3",
  "args": [],
  "numDeployments": 2,
  "solcInputHash": "907f1b463807f93c2b418c11483c44ed",
  "bytecode": "0x608060405234801561001057600080fd5b506108dd806100206000396000f3fe608060405234801561001057600080fd5b50600436106100625760003560e01c806327ff9f35146100675780636ccd44911461007c57806383da1d761461008f578063c8eeb578146100a2578063efbb9761146100be578063f6a40d2a146100d1575b600080fd5b61007a6100753660046106c2565b6100e4565b005b61007a61008a3660046106c2565b610275565b61007a61009d36600461079a565b610282565b6100aa6102f2565b604051901515815260200160405180910390f35b61007a6100cc3660046107e8565b610335565b61007a6100df36600461083f565b6104f2565b60008181527f29d9cba46c358ba7c1b8945751229339792c7c62e3197c240fa98916e75ffbf9602090815260408083207f35fa70a6f9ae8a4d427ebe0c1be62ffd2870fecc1df41c6fda0bf5803e5628889092528220805491929091610100900460ff16600381111561015957610159610862565b146101ab5760405162461bcd60e51b815260206004820152601c60248201527f546f6f206c61746520746f206368616e6765205947206f707420696e0000000060448201526064015b60405180910390fd5b33600090815260048201602052604090205460ff1661021e5760405162461bcd60e51b815260206004820152602960248201527f5061792074686520636f6c6c61746572616c207365637572697479206465706f6044820152681cda5d08199a5c9cdd60ba1b60648201526084016101a2565b336000818152600784016020526040808220805460ff81161560ff199091168117909155905190928392909187917f9c0d71d8ccd3ac3b8b8463f9dff1237a9e545a61f6e803ee0948ff02c7cef56691a450505050565b61027f8133610500565b50565b61028a610639565b6040517ff27a5986330dc78d016d8604ee1a040d5a789fbaa2d0c27f5dfded4b616b897790829082906102be908690610878565b90815260405190819003602001902080546001600160a01b03929092166001600160a01b0319909216919091179055505050565b60006102fc610639565b507f7c039906f7f8ca11e01b6987a88513563589699678f7d2a6c8447f44d69375f3805460ff19811660ff918216159081179092551690565b61033d610639565b60008381527f29d9cba46c358ba7c1b8945751229339792c7c62e3197c240fa98916e75ffbf9602090815260408083207f6751f7e27cecf86d7136f5749c224248cae80a39fafb59f8f6bf12c52816307c9092529091205460ff166103da5760405162461bcd60e51b8152602060048201526013602482015272119d5b9908191bd95cc81b9bdd08195e1a5cdd606a1b60448201526064016101a2565b6001600160a01b0382166104305760405162461bcd60e51b815260206004820152601860248201527f496e76616c69642070726f76696465722061646472657373000000000000000060448201526064016101a2565b816001600160a01b0316816001018460405161044c9190610878565b908152604051908190036020019020546001600160a01b0316036104aa5760405162461bcd60e51b815260206004820152601560248201527453616d652070726f7669646572206164647265737360581b60448201526064016101a2565b8181600101846040516104bd9190610878565b90815260405190819003602001902080546001600160a01b03929092166001600160a01b031990921691909117905550505050565b6104fc8282610500565b5050565b60008281527f29d9cba46c358ba7c1b8945751229339792c7c62e3197c240fa98916e75ffbf9602090815260408083206001600160a01b0385168452600a8101909252909120548061058b5760405162461bcd60e51b81526020600482015260146024820152734e6f207969656c6420746f20776974686472617760601b60448201526064016101a2565b6001600160a01b0383166000818152600a840160205260408082208290555190919083908381818185875af1925050503d80600081146105e7576040519150601f19603f3d011682016040523d82523d6000602084013e6105ec565b606091505b50509050806105fa57600080fd5b81846001600160a01b0316867f16879e095f1873a73d2185173cd45cb091d945760ca20e5b7c280a4e60cd00f060405160405180910390a45050505050565b7fc8fcad8db84d3cc18b4c41d551ea0ee66dd599cde068d998e57d5e09332c131c600401546001600160a01b031633146106c05760405162461bcd60e51b815260206004820152602260248201527f4c69624469616d6f6e643a204d75737420626520636f6e7472616374206f776e60448201526132b960f11b60648201526084016101a2565b565b6000602082840312156106d457600080fd5b5035919050565b634e487b7160e01b600052604160045260246000fd5b600082601f83011261070257600080fd5b813567ffffffffffffffff8082111561071d5761071d6106db565b604051601f8301601f19908116603f01168101908282118183101715610745576107456106db565b8160405283815286602085880101111561075e57600080fd5b836020870160208301376000602085830101528094505050505092915050565b80356001600160a01b038116811461079557600080fd5b919050565b600080604083850312156107ad57600080fd5b823567ffffffffffffffff8111156107c457600080fd5b6107d0858286016106f1565b9250506107df6020840161077e565b90509250929050565b6000806000606084860312156107fd57600080fd5b83359250602084013567ffffffffffffffff81111561081b57600080fd5b610827868287016106f1565b9250506108366040850161077e565b90509250925092565b6000806040838503121561085257600080fd5b823591506107df6020840161077e565b634e487b7160e01b600052602160045260246000fd5b6000825160005b81811015610899576020818601810151858301520161087f565b50600092019182525091905056fea2646970667358221220a89d6107e483341cbf1eaf1101bc956a0e6c656ac063c1b58ad1a2a84fd7825b64736f6c63430008120033",
  "devdoc": {
    "kind": "dev",
    "methods": {
      "claimAvailableYield(uint256)": {
        "params": {
          "termId": "The term id for which the yield is being claimed"
        }
      },
      "claimAvailableYield(uint256,address)": {
        "params": {
          "termId": "The term id for which the yield is being claimed",
          "user": "The user address that is claiming the yield"
        }
      },
      "toggleOptInYG(uint256)": {
        "details": "only allowed before the term starts",
        "params": {
          "termId": "The term id for which the yield is being claimed"
        }
      },
      "updateProviderAddressOnTerms(uint256,string,address)": {
        "params": {
          "providerAddress": "The new address of the provider",
          "providerString": "The provider string for which the address is being updated",
          "termId": "The term id for which the yield is being claimed"
        }
      },
      "updateYieldProvider(string,address)": {
        "params": {
          "providerAddress": "The new address of the provider",
          "providerString": "The provider string for which the address is being updated"
        }
      }
    },
    "version": 1
  },
  "userdoc": {
    "kind": "user",
    "methods": {
      "claimAvailableYield(uint256)": {
        "notice": "This function allows a user to claim the current available yield"
      },
      "claimAvailableYield(uint256,address)": {
        "notice": "This function allows a user to claim the current available yield"
      },
      "toggleOptInYG(uint256)": {
        "notice": "This function allows a user to toggle their yield generation"
      },
      "toggleYieldLock()": {
        "notice": "This function allows the owner to disable the yield generation feature in case of emergency"
      },
      "updateProviderAddressOnTerms(uint256,string,address)": {
        "notice": "To be used in case of emergency, when the provider needs to change the zap or the vault"
      },
      "updateYieldProvider(string,address)": {
        "notice": "This function allows the owner to update the global variable for new yield provider"
      }
    },
    "version": 1
  },
  "storageLayout": {
    "storage": [],
    "types": null
  }
}