{
  "address": "0xb382Db307dAa7aa536864e28578D6A75ecB6967b",
  "abi": [
    {
      "inputs": [
        {
          "internalType": "address",
          "name": "_want",
          "type": "address"
        },
        {
          "internalType": "address",
          "name": "_wantUnderlyingToken",
          "type": "address"
        },
        {
          "internalType": "uint256",
          "name": "_poolId",
          "type": "uint256"
        },
        {
          "internalType": "address",
          "name": "_vault",
          "type": "address"
        },
        {
          "internalType": "address",
          "name": "_unirouter",
          "type": "address"
        },
        {
          "internalType": "address",
          "name": "_manager",
          "type": "address"
        },
        {
          "internalType": "address",
          "name": "_strategist",
          "type": "address"
        },
        {
          "internalType": "address",
          "name": "_zaynFeeRecipient",
          "type": "address"
        },
        {
          "internalType": "contract IWombatRouter",
          "name": "_wombatRouter",
          "type": "address"
        },
        {
          "internalType": "address",
          "name": "_weth",
          "type": "address"
        }
      ],
      "stateMutability": "nonpayable",
      "type": "constructor"
    },
    {
      "anonymous": false,
      "inputs": [
        {
          "indexed": false,
          "internalType": "uint256",
          "name": "amount",
          "type": "uint256"
        }
      ],
      "name": "AddedLiquidity",
      "type": "event"
    },
    {
      "anonymous": false,
      "inputs": [
        {
          "indexed": false,
          "internalType": "uint256",
          "name": "revShareFees",
          "type": "uint256"
        },
        {
          "indexed": false,
          "internalType": "uint256",
          "name": "zaynFees",
          "type": "uint256"
        }
      ],
      "name": "ChargedFees",
      "type": "event"
    },
    {
      "anonymous": false,
      "inputs": [
        {
          "indexed": false,
          "internalType": "uint256",
          "name": "tvl",
          "type": "uint256"
        }
      ],
      "name": "Deposit",
      "type": "event"
    },
    {
      "anonymous": false,
      "inputs": [
        {
          "indexed": false,
          "internalType": "uint256",
          "name": "zaynFees",
          "type": "uint256"
        }
      ],
      "name": "ManagementFees",
      "type": "event"
    },
    {
      "anonymous": false,
      "inputs": [],
      "name": "Migrated",
      "type": "event"
    },
    {
      "anonymous": false,
      "inputs": [
        {
          "indexed": true,
          "internalType": "address",
          "name": "previousOwner",
          "type": "address"
        },
        {
          "indexed": true,
          "internalType": "address",
          "name": "newOwner",
          "type": "address"
        }
      ],
      "name": "OwnershipTransferred",
      "type": "event"
    },
    {
      "anonymous": false,
      "inputs": [
        {
          "indexed": false,
          "internalType": "address",
          "name": "account",
          "type": "address"
        }
      ],
      "name": "Paused",
      "type": "event"
    },
    {
      "anonymous": false,
      "inputs": [
        {
          "indexed": true,
          "internalType": "address",
          "name": "harvester",
          "type": "address"
        }
      ],
      "name": "StratHarvest",
      "type": "event"
    },
    {
      "anonymous": false,
      "inputs": [
        {
          "indexed": false,
          "internalType": "address",
          "name": "account",
          "type": "address"
        }
      ],
      "name": "Unpaused",
      "type": "event"
    },
    {
      "anonymous": false,
      "inputs": [
        {
          "indexed": false,
          "internalType": "uint256",
          "name": "tvl",
          "type": "uint256"
        }
      ],
      "name": "Withdraw",
      "type": "event"
    },
    {
      "inputs": [],
      "name": "FEE_DIVISOR",
      "outputs": [
        {
          "internalType": "uint256",
          "name": "",
          "type": "uint256"
        }
      ],
      "stateMutability": "view",
      "type": "function"
    },
    {
      "inputs": [],
      "name": "MAX_FEE",
      "outputs": [
        {
          "internalType": "uint256",
          "name": "",
          "type": "uint256"
        }
      ],
      "stateMutability": "view",
      "type": "function"
    },
    {
      "inputs": [],
      "name": "WETH",
      "outputs": [
        {
          "internalType": "address",
          "name": "",
          "type": "address"
        }
      ],
      "stateMutability": "view",
      "type": "function"
    },
    {
      "inputs": [],
      "name": "WOMBAT_ROUTER",
      "outputs": [
        {
          "internalType": "contract IWombatRouter",
          "name": "",
          "type": "address"
        }
      ],
      "stateMutability": "view",
      "type": "function"
    },
    {
      "inputs": [
        {
          "internalType": "address",
          "name": "_router",
          "type": "address"
        },
        {
          "internalType": "address[]",
          "name": "_rewardToUnderlyingRoute",
          "type": "address[]"
        },
        {
          "internalType": "uint256",
          "name": "_minAmount",
          "type": "uint256"
        }
      ],
      "name": "addRewardV2",
      "outputs": [],
      "stateMutability": "nonpayable",
      "type": "function"
    },
    {
      "inputs": [],
      "name": "balanceOf",
      "outputs": [
        {
          "internalType": "uint256",
          "name": "",
          "type": "uint256"
        }
      ],
      "stateMutability": "view",
      "type": "function"
    },
    {
      "inputs": [],
      "name": "balanceOfPool",
      "outputs": [
        {
          "internalType": "uint256",
          "name": "",
          "type": "uint256"
        }
      ],
      "stateMutability": "pure",
      "type": "function"
    },
    {
      "inputs": [],
      "name": "balanceOfWant",
      "outputs": [
        {
          "internalType": "uint256",
          "name": "",
          "type": "uint256"
        }
      ],
      "stateMutability": "view",
      "type": "function"
    },
    {
      "inputs": [],
      "name": "beforeDeposit",
      "outputs": [],
      "stateMutability": "nonpayable",
      "type": "function"
    },
    {
      "inputs": [],
      "name": "chargeManagementFees",
      "outputs": [],
      "stateMutability": "nonpayable",
      "type": "function"
    },
    {
      "inputs": [],
      "name": "chargePerDay",
      "outputs": [
        {
          "internalType": "uint256",
          "name": "",
          "type": "uint256"
        }
      ],
      "stateMutability": "view",
      "type": "function"
    },
    {
      "inputs": [],
      "name": "deposit",
      "outputs": [],
      "stateMutability": "nonpayable",
      "type": "function"
    },
    {
      "inputs": [],
      "name": "disableRevShare",
      "outputs": [],
      "stateMutability": "nonpayable",
      "type": "function"
    },
    {
      "inputs": [
        {
          "internalType": "contract IZaynReferrerV2",
          "name": "_referrer",
          "type": "address"
        }
      ],
      "name": "enableRevShare",
      "outputs": [],
      "stateMutability": "nonpayable",
      "type": "function"
    },
    {
      "inputs": [],
      "name": "harvest",
      "outputs": [],
      "stateMutability": "nonpayable",
      "type": "function"
    },
    {
      "inputs": [],
      "name": "lastFeeCharge",
      "outputs": [
        {
          "internalType": "uint256",
          "name": "",
          "type": "uint256"
        }
      ],
      "stateMutability": "view",
      "type": "function"
    },
    {
      "inputs": [],
      "name": "manager",
      "outputs": [
        {
          "internalType": "address",
          "name": "",
          "type": "address"
        }
      ],
      "stateMutability": "view",
      "type": "function"
    },
    {
      "inputs": [],
      "name": "mgmtFeeDelay",
      "outputs": [
        {
          "internalType": "uint256",
          "name": "",
          "type": "uint256"
        }
      ],
      "stateMutability": "view",
      "type": "function"
    },
    {
      "inputs": [],
      "name": "migrate",
      "outputs": [],
      "stateMutability": "nonpayable",
      "type": "function"
    },
    {
      "inputs": [],
      "name": "owner",
      "outputs": [
        {
          "internalType": "address",
          "name": "",
          "type": "address"
        }
      ],
      "stateMutability": "view",
      "type": "function"
    },
    {
      "inputs": [],
      "name": "panic",
      "outputs": [],
      "stateMutability": "nonpayable",
      "type": "function"
    },
    {
      "inputs": [],
      "name": "pause",
      "outputs": [],
      "stateMutability": "nonpayable",
      "type": "function"
    },
    {
      "inputs": [],
      "name": "paused",
      "outputs": [
        {
          "internalType": "bool",
          "name": "",
          "type": "bool"
        }
      ],
      "stateMutability": "view",
      "type": "function"
    },
    {
      "inputs": [],
      "name": "poolId",
      "outputs": [
        {
          "internalType": "uint256",
          "name": "",
          "type": "uint256"
        }
      ],
      "stateMutability": "view",
      "type": "function"
    },
    {
      "inputs": [],
      "name": "renounceOwnership",
      "outputs": [],
      "stateMutability": "nonpayable",
      "type": "function"
    },
    {
      "inputs": [],
      "name": "resetRewardsV2",
      "outputs": [],
      "stateMutability": "nonpayable",
      "type": "function"
    },
    {
      "inputs": [],
      "name": "retireStrat",
      "outputs": [],
      "stateMutability": "nonpayable",
      "type": "function"
    },
    {
      "inputs": [],
      "name": "revShareEnabled",
      "outputs": [
        {
          "internalType": "bool",
          "name": "",
          "type": "bool"
        }
      ],
      "stateMutability": "view",
      "type": "function"
    },
    {
      "inputs": [],
      "name": "revShareFees",
      "outputs": [
        {
          "internalType": "uint256",
          "name": "",
          "type": "uint256"
        }
      ],
      "stateMutability": "view",
      "type": "function"
    },
    {
      "inputs": [],
      "name": "revShareToken",
      "outputs": [
        {
          "internalType": "address",
          "name": "",
          "type": "address"
        }
      ],
      "stateMutability": "view",
      "type": "function"
    },
    {
      "inputs": [
        {
          "internalType": "uint256",
          "name": "",
          "type": "uint256"
        }
      ],
      "name": "rewards",
      "outputs": [
        {
          "internalType": "address",
          "name": "token",
          "type": "address"
        },
        {
          "internalType": "address",
          "name": "router",
          "type": "address"
        },
        {
          "internalType": "uint256",
          "name": "minAmount",
          "type": "uint256"
        }
      ],
      "stateMutability": "view",
      "type": "function"
    },
    {
      "inputs": [
        {
          "internalType": "uint256",
          "name": "_perDay",
          "type": "uint256"
        }
      ],
      "name": "setChargePerDay",
      "outputs": [],
      "stateMutability": "nonpayable",
      "type": "function"
    },
    {
      "inputs": [
        {
          "internalType": "address",
          "name": "_manager",
          "type": "address"
        }
      ],
      "name": "setManager",
      "outputs": [],
      "stateMutability": "nonpayable",
      "type": "function"
    },
    {
      "inputs": [
        {
          "internalType": "uint256",
          "name": "_seconds",
          "type": "uint256"
        }
      ],
      "name": "setMgmtFeeDelay",
      "outputs": [],
      "stateMutability": "nonpayable",
      "type": "function"
    },
    {
      "inputs": [
        {
          "internalType": "uint256",
          "name": "_revShareFees",
          "type": "uint256"
        }
      ],
      "name": "setRevShareFees",
      "outputs": [],
      "stateMutability": "nonpayable",
      "type": "function"
    },
    {
      "inputs": [
        {
          "internalType": "address",
          "name": "_strategist",
          "type": "address"
        }
      ],
      "name": "setStrategist",
      "outputs": [],
      "stateMutability": "nonpayable",
      "type": "function"
    },
    {
      "inputs": [
        {
          "internalType": "address",
          "name": "_unirouter",
          "type": "address"
        }
      ],
      "name": "setUnirouter",
      "outputs": [],
      "stateMutability": "nonpayable",
      "type": "function"
    },
    {
      "inputs": [
        {
          "internalType": "address",
          "name": "_vault",
          "type": "address"
        }
      ],
      "name": "setVault",
      "outputs": [],
      "stateMutability": "nonpayable",
      "type": "function"
    },
    {
      "inputs": [
        {
          "internalType": "uint256",
          "name": "_fee",
          "type": "uint256"
        }
      ],
      "name": "setZaynFee",
      "outputs": [],
      "stateMutability": "nonpayable",
      "type": "function"
    },
    {
      "inputs": [
        {
          "internalType": "address",
          "name": "_zaynFeeRecipient",
          "type": "address"
        }
      ],
      "name": "setZaynFeeRecipient",
      "outputs": [],
      "stateMutability": "nonpayable",
      "type": "function"
    },
    {
      "inputs": [],
      "name": "strategist",
      "outputs": [
        {
          "internalType": "address",
          "name": "",
          "type": "address"
        }
      ],
      "stateMutability": "view",
      "type": "function"
    },
    {
      "inputs": [
        {
          "internalType": "address",
          "name": "newOwner",
          "type": "address"
        }
      ],
      "name": "transferOwnership",
      "outputs": [],
      "stateMutability": "nonpayable",
      "type": "function"
    },
    {
      "inputs": [],
      "name": "unirouter",
      "outputs": [
        {
          "internalType": "address",
          "name": "",
          "type": "address"
        }
      ],
      "stateMutability": "view",
      "type": "function"
    },
    {
      "inputs": [],
      "name": "unpause",
      "outputs": [],
      "stateMutability": "nonpayable",
      "type": "function"
    },
    {
      "inputs": [
        {
          "internalType": "address",
          "name": "_booster",
          "type": "address"
        }
      ],
      "name": "updateBooster",
      "outputs": [],
      "stateMutability": "nonpayable",
      "type": "function"
    },
    {
      "inputs": [],
      "name": "vault",
      "outputs": [
        {
          "internalType": "address",
          "name": "",
          "type": "address"
        }
      ],
      "stateMutability": "view",
      "type": "function"
    },
    {
      "inputs": [],
      "name": "want",
      "outputs": [
        {
          "internalType": "address",
          "name": "",
          "type": "address"
        }
      ],
      "stateMutability": "view",
      "type": "function"
    },
    {
      "inputs": [],
      "name": "wantUnderlyingToken",
      "outputs": [
        {
          "internalType": "address",
          "name": "",
          "type": "address"
        }
      ],
      "stateMutability": "view",
      "type": "function"
    },
    {
      "inputs": [
        {
          "internalType": "uint256",
          "name": "_amount",
          "type": "uint256"
        }
      ],
      "name": "withdraw",
      "outputs": [],
      "stateMutability": "nonpayable",
      "type": "function"
    },
    {
      "inputs": [],
      "name": "zaynFee",
      "outputs": [
        {
          "internalType": "uint256",
          "name": "",
          "type": "uint256"
        }
      ],
      "stateMutability": "view",
      "type": "function"
    },
    {
      "inputs": [],
      "name": "zaynFeeRecipient",
      "outputs": [
        {
          "internalType": "address",
          "name": "",
          "type": "address"
        }
      ],
      "stateMutability": "view",
      "type": "function"
    },
    {
      "inputs": [],
      "name": "zaynReferrer",
      "outputs": [
        {
          "internalType": "contract IZaynReferrerV2",
          "name": "",
          "type": "address"
        }
      ],
      "stateMutability": "view",
      "type": "function"
    }
  ],
  "transactionHash": "0x6ba3571f7600f125ae0deffa8b8b6d6d474ea44bc3821d54c55c33d0ebdd6b69",
  "args": [
    "0x0b9f2C8d7FD305D1C7FE8eb132865d1252F42D37",
    "0x0b9f2C8d7FD305D1C7FE8eb132865d1252F42D37",
    15,
    "0x0000000000000000000000000000000000000000",
    "0x0000000000000000000000000000000000000000",
    "0x3904F59DF9199e0d6dC3800af9f6794c9D037eb1",
    "0x3904F59DF9199e0d6dC3800af9f6794c9D037eb1",
    "0x3904F59DF9199e0d6dC3800af9f6794c9D037eb1",
    "0x0000000000000000000000000000000000000000",
    "0x0b9f2C8d7FD305D1C7FE8eb132865d1252F42D37"
  ],
  "numDeployments": 1,
  "solcInputHash": "8a133ef428f5746b5a2c4256d3a41d4c",
  "bytecode": "0x608060405260c860065561a8c06007556531d5d7e676006008556032600955600f805460ff191690553480156200003557600080fd5b5060405162001ab538038062001ab5833981016040819052620000589162000192565b8484878986620000683362000129565b6000805460ff60a01b19169055600180546001600160a01b03199081166001600160a01b03978816179091556002805482169587169590951790945560038054851693861693909317909255600480548416918516919091179055600580548316918416919091179055600a805482169c83169c909c17909b55600b80548c169a82169a909a17909955600c9790975542600e55601080548a1691891691909117905550506011805490961693909416929092179093555062000274915050565b600080546001600160a01b038381166001600160a01b0319831681178455604051919092169283917f8be0079c531659141344cd1fd0a4f28419497f9722a3daafe3b4186f6b6457e09190a35050565b6001600160a01b03811681146200018f57600080fd5b50565b6000806000806000806000806000806101408b8d031215620001b357600080fd5b8a51620001c08162000179565b60208c0151909a50620001d38162000179565b60408c015160608d0151919a509850620001ed8162000179565b60808c0151909750620002008162000179565b60a08c0151909650620002138162000179565b60c08c0151909550620002268162000179565b60e08c0151909450620002398162000179565b6101008c01519093506200024d8162000179565b6101208c0151909250620002618162000179565b809150509295989b9194979a5092959850565b61183180620002846000396000f3fe608060405234801561001057600080fd5b506004361061030c5760003560e01c80638456cb591161019d578063c7b9d530116100e9578063e2eafe67116100a2578063f301af421161007c578063f301af42146105e1578063fb6177871461061a578063fbfa77cf14610622578063fe81e6ca1461063557600080fd5b8063e2eafe67146105b3578063f162f395146105bb578063f2fde38b146105ce57600080fd5b8063c7b9d53014610557578063d0e30db01461056a578063d0ebdbe714610572578063d92f3d7314610585578063da1c755014610598578063dce4f84f146105ab57600080fd5b8063a801158e11610156578063b61761bb11610130578063b61761bb1461052b578063b7fda72314610533578063bc063e1a14610546578063c1a3d44c1461054f57600080fd5b8063a801158e146104f2578063ace274ea14610505578063ad5c46481461051857600080fd5b80638456cb59146104a85780638da5cb5b146104b05780638fd3ab80146104c15780639d7e680c146104c95780639e93ad8e146104dc578063a0383885146104e557600080fd5b80633f4ba83a1161025c57806364c9752f11610215578063715018a6116101ef578063715018a614610486578063722713f71461048e57806376120890146104965780637d6496b41461049f57600080fd5b806364c9752f146104595780636571a2ee1461046a5780636817031b1461047357600080fd5b80633f4ba83a146104105780634641257d146104185780634700d30514610420578063481c6a7514610428578063573fef0a146103475780635c975abb1461043b57600080fd5b806320b9f331116102c95780633a8d72de116102a35780633a8d72de146103d35780633aa14a5e146103e65780633da7463f146103fe5780633e0dc34e1461040757600080fd5b806320b9f3311461039a578063257ae0de146103ad5780632e1a7d4d146103c057600080fd5b8063047de88714610311578063115880861461032d57806312e0e33f14610334578063194b8f59146103495780631f1fcd511461035c5780631fe4a68614610387575b600080fd5b61031a60075481565b6040519081526020015b60405180910390f35b600061031a565b6103476103423660046115b6565b610648565b005b6103476103573660046115b6565b6106d0565b600a5461036f906001600160a01b031681565b6040516001600160a01b039091168152602001610324565b60025461036f906001600160a01b031681565b6103476103a83660046115b6565b610714565b60035461036f906001600160a01b031681565b6103476103ce3660046115b6565b610758565b6103476103e13660046115b6565b6108c7565b600f5461036f9061010090046001600160a01b031681565b61031a600e5481565b61031a600c5481565b61034761090b565b61034761095c565b610347610a01565b60015461036f906001600160a01b031681565b600054600160a01b900460ff165b6040519015158152602001610324565b600b546001600160a01b031661036f565b61031a60065481565b6103476104813660046115e4565b610a48565b610347610a72565b61031a610a84565b61031a60085481565b61031a60095481565b610347610a9d565b6000546001600160a01b031661036f565b610347610ae4565b60055461036f906001600160a01b031681565b61031a6103e881565b600f546104499060ff1681565b610347610500366004611608565b610b39565b6103476105133660046115e4565b610b47565b60115461036f906001600160a01b031681565b610347610b71565b6103476105413660046115e4565b610b85565b61031a61138881565b61031a610bb7565b6103476105653660046115e4565b610c24565b610347610c8e565b6103476105803660046115e4565b610d42565b6103476105933660046115e4565b610da3565b6103476105a63660046115e4565b610dcd565b610347610dd5565b610347610e20565b600b5461036f906001600160a01b031681565b6103476105dc3660046115e4565b610ef4565b6105f46105ef3660046115b6565b610f6a565b604080516001600160a01b03948516815293909216602084015290820152606001610324565b610347610faa565b60045461036f906001600160a01b031681565b60105461036f906001600160a01b031681565b6000546001600160a01b031633148061066b57506001546001600160a01b031633145b6106905760405162461bcd60e51b815260040161068790611696565b60405180910390fd5b6113888111156106cb5760405162461bcd60e51b8152600401610687906020808252600490820152630216361760e41b604082015260600190565b600655565b6000546001600160a01b03163314806106f357506001546001600160a01b031633145b61070f5760405162461bcd60e51b815260040161068790611696565b600855565b6000546001600160a01b031633148061073757506001546001600160a01b031633145b6107535760405162461bcd60e51b815260040161068790611696565b600755565b6004546001600160a01b031633146107825760405162461bcd60e51b8152600401610687906116b8565b600a546040516370a0823160e01b81523060048201526000916001600160a01b0316906370a0823190602401602060405180830381865afa1580156107cb573d6000803e3d6000fd5b505050506040513d601f19601f820116820180604052508101906107ef91906116d8565b90508181101561086857600a546040516370a0823160e01b81523060048201526001600160a01b03909116906370a0823190602401602060405180830381865afa158015610841573d6000803e3d6000fd5b505050506040513d601f19601f8201168201806040525081019061086591906116d8565b90505b818111156108735750805b600454600a54610890916001600160a01b0391821691168361105d565b6040518181527f5b6b431d4476a211bb7d41c20d1aab9ae2321deee0d20be3d9fc9b1093fa6e3d9060200160405180910390a15050565b6000546001600160a01b03163314806108ea57506001546001600160a01b031633145b6109065760405162461bcd60e51b815260040161068790611696565b600955565b6000546001600160a01b031633148061092e57506001546001600160a01b031633145b61094a5760405162461bcd60e51b815260040161068790611696565b6109526110b4565b61095a610c8e565b565b610964611109565b600b546040516370a0823160e01b81523060048201526000916001600160a01b0316906370a0823190602401602060405180830381865afa1580156109ad573d6000803e3d6000fd5b505050506040513d601f19601f820116820180604052508101906109d191906116d8565b905060405133907f577a37fdb49a88d66684922c6f913df5239b4f214b2b97c53ef8e3bbb2034cb590600090a250565b6000546001600160a01b0316331480610a2457506001546001600160a01b031633145b610a405760405162461bcd60e51b815260040161068790611696565b61095a610a9d565b610a50611156565b600480546001600160a01b0319166001600160a01b0392909216919091179055565b610a7a611156565b61095a60006111b0565b6000610a9881610a92610bb7565b90611200565b905090565b6000546001600160a01b0316331480610ac057506001546001600160a01b031633145b610adc5760405162461bcd60e51b815260040161068790611696565b61095a611215565b6004546001600160a01b03163314610b0e5760405162461bcd60e51b8152600401610687906116b8565b6040517fe0551aa959c554328fc6360bc1cabcb750605f1513a7070d506eaed027066dbf90600090a1565b610b41611156565b50505050565b610b4f611156565b600580546001600160a01b0319166001600160a01b0392909216919091179055565b610b79611156565b600f805460ff19169055565b610b8d611156565b600f80546001600160a01b03909216610100026001600160a81b0319909216919091176001179055565b600a546040516370a0823160e01b81523060048201526000916001600160a01b0316906370a0823190602401602060405180830381865afa158015610c00573d6000803e3d6000fd5b505050506040513d601f19601f82011682018060405250810190610a9891906116d8565b6002546001600160a01b03163314610c6c5760405162461bcd60e51b815260206004820152600b60248201526a085cdd1c985d1959da5cdd60aa1b6044820152606401610687565b600280546001600160a01b0319166001600160a01b0392909216919091179055565b610c96611109565b600a546040516370a0823160e01b81523060048201526000916001600160a01b0316906370a0823190602401602060405180830381865afa158015610cdf573d6000803e3d6000fd5b505050506040513d601f19601f82011682018060405250810190610d0391906116d8565b90508015610d3f576040518181527f4d6ce1e535dbade1c23defba91e23b8f791ce5edc0cc320257a2b364e4e384269060200160405180910390a15b50565b6000546001600160a01b0316331480610d6557506001546001600160a01b031633145b610d815760405162461bcd60e51b815260040161068790611696565b600180546001600160a01b0319166001600160a01b0392909216919091179055565b610dab611156565b600380546001600160a01b0319166001600160a01b0392909216919091179055565b610d3f611156565b6000546001600160a01b0316331480610df857506001546001600160a01b031633145b610e145760405162461bcd60e51b815260040161068790611696565b61095a600d6000611525565b600754600e54610e2f91611200565b421061095a576000600e5442610e459190611707565b90506000610e6b82610e656201518060085461125890919063ffffffff16565b90611264565b90506000610e77610a84565b90506000610e97670de0b6b3a7640000610e918486611264565b90611258565b600554600a54919250610eb7916001600160a01b0390811691168361105d565b42600e556040518181527fd13b87345b53a68e0bbddcd2337ecb5b61f13a045e0a47f3e54464653107fb7a9060200160405180910390a150505050565b610efc611156565b6001600160a01b038116610f615760405162461bcd60e51b815260206004820152602660248201527f4f776e61626c653a206e6577206f776e657220697320746865207a65726f206160448201526564647265737360d01b6064820152608401610687565b610d3f816111b0565b600d8181548110610f7a57600080fd5b60009182526020909120600490910201805460018201546003909201546001600160a01b03918216935091169083565b6004546001600160a01b03163314610fd45760405162461bcd60e51b8152600401610687906116b8565b600a546040516370a0823160e01b81523060048201526000916001600160a01b0316906370a0823190602401602060405180830381865afa15801561101d573d6000803e3d6000fd5b505050506040513d601f19601f8201168201806040525081019061104191906116d8565b600454600a54919250610d3f916001600160a01b039081169116835b604080516001600160a01b038416602482015260448082018490528251808303909101815260649091019091526020810180516001600160e01b031663a9059cbb60e01b1790526110af908490611270565b505050565b6110bc611345565b6000805460ff60a01b191690557f5db9ee0a495bf2e6ff9c91a7834c1ba4fdd244a5e8aa4e537bd38aeae4b073aa335b6040516001600160a01b03909116815260200160405180910390a1565b600054600160a01b900460ff161561095a5760405162461bcd60e51b815260206004820152601060248201526f14185d5cd8589b194e881c185d5cd95960821b6044820152606401610687565b6000546001600160a01b0316331461095a5760405162461bcd60e51b815260206004820181905260248201527f4f776e61626c653a2063616c6c6572206973206e6f7420746865206f776e65726044820152606401610687565b600080546001600160a01b038381166001600160a01b0319831681178455604051919092169283917f8be0079c531659141344cd1fd0a4f28419497f9722a3daafe3b4186f6b6457e09190a35050565b600061120c828461171a565b90505b92915050565b61121d611109565b6000805460ff60a01b1916600160a01b1790557f62e78cea01bee320cd4e420270b5ea74000d11b0c9f74754ebdbfc544b05a2586110ec3390565b600061120c828461172d565b600061120c828461174f565b60006112c5826040518060400160405280602081526020017f5361666545524332303a206c6f772d6c6576656c2063616c6c206661696c6564815250856001600160a01b03166113959092919063ffffffff16565b90508051600014806112e65750808060200190518101906112e69190611766565b6110af5760405162461bcd60e51b815260206004820152602a60248201527f5361666545524332303a204552433230206f7065726174696f6e20646964206e6044820152691bdd081cdd58d8d9595960b21b6064820152608401610687565b600054600160a01b900460ff1661095a5760405162461bcd60e51b815260206004820152601460248201527314185d5cd8589b194e881b9bdd081c185d5cd95960621b6044820152606401610687565b60606113a484846000856113ac565b949350505050565b60608247101561140d5760405162461bcd60e51b815260206004820152602660248201527f416464726573733a20696e73756666696369656e742062616c616e636520666f6044820152651c8818d85b1b60d21b6064820152608401610687565b600080866001600160a01b0316858760405161142991906117ac565b60006040518083038185875af1925050503d8060008114611466576040519150601f19603f3d011682016040523d82523d6000602084013e61146b565b606091505b509150915061147c87838387611487565b979650505050505050565b606083156114f65782516000036114ef576001600160a01b0385163b6114ef5760405162461bcd60e51b815260206004820152601d60248201527f416464726573733a2063616c6c20746f206e6f6e2d636f6e74726163740000006044820152606401610687565b50816113a4565b6113a4838381511561150b5781518083602001fd5b8060405162461bcd60e51b815260040161068791906117c8565b5080546000825560040290600052602060002090810190610d3f91905b808211156115845780546001600160a01b03199081168255600182018054909116905560006115746002830182611588565b5060006003820155600401611542565b5090565b5080546000825590600052602060002090810190610d3f91905b8082111561158457600081556001016115a2565b6000602082840312156115c857600080fd5b5035919050565b6001600160a01b0381168114610d3f57600080fd5b6000602082840312156115f657600080fd5b8135611601816115cf565b9392505050565b6000806000806060858703121561161e57600080fd5b8435611629816115cf565b9350602085013567ffffffffffffffff8082111561164657600080fd5b818701915087601f83011261165a57600080fd5b81358181111561166957600080fd5b8860208260051b850101111561167e57600080fd5b95986020929092019750949560400135945092505050565b60208082526008908201526710b6b0b730b3b2b960c11b604082015260600190565b602080825260069082015265085d985d5b1d60d21b604082015260600190565b6000602082840312156116ea57600080fd5b5051919050565b634e487b7160e01b600052601160045260246000fd5b8181038181111561120f5761120f6116f1565b8082018082111561120f5761120f6116f1565b60008261174a57634e487b7160e01b600052601260045260246000fd5b500490565b808202811582820484141761120f5761120f6116f1565b60006020828403121561177857600080fd5b8151801515811461160157600080fd5b60005b838110156117a357818101518382015260200161178b565b50506000910152565b600082516117be818460208701611788565b9190910192915050565b60208152600082518060208401526117e7816040850160208701611788565b601f01601f1916919091016040019291505056fea2646970667358221220e89181938dbda58dc040f3b1bda3e0d316206a6511e86fbcfcc237fe06223b4464736f6c63430008120033",
  "devdoc": {
    "events": {
      "Paused(address)": {
        "details": "Emitted when the pause is triggered by `account`."
      },
      "Unpaused(address)": {
        "details": "Emitted when the pause is lifted by `account`."
      }
    },
    "kind": "dev",
    "methods": {
      "beforeDeposit()": {
        "details": "Function to synchronize balances before new user deposit. Can be overridden in the strategy."
      },
      "migrate()": {
        "details": "Function to synchronize different want tokens if strategy is changed in vault Can be overridden in the strategy."
      },
      "owner()": {
        "details": "Returns the address of the current owner."
      },
      "paused()": {
        "details": "Returns true if the contract is paused, and false otherwise."
      },
      "renounceOwnership()": {
        "details": "Leaves the contract without owner. It will not be possible to call `onlyOwner` functions. Can only be called by the current owner. NOTE: Renouncing ownership will leave the contract without an owner, thereby disabling any functionality that is only available to the owner."
      },
      "setStrategist(address)": {
        "details": "Updates address where strategist fee earnings will go.",
        "params": {
          "_strategist": "new strategist address."
        }
      },
      "setUnirouter(address)": {
        "details": "Updates router that will be used for swaps.",
        "params": {
          "_unirouter": "new unirouter address."
        }
      },
      "setVault(address)": {
        "details": "Updates parent vault.",
        "params": {
          "_vault": "new vault address."
        }
      },
      "setZaynFeeRecipient(address)": {
        "details": "Updates Zayn's fee recipient.",
        "params": {
          "_zaynFeeRecipient": "new Zayn's fee recipient address."
        }
      },
      "transferOwnership(address)": {
        "details": "Transfers ownership of the contract to a new account (`newOwner`). Can only be called by the current owner."
      }
    },
    "version": 1
  },
  "userdoc": {
    "kind": "user",
    "methods": {},
    "version": 1
  },
  "storageLayout": {
    "storage": [
      {
        "astId": 53,
        "contract": "contracts/mocks/zaynfi/protocol/StrategyV2Mock.sol:StrategyV2Mock",
        "label": "_owner",
        "offset": 0,
        "slot": "0",
        "type": "t_address"
      },
      {
        "astId": 176,
        "contract": "contracts/mocks/zaynfi/protocol/StrategyV2Mock.sol:StrategyV2Mock",
        "label": "_paused",
        "offset": 20,
        "slot": "0",
        "type": "t_bool"
      },
      {
        "astId": 13114,
        "contract": "contracts/mocks/zaynfi/protocol/StrategyV2Mock.sol:StrategyV2Mock",
        "label": "manager",
        "offset": 0,
        "slot": "1",
        "type": "t_address"
      },
      {
        "astId": 13116,
        "contract": "contracts/mocks/zaynfi/protocol/StrategyV2Mock.sol:StrategyV2Mock",
        "label": "strategist",
        "offset": 0,
        "slot": "2",
        "type": "t_address"
      },
      {
        "astId": 13118,
        "contract": "contracts/mocks/zaynfi/protocol/StrategyV2Mock.sol:StrategyV2Mock",
        "label": "unirouter",
        "offset": 0,
        "slot": "3",
        "type": "t_address"
      },
      {
        "astId": 13120,
        "contract": "contracts/mocks/zaynfi/protocol/StrategyV2Mock.sol:StrategyV2Mock",
        "label": "vault",
        "offset": 0,
        "slot": "4",
        "type": "t_address"
      },
      {
        "astId": 13122,
        "contract": "contracts/mocks/zaynfi/protocol/StrategyV2Mock.sol:StrategyV2Mock",
        "label": "zaynFeeRecipient",
        "offset": 0,
        "slot": "5",
        "type": "t_address"
      },
      {
        "astId": 13038,
        "contract": "contracts/mocks/zaynfi/protocol/StrategyV2Mock.sol:StrategyV2Mock",
        "label": "zaynFee",
        "offset": 0,
        "slot": "6",
        "type": "t_uint256"
      },
      {
        "astId": 13041,
        "contract": "contracts/mocks/zaynfi/protocol/StrategyV2Mock.sol:StrategyV2Mock",
        "label": "mgmtFeeDelay",
        "offset": 0,
        "slot": "7",
        "type": "t_uint256"
      },
      {
        "astId": 13044,
        "contract": "contracts/mocks/zaynfi/protocol/StrategyV2Mock.sol:StrategyV2Mock",
        "label": "chargePerDay",
        "offset": 0,
        "slot": "8",
        "type": "t_uint256"
      },
      {
        "astId": 13047,
        "contract": "contracts/mocks/zaynfi/protocol/StrategyV2Mock.sol:StrategyV2Mock",
        "label": "revShareFees",
        "offset": 0,
        "slot": "9",
        "type": "t_uint256"
      },
      {
        "astId": 13285,
        "contract": "contracts/mocks/zaynfi/protocol/StrategyV2Mock.sol:StrategyV2Mock",
        "label": "want",
        "offset": 0,
        "slot": "10",
        "type": "t_address"
      },
      {
        "astId": 13288,
        "contract": "contracts/mocks/zaynfi/protocol/StrategyV2Mock.sol:StrategyV2Mock",
        "label": "wantUnderlyingToken",
        "offset": 0,
        "slot": "11",
        "type": "t_address"
      },
      {
        "astId": 13290,
        "contract": "contracts/mocks/zaynfi/protocol/StrategyV2Mock.sol:StrategyV2Mock",
        "label": "poolId",
        "offset": 0,
        "slot": "12",
        "type": "t_uint256"
      },
      {
        "astId": 13304,
        "contract": "contracts/mocks/zaynfi/protocol/StrategyV2Mock.sol:StrategyV2Mock",
        "label": "rewards",
        "offset": 0,
        "slot": "13",
        "type": "t_array(t_struct(RewardV2)13300_storage)dyn_storage"
      },
      {
        "astId": 13306,
        "contract": "contracts/mocks/zaynfi/protocol/StrategyV2Mock.sol:StrategyV2Mock",
        "label": "lastFeeCharge",
        "offset": 0,
        "slot": "14",
        "type": "t_uint256"
      },
      {
        "astId": 13309,
        "contract": "contracts/mocks/zaynfi/protocol/StrategyV2Mock.sol:StrategyV2Mock",
        "label": "revShareEnabled",
        "offset": 0,
        "slot": "15",
        "type": "t_bool"
      },
      {
        "astId": 13312,
        "contract": "contracts/mocks/zaynfi/protocol/StrategyV2Mock.sol:StrategyV2Mock",
        "label": "zaynReferrer",
        "offset": 1,
        "slot": "15",
        "type": "t_contract(IZaynReferrerV2)12969"
      },
      {
        "astId": 13315,
        "contract": "contracts/mocks/zaynfi/protocol/StrategyV2Mock.sol:StrategyV2Mock",
        "label": "WOMBAT_ROUTER",
        "offset": 0,
        "slot": "16",
        "type": "t_contract(IWombatRouter)12875"
      },
      {
        "astId": 13317,
        "contract": "contracts/mocks/zaynfi/protocol/StrategyV2Mock.sol:StrategyV2Mock",
        "label": "WETH",
        "offset": 0,
        "slot": "17",
        "type": "t_address"
      }
    ],
    "types": {
      "t_address": {
        "encoding": "inplace",
        "label": "address",
        "numberOfBytes": "20"
      },
      "t_array(t_address)dyn_storage": {
        "base": "t_address",
        "encoding": "dynamic_array",
        "label": "address[]",
        "numberOfBytes": "32"
      },
      "t_array(t_struct(RewardV2)13300_storage)dyn_storage": {
        "base": "t_struct(RewardV2)13300_storage",
        "encoding": "dynamic_array",
        "label": "struct StrategyV2Mock.RewardV2[]",
        "numberOfBytes": "32"
      },
      "t_bool": {
        "encoding": "inplace",
        "label": "bool",
        "numberOfBytes": "1"
      },
      "t_contract(IWombatRouter)12875": {
        "encoding": "inplace",
        "label": "contract IWombatRouter",
        "numberOfBytes": "20"
      },
      "t_contract(IZaynReferrerV2)12969": {
        "encoding": "inplace",
        "label": "contract IZaynReferrerV2",
        "numberOfBytes": "20"
      },
      "t_struct(RewardV2)13300_storage": {
        "encoding": "inplace",
        "label": "struct StrategyV2Mock.RewardV2",
        "members": [
          {
            "astId": 13292,
            "contract": "contracts/mocks/zaynfi/protocol/StrategyV2Mock.sol:StrategyV2Mock",
            "label": "token",
            "offset": 0,
            "slot": "0",
            "type": "t_address"
          },
          {
            "astId": 13294,
            "contract": "contracts/mocks/zaynfi/protocol/StrategyV2Mock.sol:StrategyV2Mock",
            "label": "router",
            "offset": 0,
            "slot": "1",
            "type": "t_address"
          },
          {
            "astId": 13297,
            "contract": "contracts/mocks/zaynfi/protocol/StrategyV2Mock.sol:StrategyV2Mock",
            "label": "toWantUnderlyingRoute",
            "offset": 0,
            "slot": "2",
            "type": "t_array(t_address)dyn_storage"
          },
          {
            "astId": 13299,
            "contract": "contracts/mocks/zaynfi/protocol/StrategyV2Mock.sol:StrategyV2Mock",
            "label": "minAmount",
            "offset": 0,
            "slot": "3",
            "type": "t_uint256"
          }
        ],
        "numberOfBytes": "128"
      },
      "t_uint256": {
        "encoding": "inplace",
        "label": "uint256",
        "numberOfBytes": "32"
      }
    }
  }
}