{
  "address": "0xC64Fff983Ee89E3EFf5346a45d327A78cE43d2Ab",
  "abi": [
    {
      "anonymous": false,
      "inputs": [
        {
          "indexed": true,
          "internalType": "uint256",
          "name": "termId",
          "type": "uint256"
        },
        {
          "indexed": true,
          "internalType": "address",
          "name": "user",
          "type": "address"
        },
        {
          "indexed": false,
          "internalType": "uint256",
          "name": "amount",
          "type": "uint256"
        }
      ],
      "name": "OnCollateralDeposited",
      "type": "event"
    },
    {
      "anonymous": false,
      "inputs": [
        {
          "indexed": true,
          "internalType": "uint256",
          "name": "termId",
          "type": "uint256"
        },
        {
          "indexed": true,
          "internalType": "address",
          "name": "termOwner",
          "type": "address"
        }
      ],
      "name": "OnTermCreated",
      "type": "event"
    },
    {
      "anonymous": false,
      "inputs": [
        {
          "indexed": true,
          "internalType": "uint256",
          "name": "termId",
          "type": "uint256"
        }
      ],
      "name": "OnTermExpired",
      "type": "event"
    },
    {
      "anonymous": false,
      "inputs": [
        {
          "indexed": true,
          "internalType": "uint256",
          "name": "termId",
          "type": "uint256"
        }
      ],
      "name": "OnTermFilled",
      "type": "event"
    },
    {
      "anonymous": false,
      "inputs": [
        {
          "indexed": true,
          "internalType": "uint256",
          "name": "termId",
          "type": "uint256"
        }
      ],
      "name": "OnTermStart",
      "type": "event"
    },
    {
      "inputs": [
        {
          "internalType": "uint256",
          "name": "totalParticipants",
          "type": "uint256"
        },
        {
          "internalType": "uint256",
          "name": "registrationPeriod",
          "type": "uint256"
        },
        {
          "internalType": "uint256",
          "name": "cycleTime",
          "type": "uint256"
        },
        {
          "internalType": "uint256",
          "name": "contributionAmount",
          "type": "uint256"
        },
        {
          "internalType": "uint256",
          "name": "contributionPeriod",
          "type": "uint256"
        },
        {
          "internalType": "address",
          "name": "stableTokenAddress",
          "type": "address"
        }
      ],
      "name": "createTerm",
      "outputs": [
        {
          "internalType": "uint256",
          "name": "",
          "type": "uint256"
        }
      ],
      "stateMutability": "nonpayable",
      "type": "function"
    },
    {
      "inputs": [
        {
          "internalType": "uint256",
          "name": "termId",
          "type": "uint256"
        }
      ],
      "name": "expireTerm",
      "outputs": [],
      "stateMutability": "nonpayable",
      "type": "function"
    },
    {
      "inputs": [
        {
          "internalType": "uint256",
          "name": "termId",
          "type": "uint256"
        },
        {
          "internalType": "bool",
          "name": "optYield",
          "type": "bool"
        }
      ],
      "name": "joinTerm",
      "outputs": [],
      "stateMutability": "payable",
      "type": "function"
    },
    {
      "inputs": [
        {
          "internalType": "uint256",
          "name": "termId",
          "type": "uint256"
        }
      ],
      "name": "startTerm",
      "outputs": [],
      "stateMutability": "nonpayable",
      "type": "function"
    }
  ],
  "transactionHash": "0xb9d246e51b9e9c93ec34be6ccc3faf48eb1c424fb5f74e2884a2618c39c4c564",
  "args": [],
  "numDeployments": 1,
  "solcInputHash": "8a133ef428f5746b5a2c4256d3a41d4c",
  "bytecode": "0x608060405234801561001057600080fd5b50612179806100206000396000f3fe60806040526004361061003f5760003560e01c8063485fd07614610044578063692d8ba714610066578063aa31ef3214610079578063b1705fa2146100ab575b600080fd5b34801561005057600080fd5b5061006461005f366004611ea9565b6100cb565b005b610064610074366004611ed0565b6100d7565b34801561008557600080fd5b50610099610094366004611f15565b6100e5565b60405190815260200160405180910390f35b3480156100b757600080fd5b506100646100c6366004611ea9565b610100565b6100d481610109565b50565b6100e182826105d5565b5050565b60006100f5878787878787610aca565b979650505050505050565b6100d481610d1c565b60008181526000805160206121048339815191526020908152604080832060008051602061212483398151915283528184206000805160206120c48339815191528452828520600382018054855181880281018801909652808652939692959194929390918301828280156101a757602002820191906000526020600020905b81546001600160a01b03168152600190910190602001808311610189575b50505050509050600081519050846003015484600101546101c89190611f80565b421161021b5760405162461bcd60e51b815260206004820152601760248201527f5465726d206e6f7420726561647920746f20737461727400000000000000000060448201526064015b60405180910390fd5b84600401548460020154146102725760405162461bcd60e51b815260206004820152601860248201527f416c6c2073706f747320617265206e6f742066696c6c656400000000000000006044820152606401610212565b60005b818110156102ee576102a4866002015484838151811061029757610297611f93565b6020026020010151610eea565b156102e65760405162461bcd60e51b8152602060048201526012602482015271115d1a081c1c9a58d95cc8191c9bdc1c195960721b6044820152606401610212565b600101610275565b50604080516101608101909152855460ff808216151583526103b1929188916020840191610100900416600381111561032957610329611fa9565b600381111561033a5761033a611fa9565b815281546001600160a01b036201000090910481166020830152600183015460408301526002830154606083015260038301546080830152600483015460a0830152600583015460c0830152600683015460e083015260078301546101008301526008909201549091166101209091015285611016565b7f7c039906f7f8ca11e01b6987a88513563589699678f7d2a6c8447f44d69375f35460ff166104fe5760005b818110156104f8578360070160008483815181106103fd576103fd611f93565b6020908102919091018101516001600160a01b031682528101919091526040016000205460ff16156104f057604080516101608101909152865460ff808216151583526104eb929189916020840191610100900416600381111561046357610463611fa9565b600381111561047457610474611fa9565b815281546001600160a01b036201000090910481166020830152600183015460408301526002830154606083015260038301546080830152600483015460a0830152600583015460c0830152600683015460e0830152600783015461010083015260089092015490911661012090910152866110ee565b6104f8565b6001016103dd565b506105b1565b60005b818110156105af5783600701600084838151811061052157610521611f93565b6020908102919091018101516001600160a01b031682528101919091526040016000205460ff16156105a757600084600701600085848151811061056757610567611f93565b60200260200101516001600160a01b03166001600160a01b0316815260200190815260200160002060006101000a81548160ff0219169083151502179055505b600101610501565b505b6105c08560020154600161143c565b5050825461ff00191661010017909255505050565b60008281526000805160206121048339815191526020908152604080832081516101608101909252805460ff808216151584527f87101b21d556417ad2b8e8f2700dbad90721d5d50a1f435f2dee0b9dc981ac899594840191610100900416600381111561064557610645611fa9565b600381111561065657610656611fa9565b815281546001600160a01b0362010000909104811660208084019190915260018401546040808501919091526002850154606085015260038501546080850152600485015460a0850152600585015460c0850152600685015460e0850152600785015461010085015260089094015490911661012090920191909152600087815260008051602061212483398151915282528281206000805160206120c4833981519152835283822060008051602061210483398151915290935292902054929350909160ff1661075e5760405162461bcd60e51b815260206004820152601260248201527115195c9b48191bd95cdb89dd08195e1a5cdd60721b6044820152606401610212565b60008254610100900460ff16600381111561077b5761077b611fa9565b146107b15760405162461bcd60e51b815260206004820152600660248201526510db1bdcd95960d21b6044820152606401610212565b8260c001518260020154106107f35760405162461bcd60e51b81526020600482015260086024820152674e6f20737061636560c01b6044820152606401610212565b33600090815260048301602052604090205460ff161561083f5760405162461bcd60e51b81526020600482015260076024820152665265656e74727960c81b6044820152606401610212565b6002820154604051630c64c69760e01b815260048101889052602481018290526000903090630c64c69790604401602060405180830381865afa15801561088a573d6000803e3d6000fd5b505050506040513d601f19601f820116820180604052508101906108ae9190611fbf565b9050803410156108f65760405162461bcd60e51b8152602060048201526013602482015272457468207061796d656e7420746f6f206c6f7760681b6044820152606401610212565b33600090815260058501602052604081208054349290610917908490611f80565b90915550503360008181526004860160205260409020805460ff191660011790556003850180548490811061094e5761094e611f93565b6000918252602082200180546001600160a01b0319166001600160a01b0393909316929092179091556002850180549161098783611fd8565b9091555050336000908152600785016020526040812080543492906109ad908490611f80565b90915550503360009081526002870160209081526040822080546001810182559083529120018890557f7c039906f7f8ca11e01b6987a88513563589699678f7d2a6c8447f44d69375f35460ff16610a21573360009081526007840160205260409020805460ff1916881515179055610a3b565b3360009081526007840160205260409020805460ff191690555b604051348152339089907f6e0a2371131a7d423998fa7e71296a76f74b9c658d0b210b3f8e70eff0e536d89060200160405180910390a38360020154600103610a85574260018501555b8460c00151846002015403610ac05760405188907fcb9c59095b121bb2ee6f91e996d96e8937149675a0dd11c12b5d08ec2cc7abba90600090a25b5050505050505050565b60008415801590610ada57508315155b8015610ae557508215155b8015610af057508615155b8015610afb57508515155b8015610b0657508483105b8015610b1a57506001600160a01b03821615155b610b575760405162461bcd60e51b815260206004820152600e60248201526d496e76616c696420696e7075747360901b6044820152606401610212565b7f87101b21d556417ad2b8e8f2700dbad90721d5d50a1f435f2dee0b9dc981ac8980546040805161016081018252600060208083018281526080840186905260c084018e905260a084018d905260e084018c90526101008085018c905261012085018b90526001600160a01b038a16610140860152338587015242606086015260018552868452600080516020612104833981519152909252939091208251815490151560ff198216811783559451939485949293849261ff001990921661ffff199092169190911790836003811115610c3357610c33611fa9565b02179055506040820151815462010000600160b01b031916620100006001600160a01b0392831602178255606083015160018301556080830151600283015560a0830151600383015560c0830151600483015560e083015160058301556101008301516006830155610120830151600783015561014090920151600890910180546001600160a01b031916919092161790558254836000610cd383611fd8565b9190505550610ce2828b6114d9565b604051339083907f3bff48239db8f29891497cd2efd85d201f5723830e7c8cfaef44cc50a4bc024c90600090a35098975050505050505050565b60008181526000805160206121048339815191526020818152604080842060008051602061212483398151915283529320919052815460ff168015610d655750610d658361155f565b610d6e57600080fd5b600181015415801590610d93575081600301548160010154610d909190611f80565b42115b610ddf5760405162461bcd60e51b815260206004820152601d60248201527f526567697374726174696f6e20706572696f64206e6f7420656e6465640000006044820152606401610212565b8160040154816002015410610e415760405162461bcd60e51b815260206004820152602260248201527f416c6c2073706f7473206172652066696c6c65642c2063616e27742065787069604482015261726560f01b6064820152608401610212565b60028254610100900460ff166003811115610e5e57610e5e611fa9565b03610ea25760405162461bcd60e51b815260206004820152601460248201527315195c9b48185b1c9958591e48195e1c1a5c995960621b6044820152606401610212565b815461020061ff001991821681178455825490911617815560405183907f9983062774b9b7f1b9071acd776af98f78c06bf9ad065553a83395178ef6243a90600090a2505050565b6000828152600080516020612124833981519152602090815260408083206001600160a01b0385168452600581019092528220548290610f2986611585565b610fa85760405163bb91b76d60e01b81526001600160a01b038616600482015260248101879052309063bb91b76d9060440160a060405180830381865afa158015610f78573d6000803e3d6000fd5b505050506040513d601f19601f82011682018060405250810190610f9c9190611ff1565b955061100b9350505050565b60405163f0d826e760e01b815260048101879052309063f0d826e790602401602060405180830381865afa158015610fe4573d6000803e3d6000fd5b505050506040513d601f19601f820116820180604052508101906110089190611fbf565b91505b109150505b92915050565b6110238260800151611585565b156110665760405162461bcd60e51b815260206004820152601360248201527246756e6420616c72656164792065786973747360681b6044820152606401610212565b608082015160009081526000805160206120e48339815191526020526040902061014083015181546001600160a01b03909116620100000262010000600160b01b03199091161781556003820180546110c3916001840191611def565b508054600180830154601484015561ffff1990911617815560808301516110e99061159b565b505050565b608082015160009081526000805160206120c48339815191526020908152604080832060038501805483518186028101860190945280845291947ff27a5986330dc78d016d8604ee1a040d5a789fbaa2d0c27f5dfded4b616b8977949093849390929183018282801561118a57602002820191906000526020600020905b81546001600160a01b0316815260019091019060200180831161116c575b505083519394506000925050505b8181101561132c578560070160008483815181106111b8576111b8611f93565b6020908102919091018101516001600160a01b031682528101919091526040016000205460ff161561132457856006018382815181106111fa576111fa611f93565b6020908102919091018101518254600181018455600093845291832090910180546001600160a01b0319166001600160a01b03909216919091179055835160649160058a019186908590811061125257611252611f93565b60200260200101516001600160a01b03166001600160a01b0316815260200190815260200160002054605a611287919061203a565b6112919190612051565b86600b0160008584815181106112a9576112a9611f93565b60200260200101516001600160a01b03166001600160a01b031681526020019081526020016000208190555085600b0160008483815181106112ed576112ed611f93565b60200260200101516001600160a01b03166001600160a01b0316815260200190815260200160002054846113219190611f80565b93505b600101611198565b50821561143357426002860155845460ff191660011785556040518490611360906605a61796e5a61760cc1b815260070190565b908152604051908190036020018120546001600160a01b0316906001870190611396906605a61796e5a61760cc1b815260070190565b9081526040805191829003602001822080546001600160a01b039485166001600160a01b03199091161790556816985e5b95985d5b1d60ba1b808352600980840189905291519283900360290183205490835290921691600188019101908152602001604051809103902060006101000a8154816001600160a01b0302191690836001600160a01b03160217905550611433876080015184611696565b50505050505050565b600082815260008051602061212483398151915260205260409020805461010080820460ff16918491849161ff0019169083600381111561147f5761147f611fa9565b021790555082600381111561149657611496611fa9565b8160038111156114a8576114a8611fa9565b60405186907ffe918112a2fca8c18cc609a5d585d9fc8448267cb7b9d6c19a445fe5c0c199c890600090a450505050565b600082815260008051602061212483398151915260205260409020805461ffff191660011781558167ffffffffffffffff81111561151957611519612073565b604051908082528060200260200182016040528015611542578160200160208202803683370190505b508051611559916003840191602090910190611e3f565b50505050565b60006000805160206121248339815191525b600092835260205250604090205460ff1690565b60006000805160206120e4833981519152611571565b60008181526000805160206120e483398151915260205260408120600181015490915b81811015611656576115fc83600d018460010183815481106115e2576115e2611f93565b6000918252602090912001546001600160a01b03166117f0565b50600183600501600085600101848154811061161a5761161a611f93565b6000918252602080832091909101546001600160a01b031683528201929092526040019020805460ff19169115159190911790556001016115be565b506116608361180c565b42600283015560405183907fc3bfb99b88687651f8e660492ae2ee62a50d40e4131ace07f88ed4639b3a4bc390600090a2505050565b60008281526000805160206120c4833981519152602052604090819020600381018390556004810183905581516816985e5b95985d5b1d60ba1b815260018201600982018190529251908190036029018120546605a61796e5a61760cc1b825291926001600160a01b03909216919060070190815260405190819003602001812054632af34be360e11b82526001600160a01b0383811660048401526024830187905216906355e697c69085906044016000604051808303818588803b15801561175f57600080fd5b505af1158015611773573d6000803e3d6000fd5b5050604051631398fee160e31b8152600481018890526001600160a01b0385169350639cc7f70892506024019050602060405180830381865afa1580156117be573d6000803e3d6000fd5b505050506040513d601f19601f820116820180604052508101906117e29190611fbf565b826005018190555050505050565b6000611805836001600160a01b0384166119c0565b9392505050565b60008181526000805160206120e483398151915260209081526040808320600080516020612104833981519152909252909120600282015460048301546005830154611858919061203a565b6118629190611f80565b42116118b05760405162461bcd60e51b815260206004820152601c60248201527f546f6f206561726c7920746f207374617274206e6577206379636c65000000006044820152606401610212565b60008254610100900460ff1660048111156118cd576118cd611fa9565b14806118f3575060038254610100900460ff1660048111156118f1576118f1611fa9565b145b61192d5760405162461bcd60e51b815260206004820152600b60248201526a57726f6e6720737461746560a81b6044820152606401610212565b816004016000815461193e90611fd8565b90915550600182015460005b818110156119ab57600084600701600086600101848154811061196f5761196f611f93565b6000918252602080832091909101546001600160a01b031683528201929092526040019020805460ff191691151591909117905560010161194a565b506119b7846001611a0f565b61155984611aee565b6000818152600183016020526040812054611a0757508154600181810184556000848152602080822090930184905584548482528286019093526040902091909155611010565b506000611010565b60008281526000805160206120e4833981519152602052604090208054600490610100900460ff1681811115611a4757611a47611fa9565b03611a825760405162461bcd60e51b815260206004820152600b60248201526a119d5b990818db1bdcd95960aa1b6044820152606401610212565b80548290829061ff001916610100836004811115611aa257611aa2611fa9565b0217905550816004811115611ab957611ab9611fa9565b600482015460405185907fe515107ce875160b9ed93bfd1367820d3ffbf412cd63d05140f6bc5535b51de390600090a4505050565b60006000805160206120e483398151915260008381526020919091526040808220905163d8f8e99160e01b815260048101859052909250309063d8f8e99190602401602060405180830381865afa158015611b4d573d6000803e3d6000fd5b505050506040513d601f19601f82011682018060405250810190611b719190612089565b9050600082600101805480602002602001604051908101604052809291908181526020018280548015611bcd57602002820191906000526020600020905b81546001600160a01b03168152600190910190602001808311611baf575b505083519394506000925050505b81811015611cb7576000838281518110611bf757611bf7611f93565b60200260200101519050806001600160a01b0316856001600160a01b031603611c235750600101611bdb565b6001600160a01b038116600090815260088701602052604090205460ff168015611c6857506001600160a01b038116600090815260078701602052604090205460ff16155b8015611c9e575060048601546000908152600c8701602090815260408083206001600160a01b038516845290915290205460ff16155b15611cae57611cae878283611cbf565b50600101611bdb565b505050505050565b60008381526000805160206120e4833981519152602090815260408083206000805160206121048339815191529092528220600681015491929091611d0790620f424061203a565b83546040516323b872dd60e01b81526001600160a01b0388811660048301523060248301526044820184905292935062010000909104909116906323b872dd906064016020604051808303816000875af1925050508015611d85575060408051601f3d908101601f19168201909252611d82918101906120a6565b60015b15611cb7578015611433576001600160a01b0385166000818152600786016020526040808220805460ff19166001179055600487015490519092918a917fe1122b3cea22012386ebf236fc23dd8a783b91c046d5dec812901846464624ae9190a450505050505050565b828054828255906000526020600020908101928215611e2f5760005260206000209182015b82811115611e2f578254825591600101919060010190611e14565b50611e3b929150611e94565b5090565b828054828255906000526020600020908101928215611e2f579160200282015b82811115611e2f57825182546001600160a01b0319166001600160a01b03909116178255602090920191600190910190611e5f565b5b80821115611e3b5760008155600101611e95565b600060208284031215611ebb57600080fd5b5035919050565b80151581146100d457600080fd5b60008060408385031215611ee357600080fd5b823591506020830135611ef581611ec2565b809150509250929050565b6001600160a01b03811681146100d457600080fd5b60008060008060008060c08789031215611f2e57600080fd5b863595506020870135945060408701359350606087013592506080870135915060a0870135611f5c81611f00565b809150509295509295509295565b634e487b7160e01b600052601160045260246000fd5b8082018082111561101057611010611f6a565b634e487b7160e01b600052603260045260246000fd5b634e487b7160e01b600052602160045260246000fd5b600060208284031215611fd157600080fd5b5051919050565b600060018201611fea57611fea611f6a565b5060010190565b600080600080600060a0868803121561200957600080fd5b855161201481611ec2565b602087015160408801516060890151608090990151929a91995097965090945092505050565b808202811582820484141761101057611010611f6a565b60008261206e57634e487b7160e01b600052601260045260246000fd5b500490565b634e487b7160e01b600052604160045260246000fd5b60006020828403121561209b57600080fd5b815161180581611f00565b6000602082840312156120b857600080fd5b815161180581611ec256fe29d9cba46c358ba7c1b8945751229339792c7c62e3197c240fa98916e75ffbf96751f7e27cecf86d7136f5749c224248cae80a39fafb59f8f6bf12c52816307c87101b21d556417ad2b8e8f2700dbad90721d5d50a1f435f2dee0b9dc981ac8a35fa70a6f9ae8a4d427ebe0c1be62ffd2870fecc1df41c6fda0bf5803e562888a26469706673582212204c79616787a38568945c6bd20e50dfc14ac1e9c1af18dfb8c627b26c1360c30f64736f6c63430008120033",
  "devdoc": {
    "author": "Mohammed Haddouti",
    "details": "v3.0 (Diamond)",
    "kind": "dev",
    "methods": {},
    "title": "Takaturn Term",
    "version": 1
  },
  "userdoc": {
    "kind": "user",
    "methods": {},
    "notice": "This is used to deploy the collateral & fund contracts",
    "version": 1
  },
  "storageLayout": {
    "storage": [],
    "types": null
  }
}