{
  "address": "0x112a01F6F25dB69727ED0E80c6D7A5C671A73663",
  "abi": [
    {
      "anonymous": false,
      "inputs": [
        {
          "indexed": true,
          "internalType": "uint256",
          "name": "termId",
          "type": "uint256"
        },
        {
          "indexed": true,
          "internalType": "address",
          "name": "user",
          "type": "address"
        },
        {
          "indexed": true,
          "internalType": "bool",
          "name": "optedIn",
          "type": "bool"
        }
      ],
      "name": "OnYGOptInToggled",
      "type": "event"
    },
    {
      "anonymous": false,
      "inputs": [
        {
          "indexed": true,
          "internalType": "uint256",
          "name": "termId",
          "type": "uint256"
        },
        {
          "indexed": true,
          "internalType": "address",
          "name": "user",
          "type": "address"
        },
        {
          "indexed": false,
          "internalType": "address",
          "name": "receiver",
          "type": "address"
        },
        {
          "indexed": true,
          "internalType": "uint256",
          "name": "amount",
          "type": "uint256"
        }
      ],
      "name": "OnYieldClaimed",
      "type": "event"
    },
    {
      "inputs": [
        {
          "internalType": "uint256",
          "name": "termId",
          "type": "uint256"
        },
        {
          "internalType": "address",
          "name": "receiver",
          "type": "address"
        }
      ],
      "name": "claimAvailableYield",
      "outputs": [],
      "stateMutability": "nonpayable",
      "type": "function"
    },
    {
      "inputs": [
        {
          "internalType": "uint256",
          "name": "termId",
          "type": "uint256"
        }
      ],
      "name": "toggleOptInYG",
      "outputs": [],
      "stateMutability": "nonpayable",
      "type": "function"
    },
    {
      "inputs": [],
      "name": "toggleYieldLock",
      "outputs": [
        {
          "internalType": "bool",
          "name": "",
          "type": "bool"
        }
      ],
      "stateMutability": "nonpayable",
      "type": "function"
    },
    {
      "inputs": [
        {
          "internalType": "uint256",
          "name": "termId",
          "type": "uint256"
        },
        {
          "internalType": "string",
          "name": "providerString",
          "type": "string"
        },
        {
          "internalType": "address",
          "name": "providerAddress",
          "type": "address"
        }
      ],
      "name": "updateProviderAddressOnTerms",
      "outputs": [],
      "stateMutability": "nonpayable",
      "type": "function"
    },
    {
      "inputs": [
        {
          "internalType": "string",
          "name": "providerString",
          "type": "string"
        },
        {
          "internalType": "address",
          "name": "providerAddress",
          "type": "address"
        }
      ],
      "name": "updateYieldProvider",
      "outputs": [],
      "stateMutability": "nonpayable",
      "type": "function"
    }
  ],
  "transactionHash": "0x88696f16f8a99a236af6e7c527fc2205a1daadb0448377e62c5287c22ecffeb4",
  "args": [],
  "numDeployments": 1,
  "solcInputHash": "8a133ef428f5746b5a2c4256d3a41d4c",
  "bytecode": "0x608060405234801561001057600080fd5b50610a0c806100206000396000f3fe608060405234801561001057600080fd5b50600436106100575760003560e01c806327ff9f351461005c57806383da1d7614610071578063c8eeb57814610084578063efbb9761146100a0578063f6a40d2a146100b3575b600080fd5b61006f61006a3660046107db565b6100c6565b005b61006f61007f3660046108b3565b610257565b61008c6102c7565b604051901515815260200160405180910390f35b61006f6100ae366004610901565b61030a565b61006f6100c1366004610958565b6104c7565b60008181527f29d9cba46c358ba7c1b8945751229339792c7c62e3197c240fa98916e75ffbf9602090815260408083207f35fa70a6f9ae8a4d427ebe0c1be62ffd2870fecc1df41c6fda0bf5803e5628889092528220805491929091610100900460ff16600381111561013b5761013b61097b565b1461018d5760405162461bcd60e51b815260206004820152601c60248201527f546f6f206c61746520746f206368616e6765205947206f707420696e0000000060448201526064015b60405180910390fd5b33600090815260048201602052604090205460ff166102005760405162461bcd60e51b815260206004820152602960248201527f5061792074686520636f6c6c61746572616c207365637572697479206465706f6044820152681cda5d08199a5c9cdd60ba1b6064820152608401610184565b336000818152600784016020526040808220805460ff81161560ff199091168117909155905190928392909187917f9c0d71d8ccd3ac3b8b8463f9dff1237a9e545a61f6e803ee0948ff02c7cef56691a450505050565b61025f610608565b6040517ff27a5986330dc78d016d8604ee1a040d5a789fbaa2d0c27f5dfded4b616b89779082908290610293908690610991565b90815260405190819003602001902080546001600160a01b03929092166001600160a01b0319909216919091179055505050565b60006102d1610608565b507f7c039906f7f8ca11e01b6987a88513563589699678f7d2a6c8447f44d69375f3805460ff19811660ff918216159081179092551690565b610312610608565b60008381527f29d9cba46c358ba7c1b8945751229339792c7c62e3197c240fa98916e75ffbf9602090815260408083207f6751f7e27cecf86d7136f5749c224248cae80a39fafb59f8f6bf12c52816307c9092529091205460ff166103af5760405162461bcd60e51b8152602060048201526013602482015272119d5b9908191bd95cc81b9bdd08195e1a5cdd606a1b6044820152606401610184565b6001600160a01b0382166104055760405162461bcd60e51b815260206004820152601860248201527f496e76616c69642070726f7669646572206164647265737300000000000000006044820152606401610184565b816001600160a01b031681600101846040516104219190610991565b908152604051908190036020019020546001600160a01b03160361047f5760405162461bcd60e51b815260206004820152601560248201527453616d652070726f7669646572206164647265737360581b6044820152606401610184565b8181600101846040516104929190610991565b90815260405190819003602001902080546001600160a01b03929092166001600160a01b031990921691909117905550505050565b60008281527f6751f7e27cecf86d7136f5749c224248cae80a39fafb59f8f6bf12c52816307c6020908152604080832060018101805483518186028101860190945280845291949390919083018282801561054b57602002820191906000526020600020905b81546001600160a01b0316815260019091019060200180831161052d575b505050505090506000815190506000805b828110156105a757336001600160a01b0316848281518110610580576105806109c0565b60200260200101516001600160a01b03160361059f57600191506105a7565b60010161055c565b50806105f55760405162461bcd60e51b815260206004820181905260248201527f5468652063616c6c6572206d7573742062652061207061727469636970616e746044820152606401610184565b610600863387610691565b505050505050565b7fc8fcad8db84d3cc18b4c41d551ea0ee66dd599cde068d998e57d5e09332c131c600401546001600160a01b0316331461068f5760405162461bcd60e51b815260206004820152602260248201527f4c69624469616d6f6e643a204d75737420626520636f6e7472616374206f776e60448201526132b960f11b6064820152608401610184565b565b60008381527f29d9cba46c358ba7c1b8945751229339792c7c62e3197c240fa98916e75ffbf9602090815260408083206001600160a01b0386168452600a8101909252909120548061071c5760405162461bcd60e51b81526020600482015260146024820152734e6f207969656c6420746f20776974686472617760601b6044820152606401610184565b6001600160a01b038481166000908152600a8401602052604080822082905551909185169083908381818185875af1925050503d806000811461077b576040519150601f19603f3d011682016040523d82523d6000602084013e610780565b606091505b505090508061078e57600080fd5b6040516001600160a01b03858116825283919087169088907fdb2460ca9a22614b8fe3f598b727569022250e691340edbbaf8ff069969155f09060200160405180910390a4505050505050565b6000602082840312156107ed57600080fd5b5035919050565b634e487b7160e01b600052604160045260246000fd5b600082601f83011261081b57600080fd5b813567ffffffffffffffff80821115610836576108366107f4565b604051601f8301601f19908116603f0116810190828211818310171561085e5761085e6107f4565b8160405283815286602085880101111561087757600080fd5b836020870160208301376000602085830101528094505050505092915050565b80356001600160a01b03811681146108ae57600080fd5b919050565b600080604083850312156108c657600080fd5b823567ffffffffffffffff8111156108dd57600080fd5b6108e98582860161080a565b9250506108f860208401610897565b90509250929050565b60008060006060848603121561091657600080fd5b83359250602084013567ffffffffffffffff81111561093457600080fd5b6109408682870161080a565b92505061094f60408501610897565b90509250925092565b6000806040838503121561096b57600080fd5b823591506108f860208401610897565b634e487b7160e01b600052602160045260246000fd5b6000825160005b818110156109b25760208186018101518583015201610998565b506000920191825250919050565b634e487b7160e01b600052603260045260246000fdfea2646970667358221220c796650d0edc5e6a9f2eab7069f49dccb8bb36c97284d0f34db11363dd1adbde64736f6c63430008120033",
  "devdoc": {
    "kind": "dev",
    "methods": {
      "claimAvailableYield(uint256,address)": {
        "details": "for emergency use only, in case the claimed yield is not sent to the user when withdrawing the collateral",
        "params": {
          "receiver": "The address of the user who will receive the yield",
          "termId": "The term id for which the yield is being claimed"
        }
      },
      "toggleOptInYG(uint256)": {
        "details": "only allowed before the term starts",
        "params": {
          "termId": "The term id for which the yield is being claimed"
        }
      },
      "updateProviderAddressOnTerms(uint256,string,address)": {
        "params": {
          "providerAddress": "The new address of the provider",
          "providerString": "The provider string for which the address is being updated",
          "termId": "The term id for which the yield is being claimed"
        }
      },
      "updateYieldProvider(string,address)": {
        "params": {
          "providerAddress": "The new address of the provider",
          "providerString": "The provider string for which the address is being updated"
        }
      }
    },
    "version": 1
  },
  "userdoc": {
    "kind": "user",
    "methods": {
      "claimAvailableYield(uint256,address)": {
        "notice": "This function allows a user to claim the current available yield"
      },
      "toggleOptInYG(uint256)": {
        "notice": "This function allows a user to toggle their yield generation"
      },
      "toggleYieldLock()": {
        "notice": "This function allows the owner to disable the yield generation feature in case of emergency"
      },
      "updateProviderAddressOnTerms(uint256,string,address)": {
        "notice": "To be used in case of emergency, when the provider needs to change the zap or the vault"
      },
      "updateYieldProvider(string,address)": {
        "notice": "This function allows the owner to update the global variable for new yield provider"
      }
    },
    "version": 1
  },
  "storageLayout": {
    "storage": [],
    "types": null
  }
}