{
  "address": "0x3253Bb2ae09C5D18Cc0B2209fa05ab2C1388710B",
  "abi": [
    {
      "inputs": [],
      "name": "FunctionInvalidAtThisState",
      "type": "error"
    },
    {
      "anonymous": false,
      "inputs": [
        {
          "indexed": true,
          "internalType": "uint256",
          "name": "termId",
          "type": "uint256"
        },
        {
          "indexed": true,
          "internalType": "address",
          "name": "user",
          "type": "address"
        },
        {
          "indexed": true,
          "internalType": "uint256",
          "name": "amount",
          "type": "uint256"
        }
      ],
      "name": "OnCollateralLiquidated",
      "type": "event"
    },
    {
      "anonymous": false,
      "inputs": [
        {
          "indexed": true,
          "internalType": "uint256",
          "name": "termId",
          "type": "uint256"
        },
        {
          "indexed": true,
          "internalType": "enum LibCollateralStorage.CollateralStates",
          "name": "oldState",
          "type": "uint8"
        },
        {
          "indexed": true,
          "internalType": "enum LibCollateralStorage.CollateralStates",
          "name": "newState",
          "type": "uint8"
        }
      ],
      "name": "OnCollateralStateChanged",
      "type": "event"
    },
    {
      "anonymous": false,
      "inputs": [
        {
          "indexed": true,
          "internalType": "uint256",
          "name": "termId",
          "type": "uint256"
        },
        {
          "indexed": true,
          "internalType": "address",
          "name": "user",
          "type": "address"
        },
        {
          "indexed": true,
          "internalType": "uint256",
          "name": "collateralAmount",
          "type": "uint256"
        }
      ],
      "name": "OnCollateralWithdrawal",
      "type": "event"
    },
    {
      "anonymous": false,
      "inputs": [
        {
          "indexed": true,
          "internalType": "uint256",
          "name": "termId",
          "type": "uint256"
        },
        {
          "indexed": true,
          "internalType": "address",
          "name": "user",
          "type": "address"
        },
        {
          "indexed": true,
          "internalType": "uint256",
          "name": "amount",
          "type": "uint256"
        }
      ],
      "name": "OnFrozenMoneyPotLiquidated",
      "type": "event"
    },
    {
      "anonymous": false,
      "inputs": [
        {
          "indexed": true,
          "internalType": "uint256",
          "name": "termId",
          "type": "uint256"
        },
        {
          "indexed": true,
          "internalType": "address",
          "name": "user",
          "type": "address"
        },
        {
          "indexed": true,
          "internalType": "uint256",
          "name": "amount",
          "type": "uint256"
        }
      ],
      "name": "OnReimbursementWithdrawn",
      "type": "event"
    },
    {
      "inputs": [
        {
          "internalType": "uint256",
          "name": "termId",
          "type": "uint256"
        }
      ],
      "name": "emptyCollateralAfterEnd",
      "outputs": [],
      "stateMutability": "nonpayable",
      "type": "function"
    },
    {
      "inputs": [
        {
          "internalType": "uint256",
          "name": "termId",
          "type": "uint256"
        }
      ],
      "name": "releaseCollateral",
      "outputs": [],
      "stateMutability": "nonpayable",
      "type": "function"
    },
    {
      "inputs": [
        {
          "components": [
            {
              "internalType": "bool",
              "name": "initialized",
              "type": "bool"
            },
            {
              "internalType": "enum LibTermStorage.TermStates",
              "name": "state",
              "type": "uint8"
            },
            {
              "internalType": "address",
              "name": "termOwner",
              "type": "address"
            },
            {
              "internalType": "uint256",
              "name": "creationTime",
              "type": "uint256"
            },
            {
              "internalType": "uint256",
              "name": "termId",
              "type": "uint256"
            },
            {
              "internalType": "uint256",
              "name": "registrationPeriod",
              "type": "uint256"
            },
            {
              "internalType": "uint256",
              "name": "totalParticipants",
              "type": "uint256"
            },
            {
              "internalType": "uint256",
              "name": "cycleTime",
              "type": "uint256"
            },
            {
              "internalType": "uint256",
              "name": "contributionAmount",
              "type": "uint256"
            },
            {
              "internalType": "uint256",
              "name": "contributionPeriod",
              "type": "uint256"
            },
            {
              "internalType": "address",
              "name": "stableTokenAddress",
              "type": "address"
            }
          ],
          "internalType": "struct LibTermStorage.Term",
          "name": "term",
          "type": "tuple"
        },
        {
          "internalType": "address[]",
          "name": "defaulters",
          "type": "address[]"
        }
      ],
      "name": "requestContribution",
      "outputs": [
        {
          "internalType": "address[]",
          "name": "",
          "type": "address[]"
        }
      ],
      "stateMutability": "nonpayable",
      "type": "function"
    },
    {
      "inputs": [
        {
          "internalType": "uint256",
          "name": "termId",
          "type": "uint256"
        }
      ],
      "name": "withdrawCollateral",
      "outputs": [],
      "stateMutability": "nonpayable",
      "type": "function"
    }
  ],
  "transactionHash": "0xae3cc209e17bb57b0f8c817952c796fdb0a98a80943f58c9394f957085dae53a",
  "args": [],
  "numDeployments": 11,
  "solcInputHash": "d4af018d434f718ad1419b409645d4ff",
  "bytecode": "0x608060405234801561001057600080fd5b5061207c806100206000396000f3fe608060405234801561001057600080fd5b506004361061004c5760003560e01c80632081c1af1461005157806339007b771461007a5780636112fe2e1461008f578063c3bfb61c146100a2575b600080fd5b61006461005f366004611c0f565b6100b5565b6040516100719190611cfd565b60405180910390f35b61008d610088366004611d4a565b610242565b005b61008d61009d366004611d4a565b6102db565b61008d6100b0366004611d4a565b61068e565b6060836080015160016100c882826108b8565b608086018051600090815260008051602061202783398151915260209081526040808320935183527f6751f7e27cecf86d7136f5749c224248cae80a39fafb59f8f6bf12c52816307c909152902030331461012257600080fd5b600080610164848b858c8c8080602002602001604051908101604052809392919081815260200183836020028082843760009201919091525061092392505050565b915091506000806101758686610de6565b9092509050811561023257825160005b818110156101ba576101b2878683815181106101a3576101a3611d63565b60200260200101518686610f0c565b600101610185565b506101c58386611d8f565b945060005b8381101561022f57858860060160008584815181106101eb576101eb611d63565b60200260200101516001600160a01b03166001600160a01b0316815260200190815260200160002060008282546102229190611db1565b90915550506001016101ca565b50505b50909a9950505050505050505050565b60008181527f6751f7e27cecf86d7136f5749c224248cae80a39fafb59f8f6bf12c52816307c602052604090208054600490610100900460ff168181111561028c5761028c611dc4565b146102cc5760405162461bcd60e51b815260206004820152600b60248201526a57726f6e6720737461746560a81b60448201526064015b60405180910390fd5b6102d7826002611006565b5050565b600081815260008051602061202783398151915260209081526040808320600080516020611fe78339815191528352818420338552600582019093529220548061035a5760405162461bcd60e51b815260206004820152601060248201526f436f6c6c61746572616c20656d70747960801b60448201526064016102c3565b600060028454610100900460ff16600381111561037957610379611dc4565b03610442573360008181526005860160205260408120819055906103a090879085876110a3565b6103aa9084611db1565b60405190915033908290600081818185875af1925050503d80600081146103ed576040519150601f19603f3d011682016040523d82523d6000602084013e6103f2565b606091505b505080925050846002016000815461040990611dda565b909155506040518390339088907fd94b416f75aca5d5e5c7e359e58fa21ccbdbb8a6036f8af786e3e2ab7ceb37be90600090a4506105ba565b60018454610100900460ff16600381111561045f5761045f611dc4565b036105ba5760405163f0d826e760e01b815260048101869052600090600a90309063f0d826e790602401602060405180830381865afa1580156104a6573d6000803e3d6000fd5b505050506040513d601f19601f820116820180604052508101906104ca9190611df1565b6104d590600f611e0a565b6104df9190611d8f565b9050808311156105b85760006104f58285611e21565b33600090815260058801602052604081208054929350839290919061051b908490611e21565b909155506000905061052f883384896110a3565b6105399086611db1565b60405190915033908290600081818185875af1925050503d806000811461057c576040519150601f19603f3d011682016040523d82523d6000602084013e610581565b606091505b5050604051909450829033908a907fd94b416f75aca5d5e5c7e359e58fa21ccbdbb8a6036f8af786e3e2ab7ceb37be90600090a450505b505b806105f95760405162461bcd60e51b815260206004820152600f60248201526e15da5d1a191c985dc819985a5b1959608a1b60448201526064016102c3565b33600090815260078401602052604090205460ff16801561062a5750336000908152600a8401602052604090205415155b1561068757604051637b52069560e11b815260048101869052336024820152309063f6a40d2a90604401600060405180830381600087803b15801561066e57600080fd5b505af1158015610682573d6000803e3d6000fd5b505050505b5050505050565b806106988161112b565b8160026106a582826108b8565b60006000805160206120278339815191526000868152602091909152604081209150600080516020611fe7833981519152600087815260209190915260408082209051636b95dc3f60e11b815260048101899052909250309063d72bb87e90602401600060405180830381865afa158015610724573d6000803e3d6000fd5b505050506040513d6000823e601f3d908101601f1916820160405261074c9190810190611e34565b5050955050505050508062ed4e006107649190611db1565b42116107a45760405162461bcd60e51b815260206004820152600f60248201526e10d85b89dd08195b5c1d1e481e595d608a1b60448201526064016102c3565b6003830154600090815b8181101561084b5760008660030182815481106107cd576107cd611d63565b6000918252602080832091909101546001600160a01b031680835260058a0182526040808420805460068d0190945290842080549185905584905590935090916108198e85858c6110a3565b9050806108268385611db1565b6108309190611db1565b61083a9088611db1565b9650846001019450505050506107ae565b50610857896003611006565b604051600090339084908381818185875af1925050503d8060008114610899576040519150601f19603f3d011682016040523d82523d6000602084013e61089e565b606091505b50509050806108ac57600080fd5b50505050505050505050565b60008281526000805160206120278339815191526020526040902054610100900460ff168160038111156108ee576108ee611dc4565b81600381111561090057610900611dc4565b1461091e5760405163201328a760e01b815260040160405180910390fd5b505050565b600060606000835167ffffffffffffffff81111561094357610943611b3d565b60405190808252806020026020018201604052801561096c578160200160208202803683370190505b5090506000806000306001600160a01b031663d072f4bc8a6101000151670de0b6b3a764000061099c9190611e0a565b6040518263ffffffff1660e01b81526004016109ba91815260200190565b602060405180830381865afa1580156109d7573d6000803e3d6000fd5b505050506040513d601f19601f820116820180604052508101906109fb9190611df1565b905060005b8751811015610dd5576040805160808101825260008082526020820181905291810182905260608101919091528960060160008a8481518110610a4557610a45611d63565b6020908102919091018101516001600160a01b0316825281019190915260400160009081205460ff1615156060830152895160058e019082908c9086908110610a9057610a90611d63565b60200260200101516001600160a01b03166001600160a01b03168152602001908152602001600020549050816060015115610cc257610aec8c608001518b8581518110610adf57610adf611d63565b60200260200101516111c6565b15610cab578a600a0160008b8581518110610b0957610b09611d63565b6020908102919091018101516001600160a01b031682528101919091526040016000205460ff1615610c9557838110610b5357600182526000602083018190526040830152610cf2565b60008b60090160008c8681518110610b6d57610b6d611d63565b60200260200101516001600160a01b03166001600160a01b03168152602001908152602001600020541115610bb2576000808352600160208401526040830152610cf2565b60808c015160405163f0d826e760e01b81526004810191909152309063f0d826e790602401602060405180830381865afa158015610bf4573d6000803e3d6000fd5b505050506040513d601f19601f82011682018060405250810190610c189190611df1565b8d60060160008c8681518110610c3057610c30611d63565b60200260200101516001600160a01b03166001600160a01b031681526020019081526020016000205482610c649190611db1565b10610c7f576001808352602083015260006040830152610cf2565b6001808352602083018190526040830152610cf2565b6001808352600060208401526040830152610cf2565b600182526000602083018190526040830152610cf2565b838110610ce057600182526000602083018190526040830152610cf2565b60008083526020830152600160408301525b610d198d8c8e8d8781518110610d0a57610d0a611d63565b60200260200101518887611321565b610d239086611db1565b9450816040015115610dcb57898381518110610d4157610d41611d63565b6020026020010151878781518110610d5b57610d5b611d63565b60200260200101906001600160a01b031690816001600160a01b0316815250508a600401548b600b016000898981518110610d9857610d98611d63565b60200260200101516001600160a01b03166001600160a01b03168152602001908152602001600020819055508560010195505b5050600101610a00565b509099929850919650505050505050565b60006060600080856003018054905067ffffffffffffffff811115610e0d57610e0d611b3d565b604051908082528060200260200182016040528015610e36578160200160208202803683370190505b506003870154909150600090815b81811015610efb57886003018181548110610e6157610e61611d63565b60009182526020808320909101546001600160a01b031680835260068b0190915260409091205490955060ff16158015610eb557506001600160a01b038516600090815260048a01602052604090205460ff165b15610ef35784848481518110610ecd57610ecd611d63565b6001600160a01b039092166020928302919091019091015282610eef81611f67565b9350505b600101610e44565b5090945090925050505b9250929050565b6001600160a01b038316600090815260068501602052604090205460ff16611000576001840154600090815b81811015610f8e57866001018181548110610f5557610f55611d63565b6000918252602090912001546001600160a01b0390811690871603610f8657610f7f816001611db1565b9250610f8e565b600101610f38565b5060005b84811015610ffc576000838152600c880160205260408120855160019290879085908110610fc257610fc2611d63565b6020908102919091018101516001600160a01b03168252810191909152604001600020805460ff1916911515919091179055600101610f92565b5050505b50505050565b600082815260008051602061202783398151915260205260409020805461010080820460ff16918491849161ff0019169083600381111561104957611049611dc4565b021790555082600381111561106057611060611dc4565b81600381111561107257611072611dc4565b60405186907ffe918112a2fca8c18cc609a5d585d9fc8448267cb7b9d6c19a445fe5c0c199c890600090a450505050565b6001600160a01b038316600090815260078201602052604081205460ff161561111f576001600160a01b0384166000908152600b8301602052604081205484111561110957506001600160a01b0384166000908152600b8301602052604090205461110c565b50825b61111786828761191b565b915050611123565b5060005b949350505050565b60008181527f87101b21d556417ad2b8e8f2700dbad90721d5d50a1f435f2dee0b9dc981ac8a60205260409020546001600160a01b03620100009091041633146111c35760405162461bcd60e51b8152602060048201526024808201527f5465726d4f776e61626c653a2063616c6c6572206973206e6f7420746865206f6044820152633bb732b960e11b60648201526084016102c3565b50565b6000828152600080516020612027833981519152602090815260408083206001600160a01b03851684526005810190925282205482906112348660009081527f6751f7e27cecf86d7136f5749c224248cae80a39fafb59f8f6bf12c52816307c602052604090205460ff1690565b6112b35760405163bb91b76d60e01b81526001600160a01b038616600482015260248101879052309063bb91b76d9060440160a060405180830381865afa158015611283573d6000803e3d6000fd5b505050506040513d601f19601f820116820180604052508101906112a79190611f80565b50945061131692505050565b60405163f0d826e760e01b815260048101879052309063f0d826e790602401602060405180830381865afa1580156112ef573d6000803e3d6000fd5b505050506040513d601f19601f820116820180604052508101906113139190611df1565b91505b109150505b92915050565b6080840180516000908152600080516020611fe783398151915260205260408082209251905163d8f8e99160e01b815260048101919091529091908290309063d8f8e99190602401602060405180830381865afa158015611386573d6000803e3d6000fd5b505050506040513d601f19601f820116820180604052508101906113aa9190611fc9565b845190915080156113bd57508360200151155b15611551578360400151156114945783606001511561146d576001600160a01b038616600090815260058a0160205260408120546080890151909190611405908984876110a3565b90506114118183611db1565b61141b9086611db1565b6001600160a01b038916600081815260058e01602052604080822082905560808d01519051939850859390917f10f8476f9a23ac06c638b35201072d11e362a5abe0247195ce64284bbe94ce9a91a450505b6001600160a01b038616600090815260048a0160205260409020805460ff19169055611551565b60006114a688608001518888866110a3565b6001600160a01b038816600090815260058c0160205260408120805492935088929091906114d5908490611e21565b909155506114e590508187611db1565b6001600160a01b038316600090815260068c0160205260408120805490919061150f908490611db1565b9091555050608088015160405187916001600160a01b038a16917f10f8476f9a23ac06c638b35201072d11e362a5abe0247195ce64284bbe94ce9a90600090a4505b8360200151801561156157508351155b156116195761010087015161157990620f4240611e0a565b6001600160a01b038716600090815260098a016020526040812080549091906115a3908490611e21565b90915550506101008701516115bb90620f4240611e0a565b6001600160a01b038216600090815260098a016020526040812080549091906115e5908490611db1565b909155505061010087015160808801516040516001600160a01b038916919060008051602061200783398151915290600090a45b83518015611628575083602001515b1561190f576001600160a01b038616600090815260058a01602090815260408083205460068d019092528220546101008a015191929091309063d072f4bc9061167990670de0b6b3a7640000611e0a565b6040518263ffffffff1660e01b815260040161169791815260200190565b602060405180830381865afa1580156116b4573d6000803e3d6000fd5b505050506040513d601f19601f820116820180604052508101906116d89190611df1565b9050821561172d576116f08a608001518a85886110a3565b5060808a015160405184916001600160a01b038c16917f10f8476f9a23ac06c638b35201072d11e362a5abe0247195ce64284bbe94ce9a90600090a45b8660400151156117d6576117418284611db1565b61174b9087611db1565b955060008c60050160008b6001600160a01b03166001600160a01b031681526020019081526020016000208190555060008c60060160008b6001600160a01b03166001600160a01b031681526020019081526020016000208190555081896001600160a01b03168b6080015160008051602061200783398151915260405160405180910390a461190b565b82156118825760006117e88483611e21565b905060008d60050160008c6001600160a01b03166001600160a01b0316815260200190815260200160002081905550808d60060160008c6001600160a01b03166001600160a01b03168152602001908152602001600020600082825461184e9190611e21565b909155505060808b015160405184916001600160a01b038d169160008051602061200783398151915290600090a4506118db565b6001600160a01b038916600090815260068d016020526040812080548392906118ac908490611e21565b909155505060808a015160405182916001600160a01b038c169160008051602061200783398151915290600090a45b6001600160a01b038416600090815260068d016020526040812080548a9290611905908490611db1565b90915550505b5050505b50509695505050505050565b6000838152600080516020611fe78339815191526020526040812060058101546003820154839161194e91879190611b0f565b6001600160a01b038516600090815260098401602052604081208054929350879290919061197d908490611db1565b92505081905550848260040160008282546119989190611e21565b9091555050604080516605a61796e5a61760cc1b815260018401600782018190529151908190036027018120546816985e5b95985d5b1d60ba1b82526001600160a01b031691600091600901908152604051908190036020018120546316d5e29b60e11b82526001600160a01b039081166004830181905260248301869052604483018b9052925060009190841690632dabc536906064016020604051808303816000875af1158015611a4f573d6000803e3d6000fd5b505050506040513d601f19601f82011682018060405250810190611a739190611df1565b905087811015611a8b57600095505050505050611b08565b6000611a978983611e21565b6001600160a01b0389166000908152600888016020526040812080549293508392909190611ac6908490611db1565b90915550506001600160a01b0388166000908152600a8701602052604081208054839290611af5908490611db1565b90915550909650611b0895505050505050565b9392505050565b600081600003611b2157506000611b08565b81611b2c8486611e0a565b611b369190611d8f565b9050611b08565b634e487b7160e01b600052604160045260246000fd5b604051610160810167ffffffffffffffff81118282101715611b7757611b77611b3d565b60405290565b80151581146111c357600080fd5b8035611b9681611b7d565b919050565b803560048110611b9657600080fd5b6001600160a01b03811681146111c357600080fd5b8035611b9681611baa565b60008083601f840112611bdc57600080fd5b50813567ffffffffffffffff811115611bf457600080fd5b6020830191508360208260051b8501011115610f0557600080fd5b6000806000838503610180811215611c2657600080fd5b61016080821215611c3657600080fd5b611c3e611b53565b9150611c4986611b8b565b8252611c5760208701611b9b565b6020830152611c6860408701611bbf565b6040830152606086013560608301526080860135608083015260a086013560a083015260c086013560c083015260e086013560e0830152610100808701358184015250610120808701358184015250610140611cc5818801611bbf565b9083015290935084013567ffffffffffffffff811115611ce457600080fd5b611cf086828701611bca565b9497909650939450505050565b6020808252825182820181905260009190848201906040850190845b81811015611d3e5783516001600160a01b031683529284019291840191600101611d19565b50909695505050505050565b600060208284031215611d5c57600080fd5b5035919050565b634e487b7160e01b600052603260045260246000fd5b634e487b7160e01b600052601160045260246000fd5b600082611dac57634e487b7160e01b600052601260045260246000fd5b500490565b8082018082111561131b5761131b611d79565b634e487b7160e01b600052602160045260246000fd5b600081611de957611de9611d79565b506000190190565b600060208284031215611e0357600080fd5b5051919050565b808202811582820484141761131b5761131b611d79565b8181038181111561131b5761131b611d79565b600080600080600080600080610100898b031215611e5157600080fd5b8851611e5c81611b7d565b809850506020808a015160058110611e7357600080fd5b60408b0151909850611e8481611baa565b60608b015190975067ffffffffffffffff80821115611ea257600080fd5b818c0191508c601f830112611eb657600080fd5b815181811115611ec857611ec8611b3d565b8060051b604051601f19603f83011681018181108582111715611eed57611eed611b3d565b60405291825284820192508381018501918f831115611f0b57600080fd5b938501935b82851015611f355784519150611f2582611baa565b8184529385019392850192611f10565b809a505050505050506080890151935060a0890151925060c0890151915060e089015190509295985092959890939650565b600060018201611f7957611f79611d79565b5060010190565b600080600080600060a08688031215611f9857600080fd5b8551611fa381611b7d565b602087015160408801516060890151608090990151929a91995097965090945092505050565b600060208284031215611fdb57600080fd5b8151611b0881611baa56fe29d9cba46c358ba7c1b8945751229339792c7c62e3197c240fa98916e75ffbf99ecbf86544b133eb80eba635946daf018f997778387601f4c8d43c851b2ec07435fa70a6f9ae8a4d427ebe0c1be62ffd2870fecc1df41c6fda0bf5803e562888a26469706673582212203fdc677d4f4e5dbaae51b3ccbbf14db972b7881abe8a355ba59a43f09a3aaa0464736f6c63430008120033",
  "devdoc": {
    "author": "Aisha El Allam",
    "details": "v3.0 (Diamond)",
    "kind": "dev",
    "methods": {
      "emptyCollateralAfterEnd(uint256)": {
        "params": {
          "termId": "The term id"
        }
      },
      "releaseCollateral(uint256)": {
        "params": {
          "termId": "term id"
        }
      },
      "requestContribution((bool,uint8,address,uint256,uint256,uint256,uint256,uint256,uint256,uint256,address),address[])": {
        "details": "Check EnumerableMap (openzeppelin) for arrays that are being accessed from Fund contract",
        "params": {
          "defaulters": "Addressess of all defaulters of the current cycle"
        },
        "returns": {
          "_0": "expellants array of addresses that were expelled"
        }
      },
      "withdrawCollateral(uint256)": {
        "details": "This follows the pull-over-push pattern.",
        "params": {
          "termId": "term id"
        }
      }
    },
    "title": "Takaturn Collateral",
    "version": 1
  },
  "userdoc": {
    "kind": "user",
    "methods": {
      "emptyCollateralAfterEnd(uint256)": {
        "notice": "allow the owner to empty the Collateral after 180 days"
      },
      "requestContribution((bool,uint8,address,uint256,uint256,uint256,uint256,uint256,uint256,uint256,address),address[])": {
        "notice": "Called from Fund contract when someone defaults"
      },
      "withdrawCollateral(uint256)": {
        "notice": "Called by each member after during or at the end of the term to withraw collateral"
      }
    },
    "notice": "This is used to operate the Takaturn collateral",
    "version": 1
  },
  "storageLayout": {
    "storage": [],
    "types": null
  }
}