{
  "address": "0x4A6e9b55ad2cc1b4AFcd75B90b6Df4ef8C68C5A5",
  "abi": [
    {
      "inputs": [],
      "name": "FunctionInvalidAtThisState",
      "type": "error"
    },
    {
      "anonymous": false,
      "inputs": [
        {
          "indexed": true,
          "internalType": "uint256",
          "name": "termId",
          "type": "uint256"
        },
        {
          "indexed": true,
          "internalType": "address",
          "name": "user",
          "type": "address"
        },
        {
          "indexed": true,
          "internalType": "uint256",
          "name": "amount",
          "type": "uint256"
        }
      ],
      "name": "OnCollateralLiquidated",
      "type": "event"
    },
    {
      "anonymous": false,
      "inputs": [
        {
          "indexed": true,
          "internalType": "uint256",
          "name": "termId",
          "type": "uint256"
        },
        {
          "indexed": true,
          "internalType": "enum LibCollateralStorage.CollateralStates",
          "name": "oldState",
          "type": "uint8"
        },
        {
          "indexed": true,
          "internalType": "enum LibCollateralStorage.CollateralStates",
          "name": "newState",
          "type": "uint8"
        }
      ],
      "name": "OnCollateralStateChanged",
      "type": "event"
    },
    {
      "anonymous": false,
      "inputs": [
        {
          "indexed": true,
          "internalType": "uint256",
          "name": "termId",
          "type": "uint256"
        },
        {
          "indexed": true,
          "internalType": "address",
          "name": "user",
          "type": "address"
        },
        {
          "indexed": true,
          "internalType": "uint256",
          "name": "collateralAmount",
          "type": "uint256"
        }
      ],
      "name": "OnCollateralWithdrawal",
      "type": "event"
    },
    {
      "anonymous": false,
      "inputs": [
        {
          "indexed": true,
          "internalType": "uint256",
          "name": "termId",
          "type": "uint256"
        },
        {
          "indexed": true,
          "internalType": "address",
          "name": "user",
          "type": "address"
        },
        {
          "indexed": true,
          "internalType": "uint256",
          "name": "amount",
          "type": "uint256"
        }
      ],
      "name": "OnFrozenMoneyPotLiquidated",
      "type": "event"
    },
    {
      "anonymous": false,
      "inputs": [
        {
          "indexed": true,
          "internalType": "uint256",
          "name": "termId",
          "type": "uint256"
        },
        {
          "indexed": true,
          "internalType": "address",
          "name": "user",
          "type": "address"
        },
        {
          "indexed": true,
          "internalType": "uint256",
          "name": "amount",
          "type": "uint256"
        }
      ],
      "name": "OnReimbursementWithdrawn",
      "type": "event"
    },
    {
      "inputs": [
        {
          "internalType": "uint256",
          "name": "termId",
          "type": "uint256"
        }
      ],
      "name": "emptyCollateralAfterEnd",
      "outputs": [],
      "stateMutability": "nonpayable",
      "type": "function"
    },
    {
      "inputs": [
        {
          "internalType": "uint256",
          "name": "termId",
          "type": "uint256"
        }
      ],
      "name": "releaseCollateral",
      "outputs": [],
      "stateMutability": "nonpayable",
      "type": "function"
    },
    {
      "inputs": [
        {
          "components": [
            {
              "internalType": "bool",
              "name": "initialized",
              "type": "bool"
            },
            {
              "internalType": "enum LibTermStorage.TermStates",
              "name": "state",
              "type": "uint8"
            },
            {
              "internalType": "address",
              "name": "termOwner",
              "type": "address"
            },
            {
              "internalType": "uint256",
              "name": "creationTime",
              "type": "uint256"
            },
            {
              "internalType": "uint256",
              "name": "termId",
              "type": "uint256"
            },
            {
              "internalType": "uint256",
              "name": "registrationPeriod",
              "type": "uint256"
            },
            {
              "internalType": "uint256",
              "name": "totalParticipants",
              "type": "uint256"
            },
            {
              "internalType": "uint256",
              "name": "cycleTime",
              "type": "uint256"
            },
            {
              "internalType": "uint256",
              "name": "contributionAmount",
              "type": "uint256"
            },
            {
              "internalType": "uint256",
              "name": "contributionPeriod",
              "type": "uint256"
            },
            {
              "internalType": "address",
              "name": "stableTokenAddress",
              "type": "address"
            }
          ],
          "internalType": "struct LibTermStorage.Term",
          "name": "term",
          "type": "tuple"
        },
        {
          "internalType": "address[]",
          "name": "defaulters",
          "type": "address[]"
        }
      ],
      "name": "requestContribution",
      "outputs": [
        {
          "internalType": "address[]",
          "name": "",
          "type": "address[]"
        }
      ],
      "stateMutability": "nonpayable",
      "type": "function"
    },
    {
      "inputs": [
        {
          "internalType": "uint256",
          "name": "termId",
          "type": "uint256"
        }
      ],
      "name": "withdrawCollateral",
      "outputs": [],
      "stateMutability": "nonpayable",
      "type": "function"
    }
  ],
  "transactionHash": "0x2a9b25755d25deccce81b4ca22accad0ba99e945b7e2035f2f4f0aad0fb38c6c",
  "args": [],
  "numDeployments": 16,
  "solcInputHash": "9664513f6c7e4e85eba563936a413441",
  "bytecode": "0x608060405234801561001057600080fd5b5061221f806100206000396000f3fe608060405234801561001057600080fd5b506004361061004c5760003560e01c80632081c1af1461005157806339007b771461007a5780636112fe2e1461008f578063c3bfb61c146100a2575b600080fd5b61006461005f366004611d75565b6100b5565b6040516100719190611e63565b60405180910390f35b61008d610088366004611eb0565b610230565b005b61008d61009d366004611eb0565b6102b7565b61008d6100b0366004611eb0565b610827565b6060836080015160016100c88282610a51565b60808601805160009081526000805160206121ca833981519152602090815260408083209351835260008051602061218a833981519152909152902030331461011057600080fd5b600080610152848b858c8c80806020026020016040519081016040528093929190818152602001838360200280828437600092019190915250610abc92505050565b915091506000806101638686610f7f565b9092509050811561022057825160005b818110156101a8576101a08786838151811061019157610191611ec9565b602002602001015186866110a5565b600101610173565b506101b38386611ef5565b945060005b8381101561021d57858860060160008584815181106101d9576101d9611ec9565b60200260200101516001600160a01b03166001600160a01b0316815260200190815260200160002060008282546102109190611f17565b90915550506001016101b8565b50505b50909a9950505050505050505050565b600081815260008051602061218a833981519152602052604090208054600490610100900460ff168181111561026857610268611f2a565b146102a85760405162461bcd60e51b815260206004820152600b60248201526a57726f6e6720737461746560a81b60448201526064015b60405180910390fd5b6102b382600261119f565b5050565b600081815260008051602061218a833981519152602090815260408083206000805160206121ca833981519152835281842060008051602061216a83398151915284528285207f87101b21d556417ad2b8e8f2700dbad90721d5d50a1f435f2dee0b9dc981ac8a855283862084516101608101909552805460ff808216151587529497939692959394919284019161010090910416600381111561035d5761035d611f2a565b600381111561036e5761036e611f2a565b815281546001600160a01b0362010000909104811660208084019190915260018401546040808501919091526002850154606085015260038501546080850152600485015460a085015260058086015460c0860152600686015460e08601526007860154610100860152600890950154909216610120909301929092523360009081529287019091529020549091508061043d5760405162461bcd60e51b815260206004820152601060248201526f436f6c6c61746572616c20656d70747960801b604482015260640161029f565b60405163d7992e5b60e01b8152600481018790523360248201526000908190309063d7992e5b90604401602060405180830381865afa158015610484573d6000803e3d6000fd5b505050506040513d601f19601f820116820180604052508101906104a89190611f40565b80156104c6575033600090815260068801602052604090205460ff16155b905060028654610100900460ff1660038111156104e5576104e5611f2a565b14806104ee5750805b156105e75733600090815260058701602052604081205560028460200151600381111561051d5761051d611f2a565b146105305761052e8833858861123c565b505b60405133908490600081818185875af1925050503d8060008114610570576040519150601f19603f3d011682016040523d82523d6000602084013e610575565b606091505b50909250600290508654610100900460ff16600381111561059857610598611f2a565b036105b35785600201600081546105ae90611f5d565b909155505b604051839033908a907fd94b416f75aca5d5e5c7e359e58fa21ccbdbb8a6036f8af786e3e2ab7ceb37be90600090a4610750565b60018654610100900460ff16600381111561060457610604611f2a565b036107505760405163f0d826e760e01b815260048101899052600090600a90309063f0d826e790602401602060405180830381865afa15801561064b573d6000803e3d6000fd5b505050506040513d601f19601f8201168201806040525081019061066f9190611f74565b61067a90600f611f8d565b6106849190611ef5565b90508084111561074e57600061069a8286611fa4565b33600090815260058a0160205260408120805492935083929091906106c0908490611fa4565b909155506106d290508a33838a61123c565b5060405133908290600081818185875af1925050503d8060008114610713576040519150601f19603f3d011682016040523d82523d6000602084013e610718565b606091505b5050604051909450819033908c907fd94b416f75aca5d5e5c7e359e58fa21ccbdbb8a6036f8af786e3e2ab7ceb37be90600090a4505b505b8161078f5760405162461bcd60e51b815260206004820152600f60248201526e15da5d1a191c985dc819985a5b1959608a1b604482015260640161029f565b33600090815260078601602052604090205460ff1680156107c05750336000908152600a8601602052604090205415155b1561081d57604051637b52069560e11b815260048101899052336024820152309063f6a40d2a90604401600060405180830381600087803b15801561080457600080fd5b505af1158015610818573d6000803e3d6000fd5b505050505b5050505050505050565b80610831816112c4565b81600261083e8282610a51565b60006000805160206121ca833981519152600086815260209190915260408120915060008051602061216a833981519152600087815260209190915260408082209051636b95dc3f60e11b815260048101899052909250309063d72bb87e90602401600060405180830381865afa1580156108bd573d6000803e3d6000fd5b505050506040513d6000823e601f3d908101601f191682016040526108e59190810190611fb7565b5050955050505050508062ed4e006108fd9190611f17565b421161093d5760405162461bcd60e51b815260206004820152600f60248201526e10d85b89dd08195b5c1d1e481e595d608a1b604482015260640161029f565b6003830154600090815b818110156109e457600086600301828154811061096657610966611ec9565b6000918252602080832091909101546001600160a01b031680835260058a0182526040808420805460068d0190945290842080549185905584905590935090916109b28e85858c61123c565b9050806109bf8385611f17565b6109c99190611f17565b6109d39088611f17565b965084600101945050505050610947565b506109f089600361119f565b604051600090339084908381818185875af1925050503d8060008114610a32576040519150601f19603f3d011682016040523d82523d6000602084013e610a37565b606091505b5050905080610a4557600080fd5b50505050505050505050565b60008281526000805160206121ca8339815191526020526040902054610100900460ff16816003811115610a8757610a87611f2a565b816003811115610a9957610a99611f2a565b14610ab75760405163201328a760e01b815260040160405180910390fd5b505050565b600060606000835167ffffffffffffffff811115610adc57610adc611ca3565b604051908082528060200260200182016040528015610b05578160200160208202803683370190505b5090506000806000306001600160a01b031663d072f4bc8a6101000151670de0b6b3a7640000610b359190611f8d565b6040518263ffffffff1660e01b8152600401610b5391815260200190565b602060405180830381865afa158015610b70573d6000803e3d6000fd5b505050506040513d601f19601f82011682018060405250810190610b949190611f74565b905060005b8751811015610f6e576040805160808101825260008082526020820181905291810182905260608101919091528960060160008a8481518110610bde57610bde611ec9565b6020908102919091018101516001600160a01b0316825281019190915260400160009081205460ff1615156060830152895160058e019082908c9086908110610c2957610c29611ec9565b60200260200101516001600160a01b03166001600160a01b03168152602001908152602001600020549050816060015115610e5b57610c858c608001518b8581518110610c7857610c78611ec9565b602002602001015161135f565b15610e44578a600a0160008b8581518110610ca257610ca2611ec9565b6020908102919091018101516001600160a01b031682528101919091526040016000205460ff1615610e2e57838110610cec57600182526000602083018190526040830152610e8b565b60008b60090160008c8681518110610d0657610d06611ec9565b60200260200101516001600160a01b03166001600160a01b03168152602001908152602001600020541115610d4b576000808352600160208401526040830152610e8b565b60808c015160405163f0d826e760e01b81526004810191909152309063f0d826e790602401602060405180830381865afa158015610d8d573d6000803e3d6000fd5b505050506040513d601f19601f82011682018060405250810190610db19190611f74565b8d60060160008c8681518110610dc957610dc9611ec9565b60200260200101516001600160a01b03166001600160a01b031681526020019081526020016000205482610dfd9190611f17565b10610e18576001808352602083015260006040830152610e8b565b6001808352602083018190526040830152610e8b565b6001808352600060208401526040830152610e8b565b600182526000602083018190526040830152610e8b565b838110610e7957600182526000602083018190526040830152610e8b565b60008083526020830152600160408301525b610eb28d8c8e8d8781518110610ea357610ea3611ec9565b602002602001015188876114a8565b610ebc9086611f17565b9450816040015115610f6457898381518110610eda57610eda611ec9565b6020026020010151878781518110610ef457610ef4611ec9565b60200260200101906001600160a01b031690816001600160a01b0316815250508a600401548b600b016000898981518110610f3157610f31611ec9565b60200260200101516001600160a01b03166001600160a01b03168152602001908152602001600020819055508560010195505b5050600101610b99565b509099929850919650505050505050565b60006060600080856003018054905067ffffffffffffffff811115610fa657610fa6611ca3565b604051908082528060200260200182016040528015610fcf578160200160208202803683370190505b506003870154909150600090815b8181101561109457886003018181548110610ffa57610ffa611ec9565b60009182526020808320909101546001600160a01b031680835260068b0190915260409091205490955060ff1615801561104e57506001600160a01b038516600090815260048a01602052604090205460ff165b1561108c578484848151811061106657611066611ec9565b6001600160a01b039092166020928302919091019091015282611088816120ea565b9350505b600101610fdd565b5090945090925050505b9250929050565b6001600160a01b038316600090815260068501602052604090205460ff16611199576001840154600090815b81811015611127578660010181815481106110ee576110ee611ec9565b6000918252602090912001546001600160a01b039081169087160361111f57611118816001611f17565b9250611127565b6001016110d1565b5060005b84811015611195576000838152600c88016020526040812085516001929087908590811061115b5761115b611ec9565b6020908102919091018101516001600160a01b03168252810191909152604001600020805460ff191691151591909117905560010161112b565b5050505b50505050565b60008281526000805160206121ca83398151915260205260409020805461010080820460ff16918491849161ff001916908360038111156111e2576111e2611f2a565b02179055508260038111156111f9576111f9611f2a565b81600381111561120b5761120b611f2a565b60405186907ffe918112a2fca8c18cc609a5d585d9fc8448267cb7b9d6c19a445fe5c0c199c890600090a450505050565b6001600160a01b038316600090815260078201602052604081205460ff16156112b8576001600160a01b0384166000908152600b830160205260408120548411156112a257506001600160a01b0384166000908152600b830160205260409020546112a5565b50825b6112b0868287611a81565b9150506112bc565b5060005b949350505050565b60008181527f87101b21d556417ad2b8e8f2700dbad90721d5d50a1f435f2dee0b9dc981ac8a60205260409020546001600160a01b036201000090910416331461135c5760405162461bcd60e51b8152602060048201526024808201527f5465726d4f776e61626c653a2063616c6c6572206973206e6f7420746865206f6044820152633bb732b960e11b606482015260840161029f565b50565b60008281526000805160206121ca833981519152602090815260408083206001600160a01b03851684526005810190925282205482906113bb86600090815260008051602061218a833981519152602052604090205460ff1690565b61143a5760405163bb91b76d60e01b81526001600160a01b038616600482015260248101879052309063bb91b76d9060440160a060405180830381865afa15801561140a573d6000803e3d6000fd5b505050506040513d601f19601f8201168201806040525081019061142e9190612103565b955061149d9350505050565b60405163f0d826e760e01b815260048101879052309063f0d826e790602401602060405180830381865afa158015611476573d6000803e3d6000fd5b505050506040513d601f19601f8201168201806040525081019061149a9190611f74565b91505b109150505b92915050565b608084018051600090815260008051602061216a83398151915260205260408082209251905163d8f8e99160e01b815260048101919091529091908290309063d8f8e99190602401602060405180830381865afa15801561150d573d6000803e3d6000fd5b505050506040513d601f19601f82011682018060405250810190611531919061214c565b8451909150801561154457508360200151155b156116b75783604001511561160c578360600151156115e5576001600160a01b038616600090815260058a01602052604090205460808801516115899088838661123c565b506115948185611f17565b6001600160a01b038816600081815260058d01602052604080822082905560808c01519051939750849390917f10f8476f9a23ac06c638b35201072d11e362a5abe0247195ce64284bbe94ce9a91a4505b6001600160a01b038616600090815260048a0160205260409020805460ff191690556116b7565b61161c876080015187878561123c565b506001600160a01b038616600090815260058a01602052604081208054879290611647908490611fa4565b90915550506001600160a01b038116600090815260068a01602052604081208054879290611676908490611f17565b9091555050608087015160405186916001600160a01b038916917f10f8476f9a23ac06c638b35201072d11e362a5abe0247195ce64284bbe94ce9a90600090a45b836020015180156116c757508351155b1561177f576101008701516116df90620f4240611f8d565b6001600160a01b038716600090815260098a01602052604081208054909190611709908490611fa4565b909155505061010087015161172190620f4240611f8d565b6001600160a01b038216600090815260098a0160205260408120805490919061174b908490611f17565b909155505061010087015160808801516040516001600160a01b03891691906000805160206121aa83398151915290600090a45b8351801561178e575083602001515b15611a75576001600160a01b038616600090815260058a01602090815260408083205460068d019092528220546101008a015191929091309063d072f4bc906117df90670de0b6b3a7640000611f8d565b6040518263ffffffff1660e01b81526004016117fd91815260200190565b602060405180830381865afa15801561181a573d6000803e3d6000fd5b505050506040513d601f19601f8201168201806040525081019061183e9190611f74565b90508215611893576118568a608001518a858861123c565b5060808a015160405184916001600160a01b038c16917f10f8476f9a23ac06c638b35201072d11e362a5abe0247195ce64284bbe94ce9a90600090a45b86604001511561193c576118a78284611f17565b6118b19087611f17565b955060008c60050160008b6001600160a01b03166001600160a01b031681526020019081526020016000208190555060008c60060160008b6001600160a01b03166001600160a01b031681526020019081526020016000208190555081896001600160a01b03168b608001516000805160206121aa83398151915260405160405180910390a4611a71565b82156119e857600061194e8483611fa4565b905060008d60050160008c6001600160a01b03166001600160a01b0316815260200190815260200160002081905550808d60060160008c6001600160a01b03166001600160a01b0316815260200190815260200160002060008282546119b49190611fa4565b909155505060808b015160405184916001600160a01b038d16916000805160206121aa83398151915290600090a450611a41565b6001600160a01b038916600090815260068d01602052604081208054839290611a12908490611fa4565b909155505060808a015160405182916001600160a01b038c16916000805160206121aa83398151915290600090a45b6001600160a01b038416600090815260068d016020526040812080548a9290611a6b908490611f17565b90915550505b5050505b50509695505050505050565b600083815260008051602061216a83398151915260205260408120600581015460038201548391611ab491879190611c75565b6001600160a01b0385166000908152600984016020526040812080549293508792909190611ae3908490611f17565b9250508190555084826004016000828254611afe9190611fa4565b9091555050604080516605a61796e5a61760cc1b815260018401600782018190529151908190036027018120546816985e5b95985d5b1d60ba1b82526001600160a01b031691600091600901908152604051908190036020018120546316d5e29b60e11b82526001600160a01b039081166004830181905260248301869052604483018b9052925060009190841690632dabc536906064016020604051808303816000875af1158015611bb5573d6000803e3d6000fd5b505050506040513d601f19601f82011682018060405250810190611bd99190611f74565b905087811015611bf157600095505050505050611c6e565b6000611bfd8983611fa4565b6001600160a01b0389166000908152600888016020526040812080549293508392909190611c2c908490611f17565b90915550506001600160a01b0388166000908152600a8701602052604081208054839290611c5b908490611f17565b90915550909650611c6e95505050505050565b9392505050565b600081600003611c8757506000611c6e565b81611c928486611f8d565b611c9c9190611ef5565b9050611c6e565b634e487b7160e01b600052604160045260246000fd5b604051610160810167ffffffffffffffff81118282101715611cdd57611cdd611ca3565b60405290565b801515811461135c57600080fd5b8035611cfc81611ce3565b919050565b803560048110611cfc57600080fd5b6001600160a01b038116811461135c57600080fd5b8035611cfc81611d10565b60008083601f840112611d4257600080fd5b50813567ffffffffffffffff811115611d5a57600080fd5b6020830191508360208260051b850101111561109e57600080fd5b6000806000838503610180811215611d8c57600080fd5b61016080821215611d9c57600080fd5b611da4611cb9565b9150611daf86611cf1565b8252611dbd60208701611d01565b6020830152611dce60408701611d25565b6040830152606086013560608301526080860135608083015260a086013560a083015260c086013560c083015260e086013560e0830152610100808701358184015250610120808701358184015250610140611e2b818801611d25565b9083015290935084013567ffffffffffffffff811115611e4a57600080fd5b611e5686828701611d30565b9497909650939450505050565b6020808252825182820181905260009190848201906040850190845b81811015611ea45783516001600160a01b031683529284019291840191600101611e7f565b50909695505050505050565b600060208284031215611ec257600080fd5b5035919050565b634e487b7160e01b600052603260045260246000fd5b634e487b7160e01b600052601160045260246000fd5b600082611f1257634e487b7160e01b600052601260045260246000fd5b500490565b808201808211156114a2576114a2611edf565b634e487b7160e01b600052602160045260246000fd5b600060208284031215611f5257600080fd5b8151611c6e81611ce3565b600081611f6c57611f6c611edf565b506000190190565b600060208284031215611f8657600080fd5b5051919050565b80820281158282048414176114a2576114a2611edf565b818103818111156114a2576114a2611edf565b600080600080600080600080610100898b031215611fd457600080fd5b8851611fdf81611ce3565b809850506020808a015160058110611ff657600080fd5b60408b015190985061200781611d10565b60608b015190975067ffffffffffffffff8082111561202557600080fd5b818c0191508c601f83011261203957600080fd5b81518181111561204b5761204b611ca3565b8060051b604051601f19603f8301168101818110858211171561207057612070611ca3565b60405291825284820192508381018501918f83111561208e57600080fd5b938501935b828510156120b857845191506120a882611d10565b8184529385019392850192612093565b809a505050505050506080890151935060a0890151925060c0890151915060e089015190509295985092959890939650565b6000600182016120fc576120fc611edf565b5060010190565b600080600080600060a0868803121561211b57600080fd5b855161212681611ce3565b602087015160408801516060890151608090990151929a91995097965090945092505050565b60006020828403121561215e57600080fd5b8151611c6e81611d1056fe29d9cba46c358ba7c1b8945751229339792c7c62e3197c240fa98916e75ffbf96751f7e27cecf86d7136f5749c224248cae80a39fafb59f8f6bf12c52816307c9ecbf86544b133eb80eba635946daf018f997778387601f4c8d43c851b2ec07435fa70a6f9ae8a4d427ebe0c1be62ffd2870fecc1df41c6fda0bf5803e562888a26469706673582212200a836ec53d251ca38a876cf98215855162d14aa12fe332b2a669c9ea21d373f564736f6c63430008120033",
  "devdoc": {
    "author": "Aisha El Allam",
    "details": "v3.0 (Diamond)",
    "kind": "dev",
    "methods": {
      "emptyCollateralAfterEnd(uint256)": {
        "params": {
          "termId": "The term id"
        }
      },
      "releaseCollateral(uint256)": {
        "params": {
          "termId": "term id"
        }
      },
      "requestContribution((bool,uint8,address,uint256,uint256,uint256,uint256,uint256,uint256,uint256,address),address[])": {
        "details": "Check EnumerableMap (openzeppelin) for arrays that are being accessed from Fund contract",
        "params": {
          "defaulters": "Addressess of all defaulters of the current cycle"
        },
        "returns": {
          "_0": "expellants array of addresses that were expelled"
        }
      },
      "withdrawCollateral(uint256)": {
        "details": "This follows the pull-over-push pattern.",
        "params": {
          "termId": "term id"
        }
      }
    },
    "title": "Takaturn Collateral",
    "version": 1
  },
  "userdoc": {
    "kind": "user",
    "methods": {
      "emptyCollateralAfterEnd(uint256)": {
        "notice": "allow the owner to empty the Collateral after 180 days"
      },
      "requestContribution((bool,uint8,address,uint256,uint256,uint256,uint256,uint256,uint256,uint256,address),address[])": {
        "notice": "Called from Fund contract when someone defaults"
      },
      "withdrawCollateral(uint256)": {
        "notice": "Called by each member after during or at the end of the term to withraw collateral"
      }
    },
    "notice": "This is used to operate the Takaturn collateral",
    "version": 1
  },
  "storageLayout": {
    "storage": [],
    "types": null
  }
}