{
  "address": "0xa9D1D67189d9bf0D127363F71F470E4A7e642D84",
  "abi": [
    {
      "inputs": [],
      "name": "FunctionInvalidAtThisState",
      "type": "error"
    },
    {
      "anonymous": false,
      "inputs": [
        {
          "indexed": true,
          "internalType": "uint256",
          "name": "termId",
          "type": "uint256"
        },
        {
          "indexed": true,
          "internalType": "address",
          "name": "user",
          "type": "address"
        },
        {
          "indexed": true,
          "internalType": "uint256",
          "name": "amount",
          "type": "uint256"
        }
      ],
      "name": "OnCollateralLiquidated",
      "type": "event"
    },
    {
      "anonymous": false,
      "inputs": [
        {
          "indexed": true,
          "internalType": "uint256",
          "name": "termId",
          "type": "uint256"
        },
        {
          "indexed": true,
          "internalType": "enum LibCollateralStorage.CollateralStates",
          "name": "oldState",
          "type": "uint8"
        },
        {
          "indexed": true,
          "internalType": "enum LibCollateralStorage.CollateralStates",
          "name": "newState",
          "type": "uint8"
        }
      ],
      "name": "OnCollateralStateChanged",
      "type": "event"
    },
    {
      "anonymous": false,
      "inputs": [
        {
          "indexed": true,
          "internalType": "uint256",
          "name": "termId",
          "type": "uint256"
        },
        {
          "indexed": true,
          "internalType": "address",
          "name": "user",
          "type": "address"
        },
        {
          "indexed": true,
          "internalType": "uint256",
          "name": "collateralAmount",
          "type": "uint256"
        }
      ],
      "name": "OnCollateralWithdrawal",
      "type": "event"
    },
    {
      "anonymous": false,
      "inputs": [
        {
          "indexed": true,
          "internalType": "uint256",
          "name": "termId",
          "type": "uint256"
        },
        {
          "indexed": true,
          "internalType": "address",
          "name": "user",
          "type": "address"
        },
        {
          "indexed": true,
          "internalType": "uint256",
          "name": "amount",
          "type": "uint256"
        }
      ],
      "name": "OnFrozenMoneyPotLiquidated",
      "type": "event"
    },
    {
      "anonymous": false,
      "inputs": [
        {
          "indexed": true,
          "internalType": "uint256",
          "name": "termId",
          "type": "uint256"
        },
        {
          "indexed": true,
          "internalType": "address",
          "name": "user",
          "type": "address"
        },
        {
          "indexed": true,
          "internalType": "uint256",
          "name": "amount",
          "type": "uint256"
        }
      ],
      "name": "OnReimbursementWithdrawn",
      "type": "event"
    },
    {
      "inputs": [
        {
          "internalType": "uint256",
          "name": "termId",
          "type": "uint256"
        }
      ],
      "name": "emptyCollateralAfterEnd",
      "outputs": [],
      "stateMutability": "nonpayable",
      "type": "function"
    },
    {
      "inputs": [
        {
          "internalType": "uint256",
          "name": "termId",
          "type": "uint256"
        },
        {
          "internalType": "address",
          "name": "member",
          "type": "address"
        }
      ],
      "name": "isUnderCollaterized",
      "outputs": [
        {
          "internalType": "bool",
          "name": "",
          "type": "bool"
        }
      ],
      "stateMutability": "view",
      "type": "function"
    },
    {
      "inputs": [
        {
          "internalType": "uint256",
          "name": "termId",
          "type": "uint256"
        }
      ],
      "name": "releaseCollateral",
      "outputs": [],
      "stateMutability": "nonpayable",
      "type": "function"
    },
    {
      "inputs": [
        {
          "components": [
            {
              "internalType": "bool",
              "name": "initialized",
              "type": "bool"
            },
            {
              "internalType": "enum LibTerm.TermStates",
              "name": "state",
              "type": "uint8"
            },
            {
              "internalType": "address",
              "name": "termOwner",
              "type": "address"
            },
            {
              "internalType": "uint256",
              "name": "creationTime",
              "type": "uint256"
            },
            {
              "internalType": "uint256",
              "name": "termId",
              "type": "uint256"
            },
            {
              "internalType": "uint256",
              "name": "registrationPeriod",
              "type": "uint256"
            },
            {
              "internalType": "uint256",
              "name": "totalParticipants",
              "type": "uint256"
            },
            {
              "internalType": "uint256",
              "name": "cycleTime",
              "type": "uint256"
            },
            {
              "internalType": "uint256",
              "name": "contributionAmount",
              "type": "uint256"
            },
            {
              "internalType": "uint256",
              "name": "contributionPeriod",
              "type": "uint256"
            },
            {
              "internalType": "address",
              "name": "stableTokenAddress",
              "type": "address"
            }
          ],
          "internalType": "struct LibTerm.Term",
          "name": "term",
          "type": "tuple"
        },
        {
          "internalType": "address[]",
          "name": "defaulters",
          "type": "address[]"
        }
      ],
      "name": "requestContribution",
      "outputs": [
        {
          "internalType": "address[]",
          "name": "",
          "type": "address[]"
        }
      ],
      "stateMutability": "nonpayable",
      "type": "function"
    },
    {
      "inputs": [
        {
          "internalType": "uint256",
          "name": "termId",
          "type": "uint256"
        }
      ],
      "name": "withdrawCollateral",
      "outputs": [],
      "stateMutability": "nonpayable",
      "type": "function"
    },
    {
      "inputs": [
        {
          "internalType": "uint256",
          "name": "termId",
          "type": "uint256"
        },
        {
          "internalType": "address",
          "name": "depositor",
          "type": "address"
        }
      ],
      "name": "withdrawReimbursement",
      "outputs": [],
      "stateMutability": "nonpayable",
      "type": "function"
    }
  ],
  "transactionHash": "0x4b4fd133c0c5bee969016bc9c02a26f546b649d1615554b38feacdbd9049f269",
  "args": [],
  "numDeployments": 7,
  "solcInputHash": "d56c373fa6e3acb1f7b405801ddac8d0",
  "bytecode": "0x608060405234801561001057600080fd5b50612033806100206000396000f3fe608060405234801561001057600080fd5b50600436106100625760003560e01c80632081c1af1461006757806339007b77146100905780636112fe2e146100a5578063ae483d07146100b8578063c177f091146100cb578063c3bfb61c146100ee575b600080fd5b61007a610075366004611b8f565b610101565b6040516100879190611c7d565b60405180910390f35b6100a361009e366004611cca565b610270565b005b6100a36100b3366004611cca565b6102f7565b6100a36100c6366004611ce3565b610681565b6100de6100d9366004611ce3565b610806565b6040519015158152602001610087565b6100a36100fc366004611cca565b61081b565b6060836080015160016101148282610a57565b6080860180516000908152600080516020611fde8339815191526020908152604080832093518352600080516020611f9e83398151915282528083208151898402818101850190935289815290939283926101929287928e928892918f918f91829190850190849080828437600092019190915250610ac292505050565b915091506000806101a38686610f85565b9092509050811561026057825160005b818110156101e8576101e0878683815181106101d1576101d1611d13565b602002602001015186866110ab565b6001016101b3565b506101f38386611d3f565b945060005b8381101561025d578588600601600085848151811061021957610219611d13565b60200260200101516001600160a01b03166001600160a01b0316815260200190815260200160002060008282546102509190611d61565b90915550506001016101f8565b50505b50909a9950505050505050505050565b6000818152600080516020611f9e833981519152602052604090208054600490610100900460ff16818111156102a8576102a8611d74565b146102e85760405162461bcd60e51b815260206004820152600b60248201526a57726f6e6720737461746560a81b60448201526064015b60405180910390fd5b6102f38260026111a5565b5050565b6000818152600080516020611fde833981519152602090815260408083207f29d9cba46c358ba7c1b8945751229339792c7c62e3197c240fa98916e75ffbf9835281842033855260058201909352922054806103885760405162461bcd60e51b815260206004820152601060248201526f436f6c6c61746572616c20656d70747960801b60448201526064016102df565b600060028454610100900460ff1660038111156103a7576103a7611d74565b03610460573360008181526005860160205260408120556103cb9086908486611242565b5060405133908390600081818185875af1925050503d806000811461040c576040519150601f19603f3d011682016040523d82523d6000602084013e610411565b606091505b505080915050836002016000815461042890611d8a565b909155506040518290339087907fd94b416f75aca5d5e5c7e359e58fa21ccbdbb8a6036f8af786e3e2ab7ceb37be90600090a46105c9565b60018454610100900460ff16600381111561047d5761047d611d74565b036105c95760405163f0d826e760e01b815260048101869052600090600a90309063f0d826e790602401602060405180830381865afa1580156104c4573d6000803e3d6000fd5b505050506040513d601f19601f820116820180604052508101906104e89190611da1565b6104f390600f611dba565b6104fd9190611d3f565b9050808311156105c75760006105138285611dd1565b336000908152600588016020526040812080549293508392909190610539908490611dd1565b9091555061054b905087338388611242565b5060405133908290600081818185875af1925050503d806000811461058c576040519150601f19603f3d011682016040523d82523d6000602084013e610591565b606091505b50506040519093508190339089907fd94b416f75aca5d5e5c7e359e58fa21ccbdbb8a6036f8af786e3e2ab7ceb37be90600090a4505b505b806106085760405162461bcd60e51b815260206004820152600f60248201526e15da5d1a191c985dc819985a5b1959608a1b60448201526064016102df565b33600090815260078401602052604090205460ff161561067a57604051637b52069560e11b815260048101869052336024820152309063f6a40d2a90604401600060405180830381600087803b15801561066157600080fd5b505af1158015610675573d6000803e3d6000fd5b505050505b5050505050565b6000828152600080516020611f9e833981519152602052604090205460ff166106e35760405162461bcd60e51b815260206004820152601460248201527346756e6420646f6573206e6f742065786973747360601b60448201526064016102df565b6000828152600080516020611fde833981519152602090815260408083206001600160a01b03851684526006810190925290912054806107585760405162461bcd60e51b815260206004820152601060248201526f4e6f7468696e6720746f20636c61696d60801b60448201526064016102df565b6001600160a01b03831660008181526006840160205260408082208290555190919083908381818185875af1925050503d80600081146107b4576040519150601f19603f3d011682016040523d82523d6000602084013e6107b9565b606091505b50509050806107c757600080fd5b81846001600160a01b0316867f1d8d3d09e68fe1873369af18c4d7d361038dac92ac768b54ac19273dbd4cb6b860405160405180910390a45050505050565b600061081283836112f0565b90505b92915050565b8061082581611437565b8160026108328282610a57565b6000600080516020611fde83398151915260008681526020919091526040812091507f29d9cba46c358ba7c1b8945751229339792c7c62e3197c240fa98916e75ffbf9600087815260209190915260408082209051636b95dc3f60e11b815260048101899052909250309063d72bb87e90602401600060405180830381865afa1580156108c3573d6000803e3d6000fd5b505050506040513d6000823e601f3d908101601f191682016040526108eb9190810190611de4565b5050955050505050508062ed4e006109039190611d61565b42116109435760405162461bcd60e51b815260206004820152600f60248201526e10d85b89dd08195b5c1d1e481e595d608a1b60448201526064016102df565b6003830154600090815b818110156109ea57600086600301828154811061096c5761096c611d13565b6000918252602080832091909101546001600160a01b031680835260058a0182526040808420805460068d0190945290842080549185905584905590935090916109b88e85858c611242565b9050806109c58385611d61565b6109cf9190611d61565b6109d99088611d61565b96508460010194505050505061094d565b506109f68960036111a5565b604051600090339084908381818185875af1925050503d8060008114610a38576040519150601f19603f3d011682016040523d82523d6000602084013e610a3d565b606091505b5050905080610a4b57600080fd5b50505050505050505050565b6000828152600080516020611fde8339815191526020526040902054610100900460ff16816003811115610a8d57610a8d611d74565b816003811115610a9f57610a9f611d74565b14610abd5760405163201328a760e01b815260040160405180910390fd5b505050565b600060606000835167ffffffffffffffff811115610ae257610ae2611abd565b604051908082528060200260200182016040528015610b0b578160200160208202803683370190505b5090506000806000306001600160a01b031663d072f4bc8a6101000151670de0b6b3a7640000610b3b9190611dba565b6040518263ffffffff1660e01b8152600401610b5991815260200190565b602060405180830381865afa158015610b76573d6000803e3d6000fd5b505050506040513d601f19601f82011682018060405250810190610b9a9190611da1565b905060005b8751811015610f74576040805160808101825260008082526020820181905291810182905260608101919091528960060160008a8481518110610be457610be4611d13565b6020908102919091018101516001600160a01b0316825281019190915260400160009081205460ff1615156060830152895160058e019082908c9086908110610c2f57610c2f611d13565b60200260200101516001600160a01b03166001600160a01b03168152602001908152602001600020549050816060015115610e6157610c8b8c608001518b8581518110610c7e57610c7e611d13565b60200260200101516112f0565b15610e4a578a600a0160008b8581518110610ca857610ca8611d13565b6020908102919091018101516001600160a01b031682528101919091526040016000205460ff1615610e3457838110610cf257600182526000602083018190526040830152610e91565b60008b60090160008c8681518110610d0c57610d0c611d13565b60200260200101516001600160a01b03166001600160a01b03168152602001908152602001600020541115610d51576000808352600160208401526040830152610e91565b60808c015160405163f0d826e760e01b81526004810191909152309063f0d826e790602401602060405180830381865afa158015610d93573d6000803e3d6000fd5b505050506040513d601f19601f82011682018060405250810190610db79190611da1565b8d60060160008c8681518110610dcf57610dcf611d13565b60200260200101516001600160a01b03166001600160a01b031681526020019081526020016000205482610e039190611d61565b10610e1e576001808352602083015260006040830152610e91565b6001808352602083018190526040830152610e91565b6001808352600060208401526040830152610e91565b600182526000602083018190526040830152610e91565b838110610e7f57600182526000602083018190526040830152610e91565b60008083526020830152600160408301525b610eb88d8c8e8d8781518110610ea957610ea9611d13565b602002602001015188876114d2565b610ec29086611d61565b9450816040015115610f6a57898381518110610ee057610ee0611d13565b6020026020010151878781518110610efa57610efa611d13565b60200260200101906001600160a01b031690816001600160a01b0316815250508a600401548b600b016000898981518110610f3757610f37611d13565b60200260200101516001600160a01b03166001600160a01b03168152602001908152602001600020819055508560010195505b5050600101610b9f565b509099929850919650505050505050565b60006060600080856003018054905067ffffffffffffffff811115610fac57610fac611abd565b604051908082528060200260200182016040528015610fd5578160200160208202803683370190505b506003870154909150600090815b8181101561109a5788600301818154811061100057611000611d13565b60009182526020808320909101546001600160a01b031680835260068b0190915260409091205490955060ff1615801561105457506001600160a01b038516600090815260048a01602052604090205460ff165b15611092578484848151811061106c5761106c611d13565b6001600160a01b03909216602092830291909101909101528261108e81611f17565b9350505b600101610fe3565b5090945090925050505b9250929050565b6001600160a01b038316600090815260068501602052604090205460ff1661119f576001840154600090815b8181101561112d578660010181815481106110f4576110f4611d13565b6000918252602090912001546001600160a01b03908116908716036111255761111e816001611d61565b925061112d565b6001016110d7565b5060005b8481101561119b576000838152600c88016020526040812085516001929087908590811061116157611161611d13565b6020908102919091018101516001600160a01b03168252810191909152604001600020805460ff1916911515919091179055600101611131565b5050505b50505050565b6000828152600080516020611fde83398151915260205260409020805461010080820460ff16918491849161ff001916908360038111156111e8576111e8611d74565b02179055508260038111156111ff576111ff611d74565b81600381111561121157611211611d74565b60405186907ffe918112a2fca8c18cc609a5d585d9fc8448267cb7b9d6c19a445fe5c0c199c890600090a450505050565b6001600160a01b038316600090815260078201602052604081205460ff16156112e45760405163a7cce35360e01b815260048101869052602481018490526001600160a01b0385166044820152309063a7cce353906064016020604051808303816000875af11580156112b9573d6000803e3d6000fd5b505050506040513d601f19601f820116820180604052508101906112dd9190611da1565b90506112e8565b5060005b949350505050565b6000828152600080516020611fde833981519152602090815260408083206001600160a01b038516845260058101909252822054829061134c866000908152600080516020611f9e833981519152602052604090205460ff1690565b6113cb5760405163bb91b76d60e01b81526001600160a01b038616600482015260248101879052309063bb91b76d9060440160a060405180830381865afa15801561139b573d6000803e3d6000fd5b505050506040513d601f19601f820116820180604052508101906113bf9190611f30565b50945061142e92505050565b60405163f0d826e760e01b815260048101879052309063f0d826e790602401602060405180830381865afa158015611407573d6000803e3d6000fd5b505050506040513d601f19601f8201168201806040525081019061142b9190611da1565b91505b10949350505050565b60008181527f87101b21d556417ad2b8e8f2700dbad90721d5d50a1f435f2dee0b9dc981ac8a60205260409020546001600160a01b03620100009091041633146114cf5760405162461bcd60e51b8152602060048201526024808201527f5465726d4f776e61626c653a2063616c6c6572206973206e6f7420746865206f6044820152633bb732b960e11b60648201526084016102df565b50565b60808401805160009081527f29d9cba46c358ba7c1b8945751229339792c7c62e3197c240fa98916e75ffbf960205260408082209251905163d8f8e99160e01b815260048101919091529091908290309063d8f8e99190602401602060405180830381865afa158015611549573d6000803e3d6000fd5b505050506040513d601f19601f8201168201806040525081019061156d9190611f79565b8451909150801561158057508360200151155b156116f35783604001511561164857836060015115611621576001600160a01b038616600090815260058a01602052604090205460808801516115c590888386611242565b506115d08185611d61565b6001600160a01b038816600081815260058d01602052604080822082905560808c01519051939750849390917f10f8476f9a23ac06c638b35201072d11e362a5abe0247195ce64284bbe94ce9a91a4505b6001600160a01b038616600090815260048a0160205260409020805460ff191690556116f3565b6116588760800151878785611242565b506001600160a01b038616600090815260058a01602052604081208054879290611683908490611dd1565b90915550506001600160a01b038116600090815260068a016020526040812080548792906116b2908490611d61565b9091555050608087015160405186916001600160a01b038916917f10f8476f9a23ac06c638b35201072d11e362a5abe0247195ce64284bbe94ce9a90600090a45b8360200151801561170357508351155b156117bb5761010087015161171b90620f4240611dba565b6001600160a01b038716600090815260098a01602052604081208054909190611745908490611dd1565b909155505061010087015161175d90620f4240611dba565b6001600160a01b038216600090815260098a01602052604081208054909190611787908490611d61565b909155505061010087015160808801516040516001600160a01b0389169190600080516020611fbe83398151915290600090a45b835180156117ca575083602001515b15611ab1576001600160a01b038616600090815260058a01602090815260408083205460068d019092528220546101008a015191929091309063d072f4bc9061181b90670de0b6b3a7640000611dba565b6040518263ffffffff1660e01b815260040161183991815260200190565b602060405180830381865afa158015611856573d6000803e3d6000fd5b505050506040513d601f19601f8201168201806040525081019061187a9190611da1565b905082156118cf576118928a608001518a8588611242565b5060808a015160405184916001600160a01b038c16917f10f8476f9a23ac06c638b35201072d11e362a5abe0247195ce64284bbe94ce9a90600090a45b866040015115611978576118e38284611d61565b6118ed9087611d61565b955060008c60050160008b6001600160a01b03166001600160a01b031681526020019081526020016000208190555060008c60060160008b6001600160a01b03166001600160a01b031681526020019081526020016000208190555081896001600160a01b03168b60800151600080516020611fbe83398151915260405160405180910390a4611aad565b8215611a2457600061198a8483611dd1565b905060008d60050160008c6001600160a01b03166001600160a01b0316815260200190815260200160002081905550808d60060160008c6001600160a01b03166001600160a01b0316815260200190815260200160002060008282546119f09190611dd1565b909155505060808b015160405184916001600160a01b038d1691600080516020611fbe83398151915290600090a450611a7d565b6001600160a01b038916600090815260068d01602052604081208054839290611a4e908490611dd1565b909155505060808a015160405182916001600160a01b038c1691600080516020611fbe83398151915290600090a45b6001600160a01b038416600090815260068d016020526040812080548a9290611aa7908490611d61565b90915550505b5050505b50509695505050505050565b634e487b7160e01b600052604160045260246000fd5b604051610160810167ffffffffffffffff81118282101715611af757611af7611abd565b60405290565b80151581146114cf57600080fd5b8035611b1681611afd565b919050565b803560048110611b1657600080fd5b6001600160a01b03811681146114cf57600080fd5b8035611b1681611b2a565b60008083601f840112611b5c57600080fd5b50813567ffffffffffffffff811115611b7457600080fd5b6020830191508360208260051b85010111156110a457600080fd5b6000806000838503610180811215611ba657600080fd5b61016080821215611bb657600080fd5b611bbe611ad3565b9150611bc986611b0b565b8252611bd760208701611b1b565b6020830152611be860408701611b3f565b6040830152606086013560608301526080860135608083015260a086013560a083015260c086013560c083015260e086013560e0830152610100808701358184015250610120808701358184015250610140611c45818801611b3f565b9083015290935084013567ffffffffffffffff811115611c6457600080fd5b611c7086828701611b4a565b9497909650939450505050565b6020808252825182820181905260009190848201906040850190845b81811015611cbe5783516001600160a01b031683529284019291840191600101611c99565b50909695505050505050565b600060208284031215611cdc57600080fd5b5035919050565b60008060408385031215611cf657600080fd5b823591506020830135611d0881611b2a565b809150509250929050565b634e487b7160e01b600052603260045260246000fd5b634e487b7160e01b600052601160045260246000fd5b600082611d5c57634e487b7160e01b600052601260045260246000fd5b500490565b8082018082111561081557610815611d29565b634e487b7160e01b600052602160045260246000fd5b600081611d9957611d99611d29565b506000190190565b600060208284031215611db357600080fd5b5051919050565b808202811582820484141761081557610815611d29565b8181038181111561081557610815611d29565b600080600080600080600080610100898b031215611e0157600080fd5b8851611e0c81611afd565b809850506020808a015160058110611e2357600080fd5b60408b0151909850611e3481611b2a565b60608b015190975067ffffffffffffffff80821115611e5257600080fd5b818c0191508c601f830112611e6657600080fd5b815181811115611e7857611e78611abd565b8060051b604051601f19603f83011681018181108582111715611e9d57611e9d611abd565b60405291825284820192508381018501918f831115611ebb57600080fd5b938501935b82851015611ee55784519150611ed582611b2a565b8184529385019392850192611ec0565b809a505050505050506080890151935060a0890151925060c0890151915060e089015190509295985092959890939650565b600060018201611f2957611f29611d29565b5060010190565b600080600080600060a08688031215611f4857600080fd5b8551611f5381611afd565b602087015160408801516060890151608090990151929a91995097965090945092505050565b600060208284031215611f8b57600080fd5b8151611f9681611b2a565b939250505056fe6751f7e27cecf86d7136f5749c224248cae80a39fafb59f8f6bf12c52816307c9ecbf86544b133eb80eba635946daf018f997778387601f4c8d43c851b2ec07435fa70a6f9ae8a4d427ebe0c1be62ffd2870fecc1df41c6fda0bf5803e562888a264697066735822122013d043120458a649c61f3a6af4279461944552673861e53fac4d307ec869b8ed64736f6c63430008120033",
  "devdoc": {
    "author": "Aisha El Allam",
    "details": "v3.0 (Diamond)",
    "kind": "dev",
    "methods": {
      "emptyCollateralAfterEnd(uint256)": {
        "params": {
          "termId": "The term id"
        }
      },
      "isUnderCollaterized(uint256,address)": {
        "details": "This will revert if called during ReleasingCollateral or after",
        "params": {
          "member": "The user to check for",
          "termId": "The term id"
        },
        "returns": {
          "_0": "Bool check if member is below 1.0x of collateralDeposit"
        }
      },
      "releaseCollateral(uint256)": {
        "params": {
          "termId": "term id"
        }
      },
      "requestContribution((bool,uint8,address,uint256,uint256,uint256,uint256,uint256,uint256,uint256,address),address[])": {
        "details": "Check EnumerableMap (openzeppelin) for arrays that are being accessed from Fund contract",
        "params": {
          "defaulters": "Addressess of all defaulters of the current cycle"
        },
        "returns": {
          "_0": "expellants array of addresses that were expelled"
        }
      },
      "withdrawCollateral(uint256)": {
        "details": "This follows the pull-over-push pattern.",
        "params": {
          "termId": "term id"
        }
      },
      "withdrawReimbursement(uint256,address)": {
        "params": {
          "depositor": "Address of the depositor",
          "termId": "term id"
        }
      }
    },
    "title": "Takaturn Collateral",
    "version": 1
  },
  "userdoc": {
    "kind": "user",
    "methods": {
      "emptyCollateralAfterEnd(uint256)": {
        "notice": "allow the owner to empty the Collateral after 180 days"
      },
      "isUnderCollaterized(uint256,address)": {
        "notice": "Checks if a user has a collateral below 1.0x of total contribution amount"
      },
      "requestContribution((bool,uint8,address,uint256,uint256,uint256,uint256,uint256,uint256,uint256,address),address[])": {
        "notice": "Called from Fund contract when someone defaults"
      },
      "withdrawCollateral(uint256)": {
        "notice": "Called by each member after during or at the end of the term to withraw collateral"
      }
    },
    "notice": "This is used to operate the Takaturn collateral",
    "version": 1
  },
  "storageLayout": {
    "storage": [],
    "types": null
  }
}