{
  "address": "0xf172ca6a5eb3020dfCEAbdba58E4BF652be55fC3",
  "abi": [
    {
      "inputs": [],
      "name": "FunctionInvalidAtThisState",
      "type": "error"
    },
    {
      "anonymous": false,
      "inputs": [
        {
          "indexed": true,
          "internalType": "uint256",
          "name": "termId",
          "type": "uint256"
        },
        {
          "indexed": true,
          "internalType": "address",
          "name": "user",
          "type": "address"
        },
        {
          "indexed": true,
          "internalType": "uint256",
          "name": "amount",
          "type": "uint256"
        }
      ],
      "name": "OnCollateralLiquidated",
      "type": "event"
    },
    {
      "anonymous": false,
      "inputs": [
        {
          "indexed": true,
          "internalType": "uint256",
          "name": "termId",
          "type": "uint256"
        },
        {
          "indexed": true,
          "internalType": "enum LibCollateral.CollateralStates",
          "name": "oldState",
          "type": "uint8"
        },
        {
          "indexed": true,
          "internalType": "enum LibCollateral.CollateralStates",
          "name": "newState",
          "type": "uint8"
        }
      ],
      "name": "OnCollateralStateChanged",
      "type": "event"
    },
    {
      "anonymous": false,
      "inputs": [
        {
          "indexed": true,
          "internalType": "uint256",
          "name": "termId",
          "type": "uint256"
        },
        {
          "indexed": true,
          "internalType": "address",
          "name": "user",
          "type": "address"
        },
        {
          "indexed": true,
          "internalType": "uint256",
          "name": "collateralAmount",
          "type": "uint256"
        }
      ],
      "name": "OnCollateralWithdrawal",
      "type": "event"
    },
    {
      "anonymous": false,
      "inputs": [
        {
          "indexed": true,
          "internalType": "uint256",
          "name": "termId",
          "type": "uint256"
        },
        {
          "indexed": true,
          "internalType": "address",
          "name": "user",
          "type": "address"
        },
        {
          "indexed": true,
          "internalType": "uint256",
          "name": "amount",
          "type": "uint256"
        }
      ],
      "name": "OnFrozenMoneyPotLiquidated",
      "type": "event"
    },
    {
      "anonymous": false,
      "inputs": [
        {
          "indexed": true,
          "internalType": "uint256",
          "name": "termId",
          "type": "uint256"
        },
        {
          "indexed": true,
          "internalType": "address",
          "name": "user",
          "type": "address"
        },
        {
          "indexed": true,
          "internalType": "uint256",
          "name": "amount",
          "type": "uint256"
        }
      ],
      "name": "OnReimbursementWithdrawn",
      "type": "event"
    },
    {
      "inputs": [
        {
          "internalType": "uint256",
          "name": "termId",
          "type": "uint256"
        }
      ],
      "name": "emptyCollateralAfterEnd",
      "outputs": [],
      "stateMutability": "nonpayable",
      "type": "function"
    },
    {
      "inputs": [
        {
          "internalType": "uint256",
          "name": "termId",
          "type": "uint256"
        },
        {
          "internalType": "address",
          "name": "member",
          "type": "address"
        }
      ],
      "name": "isUnderCollaterized",
      "outputs": [
        {
          "internalType": "bool",
          "name": "",
          "type": "bool"
        }
      ],
      "stateMutability": "view",
      "type": "function"
    },
    {
      "inputs": [
        {
          "internalType": "uint256",
          "name": "termId",
          "type": "uint256"
        }
      ],
      "name": "releaseCollateral",
      "outputs": [],
      "stateMutability": "nonpayable",
      "type": "function"
    },
    {
      "inputs": [
        {
          "components": [
            {
              "internalType": "bool",
              "name": "initialized",
              "type": "bool"
            },
            {
              "internalType": "enum LibTerm.TermStates",
              "name": "state",
              "type": "uint8"
            },
            {
              "internalType": "address",
              "name": "termOwner",
              "type": "address"
            },
            {
              "internalType": "uint256",
              "name": "creationTime",
              "type": "uint256"
            },
            {
              "internalType": "uint256",
              "name": "termId",
              "type": "uint256"
            },
            {
              "internalType": "uint256",
              "name": "registrationPeriod",
              "type": "uint256"
            },
            {
              "internalType": "uint256",
              "name": "totalParticipants",
              "type": "uint256"
            },
            {
              "internalType": "uint256",
              "name": "cycleTime",
              "type": "uint256"
            },
            {
              "internalType": "uint256",
              "name": "contributionAmount",
              "type": "uint256"
            },
            {
              "internalType": "uint256",
              "name": "contributionPeriod",
              "type": "uint256"
            },
            {
              "internalType": "address",
              "name": "stableTokenAddress",
              "type": "address"
            }
          ],
          "internalType": "struct LibTerm.Term",
          "name": "term",
          "type": "tuple"
        },
        {
          "internalType": "address[]",
          "name": "defaulters",
          "type": "address[]"
        }
      ],
      "name": "requestContribution",
      "outputs": [
        {
          "internalType": "address[]",
          "name": "",
          "type": "address[]"
        }
      ],
      "stateMutability": "nonpayable",
      "type": "function"
    },
    {
      "inputs": [
        {
          "internalType": "uint256",
          "name": "termId",
          "type": "uint256"
        },
        {
          "internalType": "enum LibCollateral.CollateralStates",
          "name": "newState",
          "type": "uint8"
        }
      ],
      "name": "setStateOwner",
      "outputs": [],
      "stateMutability": "nonpayable",
      "type": "function"
    },
    {
      "inputs": [
        {
          "internalType": "uint256",
          "name": "termId",
          "type": "uint256"
        }
      ],
      "name": "withdrawCollateral",
      "outputs": [],
      "stateMutability": "nonpayable",
      "type": "function"
    },
    {
      "inputs": [
        {
          "internalType": "uint256",
          "name": "termId",
          "type": "uint256"
        },
        {
          "internalType": "address",
          "name": "depositor",
          "type": "address"
        }
      ],
      "name": "withdrawReimbursement",
      "outputs": [],
      "stateMutability": "nonpayable",
      "type": "function"
    }
  ],
  "args": [],
  "numDeployments": 1,
  "solcInputHash": "c5035efd64456f874a006856b57fdabf",
  "bytecode": "0x608060405234801561001057600080fd5b50612073806100206000396000f3fe608060405234801561001057600080fd5b506004361061007d5760003560e01c80636112fe2e1161005b5780636112fe2e146100d3578063ae483d07146100e6578063c177f091146100f9578063c3bfb61c1461011c57600080fd5b806302c1ed1f146100825780632081c1af1461009757806339007b77146100c0575b600080fd5b610095610090366004611af6565b61012f565b005b6100aa6100a5366004611be4565b61013d565b6040516100b79190611cd2565b60405180910390f35b6100956100ce366004611d1f565b6102ac565b6100956100e1366004611d1f565b61032f565b6100956100f4366004611d38565b61069e565b61010c610107366004611d38565b610823565b60405190151581526020016100b7565b61009561012a366004611d1f565b610838565b6101398282610a74565b5050565b6060836080015160016101508282610b11565b608086018051600090815260008051602061201e8339815191526020908152604080832093518352600080516020611fde83398151915282528083208151898402818101850190935289815290939283926101ce9287928e928892918f918f91829190850190849080828437600092019190915250610b7c92505050565b915091506000806101df868661103f565b9092509050811561029c57825160005b818110156102245761021c8786838151811061020d5761020d611d5d565b60200260200101518686611165565b6001016101ef565b5061022f8386611d89565b945060005b83811015610299578588600601600085848151811061025557610255611d5d565b60200260200101516001600160a01b03166001600160a01b03168152602001908152602001600020600082825461028c9190611dab565b9091555050600101610234565b50505b50909a9950505050505050505050565b6000818152600080516020611fde833981519152602052604090208054600490610100900460ff16818111156102e4576102e4611dbe565b146103245760405162461bcd60e51b815260206004820152600b60248201526a57726f6e6720737461746560a81b60448201526064015b60405180910390fd5b610139826002610a74565b600081815260008051602061201e833981519152602090815260408083207f29d9cba46c358ba7c1b8945751229339792c7c62e3197c240fa98916e75ffbf9835281842033855260058201909352922054806103c05760405162461bcd60e51b815260206004820152601060248201526f436f6c6c61746572616c20656d70747960801b604482015260640161031b565b600060028454610100900460ff1660038111156103df576103df611dbe565b0361049857336000818152600586016020526040812055610403908690848661125f565b5060405133908390600081818185875af1925050503d8060008114610444576040519150601f19603f3d011682016040523d82523d6000602084013e610449565b606091505b505080915050836002016000815461046090611dd4565b909155506040518290339087907fd94b416f75aca5d5e5c7e359e58fa21ccbdbb8a6036f8af786e3e2ab7ceb37be90600090a4610601565b60018454610100900460ff1660038111156104b5576104b5611dbe565b036106015760405163f0d826e760e01b815260048101869052600090600a90309063f0d826e790602401602060405180830381865afa1580156104fc573d6000803e3d6000fd5b505050506040513d601f19601f820116820180604052508101906105209190611deb565b61052b90600f611e04565b6105359190611d89565b9050808311156105ff57600061054b8483611e1b565b336000908152600588016020526040812080549293508392909190610571908490611e1b565b9091555061058390508733838861125f565b5060405133908290600081818185875af1925050503d80600081146105c4576040519150601f19603f3d011682016040523d82523d6000602084013e6105c9565b606091505b50506040519093508190339089907fd94b416f75aca5d5e5c7e359e58fa21ccbdbb8a6036f8af786e3e2ab7ceb37be90600090a4505b505b806106405760405162461bcd60e51b815260206004820152600f60248201526e15da5d1a191c985dc819985a5b1959608a1b604482015260640161031b565b604051637b52069560e11b815260048101869052336024820152309063f6a40d2a90604401600060405180830381600087803b15801561067f57600080fd5b505af1158015610693573d6000803e3d6000fd5b505050505050505050565b6000828152600080516020611fde833981519152602052604090205460ff166107005760405162461bcd60e51b815260206004820152601460248201527346756e6420646f6573206e6f742065786973747360601b604482015260640161031b565b600082815260008051602061201e833981519152602090815260408083206001600160a01b03851684526006810190925290912054806107755760405162461bcd60e51b815260206004820152601060248201526f4e6f7468696e6720746f20636c61696d60801b604482015260640161031b565b6001600160a01b03831660008181526006840160205260408082208290555190919083908381818185875af1925050503d80600081146107d1576040519150601f19603f3d011682016040523d82523d6000602084013e6107d6565b606091505b50509050806107e457600080fd5b81846001600160a01b0316867f1d8d3d09e68fe1873369af18c4d7d361038dac92ac768b54ac19273dbd4cb6b860405160405180910390a45050505050565b600061082f838361130d565b90505b92915050565b8061084281611453565b81600261084f8282610b11565b600060008051602061201e83398151915260008681526020919091526040812091507f29d9cba46c358ba7c1b8945751229339792c7c62e3197c240fa98916e75ffbf9600087815260209190915260408082209051636b95dc3f60e11b815260048101899052909250309063d72bb87e90602401600060405180830381865afa1580156108e0573d6000803e3d6000fd5b505050506040513d6000823e601f3d908101601f191682016040526109089190810190611e2e565b5050955050505050508062ed4e006109209190611dab565b42116109605760405162461bcd60e51b815260206004820152600f60248201526e10d85b89dd08195b5c1d1e481e595d608a1b604482015260640161031b565b6003830154600090815b81811015610a0757600086600301828154811061098957610989611d5d565b6000918252602080832091909101546001600160a01b031680835260058a0182526040808420805460068d0190945290842080549185905584905590935090916109d58e85858c61125f565b9050806109e28385611dab565b6109ec9190611dab565b6109f69088611dab565b96508460010194505050505061096a565b50610a13896003610a74565b604051600090339084908381818185875af1925050503d8060008114610a55576040519150601f19603f3d011682016040523d82523d6000602084013e610a5a565b606091505b5050905080610a6857600080fd5b50505050505050505050565b600082815260008051602061201e83398151915260205260409020805461010080820460ff16918491849161ff00191690836003811115610ab757610ab7611dbe565b0217905550826003811115610ace57610ace611dbe565b816003811115610ae057610ae0611dbe565b60405186907ffe918112a2fca8c18cc609a5d585d9fc8448267cb7b9d6c19a445fe5c0c199c890600090a450505050565b600082815260008051602061201e8339815191526020526040902054610100900460ff16816003811115610b4757610b47611dbe565b816003811115610b5957610b59611dbe565b14610b775760405163201328a760e01b815260040160405180910390fd5b505050565b600060606000835167ffffffffffffffff811115610b9c57610b9c611b26565b604051908082528060200260200182016040528015610bc5578160200160208202803683370190505b5090506000806000306001600160a01b031663d072f4bc8a6101000151670de0b6b3a7640000610bf59190611e04565b6040518263ffffffff1660e01b8152600401610c1391815260200190565b602060405180830381865afa158015610c30573d6000803e3d6000fd5b505050506040513d601f19601f82011682018060405250810190610c549190611deb565b905060005b875181101561102e576040805160808101825260008082526020820181905291810182905260608101919091528960060160008a8481518110610c9e57610c9e611d5d565b6020908102919091018101516001600160a01b0316825281019190915260400160009081205460ff1615156060830152895160058e019082908c9086908110610ce957610ce9611d5d565b60200260200101516001600160a01b03166001600160a01b03168152602001908152602001600020549050816060015115610f1b57610d458c608001518b8581518110610d3857610d38611d5d565b602002602001015161130d565b15610f04578a600a0160008b8581518110610d6257610d62611d5d565b6020908102919091018101516001600160a01b031682528101919091526040016000205460ff1615610eee57838110610dac57600182526000602083018190526040830152610f4b565b60008b60090160008c8681518110610dc657610dc6611d5d565b60200260200101516001600160a01b03166001600160a01b03168152602001908152602001600020541115610e0b576000808352600160208401526040830152610f4b565b60808c015160405163f0d826e760e01b81526004810191909152309063f0d826e790602401602060405180830381865afa158015610e4d573d6000803e3d6000fd5b505050506040513d601f19601f82011682018060405250810190610e719190611deb565b8d60060160008c8681518110610e8957610e89611d5d565b60200260200101516001600160a01b03166001600160a01b031681526020019081526020016000205482610ebd9190611dab565b10610ed8576001808352602083015260006040830152610f4b565b6001808352602083018190526040830152610f4b565b6001808352600060208401526040830152610f4b565b600182526000602083018190526040830152610f4b565b838110610f3957600182526000602083018190526040830152610f4b565b60008083526020830152600160408301525b610f728d8c8e8d8781518110610f6357610f63611d5d565b602002602001015188876114ee565b610f7c9086611dab565b945081604001511561102457898381518110610f9a57610f9a611d5d565b6020026020010151878781518110610fb457610fb4611d5d565b60200260200101906001600160a01b031690816001600160a01b0316815250508a600401548b600b016000898981518110610ff157610ff1611d5d565b60200260200101516001600160a01b03166001600160a01b03168152602001908152602001600020819055508560010195505b5050600101610c59565b509099929850919650505050505050565b60006060600080856003018054905067ffffffffffffffff81111561106657611066611b26565b60405190808252806020026020018201604052801561108f578160200160208202803683370190505b506003870154909150600090815b81811015611154578860030181815481106110ba576110ba611d5d565b60009182526020808320909101546001600160a01b031680835260068b0190915260409091205490955060ff1615801561110e57506001600160a01b038516600090815260048a01602052604090205460ff165b1561114c578484848151811061112657611126611d5d565b6001600160a01b03909216602092830291909101909101528261114881611f61565b9350505b60010161109d565b5090945090925050505b9250929050565b6001600160a01b038316600090815260068501602052604090205460ff16611259576001840154600090815b818110156111e7578660010181815481106111ae576111ae611d5d565b6000918252602090912001546001600160a01b03908116908716036111df576111d8816001611dab565b92506111e7565b600101611191565b5060005b84811015611255576000838152600c88016020526040812085516001929087908590811061121b5761121b611d5d565b6020908102919091018101516001600160a01b03168252810191909152604001600020805460ff19169115159190911790556001016111eb565b5050505b50505050565b6001600160a01b038316600090815260078201602052604081205460ff16156113015760405163a7cce35360e01b815260048101869052602481018490526001600160a01b0385166044820152309063a7cce353906064016020604051808303816000875af11580156112d6573d6000803e3d6000fd5b505050506040513d601f19601f820116820180604052508101906112fa9190611deb565b9050611305565b5060005b949350505050565b600082815260008051602061201e833981519152602090815260408083206001600160a01b0385168452600581019092528220548290611369866000908152600080516020611fde833981519152602052604090205460ff1690565b6113e75760405163bb91b76d60e01b81526001600160a01b038616600482015260248101879052309063bb91b76d90604401608060405180830381865afa1580156113b8573d6000803e3d6000fd5b505050506040513d601f19601f820116820180604052508101906113dc9190611f7a565b945061144a92505050565b60405163f0d826e760e01b815260048101879052309063f0d826e790602401602060405180830381865afa158015611423573d6000803e3d6000fd5b505050506040513d601f19601f820116820180604052508101906114479190611deb565b91505b10949350505050565b60008181527f87101b21d556417ad2b8e8f2700dbad90721d5d50a1f435f2dee0b9dc981ac8a60205260409020546001600160a01b03620100009091041633146114eb5760405162461bcd60e51b8152602060048201526024808201527f5465726d4f776e61626c653a2063616c6c6572206973206e6f7420746865206f6044820152633bb732b960e11b606482015260840161031b565b50565b60808401805160009081527f29d9cba46c358ba7c1b8945751229339792c7c62e3197c240fa98916e75ffbf960205260408082209251905163d8f8e99160e01b815260048101919091529091908290309063d8f8e99190602401602060405180830381865afa158015611565573d6000803e3d6000fd5b505050506040513d601f19601f820116820180604052508101906115899190611fb9565b8451909150801561159c57508360200151155b1561170f578360400151156116645783606001511561163d576001600160a01b038616600090815260058a01602052604090205460808801516115e19088838661125f565b506115ec8185611dab565b6001600160a01b038816600081815260058d01602052604080822082905560808c01519051939750849390917f10f8476f9a23ac06c638b35201072d11e362a5abe0247195ce64284bbe94ce9a91a4505b6001600160a01b038616600090815260048a0160205260409020805460ff1916905561170f565b611674876080015187878561125f565b506001600160a01b038616600090815260058a0160205260408120805487929061169f908490611e1b565b90915550506001600160a01b038116600090815260068a016020526040812080548792906116ce908490611dab565b9091555050608087015160405186916001600160a01b038916917f10f8476f9a23ac06c638b35201072d11e362a5abe0247195ce64284bbe94ce9a90600090a45b8360200151801561171f57508351155b156117d75761010087015161173790620f4240611e04565b6001600160a01b038716600090815260098a01602052604081208054909190611761908490611e1b565b909155505061010087015161177990620f4240611e04565b6001600160a01b038216600090815260098a016020526040812080549091906117a3908490611dab565b909155505061010087015160808801516040516001600160a01b0389169190600080516020611ffe83398151915290600090a45b835180156117e6575083602001515b15611acd576001600160a01b038616600090815260058a01602090815260408083205460068d019092528220546101008a015191929091309063d072f4bc9061183790670de0b6b3a7640000611e04565b6040518263ffffffff1660e01b815260040161185591815260200190565b602060405180830381865afa158015611872573d6000803e3d6000fd5b505050506040513d601f19601f820116820180604052508101906118969190611deb565b905082156118eb576118ae8a608001518a858861125f565b5060808a015160405184916001600160a01b038c16917f10f8476f9a23ac06c638b35201072d11e362a5abe0247195ce64284bbe94ce9a90600090a45b866040015115611994576118ff8284611dab565b6119099087611dab565b955060008c60050160008b6001600160a01b03166001600160a01b031681526020019081526020016000208190555060008c60060160008b6001600160a01b03166001600160a01b031681526020019081526020016000208190555081896001600160a01b03168b60800151600080516020611ffe83398151915260405160405180910390a4611ac9565b8215611a405760006119a68483611e1b565b905060008d60050160008c6001600160a01b03166001600160a01b0316815260200190815260200160002081905550808d60060160008c6001600160a01b03166001600160a01b031681526020019081526020016000206000828254611a0c9190611e1b565b909155505060808b015160405184916001600160a01b038d1691600080516020611ffe83398151915290600090a450611a99565b6001600160a01b038916600090815260068d01602052604081208054839290611a6a908490611e1b565b909155505060808a015160405182916001600160a01b038c1691600080516020611ffe83398151915290600090a45b6001600160a01b038416600090815260068d016020526040812080548a9290611ac3908490611dab565b90915550505b5050505b50509695505050505050565b600481106114eb57600080fd5b8035611af181611ad9565b919050565b60008060408385031215611b0957600080fd5b823591506020830135611b1b81611ad9565b809150509250929050565b634e487b7160e01b600052604160045260246000fd5b604051610160810167ffffffffffffffff81118282101715611b6057611b60611b26565b60405290565b80151581146114eb57600080fd5b8035611af181611b66565b6001600160a01b03811681146114eb57600080fd5b8035611af181611b7f565b60008083601f840112611bb157600080fd5b50813567ffffffffffffffff811115611bc957600080fd5b6020830191508360208260051b850101111561115e57600080fd5b6000806000838503610180811215611bfb57600080fd5b61016080821215611c0b57600080fd5b611c13611b3c565b9150611c1e86611b74565b8252611c2c60208701611ae6565b6020830152611c3d60408701611b94565b6040830152606086013560608301526080860135608083015260a086013560a083015260c086013560c083015260e086013560e0830152610100808701358184015250610120808701358184015250610140611c9a818801611b94565b9083015290935084013567ffffffffffffffff811115611cb957600080fd5b611cc586828701611b9f565b9497909650939450505050565b6020808252825182820181905260009190848201906040850190845b81811015611d135783516001600160a01b031683529284019291840191600101611cee565b50909695505050505050565b600060208284031215611d3157600080fd5b5035919050565b60008060408385031215611d4b57600080fd5b823591506020830135611b1b81611b7f565b634e487b7160e01b600052603260045260246000fd5b634e487b7160e01b600052601160045260246000fd5b600082611da657634e487b7160e01b600052601260045260246000fd5b500490565b8082018082111561083257610832611d73565b634e487b7160e01b600052602160045260246000fd5b600081611de357611de3611d73565b506000190190565b600060208284031215611dfd57600080fd5b5051919050565b808202811582820484141761083257610832611d73565b8181038181111561083257610832611d73565b600080600080600080600080610100898b031215611e4b57600080fd5b8851611e5681611b66565b809850506020808a015160058110611e6d57600080fd5b60408b0151909850611e7e81611b7f565b60608b015190975067ffffffffffffffff80821115611e9c57600080fd5b818c0191508c601f830112611eb057600080fd5b815181811115611ec257611ec2611b26565b8060051b604051601f19603f83011681018181108582111715611ee757611ee7611b26565b60405291825284820192508381018501918f831115611f0557600080fd5b938501935b82851015611f2f5784519150611f1f82611b7f565b8184529385019392850192611f0a565b809a505050505050506080890151935060a0890151925060c0890151915060e089015190509295985092959890939650565b600060018201611f7357611f73611d73565b5060010190565b60008060008060808587031215611f9057600080fd5b8451611f9b81611b66565b60208601516040870151606090970151919890975090945092505050565b600060208284031215611fcb57600080fd5b8151611fd681611b7f565b939250505056fe6751f7e27cecf86d7136f5749c224248cae80a39fafb59f8f6bf12c52816307c9ecbf86544b133eb80eba635946daf018f997778387601f4c8d43c851b2ec07435fa70a6f9ae8a4d427ebe0c1be62ffd2870fecc1df41c6fda0bf5803e562888a2646970667358221220e49a5053b1753ef1abafa6fa95edbfc1ccf3354a1ad2ce647ebc9af7d46eadbc64736f6c63430008120033",
  "devdoc": {
    "author": "Aisha El Allam",
    "details": "v3.0 (Diamond)",
    "kind": "dev",
    "methods": {
      "emptyCollateralAfterEnd(uint256)": {
        "params": {
          "termId": "The term id"
        }
      },
      "isUnderCollaterized(uint256,address)": {
        "details": "This will revert if called during ReleasingCollateral or after",
        "params": {
          "member": "The user to check for",
          "termId": "The term id"
        },
        "returns": {
          "_0": "Bool check if member is below 1.0x of collateralDeposit"
        }
      },
      "releaseCollateral(uint256)": {
        "params": {
          "termId": "term id"
        }
      },
      "requestContribution((bool,uint8,address,uint256,uint256,uint256,uint256,uint256,uint256,uint256,address),address[])": {
        "details": "Check EnumerableMap (openzeppelin) for arrays that are being accessed from Fund contract",
        "params": {
          "defaulters": "Addressess of all defaulters of the current cycle"
        },
        "returns": {
          "_0": "expellants array of addresses that were expelled"
        }
      },
      "setStateOwner(uint256,uint8)": {
        "params": {
          "newState": "collateral state",
          "termId": "term id"
        }
      },
      "withdrawCollateral(uint256)": {
        "details": "This follows the pull-over-push pattern.",
        "params": {
          "termId": "term id"
        }
      },
      "withdrawReimbursement(uint256,address)": {
        "params": {
          "depositor": "Address of the depositor",
          "termId": "term id"
        }
      }
    },
    "title": "Takaturn Collateral",
    "version": 1
  },
  "userdoc": {
    "kind": "user",
    "methods": {
      "emptyCollateralAfterEnd(uint256)": {
        "notice": "allow the owner to empty the Collateral after 180 days"
      },
      "isUnderCollaterized(uint256,address)": {
        "notice": "Checks if a user has a collateral below 1.0x of total contribution amount"
      },
      "requestContribution((bool,uint8,address,uint256,uint256,uint256,uint256,uint256,uint256,uint256,address),address[])": {
        "notice": "Called from Fund contract when someone defaults"
      },
      "withdrawCollateral(uint256)": {
        "notice": "Called by each member after during or at the end of the term to withraw collateral"
      }
    },
    "notice": "This is used to operate the Takaturn collateral",
    "version": 1
  },
  "storageLayout": {
    "storage": [],
    "types": null
  }
}