{
  "address": "0x3027a07a517bdcF3ee46529f92e35f0bB6A8Ee37",
  "abi": [
    {
      "inputs": [],
      "name": "FunctionInvalidAtThisState",
      "type": "error"
    },
    {
      "anonymous": false,
      "inputs": [
        {
          "indexed": true,
          "internalType": "uint256",
          "name": "termId",
          "type": "uint256"
        },
        {
          "indexed": true,
          "internalType": "address",
          "name": "user",
          "type": "address"
        },
        {
          "indexed": true,
          "internalType": "uint256",
          "name": "amount",
          "type": "uint256"
        }
      ],
      "name": "OnCollateralLiquidated",
      "type": "event"
    },
    {
      "anonymous": false,
      "inputs": [
        {
          "indexed": true,
          "internalType": "uint256",
          "name": "termId",
          "type": "uint256"
        },
        {
          "indexed": true,
          "internalType": "enum LibCollateralStorage.CollateralStates",
          "name": "oldState",
          "type": "uint8"
        },
        {
          "indexed": true,
          "internalType": "enum LibCollateralStorage.CollateralStates",
          "name": "newState",
          "type": "uint8"
        }
      ],
      "name": "OnCollateralStateChanged",
      "type": "event"
    },
    {
      "anonymous": false,
      "inputs": [
        {
          "indexed": true,
          "internalType": "uint256",
          "name": "termId",
          "type": "uint256"
        },
        {
          "indexed": true,
          "internalType": "address",
          "name": "user",
          "type": "address"
        },
        {
          "indexed": true,
          "internalType": "uint256",
          "name": "collateralAmount",
          "type": "uint256"
        }
      ],
      "name": "OnCollateralWithdrawal",
      "type": "event"
    },
    {
      "anonymous": false,
      "inputs": [
        {
          "indexed": true,
          "internalType": "uint256",
          "name": "termId",
          "type": "uint256"
        },
        {
          "indexed": true,
          "internalType": "address",
          "name": "user",
          "type": "address"
        },
        {
          "indexed": true,
          "internalType": "uint256",
          "name": "amount",
          "type": "uint256"
        }
      ],
      "name": "OnFrozenMoneyPotLiquidated",
      "type": "event"
    },
    {
      "anonymous": false,
      "inputs": [
        {
          "indexed": true,
          "internalType": "uint256",
          "name": "termId",
          "type": "uint256"
        },
        {
          "indexed": true,
          "internalType": "address",
          "name": "user",
          "type": "address"
        },
        {
          "indexed": true,
          "internalType": "uint256",
          "name": "amount",
          "type": "uint256"
        }
      ],
      "name": "OnReimbursementWithdrawn",
      "type": "event"
    },
    {
      "inputs": [
        {
          "internalType": "uint256",
          "name": "termId",
          "type": "uint256"
        }
      ],
      "name": "emptyCollateralAfterEnd",
      "outputs": [],
      "stateMutability": "nonpayable",
      "type": "function"
    },
    {
      "inputs": [
        {
          "internalType": "uint256",
          "name": "termId",
          "type": "uint256"
        },
        {
          "internalType": "address",
          "name": "member",
          "type": "address"
        }
      ],
      "name": "isUnderCollaterized",
      "outputs": [
        {
          "internalType": "bool",
          "name": "",
          "type": "bool"
        }
      ],
      "stateMutability": "view",
      "type": "function"
    },
    {
      "inputs": [
        {
          "internalType": "uint256",
          "name": "termId",
          "type": "uint256"
        }
      ],
      "name": "releaseCollateral",
      "outputs": [],
      "stateMutability": "nonpayable",
      "type": "function"
    },
    {
      "inputs": [
        {
          "components": [
            {
              "internalType": "bool",
              "name": "initialized",
              "type": "bool"
            },
            {
              "internalType": "enum LibTermStorage.TermStates",
              "name": "state",
              "type": "uint8"
            },
            {
              "internalType": "address",
              "name": "termOwner",
              "type": "address"
            },
            {
              "internalType": "uint256",
              "name": "creationTime",
              "type": "uint256"
            },
            {
              "internalType": "uint256",
              "name": "termId",
              "type": "uint256"
            },
            {
              "internalType": "uint256",
              "name": "registrationPeriod",
              "type": "uint256"
            },
            {
              "internalType": "uint256",
              "name": "totalParticipants",
              "type": "uint256"
            },
            {
              "internalType": "uint256",
              "name": "cycleTime",
              "type": "uint256"
            },
            {
              "internalType": "uint256",
              "name": "contributionAmount",
              "type": "uint256"
            },
            {
              "internalType": "uint256",
              "name": "contributionPeriod",
              "type": "uint256"
            },
            {
              "internalType": "address",
              "name": "stableTokenAddress",
              "type": "address"
            }
          ],
          "internalType": "struct LibTermStorage.Term",
          "name": "term",
          "type": "tuple"
        },
        {
          "internalType": "address[]",
          "name": "defaulters",
          "type": "address[]"
        }
      ],
      "name": "requestContribution",
      "outputs": [
        {
          "internalType": "address[]",
          "name": "",
          "type": "address[]"
        }
      ],
      "stateMutability": "nonpayable",
      "type": "function"
    },
    {
      "inputs": [
        {
          "internalType": "uint256",
          "name": "termId",
          "type": "uint256"
        }
      ],
      "name": "withdrawCollateral",
      "outputs": [],
      "stateMutability": "nonpayable",
      "type": "function"
    }
  ],
  "transactionHash": "0x1256c4986560affe2a541fe5dfd732efbff750426e154cd591e3f5ea3583ea63",
  "args": [],
  "numDeployments": 9,
  "solcInputHash": "ee19a417e4e4cfe3fc9a4b09ec42989a",
  "bytecode": "0x608060405234801561001057600080fd5b5061204b806100206000396000f3fe608060405234801561001057600080fd5b50600436106100575760003560e01c80632081c1af1461005c57806339007b77146100855780636112fe2e1461009a578063c177f091146100ad578063c3bfb61c146100d0575b600080fd5b61006f61006a366004611bae565b6100e3565b60405161007c9190611c9c565b60405180910390f35b610098610093366004611ce9565b610270565b005b6100986100a8366004611ce9565b610309565b6100c06100bb366004611d02565b61069d565b604051901515815260200161007c565b6100986100de366004611ce9565b6106b2565b6060836080015160016100f682826108dc565b6080860180516000908152600080516020611ff683398151915260209081526040808320935183527f6751f7e27cecf86d7136f5749c224248cae80a39fafb59f8f6bf12c52816307c909152902030331461015057600080fd5b600080610192848b858c8c8080602002602001604051908101604052809392919081815260200183836020028082843760009201919091525061094792505050565b915091506000806101a38686610e0a565b9092509050811561026057825160005b818110156101e8576101e0878683815181106101d1576101d1611d32565b60200260200101518686610f30565b6001016101b3565b506101f38386611d5e565b945060005b8381101561025d578588600601600085848151811061021957610219611d32565b60200260200101516001600160a01b03166001600160a01b0316815260200190815260200160002060008282546102509190611d80565b90915550506001016101f8565b50505b50909a9950505050505050505050565b60008181527f6751f7e27cecf86d7136f5749c224248cae80a39fafb59f8f6bf12c52816307c602052604090208054600490610100900460ff16818111156102ba576102ba611d93565b146102fa5760405162461bcd60e51b815260206004820152600b60248201526a57726f6e6720737461746560a81b60448201526064015b60405180910390fd5b61030582600261102a565b5050565b6000818152600080516020611ff683398151915260209081526040808320600080516020611fb6833981519152835281842033855260058201909352922054806103885760405162461bcd60e51b815260206004820152601060248201526f436f6c6c61746572616c20656d70747960801b60448201526064016102f1565b600060028454610100900460ff1660038111156103a7576103a7611d93565b03610460573360008181526005860160205260408120556103cb90869084866110c7565b5060405133908390600081818185875af1925050503d806000811461040c576040519150601f19603f3d011682016040523d82523d6000602084013e610411565b606091505b505080915050836002016000815461042890611da9565b909155506040518290339087907fd94b416f75aca5d5e5c7e359e58fa21ccbdbb8a6036f8af786e3e2ab7ceb37be90600090a46105c9565b60018454610100900460ff16600381111561047d5761047d611d93565b036105c95760405163f0d826e760e01b815260048101869052600090600a90309063f0d826e790602401602060405180830381865afa1580156104c4573d6000803e3d6000fd5b505050506040513d601f19601f820116820180604052508101906104e89190611dc0565b6104f390600f611dd9565b6104fd9190611d5e565b9050808311156105c75760006105138285611df0565b336000908152600588016020526040812080549293508392909190610539908490611df0565b9091555061054b9050873383886110c7565b5060405133908290600081818185875af1925050503d806000811461058c576040519150601f19603f3d011682016040523d82523d6000602084013e610591565b606091505b50506040519093508190339089907fd94b416f75aca5d5e5c7e359e58fa21ccbdbb8a6036f8af786e3e2ab7ceb37be90600090a4505b505b806106085760405162461bcd60e51b815260206004820152600f60248201526e15da5d1a191c985dc819985a5b1959608a1b60448201526064016102f1565b33600090815260078401602052604090205460ff1680156106395750336000908152600a8401602052604090205415155b1561069657604051637b52069560e11b815260048101869052336024820152309063f6a40d2a90604401600060405180830381600087803b15801561067d57600080fd5b505af1158015610691573d6000803e3d6000fd5b505050505b5050505050565b60006106a98383611108565b90505b92915050565b806106bc81611261565b8160026106c982826108dc565b6000600080516020611ff68339815191526000868152602091909152604081209150600080516020611fb6833981519152600087815260209190915260408082209051636b95dc3f60e11b815260048101899052909250309063d72bb87e90602401600060405180830381865afa158015610748573d6000803e3d6000fd5b505050506040513d6000823e601f3d908101601f191682016040526107709190810190611e03565b5050955050505050508062ed4e006107889190611d80565b42116107c85760405162461bcd60e51b815260206004820152600f60248201526e10d85b89dd08195b5c1d1e481e595d608a1b60448201526064016102f1565b6003830154600090815b8181101561086f5760008660030182815481106107f1576107f1611d32565b6000918252602080832091909101546001600160a01b031680835260058a0182526040808420805460068d01909452908420805491859055849055909350909161083d8e85858c6110c7565b90508061084a8385611d80565b6108549190611d80565b61085e9088611d80565b9650846001019450505050506107d2565b5061087b89600361102a565b604051600090339084908381818185875af1925050503d80600081146108bd576040519150601f19603f3d011682016040523d82523d6000602084013e6108c2565b606091505b50509050806108d057600080fd5b50505050505050505050565b6000828152600080516020611ff68339815191526020526040902054610100900460ff1681600381111561091257610912611d93565b81600381111561092457610924611d93565b146109425760405163201328a760e01b815260040160405180910390fd5b505050565b600060606000835167ffffffffffffffff81111561096757610967611adc565b604051908082528060200260200182016040528015610990578160200160208202803683370190505b5090506000806000306001600160a01b031663d072f4bc8a6101000151670de0b6b3a76400006109c09190611dd9565b6040518263ffffffff1660e01b81526004016109de91815260200190565b602060405180830381865afa1580156109fb573d6000803e3d6000fd5b505050506040513d601f19601f82011682018060405250810190610a1f9190611dc0565b905060005b8751811015610df9576040805160808101825260008082526020820181905291810182905260608101919091528960060160008a8481518110610a6957610a69611d32565b6020908102919091018101516001600160a01b0316825281019190915260400160009081205460ff1615156060830152895160058e019082908c9086908110610ab457610ab4611d32565b60200260200101516001600160a01b03166001600160a01b03168152602001908152602001600020549050816060015115610ce657610b108c608001518b8581518110610b0357610b03611d32565b6020026020010151611108565b15610ccf578a600a0160008b8581518110610b2d57610b2d611d32565b6020908102919091018101516001600160a01b031682528101919091526040016000205460ff1615610cb957838110610b7757600182526000602083018190526040830152610d16565b60008b60090160008c8681518110610b9157610b91611d32565b60200260200101516001600160a01b03166001600160a01b03168152602001908152602001600020541115610bd6576000808352600160208401526040830152610d16565b60808c015160405163f0d826e760e01b81526004810191909152309063f0d826e790602401602060405180830381865afa158015610c18573d6000803e3d6000fd5b505050506040513d601f19601f82011682018060405250810190610c3c9190611dc0565b8d60060160008c8681518110610c5457610c54611d32565b60200260200101516001600160a01b03166001600160a01b031681526020019081526020016000205482610c889190611d80565b10610ca3576001808352602083015260006040830152610d16565b6001808352602083018190526040830152610d16565b6001808352600060208401526040830152610d16565b600182526000602083018190526040830152610d16565b838110610d0457600182526000602083018190526040830152610d16565b60008083526020830152600160408301525b610d3d8d8c8e8d8781518110610d2e57610d2e611d32565b602002602001015188876112fc565b610d479086611d80565b9450816040015115610def57898381518110610d6557610d65611d32565b6020026020010151878781518110610d7f57610d7f611d32565b60200260200101906001600160a01b031690816001600160a01b0316815250508a600401548b600b016000898981518110610dbc57610dbc611d32565b60200260200101516001600160a01b03166001600160a01b03168152602001908152602001600020819055508560010195505b5050600101610a24565b509099929850919650505050505050565b60006060600080856003018054905067ffffffffffffffff811115610e3157610e31611adc565b604051908082528060200260200182016040528015610e5a578160200160208202803683370190505b506003870154909150600090815b81811015610f1f57886003018181548110610e8557610e85611d32565b60009182526020808320909101546001600160a01b031680835260068b0190915260409091205490955060ff16158015610ed957506001600160a01b038516600090815260048a01602052604090205460ff165b15610f175784848481518110610ef157610ef1611d32565b6001600160a01b039092166020928302919091019091015282610f1381611f36565b9350505b600101610e68565b5090945090925050505b9250929050565b6001600160a01b038316600090815260068501602052604090205460ff16611024576001840154600090815b81811015610fb257866001018181548110610f7957610f79611d32565b6000918252602090912001546001600160a01b0390811690871603610faa57610fa3816001611d80565b9250610fb2565b600101610f5c565b5060005b84811015611020576000838152600c880160205260408120855160019290879085908110610fe657610fe6611d32565b6020908102919091018101516001600160a01b03168252810191909152604001600020805460ff1916911515919091179055600101610fb6565b5050505b50505050565b6000828152600080516020611ff683398151915260205260409020805461010080820460ff16918491849161ff0019169083600381111561106d5761106d611d93565b021790555082600381111561108457611084611d93565b81600381111561109657611096611d93565b60405186907ffe918112a2fca8c18cc609a5d585d9fc8448267cb7b9d6c19a445fe5c0c199c890600090a450505050565b6001600160a01b038316600090815260078201602052604081205460ff16156110fc576110f58584866118d5565b9050611100565b5060005b949350505050565b6000828152600080516020611ff6833981519152602090815260408083206001600160a01b03851684526005810190925282205482906111768660009081527f6751f7e27cecf86d7136f5749c224248cae80a39fafb59f8f6bf12c52816307c602052604090205460ff1690565b6111f55760405163bb91b76d60e01b81526001600160a01b038616600482015260248101879052309063bb91b76d9060440160a060405180830381865afa1580156111c5573d6000803e3d6000fd5b505050506040513d601f19601f820116820180604052508101906111e99190611f4f565b50945061125892505050565b60405163f0d826e760e01b815260048101879052309063f0d826e790602401602060405180830381865afa158015611231573d6000803e3d6000fd5b505050506040513d601f19601f820116820180604052508101906112559190611dc0565b91505b10949350505050565b60008181527f87101b21d556417ad2b8e8f2700dbad90721d5d50a1f435f2dee0b9dc981ac8a60205260409020546001600160a01b03620100009091041633146112f95760405162461bcd60e51b8152602060048201526024808201527f5465726d4f776e61626c653a2063616c6c6572206973206e6f7420746865206f6044820152633bb732b960e11b60648201526084016102f1565b50565b6080840180516000908152600080516020611fb683398151915260205260408082209251905163d8f8e99160e01b815260048101919091529091908290309063d8f8e99190602401602060405180830381865afa158015611361573d6000803e3d6000fd5b505050506040513d601f19601f820116820180604052508101906113859190611f98565b8451909150801561139857508360200151155b1561150b5783604001511561146057836060015115611439576001600160a01b038616600090815260058a01602052604090205460808801516113dd908883866110c7565b506113e88185611d80565b6001600160a01b038816600081815260058d01602052604080822082905560808c01519051939750849390917f10f8476f9a23ac06c638b35201072d11e362a5abe0247195ce64284bbe94ce9a91a4505b6001600160a01b038616600090815260048a0160205260409020805460ff1916905561150b565b61147087608001518787856110c7565b506001600160a01b038616600090815260058a0160205260408120805487929061149b908490611df0565b90915550506001600160a01b038116600090815260068a016020526040812080548792906114ca908490611d80565b9091555050608087015160405186916001600160a01b038916917f10f8476f9a23ac06c638b35201072d11e362a5abe0247195ce64284bbe94ce9a90600090a45b8360200151801561151b57508351155b156115d35761010087015161153390620f4240611dd9565b6001600160a01b038716600090815260098a0160205260408120805490919061155d908490611df0565b909155505061010087015161157590620f4240611dd9565b6001600160a01b038216600090815260098a0160205260408120805490919061159f908490611d80565b909155505061010087015160808801516040516001600160a01b0389169190600080516020611fd683398151915290600090a45b835180156115e2575083602001515b156118c9576001600160a01b038616600090815260058a01602090815260408083205460068d019092528220546101008a015191929091309063d072f4bc9061163390670de0b6b3a7640000611dd9565b6040518263ffffffff1660e01b815260040161165191815260200190565b602060405180830381865afa15801561166e573d6000803e3d6000fd5b505050506040513d601f19601f820116820180604052508101906116929190611dc0565b905082156116e7576116aa8a608001518a85886110c7565b5060808a015160405184916001600160a01b038c16917f10f8476f9a23ac06c638b35201072d11e362a5abe0247195ce64284bbe94ce9a90600090a45b866040015115611790576116fb8284611d80565b6117059087611d80565b955060008c60050160008b6001600160a01b03166001600160a01b031681526020019081526020016000208190555060008c60060160008b6001600160a01b03166001600160a01b031681526020019081526020016000208190555081896001600160a01b03168b60800151600080516020611fd683398151915260405160405180910390a46118c5565b821561183c5760006117a28483611df0565b905060008d60050160008c6001600160a01b03166001600160a01b0316815260200190815260200160002081905550808d60060160008c6001600160a01b03166001600160a01b0316815260200190815260200160002060008282546118089190611df0565b909155505060808b015160405184916001600160a01b038d1691600080516020611fd683398151915290600090a450611895565b6001600160a01b038916600090815260068d01602052604081208054839290611866908490611df0565b909155505060808a015160405182916001600160a01b038c1691600080516020611fd683398151915290600090a45b6001600160a01b038416600090815260068d016020526040812080548a92906118bf908490611d80565b90915550505b5050505b50509695505050505050565b6000838152600080516020611fb68339815191526020526040812060058101546003820154839161190891879190611aae565b6001600160a01b0385166000908152600984016020526040812080549293508792909190611937908490611d80565b92505081905550848260040160008282546119529190611df0565b9091555050604080516605a61796e5a61760cc1b815260018401600782018190529151908190036027018120546816985e5b95985d5b1d60ba1b82526001600160a01b031691600091600901908152604051908190036020018120546316d5e29b60e11b82526001600160a01b039081166004830181905260248301869052604483018b9052925060009190841690632dabc536906064016020604051808303816000875af1158015611a09573d6000803e3d6000fd5b505050506040513d601f19601f82011682018060405250810190611a2d9190611dc0565b90506000611a3b8983611df0565b6001600160a01b0389166000908152600888016020526040812080549293508392909190611a6a908490611d80565b90915550506001600160a01b0388166000908152600a8701602052604081208054839290611a99908490611d80565b909155509096505050505050505b9392505050565b600081600003611ac057506000611aa7565b81611acb8486611dd9565b611ad59190611d5e565b9050611aa7565b634e487b7160e01b600052604160045260246000fd5b604051610160810167ffffffffffffffff81118282101715611b1657611b16611adc565b60405290565b80151581146112f957600080fd5b8035611b3581611b1c565b919050565b803560048110611b3557600080fd5b6001600160a01b03811681146112f957600080fd5b8035611b3581611b49565b60008083601f840112611b7b57600080fd5b50813567ffffffffffffffff811115611b9357600080fd5b6020830191508360208260051b8501011115610f2957600080fd5b6000806000838503610180811215611bc557600080fd5b61016080821215611bd557600080fd5b611bdd611af2565b9150611be886611b2a565b8252611bf660208701611b3a565b6020830152611c0760408701611b5e565b6040830152606086013560608301526080860135608083015260a086013560a083015260c086013560c083015260e086013560e0830152610100808701358184015250610120808701358184015250610140611c64818801611b5e565b9083015290935084013567ffffffffffffffff811115611c8357600080fd5b611c8f86828701611b69565b9497909650939450505050565b6020808252825182820181905260009190848201906040850190845b81811015611cdd5783516001600160a01b031683529284019291840191600101611cb8565b50909695505050505050565b600060208284031215611cfb57600080fd5b5035919050565b60008060408385031215611d1557600080fd5b823591506020830135611d2781611b49565b809150509250929050565b634e487b7160e01b600052603260045260246000fd5b634e487b7160e01b600052601160045260246000fd5b600082611d7b57634e487b7160e01b600052601260045260246000fd5b500490565b808201808211156106ac576106ac611d48565b634e487b7160e01b600052602160045260246000fd5b600081611db857611db8611d48565b506000190190565b600060208284031215611dd257600080fd5b5051919050565b80820281158282048414176106ac576106ac611d48565b818103818111156106ac576106ac611d48565b600080600080600080600080610100898b031215611e2057600080fd5b8851611e2b81611b1c565b809850506020808a015160058110611e4257600080fd5b60408b0151909850611e5381611b49565b60608b015190975067ffffffffffffffff80821115611e7157600080fd5b818c0191508c601f830112611e8557600080fd5b815181811115611e9757611e97611adc565b8060051b604051601f19603f83011681018181108582111715611ebc57611ebc611adc565b60405291825284820192508381018501918f831115611eda57600080fd5b938501935b82851015611f045784519150611ef482611b49565b8184529385019392850192611edf565b809a505050505050506080890151935060a0890151925060c0890151915060e089015190509295985092959890939650565b600060018201611f4857611f48611d48565b5060010190565b600080600080600060a08688031215611f6757600080fd5b8551611f7281611b1c565b602087015160408801516060890151608090990151929a91995097965090945092505050565b600060208284031215611faa57600080fd5b8151611aa781611b4956fe29d9cba46c358ba7c1b8945751229339792c7c62e3197c240fa98916e75ffbf99ecbf86544b133eb80eba635946daf018f997778387601f4c8d43c851b2ec07435fa70a6f9ae8a4d427ebe0c1be62ffd2870fecc1df41c6fda0bf5803e562888a264697066735822122054c8f9b0e02e78a5080f30dfe56fae8a31001662f4a1d2e0a1c31aeb0dd837e464736f6c63430008120033",
  "devdoc": {
    "author": "Aisha El Allam",
    "details": "v3.0 (Diamond)",
    "kind": "dev",
    "methods": {
      "emptyCollateralAfterEnd(uint256)": {
        "params": {
          "termId": "The term id"
        }
      },
      "isUnderCollaterized(uint256,address)": {
        "details": "This will revert if called during ReleasingCollateral or after",
        "params": {
          "member": "The user to check for",
          "termId": "The term id"
        },
        "returns": {
          "_0": "Bool check if member is below 1.0x of collateralDeposit"
        }
      },
      "releaseCollateral(uint256)": {
        "params": {
          "termId": "term id"
        }
      },
      "requestContribution((bool,uint8,address,uint256,uint256,uint256,uint256,uint256,uint256,uint256,address),address[])": {
        "details": "Check EnumerableMap (openzeppelin) for arrays that are being accessed from Fund contract",
        "params": {
          "defaulters": "Addressess of all defaulters of the current cycle"
        },
        "returns": {
          "_0": "expellants array of addresses that were expelled"
        }
      },
      "withdrawCollateral(uint256)": {
        "details": "This follows the pull-over-push pattern.",
        "params": {
          "termId": "term id"
        }
      }
    },
    "title": "Takaturn Collateral",
    "version": 1
  },
  "userdoc": {
    "kind": "user",
    "methods": {
      "emptyCollateralAfterEnd(uint256)": {
        "notice": "allow the owner to empty the Collateral after 180 days"
      },
      "isUnderCollaterized(uint256,address)": {
        "notice": "Checks if a user has a collateral below 1.0x of total contribution amount"
      },
      "requestContribution((bool,uint8,address,uint256,uint256,uint256,uint256,uint256,uint256,uint256,address),address[])": {
        "notice": "Called from Fund contract when someone defaults"
      },
      "withdrawCollateral(uint256)": {
        "notice": "Called by each member after during or at the end of the term to withraw collateral"
      }
    },
    "notice": "This is used to operate the Takaturn collateral",
    "version": 1
  },
  "storageLayout": {
    "storage": [],
    "types": null
  }
}