{
  "address": "0xfB37E2967bE2F367e72D61F90A3aAB954883d0A3",
  "abi": [
    {
      "inputs": [],
      "name": "FunctionInvalidAtThisState",
      "type": "error"
    },
    {
      "anonymous": false,
      "inputs": [
        {
          "indexed": true,
          "internalType": "uint256",
          "name": "termId",
          "type": "uint256"
        },
        {
          "indexed": true,
          "internalType": "address",
          "name": "user",
          "type": "address"
        },
        {
          "indexed": true,
          "internalType": "uint256",
          "name": "amount",
          "type": "uint256"
        }
      ],
      "name": "OnCollateralLiquidated",
      "type": "event"
    },
    {
      "anonymous": false,
      "inputs": [
        {
          "indexed": true,
          "internalType": "uint256",
          "name": "termId",
          "type": "uint256"
        },
        {
          "indexed": true,
          "internalType": "enum LibCollateralStorage.CollateralStates",
          "name": "oldState",
          "type": "uint8"
        },
        {
          "indexed": true,
          "internalType": "enum LibCollateralStorage.CollateralStates",
          "name": "newState",
          "type": "uint8"
        }
      ],
      "name": "OnCollateralStateChanged",
      "type": "event"
    },
    {
      "anonymous": false,
      "inputs": [
        {
          "indexed": true,
          "internalType": "uint256",
          "name": "termId",
          "type": "uint256"
        },
        {
          "indexed": true,
          "internalType": "address",
          "name": "user",
          "type": "address"
        },
        {
          "indexed": true,
          "internalType": "uint256",
          "name": "collateralAmount",
          "type": "uint256"
        }
      ],
      "name": "OnCollateralWithdrawal",
      "type": "event"
    },
    {
      "anonymous": false,
      "inputs": [
        {
          "indexed": true,
          "internalType": "uint256",
          "name": "termId",
          "type": "uint256"
        },
        {
          "indexed": true,
          "internalType": "address",
          "name": "user",
          "type": "address"
        },
        {
          "indexed": true,
          "internalType": "uint256",
          "name": "amount",
          "type": "uint256"
        }
      ],
      "name": "OnFrozenMoneyPotLiquidated",
      "type": "event"
    },
    {
      "anonymous": false,
      "inputs": [
        {
          "indexed": true,
          "internalType": "uint256",
          "name": "termId",
          "type": "uint256"
        },
        {
          "indexed": true,
          "internalType": "address",
          "name": "user",
          "type": "address"
        },
        {
          "indexed": true,
          "internalType": "uint256",
          "name": "amount",
          "type": "uint256"
        }
      ],
      "name": "OnReimbursementWithdrawn",
      "type": "event"
    },
    {
      "inputs": [
        {
          "internalType": "uint256",
          "name": "termId",
          "type": "uint256"
        }
      ],
      "name": "emptyCollateralAfterEnd",
      "outputs": [],
      "stateMutability": "nonpayable",
      "type": "function"
    },
    {
      "inputs": [
        {
          "internalType": "uint256",
          "name": "termId",
          "type": "uint256"
        },
        {
          "internalType": "address",
          "name": "member",
          "type": "address"
        }
      ],
      "name": "isUnderCollaterized",
      "outputs": [
        {
          "internalType": "bool",
          "name": "",
          "type": "bool"
        }
      ],
      "stateMutability": "view",
      "type": "function"
    },
    {
      "inputs": [
        {
          "internalType": "uint256",
          "name": "termId",
          "type": "uint256"
        }
      ],
      "name": "releaseCollateral",
      "outputs": [],
      "stateMutability": "nonpayable",
      "type": "function"
    },
    {
      "inputs": [
        {
          "components": [
            {
              "internalType": "bool",
              "name": "initialized",
              "type": "bool"
            },
            {
              "internalType": "enum LibTermStorage.TermStates",
              "name": "state",
              "type": "uint8"
            },
            {
              "internalType": "address",
              "name": "termOwner",
              "type": "address"
            },
            {
              "internalType": "uint256",
              "name": "creationTime",
              "type": "uint256"
            },
            {
              "internalType": "uint256",
              "name": "termId",
              "type": "uint256"
            },
            {
              "internalType": "uint256",
              "name": "registrationPeriod",
              "type": "uint256"
            },
            {
              "internalType": "uint256",
              "name": "totalParticipants",
              "type": "uint256"
            },
            {
              "internalType": "uint256",
              "name": "cycleTime",
              "type": "uint256"
            },
            {
              "internalType": "uint256",
              "name": "contributionAmount",
              "type": "uint256"
            },
            {
              "internalType": "uint256",
              "name": "contributionPeriod",
              "type": "uint256"
            },
            {
              "internalType": "address",
              "name": "stableTokenAddress",
              "type": "address"
            }
          ],
          "internalType": "struct LibTermStorage.Term",
          "name": "term",
          "type": "tuple"
        },
        {
          "internalType": "address[]",
          "name": "defaulters",
          "type": "address[]"
        }
      ],
      "name": "requestContribution",
      "outputs": [
        {
          "internalType": "address[]",
          "name": "",
          "type": "address[]"
        }
      ],
      "stateMutability": "nonpayable",
      "type": "function"
    },
    {
      "inputs": [
        {
          "internalType": "uint256",
          "name": "termId",
          "type": "uint256"
        }
      ],
      "name": "withdrawCollateral",
      "outputs": [],
      "stateMutability": "nonpayable",
      "type": "function"
    },
    {
      "inputs": [
        {
          "internalType": "uint256",
          "name": "termId",
          "type": "uint256"
        },
        {
          "internalType": "address",
          "name": "depositor",
          "type": "address"
        }
      ],
      "name": "withdrawReimbursement",
      "outputs": [],
      "stateMutability": "nonpayable",
      "type": "function"
    }
  ],
  "transactionHash": "0x1233e8b0c103180fda31ff13924b487c9d6dd7f57f4d1317766b90aae60222d2",
  "args": [],
  "numDeployments": 8,
  "solcInputHash": "547ed487077baaa27d0cf9646aec8b31",
  "bytecode": "0x608060405234801561001057600080fd5b506121cc806100206000396000f3fe608060405234801561001057600080fd5b50600436106100625760003560e01c80632081c1af1461006757806339007b77146100905780636112fe2e146100a5578063ae483d07146100b8578063c177f091146100cb578063c3bfb61c146100ee575b600080fd5b61007a610075366004611d0f565b610101565b6040516100879190611dfd565b60405180910390f35b6100a361009e366004611e4a565b610270565b005b6100a36100b3366004611e4a565b6102f7565b6100a36100c6366004611e63565b61068b565b6100de6100d9366004611e63565b610810565b6040519015158152602001610087565b6100a36100fc366004611e4a565b610825565b6060836080015160016101148282610a4f565b6080860180516000908152600080516020612177833981519152602090815260408083209351835260008051602061213783398151915282528083208151898402818101850190935289815290939283926101929287928e928892918f918f91829190850190849080828437600092019190915250610aba92505050565b915091506000806101a38686610f7d565b9092509050811561026057825160005b818110156101e8576101e0878683815181106101d1576101d1611e93565b602002602001015186866110a3565b6001016101b3565b506101f38386611ebf565b945060005b8381101561025d578588600601600085848151811061021957610219611e93565b60200260200101516001600160a01b03166001600160a01b0316815260200190815260200160002060008282546102509190611ee1565b90915550506001016101f8565b50505b50909a9950505050505050505050565b6000818152600080516020612137833981519152602052604090208054600490610100900460ff16818111156102a8576102a8611ef4565b146102e85760405162461bcd60e51b815260206004820152600b60248201526a57726f6e6720737461746560a81b60448201526064015b60405180910390fd5b6102f382600261119d565b5050565b600081815260008051602061217783398151915260209081526040808320600080516020612117833981519152835281842033855260058201909352922054806103765760405162461bcd60e51b815260206004820152601060248201526f436f6c6c61746572616c20656d70747960801b60448201526064016102df565b600060028454610100900460ff16600381111561039557610395611ef4565b0361044e573360008181526005860160205260408120556103b9908690848661123a565b5060405133908390600081818185875af1925050503d80600081146103fa576040519150601f19603f3d011682016040523d82523d6000602084013e6103ff565b606091505b505080915050836002016000815461041690611f0a565b909155506040518290339087907fd94b416f75aca5d5e5c7e359e58fa21ccbdbb8a6036f8af786e3e2ab7ceb37be90600090a46105b7565b60018454610100900460ff16600381111561046b5761046b611ef4565b036105b75760405163f0d826e760e01b815260048101869052600090600a90309063f0d826e790602401602060405180830381865afa1580156104b2573d6000803e3d6000fd5b505050506040513d601f19601f820116820180604052508101906104d69190611f21565b6104e190600f611f3a565b6104eb9190611ebf565b9050808311156105b55760006105018285611f51565b336000908152600588016020526040812080549293508392909190610527908490611f51565b9091555061053990508733838861123a565b5060405133908290600081818185875af1925050503d806000811461057a576040519150601f19603f3d011682016040523d82523d6000602084013e61057f565b606091505b50506040519093508190339089907fd94b416f75aca5d5e5c7e359e58fa21ccbdbb8a6036f8af786e3e2ab7ceb37be90600090a4505b505b806105f65760405162461bcd60e51b815260206004820152600f60248201526e15da5d1a191c985dc819985a5b1959608a1b60448201526064016102df565b33600090815260078401602052604090205460ff1680156106275750336000908152600a8401602052604090205415155b1561068457604051637b52069560e11b815260048101869052336024820152309063f6a40d2a90604401600060405180830381600087803b15801561066b57600080fd5b505af115801561067f573d6000803e3d6000fd5b505050505b5050505050565b6000828152600080516020612137833981519152602052604090205460ff166106ed5760405162461bcd60e51b815260206004820152601460248201527346756e6420646f6573206e6f742065786973747360601b60448201526064016102df565b6000828152600080516020612177833981519152602090815260408083206001600160a01b03851684526006810190925290912054806107625760405162461bcd60e51b815260206004820152601060248201526f4e6f7468696e6720746f20636c61696d60801b60448201526064016102df565b6001600160a01b03831660008181526006840160205260408082208290555190919083908381818185875af1925050503d80600081146107be576040519150601f19603f3d011682016040523d82523d6000602084013e6107c3565b606091505b50509050806107d157600080fd5b81846001600160a01b0316867f1d8d3d09e68fe1873369af18c4d7d361038dac92ac768b54ac19273dbd4cb6b860405160405180910390a45050505050565b600061081c838361127b565b90505b92915050565b8061082f816113c2565b81600261083c8282610a4f565b60006000805160206121778339815191526000868152602091909152604081209150600080516020612117833981519152600087815260209190915260408082209051636b95dc3f60e11b815260048101899052909250309063d72bb87e90602401600060405180830381865afa1580156108bb573d6000803e3d6000fd5b505050506040513d6000823e601f3d908101601f191682016040526108e39190810190611f64565b5050955050505050508062ed4e006108fb9190611ee1565b421161093b5760405162461bcd60e51b815260206004820152600f60248201526e10d85b89dd08195b5c1d1e481e595d608a1b60448201526064016102df565b6003830154600090815b818110156109e257600086600301828154811061096457610964611e93565b6000918252602080832091909101546001600160a01b031680835260058a0182526040808420805460068d0190945290842080549185905584905590935090916109b08e85858c61123a565b9050806109bd8385611ee1565b6109c79190611ee1565b6109d19088611ee1565b965084600101945050505050610945565b506109ee89600361119d565b604051600090339084908381818185875af1925050503d8060008114610a30576040519150601f19603f3d011682016040523d82523d6000602084013e610a35565b606091505b5050905080610a4357600080fd5b50505050505050505050565b60008281526000805160206121778339815191526020526040902054610100900460ff16816003811115610a8557610a85611ef4565b816003811115610a9757610a97611ef4565b14610ab55760405163201328a760e01b815260040160405180910390fd5b505050565b600060606000835167ffffffffffffffff811115610ada57610ada611c3d565b604051908082528060200260200182016040528015610b03578160200160208202803683370190505b5090506000806000306001600160a01b031663d072f4bc8a6101000151670de0b6b3a7640000610b339190611f3a565b6040518263ffffffff1660e01b8152600401610b5191815260200190565b602060405180830381865afa158015610b6e573d6000803e3d6000fd5b505050506040513d601f19601f82011682018060405250810190610b929190611f21565b905060005b8751811015610f6c576040805160808101825260008082526020820181905291810182905260608101919091528960060160008a8481518110610bdc57610bdc611e93565b6020908102919091018101516001600160a01b0316825281019190915260400160009081205460ff1615156060830152895160058e019082908c9086908110610c2757610c27611e93565b60200260200101516001600160a01b03166001600160a01b03168152602001908152602001600020549050816060015115610e5957610c838c608001518b8581518110610c7657610c76611e93565b602002602001015161127b565b15610e42578a600a0160008b8581518110610ca057610ca0611e93565b6020908102919091018101516001600160a01b031682528101919091526040016000205460ff1615610e2c57838110610cea57600182526000602083018190526040830152610e89565b60008b60090160008c8681518110610d0457610d04611e93565b60200260200101516001600160a01b03166001600160a01b03168152602001908152602001600020541115610d49576000808352600160208401526040830152610e89565b60808c015160405163f0d826e760e01b81526004810191909152309063f0d826e790602401602060405180830381865afa158015610d8b573d6000803e3d6000fd5b505050506040513d601f19601f82011682018060405250810190610daf9190611f21565b8d60060160008c8681518110610dc757610dc7611e93565b60200260200101516001600160a01b03166001600160a01b031681526020019081526020016000205482610dfb9190611ee1565b10610e16576001808352602083015260006040830152610e89565b6001808352602083018190526040830152610e89565b6001808352600060208401526040830152610e89565b600182526000602083018190526040830152610e89565b838110610e7757600182526000602083018190526040830152610e89565b60008083526020830152600160408301525b610eb08d8c8e8d8781518110610ea157610ea1611e93565b6020026020010151888761145d565b610eba9086611ee1565b9450816040015115610f6257898381518110610ed857610ed8611e93565b6020026020010151878781518110610ef257610ef2611e93565b60200260200101906001600160a01b031690816001600160a01b0316815250508a600401548b600b016000898981518110610f2f57610f2f611e93565b60200260200101516001600160a01b03166001600160a01b03168152602001908152602001600020819055508560010195505b5050600101610b97565b509099929850919650505050505050565b60006060600080856003018054905067ffffffffffffffff811115610fa457610fa4611c3d565b604051908082528060200260200182016040528015610fcd578160200160208202803683370190505b506003870154909150600090815b8181101561109257886003018181548110610ff857610ff8611e93565b60009182526020808320909101546001600160a01b031680835260068b0190915260409091205490955060ff1615801561104c57506001600160a01b038516600090815260048a01602052604090205460ff165b1561108a578484848151811061106457611064611e93565b6001600160a01b03909216602092830291909101909101528261108681612097565b9350505b600101610fdb565b5090945090925050505b9250929050565b6001600160a01b038316600090815260068501602052604090205460ff16611197576001840154600090815b81811015611125578660010181815481106110ec576110ec611e93565b6000918252602090912001546001600160a01b039081169087160361111d57611116816001611ee1565b9250611125565b6001016110cf565b5060005b84811015611193576000838152600c88016020526040812085516001929087908590811061115957611159611e93565b6020908102919091018101516001600160a01b03168252810191909152604001600020805460ff1916911515919091179055600101611129565b5050505b50505050565b600082815260008051602061217783398151915260205260409020805461010080820460ff16918491849161ff001916908360038111156111e0576111e0611ef4565b02179055508260038111156111f7576111f7611ef4565b81600381111561120957611209611ef4565b60405186907ffe918112a2fca8c18cc609a5d585d9fc8448267cb7b9d6c19a445fe5c0c199c890600090a450505050565b6001600160a01b038316600090815260078201602052604081205460ff161561126f57611268858486611a36565b9050611273565b5060005b949350505050565b6000828152600080516020612177833981519152602090815260408083206001600160a01b03851684526005810190925282205482906112d7866000908152600080516020612137833981519152602052604090205460ff1690565b6113565760405163bb91b76d60e01b81526001600160a01b038616600482015260248101879052309063bb91b76d9060440160a060405180830381865afa158015611326573d6000803e3d6000fd5b505050506040513d601f19601f8201168201806040525081019061134a91906120b0565b5094506113b992505050565b60405163f0d826e760e01b815260048101879052309063f0d826e790602401602060405180830381865afa158015611392573d6000803e3d6000fd5b505050506040513d601f19601f820116820180604052508101906113b69190611f21565b91505b10949350505050565b60008181527f87101b21d556417ad2b8e8f2700dbad90721d5d50a1f435f2dee0b9dc981ac8a60205260409020546001600160a01b036201000090910416331461145a5760405162461bcd60e51b8152602060048201526024808201527f5465726d4f776e61626c653a2063616c6c6572206973206e6f7420746865206f6044820152633bb732b960e11b60648201526084016102df565b50565b608084018051600090815260008051602061211783398151915260205260408082209251905163d8f8e99160e01b815260048101919091529091908290309063d8f8e99190602401602060405180830381865afa1580156114c2573d6000803e3d6000fd5b505050506040513d601f19601f820116820180604052508101906114e691906120f9565b845190915080156114f957508360200151155b1561166c578360400151156115c15783606001511561159a576001600160a01b038616600090815260058a016020526040902054608088015161153e9088838661123a565b506115498185611ee1565b6001600160a01b038816600081815260058d01602052604080822082905560808c01519051939750849390917f10f8476f9a23ac06c638b35201072d11e362a5abe0247195ce64284bbe94ce9a91a4505b6001600160a01b038616600090815260048a0160205260409020805460ff1916905561166c565b6115d1876080015187878561123a565b506001600160a01b038616600090815260058a016020526040812080548792906115fc908490611f51565b90915550506001600160a01b038116600090815260068a0160205260408120805487929061162b908490611ee1565b9091555050608087015160405186916001600160a01b038916917f10f8476f9a23ac06c638b35201072d11e362a5abe0247195ce64284bbe94ce9a90600090a45b8360200151801561167c57508351155b156117345761010087015161169490620f4240611f3a565b6001600160a01b038716600090815260098a016020526040812080549091906116be908490611f51565b90915550506101008701516116d690620f4240611f3a565b6001600160a01b038216600090815260098a01602052604081208054909190611700908490611ee1565b909155505061010087015160808801516040516001600160a01b038916919060008051602061215783398151915290600090a45b83518015611743575083602001515b15611a2a576001600160a01b038616600090815260058a01602090815260408083205460068d019092528220546101008a015191929091309063d072f4bc9061179490670de0b6b3a7640000611f3a565b6040518263ffffffff1660e01b81526004016117b291815260200190565b602060405180830381865afa1580156117cf573d6000803e3d6000fd5b505050506040513d601f19601f820116820180604052508101906117f39190611f21565b905082156118485761180b8a608001518a858861123a565b5060808a015160405184916001600160a01b038c16917f10f8476f9a23ac06c638b35201072d11e362a5abe0247195ce64284bbe94ce9a90600090a45b8660400151156118f15761185c8284611ee1565b6118669087611ee1565b955060008c60050160008b6001600160a01b03166001600160a01b031681526020019081526020016000208190555060008c60060160008b6001600160a01b03166001600160a01b031681526020019081526020016000208190555081896001600160a01b03168b6080015160008051602061215783398151915260405160405180910390a4611a26565b821561199d5760006119038483611f51565b905060008d60050160008c6001600160a01b03166001600160a01b0316815260200190815260200160002081905550808d60060160008c6001600160a01b03166001600160a01b0316815260200190815260200160002060008282546119699190611f51565b909155505060808b015160405184916001600160a01b038d169160008051602061215783398151915290600090a4506119f6565b6001600160a01b038916600090815260068d016020526040812080548392906119c7908490611f51565b909155505060808a015160405182916001600160a01b038c169160008051602061215783398151915290600090a45b6001600160a01b038416600090815260068d016020526040812080548a9290611a20908490611ee1565b90915550505b5050505b50509695505050505050565b600083815260008051602061211783398151915260205260408120600581015460038201548391611a6991879190611c0f565b6001600160a01b0385166000908152600984016020526040812080549293508792909190611a98908490611ee1565b9250508190555084826004016000828254611ab39190611f51565b9091555050604080516605a61796e5a61760cc1b815260018401600782018190529151908190036027018120546816985e5b95985d5b1d60ba1b82526001600160a01b031691600091600901908152604051908190036020018120546316d5e29b60e11b82526001600160a01b039081166004830181905260248301869052604483018b9052925060009190841690632dabc536906064016020604051808303816000875af1158015611b6a573d6000803e3d6000fd5b505050506040513d601f19601f82011682018060405250810190611b8e9190611f21565b90506000611b9c8983611f51565b6001600160a01b0389166000908152600888016020526040812080549293508392909190611bcb908490611ee1565b90915550506001600160a01b0388166000908152600a8701602052604081208054839290611bfa908490611ee1565b909155509096505050505050505b9392505050565b600081600003611c2157506000611c08565b81611c2c8486611f3a565b611c369190611ebf565b9050611c08565b634e487b7160e01b600052604160045260246000fd5b604051610160810167ffffffffffffffff81118282101715611c7757611c77611c3d565b60405290565b801515811461145a57600080fd5b8035611c9681611c7d565b919050565b803560048110611c9657600080fd5b6001600160a01b038116811461145a57600080fd5b8035611c9681611caa565b60008083601f840112611cdc57600080fd5b50813567ffffffffffffffff811115611cf457600080fd5b6020830191508360208260051b850101111561109c57600080fd5b6000806000838503610180811215611d2657600080fd5b61016080821215611d3657600080fd5b611d3e611c53565b9150611d4986611c8b565b8252611d5760208701611c9b565b6020830152611d6860408701611cbf565b6040830152606086013560608301526080860135608083015260a086013560a083015260c086013560c083015260e086013560e0830152610100808701358184015250610120808701358184015250610140611dc5818801611cbf565b9083015290935084013567ffffffffffffffff811115611de457600080fd5b611df086828701611cca565b9497909650939450505050565b6020808252825182820181905260009190848201906040850190845b81811015611e3e5783516001600160a01b031683529284019291840191600101611e19565b50909695505050505050565b600060208284031215611e5c57600080fd5b5035919050565b60008060408385031215611e7657600080fd5b823591506020830135611e8881611caa565b809150509250929050565b634e487b7160e01b600052603260045260246000fd5b634e487b7160e01b600052601160045260246000fd5b600082611edc57634e487b7160e01b600052601260045260246000fd5b500490565b8082018082111561081f5761081f611ea9565b634e487b7160e01b600052602160045260246000fd5b600081611f1957611f19611ea9565b506000190190565b600060208284031215611f3357600080fd5b5051919050565b808202811582820484141761081f5761081f611ea9565b8181038181111561081f5761081f611ea9565b600080600080600080600080610100898b031215611f8157600080fd5b8851611f8c81611c7d565b809850506020808a015160058110611fa357600080fd5b60408b0151909850611fb481611caa565b60608b015190975067ffffffffffffffff80821115611fd257600080fd5b818c0191508c601f830112611fe657600080fd5b815181811115611ff857611ff8611c3d565b8060051b604051601f19603f8301168101818110858211171561201d5761201d611c3d565b60405291825284820192508381018501918f83111561203b57600080fd5b938501935b82851015612065578451915061205582611caa565b8184529385019392850192612040565b809a505050505050506080890151935060a0890151925060c0890151915060e089015190509295985092959890939650565b6000600182016120a9576120a9611ea9565b5060010190565b600080600080600060a086880312156120c857600080fd5b85516120d381611c7d565b602087015160408801516060890151608090990151929a91995097965090945092505050565b60006020828403121561210b57600080fd5b8151611c0881611caa56fe29d9cba46c358ba7c1b8945751229339792c7c62e3197c240fa98916e75ffbf96751f7e27cecf86d7136f5749c224248cae80a39fafb59f8f6bf12c52816307c9ecbf86544b133eb80eba635946daf018f997778387601f4c8d43c851b2ec07435fa70a6f9ae8a4d427ebe0c1be62ffd2870fecc1df41c6fda0bf5803e562888a2646970667358221220552ef2d7adf53ead81fcadd0c23b3a484c946cd49c80b930e437476364beabf264736f6c63430008120033",
  "devdoc": {
    "author": "Aisha El Allam",
    "details": "v3.0 (Diamond)",
    "kind": "dev",
    "methods": {
      "emptyCollateralAfterEnd(uint256)": {
        "params": {
          "termId": "The term id"
        }
      },
      "isUnderCollaterized(uint256,address)": {
        "details": "This will revert if called during ReleasingCollateral or after",
        "params": {
          "member": "The user to check for",
          "termId": "The term id"
        },
        "returns": {
          "_0": "Bool check if member is below 1.0x of collateralDeposit"
        }
      },
      "releaseCollateral(uint256)": {
        "params": {
          "termId": "term id"
        }
      },
      "requestContribution((bool,uint8,address,uint256,uint256,uint256,uint256,uint256,uint256,uint256,address),address[])": {
        "details": "Check EnumerableMap (openzeppelin) for arrays that are being accessed from Fund contract",
        "params": {
          "defaulters": "Addressess of all defaulters of the current cycle"
        },
        "returns": {
          "_0": "expellants array of addresses that were expelled"
        }
      },
      "withdrawCollateral(uint256)": {
        "details": "This follows the pull-over-push pattern.",
        "params": {
          "termId": "term id"
        }
      },
      "withdrawReimbursement(uint256,address)": {
        "params": {
          "depositor": "Address of the depositor",
          "termId": "term id"
        }
      }
    },
    "title": "Takaturn Collateral",
    "version": 1
  },
  "userdoc": {
    "kind": "user",
    "methods": {
      "emptyCollateralAfterEnd(uint256)": {
        "notice": "allow the owner to empty the Collateral after 180 days"
      },
      "isUnderCollaterized(uint256,address)": {
        "notice": "Checks if a user has a collateral below 1.0x of total contribution amount"
      },
      "requestContribution((bool,uint8,address,uint256,uint256,uint256,uint256,uint256,uint256,uint256,address),address[])": {
        "notice": "Called from Fund contract when someone defaults"
      },
      "withdrawCollateral(uint256)": {
        "notice": "Called by each member after during or at the end of the term to withraw collateral"
      }
    },
    "notice": "This is used to operate the Takaturn collateral",
    "version": 1
  },
  "storageLayout": {
    "storage": [],
    "types": null
  }
}