{
  "address": "0xA53fB2d947Ba772eEB4cc93A1Cc2E44391eE328B",
  "abi": [
    {
      "inputs": [
        {
          "internalType": "address",
          "name": "_aggregatorAddressEthUsd",
          "type": "address"
        },
        {
          "internalType": "address",
          "name": "_aggregatorAddressUsdUsdc",
          "type": "address"
        },
        {
          "internalType": "address",
          "name": "_sequencerUptimeFeedAddress",
          "type": "address"
        }
      ],
      "name": "init",
      "outputs": [],
      "stateMutability": "nonpayable",
      "type": "function"
    }
  ],
  "args": [],
  "numDeployments": 1,
  "solcInputHash": "b727eed98cd6f01266a2359cf6fef327",
  "bytecode": "0x608060405234801561001057600080fd5b506101b9806100206000396000f3fe608060405234801561001057600080fd5b506004361061002b5760003560e01c8063184b955914610030575b600080fd5b61012261003e366004610140565b610e107f138fa7b895cc6132bd44317f3510a9c38821e93ca223f9fdc532527c01963ec45560408051661155120bd554d160ca1b81527f138fa7b895cc6132bd44317f3510a9c38821e93ca223f9fdc532527c01963ec660078201819052825191829003602701822080546001600160a01b039788166001600160a01b031991821617909155675553442f5553444360c01b8352600883019190915291519081900360280190208054938516938216939093179092557f138fa7b895cc6132bd44317f3510a9c38821e93ca223f9fdc532527c01963ec58054919093169116179055565b005b80356001600160a01b038116811461013b57600080fd5b919050565b60008060006060848603121561015557600080fd5b61015e84610124565b925061016c60208501610124565b915061017a60408501610124565b9050925092509256fea2646970667358221220444ec639c6fddc7f6593bcaad2833b93bbc3419e414a6baf4ce040a6facc8f5664736f6c63430008120033",
  "devdoc": {
    "kind": "dev",
    "methods": {},
    "version": 1
  },
  "userdoc": {
    "kind": "user",
    "methods": {},
    "version": 1
  },
  "storageLayout": {
    "storage": [],
    "types": null
  }
}