{
  "address": "0x5A5e3d1096996604b5b0342f8E8778ffDfF9D7be",
  "abi": [
    {
      "inputs": [
        {
          "internalType": "address",
          "name": "_aggregatorAddressEthUsd",
          "type": "address"
        },
        {
          "internalType": "address",
          "name": "_aggregatorAddressUsdUsdc",
          "type": "address"
        },
        {
          "internalType": "address",
          "name": "_sequencerUptimeFeedAddress",
          "type": "address"
        }
      ],
      "name": "init",
      "outputs": [],
      "stateMutability": "nonpayable",
      "type": "function"
    }
  ],
  "transactionHash": "0x4701224bf1d78d89d30bdca7f01858a371081b95fa04d82c9ea5c8e72566ff86",
  "args": [],
  "numDeployments": 1,
  "solcInputHash": "170280041a9111201cdb7b99d57489f8",
  "bytecode": "0x608060405234801561001057600080fd5b506101b9806100206000396000f3fe608060405234801561001057600080fd5b506004361061002b5760003560e01c8063184b955914610030575b600080fd5b61012261003e366004610140565b610e107f138fa7b895cc6132bd44317f3510a9c38821e93ca223f9fdc532527c01963ec45560408051661155120bd554d160ca1b81527f138fa7b895cc6132bd44317f3510a9c38821e93ca223f9fdc532527c01963ec660078201819052825191829003602701822080546001600160a01b039788166001600160a01b031991821617909155675553442f5553444360c01b8352600883019190915291519081900360280190208054938516938216939093179092557f138fa7b895cc6132bd44317f3510a9c38821e93ca223f9fdc532527c01963ec58054919093169116179055565b005b80356001600160a01b038116811461013b57600080fd5b919050565b60008060006060848603121561015557600080fd5b61015e84610124565b925061016c60208501610124565b915061017a60408501610124565b9050925092509256fea264697066735822122067b1ad036995cd7b4c261749b5b70d94e696c1d7e3df684082acb8dc95173a5264736f6c63430008120033",
  "devdoc": {
    "kind": "dev",
    "methods": {},
    "version": 1
  },
  "userdoc": {
    "kind": "user",
    "methods": {},
    "version": 1
  },
  "storageLayout": {
    "storage": [],
    "types": null
  }
}