{
  "address": "0xACD0e02f4D1D3DDe8146716f150Db253ad0B4c1B",
  "abi": [
    {
      "inputs": [
        {
          "internalType": "uint256",
          "name": "available",
          "type": "uint256"
        },
        {
          "internalType": "uint256",
          "name": "required",
          "type": "uint256"
        }
      ],
      "name": "InsufficientBalance",
      "type": "error"
    },
    {
      "anonymous": false,
      "inputs": [
        {
          "indexed": true,
          "internalType": "uint256",
          "name": "termId",
          "type": "uint256"
        },
        {
          "indexed": true,
          "internalType": "address",
          "name": "participant",
          "type": "address"
        },
        {
          "indexed": true,
          "internalType": "bool",
          "name": "enabled",
          "type": "bool"
        }
      ],
      "name": "OnAutoPayToggled",
      "type": "event"
    },
    {
      "anonymous": false,
      "inputs": [
        {
          "indexed": true,
          "internalType": "uint256",
          "name": "termId",
          "type": "uint256"
        },
        {
          "indexed": true,
          "internalType": "address",
          "name": "beneficiary",
          "type": "address"
        }
      ],
      "name": "OnBeneficiaryAwarded",
      "type": "event"
    },
    {
      "anonymous": false,
      "inputs": [
        {
          "indexed": true,
          "internalType": "uint256",
          "name": "termId",
          "type": "uint256"
        },
        {
          "indexed": true,
          "internalType": "uint256",
          "name": "currentCycle",
          "type": "uint256"
        },
        {
          "indexed": true,
          "internalType": "address",
          "name": "expellant",
          "type": "address"
        }
      ],
      "name": "OnDefaulterExpelled",
      "type": "event"
    },
    {
      "anonymous": false,
      "inputs": [
        {
          "indexed": true,
          "internalType": "uint256",
          "name": "termId",
          "type": "uint256"
        },
        {
          "indexed": true,
          "internalType": "uint256",
          "name": "currentCycle",
          "type": "uint256"
        },
        {
          "indexed": true,
          "internalType": "enum LibFundStorage.FundStates",
          "name": "newState",
          "type": "uint8"
        }
      ],
      "name": "OnFundStateChanged",
      "type": "event"
    },
    {
      "anonymous": false,
      "inputs": [
        {
          "indexed": true,
          "internalType": "uint256",
          "name": "termId",
          "type": "uint256"
        },
        {
          "indexed": true,
          "internalType": "address",
          "name": "claimant",
          "type": "address"
        },
        {
          "indexed": true,
          "internalType": "uint256",
          "name": "amount",
          "type": "uint256"
        }
      ],
      "name": "OnFundWithdrawn",
      "type": "event"
    },
    {
      "anonymous": false,
      "inputs": [
        {
          "indexed": true,
          "internalType": "uint256",
          "name": "termId",
          "type": "uint256"
        },
        {
          "indexed": true,
          "internalType": "address",
          "name": "payer",
          "type": "address"
        },
        {
          "indexed": true,
          "internalType": "uint256",
          "name": "currentCycle",
          "type": "uint256"
        }
      ],
      "name": "OnPaidContribution",
      "type": "event"
    },
    {
      "anonymous": false,
      "inputs": [
        {
          "indexed": true,
          "internalType": "uint256",
          "name": "termId",
          "type": "uint256"
        },
        {
          "indexed": true,
          "internalType": "uint256",
          "name": "currentCycle",
          "type": "uint256"
        },
        {
          "indexed": true,
          "internalType": "address",
          "name": "defaulter",
          "type": "address"
        }
      ],
      "name": "OnParticipantDefaulted",
      "type": "event"
    },
    {
      "inputs": [],
      "name": "FUND_VERSION",
      "outputs": [
        {
          "internalType": "uint256",
          "name": "",
          "type": "uint256"
        }
      ],
      "stateMutability": "view",
      "type": "function"
    },
    {
      "inputs": [
        {
          "internalType": "uint256",
          "name": "termId",
          "type": "uint256"
        }
      ],
      "name": "closeFundingPeriod",
      "outputs": [],
      "stateMutability": "nonpayable",
      "type": "function"
    },
    {
      "inputs": [
        {
          "internalType": "uint256",
          "name": "termId",
          "type": "uint256"
        }
      ],
      "name": "emptyFundAfterEnd",
      "outputs": [],
      "stateMutability": "nonpayable",
      "type": "function"
    },
    {
      "inputs": [
        {
          "internalType": "uint256",
          "name": "termId",
          "type": "uint256"
        },
        {
          "internalType": "address",
          "name": "beneficiary",
          "type": "address"
        }
      ],
      "name": "isBeneficiary",
      "outputs": [
        {
          "internalType": "bool",
          "name": "",
          "type": "bool"
        }
      ],
      "stateMutability": "view",
      "type": "function"
    },
    {
      "inputs": [
        {
          "internalType": "uint256",
          "name": "termId",
          "type": "uint256"
        }
      ],
      "name": "payContribution",
      "outputs": [],
      "stateMutability": "nonpayable",
      "type": "function"
    },
    {
      "inputs": [
        {
          "internalType": "uint256",
          "name": "termId",
          "type": "uint256"
        },
        {
          "internalType": "address",
          "name": "participant",
          "type": "address"
        }
      ],
      "name": "payContributionOnBehalfOf",
      "outputs": [],
      "stateMutability": "nonpayable",
      "type": "function"
    },
    {
      "inputs": [
        {
          "internalType": "uint256",
          "name": "termId",
          "type": "uint256"
        }
      ],
      "name": "startNewCycle",
      "outputs": [],
      "stateMutability": "nonpayable",
      "type": "function"
    },
    {
      "inputs": [
        {
          "internalType": "uint256",
          "name": "termId",
          "type": "uint256"
        }
      ],
      "name": "toggleAutoPay",
      "outputs": [],
      "stateMutability": "nonpayable",
      "type": "function"
    },
    {
      "inputs": [
        {
          "internalType": "uint256",
          "name": "termId",
          "type": "uint256"
        }
      ],
      "name": "withdrawFund",
      "outputs": [],
      "stateMutability": "nonpayable",
      "type": "function"
    }
  ],
  "transactionHash": "0x8e63e35bace0ccacfa7e9b1cef3d3a9f5e8b75b3390de6a3091eaf9cdc36a841",
  "args": [],
  "numDeployments": 7,
  "solcInputHash": "ee19a417e4e4cfe3fc9a4b09ec42989a",
  "bytecode": "0x608060405234801561001057600080fd5b5061294b806100206000396000f3fe608060405234801561001057600080fd5b50600436106100935760003560e01c80637be2ecea116100665780637be2ecea146100e657806384431629146100f9578063e9783e601461010c578063ea28b9bb14610134578063f7af18f61461014757600080fd5b80630cee1725146100985780632009844b146100ad5780634b5c9c80146100c057806358733dec146100d3575b600080fd5b6100ab6100a63660046124b4565b61015d565b005b6100ab6100bb3660046124b4565b61044b565b6100ab6100ce3660046124b4565b61065d565b6100ab6100e13660046124b4565b6108b5565b6100ab6100f43660046124b4565b610c7f565b6100ab6101073660046124e2565b610c8b565b61011f61011a3660046124e2565b610ec2565b60405190151581526020015b60405180910390f35b6100ab6101423660046124b4565b610eff565b61014f600281565b60405190815260200161012b565b60008181526000805160206128b6833981519152602090815260408083206000805160206128f68339815191529092529091208154600490610100900460ff16818111156101ad576101ad612512565b14806101ca575033600090815260068301602052604090205460ff165b61021b5760405162461bcd60e51b815260206004820152601960248201527f596f75206d75737420626520612062656e65666963696172790000000000000060448201526064015b60405180910390fd5b336000908152600983016020908152604080832054600a8601835281842054600686019093529220549115159160ff90911690151582806102595750815b806102615750805b6102a35760405162461bcd60e51b81526020600482015260136024820152724e6f7468696e6720746f20776974686472617760681b6044820152606401610212565b81156104235760008681526000805160206128d68339815191526020908152604080832081516101608101909252805460ff808216151584526103839484019161010090041660038111156102fa576102fa612512565b600381111561030b5761030b612512565b815281546001600160a01b036201000090910481166020830152600183015460408301526002830154606083015260038301546080830152600483015460a0830152600583015460c0830152600683015460e0830152600783015461010083015260089092015490911661012090910152873361101e565b905060048654610100900460ff1660048111156103a2576103a2612512565b146104135780156104135760405162461bcd60e51b815260206004820152603560248201527f4e656564206174206c6561737420312e3152434320636f6c6c61746572616c206044820152741d1bc81d5b999c99595e99481e5bdd5c88199d5b99605a1b6064820152608401610212565b61041d873361115c565b50610433565b821561043357610433863361115c565b8015610443576104438633611342565b505050505050565b60006000805160206128b683398151915260008381526020919091526040808220905163d8f8e99160e01b815260048101859052909250309063d8f8e99190602401602060405180830381865afa1580156104aa573d6000803e3d6000fd5b505050506040513d601f19601f820116820180604052508101906104ce9190612538565b905060018254610100900460ff1660048111156104ed576104ed612512565b1461050a5760405162461bcd60e51b815260040161021290612555565b33600090815260058301602052604090205460ff1661055f5760405162461bcd60e51b8152602060048201526011602482015270139bdd0818481c185c9d1a58da5c185b9d607a1b6044820152606401610212565b336001600160a01b038216036105b15760405162461bcd60e51b815260206004820152601760248201527642656e656669636961727920646f65736e27742070617960481b6044820152606401610212565b33600090815260078301602052604090205460ff161561060c5760405162461bcd60e51b8152602060048201526016602482015275416c7265616479207061696420666f72206379636c6560501b6044820152606401610212565b60048201546000908152600c83016020908152604080832033845290915290205460ff161561064d5760405162461bcd60e51b81526004016102129061257a565b6106588333336114c7565b505050565b8061066781611661565b60008281526000805160206128b6833981519152602052604090208054600490610100900460ff168181111561069f5761069f612512565b1480156106bc575060038101546106b99062ed4e006125d2565b42115b6106fa5760405162461bcd60e51b815260206004820152600f60248201526e10d85b89dd08195b5c1d1e481e595d608a1b6044820152606401610212565b6001810154600090815b818110156107eb576000846009016000866001018481548110610729576107296125e5565b60009182526020808320909101546001600160a01b0316835282019290925260400190205411156107e35783600901600085600101838154811061076f5761076f6125e5565b60009182526020808320909101546001600160a01b0316835282019290925260400190205461079e90846125d2565b925060008460090160008660010184815481106107bd576107bd6125e5565b60009182526020808320909101546001600160a01b031683528201929092526040019020555b600101610704565b5081156108ae57825460405163a9059cbb60e01b8152336004820152602481018490526000916201000090046001600160a01b03169063a9059cbb906044016020604051808303816000875af1158015610849573d6000803e3d6000fd5b505050506040513d601f19601f8201168201806040525081019061086d91906125fb565b9050806104435760405162461bcd60e51b815260206004820152600f60248201526e151c985b9cd9995c8819985a5b1959608a1b6044820152606401610212565b5050505050565b60008181526000805160206128b6833981519152602090815260408083206000805160206128d68339815191529092529091206007810154600283015460048401546109039060019061261d565b83600501546109129190612630565b61091c91906125d2565b61092691906125d2565b42116109745760405162461bcd60e51b815260206004820152601860248201527f5374696c6c2074696d6520746f20636f6e7472696275746500000000000000006044820152606401610212565b60018254610100900460ff16600481111561099157610991612512565b146109ae5760405162461bcd60e51b815260040161021290612555565b60405163d8f8e99160e01b815260048101849052600090309063d8f8e99190602401602060405180830381865afa1580156109ed573d6000803e3d6000fd5b505050506040513d601f19601f82011682018060405250810190610a119190612538565b9050610a1c846116e7565b610a278460026118b0565b600083600101805480602002602001604051908101604052809291908181526020018280548015610a8157602002820191906000526020600020905b81546001600160a01b03168152600190910190602001808311610a63575b50508351600489015494955093925060009150505b82811015610c53576000848281518110610ab257610ab26125e5565b60200260200101519050856001600160a01b0316816001600160a01b03161480610b0057506000838152600c8901602090815260408083206001600160a01b038516845290915290205460ff165b15610b0e5750600101610a96565b6001600160a01b038116600090815260078901602052604090205460ff1615610b89576001600160a01b038116600090815260068901602052604090205460ff1615610b6757610b6188600f018261198f565b50610b76565b610b7488600d018261198f565b505b610b8388601101826119ab565b50610c4a565b610b9688601101826119c0565b610c4a5760405163d7992e5b60e01b8152600481018a90526001600160a01b0387166024820152309063d7992e5b90604401602060405180830381865afa158015610be5573d6000803e3d6000fd5b505050506040513d601f19601f82011682018060405250810190610c0991906125fb565b15610c40576001600160a01b038116600090815260068901602052604090205460ff1615610c3b57610c3b89826119e2565b610c4a565b610c4a89826119e2565b50600101610a96565b50610c5e8686611ab8565b8560140154866004015410610c7657610c7687611e94565b50505050505050565b610c8881611f32565b50565b60006000805160206128b683398151915260008481526020919091526040808220905163d8f8e99160e01b815260048101869052909250309063d8f8e99190602401602060405180830381865afa158015610cea573d6000803e3d6000fd5b505050506040513d601f19601f82011682018060405250810190610d0e9190612538565b905060018254610100900460ff166004811115610d2d57610d2d612512565b14610d4a5760405162461bcd60e51b815260040161021290612555565b6001600160a01b038316600090815260058301602052604090205460ff16610da85760405162461bcd60e51b8152602060048201526011602482015270139bdd0818481c185c9d1a58da5c185b9d607a1b6044820152606401610212565b826001600160a01b0316816001600160a01b031603610e035760405162461bcd60e51b815260206004820152601760248201527642656e656669636961727920646f65736e27742070617960481b6044820152606401610212565b6001600160a01b038316600090815260078301602052604090205460ff1615610e675760405162461bcd60e51b8152602060048201526016602482015275416c7265616479207061696420666f72206379636c6560501b6044820152606401610212565b60048201546000908152600c8301602090815260408083206001600160a01b038716845290915290205460ff1615610eb15760405162461bcd60e51b81526004016102129061257a565b610ebc8433856114c7565b50505050565b60008281526000805160206128b6833981519152602090815260408083206001600160a01b038516845260060190915290205460ff165b92915050565b60008181526000805160206128f6833981519152602090815260408083206000805160206128b683398151915283528184203385526004820190935292205460ff16610f8d5760405162461bcd60e51b815260206004820152601d60248201527f50617920636f6c6c61746572616c2073656375726974792066697273740000006044820152606401610212565b60048154610100900460ff166004811115610faa57610faa612512565b03610fc75760405162461bcd60e51b815260040161021290612555565b336000818152600883016020526040808220805460ff81161560ff199091168117909155905190928392909187917f8bd3cffd2d87eca262a8e2d638c1ff3d3b61c604208115af6295b089acaf72b991a450505050565b60808301805160009081526000805160206128f683398151915260205260408082209251905163f0d826e760e01b815260048101919091529091908290309063f0d826e790602401602060405180830381865afa158015611083573d6000803e3d6000fd5b505050506040513d601f19601f820116820180604052508101906110a79190612647565b9050600060646110b883606e612630565b6110c29190612660565b6001600160a01b0386166000908152600585016020526040902054909150811115611111576001600160a01b0385166000908152600a870160205260409020805460ff19166001179055611134565b6001600160a01b0385166000908152600a870160205260409020805460ff191690555b505050506001600160a01b03166000908152600a91909101602052604090205460ff16919050565b60006000805160206128b68339815191526000848152602091825260408082206001600160a01b0386811684526009820190945281832054815492516370a0823160e01b81523060048201529195509362010000909204909116906370a0823190602401602060405180830381865afa1580156111dd573d6000803e3d6000fd5b505050506040513d601f19601f820116820180604052508101906112019190612647565b90508181101561122e5760405163cf47918160e01b81526004810182905260248101839052604401610212565b6001600160a01b0384811660008181526009860160205260408082208290558654905163a9059cbb60e01b8152600481019390935260248301869052909262010000909104169063a9059cbb906044016020604051808303816000875af115801561129d573d6000803e3d6000fd5b505050506040513d601f19601f820116820180604052508101906112c191906125fb565b9050806113025760405162461bcd60e51b815260206004820152600f60248201526e151c985b9cd9995c8819985a5b1959608a1b6044820152606401610212565b5081846001600160a01b0316867f31b332de0dccb2d0ed351b3d65a9e10b099b3e3c63f4a6f5ea1810b4d757795c60405160405180910390a45050505050565b60008281526000805160206128b6833981519152602052604090205460ff166113a45760405162461bcd60e51b815260206004820152601460248201527346756e6420646f6573206e6f742065786973747360601b6044820152606401610212565b60008281526000805160206128f6833981519152602090815260408083206001600160a01b03851684526006810190925290912054806114195760405162461bcd60e51b815260206004820152601060248201526f4e6f7468696e6720746f20636c61696d60801b6044820152606401610212565b6001600160a01b03831660008181526006840160205260408082208290555190919083908381818185875af1925050503d8060008114611475576040519150601f19603f3d011682016040523d82523d6000602084013e61147a565b606091505b505090508061148857600080fd5b81846001600160a01b0316867f1d8d3d09e68fe1873369af18c4d7d361038dac92ac768b54ac19273dbd4cb6b860405160405180910390a45050505050565b60008381526000805160206128b6833981519152602090815260408083206000805160206128d6833981519152909252822060068101549192909161150f90620f4240612630565b83546040516323b872dd60e01b81526001600160a01b0388811660048301523060248301526044820184905292935060009262010000909204909116906323b872dd906064016020604051808303816000875af1158015611574573d6000803e3d6000fd5b505050506040513d601f19601f8201168201806040525081019061159891906125fb565b9050806116025760405162461bcd60e51b815260206004820152603260248201527f436f6e747269627574696f6e206661696c65642c2064696420796f7520617070604482015271726f766520737461626c6520746f6b656e3f60701b6064820152608401610212565b6001600160a01b0385166000818152600786016020526040808220805460ff19166001179055600487015490519092918a917fe1122b3cea22012386ebf236fc23dd8a783b91c046d5dec812901846464624ae9190a450505050505050565b60008181526000805160206128d683398151915260205260409020546001600160a01b0362010000909104163314610c885760405162461bcd60e51b8152602060048201526024808201527f5465726d4f776e61626c653a2063616c6c6572206973206e6f7420746865206f6044820152633bb732b960e11b6064820152608401610212565b60006000805160206128b683398151915260008381526020919091526040808220905163d8f8e99160e01b815260048101859052909250309063d8f8e99190602401602060405180830381865afa158015611746573d6000803e3d6000fd5b505050506040513d601f19601f8201168201806040525081019061176a9190612538565b90506000826001018054806020026020016040519081016040528092919081815260200182805480156117c657602002820191906000526020600020905b81546001600160a01b031681526001909101906020018083116117a8575b505083519394506000925050505b818110156104435760008382815181106117f0576117f06125e5565b60200260200101519050806001600160a01b0316856001600160a01b03160361181c57506001016117d4565b6001600160a01b038116600090815260088701602052604090205460ff16801561186157506001600160a01b038116600090815260078701602052604090205460ff16155b8015611897575060048601546000908152600c8701602090815260408083206001600160a01b038516845290915290205460ff16155b156118a7576118a78782836120c8565b506001016117d4565b60008281526000805160206128b6833981519152602052604090208054600490610100900460ff16818111156118e8576118e8612512565b036119235760405162461bcd60e51b815260206004820152600b60248201526a119d5b990818db1bdcd95960aa1b6044820152606401610212565b80548290829061ff00191661010083600481111561194357611943612512565b021790555081600481111561195a5761195a612512565b600482015460405185907fe515107ce875160b9ed93bfd1367820d3ffbf412cd63d05140f6bc5535b51de390600090a4505050565b60006119a4836001600160a01b0384166121f8565b9392505050565b60006119a4836001600160a01b038416612247565b6001600160a01b038116600090815260018301602052604081205415156119a4565b60008281526000805160206128b68339815191526020526040812090611a0b600d8301846119ab565b905080611a2257611a1f82600f01846119ab565b90505b80611a685760405162461bcd60e51b815260206004820152601660248201527521b0b713ba103932b6b7bb32903232b330bab63a32b960511b6044820152606401610212565b611a75826011018461198f565b50826001600160a01b03168260040154857f482c1cb26174abc97f4629d6f41ab133dbda268210ea1ced6c07c27857469a0360405160405180910390a450505050565b600281015460405163d8f8e99160e01b8152600091309163d8f8e99191611ae59160040190815260200190565b602060405180830381865afa158015611b02573d6000803e3d6000fd5b505050506040513d601f19601f82011682018060405250810190611b269190612538565b90506000611b368460110161233a565b1115611c3057600030632081c1af84611b5160118801612344565b6040518363ffffffff1660e01b8152600401611b6e9291906126e8565b6000604051808303816000875af1158015611b8d573d6000803e3d6000fd5b505050506040513d6000823e601f3d908101601f19168201604052611bb591908101906127aa565b805190915060005b81811015611c2c5760006001600160a01b0316838281518110611be257611be26125e5565b60200260200101516001600160a01b031603611c0057600101611bbd565b611c248686858481518110611c1757611c176125e5565b6020026020010151612351565b600101611bbd565b5050505b611c3d83600d01826119ab565b15611c5157611c4f83600f018261198f565b505b6001600160a01b03811660009081526006840160209081526040808320805460ff19166001908117909155860180548251818502810185019093528083528493830182828015611cca57602002820191906000526020600020905b81546001600160a01b03168152600190910190602001808311611cac575b505083519394506000925050505b81811015611d3a57866007016000848381518110611cf857611cf86125e5565b6020908102919091018101516001600160a01b031682528101919091526040016000205460ff1615611d325783611d2e8161286f565b9450505b600101611cd8565b50604080516101608101909152855460ff80821615158352611dfe9291889160208401916101009004166003811115611d7557611d75612512565b6003811115611d8657611d86612512565b815281546001600160a01b036201000090910481166020830152600183015460408301526002830154606083015260038301546080830152600483015460a0830152600583015460c0830152600683015460e0830152600783015461010083015260089092015490911661012090910152878661101e565b50828560060154611e0f9190612630565b611e1c90620f4240612630565b6001600160a01b038516600090815260098801602052604081208054909190611e469084906125d2565b909155505060028501546040516001600160a01b03861691907f1f2267669c1e46109302869b7cd09b21fd5ac4d2da01a6bbc086c1fe7b997fa390600090a3610443856002015460036118b0565b60008181526000805160206128b6833981519152602090815260408083206000805160206128d6833981519152909252909120426003830155805461ff001916610300178155611ee58360046118b0565b6040516339007b7760e01b81526004810184905230906339007b7790602401600060405180830381600087803b158015611f1e57600080fd5b505af1158015610c76573d6000803e3d6000fd5b60008181526000805160206128b6833981519152602090815260408083206000805160206128d6833981519152909252909120600282015460048301546005830154611f7e9190612630565b611f8891906125d2565b4211611fd65760405162461bcd60e51b815260206004820152601c60248201527f546f6f206561726c7920746f207374617274206e6577206379636c65000000006044820152606401610212565b60008254610100900460ff166004811115611ff357611ff3612512565b1480612019575060038254610100900460ff16600481111561201757612017612512565b145b6120355760405162461bcd60e51b815260040161021290612555565b81600401600081546120469061286f565b90915550600182015460005b818110156120b3576000846007016000866001018481548110612077576120776125e5565b6000918252602080832091909101546001600160a01b031683528201929092526040019020805460ff1916911515919091179055600101612052565b506120bf8460016118b0565b610ebc846116e7565b60008381526000805160206128b6833981519152602090815260408083206000805160206128d6833981519152909252822060068101549192909161211090620f4240612630565b83546040516323b872dd60e01b81526001600160a01b0388811660048301523060248301526044820184905292935062010000909104909116906323b872dd906064016020604051808303816000875af192505050801561218e575060408051601f3d908101601f1916820190925261218b918101906125fb565b60015b15610443578015610c76576001600160a01b0385166000818152600786016020526040808220805460ff19166001179055600487015490519092918a917fe1122b3cea22012386ebf236fc23dd8a783b91c046d5dec812901846464624ae9190a450505050505050565b600081815260018301602052604081205461223f57508154600181810184556000848152602080822090930184905584548482528286019093526040902091909155610ef9565b506000610ef9565b6000818152600183016020526040812054801561233057600061226b60018361261d565b855490915060009061227f9060019061261d565b90508181146122e457600086600001828154811061229f5761229f6125e5565b90600052602060002001549050808760000184815481106122c2576122c26125e5565b6000918252602080832090910192909255918252600188019052604090208390555b85548690806122f5576122f5612888565b600190038181906000526020600020016000905590558560010160008681526020019081526020016000206000905560019350505050610ef9565b6000915050610ef9565b6000610ef9825490565b606060006119a483612458565b6001600160a01b038116600090815260058401602052604090205460ff168015612383575061238383601101826119ab565b6123c55760405162461bcd60e51b8152602060048201526013602482015272115e1c195b1b185b9d081b9bdd08199bdd5b99606a1b6044820152606401610212565b6001600160a01b03811660009081526005840160205260408120805460ff191690556004830180549091906123f99061289e565b9091555060138301805460009061240f9061286f565b90915550600483015460028301546040516001600160a01b0384169291907f75072bae902443c91c7fe516bbb4da2a101e088aa10737ec2ecb7aa3beb023d190600090a4505050565b6060816000018054806020026020016040519081016040528092919081815260200182805480156124a857602002820191906000526020600020905b815481526020019060010190808311612494575b50505050509050919050565b6000602082840312156124c657600080fd5b5035919050565b6001600160a01b0381168114610c8857600080fd5b600080604083850312156124f557600080fd5b823591506020830135612507816124cd565b809150509250929050565b634e487b7160e01b600052602160045260246000fd5b8051612533816124cd565b919050565b60006020828403121561254a57600080fd5b81516119a4816124cd565b6020808252600b908201526a57726f6e6720737461746560a81b604082015260600190565b60208082526022908201527f5061727469636970616e74206973206578656d707465642074686973206379636040820152616c6560f01b606082015260800190565b634e487b7160e01b600052601160045260246000fd5b80820180821115610ef957610ef96125bc565b634e487b7160e01b600052603260045260246000fd5b60006020828403121561260d57600080fd5b815180151581146119a457600080fd5b81810381811115610ef957610ef96125bc565b8082028115828204841417610ef957610ef96125bc565b60006020828403121561265957600080fd5b5051919050565b60008261267d57634e487b7160e01b600052601260045260246000fd5b500490565b600481106126a057634e487b7160e01b600052602160045260246000fd5b9052565b600081518084526020808501945080840160005b838110156126dd5781516001600160a01b0316875295820195908201906001016126b8565b509495945050505050565b600061018084546126fd8460ff831615159052565b6127106020850160ff8360081c16612682565b60101c6001600160a01b0390811660408501526001860154606085015260028601546080850152600386015460a0850152600486015460c0850152600586015460e085015260068601546101008501526007860154610120850152600886015416610140840152610160830181905261278b818401856126a4565b95945050505050565b634e487b7160e01b600052604160045260246000fd5b600060208083850312156127bd57600080fd5b825167ffffffffffffffff808211156127d557600080fd5b818501915085601f8301126127e957600080fd5b8151818111156127fb576127fb612794565b8060051b604051601f19603f8301168101818110858211171561282057612820612794565b60405291825284820192508381018501918883111561283e57600080fd5b938501935b828510156128635761285485612528565b84529385019392850192612843565b98975050505050505050565b600060018201612881576128816125bc565b5060010190565b634e487b7160e01b600052603160045260246000fd5b6000816128ad576128ad6125bc565b50600019019056fe6751f7e27cecf86d7136f5749c224248cae80a39fafb59f8f6bf12c52816307c87101b21d556417ad2b8e8f2700dbad90721d5d50a1f435f2dee0b9dc981ac8a35fa70a6f9ae8a4d427ebe0c1be62ffd2870fecc1df41c6fda0bf5803e562888a2646970667358221220336776d047d6145a7f00a3d0f4ac0b18c8d3839307213e1e81ceeb7e3314579564736f6c63430008120033",
  "devdoc": {
    "author": "Mohammed Haddouti",
    "details": "v3.0 (Diamond)",
    "errors": {
      "InsufficientBalance(uint256,uint256)": [
        {
          "params": {
            "available": "balance available.",
            "required": "requested amount to transfer."
          }
        }
      ]
    },
    "kind": "dev",
    "methods": {
      "closeFundingPeriod(uint256)": {
        "params": {
          "termId": "the id of the term"
        }
      },
      "emptyFundAfterEnd(uint256)": {
        "params": {
          "termId": "the id of the term"
        }
      },
      "isBeneficiary(uint256,address)": {
        "params": {
          "beneficiary": "the address of the participant to check",
          "termId": "the id of the term"
        },
        "returns": {
          "_0": "true if the participant is a beneficiary"
        }
      },
      "payContribution(uint256)": {
        "params": {
          "termId": "the id of the term"
        }
      },
      "payContributionOnBehalfOf(uint256,address)": {
        "params": {
          "participant": "the address the msg.sender is paying for, the address must be part of the fund",
          "termId": "the id of the term"
        }
      },
      "startNewCycle(uint256)": {
        "params": {
          "termId": "the id of the term"
        }
      },
      "toggleAutoPay(uint256)": {
        "params": {
          "termId": "the id of the term"
        }
      },
      "withdrawFund(uint256)": {
        "details": "This follows the pull-over-push pattern.",
        "params": {
          "termId": "the id of the term"
        }
      }
    },
    "title": "Takaturn Fund",
    "version": 1
  },
  "userdoc": {
    "errors": {
      "InsufficientBalance(uint256,uint256)": [
        {
          "notice": "Insufficient balance for transfer. Needed `required` but only `available` available."
        }
      ]
    },
    "kind": "user",
    "methods": {
      "closeFundingPeriod(uint256)": {
        "notice": "Must be called at the end of the contribution period after the time has passed by the owner"
      },
      "emptyFundAfterEnd(uint256)": {
        "notice": "allow the owner to empty the fund if there's any excess fund left after 180 days,         this with the assumption that beneficiaries can't claim it themselves due to losing their keys for example,         and prevent the fund to be stuck in limbo"
      },
      "payContribution(uint256)": {
        "notice": "This is the function participants call to pay the contribution"
      },
      "payContributionOnBehalfOf(uint256,address)": {
        "notice": "This function is here to give the possibility to pay using a different wallet"
      },
      "startNewCycle(uint256)": {
        "notice": "starts a new cycle manually called by the owner. Only the first cycle starts automatically upon deploy"
      },
      "toggleAutoPay(uint256)": {
        "notice": "function to enable/disable autopay"
      },
      "withdrawFund(uint256)": {
        "notice": "Called by the beneficiary to withdraw the fund"
      }
    },
    "notice": "This is used to operate the Takaturn fund",
    "version": 1
  },
  "storageLayout": {
    "storage": [],
    "types": null
  }
}