{
  "address": "0xf1d43D1F733965db981976A169053036Dd4e7fA1",
  "abi": [
    {
      "inputs": [
        {
          "internalType": "uint256",
          "name": "available",
          "type": "uint256"
        },
        {
          "internalType": "uint256",
          "name": "required",
          "type": "uint256"
        }
      ],
      "name": "InsufficientBalance",
      "type": "error"
    },
    {
      "anonymous": false,
      "inputs": [
        {
          "indexed": true,
          "internalType": "uint256",
          "name": "termId",
          "type": "uint256"
        },
        {
          "indexed": true,
          "internalType": "address",
          "name": "participant",
          "type": "address"
        },
        {
          "indexed": true,
          "internalType": "bool",
          "name": "enabled",
          "type": "bool"
        }
      ],
      "name": "OnAutoPayToggled",
      "type": "event"
    },
    {
      "anonymous": false,
      "inputs": [
        {
          "indexed": true,
          "internalType": "uint256",
          "name": "termId",
          "type": "uint256"
        },
        {
          "indexed": true,
          "internalType": "address",
          "name": "beneficiary",
          "type": "address"
        }
      ],
      "name": "OnBeneficiaryAwarded",
      "type": "event"
    },
    {
      "anonymous": false,
      "inputs": [
        {
          "indexed": true,
          "internalType": "uint256",
          "name": "termId",
          "type": "uint256"
        },
        {
          "indexed": true,
          "internalType": "uint256",
          "name": "currentCycle",
          "type": "uint256"
        },
        {
          "indexed": true,
          "internalType": "address",
          "name": "expellant",
          "type": "address"
        }
      ],
      "name": "OnDefaulterExpelled",
      "type": "event"
    },
    {
      "anonymous": false,
      "inputs": [
        {
          "indexed": true,
          "internalType": "uint256",
          "name": "termId",
          "type": "uint256"
        },
        {
          "indexed": true,
          "internalType": "uint256",
          "name": "currentCycle",
          "type": "uint256"
        },
        {
          "indexed": true,
          "internalType": "enum LibFundStorage.FundStates",
          "name": "newState",
          "type": "uint8"
        }
      ],
      "name": "OnFundStateChanged",
      "type": "event"
    },
    {
      "anonymous": false,
      "inputs": [
        {
          "indexed": true,
          "internalType": "uint256",
          "name": "termId",
          "type": "uint256"
        },
        {
          "indexed": true,
          "internalType": "address",
          "name": "claimant",
          "type": "address"
        },
        {
          "indexed": true,
          "internalType": "uint256",
          "name": "amount",
          "type": "uint256"
        }
      ],
      "name": "OnFundWithdrawn",
      "type": "event"
    },
    {
      "anonymous": false,
      "inputs": [
        {
          "indexed": true,
          "internalType": "uint256",
          "name": "termId",
          "type": "uint256"
        },
        {
          "indexed": true,
          "internalType": "address",
          "name": "payer",
          "type": "address"
        },
        {
          "indexed": true,
          "internalType": "uint256",
          "name": "currentCycle",
          "type": "uint256"
        }
      ],
      "name": "OnPaidContribution",
      "type": "event"
    },
    {
      "anonymous": false,
      "inputs": [
        {
          "indexed": true,
          "internalType": "uint256",
          "name": "termId",
          "type": "uint256"
        },
        {
          "indexed": true,
          "internalType": "uint256",
          "name": "currentCycle",
          "type": "uint256"
        },
        {
          "indexed": true,
          "internalType": "address",
          "name": "defaulter",
          "type": "address"
        }
      ],
      "name": "OnParticipantDefaulted",
      "type": "event"
    },
    {
      "inputs": [],
      "name": "FUND_VERSION",
      "outputs": [
        {
          "internalType": "uint256",
          "name": "",
          "type": "uint256"
        }
      ],
      "stateMutability": "view",
      "type": "function"
    },
    {
      "inputs": [
        {
          "internalType": "uint256",
          "name": "termId",
          "type": "uint256"
        }
      ],
      "name": "closeFundingPeriod",
      "outputs": [],
      "stateMutability": "nonpayable",
      "type": "function"
    },
    {
      "inputs": [
        {
          "internalType": "uint256",
          "name": "termId",
          "type": "uint256"
        }
      ],
      "name": "emptyFundAfterEnd",
      "outputs": [],
      "stateMutability": "nonpayable",
      "type": "function"
    },
    {
      "inputs": [
        {
          "internalType": "uint256",
          "name": "termId",
          "type": "uint256"
        }
      ],
      "name": "payContribution",
      "outputs": [],
      "stateMutability": "nonpayable",
      "type": "function"
    },
    {
      "inputs": [
        {
          "internalType": "uint256",
          "name": "termId",
          "type": "uint256"
        },
        {
          "internalType": "address",
          "name": "participant",
          "type": "address"
        }
      ],
      "name": "payContributionOnBehalfOf",
      "outputs": [],
      "stateMutability": "nonpayable",
      "type": "function"
    },
    {
      "inputs": [
        {
          "internalType": "uint256",
          "name": "termId",
          "type": "uint256"
        }
      ],
      "name": "startNewCycle",
      "outputs": [],
      "stateMutability": "nonpayable",
      "type": "function"
    },
    {
      "inputs": [
        {
          "internalType": "uint256",
          "name": "termId",
          "type": "uint256"
        }
      ],
      "name": "toggleAutoPay",
      "outputs": [],
      "stateMutability": "nonpayable",
      "type": "function"
    },
    {
      "inputs": [
        {
          "internalType": "uint256",
          "name": "termId",
          "type": "uint256"
        }
      ],
      "name": "withdrawFund",
      "outputs": [],
      "stateMutability": "nonpayable",
      "type": "function"
    }
  ],
  "transactionHash": "0xda662cc2cf66cb137d946f544ec5f3ff7acc39115b3bfefab165d0fde0263fb2",
  "args": [],
  "numDeployments": 12,
  "solcInputHash": "eda7bbef2cf76ef041726b2c75747c03",
  "bytecode": "0x608060405234801561001057600080fd5b50612a15806100206000396000f3fe608060405234801561001057600080fd5b50600436106100885760003560e01c80637be2ecea1161005b5780637be2ecea146100db57806384431629146100ee578063ea28b9bb14610101578063f7af18f61461011457600080fd5b80630cee17251461008d5780632009844b146100a25780634b5c9c80146100b557806358733dec146100c8575b600080fd5b6100a061009b36600461257e565b61012e565b005b6100a06100b036600461257e565b61041c565b6100a06100c336600461257e565b61062e565b6100a06100d636600461257e565b610886565b6100a06100e936600461257e565b610d16565b6100a06100fc3660046125ac565b610d22565b6100a061010f36600461257e565b610f59565b61011c600281565b60405190815260200160405180910390f35b6000818152600080516020612980833981519152602090815260408083206000805160206129c08339815191529092529091208154600490610100900460ff168181111561017e5761017e6125dc565b148061019b575033600090815260068301602052604090205460ff165b6101ec5760405162461bcd60e51b815260206004820152601960248201527f596f75206d75737420626520612062656e65666963696172790000000000000060448201526064015b60405180910390fd5b336000908152600983016020908152604080832054600a8601835281842054600686019093529220549115159160ff909116901515828061022a5750815b806102325750805b6102745760405162461bcd60e51b81526020600482015260136024820152724e6f7468696e6720746f20776974686472617760681b60448201526064016101e3565b81156103f45760008681526000805160206129a08339815191526020908152604080832081516101608101909252805460ff808216151584526103549484019161010090041660038111156102cb576102cb6125dc565b60038111156102dc576102dc6125dc565b815281546001600160a01b036201000090910481166020830152600183015460408301526002830154606083015260038301546080830152600483015460a0830152600583015460c0830152600683015460e08301526007830154610100830152600890920154909116610120909101528733611078565b905060048654610100900460ff166004811115610373576103736125dc565b146103e45780156103e45760405162461bcd60e51b815260206004820152603560248201527f4e656564206174206c6561737420312e3152434320636f6c6c61746572616c206044820152741d1bc81d5b999c99595e99481e5bdd5c88199d5b99605a1b60648201526084016101e3565b6103ee87336111b6565b50610404565b82156104045761040486336111b6565b801561041457610414863361139c565b505050505050565b600060008051602061298083398151915260008381526020919091526040808220905163d8f8e99160e01b815260048101859052909250309063d8f8e99190602401602060405180830381865afa15801561047b573d6000803e3d6000fd5b505050506040513d601f19601f8201168201806040525081019061049f9190612602565b905060018254610100900460ff1660048111156104be576104be6125dc565b146104db5760405162461bcd60e51b81526004016101e39061261f565b33600090815260058301602052604090205460ff166105305760405162461bcd60e51b8152602060048201526011602482015270139bdd0818481c185c9d1a58da5c185b9d607a1b60448201526064016101e3565b336001600160a01b038216036105825760405162461bcd60e51b815260206004820152601760248201527642656e656669636961727920646f65736e27742070617960481b60448201526064016101e3565b33600090815260078301602052604090205460ff16156105dd5760405162461bcd60e51b8152602060048201526016602482015275416c7265616479207061696420666f72206379636c6560501b60448201526064016101e3565b60048201546000908152600c83016020908152604080832033845290915290205460ff161561061e5760405162461bcd60e51b81526004016101e390612644565b610629833333611521565b505050565b80610638816116bb565b6000828152600080516020612980833981519152602052604090208054600490610100900460ff1681811115610670576106706125dc565b14801561068d5750600381015461068a9062ed4e0061269c565b42115b6106cb5760405162461bcd60e51b815260206004820152600f60248201526e10d85b89dd08195b5c1d1e481e595d608a1b60448201526064016101e3565b6001810154600090815b818110156107bc5760008460090160008660010184815481106106fa576106fa6126af565b60009182526020808320909101546001600160a01b0316835282019290925260400190205411156107b457836009016000856001018381548110610740576107406126af565b60009182526020808320909101546001600160a01b0316835282019290925260400190205461076f908461269c565b9250600084600901600086600101848154811061078e5761078e6126af565b60009182526020808320909101546001600160a01b031683528201929092526040019020555b6001016106d5565b50811561087f57825460405163a9059cbb60e01b8152336004820152602481018490526000916201000090046001600160a01b03169063a9059cbb906044016020604051808303816000875af115801561081a573d6000803e3d6000fd5b505050506040513d601f19601f8201168201806040525081019061083e91906126c5565b9050806104145760405162461bcd60e51b815260206004820152600f60248201526e151c985b9cd9995c8819985a5b1959608a1b60448201526064016101e3565b5050505050565b6000818152600080516020612980833981519152602090815260408083206000805160206129a08339815191529092529091206007810154600283015460048401546108d4906001906126e7565b83600501546108e391906126fa565b6108ed919061269c565b6108f7919061269c565b42116109455760405162461bcd60e51b815260206004820152601860248201527f5374696c6c2074696d6520746f20636f6e74726962757465000000000000000060448201526064016101e3565b60018254610100900460ff166004811115610962576109626125dc565b1461097f5760405162461bcd60e51b81526004016101e39061261f565b60405163d8f8e99160e01b815260048101849052600090309063d8f8e99190602401602060405180830381865afa1580156109be573d6000803e3d6000fd5b505050506040513d601f19601f820116820180604052508101906109e29190612602565b90506109ed84611741565b6109f884600261190a565b600083600101805480602002602001604051908101604052809291908181526020018280548015610a5257602002820191906000526020600020905b81546001600160a01b03168152600190910190602001808311610a34575b50508351600489015494955093925060009150505b82811015610cea576000848281518110610a8357610a836126af565b60200260200101519050856001600160a01b0316816001600160a01b03161480610ad157506000838152600c8901602090815260408083206001600160a01b038516845290915290205460ff165b15610b3a57610ae388601101826119e9565b15610b3157610af58860110182611a10565b50856001600160a01b0316816001600160a01b031603610b2257610b1c88600f0182611a25565b50610b31565b610b2f88600d0182611a25565b505b50600101610a67565b6001600160a01b038116600090815260078901602052604090205460ff1615610baf576001600160a01b038116600090815260068901602052604090205460ff1615610b9357610b8d88600f0182611a25565b50610ba2565b610ba088600d0182611a25565b505b610b1c8860110182611a10565b610bbc88601101826119e9565b158015610c35575060405163d7992e5b60e01b8152600481018a90526001600160a01b0382166024820152309063d7992e5b90604401602060405180830381865afa158015610c0f573d6000803e3d6000fd5b505050506040513d601f19601f82011682018060405250810190610c3391906126c5565b155b15610b315760405163d7992e5b60e01b8152600481018a90526001600160a01b0387166024820152309063d7992e5b90604401602060405180830381865afa158015610c85573d6000803e3d6000fd5b505050506040513d601f19601f82011682018060405250810190610ca991906126c5565b15610ce0576001600160a01b038116600090815260068901602052604090205460ff1615610cdb57610cdb8982611a3a565b610b31565b610b318982611a3a565b50610cf58686611b10565b8560140154866004015410610d0d57610d0d87611f22565b50505050505050565b610d1f81611fc0565b50565b600060008051602061298083398151915260008481526020919091526040808220905163d8f8e99160e01b815260048101869052909250309063d8f8e99190602401602060405180830381865afa158015610d81573d6000803e3d6000fd5b505050506040513d601f19601f82011682018060405250810190610da59190612602565b905060018254610100900460ff166004811115610dc457610dc46125dc565b14610de15760405162461bcd60e51b81526004016101e39061261f565b6001600160a01b038316600090815260058301602052604090205460ff16610e3f5760405162461bcd60e51b8152602060048201526011602482015270139bdd0818481c185c9d1a58da5c185b9d607a1b60448201526064016101e3565b826001600160a01b0316816001600160a01b031603610e9a5760405162461bcd60e51b815260206004820152601760248201527642656e656669636961727920646f65736e27742070617960481b60448201526064016101e3565b6001600160a01b038316600090815260078301602052604090205460ff1615610efe5760405162461bcd60e51b8152602060048201526016602482015275416c7265616479207061696420666f72206379636c6560501b60448201526064016101e3565b60048201546000908152600c8301602090815260408083206001600160a01b038716845290915290205460ff1615610f485760405162461bcd60e51b81526004016101e390612644565b610f53843385611521565b50505050565b60008181526000805160206129c08339815191526020908152604080832060008051602061298083398151915283528184203385526004820190935292205460ff16610fe75760405162461bcd60e51b815260206004820152601d60248201527f50617920636f6c6c61746572616c20736563757269747920666972737400000060448201526064016101e3565b60048154610100900460ff166004811115611004576110046125dc565b036110215760405162461bcd60e51b81526004016101e39061261f565b336000818152600883016020526040808220805460ff81161560ff199091168117909155905190928392909187917f8bd3cffd2d87eca262a8e2d638c1ff3d3b61c604208115af6295b089acaf72b991a450505050565b60808301805160009081526000805160206129c083398151915260205260408082209251905163f0d826e760e01b815260048101919091529091908290309063f0d826e790602401602060405180830381865afa1580156110dd573d6000803e3d6000fd5b505050506040513d601f19601f820116820180604052508101906111019190612711565b90506000606461111283606e6126fa565b61111c919061272a565b6001600160a01b038616600090815260058501602052604090205490915081111561116b576001600160a01b0385166000908152600a870160205260409020805460ff1916600117905561118e565b6001600160a01b0385166000908152600a870160205260409020805460ff191690555b505050506001600160a01b03166000908152600a91909101602052604090205460ff16919050565b60006000805160206129808339815191526000848152602091825260408082206001600160a01b0386811684526009820190945281832054815492516370a0823160e01b81523060048201529195509362010000909204909116906370a0823190602401602060405180830381865afa158015611237573d6000803e3d6000fd5b505050506040513d601f19601f8201168201806040525081019061125b9190612711565b9050818110156112885760405163cf47918160e01b815260048101829052602481018390526044016101e3565b6001600160a01b0384811660008181526009860160205260408082208290558654905163a9059cbb60e01b8152600481019390935260248301869052909262010000909104169063a9059cbb906044016020604051808303816000875af11580156112f7573d6000803e3d6000fd5b505050506040513d601f19601f8201168201806040525081019061131b91906126c5565b90508061135c5760405162461bcd60e51b815260206004820152600f60248201526e151c985b9cd9995c8819985a5b1959608a1b60448201526064016101e3565b5081846001600160a01b0316867f31b332de0dccb2d0ed351b3d65a9e10b099b3e3c63f4a6f5ea1810b4d757795c60405160405180910390a45050505050565b6000828152600080516020612980833981519152602052604090205460ff166113fe5760405162461bcd60e51b815260206004820152601460248201527346756e6420646f6573206e6f742065786973747360601b60448201526064016101e3565b60008281526000805160206129c0833981519152602090815260408083206001600160a01b03851684526006810190925290912054806114735760405162461bcd60e51b815260206004820152601060248201526f4e6f7468696e6720746f20636c61696d60801b60448201526064016101e3565b6001600160a01b03831660008181526006840160205260408082208290555190919083908381818185875af1925050503d80600081146114cf576040519150601f19603f3d011682016040523d82523d6000602084013e6114d4565b606091505b50509050806114e257600080fd5b81846001600160a01b0316867f1d8d3d09e68fe1873369af18c4d7d361038dac92ac768b54ac19273dbd4cb6b860405160405180910390a45050505050565b6000838152600080516020612980833981519152602090815260408083206000805160206129a0833981519152909252822060068101549192909161156990620f42406126fa565b83546040516323b872dd60e01b81526001600160a01b0388811660048301523060248301526044820184905292935060009262010000909204909116906323b872dd906064016020604051808303816000875af11580156115ce573d6000803e3d6000fd5b505050506040513d601f19601f820116820180604052508101906115f291906126c5565b90508061165c5760405162461bcd60e51b815260206004820152603260248201527f436f6e747269627574696f6e206661696c65642c2064696420796f7520617070604482015271726f766520737461626c6520746f6b656e3f60701b60648201526084016101e3565b6001600160a01b0385166000818152600786016020526040808220805460ff19166001179055600487015490519092918a917fe1122b3cea22012386ebf236fc23dd8a783b91c046d5dec812901846464624ae9190a450505050505050565b60008181526000805160206129a083398151915260205260409020546001600160a01b0362010000909104163314610d1f5760405162461bcd60e51b8152602060048201526024808201527f5465726d4f776e61626c653a2063616c6c6572206973206e6f7420746865206f6044820152633bb732b960e11b60648201526084016101e3565b600060008051602061298083398151915260008381526020919091526040808220905163d8f8e99160e01b815260048101859052909250309063d8f8e99190602401602060405180830381865afa1580156117a0573d6000803e3d6000fd5b505050506040513d601f19601f820116820180604052508101906117c49190612602565b905060008260010180548060200260200160405190810160405280929190818152602001828054801561182057602002820191906000526020600020905b81546001600160a01b03168152600190910190602001808311611802575b505083519394506000925050505b8181101561041457600083828151811061184a5761184a6126af565b60200260200101519050806001600160a01b0316856001600160a01b031603611876575060010161182e565b6001600160a01b038116600090815260088701602052604090205460ff1680156118bb57506001600160a01b038116600090815260078701602052604090205460ff16155b80156118f1575060048601546000908152600c8701602090815260408083206001600160a01b038516845290915290205460ff16155b1561190157611901878283612156565b5060010161182e565b6000828152600080516020612980833981519152602052604090208054600490610100900460ff1681811115611942576119426125dc565b0361197d5760405162461bcd60e51b815260206004820152600b60248201526a119d5b990818db1bdcd95960aa1b60448201526064016101e3565b80548290829061ff00191661010083600481111561199d5761199d6125dc565b02179055508160048111156119b4576119b46125dc565b600482015460405185907fe515107ce875160b9ed93bfd1367820d3ffbf412cd63d05140f6bc5535b51de390600090a4505050565b6001600160a01b038116600090815260018301602052604081205415155b90505b92915050565b6000611a07836001600160a01b038416612286565b6000611a07836001600160a01b038416612379565b60008281526000805160206129808339815191526020526040812090611a63600d830184611a10565b905080611a7a57611a7782600f0184611a10565b90505b80611ac05760405162461bcd60e51b815260206004820152601660248201527521b0b713ba103932b6b7bb32903232b330bab63a32b960511b60448201526064016101e3565b611acd8260110184611a25565b50826001600160a01b03168260040154857f482c1cb26174abc97f4629d6f41ab133dbda268210ea1ced6c07c27857469a0360405160405180910390a450505050565b600281015460405163d8f8e99160e01b8152600091309163d8f8e99191611b3d9160040190815260200190565b602060405180830381865afa158015611b5a573d6000803e3d6000fd5b505050506040513d601f19601f82011682018060405250810190611b7e9190612602565b90506000611b8e846011016123c8565b1115611cbe57600030632081c1af84611ba9601188016123d2565b6040518363ffffffff1660e01b8152600401611bc69291906127b2565b6000604051808303816000875af1158015611be5573d6000803e3d6000fd5b505050506040513d6000823e601f3d908101601f19168201604052611c0d9190810190612874565b805190915060005b81811015611cba5760006001600160a01b0316838281518110611c3a57611c3a6126af565b60200260200101516001600160a01b03161480611c815750836001600160a01b0316838281518110611c6e57611c6e6126af565b60200260200101516001600160a01b0316145b15611c8e57600101611c15565b611cb28686858481518110611ca557611ca56126af565b60200260200101516123e6565b600101611c15565b5050505b611ccb83600d0182611a10565b15611cdf57611cdd83600f0182611a25565b505b6001600160a01b03811660009081526006840160209081526040808320805460ff19166001908117909155860180548251818502810185019093528083528493830182828015611d5857602002820191906000526020600020905b81546001600160a01b03168152600190910190602001808311611d3a575b505083519394506000925050505b81811015611dc857866007016000848381518110611d8657611d866126af565b6020908102919091018101516001600160a01b031682528101919091526040016000205460ff1615611dc05783611dbc81612939565b9450505b600101611d66565b50604080516101608101909152855460ff80821615158352611e8c9291889160208401916101009004166003811115611e0357611e036125dc565b6003811115611e1457611e146125dc565b815281546001600160a01b036201000090910481166020830152600183015460408301526002830154606083015260038301546080830152600483015460a0830152600583015460c0830152600683015460e08301526007830154610100830152600890920154909116610120909101528786611078565b50828560060154611e9d91906126fa565b611eaa90620f42406126fa565b6001600160a01b038516600090815260098801602052604081208054909190611ed490849061269c565b909155505060028501546040516001600160a01b03861691907f1f2267669c1e46109302869b7cd09b21fd5ac4d2da01a6bbc086c1fe7b997fa390600090a36104148560020154600361190a565b6000818152600080516020612980833981519152602090815260408083206000805160206129a0833981519152909252909120426003830155805461ff001916610300178155611f7383600461190a565b6040516339007b7760e01b81526004810184905230906339007b7790602401600060405180830381600087803b158015611fac57600080fd5b505af1158015610d0d573d6000803e3d6000fd5b6000818152600080516020612980833981519152602090815260408083206000805160206129a083398151915290925290912060028201546004830154600583015461200c91906126fa565b612016919061269c565b42116120645760405162461bcd60e51b815260206004820152601c60248201527f546f6f206561726c7920746f207374617274206e6577206379636c650000000060448201526064016101e3565b60008254610100900460ff166004811115612081576120816125dc565b14806120a7575060038254610100900460ff1660048111156120a5576120a56125dc565b145b6120c35760405162461bcd60e51b81526004016101e39061261f565b81600401600081546120d490612939565b90915550600182015460005b81811015612141576000846007016000866001018481548110612105576121056126af565b6000918252602080832091909101546001600160a01b031683528201929092526040019020805460ff19169115159190911790556001016120e0565b5061214d84600161190a565b610f5384611741565b6000838152600080516020612980833981519152602090815260408083206000805160206129a0833981519152909252822060068101549192909161219e90620f42406126fa565b83546040516323b872dd60e01b81526001600160a01b0388811660048301523060248301526044820184905292935062010000909104909116906323b872dd906064016020604051808303816000875af192505050801561221c575060408051601f3d908101601f19168201909252612219918101906126c5565b60015b15610414578015610d0d576001600160a01b0385166000818152600786016020526040808220805460ff19166001179055600487015490519092918a917fe1122b3cea22012386ebf236fc23dd8a783b91c046d5dec812901846464624ae9190a450505050505050565b6000818152600183016020526040812054801561236f5760006122aa6001836126e7565b85549091506000906122be906001906126e7565b90508181146123235760008660000182815481106122de576122de6126af565b9060005260206000200154905080876000018481548110612301576123016126af565b6000918252602080832090910192909255918252600188019052604090208390555b855486908061233457612334612952565b600190038181906000526020600020016000905590558560010160008681526020019081526020016000206000905560019350505050611a0a565b6000915050611a0a565b60008181526001830160205260408120546123c057508154600181810184556000848152602080822090930184905584548482528286019093526040902091909155611a0a565b506000611a0a565b6000611a0a825490565b606060006123df83612522565b9392505050565b6001600160a01b038116600090815260058401602052604090205460ff16801561241857506124188360110182611a10565b61245a5760405162461bcd60e51b8152602060048201526013602482015272115e1c195b1b185b9d081b9bdd08199bdd5b99606a1b60448201526064016101e3565b600282015460009081526000805160206129c0833981519152602090815260408083206001600160a01b0385168452600587018352818420805460ff19908116909155600480830190945291842080549092169091559084018054919290916124c290612968565b909155506013840180546000906124d890612939565b90915550600484015460028401546040516001600160a01b0385169291907f75072bae902443c91c7fe516bbb4da2a101e088aa10737ec2ecb7aa3beb023d190600090a450505050565b60608160000180548060200260200160405190810160405280929190818152602001828054801561257257602002820191906000526020600020905b81548152602001906001019080831161255e575b50505050509050919050565b60006020828403121561259057600080fd5b5035919050565b6001600160a01b0381168114610d1f57600080fd5b600080604083850312156125bf57600080fd5b8235915060208301356125d181612597565b809150509250929050565b634e487b7160e01b600052602160045260246000fd5b80516125fd81612597565b919050565b60006020828403121561261457600080fd5b81516123df81612597565b6020808252600b908201526a57726f6e6720737461746560a81b604082015260600190565b60208082526022908201527f5061727469636970616e74206973206578656d707465642074686973206379636040820152616c6560f01b606082015260800190565b634e487b7160e01b600052601160045260246000fd5b80820180821115611a0a57611a0a612686565b634e487b7160e01b600052603260045260246000fd5b6000602082840312156126d757600080fd5b815180151581146123df57600080fd5b81810381811115611a0a57611a0a612686565b8082028115828204841417611a0a57611a0a612686565b60006020828403121561272357600080fd5b5051919050565b60008261274757634e487b7160e01b600052601260045260246000fd5b500490565b6004811061276a57634e487b7160e01b600052602160045260246000fd5b9052565b600081518084526020808501945080840160005b838110156127a75781516001600160a01b031687529582019590820190600101612782565b509495945050505050565b600061018084546127c78460ff831615159052565b6127da6020850160ff8360081c1661274c565b60101c6001600160a01b0390811660408501526001860154606085015260028601546080850152600386015460a0850152600486015460c0850152600586015460e08501526006860154610100850152600786015461012085015260088601541661014084015261016083018190526128558184018561276e565b95945050505050565b634e487b7160e01b600052604160045260246000fd5b6000602080838503121561288757600080fd5b825167ffffffffffffffff8082111561289f57600080fd5b818501915085601f8301126128b357600080fd5b8151818111156128c5576128c561285e565b8060051b604051601f19603f830116810181811085821117156128ea576128ea61285e565b60405291825284820192508381018501918883111561290857600080fd5b938501935b8285101561292d5761291e856125f2565b8452938501939285019261290d565b98975050505050505050565b60006001820161294b5761294b612686565b5060010190565b634e487b7160e01b600052603160045260246000fd5b60008161297757612977612686565b50600019019056fe6751f7e27cecf86d7136f5749c224248cae80a39fafb59f8f6bf12c52816307c87101b21d556417ad2b8e8f2700dbad90721d5d50a1f435f2dee0b9dc981ac8a35fa70a6f9ae8a4d427ebe0c1be62ffd2870fecc1df41c6fda0bf5803e562888a264697066735822122015676423b84cccf2850761c6085dc5dee444b252fed8e5a0ae46433df380963964736f6c63430008120033",
  "devdoc": {
    "author": "Mohammed Haddouti",
    "details": "v3.0 (Diamond)",
    "errors": {
      "InsufficientBalance(uint256,uint256)": [
        {
          "params": {
            "available": "balance available.",
            "required": "requested amount to transfer."
          }
        }
      ]
    },
    "kind": "dev",
    "methods": {
      "closeFundingPeriod(uint256)": {
        "params": {
          "termId": "the id of the term"
        }
      },
      "emptyFundAfterEnd(uint256)": {
        "params": {
          "termId": "the id of the term"
        }
      },
      "payContribution(uint256)": {
        "params": {
          "termId": "the id of the term"
        }
      },
      "payContributionOnBehalfOf(uint256,address)": {
        "params": {
          "participant": "the address the msg.sender is paying for, the address must be part of the fund",
          "termId": "the id of the term"
        }
      },
      "startNewCycle(uint256)": {
        "params": {
          "termId": "the id of the term"
        }
      },
      "toggleAutoPay(uint256)": {
        "params": {
          "termId": "the id of the term"
        }
      },
      "withdrawFund(uint256)": {
        "details": "This follows the pull-over-push pattern.",
        "params": {
          "termId": "the id of the term"
        }
      }
    },
    "title": "Takaturn Fund",
    "version": 1
  },
  "userdoc": {
    "errors": {
      "InsufficientBalance(uint256,uint256)": [
        {
          "notice": "Insufficient balance for transfer. Needed `required` but only `available` available."
        }
      ]
    },
    "kind": "user",
    "methods": {
      "closeFundingPeriod(uint256)": {
        "notice": "Must be called at the end of the contribution period after the time has passed by the owner"
      },
      "emptyFundAfterEnd(uint256)": {
        "notice": "allow the owner to empty the fund if there's any excess fund left after 180 days,         this with the assumption that beneficiaries can't claim it themselves due to losing their keys for example,         and prevent the fund to be stuck in limbo"
      },
      "payContribution(uint256)": {
        "notice": "This is the function participants call to pay the contribution"
      },
      "payContributionOnBehalfOf(uint256,address)": {
        "notice": "This function is here to give the possibility to pay using a different wallet"
      },
      "startNewCycle(uint256)": {
        "notice": "starts a new cycle manually called by the owner. Only the first cycle starts automatically upon deploy"
      },
      "toggleAutoPay(uint256)": {
        "notice": "function to enable/disable autopay"
      },
      "withdrawFund(uint256)": {
        "notice": "Called by the beneficiary to withdraw the fund"
      }
    },
    "notice": "This is used to operate the Takaturn fund",
    "version": 1
  },
  "storageLayout": {
    "storage": [],
    "types": null
  }
}