{
  "address": "0xF893692bE4Ff36d6cABd934f39a64c3588EE040f",
  "abi": [
    {
      "inputs": [
        {
          "internalType": "uint256",
          "name": "available",
          "type": "uint256"
        },
        {
          "internalType": "uint256",
          "name": "required",
          "type": "uint256"
        }
      ],
      "name": "InsufficientBalance",
      "type": "error"
    },
    {
      "anonymous": false,
      "inputs": [
        {
          "indexed": true,
          "internalType": "uint256",
          "name": "termId",
          "type": "uint256"
        },
        {
          "indexed": true,
          "internalType": "address",
          "name": "participant",
          "type": "address"
        },
        {
          "indexed": true,
          "internalType": "bool",
          "name": "enabled",
          "type": "bool"
        }
      ],
      "name": "OnAutoPayToggled",
      "type": "event"
    },
    {
      "anonymous": false,
      "inputs": [
        {
          "indexed": true,
          "internalType": "uint256",
          "name": "termId",
          "type": "uint256"
        },
        {
          "indexed": true,
          "internalType": "address",
          "name": "beneficiary",
          "type": "address"
        }
      ],
      "name": "OnBeneficiaryAwarded",
      "type": "event"
    },
    {
      "anonymous": false,
      "inputs": [
        {
          "indexed": true,
          "internalType": "uint256",
          "name": "termId",
          "type": "uint256"
        },
        {
          "indexed": true,
          "internalType": "uint256",
          "name": "currentCycle",
          "type": "uint256"
        },
        {
          "indexed": true,
          "internalType": "address",
          "name": "expellant",
          "type": "address"
        }
      ],
      "name": "OnDefaulterExpelled",
      "type": "event"
    },
    {
      "anonymous": false,
      "inputs": [
        {
          "indexed": true,
          "internalType": "uint256",
          "name": "termId",
          "type": "uint256"
        },
        {
          "indexed": true,
          "internalType": "uint256",
          "name": "currentCycle",
          "type": "uint256"
        },
        {
          "indexed": true,
          "internalType": "enum LibFundStorage.FundStates",
          "name": "newState",
          "type": "uint8"
        }
      ],
      "name": "OnFundStateChanged",
      "type": "event"
    },
    {
      "anonymous": false,
      "inputs": [
        {
          "indexed": true,
          "internalType": "uint256",
          "name": "termId",
          "type": "uint256"
        },
        {
          "indexed": true,
          "internalType": "address",
          "name": "claimant",
          "type": "address"
        },
        {
          "indexed": true,
          "internalType": "uint256",
          "name": "amount",
          "type": "uint256"
        }
      ],
      "name": "OnFundWithdrawn",
      "type": "event"
    },
    {
      "anonymous": false,
      "inputs": [
        {
          "indexed": true,
          "internalType": "uint256",
          "name": "termId",
          "type": "uint256"
        },
        {
          "indexed": true,
          "internalType": "address",
          "name": "payer",
          "type": "address"
        },
        {
          "indexed": true,
          "internalType": "uint256",
          "name": "currentCycle",
          "type": "uint256"
        }
      ],
      "name": "OnPaidContribution",
      "type": "event"
    },
    {
      "anonymous": false,
      "inputs": [
        {
          "indexed": true,
          "internalType": "uint256",
          "name": "termId",
          "type": "uint256"
        },
        {
          "indexed": true,
          "internalType": "uint256",
          "name": "currentCycle",
          "type": "uint256"
        },
        {
          "indexed": true,
          "internalType": "address",
          "name": "defaulter",
          "type": "address"
        }
      ],
      "name": "OnParticipantDefaulted",
      "type": "event"
    },
    {
      "inputs": [
        {
          "internalType": "uint256",
          "name": "termId",
          "type": "uint256"
        }
      ],
      "name": "closeFundingPeriod",
      "outputs": [],
      "stateMutability": "nonpayable",
      "type": "function"
    },
    {
      "inputs": [
        {
          "internalType": "uint256",
          "name": "termId",
          "type": "uint256"
        }
      ],
      "name": "emptyFundAfterEnd",
      "outputs": [],
      "stateMutability": "nonpayable",
      "type": "function"
    },
    {
      "inputs": [
        {
          "internalType": "uint256",
          "name": "termId",
          "type": "uint256"
        }
      ],
      "name": "payContribution",
      "outputs": [],
      "stateMutability": "nonpayable",
      "type": "function"
    },
    {
      "inputs": [
        {
          "internalType": "uint256",
          "name": "termId",
          "type": "uint256"
        },
        {
          "internalType": "address",
          "name": "participant",
          "type": "address"
        }
      ],
      "name": "payContributionOnBehalfOf",
      "outputs": [],
      "stateMutability": "nonpayable",
      "type": "function"
    },
    {
      "inputs": [
        {
          "internalType": "uint256",
          "name": "termId",
          "type": "uint256"
        }
      ],
      "name": "startNewCycle",
      "outputs": [],
      "stateMutability": "nonpayable",
      "type": "function"
    },
    {
      "inputs": [
        {
          "internalType": "uint256",
          "name": "termId",
          "type": "uint256"
        }
      ],
      "name": "toggleAutoPay",
      "outputs": [],
      "stateMutability": "nonpayable",
      "type": "function"
    },
    {
      "inputs": [
        {
          "internalType": "uint256",
          "name": "termId",
          "type": "uint256"
        }
      ],
      "name": "withdrawFund",
      "outputs": [],
      "stateMutability": "nonpayable",
      "type": "function"
    }
  ],
  "transactionHash": "0xed20c0ca91c9129be79792ea435a4300a9401d52805525d7598c4d72dd41c77a",
  "args": [],
  "numDeployments": 14,
  "solcInputHash": "d76128fb6db996db9395f676899145a5",
  "bytecode": "0x608060405234801561001057600080fd5b50612a6d806100206000396000f3fe608060405234801561001057600080fd5b506004361061007d5760003560e01c806358733dec1161005b57806358733dec146100bd5780637be2ecea146100d057806384431629146100e3578063ea28b9bb146100f657600080fd5b80630cee1725146100825780632009844b146100975780634b5c9c80146100aa575b600080fd5b6100956100903660046125d6565b610109565b005b6100956100a53660046125d6565b610450565b6100956100b83660046125d6565b610662565b6100956100cb3660046125d6565b6108bc565b6100956100de3660046125d6565b610d4c565b6100956100f1366004612604565b610d58565b6100956101043660046125d6565b610f8f565b60008181526000805160206129d883398151915260209081526040808320600080516020612a1883398151915283528184206000805160206129f88339815191528452828520338652601583019094529190932054825491929160ff91821691600291610100900416600381111561018357610183612634565b14806101a9575060048454610100900460ff1660048111156101a7576101a7612634565b145b806101c5575033600090815260068501602052604090205460ff165b806101cd5750805b61021e5760405162461bcd60e51b815260206004820152601960248201527f596f75206d75737420626520612062656e65666963696172790000000000000060448201526064015b60405180910390fd5b336000908152600985016020908152604080832054600a8801835281842054600688019093529220549115159160ff909116901515828061025c5750815b806102645750805b6102a65760405162461bcd60e51b81526020600482015260136024820152724e6f7468696e6720746f20776974686472617760681b6044820152606401610215565b81156104265760008881526000805160206129f88339815191526020908152604080832081516101608101909252805460ff808216151584526103869484019161010090041660038111156102fd576102fd612634565b600381111561030e5761030e612634565b815281546001600160a01b036201000090910481166020830152600183015460408301526002830154606083015260038301546080830152600483015460a0830152600583015460c0830152600683015460e083015260078301546101008301526008909201549091166101209091015289336110ae565b905060048854610100900460ff1660048111156103a5576103a5612634565b146104165780156104165760405162461bcd60e51b815260206004820152603560248201527f4e656564206174206c6561737420312e3152434320636f6c6c61746572616c206044820152741d1bc81d5b999c99595e99481e5bdd5c88199d5b99605a1b6064820152608401610215565b610420893361123c565b50610436565b821561043657610436883361123c565b8015610446576104468833611422565b5050505050505050565b60006000805160206129d883398151915260008381526020919091526040808220905163d8f8e99160e01b815260048101859052909250309063d8f8e99190602401602060405180830381865afa1580156104af573d6000803e3d6000fd5b505050506040513d601f19601f820116820180604052508101906104d3919061265a565b905060018254610100900460ff1660048111156104f2576104f2612634565b1461050f5760405162461bcd60e51b815260040161021590612677565b33600090815260058301602052604090205460ff166105645760405162461bcd60e51b8152602060048201526011602482015270139bdd0818481c185c9d1a58da5c185b9d607a1b6044820152606401610215565b336001600160a01b038216036105b65760405162461bcd60e51b815260206004820152601760248201527642656e656669636961727920646f65736e27742070617960481b6044820152606401610215565b33600090815260078301602052604090205460ff16156106115760405162461bcd60e51b8152602060048201526016602482015275416c7265616479207061696420666f72206379636c6560501b6044820152606401610215565b60048201546000908152600c83016020908152604080832033845290915290205460ff16156106525760405162461bcd60e51b81526004016102159061269c565b61065d833333611545565b505050565b8061066c816116df565b60008281526000805160206129d8833981519152602052604090208054600490610100900460ff16818111156106a4576106a4612634565b1480156106c1575060038101546106be9062ed4e006126f4565b42115b6106ff5760405162461bcd60e51b815260206004820152600f60248201526e10d85b89dd08195b5c1d1e481e595d608a1b6044820152606401610215565b6001810154600090815b818110156107f057600084600901600086600101848154811061072e5761072e612707565b60009182526020808320909101546001600160a01b0316835282019290925260400190205411156107e85783600901600085600101838154811061077457610774612707565b60009182526020808320909101546001600160a01b031683528201929092526040019020546107a390846126f4565b925060008460090160008660010184815481106107c2576107c2612707565b60009182526020808320909101546001600160a01b031683528201929092526040019020555b600101610709565b5081156108b557825460405163a9059cbb60e01b8152336004820152602481018490526000916201000090046001600160a01b03169063a9059cbb906044016020604051808303816000875af115801561084e573d6000803e3d6000fd5b505050506040513d601f19601f82011682018060405250810190610872919061271d565b9050806108b35760405162461bcd60e51b815260206004820152600f60248201526e151c985b9cd9995c8819985a5b1959608a1b6044820152606401610215565b505b5050505050565b60008181526000805160206129d8833981519152602090815260408083206000805160206129f883398151915290925290912060078101546002830154600484015461090a9060019061273f565b83600501546109199190612752565b61092391906126f4565b61092d91906126f4565b421161097b5760405162461bcd60e51b815260206004820152601860248201527f5374696c6c2074696d6520746f20636f6e7472696275746500000000000000006044820152606401610215565b60018254610100900460ff16600481111561099857610998612634565b146109b55760405162461bcd60e51b815260040161021590612677565b60405163d8f8e99160e01b815260048101849052600090309063d8f8e99190602401602060405180830381865afa1580156109f4573d6000803e3d6000fd5b505050506040513d601f19601f82011682018060405250810190610a18919061265a565b9050610a2384611765565b610a2e84600261192e565b600083600101805480602002602001604051908101604052809291908181526020018280548015610a8857602002820191906000526020600020905b81546001600160a01b03168152600190910190602001808311610a6a575b50508351600489015494955093925060009150505b82811015610d20576000848281518110610ab957610ab9612707565b60200260200101519050856001600160a01b0316816001600160a01b03161480610b0757506000838152600c8901602090815260408083206001600160a01b038516845290915290205460ff165b15610b7057610b198860110182611a0d565b15610b6757610b2b8860110182611a34565b50856001600160a01b0316816001600160a01b031603610b5857610b5288600f0182611a49565b50610b67565b610b6588600d0182611a49565b505b50600101610a9d565b6001600160a01b038116600090815260078901602052604090205460ff1615610be5576001600160a01b038116600090815260068901602052604090205460ff1615610bc957610bc388600f0182611a49565b50610bd8565b610bd688600d0182611a49565b505b610b528860110182611a34565b610bf28860110182611a0d565b158015610c6b575060405163d7992e5b60e01b8152600481018a90526001600160a01b0382166024820152309063d7992e5b90604401602060405180830381865afa158015610c45573d6000803e3d6000fd5b505050506040513d601f19601f82011682018060405250810190610c69919061271d565b155b15610b675760405163d7992e5b60e01b8152600481018a90526001600160a01b0387166024820152309063d7992e5b90604401602060405180830381865afa158015610cbb573d6000803e3d6000fd5b505050506040513d601f19601f82011682018060405250810190610cdf919061271d565b15610d16576001600160a01b038116600090815260068901602052604090205460ff1615610d1157610d118982611a5e565b610b67565b610b678982611a5e565b50610d2b8686611b34565b8560140154866004015410610d4357610d4387611f46565b50505050505050565b610d5581611fe4565b50565b60006000805160206129d883398151915260008481526020919091526040808220905163d8f8e99160e01b815260048101869052909250309063d8f8e99190602401602060405180830381865afa158015610db7573d6000803e3d6000fd5b505050506040513d601f19601f82011682018060405250810190610ddb919061265a565b905060018254610100900460ff166004811115610dfa57610dfa612634565b14610e175760405162461bcd60e51b815260040161021590612677565b6001600160a01b038316600090815260058301602052604090205460ff16610e755760405162461bcd60e51b8152602060048201526011602482015270139bdd0818481c185c9d1a58da5c185b9d607a1b6044820152606401610215565b826001600160a01b0316816001600160a01b031603610ed05760405162461bcd60e51b815260206004820152601760248201527642656e656669636961727920646f65736e27742070617960481b6044820152606401610215565b6001600160a01b038316600090815260078301602052604090205460ff1615610f345760405162461bcd60e51b8152602060048201526016602482015275416c7265616479207061696420666f72206379636c6560501b6044820152606401610215565b60048201546000908152600c8301602090815260408083206001600160a01b038716845290915290205460ff1615610f7e5760405162461bcd60e51b81526004016102159061269c565b610f89843385611545565b50505050565b6000818152600080516020612a18833981519152602090815260408083206000805160206129d883398151915283528184203385526004820190935292205460ff1661101d5760405162461bcd60e51b815260206004820152601d60248201527f50617920636f6c6c61746572616c2073656375726974792066697273740000006044820152606401610215565b60048154610100900460ff16600481111561103a5761103a612634565b036110575760405162461bcd60e51b815260040161021590612677565b336000818152600883016020526040808220805460ff81161560ff199091168117909155905190928392909187917f8bd3cffd2d87eca262a8e2d638c1ff3d3b61c604208115af6295b089acaf72b991a450505050565b60808301516000908152600080516020612a18833981519152602090815260408083206001600160a01b03851684526015860190925282205460ff168015611117576001600160a01b0384166000908152600a860160205260409020805460ff19169055611215565b608086015160405163f0d826e760e01b8152600091309163f0d826e7916111449160040190815260200190565b602060405180830381865afa158015611161573d6000803e3d6000fd5b505050506040513d601f19601f820116820180604052508101906111859190612769565b90506000606461119683606e612752565b6111a09190612782565b6001600160a01b03871660009081526005860160205260409020549091508111156111ef576001600160a01b0386166000908152600a880160205260409020805460ff19166001179055611212565b6001600160a01b0386166000908152600a880160205260409020805460ff191690555b50505b5050506001600160a01b03166000908152600a91909101602052604090205460ff16919050565b60006000805160206129d88339815191526000848152602091825260408082206001600160a01b0386811684526009820190945281832054815492516370a0823160e01b81523060048201529195509362010000909204909116906370a0823190602401602060405180830381865afa1580156112bd573d6000803e3d6000fd5b505050506040513d601f19601f820116820180604052508101906112e19190612769565b90508181101561130e5760405163cf47918160e01b81526004810182905260248101839052604401610215565b6001600160a01b0384811660008181526009860160205260408082208290558654905163a9059cbb60e01b8152600481019390935260248301869052909262010000909104169063a9059cbb906044016020604051808303816000875af115801561137d573d6000803e3d6000fd5b505050506040513d601f19601f820116820180604052508101906113a1919061271d565b9050806113e25760405162461bcd60e51b815260206004820152600f60248201526e151c985b9cd9995c8819985a5b1959608a1b6044820152606401610215565b5081846001600160a01b0316867f31b332de0dccb2d0ed351b3d65a9e10b099b3e3c63f4a6f5ea1810b4d757795c60405160405180910390a45050505050565b6000828152600080516020612a18833981519152602090815260408083206001600160a01b03851684526006810190925290912054806114975760405162461bcd60e51b815260206004820152601060248201526f4e6f7468696e6720746f20636c61696d60801b6044820152606401610215565b6001600160a01b03831660008181526006840160205260408082208290555190919083908381818185875af1925050503d80600081146114f3576040519150601f19603f3d011682016040523d82523d6000602084013e6114f8565b606091505b505090508061150657600080fd5b81846001600160a01b0316867f1d8d3d09e68fe1873369af18c4d7d361038dac92ac768b54ac19273dbd4cb6b860405160405180910390a45050505050565b60008381526000805160206129d8833981519152602090815260408083206000805160206129f8833981519152909252822060068101549192909161158d90620f4240612752565b83546040516323b872dd60e01b81526001600160a01b0388811660048301523060248301526044820184905292935060009262010000909204909116906323b872dd906064016020604051808303816000875af11580156115f2573d6000803e3d6000fd5b505050506040513d601f19601f82011682018060405250810190611616919061271d565b9050806116805760405162461bcd60e51b815260206004820152603260248201527f436f6e747269627574696f6e206661696c65642c2064696420796f7520617070604482015271726f766520737461626c6520746f6b656e3f60701b6064820152608401610215565b6001600160a01b0385166000818152600786016020526040808220805460ff19166001179055600487015490519092918a917fe1122b3cea22012386ebf236fc23dd8a783b91c046d5dec812901846464624ae9190a450505050505050565b60008181526000805160206129f883398151915260205260409020546001600160a01b0362010000909104163314610d555760405162461bcd60e51b8152602060048201526024808201527f5465726d4f776e61626c653a2063616c6c6572206973206e6f7420746865206f6044820152633bb732b960e11b6064820152608401610215565b60006000805160206129d883398151915260008381526020919091526040808220905163d8f8e99160e01b815260048101859052909250309063d8f8e99190602401602060405180830381865afa1580156117c4573d6000803e3d6000fd5b505050506040513d601f19601f820116820180604052508101906117e8919061265a565b905060008260010180548060200260200160405190810160405280929190818152602001828054801561184457602002820191906000526020600020905b81546001600160a01b03168152600190910190602001808311611826575b505083519394506000925050505b818110156108b357600083828151811061186e5761186e612707565b60200260200101519050806001600160a01b0316856001600160a01b03160361189a5750600101611852565b6001600160a01b038116600090815260088701602052604090205460ff1680156118df57506001600160a01b038116600090815260078701602052604090205460ff16155b8015611915575060048601546000908152600c8701602090815260408083206001600160a01b038516845290915290205460ff16155b156119255761192587828361217a565b50600101611852565b60008281526000805160206129d8833981519152602052604090208054600490610100900460ff168181111561196657611966612634565b036119a15760405162461bcd60e51b815260206004820152600b60248201526a119d5b990818db1bdcd95960aa1b6044820152606401610215565b80548290829061ff0019166101008360048111156119c1576119c1612634565b02179055508160048111156119d8576119d8612634565b600482015460405185907fe515107ce875160b9ed93bfd1367820d3ffbf412cd63d05140f6bc5535b51de390600090a4505050565b6001600160a01b038116600090815260018301602052604081205415155b90505b92915050565b6000611a2b836001600160a01b0384166122aa565b6000611a2b836001600160a01b03841661239d565b60008281526000805160206129d88339815191526020526040812090611a87600d830184611a34565b905080611a9e57611a9b82600f0184611a34565b90505b80611ae45760405162461bcd60e51b815260206004820152601660248201527521b0b713ba103932b6b7bb32903232b330bab63a32b960511b6044820152606401610215565b611af18260110184611a49565b50826001600160a01b03168260040154857f482c1cb26174abc97f4629d6f41ab133dbda268210ea1ced6c07c27857469a0360405160405180910390a450505050565b600281015460405163d8f8e99160e01b8152600091309163d8f8e99191611b619160040190815260200190565b602060405180830381865afa158015611b7e573d6000803e3d6000fd5b505050506040513d601f19601f82011682018060405250810190611ba2919061265a565b90506000611bb2846011016123ec565b1115611ce257600030632081c1af84611bcd601188016123f6565b6040518363ffffffff1660e01b8152600401611bea92919061280a565b6000604051808303816000875af1158015611c09573d6000803e3d6000fd5b505050506040513d6000823e601f3d908101601f19168201604052611c3191908101906128cc565b805190915060005b81811015611cde5760006001600160a01b0316838281518110611c5e57611c5e612707565b60200260200101516001600160a01b03161480611ca55750836001600160a01b0316838281518110611c9257611c92612707565b60200260200101516001600160a01b0316145b15611cb257600101611c39565b611cd68686858481518110611cc957611cc9612707565b602002602001015161240a565b600101611c39565b5050505b611cef83600d0182611a34565b15611d0357611d0183600f0182611a49565b505b6001600160a01b03811660009081526006840160209081526040808320805460ff19166001908117909155860180548251818502810185019093528083528493830182828015611d7c57602002820191906000526020600020905b81546001600160a01b03168152600190910190602001808311611d5e575b505083519394506000925050505b81811015611dec57866007016000848381518110611daa57611daa612707565b6020908102919091018101516001600160a01b031682528101919091526040016000205460ff1615611de45783611de081612991565b9450505b600101611d8a565b50604080516101608101909152855460ff80821615158352611eb09291889160208401916101009004166003811115611e2757611e27612634565b6003811115611e3857611e38612634565b815281546001600160a01b036201000090910481166020830152600183015460408301526002830154606083015260038301546080830152600483015460a0830152600583015460c0830152600683015460e083015260078301546101008301526008909201549091166101209091015287866110ae565b50828560060154611ec19190612752565b611ece90620f4240612752565b6001600160a01b038516600090815260098801602052604081208054909190611ef89084906126f4565b909155505060028501546040516001600160a01b03861691907f1f2267669c1e46109302869b7cd09b21fd5ac4d2da01a6bbc086c1fe7b997fa390600090a36108b38560020154600361192e565b60008181526000805160206129d8833981519152602090815260408083206000805160206129f8833981519152909252909120426003830155805461ff001916610300178155611f9783600461192e565b6040516339007b7760e01b81526004810184905230906339007b7790602401600060405180830381600087803b158015611fd057600080fd5b505af1158015610d43573d6000803e3d6000fd5b60008181526000805160206129d8833981519152602090815260408083206000805160206129f88339815191529092529091206002820154600483015460058301546120309190612752565b61203a91906126f4565b42116120885760405162461bcd60e51b815260206004820152601c60248201527f546f6f206561726c7920746f207374617274206e6577206379636c65000000006044820152606401610215565b60008254610100900460ff1660048111156120a5576120a5612634565b14806120cb575060038254610100900460ff1660048111156120c9576120c9612634565b145b6120e75760405162461bcd60e51b815260040161021590612677565b81600401600081546120f890612991565b90915550600182015460005b8181101561216557600084600701600086600101848154811061212957612129612707565b6000918252602080832091909101546001600160a01b031683528201929092526040019020805460ff1916911515919091179055600101612104565b5061217184600161192e565b610f8984611765565b60008381526000805160206129d8833981519152602090815260408083206000805160206129f883398151915290925282206006810154919290916121c290620f4240612752565b83546040516323b872dd60e01b81526001600160a01b0388811660048301523060248301526044820184905292935062010000909104909116906323b872dd906064016020604051808303816000875af1925050508015612240575060408051601f3d908101601f1916820190925261223d9181019061271d565b60015b156108b3578015610d43576001600160a01b0385166000818152600786016020526040808220805460ff19166001179055600487015490519092918a917fe1122b3cea22012386ebf236fc23dd8a783b91c046d5dec812901846464624ae9190a450505050505050565b600081815260018301602052604081205480156123935760006122ce60018361273f565b85549091506000906122e29060019061273f565b905081811461234757600086600001828154811061230257612302612707565b906000526020600020015490508087600001848154811061232557612325612707565b6000918252602080832090910192909255918252600188019052604090208390555b8554869080612358576123586129aa565b600190038181906000526020600020016000905590558560010160008681526020019081526020016000206000905560019350505050611a2e565b6000915050611a2e565b60008181526001830160205260408120546123e457508154600181810184556000848152602080822090930184905584548482528286019093526040902091909155611a2e565b506000611a2e565b6000611a2e825490565b606060006124038361257a565b9392505050565b6001600160a01b038116600090815260058401602052604090205460ff16801561243c575061243c8360110182611a34565b61247e5760405162461bcd60e51b8152602060048201526013602482015272115e1c195b1b185b9d081b9bdd08199bdd5b99606a1b6044820152606401610215565b60028201546000908152600080516020612a18833981519152602090815260408083206001600160a01b0385168452600587018352818420805460ff1990811690915560048201845282852080549091169055600687019092529091205460ff16612509576001600160a01b03821660009081526015850160205260409020805460ff191660011790555b826004016000815461251a906129c0565b9091555060138401805460009061253090612991565b90915550600484015460028401546040516001600160a01b0385169291907f75072bae902443c91c7fe516bbb4da2a101e088aa10737ec2ecb7aa3beb023d190600090a450505050565b6060816000018054806020026020016040519081016040528092919081815260200182805480156125ca57602002820191906000526020600020905b8154815260200190600101908083116125b6575b50505050509050919050565b6000602082840312156125e857600080fd5b5035919050565b6001600160a01b0381168114610d5557600080fd5b6000806040838503121561261757600080fd5b823591506020830135612629816125ef565b809150509250929050565b634e487b7160e01b600052602160045260246000fd5b8051612655816125ef565b919050565b60006020828403121561266c57600080fd5b8151612403816125ef565b6020808252600b908201526a57726f6e6720737461746560a81b604082015260600190565b60208082526022908201527f5061727469636970616e74206973206578656d707465642074686973206379636040820152616c6560f01b606082015260800190565b634e487b7160e01b600052601160045260246000fd5b80820180821115611a2e57611a2e6126de565b634e487b7160e01b600052603260045260246000fd5b60006020828403121561272f57600080fd5b8151801515811461240357600080fd5b81810381811115611a2e57611a2e6126de565b8082028115828204841417611a2e57611a2e6126de565b60006020828403121561277b57600080fd5b5051919050565b60008261279f57634e487b7160e01b600052601260045260246000fd5b500490565b600481106127c257634e487b7160e01b600052602160045260246000fd5b9052565b600081518084526020808501945080840160005b838110156127ff5781516001600160a01b0316875295820195908201906001016127da565b509495945050505050565b6000610180845461281f8460ff831615159052565b6128326020850160ff8360081c166127a4565b60101c6001600160a01b0390811660408501526001860154606085015260028601546080850152600386015460a0850152600486015460c0850152600586015460e08501526006860154610100850152600786015461012085015260088601541661014084015261016083018190526128ad818401856127c6565b95945050505050565b634e487b7160e01b600052604160045260246000fd5b600060208083850312156128df57600080fd5b825167ffffffffffffffff808211156128f757600080fd5b818501915085601f83011261290b57600080fd5b81518181111561291d5761291d6128b6565b8060051b604051601f19603f83011681018181108582111715612942576129426128b6565b60405291825284820192508381018501918883111561296057600080fd5b938501935b82851015612985576129768561264a565b84529385019392850192612965565b98975050505050505050565b6000600182016129a3576129a36126de565b5060010190565b634e487b7160e01b600052603160045260246000fd5b6000816129cf576129cf6126de565b50600019019056fe6751f7e27cecf86d7136f5749c224248cae80a39fafb59f8f6bf12c52816307c87101b21d556417ad2b8e8f2700dbad90721d5d50a1f435f2dee0b9dc981ac8a35fa70a6f9ae8a4d427ebe0c1be62ffd2870fecc1df41c6fda0bf5803e562888a26469706673582212209bf5965aacc088a85a3e44602fdbdecfe39ff7ae56fe6a417f1aeb45767742b164736f6c63430008120033",
  "devdoc": {
    "author": "Mohammed Haddouti",
    "details": "v3.0 (Diamond)",
    "errors": {
      "InsufficientBalance(uint256,uint256)": [
        {
          "params": {
            "available": "balance available.",
            "required": "requested amount to transfer."
          }
        }
      ]
    },
    "kind": "dev",
    "methods": {
      "closeFundingPeriod(uint256)": {
        "params": {
          "termId": "the id of the term"
        }
      },
      "emptyFundAfterEnd(uint256)": {
        "params": {
          "termId": "the id of the term"
        }
      },
      "payContribution(uint256)": {
        "params": {
          "termId": "the id of the term"
        }
      },
      "payContributionOnBehalfOf(uint256,address)": {
        "params": {
          "participant": "the address the msg.sender is paying for, the address must be part of the fund",
          "termId": "the id of the term"
        }
      },
      "startNewCycle(uint256)": {
        "params": {
          "termId": "the id of the term"
        }
      },
      "toggleAutoPay(uint256)": {
        "params": {
          "termId": "the id of the term"
        }
      },
      "withdrawFund(uint256)": {
        "details": "This follows the pull-over-push pattern.",
        "params": {
          "termId": "the id of the term"
        }
      }
    },
    "title": "Takaturn Fund",
    "version": 1
  },
  "userdoc": {
    "errors": {
      "InsufficientBalance(uint256,uint256)": [
        {
          "notice": "Insufficient balance for transfer. Needed `required` but only `available` available."
        }
      ]
    },
    "kind": "user",
    "methods": {
      "closeFundingPeriod(uint256)": {
        "notice": "Must be called at the end of the contribution period after the time has passed by the owner"
      },
      "emptyFundAfterEnd(uint256)": {
        "notice": "allow the owner to empty the fund if there's any excess fund left after 180 days,         this with the assumption that beneficiaries can't claim it themselves due to losing their keys for example,         and prevent the fund to be stuck in limbo"
      },
      "payContribution(uint256)": {
        "notice": "This is the function participants call to pay the contribution"
      },
      "payContributionOnBehalfOf(uint256,address)": {
        "notice": "This function is here to give the possibility to pay using a different wallet"
      },
      "startNewCycle(uint256)": {
        "notice": "starts a new cycle manually called by the owner. Only the first cycle starts automatically upon deploy"
      },
      "toggleAutoPay(uint256)": {
        "notice": "function to enable/disable autopay"
      },
      "withdrawFund(uint256)": {
        "notice": "Called by the beneficiary to withdraw the fund"
      }
    },
    "notice": "This is used to operate the Takaturn fund",
    "version": 1
  },
  "storageLayout": {
    "storage": [],
    "types": null
  }
}