{
  "address": "0x5a702b1cB6DE814909Fc919223C92400EAFcEFcf",
  "abi": [
    {
      "inputs": [
        {
          "internalType": "uint256",
          "name": "available",
          "type": "uint256"
        },
        {
          "internalType": "uint256",
          "name": "required",
          "type": "uint256"
        }
      ],
      "name": "InsufficientBalance",
      "type": "error"
    },
    {
      "anonymous": false,
      "inputs": [
        {
          "indexed": true,
          "internalType": "uint256",
          "name": "termId",
          "type": "uint256"
        },
        {
          "indexed": true,
          "internalType": "address",
          "name": "participant",
          "type": "address"
        },
        {
          "indexed": true,
          "internalType": "bool",
          "name": "enabled",
          "type": "bool"
        }
      ],
      "name": "OnAutoPayToggled",
      "type": "event"
    },
    {
      "anonymous": false,
      "inputs": [
        {
          "indexed": true,
          "internalType": "uint256",
          "name": "termId",
          "type": "uint256"
        },
        {
          "indexed": true,
          "internalType": "address",
          "name": "beneficiary",
          "type": "address"
        }
      ],
      "name": "OnBeneficiaryAwarded",
      "type": "event"
    },
    {
      "anonymous": false,
      "inputs": [
        {
          "indexed": true,
          "internalType": "uint256",
          "name": "termId",
          "type": "uint256"
        },
        {
          "indexed": true,
          "internalType": "uint256",
          "name": "currentCycle",
          "type": "uint256"
        },
        {
          "indexed": true,
          "internalType": "address",
          "name": "expellant",
          "type": "address"
        }
      ],
      "name": "OnDefaulterExpelled",
      "type": "event"
    },
    {
      "anonymous": false,
      "inputs": [
        {
          "indexed": true,
          "internalType": "uint256",
          "name": "termId",
          "type": "uint256"
        },
        {
          "indexed": true,
          "internalType": "enum LibFundV2.FundStates",
          "name": "newState",
          "type": "uint8"
        }
      ],
      "name": "OnFundStateChanged",
      "type": "event"
    },
    {
      "anonymous": false,
      "inputs": [
        {
          "indexed": true,
          "internalType": "uint256",
          "name": "termId",
          "type": "uint256"
        },
        {
          "indexed": true,
          "internalType": "address",
          "name": "claimant",
          "type": "address"
        },
        {
          "indexed": true,
          "internalType": "uint256",
          "name": "amount",
          "type": "uint256"
        }
      ],
      "name": "OnFundWithdrawn",
      "type": "event"
    },
    {
      "anonymous": false,
      "inputs": [
        {
          "indexed": true,
          "internalType": "uint256",
          "name": "termId",
          "type": "uint256"
        },
        {
          "indexed": true,
          "internalType": "address",
          "name": "payer",
          "type": "address"
        },
        {
          "indexed": true,
          "internalType": "uint256",
          "name": "currentCycle",
          "type": "uint256"
        }
      ],
      "name": "OnPaidContribution",
      "type": "event"
    },
    {
      "anonymous": false,
      "inputs": [
        {
          "indexed": true,
          "internalType": "uint256",
          "name": "termId",
          "type": "uint256"
        },
        {
          "indexed": true,
          "internalType": "uint256",
          "name": "currentCycle",
          "type": "uint256"
        },
        {
          "indexed": true,
          "internalType": "address",
          "name": "defaulter",
          "type": "address"
        }
      ],
      "name": "OnParticipantDefaulted",
      "type": "event"
    },
    {
      "anonymous": false,
      "inputs": [
        {
          "indexed": true,
          "internalType": "uint256",
          "name": "termId",
          "type": "uint256"
        }
      ],
      "name": "OnTermStart",
      "type": "event"
    },
    {
      "anonymous": false,
      "inputs": [
        {
          "indexed": true,
          "internalType": "uint256",
          "name": "termId",
          "type": "uint256"
        },
        {
          "indexed": true,
          "internalType": "uint256",
          "name": "newLength",
          "type": "uint256"
        }
      ],
      "name": "OnTotalParticipantsUpdated",
      "type": "event"
    },
    {
      "anonymous": false,
      "inputs": [
        {
          "indexed": true,
          "internalType": "address",
          "name": "previousTermOwner",
          "type": "address"
        },
        {
          "indexed": true,
          "internalType": "address",
          "name": "newTermOwner",
          "type": "address"
        }
      ],
      "name": "TermOwnershipTransferred",
      "type": "event"
    },
    {
      "inputs": [],
      "name": "FUND_VERSION",
      "outputs": [
        {
          "internalType": "uint256",
          "name": "",
          "type": "uint256"
        }
      ],
      "stateMutability": "view",
      "type": "function"
    },
    {
      "inputs": [
        {
          "internalType": "uint256",
          "name": "id",
          "type": "uint256"
        }
      ],
      "name": "awardBeneficiary",
      "outputs": [],
      "stateMutability": "nonpayable",
      "type": "function"
    },
    {
      "inputs": [
        {
          "internalType": "uint256",
          "name": "id",
          "type": "uint256"
        }
      ],
      "name": "closeFund",
      "outputs": [],
      "stateMutability": "nonpayable",
      "type": "function"
    },
    {
      "inputs": [
        {
          "internalType": "uint256",
          "name": "id",
          "type": "uint256"
        }
      ],
      "name": "closeFundingPeriod",
      "outputs": [],
      "stateMutability": "nonpayable",
      "type": "function"
    },
    {
      "inputs": [
        {
          "internalType": "uint256",
          "name": "id",
          "type": "uint256"
        }
      ],
      "name": "emptyFundAfterEnd",
      "outputs": [],
      "stateMutability": "nonpayable",
      "type": "function"
    },
    {
      "inputs": [
        {
          "internalType": "uint256",
          "name": "termId",
          "type": "uint256"
        }
      ],
      "name": "initFund",
      "outputs": [],
      "stateMutability": "nonpayable",
      "type": "function"
    },
    {
      "inputs": [
        {
          "internalType": "uint256",
          "name": "id",
          "type": "uint256"
        },
        {
          "internalType": "address",
          "name": "beneficiary",
          "type": "address"
        }
      ],
      "name": "isBeneficiary",
      "outputs": [
        {
          "internalType": "bool",
          "name": "",
          "type": "bool"
        }
      ],
      "stateMutability": "view",
      "type": "function"
    },
    {
      "inputs": [
        {
          "internalType": "uint256",
          "name": "id",
          "type": "uint256"
        }
      ],
      "name": "payContribution",
      "outputs": [],
      "stateMutability": "nonpayable",
      "type": "function"
    },
    {
      "inputs": [
        {
          "internalType": "uint256",
          "name": "id",
          "type": "uint256"
        },
        {
          "internalType": "address",
          "name": "participant",
          "type": "address"
        }
      ],
      "name": "payContributionOnBehalfOf",
      "outputs": [],
      "stateMutability": "nonpayable",
      "type": "function"
    },
    {
      "inputs": [
        {
          "internalType": "uint256",
          "name": "id",
          "type": "uint256"
        }
      ],
      "name": "startNewCycle",
      "outputs": [],
      "stateMutability": "nonpayable",
      "type": "function"
    },
    {
      "inputs": [
        {
          "internalType": "uint256",
          "name": "id",
          "type": "uint256"
        }
      ],
      "name": "toggleAutoPay",
      "outputs": [],
      "stateMutability": "nonpayable",
      "type": "function"
    },
    {
      "inputs": [
        {
          "internalType": "uint256",
          "name": "id",
          "type": "uint256"
        }
      ],
      "name": "withdrawFund",
      "outputs": [],
      "stateMutability": "nonpayable",
      "type": "function"
    }
  ],
  "transactionHash": "0x38cad8a27c4fb76fc727591506c7c9b70bd2c295d2bce1f23b8718573494868f",
  "args": [],
  "numDeployments": 1,
  "solcInputHash": "170280041a9111201cdb7b99d57489f8",
  "bytecode": "0x608060405234801561001057600080fd5b50612d58806100206000396000f3fe608060405234801561001057600080fd5b50600436106100b45760003560e01c80638443162911610071578063844316291461012d578063bd241d2014610140578063e412c44d14610153578063e9783e6014610166578063ea28b9bb1461018e578063f7af18f6146101a157600080fd5b80630cee1725146100b95780632009844b146100ce5780634b5c9c80146100e157806358733dec146100f4578063609a4970146101075780637be2ecea1461011a575b600080fd5b6100cc6100c73660046128ce565b6101b7565b005b6100cc6100dc3660046128ce565b6104bf565b6100cc6100ef3660046128ce565b610711565b6100cc6101023660046128ce565b6108ec565b6100cc6101153660046128ce565b610c76565b6100cc6101283660046128ce565b610c8d565b6100cc61013b3660046128fc565b610c99565b6100cc61014e3660046128ce565b610f1a565b6100cc6101613660046128ce565b611015565b6101796101743660046128fc565b61109a565b60405190151581526020015b60405180910390f35b6100cc61019c3660046128ce565b6110d7565b6101a9600281565b604051908152602001610185565b6000818152600080516020612ce3833981519152602090815260408083207f35fa70a6f9ae8a4d427ebe0c1be62ffd2870fecc1df41c6fda0bf5803e5628889092529091208154600490610100900460ff16818111156102195761021961292c565b1480610236575033600090815260068301602052604090205460ff165b6102875760405162461bcd60e51b815260206004820152601960248201527f596f75206d75737420626520612062656e65666963696172790000000000000060448201526064015b60405180910390fd5b336000908152600983016020908152604080832054600a8601835281842054600686019093529220549115159160ff90911690151582806102c55750815b806102cd5750805b61030f5760405162461bcd60e51b81526020600482015260136024820152724e6f7468696e6720746f20776974686472617760681b604482015260640161027e565b821561031f5761031f8633611178565b801561037d5760405163ae483d0760e01b815260048101879052336024820152309063ae483d0790604401600060405180830381600087803b15801561036457600080fd5b505af1158015610378573d6000803e3d6000fd5b505050505b81156104b7576000868152600080516020612d0383398151915260209081526040808320815161016081018352815460ff808216151583526101008083049091161515958301959095526201000090046001600160a01b03908116938201939093526001820154606082015260028201546080820152600382015460a0820152600482015460c0820152600582015460e08201526006820154938101939093526007810154610120840152600801541661014082015261043e908733611358565b905080156104ab5760405162461bcd60e51b815260206004820152603460248201527f4e656564206174206c6561737420312e3152434320636f6c6c61746572616c206044820152731d1bc81d5b999c9bde99481e5bdd5c88199d5b9960621b606482015260840161027e565b6104b58733611178565b505b505050505050565b6000600080516020612ce383398151915260008381526020919091526040808220905163d8f8e99160e01b815260048101859052909250309063d8f8e99190602401602060405180830381865afa15801561051e573d6000803e3d6000fd5b505050506040513d601f19601f820116820180604052508101906105429190612952565b905060018254610100900460ff1660048111156105615761056161292c565b1461057e5760405162461bcd60e51b815260040161027e9061296f565b33600090815260058301602052604090205460ff166105af5760405162461bcd60e51b815260040161027e90612994565b336001600160a01b038216036106015760405162461bcd60e51b815260206004820152601760248201527642656e656669636961727920646f65736e27742070617960481b604482015260640161027e565b33600090815260078301602052604090205460ff161561065c5760405162461bcd60e51b8152602060048201526016602482015275416c7265616479207061696420666f72206379636c6560501b604482015260640161027e565b60405163d7992e5b60e01b8152600481018490526001600160a01b0382166024820152309063d7992e5b90604401602060405180830381865afa1580156106a7573d6000803e3d6000fd5b505050506040513d601f19601f820116820180604052508101906106cb91906129bf565b156107015733600090815260068301602052604090205460ff166107015760405162461bcd60e51b815260040161027e906129e1565b61070c8333336114a8565b505050565b8061071b81611642565b6000828152600080516020612ce3833981519152602052604090208054600490610100900460ff16818111156107535761075361292c565b1480156107705750600381015461076d9062ed4e00612a42565b42115b6107ae5760405162461bcd60e51b815260206004820152600f60248201526e10d85b89dd08195b5c1d1e481e595d608a1b604482015260640161027e565b80546040516370a0823160e01b81523060048201526000916201000090046001600160a01b0316906370a0823190602401602060405180830381865afa1580156107fc573d6000803e3d6000fd5b505050506040513d601f19601f820116820180604052508101906108209190612a55565b905080156108e657815460405163a9059cbb60e01b8152336004820152602481018390526000916201000090046001600160a01b03169063a9059cbb906044016020604051808303816000875af115801561087f573d6000803e3d6000fd5b505050506040513d601f19601f820116820180604052508101906108a391906129bf565b9050806108e45760405162461bcd60e51b815260206004820152600f60248201526e151c985b9cd9995c8819985a5b1959608a1b604482015260640161027e565b505b50505050565b6000818152600080516020612ce383398151915260209081526040808320600080516020612d0383398151915290925290912060078101546002830154600484015461093a90600190612a6e565b83600501546109499190612a81565b6109539190612a42565b61095d9190612a42565b42116109ab5760405162461bcd60e51b815260206004820152601860248201527f5374696c6c2074696d6520746f20636f6e747269627574650000000000000000604482015260640161027e565b60018254610100900460ff1660048111156109c8576109c861292c565b146109e55760405162461bcd60e51b815260040161027e9061296f565b60405163d8f8e99160e01b815260048101849052600090309063d8f8e99190602401602060405180830381865afa158015610a24573d6000803e3d6000fd5b505050506040513d601f19601f82011682018060405250810190610a489190612952565b9050610a53846116c7565b610a5e846002611a40565b600083600101805480602002602001604051908101604052809291908181526020018280548015610ab857602002820191906000526020600020905b81546001600160a01b03168152600190910190602001808311610a9a575b505083519394506000925050505b81811015610c53576000838281518110610ae257610ae2612a98565b60200260200101519050846001600160a01b0316816001600160a01b031603610b0e5750600101610ac6565b6001600160a01b038116600090815260078801602052604090205460ff1615610b89576001600160a01b038116600090815260068801602052604090205460ff1615610b6757610b6187600d0182611b1a565b50610b76565b610b7487600b0182611b1a565b505b610b8387600f0182611b36565b50610c4a565b610b9687600f0182611b4b565b610c4a5760405163d7992e5b60e01b8152600481018990526001600160a01b0386166024820152309063d7992e5b90604401602060405180830381865afa158015610be5573d6000803e3d6000fd5b505050506040513d601f19601f82011682018060405250810190610c0991906129bf565b15610c40576001600160a01b038116600090815260068801602052604090205460ff1615610c3b57610c3b8882611b6d565b610c4a565b610c4a8882611b6d565b50600101610ac6565b50610c5e8585611c43565b84601301548560040154106104b7576104b78661200d565b80610c8081611642565b610c898261200d565b5050565b610c9681612086565b50565b6000600080516020612ce383398151915260008481526020919091526040808220905163d8f8e99160e01b815260048101869052909250309063d8f8e99190602401602060405180830381865afa158015610cf8573d6000803e3d6000fd5b505050506040513d601f19601f82011682018060405250810190610d1c9190612952565b905060018254610100900460ff166004811115610d3b57610d3b61292c565b14610d585760405162461bcd60e51b815260040161027e9061296f565b6001600160a01b038316600090815260058301602052604090205460ff16610d925760405162461bcd60e51b815260040161027e90612994565b826001600160a01b0316816001600160a01b031603610ded5760405162461bcd60e51b815260206004820152601760248201527642656e656669636961727920646f65736e27742070617960481b604482015260640161027e565b6001600160a01b038316600090815260078301602052604090205460ff1615610e515760405162461bcd60e51b8152602060048201526016602482015275416c7265616479207061696420666f72206379636c6560501b604482015260640161027e565b60405163d7992e5b60e01b8152600481018590526001600160a01b0382166024820152309063d7992e5b90604401602060405180830381865afa158015610e9c573d6000803e3d6000fd5b505050506040513d601f19601f82011682018060405250810190610ec091906129bf565b15610f0f576001600160a01b038316600090815260068301602052604090205460ff16610eff5760405162461bcd60e51b815260040161027e906129e1565b610f0a8433856114a8565b6108e6565b6108e68433856114a8565b6000818152600080516020612ce383398151915260205260408120600181015490915b81811015610fd557610f7b83600b01846001018381548110610f6157610f61612a98565b6000918252602090912001546001600160a01b0316611b1a565b506001836005016000856001018481548110610f9957610f99612a98565b6000918252602080832091909101546001600160a01b031683528201929092526040019020805460ff1916911515919091179055600101610f3d565b50610fdf83612086565b42600283015560405183907fc3bfb99b88687651f8e660492ae2ee62a50d40e4131ace07f88ed4639b3a4bc390600090a2505050565b8061101f81611642565b6000828152600080516020612ce3833981519152602052604090208054600290610100900460ff1660048111156110585761105861292c565b146110755760405162461bcd60e51b815260040161027e9061296f565b6000838152600080516020612d03833981519152602052604090206108e68282611c43565b6000828152600080516020612ce3833981519152602090815260408083206001600160a01b038516845260060190915290205460ff165b92915050565b6000818152600080516020612ce383398151915260209081526040808320338452600581019092529091205460ff166111225760405162461bcd60e51b815260040161027e90612994565b336000818152600883016020526040808220805460ff81161560ff199091168117909155905190928392909186917f8bd3cffd2d87eca262a8e2d638c1ff3d3b61c604208115af6295b089acaf72b991a4505050565b6000600080516020612ce38339815191526000848152602091825260408082203383526009810190935280822054835491516370a0823160e01b815230600482015293945092620100009091046001600160a01b0316906370a0823190602401602060405180830381865afa1580156111f5573d6000803e3d6000fd5b505050506040513d601f19601f820116820180604052508101906112199190612a55565b9050818110156112465760405163cf47918160e01b8152600481018290526024810183905260440161027e565b3360008181526009850160205260408082208290558554905163a9059cbb60e01b81526004810193909352602483018590529091620100009091046001600160a01b03169063a9059cbb906044016020604051808303816000875af11580156112b3573d6000803e3d6000fd5b505050506040513d601f19601f820116820180604052508101906112d791906129bf565b9050806113185760405162461bcd60e51b815260206004820152600f60248201526e151c985b9cd9995c8819985a5b1959608a1b604482015260640161027e565b5081846001600160a01b0316867f31b332de0dccb2d0ed351b3d65a9e10b099b3e3c63f4a6f5ea1810b4d757795c60405160405180910390a45050505050565b60808301805160009081527f35fa70a6f9ae8a4d427ebe0c1be62ffd2870fecc1df41c6fda0bf5803e56288860205260408082209251905163f0d826e760e01b815260048101919091529091908290309063f0d826e790602401602060405180830381865afa1580156113cf573d6000803e3d6000fd5b505050506040513d601f19601f820116820180604052508101906113f39190612a55565b90506000606461140483606e612a81565b61140e9190612aae565b6001600160a01b038616600090815260058501602052604090205490915081111561145d576001600160a01b0385166000908152600a870160205260409020805460ff19166001179055611480565b6001600160a01b0385166000908152600a870160205260409020805460ff191690555b505050506001600160a01b03166000908152600a91909101602052604090205460ff16919050565b6000838152600080516020612ce383398151915260209081526040808320600080516020612d0383398151915290925282206006810154919290916114f090620f4240612a81565b83546040516323b872dd60e01b81526001600160a01b0388811660048301523060248301526044820184905292935060009262010000909204909116906323b872dd906064016020604051808303816000875af1158015611555573d6000803e3d6000fd5b505050506040513d601f19601f8201168201806040525081019061157991906129bf565b9050806115e35760405162461bcd60e51b815260206004820152603260248201527f436f6e747269627574696f6e206661696c65642c2064696420796f7520617070604482015271726f766520737461626c6520746f6b656e3f60701b606482015260840161027e565b6001600160a01b0385166000818152600786016020526040808220805460ff19166001179055600487015490519092918a917fe1122b3cea22012386ebf236fc23dd8a783b91c046d5dec812901846464624ae9190a450505050505050565b6000818152600080516020612d0383398151915260205260409020546001600160a01b03610100909104163314610c965760405162461bcd60e51b8152602060048201526024808201527f5465726d4f776e61626c653a2063616c6c6572206973206e6f7420746865206f6044820152633bb732b960e11b606482015260840161027e565b6000818152600080516020612ce3833981519152602090815260408083207f35fa70a6f9ae8a4d427ebe0c1be62ffd2870fecc1df41c6fda0bf5803e5628888352818420825163d8f8e99160e01b8152600481018790529251919490939092309263d8f8e991926024808401939192918290030181865afa158015611750573d6000803e3d6000fd5b505050506040513d601f19601f820116820180604052508101906117749190612952565b90506000836001018054806020026020016040519081016040528092919081815260200182805480156117d057602002820191906000526020600020905b81546001600160a01b031681526001909101906020018083116117b2575b505083516001600160a01b038716600090815260058a0160205260409020549495509360ff16159250508115905061182357506001600160a01b038316600090815260048501602052604090205460ff16155b156119515760005b8181101561194b5785600801600084838151811061184b5761184b612a98565b6020908102919091018101516001600160a01b031682528101919091526040016000205460ff1680156118ba575085600701600084838151811061189157611891612a98565b6020908102919091018101516001600160a01b031682528101919091526040016000205460ff16155b801561190157508560060160008483815181106118d9576118d9612a98565b6020908102919091018101516001600160a01b031682528101919091526040016000205460ff165b15611943576119438784838151811061191c5761191c612a98565b602002602001015185848151811061193657611936612a98565b602002602001015161221c565b60010161182b565b506104b7565b60005b818110156104b55782818151811061196e5761196e612a98565b60200260200101516001600160a01b0316846001600160a01b03160361199657600101611954565b8560080160008483815181106119ae576119ae612a98565b6020908102919091018101516001600160a01b031682528101919091526040016000205460ff168015611a1d57508560070160008483815181106119f4576119f4612a98565b6020908102919091018101516001600160a01b031682528101919091526040016000205460ff16155b15611a3857611a388784838151811061191c5761191c612a98565b600101611954565b6000828152600080516020612ce3833981519152602052604090208054600490610100900460ff1681811115611a7857611a7861292c565b03611ab35760405162461bcd60e51b815260206004820152600b60248201526a119d5b990818db1bdcd95960aa1b604482015260640161027e565b80548290829061ff001916610100836004811115611ad357611ad361292c565b0217905550816004811115611aea57611aea61292c565b60405184907fecc339a9dbd454a10bb48d74b40c6ef6e3b22dfc541fc7c16d6114e5763a562890600090a3505050565b6000611b2f836001600160a01b03841661234c565b9392505050565b6000611b2f836001600160a01b03841661239b565b6001600160a01b03811660009081526001830160205260408120541515611b2f565b6000828152600080516020612ce38339815191526020526040812090611b96600b830184611b36565b905080611bad57611baa82600d0184611b36565b90505b80611bf35760405162461bcd60e51b815260206004820152601660248201527521b0b713ba103932b6b7bb32903232b330bab63a32b960511b604482015260640161027e565b611c0082600f0184611b1a565b50826001600160a01b03168260040154857f482c1cb26174abc97f4629d6f41ab133dbda268210ea1ced6c07c27857469a0360405160405180910390a450505050565b600281015460405163d8f8e99160e01b8152600091309163d8f8e99191611c709160040190815260200190565b602060405180830381865afa158015611c8d573d6000803e3d6000fd5b505050506040513d601f19601f82011682018060405250810190611cb19190612952565b6012840180546001600160a01b0319166001600160a01b03831617905590506000611cde600f850161248e565b1115611dea576000611cfc8484611cf787600f01612498565b6124a5565b6040516319738c7f60e31b8152909150600090309063cb9c63f890611d279087908690600401612b14565b6000604051808303816000875af1158015611d46573d6000803e3d6000fd5b505050506040513d6000823e601f3d908101601f19168201604052611d6e9190810190612bd7565b805190915060005b81811015611de55760006001600160a01b0316838281518110611d9b57611d9b612a98565b60200260200101516001600160a01b031603611db957600101611d76565b611ddd8787858481518110611dd057611dd0612a98565b6020026020010151612747565b600101611d76565b505050505b611df783600b0182611b36565b15611e0b57611e0983600d0182611b1a565b505b6001600160a01b03811660009081526006840160209081526040808320805460ff19166001908117909155860180548251818502810185019093528083528493830182828015611e8457602002820191906000526020600020905b81546001600160a01b03168152600190910190602001808311611e66575b505083519394506000925050505b81811015611ef457866007016000848381518110611eb257611eb2612a98565b6020908102919091018101516001600160a01b031682528101919091526040016000205460ff1615611eec5783611ee881612c9c565b9450505b600101611e92565b506040805161016081018252865460ff8082161515835261010080830490911615156020840152620100009091046001600160a01b03908116938301939093526001880154606083015260028801546080830152600388015460a0830152600488015460c0830152600588015460e083015260068801549082015260078701546101208201526008870154909116610140820152611f93908786611358565b50828560060154611fa49190612a81565b611fb190620f4240612a81565b6001600160a01b038516600081815260098901602052604080822093909355600288015492519192917f1f2267669c1e46109302869b7cd09b21fd5ac4d2da01a6bbc086c1fe7b997fa39190a36104b785600201546003611a40565b6000818152600080516020612ce383398151915260205260409020426003820155612039826004611a40565b6040516339007b7760e01b81526004810183905230906339007b7790602401600060405180830381600087803b15801561207257600080fd5b505af11580156104b7573d6000803e3d6000fd5b6000818152600080516020612ce383398151915260209081526040808320600080516020612d038339815191529092529091206002820154600483015460058301546120d29190612a81565b6120dc9190612a42565b421161212a5760405162461bcd60e51b815260206004820152601c60248201527f546f6f206561726c7920746f207374617274206e6577206379636c6500000000604482015260640161027e565b60008254610100900460ff1660048111156121475761214761292c565b148061216d575060038254610100900460ff16600481111561216b5761216b61292c565b145b6121895760405162461bcd60e51b815260040161027e9061296f565b816004016000815461219a90612c9c565b90915550600182015460005b818110156122075760008460070160008660010184815481106121cb576121cb612a98565b6000918252602080832091909101546001600160a01b031683528201929092526040019020805460ff19169115159190911790556001016121a6565b50612213846001611a40565b6108e6846116c7565b6000838152600080516020612ce383398151915260209081526040808320600080516020612d03833981519152909252822060068101549192909161226490620f4240612a81565b83546040516323b872dd60e01b81526001600160a01b0388811660048301523060248301526044820184905292935062010000909104909116906323b872dd906064016020604051808303816000875af19250505080156122e2575060408051601f3d908101601f191682019092526122df918101906129bf565b60015b156104b75780156104b5576001600160a01b0385166000818152600786016020526040808220805460ff19166001179055600487015490519092918a917fe1122b3cea22012386ebf236fc23dd8a783b91c046d5dec812901846464624ae9190a450505050505050565b6000818152600183016020526040812054612393575081546001818101845560008481526020808220909301849055845484825282860190935260409020919091556110d1565b5060006110d1565b600081815260018301602052604081205480156124845760006123bf600183612a6e565b85549091506000906123d390600190612a6e565b90508181146124385760008660000182815481106123f3576123f3612a98565b906000526020600020015490508087600001848154811061241657612416612a98565b6000918252602080832090910192909255918252600188019052604090208390555b855486908061244957612449612cb5565b6001900381819060005260206000200160009055905585600101600086815260200190815260200160002060009055600193505050506110d1565b60009150506110d1565b60006110d1825490565b60606000611b2f83612872565b60608060008560010180548060200260200160405190810160405280929190818152602001828054801561250257602002820191906000526020600020905b81546001600160a01b031681526001909101906020018083116124e4575b5050505060128801548251875160028a015460405163d7992e5b60e01b815260048101919091526001600160a01b039093166024840181905294955090925090600090309063d7992e5b90604401602060405180830381865afa15801561256d573d6000803e3d6000fd5b505050506040513d601f19601f8201168201806040525081019061259191906129bf565b156126a25760005b8381101561269c578a60060160008783815181106125b9576125b9612a98565b6020908102919091018101516001600160a01b031682528101919091526040016000205460ff161561269c5760005b838110156126935789818151811061260257612602612a98565b60200260200101516001600160a01b031687838151811061262557612625612a98565b60200260200101516001600160a01b03160361268b5789818151811061264d5761264d612a98565b602002602001015188848151811061266757612667612a98565b6001600160a01b039092166020928302919091019091015261268883612c9c565b92505b6001016125e8565b50600101612599565b50612739565b60005b8281101561273757846001600160a01b03168982815181106126c9576126c9612a98565b60200260200101516001600160a01b0316036126e7576001016126a5565b8881815181106126f9576126f9612a98565b602002602001015187838151811061271357612713612a98565b6001600160a01b0390921660209283029190910190910152600191820191016126a5565b505b509398975050505050505050565b6001600160a01b038116600090815260058401602052604090205460ff168015612779575061277983600f0182611b36565b6127bb5760405162461bcd60e51b8152602060048201526013602482015272115e1c195b1b185b9d081b9bdd08199bdd5b99606a1b604482015260640161027e565b6001600160a01b0381166000818152600585016020526040808220805460ff1916905560048601546002860154915190927f75072bae902443c91c7fe516bbb4da2a101e088aa10737ec2ecb7aa3beb023d191a4816004016000815461282090612ccb565b9091555060118301805460009061283690612c9c565b90915550600482015460028301546040517fe817db35ffcfd7ab4de59cd38a99d674f761815667cbc3241bebf20e7da1b6e890600090a3505050565b6060816000018054806020026020016040519081016040528092919081815260200182805480156128c257602002820191906000526020600020905b8154815260200190600101908083116128ae575b50505050509050919050565b6000602082840312156128e057600080fd5b5035919050565b6001600160a01b0381168114610c9657600080fd5b6000806040838503121561290f57600080fd5b823591506020830135612921816128e7565b809150509250929050565b634e487b7160e01b600052602160045260246000fd5b805161294d816128e7565b919050565b60006020828403121561296457600080fd5b8151611b2f816128e7565b6020808252600b908201526a57726f6e6720737461746560a81b604082015260600190565b602080825260119082015270139bdd0818481c185c9d1a58da5c185b9d607a1b604082015260600190565b6000602082840312156129d157600080fd5b81518015158114611b2f57600080fd5b6020808252602b908201527f4f6e6c792070726576696f75732062656e65666963696172696573207061797360408201526a2074686973206379636c6560a81b606082015260800190565b634e487b7160e01b600052601160045260246000fd5b808201808211156110d1576110d1612a2c565b600060208284031215612a6757600080fd5b5051919050565b818103818111156110d1576110d1612a2c565b80820281158282048414176110d1576110d1612a2c565b634e487b7160e01b600052603260045260246000fd5b600082612acb57634e487b7160e01b600052601260045260246000fd5b500490565b600081518084526020808501945080840160005b83811015612b095781516001600160a01b031687529582019590820190600101612ae4565b509495945050505050565b60006101808454612b298460ff831615159052565b612b3d6020850160ff8360081c1615159052565b60101c6001600160a01b0390811660408501526001860154606085015260028601546080850152600386015460a0850152600486015460c0850152600586015460e0850152600686015461010085015260078601546101208501526008860154166101408401526101608301819052612bb881840185612ad0565b95945050505050565b634e487b7160e01b600052604160045260246000fd5b60006020808385031215612bea57600080fd5b825167ffffffffffffffff80821115612c0257600080fd5b818501915085601f830112612c1657600080fd5b815181811115612c2857612c28612bc1565b8060051b604051601f19603f83011681018181108582111715612c4d57612c4d612bc1565b604052918252848201925083810185019188831115612c6b57600080fd5b938501935b82851015612c9057612c8185612942565b84529385019392850192612c70565b98975050505050505050565b600060018201612cae57612cae612a2c565b5060010190565b634e487b7160e01b600052603160045260246000fd5b600081612cda57612cda612a2c565b50600019019056fe6751f7e27cecf86d7136f5749c224248cae80a39fafb59f8f6bf12c52816307c87101b21d556417ad2b8e8f2700dbad90721d5d50a1f435f2dee0b9dc981ac8aa26469706673582212203378ae4fb5c2b41dcfc1996e31e186402e03c37a080e86ccdb645aec27b5a5ab64736f6c63430008120033",
  "devdoc": {
    "author": "Mohammed Haddouti",
    "details": "v3.0 (Diamond)",
    "errors": {
      "InsufficientBalance(uint256,uint256)": [
        {
          "params": {
            "available": "balance available.",
            "required": "requested amount to transfer."
          }
        }
      ]
    },
    "kind": "dev",
    "methods": {
      "awardBeneficiary(uint256)": {
        "details": "This shouldn't happen, but is here in case there's an edge-case we didn't take into account, can possibly be removed in the future",
        "params": {
          "id": "the id of the term"
        }
      },
      "closeFund(uint256)": {
        "params": {
          "id": "the id of the term"
        }
      },
      "closeFundingPeriod(uint256)": {
        "params": {
          "id": "the id of the term"
        }
      },
      "emptyFundAfterEnd(uint256)": {
        "params": {
          "id": "the id of the term"
        }
      },
      "initFund(uint256)": {
        "params": {
          "termId": "the id of the term"
        }
      },
      "isBeneficiary(uint256,address)": {
        "params": {
          "beneficiary": "the address of the participant to check",
          "id": "the id of the term"
        },
        "returns": {
          "_0": "true if the participant is a beneficiary"
        }
      },
      "payContribution(uint256)": {
        "params": {
          "id": "the id of the term"
        }
      },
      "payContributionOnBehalfOf(uint256,address)": {
        "params": {
          "id": "the id of the term",
          "participant": "the address the msg.sender is paying for, the address must be part of the fund"
        }
      },
      "startNewCycle(uint256)": {
        "params": {
          "id": "the id of the term"
        }
      },
      "toggleAutoPay(uint256)": {
        "params": {
          "id": "the id of the term"
        }
      },
      "withdrawFund(uint256)": {
        "details": "This follows the pull-over-push pattern.",
        "params": {
          "id": "the id of the term"
        }
      }
    },
    "title": "Takaturn Fund",
    "version": 1
  },
  "userdoc": {
    "errors": {
      "InsufficientBalance(uint256,uint256)": [
        {
          "notice": "Insufficient balance for transfer. Needed `required` but only `available` available."
        }
      ]
    },
    "kind": "user",
    "methods": {
      "awardBeneficiary(uint256)": {
        "notice": "Fallback function, if the internal call fails somehow and the state gets stuck, allow owner to call the function again manually"
      },
      "closeFund(uint256)": {
        "notice": "called by the owner to close the fund for emergency reasons."
      },
      "closeFundingPeriod(uint256)": {
        "notice": "Must be called at the end of the contribution period after the time has passed by the owner"
      },
      "emptyFundAfterEnd(uint256)": {
        "notice": "allow the owner to empty the fund if there's any excess fund left after 180 days,         this with the assumption that beneficiaries can't claim it themselves due to losing their keys for example,         and prevent the fund to be stuck in limbo"
      },
      "initFund(uint256)": {
        "notice": "called by the term to init the fund"
      },
      "payContribution(uint256)": {
        "notice": "This is the function participants call to pay the contribution"
      },
      "payContributionOnBehalfOf(uint256,address)": {
        "notice": "This function is here to give the possibility to pay using a different wallet"
      },
      "startNewCycle(uint256)": {
        "notice": "starts a new cycle manually called by the owner. Only the first cycle starts automatically upon deploy"
      },
      "toggleAutoPay(uint256)": {
        "notice": "function to enable/disable autopay"
      },
      "withdrawFund(uint256)": {
        "notice": "Called by the beneficiary to withdraw the fund"
      }
    },
    "notice": "This is used to operate the Takaturn fund",
    "version": 1
  },
  "storageLayout": {
    "storage": [],
    "types": null
  }
}