{
  "address": "0x7Da3E054DDf73071889A43ce22bcB714b6623dac",
  "abi": [
    {
      "inputs": [
        {
          "internalType": "uint256",
          "name": "available",
          "type": "uint256"
        },
        {
          "internalType": "uint256",
          "name": "required",
          "type": "uint256"
        }
      ],
      "name": "InsufficientBalance",
      "type": "error"
    },
    {
      "anonymous": false,
      "inputs": [
        {
          "indexed": true,
          "internalType": "uint256",
          "name": "termId",
          "type": "uint256"
        },
        {
          "indexed": true,
          "internalType": "address",
          "name": "participant",
          "type": "address"
        },
        {
          "indexed": true,
          "internalType": "bool",
          "name": "enabled",
          "type": "bool"
        }
      ],
      "name": "OnAutoPayToggled",
      "type": "event"
    },
    {
      "anonymous": false,
      "inputs": [
        {
          "indexed": true,
          "internalType": "uint256",
          "name": "termId",
          "type": "uint256"
        },
        {
          "indexed": true,
          "internalType": "address",
          "name": "beneficiary",
          "type": "address"
        }
      ],
      "name": "OnBeneficiaryAwarded",
      "type": "event"
    },
    {
      "anonymous": false,
      "inputs": [
        {
          "indexed": true,
          "internalType": "uint256",
          "name": "termId",
          "type": "uint256"
        },
        {
          "indexed": true,
          "internalType": "uint256",
          "name": "currentCycle",
          "type": "uint256"
        },
        {
          "indexed": true,
          "internalType": "address",
          "name": "expellant",
          "type": "address"
        }
      ],
      "name": "OnDefaulterExpelled",
      "type": "event"
    },
    {
      "anonymous": false,
      "inputs": [
        {
          "indexed": true,
          "internalType": "uint256",
          "name": "termId",
          "type": "uint256"
        },
        {
          "indexed": true,
          "internalType": "uint256",
          "name": "currentCycle",
          "type": "uint256"
        },
        {
          "indexed": true,
          "internalType": "enum LibFundStorage.FundStates",
          "name": "newState",
          "type": "uint8"
        }
      ],
      "name": "OnFundStateChanged",
      "type": "event"
    },
    {
      "anonymous": false,
      "inputs": [
        {
          "indexed": true,
          "internalType": "uint256",
          "name": "termId",
          "type": "uint256"
        },
        {
          "indexed": true,
          "internalType": "address",
          "name": "claimant",
          "type": "address"
        },
        {
          "indexed": true,
          "internalType": "uint256",
          "name": "amount",
          "type": "uint256"
        }
      ],
      "name": "OnFundWithdrawn",
      "type": "event"
    },
    {
      "anonymous": false,
      "inputs": [
        {
          "indexed": true,
          "internalType": "uint256",
          "name": "termId",
          "type": "uint256"
        },
        {
          "indexed": true,
          "internalType": "address",
          "name": "payer",
          "type": "address"
        },
        {
          "indexed": true,
          "internalType": "uint256",
          "name": "currentCycle",
          "type": "uint256"
        }
      ],
      "name": "OnPaidContribution",
      "type": "event"
    },
    {
      "anonymous": false,
      "inputs": [
        {
          "indexed": true,
          "internalType": "uint256",
          "name": "termId",
          "type": "uint256"
        },
        {
          "indexed": true,
          "internalType": "uint256",
          "name": "currentCycle",
          "type": "uint256"
        },
        {
          "indexed": true,
          "internalType": "address",
          "name": "defaulter",
          "type": "address"
        }
      ],
      "name": "OnParticipantDefaulted",
      "type": "event"
    },
    {
      "inputs": [],
      "name": "FUND_VERSION",
      "outputs": [
        {
          "internalType": "uint256",
          "name": "",
          "type": "uint256"
        }
      ],
      "stateMutability": "view",
      "type": "function"
    },
    {
      "inputs": [
        {
          "internalType": "uint256",
          "name": "termId",
          "type": "uint256"
        }
      ],
      "name": "closeFundingPeriod",
      "outputs": [],
      "stateMutability": "nonpayable",
      "type": "function"
    },
    {
      "inputs": [
        {
          "internalType": "uint256",
          "name": "termId",
          "type": "uint256"
        }
      ],
      "name": "emptyFundAfterEnd",
      "outputs": [],
      "stateMutability": "nonpayable",
      "type": "function"
    },
    {
      "inputs": [
        {
          "internalType": "uint256",
          "name": "termId",
          "type": "uint256"
        },
        {
          "internalType": "address",
          "name": "beneficiary",
          "type": "address"
        }
      ],
      "name": "isBeneficiary",
      "outputs": [
        {
          "internalType": "bool",
          "name": "",
          "type": "bool"
        }
      ],
      "stateMutability": "view",
      "type": "function"
    },
    {
      "inputs": [
        {
          "internalType": "uint256",
          "name": "termId",
          "type": "uint256"
        }
      ],
      "name": "payContribution",
      "outputs": [],
      "stateMutability": "nonpayable",
      "type": "function"
    },
    {
      "inputs": [
        {
          "internalType": "uint256",
          "name": "termId",
          "type": "uint256"
        },
        {
          "internalType": "address",
          "name": "participant",
          "type": "address"
        }
      ],
      "name": "payContributionOnBehalfOf",
      "outputs": [],
      "stateMutability": "nonpayable",
      "type": "function"
    },
    {
      "inputs": [
        {
          "internalType": "uint256",
          "name": "termId",
          "type": "uint256"
        }
      ],
      "name": "startNewCycle",
      "outputs": [],
      "stateMutability": "nonpayable",
      "type": "function"
    },
    {
      "inputs": [
        {
          "internalType": "uint256",
          "name": "termId",
          "type": "uint256"
        }
      ],
      "name": "toggleAutoPay",
      "outputs": [],
      "stateMutability": "nonpayable",
      "type": "function"
    },
    {
      "inputs": [
        {
          "internalType": "uint256",
          "name": "termId",
          "type": "uint256"
        }
      ],
      "name": "withdrawFund",
      "outputs": [],
      "stateMutability": "nonpayable",
      "type": "function"
    }
  ],
  "transactionHash": "0x992ce9bac07b10a5a0c1784e594d2b4c652b89a06b93f7b9321f859b1076f19e",
  "args": [],
  "numDeployments": 6,
  "solcInputHash": "547ed487077baaa27d0cf9646aec8b31",
  "bytecode": "0x608060405234801561001057600080fd5b506127e3806100206000396000f3fe608060405234801561001057600080fd5b50600436106100935760003560e01c80637be2ecea116100665780637be2ecea146100e657806384431629146100f9578063e9783e601461010c578063ea28b9bb14610134578063f7af18f61461014757600080fd5b80630cee1725146100985780632009844b146100ad5780634b5c9c80146100c057806358733dec146100d3575b600080fd5b6100ab6100a636600461236c565b61015d565b005b6100ab6100bb36600461236c565b6104a7565b6100ab6100ce36600461236c565b6106b9565b6100ab6100e136600461236c565b610911565b6100ab6100f436600461236c565b610cd2565b6100ab61010736600461239a565b610cde565b61011f61011a36600461239a565b610f15565b60405190151581526020015b60405180910390f35b6100ab61014236600461236c565b610f52565b61014f600281565b60405190815260200161012b565b600081815260008051602061276e833981519152602090815260408083207f35fa70a6f9ae8a4d427ebe0c1be62ffd2870fecc1df41c6fda0bf5803e5628889092529091208154600490610100900460ff16818111156101bf576101bf6123ca565b14806101dc575033600090815260068301602052604090205460ff165b61022d5760405162461bcd60e51b815260206004820152601960248201527f596f75206d75737420626520612062656e65666963696172790000000000000060448201526064015b60405180910390fd5b336000908152600983016020908152604080832054600a8601835281842054600686019093529220549115159160ff909116901515828061026b5750815b806102735750805b6102b55760405162461bcd60e51b81526020600482015260136024820152724e6f7468696e6720746f20776974686472617760681b6044820152606401610224565b82156102c5576102c58633611049565b80156103235760405163ae483d0760e01b815260048101879052336024820152309063ae483d0790604401600060405180830381600087803b15801561030a57600080fd5b505af115801561031e573d6000803e3d6000fd5b505050505b811561049f57600086815260008051602061278e8339815191526020908152604080832081516101608101909252805460ff8082161515845261040394840191610100900416600381111561037a5761037a6123ca565b600381111561038b5761038b6123ca565b815281546001600160a01b036201000090910481166020830152600183015460408301526002830154606083015260038301546080830152600483015460a0830152600583015460c0830152600683015460e0830152600783015461010083015260089092015490911661012090910152873361122f565b905060048654610100900460ff166004811115610422576104226123ca565b146104935780156104935760405162461bcd60e51b815260206004820152603560248201527f4e656564206174206c6561737420312e3152434320636f6c6c61746572616c206044820152741d1bc81d5b999c99595e99481e5bdd5c88199d5b99605a1b6064820152608401610224565b61049d8733611049565b505b505050505050565b600060008051602061276e83398151915260008381526020919091526040808220905163d8f8e99160e01b815260048101859052909250309063d8f8e99190602401602060405180830381865afa158015610506573d6000803e3d6000fd5b505050506040513d601f19601f8201168201806040525081019061052a91906123f0565b905060018254610100900460ff166004811115610549576105496123ca565b146105665760405162461bcd60e51b81526004016102249061240d565b33600090815260058301602052604090205460ff166105bb5760405162461bcd60e51b8152602060048201526011602482015270139bdd0818481c185c9d1a58da5c185b9d607a1b6044820152606401610224565b336001600160a01b0382160361060d5760405162461bcd60e51b815260206004820152601760248201527642656e656669636961727920646f65736e27742070617960481b6044820152606401610224565b33600090815260078301602052604090205460ff16156106685760405162461bcd60e51b8152602060048201526016602482015275416c7265616479207061696420666f72206379636c6560501b6044820152606401610224565b60048201546000908152600c83016020908152604080832033845290915290205460ff16156106a95760405162461bcd60e51b815260040161022490612432565b6106b483333361137f565b505050565b806106c381611519565b600082815260008051602061276e833981519152602052604090208054600490610100900460ff16818111156106fb576106fb6123ca565b148015610718575060038101546107159062ed4e0061248a565b42115b6107565760405162461bcd60e51b815260206004820152600f60248201526e10d85b89dd08195b5c1d1e481e595d608a1b6044820152606401610224565b6001810154600090815b818110156108475760008460090160008660010184815481106107855761078561249d565b60009182526020808320909101546001600160a01b03168352820192909252604001902054111561083f578360090160008560010183815481106107cb576107cb61249d565b60009182526020808320909101546001600160a01b031683528201929092526040019020546107fa908461248a565b925060008460090160008660010184815481106108195761081961249d565b60009182526020808320909101546001600160a01b031683528201929092526040019020555b600101610760565b50811561090a57825460405163a9059cbb60e01b8152336004820152602481018490526000916201000090046001600160a01b03169063a9059cbb906044016020604051808303816000875af11580156108a5573d6000803e3d6000fd5b505050506040513d601f19601f820116820180604052508101906108c991906124b3565b90508061049f5760405162461bcd60e51b815260206004820152600f60248201526e151c985b9cd9995c8819985a5b1959608a1b6044820152606401610224565b5050505050565b600081815260008051602061276e8339815191526020908152604080832060008051602061278e83398151915290925290912060078101546002830154600484015461095f906001906124d5565b836005015461096e91906124e8565b610978919061248a565b610982919061248a565b42116109d05760405162461bcd60e51b815260206004820152601860248201527f5374696c6c2074696d6520746f20636f6e7472696275746500000000000000006044820152606401610224565b60018254610100900460ff1660048111156109ed576109ed6123ca565b14610a0a5760405162461bcd60e51b81526004016102249061240d565b60405163d8f8e99160e01b815260048101849052600090309063d8f8e99190602401602060405180830381865afa158015610a49573d6000803e3d6000fd5b505050506040513d601f19601f82011682018060405250810190610a6d91906123f0565b9050610a788461159f565b610a83846002611768565b600083600101805480602002602001604051908101604052809291908181526020018280548015610add57602002820191906000526020600020905b81546001600160a01b03168152600190910190602001808311610abf575b50508351600489015494955093925060009150505b82811015610caf576000848281518110610b0e57610b0e61249d565b60200260200101519050856001600160a01b0316816001600160a01b03161480610b5c57506000838152600c8901602090815260408083206001600160a01b038516845290915290205460ff165b15610b6a5750600101610af2565b6001600160a01b038116600090815260078901602052604090205460ff1615610be5576001600160a01b038116600090815260068901602052604090205460ff1615610bc357610bbd88600f0182611847565b50610bd2565b610bd088600d0182611847565b505b610bdf8860110182611863565b50610ca6565b610bf28860110182611878565b610ca65760405163d7992e5b60e01b8152600481018a90526001600160a01b0387166024820152309063d7992e5b90604401602060405180830381865afa158015610c41573d6000803e3d6000fd5b505050506040513d601f19601f82011682018060405250810190610c6591906124b3565b15610c9c576001600160a01b038116600090815260068901602052604090205460ff1615610c9757610c97898261189a565b610ca6565b610ca6898261189a565b50600101610af2565b50610cba8686611970565b856014015486600401541061049d5761049d87611d4c565b610cdb81611dea565b50565b600060008051602061276e83398151915260008481526020919091526040808220905163d8f8e99160e01b815260048101869052909250309063d8f8e99190602401602060405180830381865afa158015610d3d573d6000803e3d6000fd5b505050506040513d601f19601f82011682018060405250810190610d6191906123f0565b905060018254610100900460ff166004811115610d8057610d806123ca565b14610d9d5760405162461bcd60e51b81526004016102249061240d565b6001600160a01b038316600090815260058301602052604090205460ff16610dfb5760405162461bcd60e51b8152602060048201526011602482015270139bdd0818481c185c9d1a58da5c185b9d607a1b6044820152606401610224565b826001600160a01b0316816001600160a01b031603610e565760405162461bcd60e51b815260206004820152601760248201527642656e656669636961727920646f65736e27742070617960481b6044820152606401610224565b6001600160a01b038316600090815260078301602052604090205460ff1615610eba5760405162461bcd60e51b8152602060048201526016602482015275416c7265616479207061696420666f72206379636c6560501b6044820152606401610224565b60048201546000908152600c8301602090815260408083206001600160a01b038716845290915290205460ff1615610f045760405162461bcd60e51b815260040161022490612432565b610f0f84338561137f565b50505050565b600082815260008051602061276e833981519152602090815260408083206001600160a01b038516845260060190915290205460ff165b92915050565b60008181527f35fa70a6f9ae8a4d427ebe0c1be62ffd2870fecc1df41c6fda0bf5803e5628886020908152604080832060008051602061276e83398151915283528184203385526004820190935292205460ff16610ff25760405162461bcd60e51b815260206004820152601d60248201527f50617920636f6c6c61746572616c2073656375726974792066697273740000006044820152606401610224565b336000818152600883016020526040808220805460ff81161560ff199091168117909155905190928392909187917f8bd3cffd2d87eca262a8e2d638c1ff3d3b61c604208115af6295b089acaf72b991a450505050565b600060008051602061276e8339815191526000848152602091825260408082206001600160a01b0386811684526009820190945281832054815492516370a0823160e01b81523060048201529195509362010000909204909116906370a0823190602401602060405180830381865afa1580156110ca573d6000803e3d6000fd5b505050506040513d601f19601f820116820180604052508101906110ee91906124ff565b90508181101561111b5760405163cf47918160e01b81526004810182905260248101839052604401610224565b6001600160a01b0384811660008181526009860160205260408082208290558654905163a9059cbb60e01b8152600481019390935260248301869052909262010000909104169063a9059cbb906044016020604051808303816000875af115801561118a573d6000803e3d6000fd5b505050506040513d601f19601f820116820180604052508101906111ae91906124b3565b9050806111ef5760405162461bcd60e51b815260206004820152600f60248201526e151c985b9cd9995c8819985a5b1959608a1b6044820152606401610224565b5081846001600160a01b0316867f31b332de0dccb2d0ed351b3d65a9e10b099b3e3c63f4a6f5ea1810b4d757795c60405160405180910390a45050505050565b60808301805160009081527f35fa70a6f9ae8a4d427ebe0c1be62ffd2870fecc1df41c6fda0bf5803e56288860205260408082209251905163f0d826e760e01b815260048101919091529091908290309063f0d826e790602401602060405180830381865afa1580156112a6573d6000803e3d6000fd5b505050506040513d601f19601f820116820180604052508101906112ca91906124ff565b9050600060646112db83606e6124e8565b6112e59190612518565b6001600160a01b0386166000908152600585016020526040902054909150811115611334576001600160a01b0385166000908152600a870160205260409020805460ff19166001179055611357565b6001600160a01b0385166000908152600a870160205260409020805460ff191690555b505050506001600160a01b03166000908152600a91909101602052604090205460ff16919050565b600083815260008051602061276e8339815191526020908152604080832060008051602061278e83398151915290925282206006810154919290916113c790620f42406124e8565b83546040516323b872dd60e01b81526001600160a01b0388811660048301523060248301526044820184905292935060009262010000909204909116906323b872dd906064016020604051808303816000875af115801561142c573d6000803e3d6000fd5b505050506040513d601f19601f8201168201806040525081019061145091906124b3565b9050806114ba5760405162461bcd60e51b815260206004820152603260248201527f436f6e747269627574696f6e206661696c65642c2064696420796f7520617070604482015271726f766520737461626c6520746f6b656e3f60701b6064820152608401610224565b6001600160a01b0385166000818152600786016020526040808220805460ff19166001179055600487015490519092918a917fe1122b3cea22012386ebf236fc23dd8a783b91c046d5dec812901846464624ae9190a450505050505050565b600081815260008051602061278e83398151915260205260409020546001600160a01b0362010000909104163314610cdb5760405162461bcd60e51b8152602060048201526024808201527f5465726d4f776e61626c653a2063616c6c6572206973206e6f7420746865206f6044820152633bb732b960e11b6064820152608401610224565b600060008051602061276e83398151915260008381526020919091526040808220905163d8f8e99160e01b815260048101859052909250309063d8f8e99190602401602060405180830381865afa1580156115fe573d6000803e3d6000fd5b505050506040513d601f19601f8201168201806040525081019061162291906123f0565b905060008260010180548060200260200160405190810160405280929190818152602001828054801561167e57602002820191906000526020600020905b81546001600160a01b03168152600190910190602001808311611660575b505083519394506000925050505b8181101561049f5760008382815181106116a8576116a861249d565b60200260200101519050806001600160a01b0316856001600160a01b0316036116d4575060010161168c565b6001600160a01b038116600090815260088701602052604090205460ff16801561171957506001600160a01b038116600090815260078701602052604090205460ff16155b801561174f575060048601546000908152600c8701602090815260408083206001600160a01b038516845290915290205460ff16155b1561175f5761175f878283611f80565b5060010161168c565b600082815260008051602061276e833981519152602052604090208054600490610100900460ff16818111156117a0576117a06123ca565b036117db5760405162461bcd60e51b815260206004820152600b60248201526a119d5b990818db1bdcd95960aa1b6044820152606401610224565b80548290829061ff0019166101008360048111156117fb576117fb6123ca565b0217905550816004811115611812576118126123ca565b600482015460405185907fe515107ce875160b9ed93bfd1367820d3ffbf412cd63d05140f6bc5535b51de390600090a4505050565b600061185c836001600160a01b0384166120b0565b9392505050565b600061185c836001600160a01b0384166120ff565b6001600160a01b0381166000908152600183016020526040812054151561185c565b600082815260008051602061276e83398151915260205260408120906118c3600d830184611863565b9050806118da576118d782600f0184611863565b90505b806119205760405162461bcd60e51b815260206004820152601660248201527521b0b713ba103932b6b7bb32903232b330bab63a32b960511b6044820152606401610224565b61192d8260110184611847565b50826001600160a01b03168260040154857f482c1cb26174abc97f4629d6f41ab133dbda268210ea1ced6c07c27857469a0360405160405180910390a450505050565b600281015460405163d8f8e99160e01b8152600091309163d8f8e9919161199d9160040190815260200190565b602060405180830381865afa1580156119ba573d6000803e3d6000fd5b505050506040513d601f19601f820116820180604052508101906119de91906123f0565b905060006119ee846011016121f2565b1115611ae857600030632081c1af84611a09601188016121fc565b6040518363ffffffff1660e01b8152600401611a269291906125a0565b6000604051808303816000875af1158015611a45573d6000803e3d6000fd5b505050506040513d6000823e601f3d908101601f19168201604052611a6d9190810190612662565b805190915060005b81811015611ae45760006001600160a01b0316838281518110611a9a57611a9a61249d565b60200260200101516001600160a01b031603611ab857600101611a75565b611adc8686858481518110611acf57611acf61249d565b6020026020010151612209565b600101611a75565b5050505b611af583600d0182611863565b15611b0957611b0783600f0182611847565b505b6001600160a01b03811660009081526006840160209081526040808320805460ff19166001908117909155860180548251818502810185019093528083528493830182828015611b8257602002820191906000526020600020905b81546001600160a01b03168152600190910190602001808311611b64575b505083519394506000925050505b81811015611bf257866007016000848381518110611bb057611bb061249d565b6020908102919091018101516001600160a01b031682528101919091526040016000205460ff1615611bea5783611be681612727565b9450505b600101611b90565b50604080516101608101909152855460ff80821615158352611cb69291889160208401916101009004166003811115611c2d57611c2d6123ca565b6003811115611c3e57611c3e6123ca565b815281546001600160a01b036201000090910481166020830152600183015460408301526002830154606083015260038301546080830152600483015460a0830152600583015460c0830152600683015460e0830152600783015461010083015260089092015490911661012090910152878661122f565b50828560060154611cc791906124e8565b611cd490620f42406124e8565b6001600160a01b038516600090815260098801602052604081208054909190611cfe90849061248a565b909155505060028501546040516001600160a01b03861691907f1f2267669c1e46109302869b7cd09b21fd5ac4d2da01a6bbc086c1fe7b997fa390600090a361049f85600201546003611768565b600081815260008051602061276e8339815191526020908152604080832060008051602061278e833981519152909252909120426003830155805461ff001916610300178155611d9d836004611768565b6040516339007b7760e01b81526004810184905230906339007b7790602401600060405180830381600087803b158015611dd657600080fd5b505af115801561049d573d6000803e3d6000fd5b600081815260008051602061276e8339815191526020908152604080832060008051602061278e833981519152909252909120600282015460048301546005830154611e3691906124e8565b611e40919061248a565b4211611e8e5760405162461bcd60e51b815260206004820152601c60248201527f546f6f206561726c7920746f207374617274206e6577206379636c65000000006044820152606401610224565b60008254610100900460ff166004811115611eab57611eab6123ca565b1480611ed1575060038254610100900460ff166004811115611ecf57611ecf6123ca565b145b611eed5760405162461bcd60e51b81526004016102249061240d565b8160040160008154611efe90612727565b90915550600182015460005b81811015611f6b576000846007016000866001018481548110611f2f57611f2f61249d565b6000918252602080832091909101546001600160a01b031683528201929092526040019020805460ff1916911515919091179055600101611f0a565b50611f77846001611768565b610f0f8461159f565b600083815260008051602061276e8339815191526020908152604080832060008051602061278e8339815191529092528220600681015491929091611fc890620f42406124e8565b83546040516323b872dd60e01b81526001600160a01b0388811660048301523060248301526044820184905292935062010000909104909116906323b872dd906064016020604051808303816000875af1925050508015612046575060408051601f3d908101601f19168201909252612043918101906124b3565b60015b1561049f57801561049d576001600160a01b0385166000818152600786016020526040808220805460ff19166001179055600487015490519092918a917fe1122b3cea22012386ebf236fc23dd8a783b91c046d5dec812901846464624ae9190a450505050505050565b60008181526001830160205260408120546120f757508154600181810184556000848152602080822090930184905584548482528286019093526040902091909155610f4c565b506000610f4c565b600081815260018301602052604081205480156121e85760006121236001836124d5565b8554909150600090612137906001906124d5565b905081811461219c5760008660000182815481106121575761215761249d565b906000526020600020015490508087600001848154811061217a5761217a61249d565b6000918252602080832090910192909255918252600188019052604090208390555b85548690806121ad576121ad612740565b600190038181906000526020600020016000905590558560010160008681526020019081526020016000206000905560019350505050610f4c565b6000915050610f4c565b6000610f4c825490565b6060600061185c83612310565b6001600160a01b038116600090815260058401602052604090205460ff16801561223b575061223b8360110182611863565b61227d5760405162461bcd60e51b8152602060048201526013602482015272115e1c195b1b185b9d081b9bdd08199bdd5b99606a1b6044820152606401610224565b6001600160a01b03811660009081526005840160205260408120805460ff191690556004830180549091906122b190612756565b909155506013830180546000906122c790612727565b90915550600483015460028301546040516001600160a01b0384169291907f75072bae902443c91c7fe516bbb4da2a101e088aa10737ec2ecb7aa3beb023d190600090a4505050565b60608160000180548060200260200160405190810160405280929190818152602001828054801561236057602002820191906000526020600020905b81548152602001906001019080831161234c575b50505050509050919050565b60006020828403121561237e57600080fd5b5035919050565b6001600160a01b0381168114610cdb57600080fd5b600080604083850312156123ad57600080fd5b8235915060208301356123bf81612385565b809150509250929050565b634e487b7160e01b600052602160045260246000fd5b80516123eb81612385565b919050565b60006020828403121561240257600080fd5b815161185c81612385565b6020808252600b908201526a57726f6e6720737461746560a81b604082015260600190565b60208082526022908201527f5061727469636970616e74206973206578656d707465642074686973206379636040820152616c6560f01b606082015260800190565b634e487b7160e01b600052601160045260246000fd5b80820180821115610f4c57610f4c612474565b634e487b7160e01b600052603260045260246000fd5b6000602082840312156124c557600080fd5b8151801515811461185c57600080fd5b81810381811115610f4c57610f4c612474565b8082028115828204841417610f4c57610f4c612474565b60006020828403121561251157600080fd5b5051919050565b60008261253557634e487b7160e01b600052601260045260246000fd5b500490565b6004811061255857634e487b7160e01b600052602160045260246000fd5b9052565b600081518084526020808501945080840160005b838110156125955781516001600160a01b031687529582019590820190600101612570565b509495945050505050565b600061018084546125b58460ff831615159052565b6125c86020850160ff8360081c1661253a565b60101c6001600160a01b0390811660408501526001860154606085015260028601546080850152600386015460a0850152600486015460c0850152600586015460e08501526006860154610100850152600786015461012085015260088601541661014084015261016083018190526126438184018561255c565b95945050505050565b634e487b7160e01b600052604160045260246000fd5b6000602080838503121561267557600080fd5b825167ffffffffffffffff8082111561268d57600080fd5b818501915085601f8301126126a157600080fd5b8151818111156126b3576126b361264c565b8060051b604051601f19603f830116810181811085821117156126d8576126d861264c565b6040529182528482019250838101850191888311156126f657600080fd5b938501935b8285101561271b5761270c856123e0565b845293850193928501926126fb565b98975050505050505050565b60006001820161273957612739612474565b5060010190565b634e487b7160e01b600052603160045260246000fd5b60008161276557612765612474565b50600019019056fe6751f7e27cecf86d7136f5749c224248cae80a39fafb59f8f6bf12c52816307c87101b21d556417ad2b8e8f2700dbad90721d5d50a1f435f2dee0b9dc981ac8aa26469706673582212202356159e32b8144e8dc9fe08e1f2ca55c7c91d179797d23866d5f8088f09d47764736f6c63430008120033",
  "devdoc": {
    "author": "Mohammed Haddouti",
    "details": "v3.0 (Diamond)",
    "errors": {
      "InsufficientBalance(uint256,uint256)": [
        {
          "params": {
            "available": "balance available.",
            "required": "requested amount to transfer."
          }
        }
      ]
    },
    "kind": "dev",
    "methods": {
      "closeFundingPeriod(uint256)": {
        "params": {
          "termId": "the id of the term"
        }
      },
      "emptyFundAfterEnd(uint256)": {
        "params": {
          "termId": "the id of the term"
        }
      },
      "isBeneficiary(uint256,address)": {
        "params": {
          "beneficiary": "the address of the participant to check",
          "termId": "the id of the term"
        },
        "returns": {
          "_0": "true if the participant is a beneficiary"
        }
      },
      "payContribution(uint256)": {
        "params": {
          "termId": "the id of the term"
        }
      },
      "payContributionOnBehalfOf(uint256,address)": {
        "params": {
          "participant": "the address the msg.sender is paying for, the address must be part of the fund",
          "termId": "the id of the term"
        }
      },
      "startNewCycle(uint256)": {
        "params": {
          "termId": "the id of the term"
        }
      },
      "toggleAutoPay(uint256)": {
        "params": {
          "termId": "the id of the term"
        }
      },
      "withdrawFund(uint256)": {
        "details": "This follows the pull-over-push pattern.",
        "params": {
          "termId": "the id of the term"
        }
      }
    },
    "title": "Takaturn Fund",
    "version": 1
  },
  "userdoc": {
    "errors": {
      "InsufficientBalance(uint256,uint256)": [
        {
          "notice": "Insufficient balance for transfer. Needed `required` but only `available` available."
        }
      ]
    },
    "kind": "user",
    "methods": {
      "closeFundingPeriod(uint256)": {
        "notice": "Must be called at the end of the contribution period after the time has passed by the owner"
      },
      "emptyFundAfterEnd(uint256)": {
        "notice": "allow the owner to empty the fund if there's any excess fund left after 180 days,         this with the assumption that beneficiaries can't claim it themselves due to losing their keys for example,         and prevent the fund to be stuck in limbo"
      },
      "payContribution(uint256)": {
        "notice": "This is the function participants call to pay the contribution"
      },
      "payContributionOnBehalfOf(uint256,address)": {
        "notice": "This function is here to give the possibility to pay using a different wallet"
      },
      "startNewCycle(uint256)": {
        "notice": "starts a new cycle manually called by the owner. Only the first cycle starts automatically upon deploy"
      },
      "toggleAutoPay(uint256)": {
        "notice": "function to enable/disable autopay"
      },
      "withdrawFund(uint256)": {
        "notice": "Called by the beneficiary to withdraw the fund"
      }
    },
    "notice": "This is used to operate the Takaturn fund",
    "version": 1
  },
  "storageLayout": {
    "storage": [],
    "types": null
  }
}