{
  "address": "0x4E7C754D0A5B5403DC530B91762076d1C403D8c6",
  "abi": [
    {
      "inputs": [
        {
          "internalType": "address",
          "name": "participant",
          "type": "address"
        }
      ],
      "name": "getAllJoinedTerms",
      "outputs": [
        {
          "internalType": "uint256[]",
          "name": "",
          "type": "uint256[]"
        }
      ],
      "stateMutability": "view",
      "type": "function"
    },
    {
      "inputs": [
        {
          "internalType": "uint256",
          "name": "termId",
          "type": "uint256"
        }
      ],
      "name": "getCollateralSummary",
      "outputs": [
        {
          "internalType": "bool",
          "name": "",
          "type": "bool"
        },
        {
          "internalType": "enum LibCollateralV2.CollateralStates",
          "name": "",
          "type": "uint8"
        },
        {
          "internalType": "uint256",
          "name": "",
          "type": "uint256"
        },
        {
          "internalType": "uint256",
          "name": "",
          "type": "uint256"
        },
        {
          "internalType": "address[]",
          "name": "",
          "type": "address[]"
        }
      ],
      "stateMutability": "view",
      "type": "function"
    },
    {
      "inputs": [
        {
          "internalType": "uint256",
          "name": "termId",
          "type": "uint256"
        }
      ],
      "name": "getCurrentBeneficiary",
      "outputs": [
        {
          "internalType": "address",
          "name": "",
          "type": "address"
        }
      ],
      "stateMutability": "view",
      "type": "function"
    },
    {
      "inputs": [
        {
          "internalType": "address",
          "name": "depositor",
          "type": "address"
        },
        {
          "internalType": "uint256",
          "name": "termId",
          "type": "uint256"
        }
      ],
      "name": "getDepositorCollateralSummary",
      "outputs": [
        {
          "internalType": "bool",
          "name": "",
          "type": "bool"
        },
        {
          "internalType": "uint256",
          "name": "",
          "type": "uint256"
        },
        {
          "internalType": "uint256",
          "name": "",
          "type": "uint256"
        },
        {
          "internalType": "uint256",
          "name": "",
          "type": "uint256"
        }
      ],
      "stateMutability": "view",
      "type": "function"
    },
    {
      "inputs": [
        {
          "internalType": "address",
          "name": "participant",
          "type": "address"
        }
      ],
      "name": "getExpelledTerms",
      "outputs": [
        {
          "internalType": "uint256[]",
          "name": "",
          "type": "uint256[]"
        }
      ],
      "stateMutability": "view",
      "type": "function"
    },
    {
      "inputs": [
        {
          "internalType": "uint256",
          "name": "termId",
          "type": "uint256"
        }
      ],
      "name": "getFundSummary",
      "outputs": [
        {
          "internalType": "bool",
          "name": "",
          "type": "bool"
        },
        {
          "internalType": "enum LibFundV2.FundStates",
          "name": "",
          "type": "uint8"
        },
        {
          "internalType": "contract IERC20",
          "name": "",
          "type": "address"
        },
        {
          "internalType": "address[]",
          "name": "",
          "type": "address[]"
        },
        {
          "internalType": "uint256",
          "name": "",
          "type": "uint256"
        },
        {
          "internalType": "uint256",
          "name": "",
          "type": "uint256"
        },
        {
          "internalType": "uint256",
          "name": "",
          "type": "uint256"
        },
        {
          "internalType": "uint256",
          "name": "",
          "type": "uint256"
        }
      ],
      "stateMutability": "view",
      "type": "function"
    },
    {
      "inputs": [
        {
          "internalType": "address",
          "name": "participant",
          "type": "address"
        },
        {
          "internalType": "enum LibTermV2.TermStates",
          "name": "state",
          "type": "uint8"
        }
      ],
      "name": "getJoinedTermsByState",
      "outputs": [
        {
          "internalType": "uint256[]",
          "name": "",
          "type": "uint256[]"
        }
      ],
      "stateMutability": "view",
      "type": "function"
    },
    {
      "inputs": [],
      "name": "getLatestPrice",
      "outputs": [
        {
          "internalType": "uint256",
          "name": "",
          "type": "uint256"
        }
      ],
      "stateMutability": "view",
      "type": "function"
    },
    {
      "inputs": [
        {
          "internalType": "address",
          "name": "participant",
          "type": "address"
        },
        {
          "internalType": "uint256",
          "name": "termId",
          "type": "uint256"
        }
      ],
      "name": "getParticipantFundSummary",
      "outputs": [
        {
          "internalType": "bool",
          "name": "",
          "type": "bool"
        },
        {
          "internalType": "bool",
          "name": "",
          "type": "bool"
        },
        {
          "internalType": "bool",
          "name": "",
          "type": "bool"
        },
        {
          "internalType": "bool",
          "name": "",
          "type": "bool"
        },
        {
          "internalType": "uint256",
          "name": "",
          "type": "uint256"
        }
      ],
      "stateMutability": "view",
      "type": "function"
    },
    {
      "inputs": [
        {
          "internalType": "uint256",
          "name": "termId",
          "type": "uint256"
        }
      ],
      "name": "getRemainingContributionPeriod",
      "outputs": [
        {
          "internalType": "uint256",
          "name": "",
          "type": "uint256"
        }
      ],
      "stateMutability": "view",
      "type": "function"
    },
    {
      "inputs": [
        {
          "internalType": "uint256",
          "name": "termId",
          "type": "uint256"
        }
      ],
      "name": "getRemainingContributionTime",
      "outputs": [
        {
          "internalType": "uint256",
          "name": "",
          "type": "uint256"
        }
      ],
      "stateMutability": "view",
      "type": "function"
    },
    {
      "inputs": [
        {
          "internalType": "uint256",
          "name": "termId",
          "type": "uint256"
        }
      ],
      "name": "getRemainingCycleTime",
      "outputs": [
        {
          "internalType": "uint256",
          "name": "",
          "type": "uint256"
        }
      ],
      "stateMutability": "view",
      "type": "function"
    },
    {
      "inputs": [
        {
          "internalType": "uint256",
          "name": "termId",
          "type": "uint256"
        }
      ],
      "name": "getRemainingCycles",
      "outputs": [
        {
          "internalType": "uint256",
          "name": "",
          "type": "uint256"
        }
      ],
      "stateMutability": "view",
      "type": "function"
    },
    {
      "inputs": [
        {
          "internalType": "uint256",
          "name": "termId",
          "type": "uint256"
        }
      ],
      "name": "getRemainingCyclesContributionWei",
      "outputs": [
        {
          "internalType": "uint256",
          "name": "",
          "type": "uint256"
        }
      ],
      "stateMutability": "view",
      "type": "function"
    },
    {
      "inputs": [
        {
          "internalType": "uint256",
          "name": "termId",
          "type": "uint256"
        }
      ],
      "name": "getTermSummary",
      "outputs": [
        {
          "components": [
            {
              "internalType": "bool",
              "name": "initialized",
              "type": "bool"
            },
            {
              "internalType": "enum LibTermV2.TermStates",
              "name": "state",
              "type": "uint8"
            },
            {
              "internalType": "address",
              "name": "termOwner",
              "type": "address"
            },
            {
              "internalType": "uint256",
              "name": "creationTime",
              "type": "uint256"
            },
            {
              "internalType": "uint256",
              "name": "termId",
              "type": "uint256"
            },
            {
              "internalType": "uint256",
              "name": "registrationPeriod",
              "type": "uint256"
            },
            {
              "internalType": "uint256",
              "name": "totalParticipants",
              "type": "uint256"
            },
            {
              "internalType": "uint256",
              "name": "cycleTime",
              "type": "uint256"
            },
            {
              "internalType": "uint256",
              "name": "contributionAmount",
              "type": "uint256"
            },
            {
              "internalType": "uint256",
              "name": "contributionPeriod",
              "type": "uint256"
            },
            {
              "internalType": "address",
              "name": "stableTokenAddress",
              "type": "address"
            }
          ],
          "internalType": "struct LibTermV2.Term",
          "name": "",
          "type": "tuple"
        }
      ],
      "stateMutability": "view",
      "type": "function"
    },
    {
      "inputs": [],
      "name": "getTermsId",
      "outputs": [
        {
          "internalType": "uint256",
          "name": "",
          "type": "uint256"
        },
        {
          "internalType": "uint256",
          "name": "",
          "type": "uint256"
        }
      ],
      "stateMutability": "view",
      "type": "function"
    },
    {
      "inputs": [
        {
          "internalType": "uint256",
          "name": "USDAmount",
          "type": "uint256"
        }
      ],
      "name": "getToCollateralConversionRate",
      "outputs": [
        {
          "internalType": "uint256",
          "name": "",
          "type": "uint256"
        }
      ],
      "stateMutability": "view",
      "type": "function"
    },
    {
      "inputs": [
        {
          "internalType": "uint256",
          "name": "ethAmount",
          "type": "uint256"
        }
      ],
      "name": "getToStableConversionRate",
      "outputs": [
        {
          "internalType": "uint256",
          "name": "",
          "type": "uint256"
        }
      ],
      "stateMutability": "view",
      "type": "function"
    },
    {
      "inputs": [
        {
          "internalType": "uint256",
          "name": "termId",
          "type": "uint256"
        },
        {
          "internalType": "uint256",
          "name": "cycle",
          "type": "uint256"
        },
        {
          "internalType": "address",
          "name": "user",
          "type": "address"
        }
      ],
      "name": "isExempted",
      "outputs": [
        {
          "internalType": "bool",
          "name": "",
          "type": "bool"
        }
      ],
      "stateMutability": "view",
      "type": "function"
    },
    {
      "inputs": [
        {
          "components": [
            {
              "internalType": "bool",
              "name": "initialized",
              "type": "bool"
            },
            {
              "internalType": "enum LibTermV2.TermStates",
              "name": "state",
              "type": "uint8"
            },
            {
              "internalType": "address",
              "name": "termOwner",
              "type": "address"
            },
            {
              "internalType": "uint256",
              "name": "creationTime",
              "type": "uint256"
            },
            {
              "internalType": "uint256",
              "name": "termId",
              "type": "uint256"
            },
            {
              "internalType": "uint256",
              "name": "registrationPeriod",
              "type": "uint256"
            },
            {
              "internalType": "uint256",
              "name": "totalParticipants",
              "type": "uint256"
            },
            {
              "internalType": "uint256",
              "name": "cycleTime",
              "type": "uint256"
            },
            {
              "internalType": "uint256",
              "name": "contributionAmount",
              "type": "uint256"
            },
            {
              "internalType": "uint256",
              "name": "contributionPeriod",
              "type": "uint256"
            },
            {
              "internalType": "address",
              "name": "stableTokenAddress",
              "type": "address"
            }
          ],
          "internalType": "struct LibTermV2.Term",
          "name": "term",
          "type": "tuple"
        },
        {
          "internalType": "uint256",
          "name": "depositorIndex",
          "type": "uint256"
        }
      ],
      "name": "minCollateralToDeposit",
      "outputs": [
        {
          "internalType": "uint256",
          "name": "amount",
          "type": "uint256"
        }
      ],
      "stateMutability": "view",
      "type": "function"
    },
    {
      "inputs": [
        {
          "internalType": "uint256",
          "name": "termId",
          "type": "uint256"
        }
      ],
      "name": "termAPR",
      "outputs": [
        {
          "internalType": "uint256",
          "name": "",
          "type": "uint256"
        }
      ],
      "stateMutability": "view",
      "type": "function"
    },
    {
      "inputs": [
        {
          "internalType": "uint256",
          "name": "termId",
          "type": "uint256"
        }
      ],
      "name": "totalYieldGenerated",
      "outputs": [
        {
          "internalType": "uint256",
          "name": "",
          "type": "uint256"
        }
      ],
      "stateMutability": "view",
      "type": "function"
    },
    {
      "inputs": [
        {
          "internalType": "uint256",
          "name": "termId",
          "type": "uint256"
        },
        {
          "internalType": "address",
          "name": "user",
          "type": "address"
        }
      ],
      "name": "userAPR",
      "outputs": [
        {
          "internalType": "uint256",
          "name": "",
          "type": "uint256"
        }
      ],
      "stateMutability": "view",
      "type": "function"
    },
    {
      "inputs": [
        {
          "internalType": "uint256",
          "name": "termId",
          "type": "uint256"
        },
        {
          "internalType": "address",
          "name": "user",
          "type": "address"
        }
      ],
      "name": "userYieldGenerated",
      "outputs": [
        {
          "internalType": "uint256",
          "name": "",
          "type": "uint256"
        }
      ],
      "stateMutability": "view",
      "type": "function"
    },
    {
      "inputs": [
        {
          "internalType": "uint256",
          "name": "termId",
          "type": "uint256"
        },
        {
          "internalType": "address",
          "name": "user",
          "type": "address"
        }
      ],
      "name": "wasExpelled",
      "outputs": [
        {
          "internalType": "bool",
          "name": "",
          "type": "bool"
        }
      ],
      "stateMutability": "view",
      "type": "function"
    },
    {
      "inputs": [
        {
          "internalType": "uint256",
          "name": "termId",
          "type": "uint256"
        },
        {
          "internalType": "address",
          "name": "user",
          "type": "address"
        }
      ],
      "name": "yieldDistributionRatio",
      "outputs": [
        {
          "internalType": "uint256",
          "name": "",
          "type": "uint256"
        }
      ],
      "stateMutability": "view",
      "type": "function"
    }
  ],
  "args": [],
  "numDeployments": 1,
  "solcInputHash": "b727eed98cd6f01266a2359cf6fef327",
  "bytecode": "0x608060405234801561001057600080fd5b50611bc8806100206000396000f3fe608060405234801561001057600080fd5b506004361061018e5760003560e01c8063b7cf483f116100de578063da3791ca11610097578063dc9e24ae11610071578063dc9e24ae1461050b578063e6bbeae51461051e578063e6e9e05714610531578063f0d826e71461054457600080fd5b8063da3791ca146104b4578063dbd57683146104d8578063dbf42810146104f857600080fd5b8063b7cf483f1461034a578063bb91b76d146103ab578063d072f4bc1461043c578063d72bb87e1461044f578063d7992e5b14610476578063d8f8e9911461048957600080fd5b806362f02abd1161014b57806382bceea51161012557806382bceea5146103095780638e15f4731461031c57806392a6c80214610324578063afa6b9631461033757600080fd5b806362f02abd146102c657806375aaa78c146102d95780637aed53a6146102ec57600080fd5b80630fc4a7ef146101935780631268612d146101b95780631a1faa071461026d5780631e993b53146102805780632c5ad942146102a05780636191474c146102b3575b600080fd5b6101a66101a136600461157a565b610557565b6040519081526020015b60405180910390f35b61023d6101c73660046115af565b6000908152600080516020611b33833981519152602090815260408083206001600160a01b03949094168352600584018252808320546006850183528184205460078601845282852054600887018552838620546009909701909452919093205460ff9384169591841694928416939092169190565b6040805195151586529315156020860152911515928401929092529015156060830152608082015260a0016101b0565b6101a661027b36600461157a565b61058b565b61029361028e3660046115d9565b6105df565b6040516101b091906115f4565b6101a66102ae36600461168f565b610663565b6101a66102c136600461157a565b6106ab565b6101a66102d436600461157a565b610772565b6102936102e73660046115d9565b6107b3565b6102f4610865565b604080519283526020830191909152016101b0565b6101a6610317366004611752565b6108a8565b6101a6610912565b6101a661033236600461157a565b610cd4565b6101a6610345366004611752565b610d21565b61039b61035836600461177e565b6000928352600080516020611b3383398151915260209081526040808520938552600c90930181528284206001600160a01b039290921684525290205460ff1690565b60405190151581526020016101b0565b61041a6103b93660046115af565b6000908152600080516020611b73833981519152602090815260408083206001600160a01b03949094168352600484018252808320546005850183528184205460068601845282852054600790960190935292205460ff9092169390929190565b60408051941515855260208501939093529183015260608201526080016101b0565b6101a661044a36600461157a565b610d7e565b61046261045d36600461157a565b610da0565b6040516101b098979695949392919061180d565b61039b610484366004611752565b610e79565b61049c61049736600461157a565b610f13565b6040516001600160a01b0390911681526020016101b0565b6104c76104c236600461157a565b610f6f565b6040516101b095949392919061188b565b6104eb6104e636600461157a565b611025565b6040516101b091906118d9565b6101a661050636600461157a565b61116e565b610293610519366004611977565b611300565b6101a661052c366004611752565b6113e4565b6101a661053f36600461157a565b61143d565b6101a661055236600461157a565b611490565b600080610562610912565b90506000670de0b6b3a764000061057985846119b7565b61058391906119e4565b949350505050565b6000818152600080516020611b1383398151915260205260408120600281015482906105b790426119f8565b90506105c7816301e133806119b7565b82600401546105d58661116e565b61057991906119e4565b606060006105ec836107b3565b905060606000808351905060005b818110156106585761062585828151811061061757610617611a0b565b602002602001015188610e79565b15610650578084848151811061063d5761063d611a0b565b6020026020010181815250508260010192505b6001016105fa565b509195945050505050565b600080610682846101000151670de0b6b3a764000061044a91906119b7565b90506064838560c0015161069691906119f8565b6106a090836119b7565b6105799060966119b7565b6000818152600080516020611b3383398151915260209081526040808320600080516020611b5383398151915290925282208154600190610100900460ff1660048111156106fb576106fb6117b3565b1461070a575060009392505050565b6000816007015483600201546001856004015461072791906119f8565b846005015461073691906119b7565b6107409190611a21565b61074a9190611a21565b90508042111561075f57506000949350505050565b61076942826119f8565b95945050505050565b6000818152600080516020611b3383398151915260205260408120600481015460148201546107a2906001611a21565b6107ac91906119f8565b9392505050565b6001600160a01b03811660009081527f87101b21d556417ad2b8e8f2700dbad90721d5d50a1f435f2dee0b9dc981ac8b6020908152604080832080548251818502810185019093528083526060947f87101b21d556417ad2b8e8f2700dbad90721d5d50a1f435f2dee0b9dc981ac8994909392919083018282801561085757602002820191906000526020600020905b815481526020019060010190808311610843575b509398975050505050505050565b7f87101b21d556417ad2b8e8f2700dbad90721d5d50a1f435f2dee0b9dc981ac8980546000918291829061089b906001906119f8565b9154919491935090915050565b6000828152600080516020611b1383398151915260205260408120600281015482906108d490426119f8565b90506108e4816301e133806119b7565b82600401546108f38787610d21565b6108fd91906119e4565b61090791906119e4565b925050505b92915050565b7f138fa7b895cc6132bd44317f3510a9c38821e93ca223f9fdc532527c01963ec55460408051633fabe5a360e21b815290516000927f138fa7b895cc6132bd44317f3510a9c38821e93ca223f9fdc532527c01963ec492849283926001600160a01b03169163feaf968c9160048083019260a09291908290030181865afa1580156109a1573d6000803e3d6000fd5b505050506040513d601f19601f820116820180604052508101906109c59190611a4b565b5050925092505081600014610a125760405162461bcd60e51b815260206004820152600e60248201526d29b2b8bab2b731b2b9103237bbb760911b60448201526064015b60405180910390fd5b610a1c81426119f8565b83541115610a645760405162461bcd60e51b8152602060048201526015602482015274053657175656e636572207374617274696e6720757605c1b6044820152606401610a09565b60008060008086600201604051610a8890661155120bd554d160ca1b815260070190565b9081526040805191829003602001822054633fabe5a360e21b835290516001600160a01b039091169163feaf968c9160048083019260a09291908290030181865afa158015610adb573d6000803e3d6000fd5b505050506040513d601f19601f82011682018060405250810190610aff9190611a4b565b94509450509350935081600014158015610b2b5750836001600160501b0316816001600160501b031610155b8015610b375750600083135b610b835760405162461bcd60e51b815260206004820152601b60248201527f436861696e6c696e6b4f7261636c653a207374616c65206461746100000000006044820152606401610a09565b6000806000808a600201604051610ba890675553442f5553444360c01b815260080190565b9081526040805191829003602001822054633fabe5a360e21b835290516001600160a01b039091169163feaf968c9160048083019260a09291908290030181865afa158015610bfb573d6000803e3d6000fd5b505050506040513d601f19601f82011682018060405250810190610c1f9190611a4b565b94509450509350935081600014158015610c4b5750836001600160501b0316816001600160501b031610155b8015610c575750600083135b610ca35760405162461bcd60e51b815260206004820152601b60248201527f436861696e6c696e6b4f7261636c653a207374616c65206461746100000000006044820152606401610a09565b6000610caf8489611a9b565b9050610cc381670de0b6b3a7640000611ac9565b9c5050505050505050505050505090565b6000818152600080516020611b3383398151915260209081526040808320600080516020611b538339815191529092528220600282015460048301546005830154859291610740916119b7565b6000828152600080516020611b1383398151915260205260408120610d4684846113e4565b610d4f8561116e565b610d5991906119b7565b6001600160a01b03841660009081526008830160205260409020546105839190611a21565b600080610d89610912565b905060008161057985670de0b6b3a76400006119b7565b6000808060608180808080600080516020611b3383398151915260008b81526020918252604090819020805460028201546003830154600484015460148501546001860180548851818b0281018b0190995280895296995060ff80871699610100880490911698620100009097046001600160a01b0316979196918791830182828015610e5657602002820191906000526020600020905b81546001600160a01b03168152600190910190602001808311610e38575b505050505094509850985098509850985098509850985050919395975091939597565b6000828152600080516020611b3383398151915260209081526040808320600080516020611b7383398151915283528184206001600160a01b0386168552600582019093529083205490919060ff16158015610ef057506001600160a01b038416600090815260048201602052604090205460ff16155b15610f005760019250505061090c565b60009250505061090c565b505092915050565b6000818152600080516020611b33833981519152602052604081206004810154600180830191610f4391906119f8565b81548110610f5357610f53611a0b565b6000918252602090912001546001600160a01b03169392505050565b6000808080606081600080516020611b738339815191526000888152602091825260409081902080546001820154600283015460038401805486518189028101890190975280875294975060ff80851697610100909504169592949193909291839183018282801561100a57602002820191906000526020600020905b81546001600160a01b03168152600190910190602001808311610fec575b50505050509050955095509550955095505091939590929450565b61109560408051610160810190915260008082526020820190815260200160006001600160a01b031681526020016000815260200160008152602001600081526020016000815260200160008152602001600081526020016000815260200160006001600160a01b031681525090565b6000828152600080516020611b53833981519152602090815260409182902082516101608101909352805460ff8082161515855291928401916101009091041660038111156110e6576110e66117b3565b60038111156110f7576110f76117b3565b815281546001600160a01b036201000090910481166020830152600183015460408301526002830154606083015260038301546080830152600483015460a0830152600583015460c0830152600683015460e083015260078301546101008301526008909201549091166101209091015292915050565b6000818152600080516020611b13833981519152602090815260408083206006810180548351818602810186019094528084529193859384939092918301828280156111e357602002820191906000526020600020905b81546001600160a01b031681526001909101906020018083116111c5575b505083519394506000925050505b8181101561124f5784600801600084838151811061121157611211611a0b565b60200260200101516001600160a01b03166001600160a01b0316815260200190815260200160002054846112459190611a21565b93506001016111f1565b506040516816985e5b95985d5b1d60ba1b815260018501906009019081526040805160209281900383018120546316d3df1560e31b825291516001600160a01b039092169263b69ef8a8926004808401938290030181865afa1580156112b9573d6000803e3d6000fd5b505050506040513d601f19601f820116820180604052508101906112dd9190611af9565b84600301546112ec91906119f8565b6112f69084611a21565b9695505050505050565b6060600061130d846107b3565b905060606000808351905060005b818110156113d857866003811115611335576113356117b3565b7f87101b21d556417ad2b8e8f2700dbad90721d5d50a1f435f2dee0b9dc981ac89600101600087848151811061136d5761136d611a0b565b6020026020010151815260200190815260200160002060000160019054906101000a900460ff1660038111156113a5576113a56117b3565b036113d057808484815181106113bd576113bd611a0b565b6020026020010181815250508260010192505b60010161131b565b50919695505050505050565b6000828152600080516020611b1383398151915260209081526040808320600080516020611b73833981519152835281842060048201546001600160a01b038716865260058201909452918420549092610907916119e4565b6000818152600080516020611b53833981519152602052604081206003810154600182015461146c9190611a21565b421061147b5750600092915050565b42816003015482600101546107a29190611a21565b6000818152600080516020611b3383398151915260209081526040808320600080516020611b538339815191529092528220600482015460148301548491906114da906001611a21565b6114e491906119f8565b90506000306001600160a01b031663d072f4bc8460060154670de0b6b3a764000061150f91906119b7565b6040518263ffffffff1660e01b815260040161152d91815260200190565b602060405180830381865afa15801561154a573d6000803e3d6000fd5b505050506040513d601f19601f8201168201806040525081019061156e9190611af9565b90506112f681836119b7565b60006020828403121561158c57600080fd5b5035919050565b80356001600160a01b03811681146115aa57600080fd5b919050565b600080604083850312156115c257600080fd5b6115cb83611593565b946020939093013593505050565b6000602082840312156115eb57600080fd5b6107ac82611593565b6020808252825182820181905260009190848201906040850190845b8181101561162c57835183529284019291840191600101611610565b50909695505050505050565b604051610160810167ffffffffffffffff8111828210171561166a57634e487b7160e01b600052604160045260246000fd5b60405290565b803580151581146115aa57600080fd5b8035600481106115aa57600080fd5b6000808284036101808112156116a457600080fd5b610160808212156116b457600080fd5b6116bc611638565b91506116c785611670565b82526116d560208601611680565b60208301526116e660408601611593565b6040830152606085013560608301526080850135608083015260a085013560a083015260c085013560c083015260e085013560e0830152610100808601358184015250610120808601358184015250610140611743818701611593565b90830152909593013593505050565b6000806040838503121561176557600080fd5b8235915061177560208401611593565b90509250929050565b60008060006060848603121561179357600080fd5b83359250602084013591506117aa60408501611593565b90509250925092565b634e487b7160e01b600052602160045260246000fd5b600081518084526020808501945080840160005b838110156118025781516001600160a01b0316875295820195908201906001016117dd565b509495945050505050565b60006101008a1515835260058a10611827576118276117b3565b602083018a90526001600160a01b038916604084015260608301819052611850818401896117c9565b9150508560808301528460a08301528360c08301528260e08301529998505050505050505050565b60048110611888576118886117b3565b50565b851515815261189985611878565b84602082015283604082015282606082015260a0608082015260006118c160a08301846117c9565b979650505050505050565b6118d581611878565b9052565b815115158152610160810160208301516118f660208401826118cc565b50604083015161191160408401826001600160a01b03169052565b50606083015160608301526080830151608083015260a083015160a083015260c083015160c083015260e083015160e083015261010080840151818401525061012080840151818401525061014080840151610f0b828501826001600160a01b03169052565b6000806040838503121561198a57600080fd5b61199383611593565b915061177560208401611680565b634e487b7160e01b600052601160045260246000fd5b808202811582820484141761090c5761090c6119a1565b634e487b7160e01b600052601260045260246000fd5b6000826119f3576119f36119ce565b500490565b8181038181111561090c5761090c6119a1565b634e487b7160e01b600052603260045260246000fd5b8082018082111561090c5761090c6119a1565b80516001600160501b03811681146115aa57600080fd5b600080600080600060a08688031215611a6357600080fd5b611a6c86611a34565b9450602086015193506040860151925060608601519150611a8f60808701611a34565b90509295509295909350565b600082611aaa57611aaa6119ce565b600160ff1b821460001984141615611ac457611ac46119a1565b500590565b80820260008212600160ff1b84141615611ae557611ae56119a1565b818105831482151761090c5761090c6119a1565b600060208284031215611b0b57600080fd5b505191905056fe29d9cba46c358ba7c1b8945751229339792c7c62e3197c240fa98916e75ffbf96751f7e27cecf86d7136f5749c224248cae80a39fafb59f8f6bf12c52816307c87101b21d556417ad2b8e8f2700dbad90721d5d50a1f435f2dee0b9dc981ac8a35fa70a6f9ae8a4d427ebe0c1be62ffd2870fecc1df41c6fda0bf5803e562888a264697066735822122055c3d127c036af2233a432b5a3a15b5c79c846b9f6f7b177315562ea99c14e7464736f6c63430008120033",
  "devdoc": {
    "kind": "dev",
    "methods": {
      "getAllJoinedTerms(address)": {
        "params": {
          "participant": "the participant address"
        },
        "returns": {
          "_0": "the term ids the participant is part of"
        }
      },
      "getCollateralSummary(uint256)": {
        "params": {
          "termId": "the collateral id"
        },
        "returns": {
          "_0": "collateral: initialized, state, firstDepositTime, counterMembers, depositors, collateralDeposit"
        }
      },
      "getCurrentBeneficiary(uint256)": {
        "params": {
          "termId": "the fund id"
        },
        "returns": {
          "_0": "the current beneficiary"
        }
      },
      "getDepositorCollateralSummary(address,uint256)": {
        "params": {
          "depositor": "the depositor address",
          "termId": "the collateral id"
        },
        "returns": {
          "_0": "isCollateralMember, collateralMembersBank, collateralPaymentBank"
        }
      },
      "getExpelledTerms(address)": {
        "params": {
          "participant": "the participant address"
        },
        "returns": {
          "_0": "the term ids the participant is part of, giving the state of the term"
        }
      },
      "getFundSummary(uint256)": {
        "params": {
          "termId": "the fund id"
        },
        "returns": {
          "_0": "initialized, currentState, stableToken, currentCycle, beneficiariesOrder, fundStart, currentCycle, totalAmountOfCycles, fundEnd"
        }
      },
      "getJoinedTermsByState(address,uint8)": {
        "params": {
          "participant": "the participant address",
          "state": "the term state"
        },
        "returns": {
          "_0": "the term ids the participant is part of, giving the state of the term"
        }
      },
      "getLatestPrice()": {
        "returns": {
          "_0": "uint latest price in Wei Note: 18 decimals"
        }
      },
      "getParticipantFundSummary(address,uint256)": {
        "params": {
          "participant": "the user to get the info from",
          "termId": "the fund id"
        },
        "returns": {
          "_0": "isParticipant, isBeneficiary, paidThisCycle, autoPayEnabled, beneficiariesPool"
        }
      },
      "getRemainingContributionPeriod(uint256)": {
        "params": {
          "termId": "the term id"
        },
        "returns": {
          "_0": "the remaining contribution period"
        }
      },
      "getRemainingContributionTime(uint256)": {
        "params": {
          "termId": "the fund id"
        },
        "returns": {
          "_0": "the time left to contribute"
        }
      },
      "getRemainingCycleTime(uint256)": {
        "params": {
          "termId": "the term id"
        },
        "returns": {
          "_0": "remaining time in the current cycle"
        }
      },
      "getRemainingCycles(uint256)": {
        "params": {
          "termId": "the term id"
        },
        "returns": {
          "_0": "remaining time in the current cycle"
        }
      },
      "getRemainingCyclesContributionWei(uint256)": {
        "params": {
          "termId": "the term id"
        },
        "returns": {
          "_0": "remaining cycles contribution"
        }
      },
      "getTermSummary(uint256)": {
        "params": {
          "termId": "the term id"
        },
        "returns": {
          "_0": "the term struct"
        }
      },
      "getTermsId()": {
        "returns": {
          "_0": "the current term id",
          "_1": "the next term id"
        }
      },
      "getToCollateralConversionRate(uint256)": {
        "details": "should we always deal with in Wei?",
        "params": {
          "USDAmount": "The amount in USD"
        },
        "returns": {
          "_0": "uint converted amount in wei"
        }
      },
      "getToStableConversionRate(uint256)": {
        "details": "should we always deal with in Wei?",
        "params": {
          "ethAmount": "The amount in ETH"
        },
        "returns": {
          "_0": "uint converted amount in USD correct to 18 decimals"
        }
      },
      "minCollateralToDeposit((bool,uint8,address,uint256,uint256,uint256,uint256,uint256,uint256,uint256,address),uint256)": {
        "details": "The minimum collateral amount is calculated based on the index on the depositors arrayThe return value should be the minimum msg.value when calling joinTermC = 1.5 Cp (Tp - I) where C = minimum collateral amount, Cp = contribution amount, Tp = total participants, I = depositor index (starts at 0). 1.5",
        "returns": {
          "amount": "the minimum collateral amount to deposit in wei"
        }
      },
      "termAPR(uint256)": {
        "params": {
          "termId": "The term id for which the APR is being calculated"
        },
        "returns": {
          "_0": "The APR for the term"
        }
      },
      "totalYieldGenerated(uint256)": {
        "params": {
          "termId": "The term id for which the yield is being calculated"
        },
        "returns": {
          "_0": "The total yield generated for the term"
        }
      },
      "userAPR(uint256,address)": {
        "params": {
          "termId": "The term id for which the APR is being calculated",
          "user": "The user for which the APR is being calculated"
        },
        "returns": {
          "_0": "The APR for the user"
        }
      },
      "userYieldGenerated(uint256,address)": {
        "params": {
          "termId": "The term id for which the yield is being calculated",
          "user": "The user for which the yield is being calculated"
        },
        "returns": {
          "_0": "The total yield generated for the user"
        }
      },
      "wasExpelled(uint256,address)": {
        "params": {
          "termId": "the fund id",
          "user": "the user to check"
        },
        "returns": {
          "_0": "true if the user was expelled before"
        }
      },
      "yieldDistributionRatio(uint256,address)": {
        "params": {
          "termId": "The term id for which the ratio is being calculated",
          "user": "The user for which the ratio is being calculated"
        },
        "returns": {
          "_0": "The yield distribution ratio for the user"
        }
      }
    },
    "version": 1
  },
  "userdoc": {
    "kind": "user",
    "methods": {
      "getCurrentBeneficiary(uint256)": {
        "notice": "function to get the current beneficiary"
      },
      "getFundSummary(uint256)": {
        "notice": "function to get the cycle information in one go"
      },
      "getLatestPrice()": {
        "notice": "Gets latest ETH / USD price"
      },
      "getParticipantFundSummary(address,uint256)": {
        "notice": "function to get cycle information of a specific participant"
      },
      "getRemainingContributionPeriod(uint256)": {
        "notice": "Gets the remaining contribution period of a term"
      },
      "getRemainingContributionTime(uint256)": {
        "notice": "returns the time left to contribute for this cycle"
      },
      "getToCollateralConversionRate(uint256)": {
        "notice": "Gets the conversion rate of an amount in USD to ETH"
      },
      "getToStableConversionRate(uint256)": {
        "notice": "Gets the conversion rate of an amount in ETH to USD"
      },
      "isExempted(uint256,uint256,address)": {
        "notice": "function to see if a user is exempted from paying a cycle"
      },
      "minCollateralToDeposit((bool,uint8,address,uint256,uint256,uint256,uint256,uint256,uint256,uint256,address),uint256)": {
        "notice": "Called to check the minimum collateral amount to deposit in wei"
      },
      "termAPR(uint256)": {
        "notice": "This function is used to get a term APR"
      },
      "totalYieldGenerated(uint256)": {
        "notice": "This function is used to get the total yield generated for a term"
      },
      "userAPR(uint256,address)": {
        "notice": "This function is used to get a user APR"
      },
      "userYieldGenerated(uint256,address)": {
        "notice": "This function is used to get the total yield generated for a user"
      },
      "wasExpelled(uint256,address)": {
        "notice": "function to know if a user was expelled before"
      },
      "yieldDistributionRatio(uint256,address)": {
        "notice": "This function is used to get the yield distribution ratio for a user"
      }
    },
    "version": 1
  },
  "storageLayout": {
    "storage": [],
    "types": null
  }
}