{
  "address": "0xeb462D1bD5f9072Bb48ddcd14e5f9FFff374c75C",
  "abi": [
    {
      "inputs": [
        {
          "internalType": "address",
          "name": "participant",
          "type": "address"
        }
      ],
      "name": "getAllJoinedTerms",
      "outputs": [
        {
          "internalType": "uint256[]",
          "name": "",
          "type": "uint256[]"
        }
      ],
      "stateMutability": "view",
      "type": "function"
    },
    {
      "inputs": [
        {
          "internalType": "uint256",
          "name": "termId",
          "type": "uint256"
        }
      ],
      "name": "getCollateralSummary",
      "outputs": [
        {
          "internalType": "bool",
          "name": "",
          "type": "bool"
        },
        {
          "internalType": "enum LibCollateralStorage.CollateralStates",
          "name": "",
          "type": "uint8"
        },
        {
          "internalType": "uint256",
          "name": "",
          "type": "uint256"
        },
        {
          "internalType": "uint256",
          "name": "",
          "type": "uint256"
        },
        {
          "internalType": "address[]",
          "name": "",
          "type": "address[]"
        }
      ],
      "stateMutability": "view",
      "type": "function"
    },
    {
      "inputs": [
        {
          "internalType": "uint256",
          "name": "termId",
          "type": "uint256"
        }
      ],
      "name": "getCurrentBeneficiary",
      "outputs": [
        {
          "internalType": "address",
          "name": "",
          "type": "address"
        }
      ],
      "stateMutability": "view",
      "type": "function"
    },
    {
      "inputs": [
        {
          "internalType": "address",
          "name": "depositor",
          "type": "address"
        },
        {
          "internalType": "uint256",
          "name": "termId",
          "type": "uint256"
        }
      ],
      "name": "getDepositorCollateralSummary",
      "outputs": [
        {
          "internalType": "bool",
          "name": "",
          "type": "bool"
        },
        {
          "internalType": "uint256",
          "name": "",
          "type": "uint256"
        },
        {
          "internalType": "uint256",
          "name": "",
          "type": "uint256"
        },
        {
          "internalType": "uint256",
          "name": "",
          "type": "uint256"
        },
        {
          "internalType": "uint256",
          "name": "",
          "type": "uint256"
        }
      ],
      "stateMutability": "view",
      "type": "function"
    },
    {
      "inputs": [
        {
          "internalType": "address",
          "name": "participant",
          "type": "address"
        }
      ],
      "name": "getExpelledTerms",
      "outputs": [
        {
          "internalType": "uint256[]",
          "name": "",
          "type": "uint256[]"
        }
      ],
      "stateMutability": "view",
      "type": "function"
    },
    {
      "inputs": [
        {
          "internalType": "uint256",
          "name": "termId",
          "type": "uint256"
        }
      ],
      "name": "getFundSummary",
      "outputs": [
        {
          "internalType": "bool",
          "name": "",
          "type": "bool"
        },
        {
          "internalType": "enum LibFundStorage.FundStates",
          "name": "",
          "type": "uint8"
        },
        {
          "internalType": "contract IERC20",
          "name": "",
          "type": "address"
        },
        {
          "internalType": "address[]",
          "name": "",
          "type": "address[]"
        },
        {
          "internalType": "uint256",
          "name": "",
          "type": "uint256"
        },
        {
          "internalType": "uint256",
          "name": "",
          "type": "uint256"
        },
        {
          "internalType": "uint256",
          "name": "",
          "type": "uint256"
        },
        {
          "internalType": "uint256",
          "name": "",
          "type": "uint256"
        }
      ],
      "stateMutability": "view",
      "type": "function"
    },
    {
      "inputs": [
        {
          "internalType": "address",
          "name": "participant",
          "type": "address"
        },
        {
          "internalType": "enum LibTerm.TermStates",
          "name": "state",
          "type": "uint8"
        }
      ],
      "name": "getJoinedTermsByState",
      "outputs": [
        {
          "internalType": "uint256[]",
          "name": "",
          "type": "uint256[]"
        }
      ],
      "stateMutability": "view",
      "type": "function"
    },
    {
      "inputs": [],
      "name": "getLatestPrice",
      "outputs": [
        {
          "internalType": "uint256",
          "name": "",
          "type": "uint256"
        }
      ],
      "stateMutability": "view",
      "type": "function"
    },
    {
      "inputs": [
        {
          "internalType": "address",
          "name": "participant",
          "type": "address"
        },
        {
          "internalType": "uint256",
          "name": "termId",
          "type": "uint256"
        }
      ],
      "name": "getParticipantFundSummary",
      "outputs": [
        {
          "internalType": "bool",
          "name": "",
          "type": "bool"
        },
        {
          "internalType": "bool",
          "name": "",
          "type": "bool"
        },
        {
          "internalType": "bool",
          "name": "",
          "type": "bool"
        },
        {
          "internalType": "bool",
          "name": "",
          "type": "bool"
        },
        {
          "internalType": "uint256",
          "name": "",
          "type": "uint256"
        },
        {
          "internalType": "bool",
          "name": "",
          "type": "bool"
        }
      ],
      "stateMutability": "view",
      "type": "function"
    },
    {
      "inputs": [
        {
          "internalType": "uint256",
          "name": "termId",
          "type": "uint256"
        }
      ],
      "name": "getRemainingContributionTime",
      "outputs": [
        {
          "internalType": "uint256",
          "name": "",
          "type": "uint256"
        }
      ],
      "stateMutability": "view",
      "type": "function"
    },
    {
      "inputs": [
        {
          "internalType": "uint256",
          "name": "termId",
          "type": "uint256"
        }
      ],
      "name": "getRemainingCycleTime",
      "outputs": [
        {
          "internalType": "uint256",
          "name": "",
          "type": "uint256"
        }
      ],
      "stateMutability": "view",
      "type": "function"
    },
    {
      "inputs": [
        {
          "internalType": "uint256",
          "name": "termId",
          "type": "uint256"
        }
      ],
      "name": "getRemainingCycles",
      "outputs": [
        {
          "internalType": "uint256",
          "name": "",
          "type": "uint256"
        }
      ],
      "stateMutability": "view",
      "type": "function"
    },
    {
      "inputs": [
        {
          "internalType": "uint256",
          "name": "termId",
          "type": "uint256"
        }
      ],
      "name": "getRemainingCyclesContributionWei",
      "outputs": [
        {
          "internalType": "uint256",
          "name": "",
          "type": "uint256"
        }
      ],
      "stateMutability": "view",
      "type": "function"
    },
    {
      "inputs": [
        {
          "internalType": "uint256",
          "name": "termId",
          "type": "uint256"
        }
      ],
      "name": "getRemainingRegistrationTime",
      "outputs": [
        {
          "internalType": "uint256",
          "name": "",
          "type": "uint256"
        }
      ],
      "stateMutability": "view",
      "type": "function"
    },
    {
      "inputs": [
        {
          "internalType": "uint256",
          "name": "termId",
          "type": "uint256"
        }
      ],
      "name": "getTermSummary",
      "outputs": [
        {
          "components": [
            {
              "internalType": "bool",
              "name": "initialized",
              "type": "bool"
            },
            {
              "internalType": "enum LibTerm.TermStates",
              "name": "state",
              "type": "uint8"
            },
            {
              "internalType": "address",
              "name": "termOwner",
              "type": "address"
            },
            {
              "internalType": "uint256",
              "name": "creationTime",
              "type": "uint256"
            },
            {
              "internalType": "uint256",
              "name": "termId",
              "type": "uint256"
            },
            {
              "internalType": "uint256",
              "name": "registrationPeriod",
              "type": "uint256"
            },
            {
              "internalType": "uint256",
              "name": "totalParticipants",
              "type": "uint256"
            },
            {
              "internalType": "uint256",
              "name": "cycleTime",
              "type": "uint256"
            },
            {
              "internalType": "uint256",
              "name": "contributionAmount",
              "type": "uint256"
            },
            {
              "internalType": "uint256",
              "name": "contributionPeriod",
              "type": "uint256"
            },
            {
              "internalType": "address",
              "name": "stableTokenAddress",
              "type": "address"
            }
          ],
          "internalType": "struct LibTerm.Term",
          "name": "",
          "type": "tuple"
        }
      ],
      "stateMutability": "view",
      "type": "function"
    },
    {
      "inputs": [],
      "name": "getTermsId",
      "outputs": [
        {
          "internalType": "uint256",
          "name": "",
          "type": "uint256"
        },
        {
          "internalType": "uint256",
          "name": "",
          "type": "uint256"
        }
      ],
      "stateMutability": "view",
      "type": "function"
    },
    {
      "inputs": [
        {
          "internalType": "uint256",
          "name": "USDAmount",
          "type": "uint256"
        }
      ],
      "name": "getToCollateralConversionRate",
      "outputs": [
        {
          "internalType": "uint256",
          "name": "",
          "type": "uint256"
        }
      ],
      "stateMutability": "view",
      "type": "function"
    },
    {
      "inputs": [
        {
          "internalType": "uint256",
          "name": "ethAmount",
          "type": "uint256"
        }
      ],
      "name": "getToStableConversionRate",
      "outputs": [
        {
          "internalType": "uint256",
          "name": "",
          "type": "uint256"
        }
      ],
      "stateMutability": "view",
      "type": "function"
    },
    {
      "inputs": [
        {
          "internalType": "uint256",
          "name": "termId",
          "type": "uint256"
        },
        {
          "internalType": "address",
          "name": "user",
          "type": "address"
        }
      ],
      "name": "getWithdrawableUserBalance",
      "outputs": [
        {
          "internalType": "uint256",
          "name": "allowedWithdrawal",
          "type": "uint256"
        }
      ],
      "stateMutability": "view",
      "type": "function"
    },
    {
      "inputs": [
        {
          "internalType": "uint256",
          "name": "termId",
          "type": "uint256"
        },
        {
          "internalType": "uint256",
          "name": "cycle",
          "type": "uint256"
        },
        {
          "internalType": "address",
          "name": "user",
          "type": "address"
        }
      ],
      "name": "isExempted",
      "outputs": [
        {
          "internalType": "bool",
          "name": "",
          "type": "bool"
        }
      ],
      "stateMutability": "view",
      "type": "function"
    },
    {
      "inputs": [
        {
          "internalType": "uint256",
          "name": "termId",
          "type": "uint256"
        },
        {
          "internalType": "uint256",
          "name": "depositorIndex",
          "type": "uint256"
        }
      ],
      "name": "minCollateralToDeposit",
      "outputs": [
        {
          "internalType": "uint256",
          "name": "amount",
          "type": "uint256"
        }
      ],
      "stateMutability": "view",
      "type": "function"
    },
    {
      "inputs": [
        {
          "internalType": "uint256",
          "name": "termId",
          "type": "uint256"
        }
      ],
      "name": "termAPY",
      "outputs": [
        {
          "internalType": "uint256",
          "name": "",
          "type": "uint256"
        }
      ],
      "stateMutability": "nonpayable",
      "type": "function"
    },
    {
      "inputs": [
        {
          "internalType": "uint256",
          "name": "termId",
          "type": "uint256"
        }
      ],
      "name": "totalYieldGenerated",
      "outputs": [
        {
          "internalType": "uint256",
          "name": "",
          "type": "uint256"
        }
      ],
      "stateMutability": "nonpayable",
      "type": "function"
    },
    {
      "inputs": [
        {
          "internalType": "uint256",
          "name": "termId",
          "type": "uint256"
        },
        {
          "internalType": "address",
          "name": "user",
          "type": "address"
        }
      ],
      "name": "userAPY",
      "outputs": [
        {
          "internalType": "uint256",
          "name": "",
          "type": "uint256"
        }
      ],
      "stateMutability": "nonpayable",
      "type": "function"
    },
    {
      "inputs": [
        {
          "internalType": "uint256",
          "name": "termId",
          "type": "uint256"
        },
        {
          "internalType": "address",
          "name": "user",
          "type": "address"
        }
      ],
      "name": "userHasoptedInYG",
      "outputs": [
        {
          "internalType": "bool",
          "name": "",
          "type": "bool"
        }
      ],
      "stateMutability": "view",
      "type": "function"
    },
    {
      "inputs": [
        {
          "internalType": "uint256",
          "name": "termId",
          "type": "uint256"
        },
        {
          "internalType": "address",
          "name": "user",
          "type": "address"
        }
      ],
      "name": "userYieldGenerated",
      "outputs": [
        {
          "internalType": "uint256",
          "name": "",
          "type": "uint256"
        }
      ],
      "stateMutability": "nonpayable",
      "type": "function"
    },
    {
      "inputs": [
        {
          "internalType": "uint256",
          "name": "termId",
          "type": "uint256"
        },
        {
          "internalType": "address",
          "name": "user",
          "type": "address"
        }
      ],
      "name": "wasExpelled",
      "outputs": [
        {
          "internalType": "bool",
          "name": "",
          "type": "bool"
        }
      ],
      "stateMutability": "view",
      "type": "function"
    },
    {
      "inputs": [
        {
          "internalType": "uint256",
          "name": "termId",
          "type": "uint256"
        },
        {
          "internalType": "address",
          "name": "user",
          "type": "address"
        }
      ],
      "name": "yieldDistributionRatio",
      "outputs": [
        {
          "internalType": "uint256",
          "name": "",
          "type": "uint256"
        }
      ],
      "stateMutability": "view",
      "type": "function"
    }
  ],
  "transactionHash": "0x3f463ae32793e6c1f5669d11ad4eee794cb724f11ad576b1e8e379244c90eaae",
  "args": [],
  "numDeployments": 7,
  "solcInputHash": "3ba7b2adbcac8b26964f39c59000aa84",
  "bytecode": "0x608060405234801561001057600080fd5b50611db1806100206000396000f3fe608060405234801561001057600080fd5b50600436106101c45760003560e01c806392a6c802116100f9578063d8f8e99111610097578063dbf4281011610071578063dbf428101461055f578063dc9e24ae14610572578063e6bbeae514610585578063f0d826e71461059857600080fd5b8063d8f8e991146104f0578063da3791ca1461051b578063dbd576831461053f57600080fd5b8063bb91b76d116100d3578063bb91b76d14610466578063d072f4bc146104a3578063d72bb87e146104b6578063d7992e5b146104dd57600080fd5b806392a6c802146103ef578063afa6b96314610402578063b7cf483f1461041557600080fd5b806375aaa78c116101665780637aed53a6116101405780637aed53a6146103a457806380530731146103c15780638e15f473146103d457806391ce5ff7146103dc57600080fd5b806375aaa78c1461032457806375d4e40b1461033757806377778baf1461039157600080fd5b80631e993b53116101a25780631e993b53146102cb5780636191474c146102eb57806362f02abd146102fe57806365654fe31461031157600080fd5b80630c64c697146101c95780630fc4a7ef146101ef5780631268612d14610202575b600080fd5b6101dc6101d736600461184a565b6105ab565b6040519081526020015b60405180910390f35b6101dc6101fd36600461186c565b61061f565b6102926102103660046118a1565b6000908152600080516020611d1c833981519152602090815260408083206001600160a01b039490941683526005840182528083205460068501835281842054600786018452828520546008870185528386205460098801865284872054600a909801909552929094205460ff91821696948216959282169493821693911690565b604080519615158752941515602087015292151593850193909352151560608401526080830191909152151560a082015260c0016101e6565b6102de6102d93660046118cb565b610653565b6040516101e691906118e6565b6101dc6102f936600461186c565b6106d7565b6101dc61030c36600461186c565b610795565b6101dc61031f36600461192a565b6107d6565b6102de6103323660046118cb565b610832565b61038161034536600461192a565b6000918252600080516020611cfc833981519152602090815260408084206001600160a01b039390931684526007909201905290205460ff1690565b60405190151581526020016101e6565b6101dc61039f36600461192a565b6108e4565b6103ac610a4b565b604080519283526020830191909152016101e6565b6101dc6103cf36600461186c565b610a8e565b6101dc610ae2565b6101dc6103ea36600461186c565b610d7b565b6101dc6103fd36600461186c565b610e43565b6101dc61041036600461192a565b610e90565b610381610423366004611956565b6000928352600080516020611d1c83398151915260209081526040808520938552600c90930181528284206001600160a01b039290921684525290205460ff1690565b6104796104743660046118a1565b610eed565b6040805195151586526020860194909452928401919091526060830152608082015260a0016101e6565b6101dc6104b136600461186c565b61109f565b6104c96104c436600461186c565b6110c1565b6040516101e69897969594939291906119e5565b6103816104eb36600461192a565b61119a565b6105036104fe36600461186c565b611234565b6040516001600160a01b0390911681526020016101e6565b61052e61052936600461186c565b611290565b6040516101e6959493929190611a63565b61055261054d36600461186c565b611346565b6040516101e69190611ab1565b6101dc61056d36600461186c565b61148f565b6102de610580366004611b4f565b611623565b6101dc61059336600461192a565b611707565b6101dc6105a636600461186c565b611760565b6000828152600080516020611d3c83398151915260205260408120600681015482906105e3906104b190670de0b6b3a7640000611ba0565b905060648483600401546105f79190611bb7565b6106019083611ba0565b61060c906096611ba0565b6106169190611be0565b95945050505050565b60008061062a610ae2565b90506000670de0b6b3a76400006106418584611ba0565b61064b9190611be0565b949350505050565b6060600061066083610832565b905060606000808351905060005b818110156106cc5761069985828151811061068b5761068b611bf4565b60200260200101518861119a565b156106c457808484815181106106b1576106b1611bf4565b6020026020010181815250508260010192505b60010161066e565b509195945050505050565b6000818152600080516020611d1c83398151915260209081526040808320600080516020611d3c83398151915290925282208154600190610100900460ff1660048111156107275761072761198b565b14610736575060009392505050565b600081600701548360020154600185600401546107539190611bb7565b84600501546107629190611ba0565b61076c9190611c0a565b6107769190611c0a565b90508042111561078b57506000949350505050565b6106164282611bb7565b6000818152600080516020611d1c83398151915260205260408120600481015460148201546107c5906001611c0a565b6107cf9190611bb7565b9392505050565b6000828152600080516020611cfc83398151915260205260408120600281015482906108029042611bb7565b90508082600401546108148787610e90565b61081e9190611be0565b61060c906301e13380611ba0565b92915050565b6001600160a01b03811660009081527f87101b21d556417ad2b8e8f2700dbad90721d5d50a1f435f2dee0b9dc981ac8b6020908152604080832080548251818502810185019093528083526060947f87101b21d556417ad2b8e8f2700dbad90721d5d50a1f435f2dee0b9dc981ac899490939291908301828280156108d657602002820191906000526020600020905b8154815260200190600101908083116108c2575b509398975050505050505050565b6000828152600080516020611d5c83398151915260209081526040808320600080516020611cfc83398151915283528184206001600160a01b038616855260058201845282852054600a8201909452918420548154919391600290610100900460ff1660038111156109585761095861198b565b0361096e576109678183611c0a565b9450610a41565b60018454610100900460ff16600381111561098b5761098b61198b565b03610a3c5760405163f0d826e760e01b815260048101889052600090600a90309063f0d826e790602401602060405180830381865afa1580156109d2573d6000803e3d6000fd5b505050506040513d601f19601f820116820180604052508101906109f69190611c1d565b610a0190600f611ba0565b610a0b9190611be0565b905080831115610a315781610a208483611bb7565b610a2a9190611c0a565b9550610a36565b600095505b50610a41565b600094505b5050505092915050565b7f87101b21d556417ad2b8e8f2700dbad90721d5d50a1f435f2dee0b9dc981ac89805460009182918290610a8190600190611bb7565b9154919491935090915050565b6000818152600080516020611cfc8339815191526020526040812060028101548290610aba9042611bb7565b9050610aca816301e13380611ba0565b8260040154610ad88661148f565b6106419190611be0565b6000807f138fa7b895cc6132bd44317f3510a9c38821e93ca223f9fdc532527c01963ec4905060008060008084600201604051610b2c90661155120bd554d160ca1b815260070190565b9081526040805191829003602001822054633fabe5a360e21b835290516001600160a01b039091169163feaf968c9160048083019260a09291908290030181865afa158015610b7f573d6000803e3d6000fd5b505050506040513d601f19601f82011682018060405250810190610ba39190611c4d565b94509450509350935081600014158015610bcf5750836001600160501b0316816001600160501b031610155b8015610bdb5750600083135b610c2c5760405162461bcd60e51b815260206004820152601b60248201527f436861696e6c696e6b4f7261636c653a207374616c652064617461000000000060448201526064015b60405180910390fd5b60008060008088600201604051610c5190671554d110cbd554d160c21b815260080190565b9081526040805191829003602001822054633fabe5a360e21b835290516001600160a01b039091169163feaf968c9160048083019260a09291908290030181865afa158015610ca4573d6000803e3d6000fd5b505050506040513d601f19601f82011682018060405250810190610cc89190611c4d565b94509450509350935081600014158015610cf45750836001600160501b0316816001600160501b031610155b8015610d005750600083135b610d4c5760405162461bcd60e51b815260206004820152601b60248201527f436861696e6c696e6b4f7261636c653a207374616c65206461746100000000006044820152606401610c23565b6000610d588489611c9d565b9050610d6c81670de0b6b3a7640000611ccb565b9a505050505050505050505090565b6000818152600080516020611d3c83398151915260209081526040808320600080516020611d5c833981519152909252822060018101548303610e005760405162461bcd60e51b815260206004820152601860248201527f4e6f626f647920686173206465706f73697465642079657400000000000000006044820152606401610c23565b81600301548160010154610e149190611c0a565b4210610e24575060009392505050565b4282600301548260010154610e399190611c0a565b61064b9190611bb7565b6000818152600080516020611d1c83398151915260209081526040808320600080516020611d3c833981519152909252822060028201546004830154600583015485929161076c91611ba0565b6000828152600080516020611cfc83398151915260205260408120610eb58484611707565b610ebe8561148f565b610ec89190611ba0565b6001600160a01b038416600090815260088301602052604090205461064b9190611c0a565b6000818152600080516020611d5c83398151915260209081526040808320600080516020611d1c8339815191528352818420600080516020611d3c83398151915284528285206001600160a01b038816865260068201909452918420548493849384938493909290849060ff16610fe3576006820154309063d072f4bc90610f7d90670de0b6b3a7640000611ba0565b6040518263ffffffff1660e01b8152600401610f9b91815260200190565b602060405180830381865afa158015610fb8573d6000803e3d6000fd5b505050506040513d601f19601f82011682018060405250810190610fdc9190611c1d565b9050611046565b60405163f0d826e760e01b8152600481018b9052309063f0d826e790602401602060405180830381865afa15801561101f573d6000803e3d6000fd5b505050506040513d601f19601f820116820180604052508101906110439190611c1d565b90505b6001600160a01b039a909a1660009081526004840160209081526040808320546005870183528184205460068801845282852054600790980190935292205460ff9092169c909b949a5090985092965091945050505050565b6000806110aa610ae2565b905060008161064185670de0b6b3a7640000611ba0565b6000808060608180808080600080516020611d1c83398151915260008b81526020918252604090819020805460028201546003830154600484015460148501546001860180548851818b0281018b0190995280895296995060ff80871699610100880490911698620100009097046001600160a01b031697919691879183018282801561117757602002820191906000526020600020905b81546001600160a01b03168152600190910190602001808311611159575b505050505094509850985098509850985098509850985050919395975091939597565b6000828152600080516020611d1c83398151915260209081526040808320600080516020611d5c83398151915283528184206001600160a01b0386168552600582019093529083205490919060ff1615801561121157506001600160a01b038416600090815260048201602052604090205460ff16155b156112215760019250505061082c565b60009250505061082c565b505092915050565b6000818152600080516020611d1c8339815191526020526040812060048101546001808301916112649190611bb7565b8154811061127457611274611bf4565b6000918252602090912001546001600160a01b03169392505050565b6000808080606081600080516020611d5c8339815191526000888152602091825260409081902080546001820154600283015460038401805486518189028101890190975280875294975060ff80851697610100909504169592949193909291839183018282801561132b57602002820191906000526020600020905b81546001600160a01b0316815260019091019060200180831161130d575b50505050509050955095509550955095505091939590929450565b6113b660408051610160810190915260008082526020820190815260200160006001600160a01b031681526020016000815260200160008152602001600081526020016000815260200160008152602001600081526020016000815260200160006001600160a01b031681525090565b6000828152600080516020611d3c833981519152602090815260409182902082516101608101909352805460ff8082161515855291928401916101009091041660038111156114075761140761198b565b60038111156114185761141861198b565b815281546001600160a01b036201000090910481166020830152600183015460408301526002830154606083015260038301546080830152600483015460a0830152600583015460c0830152600683015460e083015260078301546101008301526008909201549091166101209091015292915050565b6000818152600080516020611cfc8339815191526020908152604080832060068101805483518186028101860190945280845291938593849390929183018282801561150457602002820191906000526020600020905b81546001600160a01b031681526001909101906020018083116114e6575b505083519394506000925050505b818110156115705784600801600084838151811061153257611532611bf4565b60200260200101516001600160a01b03166001600160a01b0316815260200190815260200160002054846115669190611c0a565b9350600101611512565b50604080516816985e5b95985d5b1d60ba1b8152600186016009820152905190819003602901812054631398fee160e31b8252600482018890526001600160a01b031690639cc7f708906024016020604051808303816000875af11580156115dc573d6000803e3d6000fd5b505050506040513d601f19601f820116820180604052508101906116009190611c1d565b846003015461160f9190611bb7565b6116199084611c0a565b9695505050505050565b6060600061163084610832565b905060606000808351905060005b818110156116fb578660038111156116585761165861198b565b7f87101b21d556417ad2b8e8f2700dbad90721d5d50a1f435f2dee0b9dc981ac89600101600087848151811061169057611690611bf4565b6020026020010151815260200190815260200160002060000160019054906101000a900460ff1660038111156116c8576116c861198b565b036116f357808484815181106116e0576116e0611bf4565b6020026020010181815250508260010192505b60010161163e565b50919695505050505050565b6000828152600080516020611cfc83398151915260209081526040808320600080516020611d5c833981519152835281842060048201546001600160a01b03871686526005820190945291842054909261061691611be0565b6000818152600080516020611d1c83398151915260209081526040808320600080516020611d3c8339815191529092528220600482015460148301548491906117aa906001611c0a565b6117b49190611bb7565b90506000306001600160a01b031663d072f4bc8460060154670de0b6b3a76400006117df9190611ba0565b6040518263ffffffff1660e01b81526004016117fd91815260200190565b602060405180830381865afa15801561181a573d6000803e3d6000fd5b505050506040513d601f19601f8201168201806040525081019061183e9190611c1d565b90506116198183611ba0565b6000806040838503121561185d57600080fd5b50508035926020909101359150565b60006020828403121561187e57600080fd5b5035919050565b80356001600160a01b038116811461189c57600080fd5b919050565b600080604083850312156118b457600080fd5b6118bd83611885565b946020939093013593505050565b6000602082840312156118dd57600080fd5b6107cf82611885565b6020808252825182820181905260009190848201906040850190845b8181101561191e57835183529284019291840191600101611902565b50909695505050505050565b6000806040838503121561193d57600080fd5b8235915061194d60208401611885565b90509250929050565b60008060006060848603121561196b57600080fd5b833592506020840135915061198260408501611885565b90509250925092565b634e487b7160e01b600052602160045260246000fd5b600081518084526020808501945080840160005b838110156119da5781516001600160a01b0316875295820195908201906001016119b5565b509495945050505050565b60006101008a1515835260058a106119ff576119ff61198b565b602083018a90526001600160a01b038916604084015260608301819052611a28818401896119a1565b9150508560808301528460a08301528360c08301528260e08301529998505050505050505050565b60048110611a6057611a6061198b565b50565b8515158152611a7185611a50565b84602082015283604082015282606082015260a060808201526000611a9960a08301846119a1565b979650505050505050565b611aad81611a50565b9052565b81511515815261016081016020830151611ace6020840182611aa4565b506040830151611ae960408401826001600160a01b03169052565b50606083015160608301526080830151608083015260a083015160a083015260c083015160c083015260e083015160e08301526101008084015181840152506101208084015181840152506101408084015161122c828501826001600160a01b03169052565b60008060408385031215611b6257600080fd5b611b6b83611885565b9150602083013560048110611b7f57600080fd5b809150509250929050565b634e487b7160e01b600052601160045260246000fd5b808202811582820484141761082c5761082c611b8a565b8181038181111561082c5761082c611b8a565b634e487b7160e01b600052601260045260246000fd5b600082611bef57611bef611bca565b500490565b634e487b7160e01b600052603260045260246000fd5b8082018082111561082c5761082c611b8a565b600060208284031215611c2f57600080fd5b5051919050565b80516001600160501b038116811461189c57600080fd5b600080600080600060a08688031215611c6557600080fd5b611c6e86611c36565b9450602086015193506040860151925060608601519150611c9160808701611c36565b90509295509295909350565b600082611cac57611cac611bca565b600160ff1b821460001984141615611cc657611cc6611b8a565b500590565b80820260008212600160ff1b84141615611ce757611ce7611b8a565b818105831482151761082c5761082c611b8a56fe29d9cba46c358ba7c1b8945751229339792c7c62e3197c240fa98916e75ffbf96751f7e27cecf86d7136f5749c224248cae80a39fafb59f8f6bf12c52816307c87101b21d556417ad2b8e8f2700dbad90721d5d50a1f435f2dee0b9dc981ac8a35fa70a6f9ae8a4d427ebe0c1be62ffd2870fecc1df41c6fda0bf5803e562888a2646970667358221220aec3826f54ea47956210b606c8f402d6a9bdfdf958c474e634969484ead399ee64736f6c63430008120033",
  "devdoc": {
    "kind": "dev",
    "methods": {
      "getAllJoinedTerms(address)": {
        "params": {
          "participant": "the participant address"
        },
        "returns": {
          "_0": "an array with the term ids the participant is part of"
        }
      },
      "getCollateralSummary(uint256)": {
        "params": {
          "termId": "the collateral id"
        },
        "returns": {
          "_0": "collateral initialized",
          "_1": "collateral state",
          "_2": "collateral firstDepositTime",
          "_3": "counterMembers",
          "_4": "collateral depositors"
        }
      },
      "getCurrentBeneficiary(uint256)": {
        "params": {
          "termId": "the fund id"
        },
        "returns": {
          "_0": "the current beneficiary"
        }
      },
      "getDepositorCollateralSummary(address,uint256)": {
        "params": {
          "depositor": "the depositor address",
          "termId": "the collateral id"
        },
        "returns": {
          "_0": "isCollateralMember",
          "_1": "collateralMembersBank",
          "_2": "collateralPaymentBank",
          "_3": "collateralDepositByUser",
          "_4": "expulsion limit"
        }
      },
      "getExpelledTerms(address)": {
        "params": {
          "participant": "the participant address"
        },
        "returns": {
          "_0": "an array the term ids the participant is part of, giving the state of the term"
        }
      },
      "getFundSummary(uint256)": {
        "params": {
          "termId": "the fund id"
        },
        "returns": {
          "_0": "fund initialized",
          "_1": "fund currentState",
          "_2": "fund stableToken",
          "_3": "fund beneficiariesOrder",
          "_4": "fund fundStart",
          "_5": "fund fundEnd",
          "_6": "fund currentCycle",
          "_7": "fund totalAmountOfCycles"
        }
      },
      "getJoinedTermsByState(address,uint8)": {
        "params": {
          "participant": "the participant address",
          "state": "the term state"
        },
        "returns": {
          "_0": "an array with the term ids the participant is part of, giving the state of the term"
        }
      },
      "getLatestPrice()": {
        "returns": {
          "_0": "uint latest price in Wei Note: 18 decimals"
        }
      },
      "getParticipantFundSummary(address,uint256)": {
        "params": {
          "participant": "the user to get the info from",
          "termId": "the fund id"
        },
        "returns": {
          "_0": "fund isParticipant, true if is participant",
          "_1": "fund isBeneficiary, true if has been beneficiary",
          "_2": "fund paidThisCycle, true if has paid the current cycle",
          "_3": "fund autoPayEnabled, true if auto pay is enabled",
          "_4": "fund beneficiariesPool, the beneficiary pool, 6 decimals",
          "_5": "fund beneficiariesFrozenPool, true if the beneficiary pool is frozen"
        }
      },
      "getRemainingContributionTime(uint256)": {
        "params": {
          "termId": "the fund id"
        },
        "returns": {
          "_0": "the time left to contribute"
        }
      },
      "getRemainingCycleTime(uint256)": {
        "params": {
          "termId": "the term id"
        },
        "returns": {
          "_0": "remaining time in the current cycle"
        }
      },
      "getRemainingCycles(uint256)": {
        "params": {
          "termId": "the term id"
        },
        "returns": {
          "_0": "remaining cycles"
        }
      },
      "getRemainingCyclesContributionWei(uint256)": {
        "params": {
          "termId": "the term id"
        },
        "returns": {
          "_0": "remaining cycles contribution"
        }
      },
      "getRemainingRegistrationTime(uint256)": {
        "params": {
          "termId": "the term id"
        },
        "returns": {
          "_0": "remaining contribution period"
        }
      },
      "getTermSummary(uint256)": {
        "params": {
          "termId": "the term id"
        },
        "returns": {
          "_0": "the term struct"
        }
      },
      "getTermsId()": {
        "returns": {
          "_0": "the current term id",
          "_1": "the next term id"
        }
      },
      "getToCollateralConversionRate(uint256)": {
        "details": "should we always deal with in Wei?",
        "params": {
          "USDAmount": "The amount in USD with 18 decimals"
        },
        "returns": {
          "_0": "uint converted amount in wei"
        }
      },
      "getToStableConversionRate(uint256)": {
        "details": "should we always deal with in Wei?",
        "params": {
          "ethAmount": "The amount in ETH"
        },
        "returns": {
          "_0": "uint converted amount in USD correct to 18 decimals"
        }
      },
      "getWithdrawableUserBalance(uint256,address)": {
        "params": {
          "termId": "term id",
          "user": "depositor address"
        },
        "returns": {
          "allowedWithdrawal": "amount the amount of collateral the depositor can withdraw"
        }
      },
      "isExempted(uint256,uint256,address)": {
        "params": {
          "cycle": "the cycle to check",
          "termId": "the fund id",
          "user": "the user to check"
        },
        "returns": {
          "_0": "true if the user is exempted"
        }
      },
      "minCollateralToDeposit(uint256,uint256)": {
        "details": "The minimum collateral amount is calculated based on the index on the depositors arrayThe return value should be the minimum msg.value when calling joinTermC = 1.5 Cp (Tp - I) where C = minimum collateral amount, Cp = contribution amount, Tp = total participants, I = depositor index (starts at 0). 1.5",
        "returns": {
          "amount": "the minimum collateral amount to deposit in wei"
        }
      },
      "termAPY(uint256)": {
        "params": {
          "termId": "The term id for which the APY is being calculated"
        },
        "returns": {
          "_0": "The APY for the term"
        }
      },
      "totalYieldGenerated(uint256)": {
        "params": {
          "termId": "The term id for which the yield is being calculated"
        },
        "returns": {
          "_0": "The total yield generated for the term"
        }
      },
      "userAPY(uint256,address)": {
        "params": {
          "termId": "The term id for which the APY is being calculated",
          "user": "The user for which the APY is being calculated"
        },
        "returns": {
          "_0": "The APY for the user"
        }
      },
      "userHasoptedInYG(uint256,address)": {
        "params": {
          "termId": "The term id for which the check is being made",
          "user": "The user for which the check is being made"
        },
        "returns": {
          "_0": "True if the user has opted in"
        }
      },
      "userYieldGenerated(uint256,address)": {
        "params": {
          "termId": "The term id for which the yield is being calculated",
          "user": "The user for which the yield is being calculated"
        },
        "returns": {
          "_0": "The total yield generated for the user"
        }
      },
      "wasExpelled(uint256,address)": {
        "params": {
          "termId": "the fund id",
          "user": "the user to check"
        },
        "returns": {
          "_0": "true if the user was expelled before"
        }
      },
      "yieldDistributionRatio(uint256,address)": {
        "params": {
          "termId": "The term id for which the ratio is being calculated",
          "user": "The user for which the ratio is being calculated"
        },
        "returns": {
          "_0": "The yield distribution ratio for the user"
        }
      }
    },
    "version": 1
  },
  "userdoc": {
    "kind": "user",
    "methods": {
      "getCurrentBeneficiary(uint256)": {
        "notice": "function to get the current beneficiary"
      },
      "getFundSummary(uint256)": {
        "notice": "function to get the cycle information in one go"
      },
      "getLatestPrice()": {
        "notice": "Gets latest ETH / USD price"
      },
      "getParticipantFundSummary(address,uint256)": {
        "notice": "function to get cycle information of a specific participant"
      },
      "getRemainingContributionTime(uint256)": {
        "notice": "returns the time left to contribute for this cycle"
      },
      "getRemainingRegistrationTime(uint256)": {
        "notice": "Gets the remaining registration period for a term"
      },
      "getToCollateralConversionRate(uint256)": {
        "notice": "Gets the conversion rate of an amount in USD to ETH"
      },
      "getToStableConversionRate(uint256)": {
        "notice": "Gets the conversion rate of an amount in ETH to USD"
      },
      "getWithdrawableUserBalance(uint256,address)": {
        "notice": "Called to check how much collateral a user can withdraw"
      },
      "isExempted(uint256,uint256,address)": {
        "notice": "function to see if a user is exempted from paying a cycle"
      },
      "minCollateralToDeposit(uint256,uint256)": {
        "notice": "Called to check the minimum collateral amount to deposit in wei"
      },
      "termAPY(uint256)": {
        "notice": "This function is used to get a term APY"
      },
      "totalYieldGenerated(uint256)": {
        "notice": "This function is used to get the total yield generated for a term"
      },
      "userAPY(uint256,address)": {
        "notice": "This function is used to get a user APY"
      },
      "userHasoptedInYG(uint256,address)": {
        "notice": "This function is used to check if a user has opted in for yield generation"
      },
      "userYieldGenerated(uint256,address)": {
        "notice": "This function is used to get the total yield generated for a user"
      },
      "wasExpelled(uint256,address)": {
        "notice": "function to know if a user was expelled before"
      },
      "yieldDistributionRatio(uint256,address)": {
        "notice": "This function is used to get the yield distribution ratio for a user"
      }
    },
    "version": 1
  },
  "storageLayout": {
    "storage": [],
    "types": null
  }
}