{
  "address": "0x688C18Ac9265a1b53c69d7F0b655886046d3A0d6",
  "abi": [
    {
      "inputs": [
        {
          "internalType": "address",
          "name": "participant",
          "type": "address"
        }
      ],
      "name": "getAllJoinedTerms",
      "outputs": [
        {
          "internalType": "uint256[]",
          "name": "",
          "type": "uint256[]"
        }
      ],
      "stateMutability": "view",
      "type": "function"
    },
    {
      "inputs": [
        {
          "internalType": "uint256",
          "name": "termId",
          "type": "uint256"
        }
      ],
      "name": "getCollateralSummary",
      "outputs": [
        {
          "internalType": "bool",
          "name": "",
          "type": "bool"
        },
        {
          "internalType": "enum LibCollateralStorage.CollateralStates",
          "name": "",
          "type": "uint8"
        },
        {
          "internalType": "uint256",
          "name": "",
          "type": "uint256"
        },
        {
          "internalType": "uint256",
          "name": "",
          "type": "uint256"
        },
        {
          "internalType": "address[]",
          "name": "",
          "type": "address[]"
        }
      ],
      "stateMutability": "view",
      "type": "function"
    },
    {
      "inputs": [
        {
          "internalType": "string",
          "name": "firstAggregator",
          "type": "string"
        },
        {
          "internalType": "string",
          "name": "secondAggregator",
          "type": "string"
        },
        {
          "internalType": "string",
          "name": "zapAddress",
          "type": "string"
        },
        {
          "internalType": "string",
          "name": "vaultAddress",
          "type": "string"
        }
      ],
      "name": "getConstants",
      "outputs": [
        {
          "internalType": "address",
          "name": "",
          "type": "address"
        },
        {
          "internalType": "address",
          "name": "",
          "type": "address"
        },
        {
          "internalType": "address",
          "name": "",
          "type": "address"
        },
        {
          "internalType": "address",
          "name": "",
          "type": "address"
        }
      ],
      "stateMutability": "view",
      "type": "function"
    },
    {
      "inputs": [
        {
          "internalType": "uint256",
          "name": "termId",
          "type": "uint256"
        }
      ],
      "name": "getCurrentBeneficiary",
      "outputs": [
        {
          "internalType": "address",
          "name": "",
          "type": "address"
        }
      ],
      "stateMutability": "view",
      "type": "function"
    },
    {
      "inputs": [
        {
          "internalType": "address",
          "name": "depositor",
          "type": "address"
        },
        {
          "internalType": "uint256",
          "name": "termId",
          "type": "uint256"
        }
      ],
      "name": "getDepositorCollateralSummary",
      "outputs": [
        {
          "internalType": "bool",
          "name": "",
          "type": "bool"
        },
        {
          "internalType": "uint256",
          "name": "",
          "type": "uint256"
        },
        {
          "internalType": "uint256",
          "name": "",
          "type": "uint256"
        },
        {
          "internalType": "uint256",
          "name": "",
          "type": "uint256"
        },
        {
          "internalType": "uint256",
          "name": "",
          "type": "uint256"
        }
      ],
      "stateMutability": "view",
      "type": "function"
    },
    {
      "inputs": [
        {
          "internalType": "address",
          "name": "participant",
          "type": "address"
        }
      ],
      "name": "getExpelledTerms",
      "outputs": [
        {
          "internalType": "uint256[]",
          "name": "",
          "type": "uint256[]"
        }
      ],
      "stateMutability": "view",
      "type": "function"
    },
    {
      "inputs": [
        {
          "internalType": "uint256",
          "name": "termId",
          "type": "uint256"
        }
      ],
      "name": "getFundSummary",
      "outputs": [
        {
          "internalType": "bool",
          "name": "",
          "type": "bool"
        },
        {
          "internalType": "enum LibFundStorage.FundStates",
          "name": "",
          "type": "uint8"
        },
        {
          "internalType": "contract IERC20",
          "name": "",
          "type": "address"
        },
        {
          "internalType": "address[]",
          "name": "",
          "type": "address[]"
        },
        {
          "internalType": "uint256",
          "name": "",
          "type": "uint256"
        },
        {
          "internalType": "uint256",
          "name": "",
          "type": "uint256"
        },
        {
          "internalType": "uint256",
          "name": "",
          "type": "uint256"
        },
        {
          "internalType": "uint256",
          "name": "",
          "type": "uint256"
        }
      ],
      "stateMutability": "view",
      "type": "function"
    },
    {
      "inputs": [
        {
          "internalType": "address",
          "name": "participant",
          "type": "address"
        },
        {
          "internalType": "enum LibTermStorage.TermStates",
          "name": "state",
          "type": "uint8"
        }
      ],
      "name": "getJoinedTermsByState",
      "outputs": [
        {
          "internalType": "uint256[]",
          "name": "",
          "type": "uint256[]"
        }
      ],
      "stateMutability": "view",
      "type": "function"
    },
    {
      "inputs": [],
      "name": "getLatestPrice",
      "outputs": [
        {
          "internalType": "uint256",
          "name": "",
          "type": "uint256"
        }
      ],
      "stateMutability": "view",
      "type": "function"
    },
    {
      "inputs": [
        {
          "internalType": "address",
          "name": "participant",
          "type": "address"
        },
        {
          "internalType": "uint256",
          "name": "termId",
          "type": "uint256"
        }
      ],
      "name": "getParticipantFundSummary",
      "outputs": [
        {
          "internalType": "bool",
          "name": "",
          "type": "bool"
        },
        {
          "internalType": "bool",
          "name": "",
          "type": "bool"
        },
        {
          "internalType": "bool",
          "name": "",
          "type": "bool"
        },
        {
          "internalType": "bool",
          "name": "",
          "type": "bool"
        },
        {
          "internalType": "uint256",
          "name": "",
          "type": "uint256"
        },
        {
          "internalType": "bool",
          "name": "",
          "type": "bool"
        }
      ],
      "stateMutability": "view",
      "type": "function"
    },
    {
      "inputs": [
        {
          "internalType": "uint256",
          "name": "termId",
          "type": "uint256"
        }
      ],
      "name": "getRemainingContributionTime",
      "outputs": [
        {
          "internalType": "uint256",
          "name": "",
          "type": "uint256"
        }
      ],
      "stateMutability": "view",
      "type": "function"
    },
    {
      "inputs": [
        {
          "internalType": "uint256",
          "name": "termId",
          "type": "uint256"
        }
      ],
      "name": "getRemainingCycleTime",
      "outputs": [
        {
          "internalType": "uint256",
          "name": "",
          "type": "uint256"
        }
      ],
      "stateMutability": "view",
      "type": "function"
    },
    {
      "inputs": [
        {
          "internalType": "uint256",
          "name": "termId",
          "type": "uint256"
        }
      ],
      "name": "getRemainingCycles",
      "outputs": [
        {
          "internalType": "uint256",
          "name": "",
          "type": "uint256"
        }
      ],
      "stateMutability": "view",
      "type": "function"
    },
    {
      "inputs": [
        {
          "internalType": "uint256",
          "name": "termId",
          "type": "uint256"
        }
      ],
      "name": "getRemainingCyclesContributionWei",
      "outputs": [
        {
          "internalType": "uint256",
          "name": "",
          "type": "uint256"
        }
      ],
      "stateMutability": "view",
      "type": "function"
    },
    {
      "inputs": [
        {
          "internalType": "uint256",
          "name": "termId",
          "type": "uint256"
        }
      ],
      "name": "getRemainingRegistrationTime",
      "outputs": [
        {
          "internalType": "uint256",
          "name": "",
          "type": "uint256"
        }
      ],
      "stateMutability": "view",
      "type": "function"
    },
    {
      "inputs": [
        {
          "internalType": "uint256",
          "name": "termId",
          "type": "uint256"
        }
      ],
      "name": "getTermSummary",
      "outputs": [
        {
          "components": [
            {
              "internalType": "bool",
              "name": "initialized",
              "type": "bool"
            },
            {
              "internalType": "enum LibTermStorage.TermStates",
              "name": "state",
              "type": "uint8"
            },
            {
              "internalType": "address",
              "name": "termOwner",
              "type": "address"
            },
            {
              "internalType": "uint256",
              "name": "creationTime",
              "type": "uint256"
            },
            {
              "internalType": "uint256",
              "name": "termId",
              "type": "uint256"
            },
            {
              "internalType": "uint256",
              "name": "registrationPeriod",
              "type": "uint256"
            },
            {
              "internalType": "uint256",
              "name": "totalParticipants",
              "type": "uint256"
            },
            {
              "internalType": "uint256",
              "name": "cycleTime",
              "type": "uint256"
            },
            {
              "internalType": "uint256",
              "name": "contributionAmount",
              "type": "uint256"
            },
            {
              "internalType": "uint256",
              "name": "contributionPeriod",
              "type": "uint256"
            },
            {
              "internalType": "address",
              "name": "stableTokenAddress",
              "type": "address"
            }
          ],
          "internalType": "struct LibTermStorage.Term",
          "name": "",
          "type": "tuple"
        }
      ],
      "stateMutability": "view",
      "type": "function"
    },
    {
      "inputs": [],
      "name": "getTermsId",
      "outputs": [
        {
          "internalType": "uint256",
          "name": "",
          "type": "uint256"
        },
        {
          "internalType": "uint256",
          "name": "",
          "type": "uint256"
        }
      ],
      "stateMutability": "view",
      "type": "function"
    },
    {
      "inputs": [
        {
          "internalType": "uint256",
          "name": "USDAmount",
          "type": "uint256"
        }
      ],
      "name": "getToCollateralConversionRate",
      "outputs": [
        {
          "internalType": "uint256",
          "name": "",
          "type": "uint256"
        }
      ],
      "stateMutability": "view",
      "type": "function"
    },
    {
      "inputs": [
        {
          "internalType": "uint256",
          "name": "ethAmount",
          "type": "uint256"
        }
      ],
      "name": "getToStableConversionRate",
      "outputs": [
        {
          "internalType": "uint256",
          "name": "",
          "type": "uint256"
        }
      ],
      "stateMutability": "view",
      "type": "function"
    },
    {
      "inputs": [
        {
          "internalType": "uint256",
          "name": "termId",
          "type": "uint256"
        },
        {
          "internalType": "address",
          "name": "user",
          "type": "address"
        }
      ],
      "name": "getWithdrawableUserBalance",
      "outputs": [
        {
          "internalType": "uint256",
          "name": "allowedWithdrawal",
          "type": "uint256"
        }
      ],
      "stateMutability": "view",
      "type": "function"
    },
    {
      "inputs": [],
      "name": "getYieldLockState",
      "outputs": [
        {
          "internalType": "bool",
          "name": "",
          "type": "bool"
        }
      ],
      "stateMutability": "view",
      "type": "function"
    },
    {
      "inputs": [
        {
          "internalType": "uint256",
          "name": "termId",
          "type": "uint256"
        },
        {
          "internalType": "uint256",
          "name": "cycle",
          "type": "uint256"
        },
        {
          "internalType": "address",
          "name": "user",
          "type": "address"
        }
      ],
      "name": "isExempted",
      "outputs": [
        {
          "internalType": "bool",
          "name": "",
          "type": "bool"
        }
      ],
      "stateMutability": "view",
      "type": "function"
    },
    {
      "inputs": [
        {
          "internalType": "uint256",
          "name": "termId",
          "type": "uint256"
        },
        {
          "internalType": "uint256",
          "name": "depositorIndex",
          "type": "uint256"
        }
      ],
      "name": "minCollateralToDeposit",
      "outputs": [
        {
          "internalType": "uint256",
          "name": "amount",
          "type": "uint256"
        }
      ],
      "stateMutability": "view",
      "type": "function"
    },
    {
      "inputs": [
        {
          "internalType": "uint256",
          "name": "termId",
          "type": "uint256"
        }
      ],
      "name": "termAPY",
      "outputs": [
        {
          "internalType": "uint256",
          "name": "",
          "type": "uint256"
        }
      ],
      "stateMutability": "nonpayable",
      "type": "function"
    },
    {
      "inputs": [
        {
          "internalType": "uint256",
          "name": "termId",
          "type": "uint256"
        }
      ],
      "name": "totalYieldGenerated",
      "outputs": [
        {
          "internalType": "uint256",
          "name": "",
          "type": "uint256"
        }
      ],
      "stateMutability": "nonpayable",
      "type": "function"
    },
    {
      "inputs": [
        {
          "internalType": "uint256",
          "name": "termId",
          "type": "uint256"
        },
        {
          "internalType": "address",
          "name": "user",
          "type": "address"
        }
      ],
      "name": "userAPY",
      "outputs": [
        {
          "internalType": "uint256",
          "name": "",
          "type": "uint256"
        }
      ],
      "stateMutability": "nonpayable",
      "type": "function"
    },
    {
      "inputs": [
        {
          "internalType": "uint256",
          "name": "termId",
          "type": "uint256"
        },
        {
          "internalType": "address",
          "name": "user",
          "type": "address"
        }
      ],
      "name": "userHasoptedInYG",
      "outputs": [
        {
          "internalType": "bool",
          "name": "",
          "type": "bool"
        }
      ],
      "stateMutability": "view",
      "type": "function"
    },
    {
      "inputs": [
        {
          "internalType": "uint256",
          "name": "termId",
          "type": "uint256"
        },
        {
          "internalType": "address",
          "name": "user",
          "type": "address"
        }
      ],
      "name": "userYieldGenerated",
      "outputs": [
        {
          "internalType": "uint256",
          "name": "",
          "type": "uint256"
        }
      ],
      "stateMutability": "nonpayable",
      "type": "function"
    },
    {
      "inputs": [
        {
          "internalType": "uint256",
          "name": "termId",
          "type": "uint256"
        },
        {
          "internalType": "address",
          "name": "user",
          "type": "address"
        }
      ],
      "name": "wasExpelled",
      "outputs": [
        {
          "internalType": "bool",
          "name": "",
          "type": "bool"
        }
      ],
      "stateMutability": "view",
      "type": "function"
    },
    {
      "inputs": [
        {
          "internalType": "uint256",
          "name": "termId",
          "type": "uint256"
        },
        {
          "internalType": "address",
          "name": "user",
          "type": "address"
        }
      ],
      "name": "yieldDistributionRatio",
      "outputs": [
        {
          "internalType": "uint256",
          "name": "",
          "type": "uint256"
        }
      ],
      "stateMutability": "view",
      "type": "function"
    }
  ],
  "transactionHash": "0x11d7d81d777154faccd8774cd5d7a27d109ac52ae18090a86d4ac4796e3c8045",
  "args": [],
  "numDeployments": 12,
  "solcInputHash": "ee19a417e4e4cfe3fc9a4b09ec42989a",
  "bytecode": "0x608060405234801561001057600080fd5b50612365806100206000396000f3fe608060405234801561001057600080fd5b50600436106101da5760003560e01c806392a6c80211610104578063d7992e5b116100a2578063dbf4281011610071578063dbf42810146105e1578063dc9e24ae146105f4578063e6bbeae514610607578063f0d826e71461061a57600080fd5b8063d7992e5b1461055f578063d8f8e99114610572578063da3791ca1461059d578063dbd57683146105c157600080fd5b8063b7cf483f116100de578063b7cf483f14610497578063bb91b76d146104e8578063d072f4bc14610525578063d72bb87e1461053857600080fd5b806392a6c8021461042b578063afa6b9631461043e578063b6abd1a41461045157600080fd5b806365654fe31161017c5780637aed53a61161014b5780637aed53a6146103e057806380530731146103fd5780638e15f4731461041057806391ce5ff71461041857600080fd5b806365654fe31461035d57806375aaa78c1461037057806375d4e40b1461038357806377778baf146103cd57600080fd5b80631e993b53116101b85780631e993b53146102e15780633d17f1e0146103015780636191474c1461033757806362f02abd1461034a57600080fd5b80630c64c697146101df5780630fc4a7ef146102055780631268612d14610218575b600080fd5b6101f26101ed366004611c7f565b61062d565b6040519081526020015b60405180910390f35b6101f2610213366004611ca1565b6106ef565b6102a8610226366004611cd6565b60009081526000805160206122d0833981519152602090815260408083206001600160a01b039490941683526005840182528083205460068501835281842054600786018452828520546008870185528386205460098801865284872054600a909801909552929094205460ff91821696948216959282169493821693911690565b604080519615158752941515602087015292151593850193909352151560608401526080830191909152151560a082015260c0016101fc565b6102f46102ef366004611d00565b610723565b6040516101fc9190611d1b565b7f7c039906f7f8ca11e01b6987a88513563589699678f7d2a6c8447f44d69375f35460ff165b60405190151581526020016101fc565b6101f2610345366004611ca1565b610896565b6101f2610358366004611ca1565b610954565b6101f261036b366004611d5f565b610995565b6102f461037e366004611d00565b6109f1565b610327610391366004611d5f565b60009182526000805160206122b0833981519152602090815260408084206001600160a01b039390931684526007909201905290205460ff1690565b6101f26103db366004611d5f565b610aa3565b6103e8610c0a565b604080519283526020830191909152016101fc565b6101f261040b366004611ca1565b610c4d565b6101f2610ca2565b6101f2610426366004611ca1565b610f36565b6101f2610439366004611ca1565b610ffe565b6101f261044c366004611d5f565b61104b565b61046461045f366004611e2e565b6110a8565b604080516001600160a01b03958616815293851660208501529184169183019190915290911660608201526080016101fc565b6103276104a5366004611edb565b60009283526000805160206122d083398151915260209081526040808520938552600c90930181528284206001600160a01b039290921684525290205460ff1690565b6104fb6104f6366004611cd6565b6111aa565b6040805195151586526020860194909452928401919091526060830152608082015260a0016101fc565b6101f2610533366004611ca1565b61135c565b61054b610546366004611ca1565b61137e565b6040516101fc989796959493929190611f6a565b61032761056d366004611d5f565b611457565b610585610580366004611ca1565b6114f1565b6040516001600160a01b0390911681526020016101fc565b6105b06105ab366004611ca1565b61154d565b6040516101fc959493929190611fe8565b6105d46105cf366004611ca1565b611603565b6040516101fc9190612036565b6101f26105ef366004611ca1565b61174c565b6102f46106023660046120d4565b61190f565b6101f2610615366004611d5f565b611ae2565b6101f2610628366004611ca1565b611b5d565b60008281526000805160206122f083398151915260205260408120600481015483106106965760405162461bcd60e51b8152602060048201526013602482015272496e646578206f7574206f6620626f756e647360681b60448201526064015b60405180910390fd5b60006106b38260060154670de0b6b3a76400006105339190612125565b905060648483600401546106c7919061213c565b6106d19083612125565b6106dc906096612125565b6106e69190612165565b95945050505050565b6000806106fa610ca2565b90506000670de0b6b3a76400006107118584612125565b61071b9190612165565b949350505050565b60606000610730836109f1565b90506000815167ffffffffffffffff81111561074e5761074e611d8b565b604051908082528060200260200182016040528015610777578160200160208202803683370190505b508251909150600090815b818110156107f9576107ad85828151811061079f5761079f612179565b602002602001015188611457565b156107f1578481815181106107c4576107c4612179565b60200260200101518484815181106107de576107de612179565b6020026020010181815250508260010192505b600101610782565b5060008267ffffffffffffffff81111561081557610815611d8b565b60405190808252806020026020018201604052801561083e578160200160208202803683370190505b50905060005b8381101561088b5784818151811061085e5761085e612179565b602002602001015182828151811061087857610878612179565b6020908102919091010152600101610844565b509695505050505050565b60008181526000805160206122d0833981519152602090815260408083206000805160206122f083398151915290925282208154600190610100900460ff1660048111156108e6576108e6611f10565b146108f5575060009392505050565b60008160070154836002015460018560040154610912919061213c565b84600501546109219190612125565b61092b919061218f565b610935919061218f565b90508042111561094a57506000949350505050565b6106e6428261213c565b60008181526000805160206122d0833981519152602052604081206004810154601482015461098490600161218f565b61098e919061213c565b9392505050565b60008281526000805160206122b083398151915260205260408120600281015482906109c1904261213c565b90508082600401546109d3878761104b565b6109dd9190612165565b6106dc906301e13380612125565b92915050565b6001600160a01b03811660009081527f87101b21d556417ad2b8e8f2700dbad90721d5d50a1f435f2dee0b9dc981ac8b6020908152604080832080548251818502810185019093528083526060947f87101b21d556417ad2b8e8f2700dbad90721d5d50a1f435f2dee0b9dc981ac89949093929190830182828015610a9557602002820191906000526020600020905b815481526020019060010190808311610a81575b509398975050505050505050565b6000828152600080516020612310833981519152602090815260408083206000805160206122b083398151915283528184206001600160a01b038616855260058201845282852054600a8201909452918420548154919391600290610100900460ff166003811115610b1757610b17611f10565b03610b2d57610b26818361218f565b9450610c00565b60018454610100900460ff166003811115610b4a57610b4a611f10565b03610bfb5760405163f0d826e760e01b815260048101889052600090600a90309063f0d826e790602401602060405180830381865afa158015610b91573d6000803e3d6000fd5b505050506040513d601f19601f82011682018060405250810190610bb591906121a2565b610bc090600f612125565b610bca9190612165565b905080831115610bf05781610bdf828561213c565b610be9919061218f565b9550610bf5565b600095505b50610c00565b600094505b5050505092915050565b7f87101b21d556417ad2b8e8f2700dbad90721d5d50a1f435f2dee0b9dc981ac89805460009182918290610c409060019061213c565b9154919491935090915050565b60008181526000805160206122b08339815191526020526040812060028101548290610c79904261213c565b9050808260040154610c8a8661174c565b610c949190612165565b610711906301e13380612125565b6000807f138fa7b895cc6132bd44317f3510a9c38821e93ca223f9fdc532527c01963ec4905060008060008084600001604051610cec90661155120bd554d160ca1b815260070190565b9081526040805191829003602001822054633fabe5a360e21b835290516001600160a01b039091169163feaf968c9160048083019260a09291908290030181865afa158015610d3f573d6000803e3d6000fd5b505050506040513d601f19601f82011682018060405250810190610d6391906121d2565b94509450509350935081600014158015610d8f5750836001600160501b0316816001600160501b031610155b8015610d9b5750600083135b610de75760405162461bcd60e51b815260206004820152601b60248201527f436861696e6c696e6b4f7261636c653a207374616c6520646174610000000000604482015260640161068d565b60008060008088600001604051610e0c90671554d110cbd554d160c21b815260080190565b9081526040805191829003602001822054633fabe5a360e21b835290516001600160a01b039091169163feaf968c9160048083019260a09291908290030181865afa158015610e5f573d6000803e3d6000fd5b505050506040513d601f19601f82011682018060405250810190610e8391906121d2565b94509450509350935081600014158015610eaf5750836001600160501b0316816001600160501b031610155b8015610ebb5750600083135b610f075760405162461bcd60e51b815260206004820152601b60248201527f436861696e6c696e6b4f7261636c653a207374616c6520646174610000000000604482015260640161068d565b6000610f138489612222565b9050610f2781670de0b6b3a7640000612250565b9a505050505050505050505090565b60008181526000805160206122f083398151915260209081526040808320600080516020612310833981519152909252822060018101548303610fbb5760405162461bcd60e51b815260206004820152601860248201527f4e6f626f647920686173206465706f7369746564207965740000000000000000604482015260640161068d565b81600301548160010154610fcf919061218f565b4210610fdf575060009392505050565b4282600301548260010154610ff4919061218f565b61071b919061213c565b60008181526000805160206122d0833981519152602090815260408083206000805160206122f0833981519152909252822060028201546004830154600583015485929161092b91612125565b60008281526000805160206122b0833981519152602052604081206110708484611ae2565b6110798561174c565b6110839190612125565b6001600160a01b038416600090815260088301602052604090205461071b919061218f565b6040516000908190819081907f138fa7b895cc6132bd44317f3510a9c38821e93ca223f9fdc532527c01963ec4907ff27a5986330dc78d016d8604ee1a040d5a789fbaa2d0c27f5dfded4b616b8977908290611105908c90612280565b908152604051908190036020018120546001600160a01b031690839061112c908c90612280565b908152604051908190036020018120546001600160a01b0316908390611153908c90612280565b908152604051908190036020018120546001600160a01b031690849061117a908c90612280565b9081526040519081900360200190205492985090965094506001600160a01b031692505050945094509450949050565b6000818152600080516020612310833981519152602090815260408083206000805160206122d083398151915283528184206000805160206122f083398151915284528285206001600160a01b038816865260068201909452918420548493849384938493909290849060ff166112a0576006820154309063d072f4bc9061123a90670de0b6b3a7640000612125565b6040518263ffffffff1660e01b815260040161125891815260200190565b602060405180830381865afa158015611275573d6000803e3d6000fd5b505050506040513d601f19601f8201168201806040525081019061129991906121a2565b9050611303565b60405163f0d826e760e01b8152600481018b9052309063f0d826e790602401602060405180830381865afa1580156112dc573d6000803e3d6000fd5b505050506040513d601f19601f8201168201806040525081019061130091906121a2565b90505b6001600160a01b039a909a1660009081526004840160209081526040808320546005870183528184205460068801845282852054600790980190935292205460ff9092169c909b949a5090985092965091945050505050565b600080611367610ca2565b905060008161071185670de0b6b3a7640000612125565b60008080606081808080806000805160206122d083398151915260008b81526020918252604090819020805460028201546003830154600484015460148501546001860180548851818b0281018b0190995280895296995060ff80871699610100880490911698620100009097046001600160a01b031697919691879183018282801561143457602002820191906000526020600020905b81546001600160a01b03168152600190910190602001808311611416575b505050505094509850985098509850985098509850985050919395975091939597565b60008281526000805160206122d08339815191526020908152604080832060008051602061231083398151915283528184206001600160a01b0386168552600582019093529083205490919060ff161580156114ce57506001600160a01b038416600090815260048201602052604090205460ff16155b156114de576001925050506109eb565b6000925050506109eb565b505092915050565b60008181526000805160206122d0833981519152602052604081206004810154600180830191611521919061213c565b8154811061153157611531612179565b6000918252602090912001546001600160a01b03169392505050565b60008080806060816000805160206123108339815191526000888152602091825260409081902080546001820154600283015460038401805486518189028101890190975280875294975060ff8085169761010090950416959294919390929183918301828280156115e857602002820191906000526020600020905b81546001600160a01b031681526001909101906020018083116115ca575b50505050509050955095509550955095505091939590929450565b61167360408051610160810190915260008082526020820190815260200160006001600160a01b031681526020016000815260200160008152602001600081526020016000815260200160008152602001600081526020016000815260200160006001600160a01b031681525090565b60008281526000805160206122f0833981519152602090815260409182902082516101608101909352805460ff8082161515855291928401916101009091041660038111156116c4576116c4611f10565b60038111156116d5576116d5611f10565b815281546001600160a01b036201000090910481166020830152600183015460408301526002830154606083015260038301546080830152600483015460a0830152600583015460c0830152600683015460e083015260078301546101008301526008909201549091166101209091015292915050565b60008181526000805160206122b0833981519152602090815260408083206006810180548351818602810186019094528084529193859384939092918301828280156117c157602002820191906000526020600020905b81546001600160a01b031681526001909101906020018083116117a3575b505083519394506000925050505b8181101561182d578460080160008483815181106117ef576117ef612179565b60200260200101516001600160a01b03166001600160a01b031681526020019081526020016000205484611823919061218f565b93506001016117cf565b50600084600101604051611850906816985e5b95985d5b1d60ba1b815260090190565b90815260405190819003602001812054631398fee160e31b82526001600160a01b031690639cc7f7089061188c908a9060040190815260200190565b6020604051808303816000875af11580156118ab573d6000803e3d6000fd5b505050506040513d601f19601f820116820180604052508101906118cf91906121a2565b60038601546005870154600488015492935090916118ee848484611c51565b6118f8908861218f565b611902919061213c565b9998505050505050505050565b6060600061191c846109f1565b90506000815167ffffffffffffffff81111561193a5761193a611d8b565b604051908082528060200260200182016040528015611963578160200160208202803683370190505b508251909150600090815b81811015611a445786600381111561198857611988611f10565b7f87101b21d556417ad2b8e8f2700dbad90721d5d50a1f435f2dee0b9dc981ac8960010160008784815181106119c0576119c0612179565b6020026020010151815260200190815260200160002060000160019054906101000a900460ff1660038111156119f8576119f8611f10565b03611a3c57848181518110611a0f57611a0f612179565b6020026020010151848481518110611a2957611a29612179565b6020026020010181815250508260010192505b60010161196e565b5060008267ffffffffffffffff811115611a6057611a60611d8b565b604051908082528060200260200182016040528015611a89578160200160208202803683370190505b50905060005b83811015611ad657848181518110611aa957611aa9612179565b6020026020010151828281518110611ac357611ac3612179565b6020908102919091010152600101611a8f565b50979650505050505050565b60008281526000805160206122b083398151915260209081526040808320600080516020612310833981519152909252822060048201548303611b2a576000925050506109eb565b60048201546001600160a01b0385166000908152600583016020526040902054611b549190612165565b925050506109eb565b60008181526000805160206122d0833981519152602090815260408083206000805160206122f0833981519152909252822060048201546014830154849190611ba790600161218f565b611bb1919061213c565b90506000306001600160a01b031663d072f4bc8460060154670de0b6b3a7640000611bdc9190612125565b6040518263ffffffff1660e01b8152600401611bfa91815260200190565b602060405180830381865afa158015611c17573d6000803e3d6000fd5b505050506040513d601f19601f82011682018060405250810190611c3b91906121a2565b9050611c478183612125565b9695505050505050565b600081600003611c635750600061098e565b81611c6e8486612125565b611c789190612165565b905061098e565b60008060408385031215611c9257600080fd5b50508035926020909101359150565b600060208284031215611cb357600080fd5b5035919050565b80356001600160a01b0381168114611cd157600080fd5b919050565b60008060408385031215611ce957600080fd5b611cf283611cba565b946020939093013593505050565b600060208284031215611d1257600080fd5b61098e82611cba565b6020808252825182820181905260009190848201906040850190845b81811015611d5357835183529284019291840191600101611d37565b50909695505050505050565b60008060408385031215611d7257600080fd5b82359150611d8260208401611cba565b90509250929050565b634e487b7160e01b600052604160045260246000fd5b600082601f830112611db257600080fd5b813567ffffffffffffffff80821115611dcd57611dcd611d8b565b604051601f8301601f19908116603f01168101908282118183101715611df557611df5611d8b565b81604052838152866020858801011115611e0e57600080fd5b836020870160208301376000602085830101528094505050505092915050565b60008060008060808587031215611e4457600080fd5b843567ffffffffffffffff80821115611e5c57600080fd5b611e6888838901611da1565b95506020870135915080821115611e7e57600080fd5b611e8a88838901611da1565b94506040870135915080821115611ea057600080fd5b611eac88838901611da1565b93506060870135915080821115611ec257600080fd5b50611ecf87828801611da1565b91505092959194509250565b600080600060608486031215611ef057600080fd5b8335925060208401359150611f0760408501611cba565b90509250925092565b634e487b7160e01b600052602160045260246000fd5b600081518084526020808501945080840160005b83811015611f5f5781516001600160a01b031687529582019590820190600101611f3a565b509495945050505050565b60006101008a1515835260058a10611f8457611f84611f10565b602083018a90526001600160a01b038916604084015260608301819052611fad81840189611f26565b9150508560808301528460a08301528360c08301528260e08301529998505050505050505050565b60048110611fe557611fe5611f10565b50565b8515158152611ff685611fd5565b84602082015283604082015282606082015260a06080820152600061201e60a0830184611f26565b979650505050505050565b61203281611fd5565b9052565b815115158152610160810160208301516120536020840182612029565b50604083015161206e60408401826001600160a01b03169052565b50606083015160608301526080830151608083015260a083015160a083015260c083015160c083015260e083015160e0830152610100808401518184015250610120808401518184015250610140808401516114e9828501826001600160a01b03169052565b600080604083850312156120e757600080fd5b6120f083611cba565b915060208301356004811061210457600080fd5b809150509250929050565b634e487b7160e01b600052601160045260246000fd5b80820281158282048414176109eb576109eb61210f565b818103818111156109eb576109eb61210f565b634e487b7160e01b600052601260045260246000fd5b6000826121745761217461214f565b500490565b634e487b7160e01b600052603260045260246000fd5b808201808211156109eb576109eb61210f565b6000602082840312156121b457600080fd5b5051919050565b80516001600160501b0381168114611cd157600080fd5b600080600080600060a086880312156121ea57600080fd5b6121f3866121bb565b9450602086015193506040860151925060608601519150612216608087016121bb565b90509295509295909350565b6000826122315761223161214f565b600160ff1b82146000198414161561224b5761224b61210f565b500590565b80820260008212600160ff1b8414161561226c5761226c61210f565b81810583148215176109eb576109eb61210f565b6000825160005b818110156122a15760208186018101518583015201612287565b50600092019182525091905056fe29d9cba46c358ba7c1b8945751229339792c7c62e3197c240fa98916e75ffbf96751f7e27cecf86d7136f5749c224248cae80a39fafb59f8f6bf12c52816307c87101b21d556417ad2b8e8f2700dbad90721d5d50a1f435f2dee0b9dc981ac8a35fa70a6f9ae8a4d427ebe0c1be62ffd2870fecc1df41c6fda0bf5803e562888a2646970667358221220e152f39349fb1c4110998f23381004d6eb8d149a1801c6e0e9f67e3f1fcda1b864736f6c63430008120033",
  "devdoc": {
    "kind": "dev",
    "methods": {
      "getAllJoinedTerms(address)": {
        "params": {
          "participant": "the participant address"
        },
        "returns": {
          "_0": "an array with the term ids the participant is part of"
        }
      },
      "getCollateralSummary(uint256)": {
        "params": {
          "termId": "the collateral id"
        },
        "returns": {
          "_0": "collateral initialized",
          "_1": "collateral state",
          "_2": "collateral firstDepositTime",
          "_3": "counterMembers",
          "_4": "collateral depositors"
        }
      },
      "getConstants(string,string,string,string)": {
        "params": {
          "firstAggregator": "The name of the first aggregator. Example: \"ETH/USD\"",
          "secondAggregator": "The name of the second aggregator. Example: \"USDC/USD\"",
          "vaultAddress": "The name of the vault address. Example: \"ZaynVault\"",
          "zapAddress": "The name of the zap address. Example: \"ZaynZap\""
        }
      },
      "getCurrentBeneficiary(uint256)": {
        "params": {
          "termId": "the fund id"
        },
        "returns": {
          "_0": "the current beneficiary"
        }
      },
      "getDepositorCollateralSummary(address,uint256)": {
        "params": {
          "depositor": "the depositor address",
          "termId": "the collateral id"
        },
        "returns": {
          "_0": "isCollateralMember",
          "_1": "collateralMembersBank",
          "_2": "collateralPaymentBank",
          "_3": "collateralDepositByUser",
          "_4": "expulsion limit"
        }
      },
      "getExpelledTerms(address)": {
        "params": {
          "participant": "the participant address"
        },
        "returns": {
          "_0": "an array the term ids the participant is part of, giving the state of the term"
        }
      },
      "getFundSummary(uint256)": {
        "params": {
          "termId": "the fund id"
        },
        "returns": {
          "_0": "fund initialized",
          "_1": "fund currentState",
          "_2": "fund stableToken",
          "_3": "fund beneficiariesOrder",
          "_4": "fund fundStart",
          "_5": "fund fundEnd",
          "_6": "fund currentCycle",
          "_7": "fund totalAmountOfCycles"
        }
      },
      "getJoinedTermsByState(address,uint8)": {
        "params": {
          "participant": "the participant address",
          "state": "the term state"
        },
        "returns": {
          "_0": "an array with the term ids the participant is part of, giving the state of the term"
        }
      },
      "getLatestPrice()": {
        "returns": {
          "_0": "uint latest price in Wei Note: 18 decimals"
        }
      },
      "getParticipantFundSummary(address,uint256)": {
        "params": {
          "participant": "the user to get the info from",
          "termId": "the fund id"
        },
        "returns": {
          "_0": "fund isParticipant, true if is participant",
          "_1": "fund isBeneficiary, true if has been beneficiary",
          "_2": "fund paidThisCycle, true if has paid the current cycle",
          "_3": "fund autoPayEnabled, true if auto pay is enabled",
          "_4": "fund beneficiariesPool, the beneficiary pool, 6 decimals",
          "_5": "fund beneficiariesFrozenPool, true if the beneficiary pool is frozen"
        }
      },
      "getRemainingContributionTime(uint256)": {
        "params": {
          "termId": "the fund id"
        },
        "returns": {
          "_0": "the time left to contribute"
        }
      },
      "getRemainingCycleTime(uint256)": {
        "params": {
          "termId": "the term id"
        },
        "returns": {
          "_0": "remaining time in the current cycle"
        }
      },
      "getRemainingCycles(uint256)": {
        "params": {
          "termId": "the term id"
        },
        "returns": {
          "_0": "remaining cycles"
        }
      },
      "getRemainingCyclesContributionWei(uint256)": {
        "params": {
          "termId": "the term id"
        },
        "returns": {
          "_0": "remaining cycles contribution"
        }
      },
      "getRemainingRegistrationTime(uint256)": {
        "params": {
          "termId": "the term id"
        },
        "returns": {
          "_0": "remaining contribution period"
        }
      },
      "getTermSummary(uint256)": {
        "params": {
          "termId": "the term id"
        },
        "returns": {
          "_0": "the term struct"
        }
      },
      "getTermsId()": {
        "returns": {
          "_0": "the current term id",
          "_1": "the next term id"
        }
      },
      "getToCollateralConversionRate(uint256)": {
        "details": "should we always deal with in Wei?",
        "params": {
          "USDAmount": "The amount in USD with 18 decimals"
        },
        "returns": {
          "_0": "uint converted amount in wei"
        }
      },
      "getToStableConversionRate(uint256)": {
        "details": "should we always deal with in Wei?",
        "params": {
          "ethAmount": "The amount in ETH"
        },
        "returns": {
          "_0": "uint converted amount in USD correct to 18 decimals"
        }
      },
      "getWithdrawableUserBalance(uint256,address)": {
        "params": {
          "termId": "term id",
          "user": "depositor address"
        },
        "returns": {
          "allowedWithdrawal": "amount the amount of collateral the depositor can withdraw"
        }
      },
      "isExempted(uint256,uint256,address)": {
        "params": {
          "cycle": "the cycle to check",
          "termId": "the fund id",
          "user": "the user to check"
        },
        "returns": {
          "_0": "true if the user is exempted"
        }
      },
      "minCollateralToDeposit(uint256,uint256)": {
        "details": "The minimum collateral amount is calculated based on the index on the depositors arrayThe return value should be the minimum msg.value when calling joinTermC = 1.5 Cp (Tp - I) where C = minimum collateral amount, Cp = contribution amount, Tp = total participants, I = depositor index (starts at 0). 1.5",
        "returns": {
          "amount": "the minimum collateral amount to deposit in wei"
        }
      },
      "termAPY(uint256)": {
        "params": {
          "termId": "The term id for which the APY is being calculated"
        },
        "returns": {
          "_0": "The APY for the term"
        }
      },
      "totalYieldGenerated(uint256)": {
        "params": {
          "termId": "The term id for which the yield is being calculated"
        },
        "returns": {
          "_0": "The total yield generated for the term"
        }
      },
      "userAPY(uint256,address)": {
        "params": {
          "termId": "The term id for which the APY is being calculated",
          "user": "The user for which the APY is being calculated"
        },
        "returns": {
          "_0": "The APY for the user"
        }
      },
      "userHasoptedInYG(uint256,address)": {
        "params": {
          "termId": "The term id for which the check is being made",
          "user": "The user for which the check is being made"
        },
        "returns": {
          "_0": "True if the user has opted in"
        }
      },
      "userYieldGenerated(uint256,address)": {
        "params": {
          "termId": "The term id for which the yield is being calculated",
          "user": "The user for which the yield is being calculated"
        },
        "returns": {
          "_0": "The total yield generated for the user"
        }
      },
      "wasExpelled(uint256,address)": {
        "params": {
          "termId": "the fund id",
          "user": "the user to check"
        },
        "returns": {
          "_0": "true if the user was expelled before"
        }
      },
      "yieldDistributionRatio(uint256,address)": {
        "params": {
          "termId": "The term id for which the ratio is being calculated",
          "user": "The user for which the ratio is being calculated"
        },
        "returns": {
          "_0": "The yield distribution ratio for the user"
        }
      }
    },
    "version": 1
  },
  "userdoc": {
    "kind": "user",
    "methods": {
      "getConstants(string,string,string,string)": {
        "notice": "This function return the current constant values for oracles and yield providers"
      },
      "getCurrentBeneficiary(uint256)": {
        "notice": "function to get the current beneficiary"
      },
      "getFundSummary(uint256)": {
        "notice": "function to get the cycle information in one go"
      },
      "getLatestPrice()": {
        "notice": "Gets latest ETH / USD price"
      },
      "getParticipantFundSummary(address,uint256)": {
        "notice": "function to get cycle information of a specific participant"
      },
      "getRemainingContributionTime(uint256)": {
        "notice": "returns the time left to contribute for this cycle"
      },
      "getRemainingRegistrationTime(uint256)": {
        "notice": "Gets the remaining registration period for a term"
      },
      "getToCollateralConversionRate(uint256)": {
        "notice": "Gets the conversion rate of an amount in USD to ETH"
      },
      "getToStableConversionRate(uint256)": {
        "notice": "Gets the conversion rate of an amount in ETH to USD"
      },
      "getWithdrawableUserBalance(uint256,address)": {
        "notice": "Called to check how much collateral a user can withdraw"
      },
      "getYieldLockState()": {
        "notice": "This function is used to get the current state of the yield lock"
      },
      "isExempted(uint256,uint256,address)": {
        "notice": "function to see if a user is exempted from paying a cycle"
      },
      "minCollateralToDeposit(uint256,uint256)": {
        "notice": "Called to check the minimum collateral amount to deposit in wei"
      },
      "termAPY(uint256)": {
        "notice": "This function is used to get a term APY"
      },
      "totalYieldGenerated(uint256)": {
        "notice": "This function is used to get the total yield generated for a term"
      },
      "userAPY(uint256,address)": {
        "notice": "This function is used to get a user APY"
      },
      "userHasoptedInYG(uint256,address)": {
        "notice": "This function is used to check if a user has opted in for yield generation"
      },
      "userYieldGenerated(uint256,address)": {
        "notice": "This function is used to get the total yield generated for a user"
      },
      "wasExpelled(uint256,address)": {
        "notice": "function to know if a user was expelled before"
      },
      "yieldDistributionRatio(uint256,address)": {
        "notice": "This function is used to get the yield distribution ratio for a user"
      }
    },
    "version": 1
  },
  "storageLayout": {
    "storage": [],
    "types": null
  }
}