{
  "address": "0x39EBfDD21810211Fc529b46984e5Bc89EE78D6B5",
  "abi": [
    {
      "inputs": [
        {
          "internalType": "uint256",
          "name": "termId",
          "type": "uint256"
        },
        {
          "internalType": "address",
          "name": "user",
          "type": "address"
        }
      ],
      "name": "expelledBeforeBeneficiary",
      "outputs": [
        {
          "internalType": "bool",
          "name": "",
          "type": "bool"
        }
      ],
      "stateMutability": "view",
      "type": "function"
    },
    {
      "inputs": [
        {
          "internalType": "address",
          "name": "participant",
          "type": "address"
        }
      ],
      "name": "getAllJoinedTerms",
      "outputs": [
        {
          "internalType": "uint256[]",
          "name": "",
          "type": "uint256[]"
        }
      ],
      "stateMutability": "view",
      "type": "function"
    },
    {
      "inputs": [
        {
          "internalType": "uint256",
          "name": "termId",
          "type": "uint256"
        }
      ],
      "name": "getCollateralSummary",
      "outputs": [
        {
          "internalType": "bool",
          "name": "",
          "type": "bool"
        },
        {
          "internalType": "enum LibCollateralStorage.CollateralStates",
          "name": "",
          "type": "uint8"
        },
        {
          "internalType": "uint256",
          "name": "",
          "type": "uint256"
        },
        {
          "internalType": "uint256",
          "name": "",
          "type": "uint256"
        },
        {
          "internalType": "address[]",
          "name": "",
          "type": "address[]"
        }
      ],
      "stateMutability": "view",
      "type": "function"
    },
    {
      "inputs": [
        {
          "internalType": "string",
          "name": "firstAggregator",
          "type": "string"
        },
        {
          "internalType": "string",
          "name": "secondAggregator",
          "type": "string"
        },
        {
          "internalType": "string",
          "name": "zapAddress",
          "type": "string"
        },
        {
          "internalType": "string",
          "name": "vaultAddress",
          "type": "string"
        }
      ],
      "name": "getConstants",
      "outputs": [
        {
          "internalType": "address",
          "name": "",
          "type": "address"
        },
        {
          "internalType": "address",
          "name": "",
          "type": "address"
        },
        {
          "internalType": "address",
          "name": "",
          "type": "address"
        },
        {
          "internalType": "address",
          "name": "",
          "type": "address"
        }
      ],
      "stateMutability": "view",
      "type": "function"
    },
    {
      "inputs": [
        {
          "internalType": "uint256",
          "name": "termId",
          "type": "uint256"
        }
      ],
      "name": "getCurrentBeneficiary",
      "outputs": [
        {
          "internalType": "address",
          "name": "",
          "type": "address"
        }
      ],
      "stateMutability": "view",
      "type": "function"
    },
    {
      "inputs": [
        {
          "internalType": "address",
          "name": "depositor",
          "type": "address"
        },
        {
          "internalType": "uint256",
          "name": "termId",
          "type": "uint256"
        }
      ],
      "name": "getDepositorCollateralSummary",
      "outputs": [
        {
          "internalType": "bool",
          "name": "",
          "type": "bool"
        },
        {
          "internalType": "uint256",
          "name": "",
          "type": "uint256"
        },
        {
          "internalType": "uint256",
          "name": "",
          "type": "uint256"
        },
        {
          "internalType": "uint256",
          "name": "",
          "type": "uint256"
        },
        {
          "internalType": "uint256",
          "name": "",
          "type": "uint256"
        }
      ],
      "stateMutability": "view",
      "type": "function"
    },
    {
      "inputs": [
        {
          "internalType": "address",
          "name": "participant",
          "type": "address"
        }
      ],
      "name": "getExpelledTerms",
      "outputs": [
        {
          "internalType": "uint256[]",
          "name": "",
          "type": "uint256[]"
        }
      ],
      "stateMutability": "view",
      "type": "function"
    },
    {
      "inputs": [
        {
          "internalType": "uint256",
          "name": "termId",
          "type": "uint256"
        }
      ],
      "name": "getFundSummary",
      "outputs": [
        {
          "internalType": "bool",
          "name": "",
          "type": "bool"
        },
        {
          "internalType": "enum LibFundStorage.FundStates",
          "name": "",
          "type": "uint8"
        },
        {
          "internalType": "contract IERC20",
          "name": "",
          "type": "address"
        },
        {
          "internalType": "address[]",
          "name": "",
          "type": "address[]"
        },
        {
          "internalType": "uint256",
          "name": "",
          "type": "uint256"
        },
        {
          "internalType": "uint256",
          "name": "",
          "type": "uint256"
        },
        {
          "internalType": "uint256",
          "name": "",
          "type": "uint256"
        },
        {
          "internalType": "uint256",
          "name": "",
          "type": "uint256"
        }
      ],
      "stateMutability": "view",
      "type": "function"
    },
    {
      "inputs": [
        {
          "internalType": "address",
          "name": "participant",
          "type": "address"
        },
        {
          "internalType": "enum LibTermStorage.TermStates",
          "name": "state",
          "type": "uint8"
        }
      ],
      "name": "getJoinedTermsByState",
      "outputs": [
        {
          "internalType": "uint256[]",
          "name": "",
          "type": "uint256[]"
        }
      ],
      "stateMutability": "view",
      "type": "function"
    },
    {
      "inputs": [],
      "name": "getLatestPrice",
      "outputs": [
        {
          "internalType": "uint256",
          "name": "",
          "type": "uint256"
        }
      ],
      "stateMutability": "view",
      "type": "function"
    },
    {
      "inputs": [
        {
          "internalType": "address",
          "name": "user",
          "type": "address"
        }
      ],
      "name": "getNeededAllowance",
      "outputs": [
        {
          "internalType": "uint256",
          "name": "",
          "type": "uint256"
        }
      ],
      "stateMutability": "view",
      "type": "function"
    },
    {
      "inputs": [
        {
          "internalType": "address",
          "name": "participant",
          "type": "address"
        },
        {
          "internalType": "uint256",
          "name": "termId",
          "type": "uint256"
        }
      ],
      "name": "getParticipantFundSummary",
      "outputs": [
        {
          "internalType": "bool",
          "name": "",
          "type": "bool"
        },
        {
          "internalType": "bool",
          "name": "",
          "type": "bool"
        },
        {
          "internalType": "bool",
          "name": "",
          "type": "bool"
        },
        {
          "internalType": "bool",
          "name": "",
          "type": "bool"
        },
        {
          "internalType": "uint256",
          "name": "",
          "type": "uint256"
        },
        {
          "internalType": "bool",
          "name": "",
          "type": "bool"
        }
      ],
      "stateMutability": "view",
      "type": "function"
    },
    {
      "inputs": [
        {
          "internalType": "uint256",
          "name": "termId",
          "type": "uint256"
        }
      ],
      "name": "getRemainingContributionTime",
      "outputs": [
        {
          "internalType": "uint256",
          "name": "",
          "type": "uint256"
        }
      ],
      "stateMutability": "view",
      "type": "function"
    },
    {
      "inputs": [
        {
          "internalType": "uint256",
          "name": "termId",
          "type": "uint256"
        }
      ],
      "name": "getRemainingCycleTime",
      "outputs": [
        {
          "internalType": "uint256",
          "name": "",
          "type": "uint256"
        }
      ],
      "stateMutability": "view",
      "type": "function"
    },
    {
      "inputs": [
        {
          "internalType": "uint256",
          "name": "termId",
          "type": "uint256"
        }
      ],
      "name": "getRemainingCycles",
      "outputs": [
        {
          "internalType": "uint256",
          "name": "",
          "type": "uint256"
        }
      ],
      "stateMutability": "view",
      "type": "function"
    },
    {
      "inputs": [
        {
          "internalType": "uint256",
          "name": "termId",
          "type": "uint256"
        }
      ],
      "name": "getRemainingCyclesContributionWei",
      "outputs": [
        {
          "internalType": "uint256",
          "name": "",
          "type": "uint256"
        }
      ],
      "stateMutability": "view",
      "type": "function"
    },
    {
      "inputs": [
        {
          "internalType": "uint256",
          "name": "termId",
          "type": "uint256"
        }
      ],
      "name": "getRemainingRegistrationTime",
      "outputs": [
        {
          "internalType": "uint256",
          "name": "",
          "type": "uint256"
        }
      ],
      "stateMutability": "view",
      "type": "function"
    },
    {
      "inputs": [
        {
          "internalType": "uint256",
          "name": "termId",
          "type": "uint256"
        }
      ],
      "name": "getTermSummary",
      "outputs": [
        {
          "components": [
            {
              "internalType": "bool",
              "name": "initialized",
              "type": "bool"
            },
            {
              "internalType": "enum LibTermStorage.TermStates",
              "name": "state",
              "type": "uint8"
            },
            {
              "internalType": "address",
              "name": "termOwner",
              "type": "address"
            },
            {
              "internalType": "uint256",
              "name": "creationTime",
              "type": "uint256"
            },
            {
              "internalType": "uint256",
              "name": "termId",
              "type": "uint256"
            },
            {
              "internalType": "uint256",
              "name": "registrationPeriod",
              "type": "uint256"
            },
            {
              "internalType": "uint256",
              "name": "totalParticipants",
              "type": "uint256"
            },
            {
              "internalType": "uint256",
              "name": "cycleTime",
              "type": "uint256"
            },
            {
              "internalType": "uint256",
              "name": "contributionAmount",
              "type": "uint256"
            },
            {
              "internalType": "uint256",
              "name": "contributionPeriod",
              "type": "uint256"
            },
            {
              "internalType": "address",
              "name": "stableTokenAddress",
              "type": "address"
            }
          ],
          "internalType": "struct LibTermStorage.Term",
          "name": "",
          "type": "tuple"
        }
      ],
      "stateMutability": "view",
      "type": "function"
    },
    {
      "inputs": [],
      "name": "getTermsId",
      "outputs": [
        {
          "internalType": "uint256",
          "name": "",
          "type": "uint256"
        },
        {
          "internalType": "uint256",
          "name": "",
          "type": "uint256"
        }
      ],
      "stateMutability": "view",
      "type": "function"
    },
    {
      "inputs": [
        {
          "internalType": "uint256",
          "name": "USDAmount",
          "type": "uint256"
        }
      ],
      "name": "getToCollateralConversionRate",
      "outputs": [
        {
          "internalType": "uint256",
          "name": "",
          "type": "uint256"
        }
      ],
      "stateMutability": "view",
      "type": "function"
    },
    {
      "inputs": [
        {
          "internalType": "uint256",
          "name": "ethAmount",
          "type": "uint256"
        }
      ],
      "name": "getToStableConversionRate",
      "outputs": [
        {
          "internalType": "uint256",
          "name": "",
          "type": "uint256"
        }
      ],
      "stateMutability": "view",
      "type": "function"
    },
    {
      "inputs": [
        {
          "internalType": "address",
          "name": "participant",
          "type": "address"
        },
        {
          "internalType": "uint256",
          "name": "termId",
          "type": "uint256"
        }
      ],
      "name": "getUserSet",
      "outputs": [
        {
          "internalType": "bool",
          "name": "",
          "type": "bool"
        },
        {
          "internalType": "bool",
          "name": "",
          "type": "bool"
        },
        {
          "internalType": "bool",
          "name": "",
          "type": "bool"
        }
      ],
      "stateMutability": "view",
      "type": "function"
    },
    {
      "inputs": [
        {
          "internalType": "address",
          "name": "user",
          "type": "address"
        },
        {
          "internalType": "uint256",
          "name": "termId",
          "type": "uint256"
        }
      ],
      "name": "getUserYieldSummary",
      "outputs": [
        {
          "internalType": "bool",
          "name": "",
          "type": "bool"
        },
        {
          "internalType": "uint256",
          "name": "",
          "type": "uint256"
        },
        {
          "internalType": "uint256",
          "name": "",
          "type": "uint256"
        },
        {
          "internalType": "uint256",
          "name": "",
          "type": "uint256"
        },
        {
          "internalType": "uint256",
          "name": "",
          "type": "uint256"
        }
      ],
      "stateMutability": "view",
      "type": "function"
    },
    {
      "inputs": [
        {
          "internalType": "uint256",
          "name": "termId",
          "type": "uint256"
        },
        {
          "internalType": "address",
          "name": "user",
          "type": "address"
        }
      ],
      "name": "getWithdrawableUserBalance",
      "outputs": [
        {
          "internalType": "uint256",
          "name": "allowedWithdrawal",
          "type": "uint256"
        }
      ],
      "stateMutability": "view",
      "type": "function"
    },
    {
      "inputs": [],
      "name": "getYieldLockState",
      "outputs": [
        {
          "internalType": "bool",
          "name": "",
          "type": "bool"
        }
      ],
      "stateMutability": "view",
      "type": "function"
    },
    {
      "inputs": [
        {
          "internalType": "uint256",
          "name": "termId",
          "type": "uint256"
        }
      ],
      "name": "getYieldSummary",
      "outputs": [
        {
          "internalType": "bool",
          "name": "",
          "type": "bool"
        },
        {
          "internalType": "uint256",
          "name": "",
          "type": "uint256"
        },
        {
          "internalType": "uint256",
          "name": "",
          "type": "uint256"
        },
        {
          "internalType": "uint256",
          "name": "",
          "type": "uint256"
        },
        {
          "internalType": "uint256",
          "name": "",
          "type": "uint256"
        },
        {
          "internalType": "address[]",
          "name": "",
          "type": "address[]"
        },
        {
          "internalType": "address",
          "name": "",
          "type": "address"
        },
        {
          "internalType": "address",
          "name": "",
          "type": "address"
        }
      ],
      "stateMutability": "view",
      "type": "function"
    },
    {
      "inputs": [
        {
          "internalType": "uint256",
          "name": "termId",
          "type": "uint256"
        },
        {
          "internalType": "address",
          "name": "beneficiary",
          "type": "address"
        }
      ],
      "name": "isBeneficiary",
      "outputs": [
        {
          "internalType": "bool",
          "name": "",
          "type": "bool"
        }
      ],
      "stateMutability": "view",
      "type": "function"
    },
    {
      "inputs": [
        {
          "internalType": "uint256",
          "name": "termId",
          "type": "uint256"
        },
        {
          "internalType": "uint256",
          "name": "cycle",
          "type": "uint256"
        },
        {
          "internalType": "address",
          "name": "user",
          "type": "address"
        }
      ],
      "name": "isExempted",
      "outputs": [
        {
          "internalType": "bool",
          "name": "",
          "type": "bool"
        }
      ],
      "stateMutability": "view",
      "type": "function"
    },
    {
      "inputs": [
        {
          "internalType": "uint256",
          "name": "termId",
          "type": "uint256"
        },
        {
          "internalType": "address",
          "name": "member",
          "type": "address"
        }
      ],
      "name": "isUnderCollaterized",
      "outputs": [
        {
          "internalType": "bool",
          "name": "",
          "type": "bool"
        }
      ],
      "stateMutability": "view",
      "type": "function"
    },
    {
      "inputs": [
        {
          "internalType": "uint256",
          "name": "termId",
          "type": "uint256"
        },
        {
          "internalType": "uint256",
          "name": "depositorIndex",
          "type": "uint256"
        }
      ],
      "name": "minCollateralToDeposit",
      "outputs": [
        {
          "internalType": "uint256",
          "name": "amount",
          "type": "uint256"
        }
      ],
      "stateMutability": "view",
      "type": "function"
    },
    {
      "inputs": [
        {
          "internalType": "uint256",
          "name": "termId",
          "type": "uint256"
        }
      ],
      "name": "termAPY",
      "outputs": [
        {
          "internalType": "uint256",
          "name": "",
          "type": "uint256"
        }
      ],
      "stateMutability": "view",
      "type": "function"
    },
    {
      "inputs": [
        {
          "internalType": "uint256",
          "name": "termId",
          "type": "uint256"
        }
      ],
      "name": "totalYieldGenerated",
      "outputs": [
        {
          "internalType": "uint256",
          "name": "",
          "type": "uint256"
        }
      ],
      "stateMutability": "view",
      "type": "function"
    },
    {
      "inputs": [
        {
          "internalType": "uint256",
          "name": "termId",
          "type": "uint256"
        },
        {
          "internalType": "address",
          "name": "user",
          "type": "address"
        }
      ],
      "name": "userAPY",
      "outputs": [
        {
          "internalType": "uint256",
          "name": "",
          "type": "uint256"
        }
      ],
      "stateMutability": "view",
      "type": "function"
    },
    {
      "inputs": [
        {
          "internalType": "uint256",
          "name": "termId",
          "type": "uint256"
        },
        {
          "internalType": "address",
          "name": "user",
          "type": "address"
        }
      ],
      "name": "userHasoptedInYG",
      "outputs": [
        {
          "internalType": "bool",
          "name": "",
          "type": "bool"
        }
      ],
      "stateMutability": "view",
      "type": "function"
    },
    {
      "inputs": [
        {
          "internalType": "uint256",
          "name": "termId",
          "type": "uint256"
        },
        {
          "internalType": "address",
          "name": "user",
          "type": "address"
        }
      ],
      "name": "userYieldGenerated",
      "outputs": [
        {
          "internalType": "uint256",
          "name": "",
          "type": "uint256"
        }
      ],
      "stateMutability": "view",
      "type": "function"
    },
    {
      "inputs": [
        {
          "internalType": "uint256",
          "name": "termId",
          "type": "uint256"
        },
        {
          "internalType": "address",
          "name": "user",
          "type": "address"
        }
      ],
      "name": "wasExpelled",
      "outputs": [
        {
          "internalType": "bool",
          "name": "",
          "type": "bool"
        }
      ],
      "stateMutability": "view",
      "type": "function"
    },
    {
      "inputs": [
        {
          "internalType": "uint256",
          "name": "termId",
          "type": "uint256"
        },
        {
          "internalType": "address",
          "name": "user",
          "type": "address"
        }
      ],
      "name": "yieldDistributionRatio",
      "outputs": [
        {
          "internalType": "uint256",
          "name": "",
          "type": "uint256"
        }
      ],
      "stateMutability": "view",
      "type": "function"
    }
  ],
  "transactionHash": "0x49249090f2b6fcd0a20e7266db85b1d1e5d28fbade547c665b1cf147415348f6",
  "args": [],
  "numDeployments": 20,
  "solcInputHash": "e0361222973f2339ca5bc079a2fca1c8",
  "bytecode": "0x608060405234801561001057600080fd5b506129a9806100206000396000f3fe608060405234801561001057600080fd5b50600436106102275760003560e01c80639d4eb26f11610130578063d8f8e991116100b8578063e51a62951161007c578063e51a629514610754578063e6bbeae514610767578063e9783e601461077a578063f0d826e7146107c4578063fd4dba9d146107d757600080fd5b8063d8f8e991146106bf578063da3791ca146106ea578063dbd576831461070e578063dbf428101461072e578063dc9e24ae1461074157600080fd5b8063bb91b76d116100ff578063bb91b76d1461064c578063c177f0911461065f578063d072f4bc14610672578063d72bb87e14610685578063d7992e5b146106ac57600080fd5b80639d4eb26f1461057b578063afa6b963146105a2578063b6abd1a4146105b5578063b7cf483f146105fb57600080fd5b80636bbbb5fb116101b35780637aed53a6116101825780637aed53a61461051d578063805307311461053a5780638e15f4731461054d57806391ce5ff71461055557806392a6c8021461056857600080fd5b80636bbbb5fb1461046357806375aaa78c146104ad57806375d4e40b146104c057806377778baf1461050a57600080fd5b80631e993b53116101fa5780631e993b53146103d45780633d17f1e0146103f45780636191474c1461042a57806362f02abd1461043d57806365654fe31461045057600080fd5b80630c64c6971461022c5780630fc4a7ef146102525780631268612d146102655780631c162dbe1461032e575b600080fd5b61023f61023a3660046121f8565b610809565b6040519081526020015b60405180910390f35b61023f61026036600461221a565b6108cb565b6102f561027336600461224f565b60009081526000805160206128f4833981519152602090815260408083206001600160a01b039490941683526005840182528083205460068501835281842054600786018452828520546008870185528386205460098801865284872054600a909801909552929094205460ff91821696948216959282169493821693911690565b604080519615158752941515602087015292151593850193909352151560608401526080830191909152151560a082015260c001610249565b6103aa61033c36600461224f565b60009081526000805160206128d4833981519152602090815260408083206001600160a01b03949094168352600784018252808320546008850183528184205460098601845282852054600a8701855283862054600b909701909452919093205460ff909316949093919290565b6040805195151586526020860194909452928401919091526060830152608082015260a001610249565b6103e76103e2366004612279565b6108ff565b6040516102499190612294565b7f7c039906f7f8ca11e01b6987a88513563589699678f7d2a6c8447f44d69375f35460ff165b6040519015158152602001610249565b61023f61043836600461221a565b610a72565b61023f61044b36600461221a565b610b30565b61023f61045e3660046122d8565b610b71565b61041a6104713660046122d8565b60009182526000805160206128f4833981519152602090815260408084206001600160a01b039390931684526015909201905290205460ff1690565b6103e76104bb366004612279565b610bcd565b61041a6104ce3660046122d8565b60009182526000805160206128d4833981519152602090815260408084206001600160a01b039390931684526007909201905290205460ff1690565b61023f6105183660046122d8565b610c6d565b610525610dae565b60408051928352602083019190915201610249565b61023f61054836600461221a565b610ddf565b61023f610e46565b61023f61056336600461221a565b6110da565b61023f61057636600461221a565b6111a2565b61058e61058936600461221a565b6111ef565b604051610249989796959493929190612348565b61023f6105b03660046122d8565b61132a565b6105c86105c3366004612448565b611387565b604080516001600160a01b0395861681529385166020850152918416918301919091529091166060820152608001610249565b61041a6106093660046124f5565b60009283526000805160206128f483398151915260209081526040808520938552600c90930181528284206001600160a01b039290921684525290205460ff1690565b6103aa61065a36600461224f565b611489565b61041a61066d3660046122d8565b611581565b61023f61068036600461221a565b61158d565b61069861069336600461221a565b6115af565b604051610249989796959493929190612540565b61041a6106ba3660046122d8565b611688565b6106d26106cd36600461221a565b611722565b6040516001600160a01b039091168152602001610249565b6106fd6106f836600461221a565b61177e565b6040516102499594939291906125be565b61072161071c36600461221a565b611834565b604051610249919061260c565b61023f61073c36600461221a565b61197d565b6103e761074f3660046126aa565b611bf7565b61023f610762366004612279565b611db8565b61023f6107753660046122d8565b611f1b565b61041a6107883660046122d8565b60009182526000805160206128f4833981519152602090815260408084206001600160a01b039390931684526006909201905290205460ff1690565b61023f6107d236600461221a565b611fa7565b6107ea6107e536600461224f565b612030565b6040805193151584529115156020840152151590820152606001610249565b600082815260008051602061291483398151915260205260408120600481015483106108725760405162461bcd60e51b8152602060048201526013602482015272496e646578206f7574206f6620626f756e647360681b60448201526064015b60405180910390fd5b600061088f8260060154670de0b6b3a764000061068091906126fb565b905060648483600401546108a39190612712565b6108ad90836126fb565b6108b89060966126fb565b6108c2919061273b565b95945050505050565b6000806108d6610e46565b90506000670de0b6b3a76400006108ed85846126fb565b6108f7919061273b565b949350505050565b6060600061090c83610bcd565b90506000815167ffffffffffffffff81111561092a5761092a6123a5565b604051908082528060200260200182016040528015610953578160200160208202803683370190505b508251909150600090815b818110156109d55761098985828151811061097b5761097b61274f565b602002602001015188611688565b156109cd578481815181106109a0576109a061274f565b60200260200101518484815181106109ba576109ba61274f565b6020026020010181815250508260010192505b60010161095e565b5060008267ffffffffffffffff8111156109f1576109f16123a5565b604051908082528060200260200182016040528015610a1a578160200160208202803683370190505b50905060005b83811015610a6757848181518110610a3a57610a3a61274f565b6020026020010151828281518110610a5457610a5461274f565b6020908102919091010152600101610a20565b509695505050505050565b60008181526000805160206128f48339815191526020908152604080832060008051602061291483398151915290925282208154600190610100900460ff166004811115610ac257610ac261252a565b14610ad1575060009392505050565b60008160070154836002015460018560040154610aee9190612712565b8460050154610afd91906126fb565b610b079190612765565b610b119190612765565b905080421115610b2657506000949350505050565b6108c24282612712565b60008181526000805160206128f48339815191526020526040812060048101546014820154610b60906001612765565b610b6a9190612712565b9392505050565b60008281526000805160206128d48339815191526020526040812060028101548290610b9d9042612712565b9050808260040154610baf878761132a565b610bb9919061273b565b6108b8906301e133806126fb565b92915050565b6001600160a01b03811660009081527f87101b21d556417ad2b8e8f2700dbad90721d5d50a1f435f2dee0b9dc981ac8b602090815260408083208054825181850281018501909352808352606094600080516020612954833981519152949093929190830182828015610c5f57602002820191906000526020600020905b815481526020019060010190808311610c4b575b509398975050505050505050565b60008281526000805160206128f48339815191526020908152604080832060008051602061293483398151915283528184206000805160206128d483398151915284528285206001600160a01b038716865260058201855283862054600a82018652848720546015850190965293862054825493959294919391929160ff918216916002916101009004166003811115610d0957610d0961252a565b1480610d125750805b15610d2857610d218284612765565b9650610da2565b60018554610100900460ff166003811115610d4557610d4561252a565b03610d9d576000600a610d578b611fa7565b610d6290600f6126fb565b610d6c919061273b565b905080841115610d925782610d818286612712565b610d8b9190612765565b9750610d97565b600097505b50610da2565b600096505b50505050505092915050565b600080516020612954833981519152805460009182918290610dd290600190612712565b9154919491935090915050565b60008181526000805160206128d48339815191526020526040812060028101548290610e0b9042612712565b9050808260040154610e1c8661197d565b610e2e90670de0b6b3a76400006126fb565b610e38919061273b565b6108ed906301e133806126fb565b6000807f138fa7b895cc6132bd44317f3510a9c38821e93ca223f9fdc532527c01963ec4905060008060008084600001604051610e9090661155120bd554d160ca1b815260070190565b9081526040805191829003602001822054633fabe5a360e21b835290516001600160a01b039091169163feaf968c9160048083019260a09291908290030181865afa158015610ee3573d6000803e3d6000fd5b505050506040513d601f19601f82011682018060405250810190610f07919061278f565b94509450509350935081600014158015610f335750836001600160501b0316816001600160501b031610155b8015610f3f5750600083135b610f8b5760405162461bcd60e51b815260206004820152601b60248201527f436861696e6c696e6b4f7261636c653a207374616c65206461746100000000006044820152606401610869565b60008060008088600001604051610fb090671554d110cbd554d160c21b815260080190565b9081526040805191829003602001822054633fabe5a360e21b835290516001600160a01b039091169163feaf968c9160048083019260a09291908290030181865afa158015611003573d6000803e3d6000fd5b505050506040513d601f19601f82011682018060405250810190611027919061278f565b945094505093509350816000141580156110535750836001600160501b0316816001600160501b031610155b801561105f5750600083135b6110ab5760405162461bcd60e51b815260206004820152601b60248201527f436861696e6c696e6b4f7261636c653a207374616c65206461746100000000006044820152606401610869565b60006110b784896127df565b90506110cb81670de0b6b3a764000061280d565b9a505050505050505050505090565b60008181526000805160206129148339815191526020908152604080832060008051602061293483398151915290925282206001810154830361115f5760405162461bcd60e51b815260206004820152601860248201527f4e6f626f647920686173206465706f73697465642079657400000000000000006044820152606401610869565b816003015481600101546111739190612765565b4210611183575060009392505050565b42826003015482600101546111989190612765565b6108f79190612712565b60008181526000805160206128f4833981519152602090815260408083206000805160206129148339815191529092528220600282015460048301546005830154859291610b07916126fb565b60008080808060608180806000805160206128d483398151915260000160008b815260200190815260200160002090508060000160009054906101000a900460ff1681600201548260030154836004015484600501548560060186600101604051611269906816985e5b95985d5b1d60ba1b815260090190565b908152604051908190036020018120546001600160a01b031690600189019061129f906605a61796e5a61760cc1b815260070190565b908152604080519182900360209081018320548554808302850183019093528284526001600160a01b03169291859183018282801561130757602002820191906000526020600020905b81546001600160a01b031681526001909101906020018083116112e9575b505050505092509850985098509850985098509850985050919395975091939597565b60008281526000805160206128d48339815191526020526040812061134f8484611f1b565b6113588561197d565b61136291906126fb565b6001600160a01b03841660009081526008830160205260409020546108f79190612765565b6040516000908190819081907f138fa7b895cc6132bd44317f3510a9c38821e93ca223f9fdc532527c01963ec4907ff27a5986330dc78d016d8604ee1a040d5a789fbaa2d0c27f5dfded4b616b89779082906113e4908c9061283d565b908152604051908190036020018120546001600160a01b031690839061140b908c9061283d565b908152604051908190036020018120546001600160a01b0316908390611432908c9061283d565b908152604051908190036020018120546001600160a01b0316908490611459908c9061283d565b9081526040519081900360200190205492985090965094506001600160a01b031692505050945094509450949050565b6000818152600080516020612934833981519152602090815260408083206000805160206128f4833981519152835281842060008051602061291483398151915284528285206001600160a01b038816865260068201909452918420548493849384938493909290849060ff1661151c576115158260060154670de0b6b3a764000061068091906126fb565b9050611528565b6115258a611fa7565b90505b6001600160a01b039a909a1660009081526004840160209081526040808320546005870183528184205460068801845282852054600790980190935292205460ff9092169c909b949a5090985092965091945050505050565b6000610b6a838361208f565b600080611598610e46565b90506000816108ed85670de0b6b3a76400006126fb565b60008080606081808080806000805160206128f483398151915260008b81526020918252604090819020805460028201546003830154600484015460148501546001860180548851818b0281018b0190995280895296995060ff80871699610100880490911698620100009097046001600160a01b031697919691879183018282801561166557602002820191906000526020600020905b81546001600160a01b03168152600190910190602001808311611647575b505050505094509850985098509850985098509850985050919395975091939597565b60008281526000805160206128f48339815191526020908152604080832060008051602061293483398151915283528184206001600160a01b0386168552600582019093529083205490919060ff161580156116ff57506001600160a01b038416600090815260048201602052604090205460ff16155b1561170f57600192505050610bc7565b600092505050610bc7565b505092915050565b60008181526000805160206128f48339815191526020526040812060048101546001808301916117529190612712565b815481106117625761176261274f565b6000918252602090912001546001600160a01b03169392505050565b60008080806060816000805160206129348339815191526000888152602091825260409081902080546001820154600283015460038401805486518189028101890190975280875294975060ff80851697610100909504169592949193909291839183018282801561181957602002820191906000526020600020905b81546001600160a01b031681526001909101906020018083116117fb575b50505050509050955095509550955095505091939590929450565b6118a460408051610160810190915260008082526020820190815260200160006001600160a01b031681526020016000815260200160008152602001600081526020016000815260200160008152602001600081526020016000815260200160006001600160a01b031681525090565b6000828152600080516020612914833981519152602090815260409182902082516101608101909352805460ff8082161515855291928401916101009091041660038111156118f5576118f561252a565b60038111156119065761190661252a565b815281546001600160a01b036201000090910481166020830152600183015460408301526002830154606083015260038301546080830152600483015460a0830152600583015460c0830152600683015460e083015260078301546101008301526008909201549091166101209091015292915050565b60008181526000805160206128d4833981519152602090815260408083206006810180548351818602810186019094528084529193859384939092918301828280156119f257602002820191906000526020600020905b81546001600160a01b031681526001909101906020018083116119d4575b505083519394506000925050505b81811015611a5e57846008016000848381518110611a2057611a2061274f565b60200260200101516001600160a01b03166001600160a01b031681526020019081526020016000205484611a549190612765565b9350600101611a00565b50600084600101604051611a81906816985e5b95985d5b1d60ba1b815260090190565b90815260405190819003602001812054631398fee160e31b82526001600160a01b031690639cc7f70890611abd908a9060040190815260200190565b602060405180830381865afa158015611ada573d6000803e3d6000fd5b505050506040513d601f19601f82011682018060405250810190611afe919061286c565b9050600085600101604051611b22906816985e5b95985d5b1d60ba1b815260090190565b908152604080516020928190038301812054631df1ee3f60e21b825291516001600160a01b03909216926377c7b8fc926004808401938290030181865afa158015611b71573d6000803e3d6000fd5b505050506040513d601f19601f82011682018060405250810190611b95919061286c565b90506000670de0b6b3a7640000611bac83856126fb565b611bb6919061273b565b90508660040154811115611bea576004870154611bd38288612765565b611bdd9190612712565b9998505050505050505050565b5093979650505050505050565b60606000611c0484610bcd565b90506000815167ffffffffffffffff811115611c2257611c226123a5565b604051908082528060200260200182016040528015611c4b578160200160208202803683370190505b508251909150600090815b81811015611d1a57866003811115611c7057611c7061252a565b6000805160206129548339815191526001016000878481518110611c9657611c9661274f565b6020026020010151815260200190815260200160002060000160019054906101000a900460ff166003811115611cce57611cce61252a565b03611d1257848181518110611ce557611ce561274f565b6020026020010151848481518110611cff57611cff61274f565b6020026020010181815250508260010192505b600101611c56565b5060008267ffffffffffffffff811115611d3657611d366123a5565b604051908082528060200260200182016040528015611d5f578160200160208202803683370190505b50905060005b83811015611dac57848181518110611d7f57611d7f61274f565b6020026020010151828281518110611d9957611d9961274f565b6020908102919091010152600101611d65565b50979650505050505050565b6000806000611dc8846001611bf7565b90506000611dd7856000611bf7565b825181519192509060005b82811015611e855760006000805160206129548339815191526001016000878481518110611e1257611e1261274f565b6020026020010151815260200190815260200160002090506000611e4e878481518110611e4157611e4161274f565b6020026020010151610b30565b8260060154611e5d91906126fb565b611e6a90620f42406126fb565b9050611e768189612765565b97508260010192505050611de2565b5060005b81811015611f0f5760006000805160206129548339815191526001016000868481518110611eb957611eb961274f565b602002602001015181526020019081526020016000209050600081600401548260060154611ee791906126fb565b611ef490620f42406126fb565b9050611f008189612765565b97508260010192505050611e89565b50939695505050505050565b60008281526000805160206128d48339815191526020526040812060048101548203611f4b576000915050610bc7565b60048101546001600160a01b0384166000908152600983016020908152604080832054600b860190925290912054611f839190612712565b611f9590670de0b6b3a76400006126fb565b611f9f919061273b565b915050610bc7565b60008181526000805160206128f483398151915260209081526040808320600080516020612914833981519152909252822060048201546014830154849190611ff1906001612765565b611ffb9190612712565b9050600061201a8360060154670de0b6b3a764000061068091906126fb565b905061202681836126fb565b9695505050505050565b60008181526000805160206128f483398151915260205260408120819081908161205d600d8301886121d6565b9050600061206e83600f01896121d6565b9050600061207f846011018a6121d6565b9299919850919650945050505050565b6000828152600080516020612934833981519152602090815260408083206001600160a01b03851684526005810190925282205482906120eb8660009081526000805160206128f4833981519152602052604090205460ff1690565b61216a5760405163bb91b76d60e01b81526001600160a01b038616600482015260248101879052309063bb91b76d9060440160a060405180830381865afa15801561213a573d6000803e3d6000fd5b505050506040513d601f19601f8201168201806040525081019061215e9190612885565b95506121cd9350505050565b60405163f0d826e760e01b815260048101879052309063f0d826e790602401602060405180830381865afa1580156121a6573d6000803e3d6000fd5b505050506040513d601f19601f820116820180604052508101906121ca919061286c565b91505b10949350505050565b6001600160a01b03811660009081526001830160205260408120541515610b6a565b6000806040838503121561220b57600080fd5b50508035926020909101359150565b60006020828403121561222c57600080fd5b5035919050565b80356001600160a01b038116811461224a57600080fd5b919050565b6000806040838503121561226257600080fd5b61226b83612233565b946020939093013593505050565b60006020828403121561228b57600080fd5b610b6a82612233565b6020808252825182820181905260009190848201906040850190845b818110156122cc578351835292840192918401916001016122b0565b50909695505050505050565b600080604083850312156122eb57600080fd5b823591506122fb60208401612233565b90509250929050565b600081518084526020808501945080840160005b8381101561233d5781516001600160a01b031687529582019590820190600101612318565b509495945050505050565b60006101008a151583528960208401528860408401528760608401528660808401528060a084015261237c81840187612304565b6001600160a01b0395861660c08501529390941660e09092019190915250979650505050505050565b634e487b7160e01b600052604160045260246000fd5b600082601f8301126123cc57600080fd5b813567ffffffffffffffff808211156123e7576123e76123a5565b604051601f8301601f19908116603f0116810190828211818310171561240f5761240f6123a5565b8160405283815286602085880101111561242857600080fd5b836020870160208301376000602085830101528094505050505092915050565b6000806000806080858703121561245e57600080fd5b843567ffffffffffffffff8082111561247657600080fd5b612482888389016123bb565b9550602087013591508082111561249857600080fd5b6124a4888389016123bb565b945060408701359150808211156124ba57600080fd5b6124c6888389016123bb565b935060608701359150808211156124dc57600080fd5b506124e9878288016123bb565b91505092959194509250565b60008060006060848603121561250a57600080fd5b833592506020840135915061252160408501612233565b90509250925092565b634e487b7160e01b600052602160045260246000fd5b60006101008a1515835260058a1061255a5761255a61252a565b602083018a90526001600160a01b03891660408401526060830181905261258381840189612304565b9150508560808301528460a08301528360c08301528260e08301529998505050505050505050565b600481106125bb576125bb61252a565b50565b85151581526125cc856125ab565b84602082015283604082015282606082015260a0608082015260006125f460a0830184612304565b979650505050505050565b612608816125ab565b9052565b8151151581526101608101602083015161262960208401826125ff565b50604083015161264460408401826001600160a01b03169052565b50606083015160608301526080830151608083015260a083015160a083015260c083015160c083015260e083015160e08301526101008084015181840152506101208084015181840152506101408084015161171a828501826001600160a01b03169052565b600080604083850312156126bd57600080fd5b6126c683612233565b91506020830135600481106126da57600080fd5b809150509250929050565b634e487b7160e01b600052601160045260246000fd5b8082028115828204841417610bc757610bc76126e5565b81810381811115610bc757610bc76126e5565b634e487b7160e01b600052601260045260246000fd5b60008261274a5761274a612725565b500490565b634e487b7160e01b600052603260045260246000fd5b80820180821115610bc757610bc76126e5565b80516001600160501b038116811461224a57600080fd5b600080600080600060a086880312156127a757600080fd5b6127b086612778565b94506020860151935060408601519250606086015191506127d360808701612778565b90509295509295909350565b6000826127ee576127ee612725565b600160ff1b821460001984141615612808576128086126e5565b500590565b80820260008212600160ff1b84141615612829576128296126e5565b8181058314821517610bc757610bc76126e5565b6000825160005b8181101561285e5760208186018101518583015201612844565b506000920191825250919050565b60006020828403121561287e57600080fd5b5051919050565b600080600080600060a0868803121561289d57600080fd5b855180151581146128ad57600080fd5b602087015160408801516060890151608090990151929a9199509796509094509250505056fe29d9cba46c358ba7c1b8945751229339792c7c62e3197c240fa98916e75ffbf96751f7e27cecf86d7136f5749c224248cae80a39fafb59f8f6bf12c52816307c87101b21d556417ad2b8e8f2700dbad90721d5d50a1f435f2dee0b9dc981ac8a35fa70a6f9ae8a4d427ebe0c1be62ffd2870fecc1df41c6fda0bf5803e56288887101b21d556417ad2b8e8f2700dbad90721d5d50a1f435f2dee0b9dc981ac89a26469706673582212203eb40682fb858cadbef8650c83d835994b8ed22058a8b700ccbe68e0982c1d2964736f6c63430008120033",
  "devdoc": {
    "kind": "dev",
    "methods": {
      "expelledBeforeBeneficiary(uint256,address)": {
        "params": {
          "termId": "the id of the term",
          "user": "the address of the participant to check"
        },
        "returns": {
          "_0": "true if the participant is expelled before being a beneficiary"
        }
      },
      "getAllJoinedTerms(address)": {
        "params": {
          "participant": "the participant address"
        },
        "returns": {
          "_0": "an array with the term ids the participant is part of"
        }
      },
      "getCollateralSummary(uint256)": {
        "params": {
          "termId": "the collateral id"
        },
        "returns": {
          "_0": "collateral initialized",
          "_1": "collateral state",
          "_2": "collateral firstDepositTime",
          "_3": "counterMembers",
          "_4": "collateral depositors"
        }
      },
      "getConstants(string,string,string,string)": {
        "params": {
          "firstAggregator": "The name of the first aggregator. Example: \"ETH/USD\"",
          "secondAggregator": "The name of the second aggregator. Example: \"USDC/USD\"",
          "vaultAddress": "The name of the vault address. Example: \"ZaynVault\"",
          "zapAddress": "The name of the zap address. Example: \"ZaynZap\""
        }
      },
      "getCurrentBeneficiary(uint256)": {
        "params": {
          "termId": "the fund id"
        },
        "returns": {
          "_0": "the current beneficiary"
        }
      },
      "getDepositorCollateralSummary(address,uint256)": {
        "params": {
          "depositor": "the depositor address",
          "termId": "the collateral id"
        },
        "returns": {
          "_0": "isCollateralMember",
          "_1": "collateralMembersBank",
          "_2": "collateralPaymentBank",
          "_3": "collateralDepositByUser",
          "_4": "expulsion limit"
        }
      },
      "getExpelledTerms(address)": {
        "params": {
          "participant": "the participant address"
        },
        "returns": {
          "_0": "an array the term ids the participant is part of, giving the state of the term"
        }
      },
      "getFundSummary(uint256)": {
        "params": {
          "termId": "the fund id"
        },
        "returns": {
          "_0": "fund initialized",
          "_1": "fund currentState",
          "_2": "fund stableToken",
          "_3": "fund beneficiariesOrder",
          "_4": "fund fundStart",
          "_5": "fund fundEnd",
          "_6": "fund currentCycle",
          "_7": "fund totalAmountOfCycles"
        }
      },
      "getJoinedTermsByState(address,uint8)": {
        "params": {
          "participant": "the participant address",
          "state": "the term state"
        },
        "returns": {
          "_0": "an array with the term ids the participant is part of, giving the state of the term"
        }
      },
      "getLatestPrice()": {
        "returns": {
          "_0": "uint latest price in Wei Note: 18 decimals"
        }
      },
      "getNeededAllowance(address)": {
        "params": {
          "user": "the user address"
        },
        "returns": {
          "_0": "the needed allowance"
        }
      },
      "getParticipantFundSummary(address,uint256)": {
        "params": {
          "participant": "the user to get the info from",
          "termId": "the fund id"
        },
        "returns": {
          "_0": "fund isParticipant, true if is participant",
          "_1": "fund isBeneficiary, true if has been beneficiary",
          "_2": "fund paidThisCycle, true if has paid the current cycle",
          "_3": "fund autoPayEnabled, true if auto pay is enabled",
          "_4": "fund beneficiariesPool, the beneficiary pool, 6 decimals",
          "_5": "fund beneficiariesFrozenPool, true if the beneficiary pool is frozen"
        }
      },
      "getRemainingContributionTime(uint256)": {
        "params": {
          "termId": "the fund id"
        },
        "returns": {
          "_0": "the time left to contribute"
        }
      },
      "getRemainingCycleTime(uint256)": {
        "params": {
          "termId": "the term id"
        },
        "returns": {
          "_0": "remaining time in the current cycle"
        }
      },
      "getRemainingCycles(uint256)": {
        "params": {
          "termId": "the term id"
        },
        "returns": {
          "_0": "remaining cycles"
        }
      },
      "getRemainingCyclesContributionWei(uint256)": {
        "params": {
          "termId": "the term id"
        },
        "returns": {
          "_0": "remaining cycles contribution"
        }
      },
      "getRemainingRegistrationTime(uint256)": {
        "params": {
          "termId": "the term id"
        },
        "returns": {
          "_0": "remaining contribution period"
        }
      },
      "getTermSummary(uint256)": {
        "params": {
          "termId": "the term id"
        },
        "returns": {
          "_0": "the term struct"
        }
      },
      "getTermsId()": {
        "returns": {
          "_0": "the current term id",
          "_1": "the next term id"
        }
      },
      "getToCollateralConversionRate(uint256)": {
        "details": "should we always deal with in Wei?",
        "params": {
          "USDAmount": "The amount in USD with 18 decimals"
        },
        "returns": {
          "_0": "uint converted amount in wei"
        }
      },
      "getToStableConversionRate(uint256)": {
        "details": "should we always deal with in Wei?",
        "params": {
          "ethAmount": "The amount in ETH"
        },
        "returns": {
          "_0": "uint converted amount in USD correct to 18 decimals"
        }
      },
      "getUserSet(address,uint256)": {
        "params": {
          "participant": "the user to get the info from",
          "termId": "the fund id"
        },
        "returns": {
          "_0": "on participant set",
          "_1": "on beneficiary set",
          "_2": "on defaulter set"
        }
      },
      "getUserYieldSummary(address,uint256)": {
        "params": {
          "termId": "the collateral id",
          "user": "the depositor address"
        },
        "returns": {
          "_0": "hasOptedIn",
          "_1": "withdrawnYield",
          "_2": "withdrawnCollateral",
          "_3": "availableYield",
          "_4": "depositedCollateralByUser"
        }
      },
      "getWithdrawableUserBalance(uint256,address)": {
        "params": {
          "termId": "term id",
          "user": "depositor address"
        },
        "returns": {
          "allowedWithdrawal": "amount the amount of collateral the depositor can withdraw"
        }
      },
      "getYieldSummary(uint256)": {
        "params": {
          "termId": "the collateral id"
        },
        "returns": {
          "_0": "initialized",
          "_1": "startTimeStamp",
          "_2": "totalDeposit",
          "_3": "currentTotalDeposit",
          "_4": "totalShares",
          "_5": "yieldUsers",
          "_6": "vaultAddress",
          "_7": "zapAddress"
        }
      },
      "isBeneficiary(uint256,address)": {
        "params": {
          "beneficiary": "the address of the participant to check",
          "termId": "the id of the term"
        },
        "returns": {
          "_0": "true if the participant is a beneficiary"
        }
      },
      "isExempted(uint256,uint256,address)": {
        "params": {
          "cycle": "the cycle to check",
          "termId": "the fund id",
          "user": "the user to check"
        },
        "returns": {
          "_0": "true if the user is exempted"
        }
      },
      "isUnderCollaterized(uint256,address)": {
        "details": "This will revert if called during ReleasingCollateral or after",
        "params": {
          "member": "The user to check for",
          "termId": "The term id"
        },
        "returns": {
          "_0": "Bool check if member is below 1.0x of collateralDeposit"
        }
      },
      "minCollateralToDeposit(uint256,uint256)": {
        "details": "The minimum collateral amount is calculated based on the index on the depositors arrayThe return value should be the minimum msg.value when calling joinTermC = 1.5 Cp (Tp - I) where C = minimum collateral amount, Cp = contribution amount, Tp = total participants, I = depositor index (starts at 0). 1.5",
        "returns": {
          "amount": "the minimum collateral amount to deposit in wei"
        }
      },
      "termAPY(uint256)": {
        "params": {
          "termId": "The term id for which the APY is being calculated"
        },
        "returns": {
          "_0": "The APY for the term"
        }
      },
      "totalYieldGenerated(uint256)": {
        "params": {
          "termId": "The term id for which the yield is being calculated"
        },
        "returns": {
          "_0": "The total yield generated for the term"
        }
      },
      "userAPY(uint256,address)": {
        "params": {
          "termId": "The term id for which the APY is being calculated",
          "user": "The user for which the APY is being calculated"
        },
        "returns": {
          "_0": "The APY for the user"
        }
      },
      "userHasoptedInYG(uint256,address)": {
        "params": {
          "termId": "The term id for which the check is being made",
          "user": "The user for which the check is being made"
        },
        "returns": {
          "_0": "True if the user has opted in"
        }
      },
      "userYieldGenerated(uint256,address)": {
        "params": {
          "termId": "The term id for which the yield is being calculated",
          "user": "The user for which the yield is being calculated"
        },
        "returns": {
          "_0": "The total yield generated for the user"
        }
      },
      "wasExpelled(uint256,address)": {
        "params": {
          "termId": "the fund id",
          "user": "the user to check"
        },
        "returns": {
          "_0": "true if the user was expelled before"
        }
      },
      "yieldDistributionRatio(uint256,address)": {
        "params": {
          "termId": "The term id for which the ratio is being calculated",
          "user": "The user for which the ratio is being calculated"
        },
        "returns": {
          "_0": "The yield distribution ratio for the user"
        }
      }
    },
    "version": 1
  },
  "userdoc": {
    "kind": "user",
    "methods": {
      "getConstants(string,string,string,string)": {
        "notice": "This function return the current constant values for oracles and yield providers"
      },
      "getCurrentBeneficiary(uint256)": {
        "notice": "function to get the current beneficiary"
      },
      "getFundSummary(uint256)": {
        "notice": "function to get the cycle information in one go"
      },
      "getLatestPrice()": {
        "notice": "Gets latest ETH / USD price"
      },
      "getNeededAllowance(address)": {
        "notice": "a function to get the needed allowance for every active term the user is part of"
      },
      "getParticipantFundSummary(address,uint256)": {
        "notice": "function to get fund information of a specific participant"
      },
      "getRemainingContributionTime(uint256)": {
        "notice": "returns the time left to contribute for this cycle"
      },
      "getRemainingRegistrationTime(uint256)": {
        "notice": "Gets the remaining registration period for a term"
      },
      "getToCollateralConversionRate(uint256)": {
        "notice": "Gets the conversion rate of an amount in USD to ETH"
      },
      "getToStableConversionRate(uint256)": {
        "notice": "Gets the conversion rate of an amount in ETH to USD"
      },
      "getUserSet(address,uint256)": {
        "notice": "function to get cycle information of a specific participant"
      },
      "getWithdrawableUserBalance(uint256,address)": {
        "notice": "Called to check how much collateral a user can withdraw"
      },
      "getYieldLockState()": {
        "notice": "This function is used to get the current state of the yield lock"
      },
      "isExempted(uint256,uint256,address)": {
        "notice": "function to see if a user is exempted from paying a cycle"
      },
      "isUnderCollaterized(uint256,address)": {
        "notice": "Checks if a user has a collateral below 1.0x of total contribution amount"
      },
      "minCollateralToDeposit(uint256,uint256)": {
        "notice": "Called to check the minimum collateral amount to deposit in wei"
      },
      "termAPY(uint256)": {
        "notice": "This function is used to get a term APY"
      },
      "totalYieldGenerated(uint256)": {
        "notice": "This function is used to get the total yield generated for a term"
      },
      "userAPY(uint256,address)": {
        "notice": "This function is used to get a user APY"
      },
      "userHasoptedInYG(uint256,address)": {
        "notice": "This function is used to check if a user has opted in for yield generation"
      },
      "userYieldGenerated(uint256,address)": {
        "notice": "This function is used to get the total yield generated for a user"
      },
      "wasExpelled(uint256,address)": {
        "notice": "function to know if a user was expelled before"
      },
      "yieldDistributionRatio(uint256,address)": {
        "notice": "This function is used to get the yield distribution ratio for a user"
      }
    },
    "version": 1
  },
  "storageLayout": {
    "storage": [],
    "types": null
  }
}