{
  "address": "0xc4c9F57c4F90fec82f20f8df2aa71f17c681b37e",
  "abi": [
    {
      "inputs": [
        {
          "internalType": "address",
          "name": "participant",
          "type": "address"
        }
      ],
      "name": "getAllJoinedTerms",
      "outputs": [
        {
          "internalType": "uint256[]",
          "name": "",
          "type": "uint256[]"
        }
      ],
      "stateMutability": "view",
      "type": "function"
    },
    {
      "inputs": [
        {
          "internalType": "uint256",
          "name": "termId",
          "type": "uint256"
        }
      ],
      "name": "getCollateralSummary",
      "outputs": [
        {
          "internalType": "bool",
          "name": "",
          "type": "bool"
        },
        {
          "internalType": "enum LibCollateralStorage.CollateralStates",
          "name": "",
          "type": "uint8"
        },
        {
          "internalType": "uint256",
          "name": "",
          "type": "uint256"
        },
        {
          "internalType": "uint256",
          "name": "",
          "type": "uint256"
        },
        {
          "internalType": "address[]",
          "name": "",
          "type": "address[]"
        }
      ],
      "stateMutability": "view",
      "type": "function"
    },
    {
      "inputs": [
        {
          "internalType": "string",
          "name": "firstAggregator",
          "type": "string"
        },
        {
          "internalType": "string",
          "name": "secondAggregator",
          "type": "string"
        },
        {
          "internalType": "string",
          "name": "zapAddress",
          "type": "string"
        },
        {
          "internalType": "string",
          "name": "vaultAddress",
          "type": "string"
        }
      ],
      "name": "getConstants",
      "outputs": [
        {
          "internalType": "address",
          "name": "",
          "type": "address"
        },
        {
          "internalType": "address",
          "name": "",
          "type": "address"
        },
        {
          "internalType": "address",
          "name": "",
          "type": "address"
        },
        {
          "internalType": "address",
          "name": "",
          "type": "address"
        }
      ],
      "stateMutability": "view",
      "type": "function"
    },
    {
      "inputs": [
        {
          "internalType": "uint256",
          "name": "termId",
          "type": "uint256"
        }
      ],
      "name": "getCurrentBeneficiary",
      "outputs": [
        {
          "internalType": "address",
          "name": "",
          "type": "address"
        }
      ],
      "stateMutability": "view",
      "type": "function"
    },
    {
      "inputs": [
        {
          "internalType": "address",
          "name": "depositor",
          "type": "address"
        },
        {
          "internalType": "uint256",
          "name": "termId",
          "type": "uint256"
        }
      ],
      "name": "getDepositorCollateralSummary",
      "outputs": [
        {
          "internalType": "bool",
          "name": "",
          "type": "bool"
        },
        {
          "internalType": "uint256",
          "name": "",
          "type": "uint256"
        },
        {
          "internalType": "uint256",
          "name": "",
          "type": "uint256"
        },
        {
          "internalType": "uint256",
          "name": "",
          "type": "uint256"
        },
        {
          "internalType": "uint256",
          "name": "",
          "type": "uint256"
        }
      ],
      "stateMutability": "view",
      "type": "function"
    },
    {
      "inputs": [
        {
          "internalType": "address",
          "name": "participant",
          "type": "address"
        }
      ],
      "name": "getExpelledTerms",
      "outputs": [
        {
          "internalType": "uint256[]",
          "name": "",
          "type": "uint256[]"
        }
      ],
      "stateMutability": "view",
      "type": "function"
    },
    {
      "inputs": [
        {
          "internalType": "uint256",
          "name": "termId",
          "type": "uint256"
        }
      ],
      "name": "getFundSummary",
      "outputs": [
        {
          "internalType": "bool",
          "name": "",
          "type": "bool"
        },
        {
          "internalType": "enum LibFundStorage.FundStates",
          "name": "",
          "type": "uint8"
        },
        {
          "internalType": "contract IERC20",
          "name": "",
          "type": "address"
        },
        {
          "internalType": "address[]",
          "name": "",
          "type": "address[]"
        },
        {
          "internalType": "uint256",
          "name": "",
          "type": "uint256"
        },
        {
          "internalType": "uint256",
          "name": "",
          "type": "uint256"
        },
        {
          "internalType": "uint256",
          "name": "",
          "type": "uint256"
        },
        {
          "internalType": "uint256",
          "name": "",
          "type": "uint256"
        }
      ],
      "stateMutability": "view",
      "type": "function"
    },
    {
      "inputs": [
        {
          "internalType": "address",
          "name": "participant",
          "type": "address"
        },
        {
          "internalType": "enum LibTermStorage.TermStates",
          "name": "state",
          "type": "uint8"
        }
      ],
      "name": "getJoinedTermsByState",
      "outputs": [
        {
          "internalType": "uint256[]",
          "name": "",
          "type": "uint256[]"
        }
      ],
      "stateMutability": "view",
      "type": "function"
    },
    {
      "inputs": [],
      "name": "getLatestPrice",
      "outputs": [
        {
          "internalType": "uint256",
          "name": "",
          "type": "uint256"
        }
      ],
      "stateMutability": "view",
      "type": "function"
    },
    {
      "inputs": [
        {
          "internalType": "address",
          "name": "user",
          "type": "address"
        }
      ],
      "name": "getNeededAllowance",
      "outputs": [
        {
          "internalType": "uint256",
          "name": "",
          "type": "uint256"
        }
      ],
      "stateMutability": "view",
      "type": "function"
    },
    {
      "inputs": [
        {
          "internalType": "address",
          "name": "participant",
          "type": "address"
        },
        {
          "internalType": "uint256",
          "name": "termId",
          "type": "uint256"
        }
      ],
      "name": "getParticipantFundSummary",
      "outputs": [
        {
          "internalType": "bool",
          "name": "",
          "type": "bool"
        },
        {
          "internalType": "bool",
          "name": "",
          "type": "bool"
        },
        {
          "internalType": "bool",
          "name": "",
          "type": "bool"
        },
        {
          "internalType": "bool",
          "name": "",
          "type": "bool"
        },
        {
          "internalType": "uint256",
          "name": "",
          "type": "uint256"
        },
        {
          "internalType": "bool",
          "name": "",
          "type": "bool"
        }
      ],
      "stateMutability": "view",
      "type": "function"
    },
    {
      "inputs": [
        {
          "internalType": "uint256",
          "name": "termId",
          "type": "uint256"
        }
      ],
      "name": "getRemainingContributionTime",
      "outputs": [
        {
          "internalType": "uint256",
          "name": "",
          "type": "uint256"
        }
      ],
      "stateMutability": "view",
      "type": "function"
    },
    {
      "inputs": [
        {
          "internalType": "uint256",
          "name": "termId",
          "type": "uint256"
        }
      ],
      "name": "getRemainingCycleTime",
      "outputs": [
        {
          "internalType": "uint256",
          "name": "",
          "type": "uint256"
        }
      ],
      "stateMutability": "view",
      "type": "function"
    },
    {
      "inputs": [
        {
          "internalType": "uint256",
          "name": "termId",
          "type": "uint256"
        }
      ],
      "name": "getRemainingCycles",
      "outputs": [
        {
          "internalType": "uint256",
          "name": "",
          "type": "uint256"
        }
      ],
      "stateMutability": "view",
      "type": "function"
    },
    {
      "inputs": [
        {
          "internalType": "uint256",
          "name": "termId",
          "type": "uint256"
        }
      ],
      "name": "getRemainingCyclesContributionWei",
      "outputs": [
        {
          "internalType": "uint256",
          "name": "",
          "type": "uint256"
        }
      ],
      "stateMutability": "view",
      "type": "function"
    },
    {
      "inputs": [
        {
          "internalType": "uint256",
          "name": "termId",
          "type": "uint256"
        }
      ],
      "name": "getRemainingRegistrationTime",
      "outputs": [
        {
          "internalType": "uint256",
          "name": "",
          "type": "uint256"
        }
      ],
      "stateMutability": "view",
      "type": "function"
    },
    {
      "inputs": [
        {
          "internalType": "uint256",
          "name": "termId",
          "type": "uint256"
        }
      ],
      "name": "getTermSummary",
      "outputs": [
        {
          "components": [
            {
              "internalType": "bool",
              "name": "initialized",
              "type": "bool"
            },
            {
              "internalType": "enum LibTermStorage.TermStates",
              "name": "state",
              "type": "uint8"
            },
            {
              "internalType": "address",
              "name": "termOwner",
              "type": "address"
            },
            {
              "internalType": "uint256",
              "name": "creationTime",
              "type": "uint256"
            },
            {
              "internalType": "uint256",
              "name": "termId",
              "type": "uint256"
            },
            {
              "internalType": "uint256",
              "name": "registrationPeriod",
              "type": "uint256"
            },
            {
              "internalType": "uint256",
              "name": "totalParticipants",
              "type": "uint256"
            },
            {
              "internalType": "uint256",
              "name": "cycleTime",
              "type": "uint256"
            },
            {
              "internalType": "uint256",
              "name": "contributionAmount",
              "type": "uint256"
            },
            {
              "internalType": "uint256",
              "name": "contributionPeriod",
              "type": "uint256"
            },
            {
              "internalType": "address",
              "name": "stableTokenAddress",
              "type": "address"
            }
          ],
          "internalType": "struct LibTermStorage.Term",
          "name": "",
          "type": "tuple"
        }
      ],
      "stateMutability": "view",
      "type": "function"
    },
    {
      "inputs": [],
      "name": "getTermsId",
      "outputs": [
        {
          "internalType": "uint256",
          "name": "",
          "type": "uint256"
        },
        {
          "internalType": "uint256",
          "name": "",
          "type": "uint256"
        }
      ],
      "stateMutability": "view",
      "type": "function"
    },
    {
      "inputs": [
        {
          "internalType": "uint256",
          "name": "USDAmount",
          "type": "uint256"
        }
      ],
      "name": "getToCollateralConversionRate",
      "outputs": [
        {
          "internalType": "uint256",
          "name": "",
          "type": "uint256"
        }
      ],
      "stateMutability": "view",
      "type": "function"
    },
    {
      "inputs": [
        {
          "internalType": "uint256",
          "name": "ethAmount",
          "type": "uint256"
        }
      ],
      "name": "getToStableConversionRate",
      "outputs": [
        {
          "internalType": "uint256",
          "name": "",
          "type": "uint256"
        }
      ],
      "stateMutability": "view",
      "type": "function"
    },
    {
      "inputs": [
        {
          "internalType": "address",
          "name": "user",
          "type": "address"
        },
        {
          "internalType": "uint256",
          "name": "termId",
          "type": "uint256"
        }
      ],
      "name": "getUserYieldSummary",
      "outputs": [
        {
          "internalType": "bool",
          "name": "",
          "type": "bool"
        },
        {
          "internalType": "uint256",
          "name": "",
          "type": "uint256"
        },
        {
          "internalType": "uint256",
          "name": "",
          "type": "uint256"
        },
        {
          "internalType": "uint256",
          "name": "",
          "type": "uint256"
        },
        {
          "internalType": "uint256",
          "name": "",
          "type": "uint256"
        }
      ],
      "stateMutability": "view",
      "type": "function"
    },
    {
      "inputs": [
        {
          "internalType": "uint256",
          "name": "termId",
          "type": "uint256"
        },
        {
          "internalType": "address",
          "name": "user",
          "type": "address"
        }
      ],
      "name": "getWithdrawableUserBalance",
      "outputs": [
        {
          "internalType": "uint256",
          "name": "allowedWithdrawal",
          "type": "uint256"
        }
      ],
      "stateMutability": "view",
      "type": "function"
    },
    {
      "inputs": [],
      "name": "getYieldLockState",
      "outputs": [
        {
          "internalType": "bool",
          "name": "",
          "type": "bool"
        }
      ],
      "stateMutability": "view",
      "type": "function"
    },
    {
      "inputs": [
        {
          "internalType": "uint256",
          "name": "termId",
          "type": "uint256"
        }
      ],
      "name": "getYieldSummary",
      "outputs": [
        {
          "internalType": "bool",
          "name": "",
          "type": "bool"
        },
        {
          "internalType": "uint256",
          "name": "",
          "type": "uint256"
        },
        {
          "internalType": "uint256",
          "name": "",
          "type": "uint256"
        },
        {
          "internalType": "uint256",
          "name": "",
          "type": "uint256"
        },
        {
          "internalType": "uint256",
          "name": "",
          "type": "uint256"
        },
        {
          "internalType": "address[]",
          "name": "",
          "type": "address[]"
        },
        {
          "internalType": "address",
          "name": "",
          "type": "address"
        },
        {
          "internalType": "address",
          "name": "",
          "type": "address"
        }
      ],
      "stateMutability": "view",
      "type": "function"
    },
    {
      "inputs": [
        {
          "internalType": "uint256",
          "name": "termId",
          "type": "uint256"
        },
        {
          "internalType": "address",
          "name": "beneficiary",
          "type": "address"
        }
      ],
      "name": "isBeneficiary",
      "outputs": [
        {
          "internalType": "bool",
          "name": "",
          "type": "bool"
        }
      ],
      "stateMutability": "view",
      "type": "function"
    },
    {
      "inputs": [
        {
          "internalType": "uint256",
          "name": "termId",
          "type": "uint256"
        },
        {
          "internalType": "uint256",
          "name": "cycle",
          "type": "uint256"
        },
        {
          "internalType": "address",
          "name": "user",
          "type": "address"
        }
      ],
      "name": "isExempted",
      "outputs": [
        {
          "internalType": "bool",
          "name": "",
          "type": "bool"
        }
      ],
      "stateMutability": "view",
      "type": "function"
    },
    {
      "inputs": [
        {
          "internalType": "uint256",
          "name": "termId",
          "type": "uint256"
        },
        {
          "internalType": "address",
          "name": "member",
          "type": "address"
        }
      ],
      "name": "isUnderCollaterized",
      "outputs": [
        {
          "internalType": "bool",
          "name": "",
          "type": "bool"
        }
      ],
      "stateMutability": "view",
      "type": "function"
    },
    {
      "inputs": [
        {
          "internalType": "uint256",
          "name": "termId",
          "type": "uint256"
        },
        {
          "internalType": "uint256",
          "name": "depositorIndex",
          "type": "uint256"
        }
      ],
      "name": "minCollateralToDeposit",
      "outputs": [
        {
          "internalType": "uint256",
          "name": "amount",
          "type": "uint256"
        }
      ],
      "stateMutability": "view",
      "type": "function"
    },
    {
      "inputs": [
        {
          "internalType": "uint256",
          "name": "termId",
          "type": "uint256"
        }
      ],
      "name": "termAPY",
      "outputs": [
        {
          "internalType": "uint256",
          "name": "",
          "type": "uint256"
        }
      ],
      "stateMutability": "view",
      "type": "function"
    },
    {
      "inputs": [
        {
          "internalType": "uint256",
          "name": "termId",
          "type": "uint256"
        }
      ],
      "name": "totalYieldGenerated",
      "outputs": [
        {
          "internalType": "uint256",
          "name": "",
          "type": "uint256"
        }
      ],
      "stateMutability": "view",
      "type": "function"
    },
    {
      "inputs": [
        {
          "internalType": "uint256",
          "name": "termId",
          "type": "uint256"
        },
        {
          "internalType": "address",
          "name": "user",
          "type": "address"
        }
      ],
      "name": "userAPY",
      "outputs": [
        {
          "internalType": "uint256",
          "name": "",
          "type": "uint256"
        }
      ],
      "stateMutability": "view",
      "type": "function"
    },
    {
      "inputs": [
        {
          "internalType": "uint256",
          "name": "termId",
          "type": "uint256"
        },
        {
          "internalType": "address",
          "name": "user",
          "type": "address"
        }
      ],
      "name": "userHasoptedInYG",
      "outputs": [
        {
          "internalType": "bool",
          "name": "",
          "type": "bool"
        }
      ],
      "stateMutability": "view",
      "type": "function"
    },
    {
      "inputs": [
        {
          "internalType": "uint256",
          "name": "termId",
          "type": "uint256"
        },
        {
          "internalType": "address",
          "name": "user",
          "type": "address"
        }
      ],
      "name": "userYieldGenerated",
      "outputs": [
        {
          "internalType": "uint256",
          "name": "",
          "type": "uint256"
        }
      ],
      "stateMutability": "view",
      "type": "function"
    },
    {
      "inputs": [
        {
          "internalType": "uint256",
          "name": "termId",
          "type": "uint256"
        },
        {
          "internalType": "address",
          "name": "user",
          "type": "address"
        }
      ],
      "name": "wasExpelled",
      "outputs": [
        {
          "internalType": "bool",
          "name": "",
          "type": "bool"
        }
      ],
      "stateMutability": "view",
      "type": "function"
    },
    {
      "inputs": [
        {
          "internalType": "uint256",
          "name": "termId",
          "type": "uint256"
        },
        {
          "internalType": "address",
          "name": "user",
          "type": "address"
        }
      ],
      "name": "yieldDistributionRatio",
      "outputs": [
        {
          "internalType": "uint256",
          "name": "",
          "type": "uint256"
        }
      ],
      "stateMutability": "view",
      "type": "function"
    }
  ],
  "transactionHash": "0x3e2c70c99cd7bc6cdb8560eb594db6788b0bdd125d26e6add0245910684da774",
  "args": [],
  "numDeployments": 18,
  "solcInputHash": "9664513f6c7e4e85eba563936a413441",
  "bytecode": "0x608060405234801561001057600080fd5b5061287f806100206000396000f3fe608060405234801561001057600080fd5b50600436106102115760003560e01c80639d4eb26f11610125578063d8f8e991116100ad578063dc9e24ae1161007c578063dc9e24ae146106e1578063e51a6295146106f4578063e6bbeae514610707578063e9783e601461071a578063f0d826e71461076457600080fd5b8063d8f8e9911461065f578063da3791ca1461068a578063dbd57683146106ae578063dbf42810146106ce57600080fd5b8063bb91b76d116100f4578063bb91b76d146105ec578063c177f091146105ff578063d072f4bc14610612578063d72bb87e14610625578063d7992e5b1461064c57600080fd5b80639d4eb26f1461051b578063afa6b96314610542578063b6abd1a414610555578063b7cf483f1461059b57600080fd5b806365654fe3116101a85780637aed53a6116101775780637aed53a6146104bd57806380530731146104da5780638e15f473146104ed57806391ce5ff7146104f557806392a6c8021461050857600080fd5b806365654fe31461043a57806375aaa78c1461044d57806375d4e40b1461046057806377778baf146104aa57600080fd5b80631e993b53116101e45780631e993b53146103be5780633d17f1e0146103de5780636191474c1461041457806362f02abd1461042757600080fd5b80630c64c697146102165780630fc4a7ef1461023c5780631268612d1461024f5780631c162dbe14610318575b600080fd5b6102296102243660046120aa565b610777565b6040519081526020015b60405180910390f35b61022961024a3660046120cc565b610839565b6102df61025d366004612101565b60009081526000805160206127ca833981519152602090815260408083206001600160a01b039490941683526005840182528083205460068501835281842054600786018452828520546008870185528386205460098801865284872054600a909801909552929094205460ff91821696948216959282169493821693911690565b604080519615158752941515602087015292151593850193909352151560608401526080830191909152151560a082015260c001610233565b610394610326366004612101565b60009081526000805160206127aa833981519152602090815260408083206001600160a01b03949094168352600784018252808320546008850183528184205460098601845282852054600a8701855283862054600b909701909452919093205460ff909316949093919290565b6040805195151586526020860194909452928401919091526060830152608082015260a001610233565b6103d16103cc36600461212b565b61086d565b6040516102339190612146565b7f7c039906f7f8ca11e01b6987a88513563589699678f7d2a6c8447f44d69375f35460ff165b6040519015158152602001610233565b6102296104223660046120cc565b6109e0565b6102296104353660046120cc565b610a9e565b61022961044836600461218a565b610adf565b6103d161045b36600461212b565b610b3b565b61040461046e36600461218a565b60009182526000805160206127aa833981519152602090815260408084206001600160a01b039390931684526007909201905290205460ff1690565b6102296104b836600461218a565b610bdb565b6104c5610d96565b60408051928352602083019190915201610233565b6102296104e83660046120cc565b610dc7565b610229610e1c565b6102296105033660046120cc565b6110b0565b6102296105163660046120cc565b611178565b61052e6105293660046120cc565b6111c5565b6040516102339897969594939291906121fa565b61022961055036600461218a565b611300565b6105686105633660046122fa565b61135d565b604080516001600160a01b0395861681529385166020850152918416918301919091529091166060820152608001610233565b6104046105a93660046123a7565b60009283526000805160206127ca83398151915260209081526040808520938552600c90930181528284206001600160a01b039290921684525290205460ff1690565b6103946105fa366004612101565b61145f565b61040461060d36600461218a565b611557565b6102296106203660046120cc565b611563565b6106386106333660046120cc565b611585565b6040516102339897969594939291906123f2565b61040461065a36600461218a565b61165e565b61067261066d3660046120cc565b6116f8565b6040516001600160a01b039091168152602001610233565b61069d6106983660046120cc565b611754565b604051610233959493929190612470565b6106c16106bc3660046120cc565b61180a565b60405161023391906124be565b6102296106dc3660046120cc565b611953565b6103d16106ef36600461255c565b611b14565b61022961070236600461212b565b611cd5565b61022961071536600461218a565b611e38565b61040461072836600461218a565b60009182526000805160206127ca833981519152602090815260408084206001600160a01b039390931684526006909201905290205460ff1690565b6102296107723660046120cc565b611eac565b60008281526000805160206127ea83398151915260205260408120600481015483106107e05760405162461bcd60e51b8152602060048201526013602482015272496e646578206f7574206f6620626f756e647360681b60448201526064015b60405180910390fd5b60006107fd8260060154670de0b6b3a764000061062091906125ad565b9050606484836004015461081191906125c4565b61081b90836125ad565b6108269060966125ad565b61083091906125ed565b95945050505050565b600080610844610e1c565b90506000670de0b6b3a764000061085b85846125ad565b61086591906125ed565b949350505050565b6060600061087a83610b3b565b90506000815167ffffffffffffffff81111561089857610898612257565b6040519080825280602002602001820160405280156108c1578160200160208202803683370190505b508251909150600090815b81811015610943576108f78582815181106108e9576108e9612601565b60200260200101518861165e565b1561093b5784818151811061090e5761090e612601565b602002602001015184848151811061092857610928612601565b6020026020010181815250508260010192505b6001016108cc565b5060008267ffffffffffffffff81111561095f5761095f612257565b604051908082528060200260200182016040528015610988578160200160208202803683370190505b50905060005b838110156109d5578481815181106109a8576109a8612601565b60200260200101518282815181106109c2576109c2612601565b602090810291909101015260010161098e565b509695505050505050565b60008181526000805160206127ca833981519152602090815260408083206000805160206127ea83398151915290925282208154600190610100900460ff166004811115610a3057610a306123dc565b14610a3f575060009392505050565b60008160070154836002015460018560040154610a5c91906125c4565b8460050154610a6b91906125ad565b610a759190612617565b610a7f9190612617565b905080421115610a9457506000949350505050565b61083042826125c4565b60008181526000805160206127ca8339815191526020526040812060048101546014820154610ace906001612617565b610ad891906125c4565b9392505050565b60008281526000805160206127aa8339815191526020526040812060028101548290610b0b90426125c4565b9050808260040154610b1d8787611300565b610b2791906125ed565b610826906301e133806125ad565b92915050565b6001600160a01b03811660009081527f87101b21d556417ad2b8e8f2700dbad90721d5d50a1f435f2dee0b9dc981ac8b60209081526040808320805482518185028101850190935280835260609460008051602061282a833981519152949093929190830182828015610bcd57602002820191906000526020600020905b815481526020019060010190808311610bb9575b509398975050505050505050565b60008281526000805160206127ca8339815191526020908152604080832060008051602061280a83398151915283528184206000805160206127aa83398151915284528285206001600160a01b038716865260058201855283862054600a8201865284872054855163d7992e5b60e01b8152600481018b90523360248201529551949693959294919390928892309263d7992e5b92604480820193918290030181865afa158015610c90573d6000803e3d6000fd5b505050506040513d601f19601f82011682018060405250810190610cb4919061263a565b8015610cd2575033600090815260068701602052604090205460ff16155b905060028554610100900460ff166003811115610cf157610cf16123dc565b1480610cfa5750805b15610d1057610d098284612617565b9650610d8a565b60018554610100900460ff166003811115610d2d57610d2d6123dc565b03610d85576000600a610d3f8b611eac565b610d4a90600f6125ad565b610d5491906125ed565b905080841115610d7a5782610d6982866125c4565b610d739190612617565b9750610d7f565b600097505b50610d8a565b600096505b50505050505092915050565b60008051602061282a833981519152805460009182918290610dba906001906125c4565b9154919491935090915050565b60008181526000805160206127aa8339815191526020526040812060028101548290610df390426125c4565b9050808260040154610e0486611953565b610e0e91906125ed565b61085b906301e133806125ad565b6000807f138fa7b895cc6132bd44317f3510a9c38821e93ca223f9fdc532527c01963ec4905060008060008084600001604051610e6690661155120bd554d160ca1b815260070190565b9081526040805191829003602001822054633fabe5a360e21b835290516001600160a01b039091169163feaf968c9160048083019260a09291908290030181865afa158015610eb9573d6000803e3d6000fd5b505050506040513d601f19601f82011682018060405250810190610edd919061266c565b94509450509350935081600014158015610f095750836001600160501b0316816001600160501b031610155b8015610f155750600083135b610f615760405162461bcd60e51b815260206004820152601b60248201527f436861696e6c696e6b4f7261636c653a207374616c652064617461000000000060448201526064016107d7565b60008060008088600001604051610f8690671554d110cbd554d160c21b815260080190565b9081526040805191829003602001822054633fabe5a360e21b835290516001600160a01b039091169163feaf968c9160048083019260a09291908290030181865afa158015610fd9573d6000803e3d6000fd5b505050506040513d601f19601f82011682018060405250810190610ffd919061266c565b945094505093509350816000141580156110295750836001600160501b0316816001600160501b031610155b80156110355750600083135b6110815760405162461bcd60e51b815260206004820152601b60248201527f436861696e6c696e6b4f7261636c653a207374616c652064617461000000000060448201526064016107d7565b600061108d84896126bc565b90506110a181670de0b6b3a76400006126ea565b9a505050505050505050505090565b60008181526000805160206127ea8339815191526020908152604080832060008051602061280a8339815191529092528220600181015483036111355760405162461bcd60e51b815260206004820152601860248201527f4e6f626f647920686173206465706f736974656420796574000000000000000060448201526064016107d7565b816003015481600101546111499190612617565b4210611159575060009392505050565b428260030154826001015461116e9190612617565b61086591906125c4565b60008181526000805160206127ca833981519152602090815260408083206000805160206127ea8339815191529092528220600282015460048301546005830154859291610a75916125ad565b60008080808060608180806000805160206127aa83398151915260000160008b815260200190815260200160002090508060000160009054906101000a900460ff168160020154826003015483600401548460050154856006018660010160405161123f906816985e5b95985d5b1d60ba1b815260090190565b908152604051908190036020018120546001600160a01b0316906001890190611275906605a61796e5a61760cc1b815260070190565b908152604080519182900360209081018320548554808302850183019093528284526001600160a01b0316929185918301828280156112dd57602002820191906000526020600020905b81546001600160a01b031681526001909101906020018083116112bf575b505050505092509850985098509850985098509850985050919395975091939597565b60008281526000805160206127aa833981519152602052604081206113258484611e38565b61132e85611953565b61133891906125ad565b6001600160a01b03841660009081526008830160205260409020546108659190612617565b6040516000908190819081907f138fa7b895cc6132bd44317f3510a9c38821e93ca223f9fdc532527c01963ec4907ff27a5986330dc78d016d8604ee1a040d5a789fbaa2d0c27f5dfded4b616b89779082906113ba908c9061271a565b908152604051908190036020018120546001600160a01b03169083906113e1908c9061271a565b908152604051908190036020018120546001600160a01b0316908390611408908c9061271a565b908152604051908190036020018120546001600160a01b031690849061142f908c9061271a565b9081526040519081900360200190205492985090965094506001600160a01b031692505050945094509450949050565b600081815260008051602061280a833981519152602090815260408083206000805160206127ca83398151915283528184206000805160206127ea83398151915284528285206001600160a01b038816865260068201909452918420548493849384938493909290849060ff166114f2576114eb8260060154670de0b6b3a764000061062091906125ad565b90506114fe565b6114fb8a611eac565b90505b6001600160a01b039a909a1660009081526004840160209081526040808320546005870183528184205460068801845282852054600790980190935292205460ff9092169c909b949a5090985092965091945050505050565b6000610ad88383611f35565b60008061156e610e1c565b905060008161085b85670de0b6b3a76400006125ad565b60008080606081808080806000805160206127ca83398151915260008b81526020918252604090819020805460028201546003830154600484015460148501546001860180548851818b0281018b0190995280895296995060ff80871699610100880490911698620100009097046001600160a01b031697919691879183018282801561163b57602002820191906000526020600020905b81546001600160a01b0316815260019091019060200180831161161d575b505050505094509850985098509850985098509850985050919395975091939597565b60008281526000805160206127ca8339815191526020908152604080832060008051602061280a83398151915283528184206001600160a01b0386168552600582019093529083205490919060ff161580156116d557506001600160a01b038416600090815260048201602052604090205460ff16155b156116e557600192505050610b35565b600092505050610b35565b505092915050565b60008181526000805160206127ca83398151915260205260408120600481015460018083019161172891906125c4565b8154811061173857611738612601565b6000918252602090912001546001600160a01b03169392505050565b600080808060608160008051602061280a8339815191526000888152602091825260409081902080546001820154600283015460038401805486518189028101890190975280875294975060ff8085169761010090950416959294919390929183918301828280156117ef57602002820191906000526020600020905b81546001600160a01b031681526001909101906020018083116117d1575b50505050509050955095509550955095505091939590929450565b61187a60408051610160810190915260008082526020820190815260200160006001600160a01b031681526020016000815260200160008152602001600081526020016000815260200160008152602001600081526020016000815260200160006001600160a01b031681525090565b60008281526000805160206127ea833981519152602090815260409182902082516101608101909352805460ff8082161515855291928401916101009091041660038111156118cb576118cb6123dc565b60038111156118dc576118dc6123dc565b815281546001600160a01b036201000090910481166020830152600183015460408301526002830154606083015260038301546080830152600483015460a0830152600583015460c0830152600683015460e083015260078301546101008301526008909201549091166101209091015292915050565b60008181526000805160206127aa833981519152602090815260408083206006810180548351818602810186019094528084529193859384939092918301828280156119c857602002820191906000526020600020905b81546001600160a01b031681526001909101906020018083116119aa575b505083519394506000925050505b81811015611a34578460080160008483815181106119f6576119f6612601565b60200260200101516001600160a01b03166001600160a01b031681526020019081526020016000205484611a2a9190612617565b93506001016119d6565b50600084600101604051611a57906816985e5b95985d5b1d60ba1b815260090190565b90815260405190819003602001812054631398fee160e31b82526001600160a01b031690639cc7f70890611a93908a9060040190815260200190565b602060405180830381865afa158015611ab0573d6000803e3d6000fd5b505050506040513d601f19601f82011682018060405250810190611ad49190612749565b6003860154600587015460048801549293509091611af384848461207c565b611afd9088612617565b611b0791906125c4565b9998505050505050505050565b60606000611b2184610b3b565b90506000815167ffffffffffffffff811115611b3f57611b3f612257565b604051908082528060200260200182016040528015611b68578160200160208202803683370190505b508251909150600090815b81811015611c3757866003811115611b8d57611b8d6123dc565b60008051602061282a8339815191526001016000878481518110611bb357611bb3612601565b6020026020010151815260200190815260200160002060000160019054906101000a900460ff166003811115611beb57611beb6123dc565b03611c2f57848181518110611c0257611c02612601565b6020026020010151848481518110611c1c57611c1c612601565b6020026020010181815250508260010192505b600101611b73565b5060008267ffffffffffffffff811115611c5357611c53612257565b604051908082528060200260200182016040528015611c7c578160200160208202803683370190505b50905060005b83811015611cc957848181518110611c9c57611c9c612601565b6020026020010151828281518110611cb657611cb6612601565b6020908102919091010152600101611c82565b50979650505050505050565b6000806000611ce5846001611b14565b90506000611cf4856000611b14565b825181519192509060005b82811015611da257600060008051602061282a8339815191526001016000878481518110611d2f57611d2f612601565b6020026020010151815260200190815260200160002090506000611d6b878481518110611d5e57611d5e612601565b6020026020010151610a9e565b8260060154611d7a91906125ad565b611d8790620f42406125ad565b9050611d938189612617565b97508260010192505050611cff565b5060005b81811015611e2c57600060008051602061282a8339815191526001016000868481518110611dd657611dd6612601565b602002602001015181526020019081526020016000209050600081600401548260060154611e0491906125ad565b611e1190620f42406125ad565b9050611e1d8189612617565b97508260010192505050611da6565b50939695505050505050565b60008281526000805160206127aa8339815191526020526040812060048101548203611e68576000915050610b35565b60048101546001600160a01b0384166000908152600b83016020526040902054611e9291906125ed565b611ea490670de0b6b3a76400006125ad565b915050610b35565b60008181526000805160206127ca833981519152602090815260408083206000805160206127ea833981519152909252822060048201546014830154849190611ef6906001612617565b611f0091906125c4565b90506000611f1f8360060154670de0b6b3a764000061062091906125ad565b9050611f2b81836125ad565b9695505050505050565b600082815260008051602061280a833981519152602090815260408083206001600160a01b0385168452600581019092528220548290611f918660009081526000805160206127ca833981519152602052604090205460ff1690565b6120105760405163bb91b76d60e01b81526001600160a01b038616600482015260248101879052309063bb91b76d9060440160a060405180830381865afa158015611fe0573d6000803e3d6000fd5b505050506040513d601f19601f820116820180604052508101906120049190612762565b95506120739350505050565b60405163f0d826e760e01b815260048101879052309063f0d826e790602401602060405180830381865afa15801561204c573d6000803e3d6000fd5b505050506040513d601f19601f820116820180604052508101906120709190612749565b91505b10949350505050565b60008160000361208e57506000610ad8565b8161209984866125ad565b6120a391906125ed565b9050610ad8565b600080604083850312156120bd57600080fd5b50508035926020909101359150565b6000602082840312156120de57600080fd5b5035919050565b80356001600160a01b03811681146120fc57600080fd5b919050565b6000806040838503121561211457600080fd5b61211d836120e5565b946020939093013593505050565b60006020828403121561213d57600080fd5b610ad8826120e5565b6020808252825182820181905260009190848201906040850190845b8181101561217e57835183529284019291840191600101612162565b50909695505050505050565b6000806040838503121561219d57600080fd5b823591506121ad602084016120e5565b90509250929050565b600081518084526020808501945080840160005b838110156121ef5781516001600160a01b0316875295820195908201906001016121ca565b509495945050505050565b60006101008a151583528960208401528860408401528760608401528660808401528060a084015261222e818401876121b6565b6001600160a01b0395861660c08501529390941660e09092019190915250979650505050505050565b634e487b7160e01b600052604160045260246000fd5b600082601f83011261227e57600080fd5b813567ffffffffffffffff8082111561229957612299612257565b604051601f8301601f19908116603f011681019082821181831017156122c1576122c1612257565b816040528381528660208588010111156122da57600080fd5b836020870160208301376000602085830101528094505050505092915050565b6000806000806080858703121561231057600080fd5b843567ffffffffffffffff8082111561232857600080fd5b6123348883890161226d565b9550602087013591508082111561234a57600080fd5b6123568883890161226d565b9450604087013591508082111561236c57600080fd5b6123788883890161226d565b9350606087013591508082111561238e57600080fd5b5061239b8782880161226d565b91505092959194509250565b6000806000606084860312156123bc57600080fd5b83359250602084013591506123d3604085016120e5565b90509250925092565b634e487b7160e01b600052602160045260246000fd5b60006101008a1515835260058a1061240c5761240c6123dc565b602083018a90526001600160a01b038916604084015260608301819052612435818401896121b6565b9150508560808301528460a08301528360c08301528260e08301529998505050505050505050565b6004811061246d5761246d6123dc565b50565b851515815261247e8561245d565b84602082015283604082015282606082015260a0608082015260006124a660a08301846121b6565b979650505050505050565b6124ba8161245d565b9052565b815115158152610160810160208301516124db60208401826124b1565b5060408301516124f660408401826001600160a01b03169052565b50606083015160608301526080830151608083015260a083015160a083015260c083015160c083015260e083015160e0830152610100808401518184015250610120808401518184015250610140808401516116f0828501826001600160a01b03169052565b6000806040838503121561256f57600080fd5b612578836120e5565b915060208301356004811061258c57600080fd5b809150509250929050565b634e487b7160e01b600052601160045260246000fd5b8082028115828204841417610b3557610b35612597565b81810381811115610b3557610b35612597565b634e487b7160e01b600052601260045260246000fd5b6000826125fc576125fc6125d7565b500490565b634e487b7160e01b600052603260045260246000fd5b80820180821115610b3557610b35612597565b805180151581146120fc57600080fd5b60006020828403121561264c57600080fd5b610ad88261262a565b80516001600160501b03811681146120fc57600080fd5b600080600080600060a0868803121561268457600080fd5b61268d86612655565b94506020860151935060408601519250606086015191506126b060808701612655565b90509295509295909350565b6000826126cb576126cb6125d7565b600160ff1b8214600019841416156126e5576126e5612597565b500590565b80820260008212600160ff1b8414161561270657612706612597565b8181058314821517610b3557610b35612597565b6000825160005b8181101561273b5760208186018101518583015201612721565b506000920191825250919050565b60006020828403121561275b57600080fd5b5051919050565b600080600080600060a0868803121561277a57600080fd5b6127838661262a565b602087015160408801516060890151608090990151929a9199509796509094509250505056fe29d9cba46c358ba7c1b8945751229339792c7c62e3197c240fa98916e75ffbf96751f7e27cecf86d7136f5749c224248cae80a39fafb59f8f6bf12c52816307c87101b21d556417ad2b8e8f2700dbad90721d5d50a1f435f2dee0b9dc981ac8a35fa70a6f9ae8a4d427ebe0c1be62ffd2870fecc1df41c6fda0bf5803e56288887101b21d556417ad2b8e8f2700dbad90721d5d50a1f435f2dee0b9dc981ac89a2646970667358221220d78cb6dea1286a3ac3fcc8070723be7d1d6371513ce1e3153c0b5019afe93e0664736f6c63430008120033",
  "devdoc": {
    "kind": "dev",
    "methods": {
      "getAllJoinedTerms(address)": {
        "params": {
          "participant": "the participant address"
        },
        "returns": {
          "_0": "an array with the term ids the participant is part of"
        }
      },
      "getCollateralSummary(uint256)": {
        "params": {
          "termId": "the collateral id"
        },
        "returns": {
          "_0": "collateral initialized",
          "_1": "collateral state",
          "_2": "collateral firstDepositTime",
          "_3": "counterMembers",
          "_4": "collateral depositors"
        }
      },
      "getConstants(string,string,string,string)": {
        "params": {
          "firstAggregator": "The name of the first aggregator. Example: \"ETH/USD\"",
          "secondAggregator": "The name of the second aggregator. Example: \"USDC/USD\"",
          "vaultAddress": "The name of the vault address. Example: \"ZaynVault\"",
          "zapAddress": "The name of the zap address. Example: \"ZaynZap\""
        }
      },
      "getCurrentBeneficiary(uint256)": {
        "params": {
          "termId": "the fund id"
        },
        "returns": {
          "_0": "the current beneficiary"
        }
      },
      "getDepositorCollateralSummary(address,uint256)": {
        "params": {
          "depositor": "the depositor address",
          "termId": "the collateral id"
        },
        "returns": {
          "_0": "isCollateralMember",
          "_1": "collateralMembersBank",
          "_2": "collateralPaymentBank",
          "_3": "collateralDepositByUser",
          "_4": "expulsion limit"
        }
      },
      "getExpelledTerms(address)": {
        "params": {
          "participant": "the participant address"
        },
        "returns": {
          "_0": "an array the term ids the participant is part of, giving the state of the term"
        }
      },
      "getFundSummary(uint256)": {
        "params": {
          "termId": "the fund id"
        },
        "returns": {
          "_0": "fund initialized",
          "_1": "fund currentState",
          "_2": "fund stableToken",
          "_3": "fund beneficiariesOrder",
          "_4": "fund fundStart",
          "_5": "fund fundEnd",
          "_6": "fund currentCycle",
          "_7": "fund totalAmountOfCycles"
        }
      },
      "getJoinedTermsByState(address,uint8)": {
        "params": {
          "participant": "the participant address",
          "state": "the term state"
        },
        "returns": {
          "_0": "an array with the term ids the participant is part of, giving the state of the term"
        }
      },
      "getLatestPrice()": {
        "returns": {
          "_0": "uint latest price in Wei Note: 18 decimals"
        }
      },
      "getNeededAllowance(address)": {
        "params": {
          "user": "the user address"
        },
        "returns": {
          "_0": "the needed allowance"
        }
      },
      "getParticipantFundSummary(address,uint256)": {
        "params": {
          "participant": "the user to get the info from",
          "termId": "the fund id"
        },
        "returns": {
          "_0": "fund isParticipant, true if is participant",
          "_1": "fund isBeneficiary, true if has been beneficiary",
          "_2": "fund paidThisCycle, true if has paid the current cycle",
          "_3": "fund autoPayEnabled, true if auto pay is enabled",
          "_4": "fund beneficiariesPool, the beneficiary pool, 6 decimals",
          "_5": "fund beneficiariesFrozenPool, true if the beneficiary pool is frozen"
        }
      },
      "getRemainingContributionTime(uint256)": {
        "params": {
          "termId": "the fund id"
        },
        "returns": {
          "_0": "the time left to contribute"
        }
      },
      "getRemainingCycleTime(uint256)": {
        "params": {
          "termId": "the term id"
        },
        "returns": {
          "_0": "remaining time in the current cycle"
        }
      },
      "getRemainingCycles(uint256)": {
        "params": {
          "termId": "the term id"
        },
        "returns": {
          "_0": "remaining cycles"
        }
      },
      "getRemainingCyclesContributionWei(uint256)": {
        "params": {
          "termId": "the term id"
        },
        "returns": {
          "_0": "remaining cycles contribution"
        }
      },
      "getRemainingRegistrationTime(uint256)": {
        "params": {
          "termId": "the term id"
        },
        "returns": {
          "_0": "remaining contribution period"
        }
      },
      "getTermSummary(uint256)": {
        "params": {
          "termId": "the term id"
        },
        "returns": {
          "_0": "the term struct"
        }
      },
      "getTermsId()": {
        "returns": {
          "_0": "the current term id",
          "_1": "the next term id"
        }
      },
      "getToCollateralConversionRate(uint256)": {
        "details": "should we always deal with in Wei?",
        "params": {
          "USDAmount": "The amount in USD with 18 decimals"
        },
        "returns": {
          "_0": "uint converted amount in wei"
        }
      },
      "getToStableConversionRate(uint256)": {
        "details": "should we always deal with in Wei?",
        "params": {
          "ethAmount": "The amount in ETH"
        },
        "returns": {
          "_0": "uint converted amount in USD correct to 18 decimals"
        }
      },
      "getUserYieldSummary(address,uint256)": {
        "params": {
          "termId": "the collateral id",
          "user": "the depositor address"
        },
        "returns": {
          "_0": "hasOptedIn",
          "_1": "withdrawnYield",
          "_2": "withdrawnCollateral",
          "_3": "availableYield",
          "_4": "depositedCollateralByUser"
        }
      },
      "getWithdrawableUserBalance(uint256,address)": {
        "params": {
          "termId": "term id",
          "user": "depositor address"
        },
        "returns": {
          "allowedWithdrawal": "amount the amount of collateral the depositor can withdraw"
        }
      },
      "getYieldSummary(uint256)": {
        "params": {
          "termId": "the collateral id"
        },
        "returns": {
          "_0": "initialized",
          "_1": "startTimeStamp",
          "_2": "totalDeposit",
          "_3": "currentTotalDeposit",
          "_4": "totalShares",
          "_5": "yieldUsers",
          "_6": "vaultAddress",
          "_7": "zapAddress"
        }
      },
      "isBeneficiary(uint256,address)": {
        "params": {
          "beneficiary": "the address of the participant to check",
          "termId": "the id of the term"
        },
        "returns": {
          "_0": "true if the participant is a beneficiary"
        }
      },
      "isExempted(uint256,uint256,address)": {
        "params": {
          "cycle": "the cycle to check",
          "termId": "the fund id",
          "user": "the user to check"
        },
        "returns": {
          "_0": "true if the user is exempted"
        }
      },
      "isUnderCollaterized(uint256,address)": {
        "details": "This will revert if called during ReleasingCollateral or after",
        "params": {
          "member": "The user to check for",
          "termId": "The term id"
        },
        "returns": {
          "_0": "Bool check if member is below 1.0x of collateralDeposit"
        }
      },
      "minCollateralToDeposit(uint256,uint256)": {
        "details": "The minimum collateral amount is calculated based on the index on the depositors arrayThe return value should be the minimum msg.value when calling joinTermC = 1.5 Cp (Tp - I) where C = minimum collateral amount, Cp = contribution amount, Tp = total participants, I = depositor index (starts at 0). 1.5",
        "returns": {
          "amount": "the minimum collateral amount to deposit in wei"
        }
      },
      "termAPY(uint256)": {
        "params": {
          "termId": "The term id for which the APY is being calculated"
        },
        "returns": {
          "_0": "The APY for the term"
        }
      },
      "totalYieldGenerated(uint256)": {
        "params": {
          "termId": "The term id for which the yield is being calculated"
        },
        "returns": {
          "_0": "The total yield generated for the term"
        }
      },
      "userAPY(uint256,address)": {
        "params": {
          "termId": "The term id for which the APY is being calculated",
          "user": "The user for which the APY is being calculated"
        },
        "returns": {
          "_0": "The APY for the user"
        }
      },
      "userHasoptedInYG(uint256,address)": {
        "params": {
          "termId": "The term id for which the check is being made",
          "user": "The user for which the check is being made"
        },
        "returns": {
          "_0": "True if the user has opted in"
        }
      },
      "userYieldGenerated(uint256,address)": {
        "params": {
          "termId": "The term id for which the yield is being calculated",
          "user": "The user for which the yield is being calculated"
        },
        "returns": {
          "_0": "The total yield generated for the user"
        }
      },
      "wasExpelled(uint256,address)": {
        "params": {
          "termId": "the fund id",
          "user": "the user to check"
        },
        "returns": {
          "_0": "true if the user was expelled before"
        }
      },
      "yieldDistributionRatio(uint256,address)": {
        "params": {
          "termId": "The term id for which the ratio is being calculated",
          "user": "The user for which the ratio is being calculated"
        },
        "returns": {
          "_0": "The yield distribution ratio for the user"
        }
      }
    },
    "version": 1
  },
  "userdoc": {
    "kind": "user",
    "methods": {
      "getConstants(string,string,string,string)": {
        "notice": "This function return the current constant values for oracles and yield providers"
      },
      "getCurrentBeneficiary(uint256)": {
        "notice": "function to get the current beneficiary"
      },
      "getFundSummary(uint256)": {
        "notice": "function to get the cycle information in one go"
      },
      "getLatestPrice()": {
        "notice": "Gets latest ETH / USD price"
      },
      "getNeededAllowance(address)": {
        "notice": "a function to get the needed allowance for every active term the user is part of"
      },
      "getParticipantFundSummary(address,uint256)": {
        "notice": "function to get cycle information of a specific participant"
      },
      "getRemainingContributionTime(uint256)": {
        "notice": "returns the time left to contribute for this cycle"
      },
      "getRemainingRegistrationTime(uint256)": {
        "notice": "Gets the remaining registration period for a term"
      },
      "getToCollateralConversionRate(uint256)": {
        "notice": "Gets the conversion rate of an amount in USD to ETH"
      },
      "getToStableConversionRate(uint256)": {
        "notice": "Gets the conversion rate of an amount in ETH to USD"
      },
      "getWithdrawableUserBalance(uint256,address)": {
        "notice": "Called to check how much collateral a user can withdraw"
      },
      "getYieldLockState()": {
        "notice": "This function is used to get the current state of the yield lock"
      },
      "isExempted(uint256,uint256,address)": {
        "notice": "function to see if a user is exempted from paying a cycle"
      },
      "isUnderCollaterized(uint256,address)": {
        "notice": "Checks if a user has a collateral below 1.0x of total contribution amount"
      },
      "minCollateralToDeposit(uint256,uint256)": {
        "notice": "Called to check the minimum collateral amount to deposit in wei"
      },
      "termAPY(uint256)": {
        "notice": "This function is used to get a term APY"
      },
      "totalYieldGenerated(uint256)": {
        "notice": "This function is used to get the total yield generated for a term"
      },
      "userAPY(uint256,address)": {
        "notice": "This function is used to get a user APY"
      },
      "userHasoptedInYG(uint256,address)": {
        "notice": "This function is used to check if a user has opted in for yield generation"
      },
      "userYieldGenerated(uint256,address)": {
        "notice": "This function is used to get the total yield generated for a user"
      },
      "wasExpelled(uint256,address)": {
        "notice": "function to know if a user was expelled before"
      },
      "yieldDistributionRatio(uint256,address)": {
        "notice": "This function is used to get the yield distribution ratio for a user"
      }
    },
    "version": 1
  },
  "storageLayout": {
    "storage": [],
    "types": null
  }
}