{
  "address": "0x325089A75100564C6F96bC6bE9085aE11b644F67",
  "abi": [
    {
      "inputs": [
        {
          "internalType": "uint256",
          "name": "id",
          "type": "uint256"
        }
      ],
      "name": "getCollateralSummary",
      "outputs": [
        {
          "internalType": "bool",
          "name": "",
          "type": "bool"
        },
        {
          "internalType": "enum LibCollateralV2.CollateralStates",
          "name": "",
          "type": "uint8"
        },
        {
          "internalType": "uint256",
          "name": "",
          "type": "uint256"
        },
        {
          "internalType": "uint256",
          "name": "",
          "type": "uint256"
        },
        {
          "internalType": "address[]",
          "name": "",
          "type": "address[]"
        }
      ],
      "stateMutability": "view",
      "type": "function"
    },
    {
      "inputs": [
        {
          "internalType": "uint256",
          "name": "id",
          "type": "uint256"
        }
      ],
      "name": "getCurrentBeneficiary",
      "outputs": [
        {
          "internalType": "address",
          "name": "",
          "type": "address"
        }
      ],
      "stateMutability": "view",
      "type": "function"
    },
    {
      "inputs": [
        {
          "internalType": "address",
          "name": "depositor",
          "type": "address"
        },
        {
          "internalType": "uint256",
          "name": "id",
          "type": "uint256"
        }
      ],
      "name": "getDepositorCollateralSummary",
      "outputs": [
        {
          "internalType": "bool",
          "name": "",
          "type": "bool"
        },
        {
          "internalType": "uint256",
          "name": "",
          "type": "uint256"
        },
        {
          "internalType": "uint256",
          "name": "",
          "type": "uint256"
        },
        {
          "internalType": "uint256",
          "name": "",
          "type": "uint256"
        }
      ],
      "stateMutability": "view",
      "type": "function"
    },
    {
      "inputs": [
        {
          "internalType": "uint256",
          "name": "id",
          "type": "uint256"
        }
      ],
      "name": "getFundSummary",
      "outputs": [
        {
          "internalType": "bool",
          "name": "",
          "type": "bool"
        },
        {
          "internalType": "enum LibFundV2.FundStates",
          "name": "",
          "type": "uint8"
        },
        {
          "internalType": "contract IERC20",
          "name": "",
          "type": "address"
        },
        {
          "internalType": "address[]",
          "name": "",
          "type": "address[]"
        },
        {
          "internalType": "uint256",
          "name": "",
          "type": "uint256"
        },
        {
          "internalType": "uint256",
          "name": "",
          "type": "uint256"
        },
        {
          "internalType": "uint256",
          "name": "",
          "type": "uint256"
        },
        {
          "internalType": "address",
          "name": "",
          "type": "address"
        },
        {
          "internalType": "uint256",
          "name": "",
          "type": "uint256"
        }
      ],
      "stateMutability": "view",
      "type": "function"
    },
    {
      "inputs": [],
      "name": "getLatestPrice",
      "outputs": [
        {
          "internalType": "uint256",
          "name": "",
          "type": "uint256"
        }
      ],
      "stateMutability": "view",
      "type": "function"
    },
    {
      "inputs": [
        {
          "internalType": "address",
          "name": "participant",
          "type": "address"
        },
        {
          "internalType": "uint256",
          "name": "id",
          "type": "uint256"
        }
      ],
      "name": "getParticipantFundSummary",
      "outputs": [
        {
          "internalType": "bool",
          "name": "",
          "type": "bool"
        },
        {
          "internalType": "bool",
          "name": "",
          "type": "bool"
        },
        {
          "internalType": "bool",
          "name": "",
          "type": "bool"
        },
        {
          "internalType": "bool",
          "name": "",
          "type": "bool"
        },
        {
          "internalType": "uint256",
          "name": "",
          "type": "uint256"
        }
      ],
      "stateMutability": "view",
      "type": "function"
    },
    {
      "inputs": [
        {
          "internalType": "address",
          "name": "participant",
          "type": "address"
        }
      ],
      "name": "getParticipantTerms",
      "outputs": [
        {
          "internalType": "uint256[]",
          "name": "",
          "type": "uint256[]"
        }
      ],
      "stateMutability": "view",
      "type": "function"
    },
    {
      "inputs": [
        {
          "internalType": "uint256",
          "name": "termId",
          "type": "uint256"
        }
      ],
      "name": "getRemainingContributionPeriod",
      "outputs": [
        {
          "internalType": "uint256",
          "name": "",
          "type": "uint256"
        }
      ],
      "stateMutability": "view",
      "type": "function"
    },
    {
      "inputs": [
        {
          "internalType": "uint256",
          "name": "id",
          "type": "uint256"
        }
      ],
      "name": "getRemainingContributionTime",
      "outputs": [
        {
          "internalType": "uint256",
          "name": "",
          "type": "uint256"
        }
      ],
      "stateMutability": "view",
      "type": "function"
    },
    {
      "inputs": [
        {
          "internalType": "uint256",
          "name": "id",
          "type": "uint256"
        }
      ],
      "name": "getRemainingCycleTime",
      "outputs": [
        {
          "internalType": "uint256",
          "name": "",
          "type": "uint256"
        }
      ],
      "stateMutability": "view",
      "type": "function"
    },
    {
      "inputs": [
        {
          "internalType": "uint256",
          "name": "id",
          "type": "uint256"
        }
      ],
      "name": "getRemainingCycles",
      "outputs": [
        {
          "internalType": "uint256",
          "name": "",
          "type": "uint256"
        }
      ],
      "stateMutability": "view",
      "type": "function"
    },
    {
      "inputs": [
        {
          "internalType": "uint256",
          "name": "id",
          "type": "uint256"
        }
      ],
      "name": "getRemainingCyclesContributionWei",
      "outputs": [
        {
          "internalType": "uint256",
          "name": "",
          "type": "uint256"
        }
      ],
      "stateMutability": "view",
      "type": "function"
    },
    {
      "inputs": [
        {
          "internalType": "uint256",
          "name": "id",
          "type": "uint256"
        }
      ],
      "name": "getTermSummary",
      "outputs": [
        {
          "components": [
            {
              "internalType": "bool",
              "name": "initialized",
              "type": "bool"
            },
            {
              "internalType": "bool",
              "name": "expired",
              "type": "bool"
            },
            {
              "internalType": "address",
              "name": "termOwner",
              "type": "address"
            },
            {
              "internalType": "uint256",
              "name": "creationTime",
              "type": "uint256"
            },
            {
              "internalType": "uint256",
              "name": "termId",
              "type": "uint256"
            },
            {
              "internalType": "uint256",
              "name": "registrationPeriod",
              "type": "uint256"
            },
            {
              "internalType": "uint256",
              "name": "totalParticipants",
              "type": "uint256"
            },
            {
              "internalType": "uint256",
              "name": "cycleTime",
              "type": "uint256"
            },
            {
              "internalType": "uint256",
              "name": "contributionAmount",
              "type": "uint256"
            },
            {
              "internalType": "uint256",
              "name": "contributionPeriod",
              "type": "uint256"
            },
            {
              "internalType": "address",
              "name": "stableTokenAddress",
              "type": "address"
            }
          ],
          "internalType": "struct LibTermV2.Term",
          "name": "",
          "type": "tuple"
        }
      ],
      "stateMutability": "view",
      "type": "function"
    },
    {
      "inputs": [],
      "name": "getTermsId",
      "outputs": [
        {
          "internalType": "uint256",
          "name": "",
          "type": "uint256"
        },
        {
          "internalType": "uint256",
          "name": "",
          "type": "uint256"
        }
      ],
      "stateMutability": "view",
      "type": "function"
    },
    {
      "inputs": [
        {
          "internalType": "uint256",
          "name": "USDAmount",
          "type": "uint256"
        }
      ],
      "name": "getToEthConversionRate",
      "outputs": [
        {
          "internalType": "uint256",
          "name": "",
          "type": "uint256"
        }
      ],
      "stateMutability": "view",
      "type": "function"
    },
    {
      "inputs": [
        {
          "internalType": "uint256",
          "name": "ethAmount",
          "type": "uint256"
        }
      ],
      "name": "getToUSDConversionRate",
      "outputs": [
        {
          "internalType": "uint256",
          "name": "",
          "type": "uint256"
        }
      ],
      "stateMutability": "view",
      "type": "function"
    },
    {
      "inputs": [
        {
          "components": [
            {
              "internalType": "bool",
              "name": "initialized",
              "type": "bool"
            },
            {
              "internalType": "bool",
              "name": "expired",
              "type": "bool"
            },
            {
              "internalType": "address",
              "name": "termOwner",
              "type": "address"
            },
            {
              "internalType": "uint256",
              "name": "creationTime",
              "type": "uint256"
            },
            {
              "internalType": "uint256",
              "name": "termId",
              "type": "uint256"
            },
            {
              "internalType": "uint256",
              "name": "registrationPeriod",
              "type": "uint256"
            },
            {
              "internalType": "uint256",
              "name": "totalParticipants",
              "type": "uint256"
            },
            {
              "internalType": "uint256",
              "name": "cycleTime",
              "type": "uint256"
            },
            {
              "internalType": "uint256",
              "name": "contributionAmount",
              "type": "uint256"
            },
            {
              "internalType": "uint256",
              "name": "contributionPeriod",
              "type": "uint256"
            },
            {
              "internalType": "address",
              "name": "stableTokenAddress",
              "type": "address"
            }
          ],
          "internalType": "struct LibTermV2.Term",
          "name": "term",
          "type": "tuple"
        },
        {
          "internalType": "uint256",
          "name": "depositorIndex",
          "type": "uint256"
        }
      ],
      "name": "minCollateralToDeposit",
      "outputs": [
        {
          "internalType": "uint256",
          "name": "amount",
          "type": "uint256"
        }
      ],
      "stateMutability": "view",
      "type": "function"
    },
    {
      "inputs": [
        {
          "internalType": "uint256",
          "name": "termId",
          "type": "uint256"
        }
      ],
      "name": "termAPR",
      "outputs": [
        {
          "internalType": "uint256",
          "name": "",
          "type": "uint256"
        }
      ],
      "stateMutability": "view",
      "type": "function"
    },
    {
      "inputs": [
        {
          "internalType": "uint256",
          "name": "termId",
          "type": "uint256"
        }
      ],
      "name": "totalYieldGenerated",
      "outputs": [
        {
          "internalType": "uint256",
          "name": "",
          "type": "uint256"
        }
      ],
      "stateMutability": "view",
      "type": "function"
    },
    {
      "inputs": [
        {
          "internalType": "uint256",
          "name": "termId",
          "type": "uint256"
        },
        {
          "internalType": "address",
          "name": "user",
          "type": "address"
        }
      ],
      "name": "userAPR",
      "outputs": [
        {
          "internalType": "uint256",
          "name": "",
          "type": "uint256"
        }
      ],
      "stateMutability": "view",
      "type": "function"
    },
    {
      "inputs": [
        {
          "internalType": "uint256",
          "name": "termId",
          "type": "uint256"
        },
        {
          "internalType": "address",
          "name": "user",
          "type": "address"
        }
      ],
      "name": "userYieldGenerated",
      "outputs": [
        {
          "internalType": "uint256",
          "name": "",
          "type": "uint256"
        }
      ],
      "stateMutability": "view",
      "type": "function"
    },
    {
      "inputs": [
        {
          "internalType": "uint256",
          "name": "id",
          "type": "uint256"
        },
        {
          "internalType": "address",
          "name": "user",
          "type": "address"
        }
      ],
      "name": "wasExpelled",
      "outputs": [
        {
          "internalType": "bool",
          "name": "",
          "type": "bool"
        }
      ],
      "stateMutability": "view",
      "type": "function"
    },
    {
      "inputs": [
        {
          "internalType": "uint256",
          "name": "termId",
          "type": "uint256"
        },
        {
          "internalType": "address",
          "name": "user",
          "type": "address"
        }
      ],
      "name": "yieldDistributionRatio",
      "outputs": [
        {
          "internalType": "uint256",
          "name": "",
          "type": "uint256"
        }
      ],
      "stateMutability": "view",
      "type": "function"
    }
  ],
  "transactionHash": "0x27236459b7aeb699723e3a5b67309602b975f8eb26b530dad2ee76f44be0c417",
  "args": [],
  "numDeployments": 1,
  "solcInputHash": "170280041a9111201cdb7b99d57489f8",
  "bytecode": "0x608060405234801561001057600080fd5b50611915806100206000396000f3fe608060405234801561001057600080fd5b506004361061014d5760003560e01c8063bb91b76d116100c3578063da3791ca1161007c578063da3791ca14610410578063dbd5768314610434578063dbf4281014610454578063e6bbeae514610467578063e6e9e0571461047a578063f0d826e71461048d57600080fd5b8063bb91b76d146102d6578063c39179c214610367578063cd78fa4214610387578063d72bb87e1461039a578063d7992e5b146103c2578063d8f8e991146103e557600080fd5b80637aed53a6116101155780637aed53a61461026557806382bceea5146102825780638e15f4731461029557806392a6c8021461029d5780639e195b40146102b0578063afa6b963146102c357600080fd5b80631268612d146101525780631a1faa071461020b5780635f0f1f421461022c5780636191474c1461023f57806362f02abd14610252575b600080fd5b6101d6610160366004611362565b6000908152600080516020611880833981519152602090815260408083206001600160a01b03949094168352600584018252808320546006850183528184205460078601845282852054600887018552838620546009909701909452919093205460ff9384169591841694928416939092169190565b6040805195151586529315156020860152911515928401929092529015156060830152608082015260a0015b60405180910390f35b61021e61021936600461138c565b6104a0565b604051908152602001610202565b61021e61023a36600461138c565b610506565b61021e61024d36600461138c565b610528565b61021e61026036600461138c565b6105ef565b61026d610630565b60408051928352602083019190915201610202565b61021e6102903660046113a5565b610673565b61021e6106dd565b61021e6102ab36600461138c565b610a9f565b61021e6102be36600461138c565b610aec565b61021e6102d13660046113a5565b610b0e565b6103456102e4366004611362565b60009081526000805160206118c0833981519152602090815260408083206001600160a01b03949094168352600484018252808320546005850183528184205460068601845282852054600790960190935292205460ff9092169390929190565b6040805194151585526020850193909352918301526060820152608001610202565b61037a6103753660046113d1565b610b6b565b60405161020291906113ec565b61021e610395366004611478565b610c1d565b6103ad6103a836600461138c565b610c65565b60405161020299989796959493929190611595565b6103d56103d03660046113a5565b610d4d565b6040519015158152602001610202565b6103f86103f336600461138c565b610de7565b6040516001600160a01b039091168152602001610202565b61042361041e36600461138c565b610e43565b604051610202959493929190611607565b61044761044236600461138c565b610ef9565b604051610202919061164f565b61021e61046236600461138c565b611023565b61021e6104753660046113a5565b6111b0565b61021e61048836600461138c565b611209565b61021e61049b36600461138c565b61125c565b600081815260008051602061186083398151915260205260408120600381015482906104cc9042611704565b90506104dc816301e13380611717565b82600601546104ea86611023565b6104f49190611744565b6104fe9190611744565b949350505050565b6000806105116106dd565b90506000670de0b6b3a76400006104f48584611717565b6000818152600080516020611880833981519152602090815260408083206000805160206118a083398151915290925282208154600190610100900460ff1660048111156105785761057861153b565b14610587575060009392505050565b600081600701548360020154600185600401546105a49190611704565b84600501546105b39190611717565b6105bd9190611758565b6105c79190611758565b9050804211156105dc57506000949350505050565b6105e64282611704565b95945050505050565b6000818152600080516020611880833981519152602052604081206004810154601382015461061f906001611758565b6106299190611704565b9392505050565b7f87101b21d556417ad2b8e8f2700dbad90721d5d50a1f435f2dee0b9dc981ac8980546000918291829061066690600190611704565b9154919491935090915050565b6000828152600080516020611860833981519152602052604081206003810154829061069f9042611704565b90506106af816301e13380611717565b82600601546106be8787610b0e565b6106c89190611744565b6106d29190611744565b925050505b92915050565b7f138fa7b895cc6132bd44317f3510a9c38821e93ca223f9fdc532527c01963ec55460408051633fabe5a360e21b815290516000927f138fa7b895cc6132bd44317f3510a9c38821e93ca223f9fdc532527c01963ec492849283926001600160a01b03169163feaf968c9160048083019260a09291908290030181865afa15801561076c573d6000803e3d6000fd5b505050506040513d601f19601f820116820180604052508101906107909190611782565b50509250925050816000146107dd5760405162461bcd60e51b815260206004820152600e60248201526d29b2b8bab2b731b2b9103237bbb760911b60448201526064015b60405180910390fd5b6107e78142611704565b8354111561082f5760405162461bcd60e51b8152602060048201526015602482015274053657175656e636572207374617274696e6720757605c1b60448201526064016107d4565b6000806000808660020160405161085390661155120bd554d160ca1b815260070190565b9081526040805191829003602001822054633fabe5a360e21b835290516001600160a01b039091169163feaf968c9160048083019260a09291908290030181865afa1580156108a6573d6000803e3d6000fd5b505050506040513d601f19601f820116820180604052508101906108ca9190611782565b945094505093509350816000141580156108f65750836001600160501b0316816001600160501b031610155b80156109025750600083135b61094e5760405162461bcd60e51b815260206004820152601b60248201527f436861696e6c696e6b4f7261636c653a207374616c652064617461000000000060448201526064016107d4565b6000806000808a60020160405161097390675553442f5553444360c01b815260080190565b9081526040805191829003602001822054633fabe5a360e21b835290516001600160a01b039091169163feaf968c9160048083019260a09291908290030181865afa1580156109c6573d6000803e3d6000fd5b505050506040513d601f19601f820116820180604052508101906109ea9190611782565b94509450509350935081600014158015610a165750836001600160501b0316816001600160501b031610155b8015610a225750600083135b610a6e5760405162461bcd60e51b815260206004820152601b60248201527f436861696e6c696e6b4f7261636c653a207374616c652064617461000000000060448201526064016107d4565b6000610a7a84896117d2565b9050610a8e81670de0b6b3a7640000611800565b9c5050505050505050505050505090565b6000818152600080516020611880833981519152602090815260408083206000805160206118a083398151915290925282206002820154600483015460058301548592916105bd91611717565b600080610af76106dd565b90506000816104f485670de0b6b3a7640000611717565b600082815260008051602061186083398151915260205260408120610b3384846111b0565b610b3c85611023565b6001600160a01b0385166000908152600784016020526040902054610b619190611758565b6104fe9190611704565b6001600160a01b03811660009081527f87101b21d556417ad2b8e8f2700dbad90721d5d50a1f435f2dee0b9dc981ac8b6020908152604080832080548251818502810185019093528083526060947f87101b21d556417ad2b8e8f2700dbad90721d5d50a1f435f2dee0b9dc981ac89949093929190830182828015610c0f57602002820191906000526020600020905b815481526020019060010190808311610bfb575b509398975050505050505050565b600080610c3c846101000151670de0b6b3a76400006102be9190611717565b90506064838560c00151610c509190611704565b610c5a9083611717565b6104f4906096611717565b60008080606081808080808060008051602061188083398151915260008c815260209182526040908190208054600282015460038301546004840154601285015460138601546001870180548951818c0281018c01909a52808a52979a5060ff8088169a610100890490911699620100009098046001600160a01b03908116999298941693918891830182828015610d2657602002820191906000526020600020905b81546001600160a01b03168152600190910190602001808311610d08575b50505050509550995099509950995099509950995099509950509193959799909294969850565b6000828152600080516020611880833981519152602090815260408083206000805160206118c083398151915283528184206001600160a01b0386168552600582019093529083205490919060ff16158015610dc457506001600160a01b038416600090815260048201602052604090205460ff16155b15610dd4576001925050506106d7565b6000925050506106d7565b505092915050565b6000818152600080516020611880833981519152602052604081206004810154600180830191610e179190611704565b81548110610e2757610e27611830565b6000918252602090912001546001600160a01b03169392505050565b60008080806060816000805160206118c08339815191526000888152602091825260409081902080546001820154600283015460038401805486518189028101890190975280875294975060ff808516976101009095041695929491939092918391830182828015610ede57602002820191906000526020600020905b81546001600160a01b03168152600190910190602001808311610ec0575b50505050509050955095509550955095505091939590929450565b610f6c60405180610160016040528060001515815260200160001515815260200160006001600160a01b031681526020016000815260200160008152602001600081526020016000815260200160008152602001600081526020016000815260200160006001600160a01b031681525090565b5060009081526000805160206118a08339815191526020908152604091829020825161016081018452815460ff808216151583526101008083049091161515948301949094526201000090046001600160a01b03908116948201949094526001820154606082015260028201546080820152600382015460a0820152600482015460c0820152600582015460e082015260068201549281019290925260078101546101208301526008015490911661014082015290565b60008181526000805160206118608339815191526020908152604080832060028101805483518186028101860190945280845291938593849390929183018282801561109857602002820191906000526020600020905b81546001600160a01b0316815260019091019060200180831161107a575b505083519394506000925050505b81811015611104578460070160008483815181106110c6576110c6611830565b60200260200101516001600160a01b03166001600160a01b0316815260200190815260200160002054846110fa9190611758565b93506001016110a6565b508360010160018154811061111b5761111b611830565b60009182526020918290200154604080516316d3df1560e31b815290516001600160a01b039092169263b69ef8a8926004808401938290030181865afa158015611169573d6000803e3d6000fd5b505050506040513d601f19601f8201168201806040525081019061118d9190611846565b846005015461119c9190611704565b6111a69084611758565b9695505050505050565b6000828152600080516020611860833981519152602090815260408083206000805160206118c0833981519152835281842060068201546001600160a01b0387168652600582019094529184205490926106d291611744565b60008181526000805160206118a083398151915260205260408120600381015460018201546112389190611758565b42106112475750600092915050565b428160030154826001015461061f9190611758565b6000818152600080516020611880833981519152602090815260408083206000805160206118a08339815191529092528220600482015460138301548491906112a6906001611758565b6112b09190611704565b90506000306001600160a01b0316639e195b408460060154670de0b6b3a76400006112db9190611717565b6040518263ffffffff1660e01b81526004016112f991815260200190565b602060405180830381865afa158015611316573d6000803e3d6000fd5b505050506040513d601f19601f8201168201806040525081019061133a9190611846565b90506111a68183611717565b80356001600160a01b038116811461135d57600080fd5b919050565b6000806040838503121561137557600080fd5b61137e83611346565b946020939093013593505050565b60006020828403121561139e57600080fd5b5035919050565b600080604083850312156113b857600080fd5b823591506113c860208401611346565b90509250929050565b6000602082840312156113e357600080fd5b61062982611346565b6020808252825182820181905260009190848201906040850190845b8181101561142457835183529284019291840191600101611408565b50909695505050505050565b604051610160810167ffffffffffffffff8111828210171561146257634e487b7160e01b600052604160045260246000fd5b60405290565b8035801515811461135d57600080fd5b60008082840361018081121561148d57600080fd5b6101608082121561149d57600080fd5b6114a5611430565b91506114b085611468565b82526114be60208601611468565b60208301526114cf60408601611346565b6040830152606085013560608301526080850135608083015260a085013560a083015260c085013560c083015260e085013560e083015261010080860135818401525061012080860135818401525061014061152c818701611346565b90830152909593013593505050565b634e487b7160e01b600052602160045260246000fd5b600081518084526020808501945080840160005b8381101561158a5781516001600160a01b031687529582019590820190600101611565565b509495945050505050565b60006101208b1515835260058b106115af576115af61153b565b602083018b90526001600160a01b038a81166040850152606084018290526115d98285018b611551565b608085019990995260a0840197909752505060c0810193909352921660e08201526101000152949350505050565b851515815260006004861061161e5761161e61153b565b85602083015284604083015283606083015260a0608083015261164460a0830184611551565b979650505050505050565b8151151581526101608101602083015161166d602084018215159052565b50604083015161168860408401826001600160a01b03169052565b50606083015160608301526080830151608083015260a083015160a083015260c083015160c083015260e083015160e083015261010080840151818401525061012080840151818401525061014080840151610ddf828501826001600160a01b03169052565b634e487b7160e01b600052601160045260246000fd5b818103818111156106d7576106d76116ee565b80820281158282048414176106d7576106d76116ee565b634e487b7160e01b600052601260045260246000fd5b6000826117535761175361172e565b500490565b808201808211156106d7576106d76116ee565b80516001600160501b038116811461135d57600080fd5b600080600080600060a0868803121561179a57600080fd5b6117a38661176b565b94506020860151935060408601519250606086015191506117c66080870161176b565b90509295509295909350565b6000826117e1576117e161172e565b600160ff1b8214600019841416156117fb576117fb6116ee565b500590565b80820260008212600160ff1b8414161561181c5761181c6116ee565b81810583148215176106d7576106d76116ee565b634e487b7160e01b600052603260045260246000fd5b60006020828403121561185857600080fd5b505191905056fe29d9cba46c358ba7c1b8945751229339792c7c62e3197c240fa98916e75ffbf96751f7e27cecf86d7136f5749c224248cae80a39fafb59f8f6bf12c52816307c87101b21d556417ad2b8e8f2700dbad90721d5d50a1f435f2dee0b9dc981ac8a35fa70a6f9ae8a4d427ebe0c1be62ffd2870fecc1df41c6fda0bf5803e562888a26469706673582212209dee3a81353d828efb55ea7c814ae701ce747a83f148d3ac5f02bebc89327ba564736f6c63430008120033",
  "devdoc": {
    "kind": "dev",
    "methods": {
      "getCollateralSummary(uint256)": {
        "params": {
          "id": "the collateral id"
        },
        "returns": {
          "_0": "collateral: initialized, state, firstDepositTime, counterMembers, depositors, collateralDeposit"
        }
      },
      "getCurrentBeneficiary(uint256)": {
        "params": {
          "id": "the fund id"
        },
        "returns": {
          "_0": "the current beneficiary"
        }
      },
      "getDepositorCollateralSummary(address,uint256)": {
        "params": {
          "depositor": "the depositor address",
          "id": "the collateral id"
        },
        "returns": {
          "_0": "isCollateralMember, collateralMembersBank, collateralPaymentBank"
        }
      },
      "getFundSummary(uint256)": {
        "params": {
          "id": "the fund id"
        },
        "returns": {
          "_0": "initialized, currentState, stableToken, currentCycle, beneficiariesOrder, fundStart, currentCycle, lastBeneficiary, totalAmountOfCycles, fundEnd"
        }
      },
      "getLatestPrice()": {
        "returns": {
          "_0": "uint latest price in Wei Note: 18 decimals"
        }
      },
      "getParticipantFundSummary(address,uint256)": {
        "params": {
          "id": "the fund id",
          "participant": "the user to get the info from"
        },
        "returns": {
          "_0": "isParticipant, isBeneficiary, paidThisCycle, autoPayEnabled, beneficiariesPool"
        }
      },
      "getParticipantTerms(address)": {
        "params": {
          "participant": "the participant address"
        },
        "returns": {
          "_0": "the term ids the participant is part of"
        }
      },
      "getRemainingContributionPeriod(uint256)": {
        "params": {
          "termId": "the term id"
        },
        "returns": {
          "_0": "the remaining contribution period"
        }
      },
      "getRemainingContributionTime(uint256)": {
        "params": {
          "id": "the fund id"
        },
        "returns": {
          "_0": "the time left to contribute"
        }
      },
      "getRemainingCycleTime(uint256)": {
        "params": {
          "id": "the term id"
        },
        "returns": {
          "_0": "remaining time in the current cycle"
        }
      },
      "getRemainingCycles(uint256)": {
        "params": {
          "id": "the term id"
        },
        "returns": {
          "_0": "remaining time in the current cycle"
        }
      },
      "getRemainingCyclesContributionWei(uint256)": {
        "params": {
          "id": "the term id"
        },
        "returns": {
          "_0": "remaining cycles contribution"
        }
      },
      "getTermSummary(uint256)": {
        "params": {
          "id": "the term id"
        },
        "returns": {
          "_0": "the term struct"
        }
      },
      "getTermsId()": {
        "returns": {
          "_0": "the current term id",
          "_1": "the next term id"
        }
      },
      "getToEthConversionRate(uint256)": {
        "details": "should we always deal with in Wei?",
        "params": {
          "USDAmount": "The amount in USD"
        },
        "returns": {
          "_0": "uint converted amount in wei"
        }
      },
      "getToUSDConversionRate(uint256)": {
        "details": "should we always deal with in Wei?",
        "params": {
          "ethAmount": "The amount in ETH"
        },
        "returns": {
          "_0": "uint converted amount in USD correct to 18 decimals"
        }
      },
      "minCollateralToDeposit((bool,bool,address,uint256,uint256,uint256,uint256,uint256,uint256,uint256,address),uint256)": {
        "details": "The minimum collateral amount is calculated based on the index on the depositors arrayThe return value should be the minimum msg.value when calling joinTermC = 1.5 Cp (Tp - I) where C = minimum collateral amount, Cp = contribution amount, Tp = total participants, I = depositor index (starts at 0). 1.5",
        "returns": {
          "amount": "the minimum collateral amount to deposit in wei"
        }
      },
      "termAPR(uint256)": {
        "params": {
          "termId": "The term id for which the APR is being calculated"
        },
        "returns": {
          "_0": "The APR for the term"
        }
      },
      "totalYieldGenerated(uint256)": {
        "params": {
          "termId": "The term id for which the yield is being calculated"
        },
        "returns": {
          "_0": "The total yield generated for the term"
        }
      },
      "userAPR(uint256,address)": {
        "params": {
          "termId": "The term id for which the APR is being calculated",
          "user": "The user for which the APR is being calculated"
        },
        "returns": {
          "_0": "The APR for the user"
        }
      },
      "userYieldGenerated(uint256,address)": {
        "params": {
          "termId": "The term id for which the yield is being calculated",
          "user": "The user for which the yield is being calculated"
        },
        "returns": {
          "_0": "The total yield generated for the user"
        }
      },
      "wasExpelled(uint256,address)": {
        "params": {
          "id": "the fund id",
          "user": "the user to check"
        },
        "returns": {
          "_0": "true if the user was expelled before"
        }
      },
      "yieldDistributionRatio(uint256,address)": {
        "params": {
          "termId": "The term id for which the ratio is being calculated",
          "user": "The user for which the ratio is being calculated"
        },
        "returns": {
          "_0": "The yield distribution ratio for the user"
        }
      }
    },
    "version": 1
  },
  "userdoc": {
    "kind": "user",
    "methods": {
      "getCurrentBeneficiary(uint256)": {
        "notice": "function to get the current beneficiary"
      },
      "getFundSummary(uint256)": {
        "notice": "function to get the cycle information in one go"
      },
      "getLatestPrice()": {
        "notice": "Gets latest ETH / USD price"
      },
      "getParticipantFundSummary(address,uint256)": {
        "notice": "function to get cycle information of a specific participant"
      },
      "getRemainingContributionPeriod(uint256)": {
        "notice": "Gets the remaining contribution period of a term"
      },
      "getRemainingContributionTime(uint256)": {
        "notice": "returns the time left to contribute for this cycle"
      },
      "getToEthConversionRate(uint256)": {
        "notice": "Gets the conversion rate of an amount in USD to ETH"
      },
      "getToUSDConversionRate(uint256)": {
        "notice": "Gets the conversion rate of an amount in ETH to USD"
      },
      "minCollateralToDeposit((bool,bool,address,uint256,uint256,uint256,uint256,uint256,uint256,uint256,address),uint256)": {
        "notice": "Called to check the minimum collateral amount to deposit in wei"
      },
      "termAPR(uint256)": {
        "notice": "This function is used to get a term APR"
      },
      "totalYieldGenerated(uint256)": {
        "notice": "This function is used to get the total yield generated for a term"
      },
      "userAPR(uint256,address)": {
        "notice": "This function is used to get a user APR"
      },
      "userYieldGenerated(uint256,address)": {
        "notice": "This function is used to get the total yield generated for a user"
      },
      "wasExpelled(uint256,address)": {
        "notice": "function to know if a user was expelled before"
      },
      "yieldDistributionRatio(uint256,address)": {
        "notice": "This function is used to get the yield distribution ratio for a user"
      }
    },
    "version": 1
  },
  "storageLayout": {
    "storage": [],
    "types": null
  }
}