{
  "address": "0xf7fff06d4787229BFbB430285Ca7d41b55E49582",
  "abi": [
    {
      "inputs": [
        {
          "internalType": "address",
          "name": "participant",
          "type": "address"
        }
      ],
      "name": "getAllJoinedTerms",
      "outputs": [
        {
          "internalType": "uint256[]",
          "name": "",
          "type": "uint256[]"
        }
      ],
      "stateMutability": "view",
      "type": "function"
    },
    {
      "inputs": [
        {
          "internalType": "uint256",
          "name": "termId",
          "type": "uint256"
        }
      ],
      "name": "getCollateralSummary",
      "outputs": [
        {
          "internalType": "bool",
          "name": "",
          "type": "bool"
        },
        {
          "internalType": "enum LibCollateral.CollateralStates",
          "name": "",
          "type": "uint8"
        },
        {
          "internalType": "uint256",
          "name": "",
          "type": "uint256"
        },
        {
          "internalType": "uint256",
          "name": "",
          "type": "uint256"
        },
        {
          "internalType": "address[]",
          "name": "",
          "type": "address[]"
        }
      ],
      "stateMutability": "view",
      "type": "function"
    },
    {
      "inputs": [
        {
          "internalType": "uint256",
          "name": "termId",
          "type": "uint256"
        }
      ],
      "name": "getCurrentBeneficiary",
      "outputs": [
        {
          "internalType": "address",
          "name": "",
          "type": "address"
        }
      ],
      "stateMutability": "view",
      "type": "function"
    },
    {
      "inputs": [
        {
          "internalType": "address",
          "name": "depositor",
          "type": "address"
        },
        {
          "internalType": "uint256",
          "name": "termId",
          "type": "uint256"
        }
      ],
      "name": "getDepositorCollateralSummary",
      "outputs": [
        {
          "internalType": "bool",
          "name": "",
          "type": "bool"
        },
        {
          "internalType": "uint256",
          "name": "",
          "type": "uint256"
        },
        {
          "internalType": "uint256",
          "name": "",
          "type": "uint256"
        },
        {
          "internalType": "uint256",
          "name": "",
          "type": "uint256"
        }
      ],
      "stateMutability": "view",
      "type": "function"
    },
    {
      "inputs": [
        {
          "internalType": "address",
          "name": "participant",
          "type": "address"
        }
      ],
      "name": "getExpelledTerms",
      "outputs": [
        {
          "internalType": "uint256[]",
          "name": "",
          "type": "uint256[]"
        }
      ],
      "stateMutability": "view",
      "type": "function"
    },
    {
      "inputs": [
        {
          "internalType": "uint256",
          "name": "termId",
          "type": "uint256"
        }
      ],
      "name": "getFundSummary",
      "outputs": [
        {
          "internalType": "bool",
          "name": "",
          "type": "bool"
        },
        {
          "internalType": "enum LibFund.FundStates",
          "name": "",
          "type": "uint8"
        },
        {
          "internalType": "contract IERC20",
          "name": "",
          "type": "address"
        },
        {
          "internalType": "address[]",
          "name": "",
          "type": "address[]"
        },
        {
          "internalType": "uint256",
          "name": "",
          "type": "uint256"
        },
        {
          "internalType": "uint256",
          "name": "",
          "type": "uint256"
        },
        {
          "internalType": "uint256",
          "name": "",
          "type": "uint256"
        },
        {
          "internalType": "uint256",
          "name": "",
          "type": "uint256"
        }
      ],
      "stateMutability": "view",
      "type": "function"
    },
    {
      "inputs": [
        {
          "internalType": "address",
          "name": "participant",
          "type": "address"
        },
        {
          "internalType": "enum LibTerm.TermStates",
          "name": "state",
          "type": "uint8"
        }
      ],
      "name": "getJoinedTermsByState",
      "outputs": [
        {
          "internalType": "uint256[]",
          "name": "",
          "type": "uint256[]"
        }
      ],
      "stateMutability": "view",
      "type": "function"
    },
    {
      "inputs": [],
      "name": "getLatestPrice",
      "outputs": [
        {
          "internalType": "uint256",
          "name": "",
          "type": "uint256"
        }
      ],
      "stateMutability": "view",
      "type": "function"
    },
    {
      "inputs": [
        {
          "internalType": "address",
          "name": "participant",
          "type": "address"
        },
        {
          "internalType": "uint256",
          "name": "termId",
          "type": "uint256"
        }
      ],
      "name": "getParticipantFundSummary",
      "outputs": [
        {
          "internalType": "bool",
          "name": "",
          "type": "bool"
        },
        {
          "internalType": "bool",
          "name": "",
          "type": "bool"
        },
        {
          "internalType": "bool",
          "name": "",
          "type": "bool"
        },
        {
          "internalType": "bool",
          "name": "",
          "type": "bool"
        },
        {
          "internalType": "uint256",
          "name": "",
          "type": "uint256"
        },
        {
          "internalType": "bool",
          "name": "",
          "type": "bool"
        }
      ],
      "stateMutability": "view",
      "type": "function"
    },
    {
      "inputs": [
        {
          "internalType": "uint256",
          "name": "termId",
          "type": "uint256"
        }
      ],
      "name": "getRemainingContributionTime",
      "outputs": [
        {
          "internalType": "uint256",
          "name": "",
          "type": "uint256"
        }
      ],
      "stateMutability": "view",
      "type": "function"
    },
    {
      "inputs": [
        {
          "internalType": "uint256",
          "name": "termId",
          "type": "uint256"
        }
      ],
      "name": "getRemainingCycleTime",
      "outputs": [
        {
          "internalType": "uint256",
          "name": "",
          "type": "uint256"
        }
      ],
      "stateMutability": "view",
      "type": "function"
    },
    {
      "inputs": [
        {
          "internalType": "uint256",
          "name": "termId",
          "type": "uint256"
        }
      ],
      "name": "getRemainingCycles",
      "outputs": [
        {
          "internalType": "uint256",
          "name": "",
          "type": "uint256"
        }
      ],
      "stateMutability": "view",
      "type": "function"
    },
    {
      "inputs": [
        {
          "internalType": "uint256",
          "name": "termId",
          "type": "uint256"
        }
      ],
      "name": "getRemainingCyclesContributionWei",
      "outputs": [
        {
          "internalType": "uint256",
          "name": "",
          "type": "uint256"
        }
      ],
      "stateMutability": "view",
      "type": "function"
    },
    {
      "inputs": [
        {
          "internalType": "uint256",
          "name": "termId",
          "type": "uint256"
        }
      ],
      "name": "getRemainingRegistrationTime",
      "outputs": [
        {
          "internalType": "uint256",
          "name": "",
          "type": "uint256"
        }
      ],
      "stateMutability": "view",
      "type": "function"
    },
    {
      "inputs": [
        {
          "internalType": "uint256",
          "name": "termId",
          "type": "uint256"
        }
      ],
      "name": "getTermSummary",
      "outputs": [
        {
          "components": [
            {
              "internalType": "bool",
              "name": "initialized",
              "type": "bool"
            },
            {
              "internalType": "enum LibTerm.TermStates",
              "name": "state",
              "type": "uint8"
            },
            {
              "internalType": "address",
              "name": "termOwner",
              "type": "address"
            },
            {
              "internalType": "uint256",
              "name": "creationTime",
              "type": "uint256"
            },
            {
              "internalType": "uint256",
              "name": "termId",
              "type": "uint256"
            },
            {
              "internalType": "uint256",
              "name": "registrationPeriod",
              "type": "uint256"
            },
            {
              "internalType": "uint256",
              "name": "totalParticipants",
              "type": "uint256"
            },
            {
              "internalType": "uint256",
              "name": "cycleTime",
              "type": "uint256"
            },
            {
              "internalType": "uint256",
              "name": "contributionAmount",
              "type": "uint256"
            },
            {
              "internalType": "uint256",
              "name": "contributionPeriod",
              "type": "uint256"
            },
            {
              "internalType": "address",
              "name": "stableTokenAddress",
              "type": "address"
            }
          ],
          "internalType": "struct LibTerm.Term",
          "name": "",
          "type": "tuple"
        }
      ],
      "stateMutability": "view",
      "type": "function"
    },
    {
      "inputs": [],
      "name": "getTermsId",
      "outputs": [
        {
          "internalType": "uint256",
          "name": "",
          "type": "uint256"
        },
        {
          "internalType": "uint256",
          "name": "",
          "type": "uint256"
        }
      ],
      "stateMutability": "view",
      "type": "function"
    },
    {
      "inputs": [
        {
          "internalType": "uint256",
          "name": "USDAmount",
          "type": "uint256"
        }
      ],
      "name": "getToCollateralConversionRate",
      "outputs": [
        {
          "internalType": "uint256",
          "name": "",
          "type": "uint256"
        }
      ],
      "stateMutability": "view",
      "type": "function"
    },
    {
      "inputs": [
        {
          "internalType": "uint256",
          "name": "ethAmount",
          "type": "uint256"
        }
      ],
      "name": "getToStableConversionRate",
      "outputs": [
        {
          "internalType": "uint256",
          "name": "",
          "type": "uint256"
        }
      ],
      "stateMutability": "view",
      "type": "function"
    },
    {
      "inputs": [
        {
          "internalType": "uint256",
          "name": "termId",
          "type": "uint256"
        },
        {
          "internalType": "address",
          "name": "user",
          "type": "address"
        }
      ],
      "name": "getWithdrawableUserBalance",
      "outputs": [
        {
          "internalType": "uint256",
          "name": "allowedWithdrawal",
          "type": "uint256"
        }
      ],
      "stateMutability": "view",
      "type": "function"
    },
    {
      "inputs": [
        {
          "internalType": "uint256",
          "name": "termId",
          "type": "uint256"
        },
        {
          "internalType": "uint256",
          "name": "cycle",
          "type": "uint256"
        },
        {
          "internalType": "address",
          "name": "user",
          "type": "address"
        }
      ],
      "name": "isExempted",
      "outputs": [
        {
          "internalType": "bool",
          "name": "",
          "type": "bool"
        }
      ],
      "stateMutability": "view",
      "type": "function"
    },
    {
      "inputs": [
        {
          "internalType": "uint256",
          "name": "termId",
          "type": "uint256"
        },
        {
          "internalType": "uint256",
          "name": "depositorIndex",
          "type": "uint256"
        }
      ],
      "name": "minCollateralToDeposit",
      "outputs": [
        {
          "internalType": "uint256",
          "name": "amount",
          "type": "uint256"
        }
      ],
      "stateMutability": "view",
      "type": "function"
    },
    {
      "inputs": [
        {
          "internalType": "uint256",
          "name": "termId",
          "type": "uint256"
        }
      ],
      "name": "termAPY",
      "outputs": [
        {
          "internalType": "uint256",
          "name": "",
          "type": "uint256"
        }
      ],
      "stateMutability": "nonpayable",
      "type": "function"
    },
    {
      "inputs": [
        {
          "internalType": "uint256",
          "name": "termId",
          "type": "uint256"
        }
      ],
      "name": "totalYieldGenerated",
      "outputs": [
        {
          "internalType": "uint256",
          "name": "",
          "type": "uint256"
        }
      ],
      "stateMutability": "nonpayable",
      "type": "function"
    },
    {
      "inputs": [
        {
          "internalType": "uint256",
          "name": "termId",
          "type": "uint256"
        },
        {
          "internalType": "address",
          "name": "user",
          "type": "address"
        }
      ],
      "name": "userAPY",
      "outputs": [
        {
          "internalType": "uint256",
          "name": "",
          "type": "uint256"
        }
      ],
      "stateMutability": "nonpayable",
      "type": "function"
    },
    {
      "inputs": [
        {
          "internalType": "uint256",
          "name": "termId",
          "type": "uint256"
        },
        {
          "internalType": "address",
          "name": "user",
          "type": "address"
        }
      ],
      "name": "userYieldGenerated",
      "outputs": [
        {
          "internalType": "uint256",
          "name": "",
          "type": "uint256"
        }
      ],
      "stateMutability": "nonpayable",
      "type": "function"
    },
    {
      "inputs": [
        {
          "internalType": "uint256",
          "name": "termId",
          "type": "uint256"
        },
        {
          "internalType": "address",
          "name": "user",
          "type": "address"
        }
      ],
      "name": "wasExpelled",
      "outputs": [
        {
          "internalType": "bool",
          "name": "",
          "type": "bool"
        }
      ],
      "stateMutability": "view",
      "type": "function"
    },
    {
      "inputs": [
        {
          "internalType": "uint256",
          "name": "termId",
          "type": "uint256"
        },
        {
          "internalType": "address",
          "name": "user",
          "type": "address"
        }
      ],
      "name": "yieldDistributionRatio",
      "outputs": [
        {
          "internalType": "uint256",
          "name": "",
          "type": "uint256"
        }
      ],
      "stateMutability": "view",
      "type": "function"
    }
  ],
  "transactionHash": "0x80f2047e508db57cedf8e3e74b2bbadb497216bef340d39c2326e0756a96bdf0",
  "args": [],
  "numDeployments": 2,
  "solcInputHash": "134657921344242e5d524598f15cdacb",
  "bytecode": "0x608060405234801561001057600080fd5b50611ca1806100206000396000f3fe608060405234801561001057600080fd5b50600436106101a95760003560e01c806392a6c802116100f9578063d8f8e99111610097578063dbf4281011610071578063dbf428101461054e578063dc9e24ae14610561578063e6bbeae514610574578063f0d826e71461058757600080fd5b8063d8f8e991146104df578063da3791ca1461050a578063dbd576831461052e57600080fd5b8063bb91b76d116100d3578063bb91b76d14610401578063d072f4bc14610492578063d72bb87e146104a5578063d7992e5b146104cc57600080fd5b806392a6c8021461037a578063afa6b9631461038d578063b7cf483f146103a057600080fd5b806365654fe3116101665780637aed53a6116101405780637aed53a61461032f578063805307311461034c5780638e15f4731461035f57806391ce5ff71461036757600080fd5b806365654fe3146102f657806375aaa78c1461030957806377778baf1461031c57600080fd5b80630c64c697146101ae5780630fc4a7ef146101d45780631268612d146101e75780631e993b53146102b05780636191474c146102d057806362f02abd146102e3575b600080fd5b6101c16101bc36600461173a565b61059a565b6040519081526020015b60405180910390f35b6101c16101e236600461175c565b61060e565b6102776101f5366004611791565b6000908152600080516020611c0c833981519152602090815260408083206001600160a01b039490941683526005840182528083205460068501835281842054600786018452828520546008870185528386205460098801865284872054600a909801909552929094205460ff91821696948216959282169493821693911690565b604080519615158752941515602087015292151593850193909352151560608401526080830191909152151560a082015260c0016101cb565b6102c36102be3660046117bb565b610642565b6040516101cb91906117d6565b6101c16102de36600461175c565b6106c6565b6101c16102f136600461175c565b610784565b6101c161030436600461181a565b6107c5565b6102c36103173660046117bb565b610820565b6101c161032a36600461181a565b6108d2565b610337610a39565b604080519283526020830191909152016101cb565b6101c161035a36600461175c565b610a7c565b6101c1610ad0565b6101c161037536600461175c565b610e92565b6101c161038836600461175c565b610ee5565b6101c161039b36600461181a565b610f32565b6103f16103ae366004611846565b6000928352600080516020611c0c83398151915260209081526040808520938552600c90930181528284206001600160a01b039290921684525290205460ff1690565b60405190151581526020016101cb565b61047061040f366004611791565b6000908152600080516020611c4c833981519152602090815260408083206001600160a01b03949094168352600484018252808320546005850183528184205460068601845282852054600790960190935292205460ff9092169390929190565b60408051941515855260208501939093529183015260608201526080016101cb565b6101c16104a036600461175c565b610f8f565b6104b86104b336600461175c565b610fb1565b6040516101cb9897969594939291906118d5565b6103f16104da36600461181a565b61108a565b6104f26104ed36600461175c565b611124565b6040516001600160a01b0390911681526020016101cb565b61051d61051836600461175c565b611180565b6040516101cb959493929190611953565b61054161053c36600461175c565b611236565b6040516101cb91906119a1565b6101c161055c36600461175c565b61137f565b6102c361056f366004611a3f565b611513565b6101c161058236600461181a565b6115f7565b6101c161059536600461175c565b611650565b6000828152600080516020611c2c83398151915260205260408120600681015482906105d2906104a090670de0b6b3a7640000611a90565b905060648483600401546105e69190611aa7565b6105f09083611a90565b6105fb906096611a90565b6106059190611ad0565b95945050505050565b600080610619610ad0565b90506000670de0b6b3a76400006106308584611a90565b61063a9190611ad0565b949350505050565b6060600061064f83610820565b905060606000808351905060005b818110156106bb5761068885828151811061067a5761067a611ae4565b60200260200101518861108a565b156106b357808484815181106106a0576106a0611ae4565b6020026020010181815250508260010192505b60010161065d565b509195945050505050565b6000818152600080516020611c0c83398151915260209081526040808320600080516020611c2c83398151915290925282208154600190610100900460ff1660048111156107165761071661187b565b14610725575060009392505050565b600081600701548360020154600185600401546107429190611aa7565b84600501546107519190611a90565b61075b9190611afa565b6107659190611afa565b90508042111561077a57506000949350505050565b6106054282611aa7565b6000818152600080516020611c0c83398151915260205260408120600481015460148201546107b4906001611afa565b6107be9190611aa7565b9392505050565b6000828152600080516020611bec83398151915260205260408120600281015482906107f19042611aa7565b9050610801816301e13380611a90565b82600401546108108787610f32565b6105fb9190611ad0565b92915050565b6001600160a01b03811660009081527f87101b21d556417ad2b8e8f2700dbad90721d5d50a1f435f2dee0b9dc981ac8b6020908152604080832080548251818502810185019093528083526060947f87101b21d556417ad2b8e8f2700dbad90721d5d50a1f435f2dee0b9dc981ac899490939291908301828280156108c457602002820191906000526020600020905b8154815260200190600101908083116108b0575b509398975050505050505050565b6000828152600080516020611c4c83398151915260209081526040808320600080516020611bec83398151915283528184206001600160a01b038616855260058201845282852054600a8201909452918420548154919391600290610100900460ff1660038111156109465761094661187b565b0361095c576109558183611afa565b9450610a2f565b60018454610100900460ff1660038111156109795761097961187b565b03610a2a5760405163f0d826e760e01b815260048101889052600090600a90309063f0d826e790602401602060405180830381865afa1580156109c0573d6000803e3d6000fd5b505050506040513d601f19601f820116820180604052508101906109e49190611b0d565b6109ef90600f611a90565b6109f99190611ad0565b905080831115610a1f5781610a0e8483611aa7565b610a189190611afa565b9550610a24565b600095505b50610a2f565b600094505b5050505092915050565b7f87101b21d556417ad2b8e8f2700dbad90721d5d50a1f435f2dee0b9dc981ac89805460009182918290610a6f90600190611aa7565b9154919491935090915050565b6000818152600080516020611bec8339815191526020526040812060028101548290610aa89042611aa7565b9050610ab8816301e13380611a90565b8260040154610ac68661137f565b6106309190611ad0565b7f138fa7b895cc6132bd44317f3510a9c38821e93ca223f9fdc532527c01963ec55460408051633fabe5a360e21b815290516000927f138fa7b895cc6132bd44317f3510a9c38821e93ca223f9fdc532527c01963ec492849283926001600160a01b03169163feaf968c9160048083019260a09291908290030181865afa158015610b5f573d6000803e3d6000fd5b505050506040513d601f19601f82011682018060405250810190610b839190611b3d565b5050925092505081600014610bd05760405162461bcd60e51b815260206004820152600e60248201526d29b2b8bab2b731b2b9103237bbb760911b60448201526064015b60405180910390fd5b610bda8142611aa7565b83541115610c225760405162461bcd60e51b8152602060048201526015602482015274053657175656e636572207374617274696e6720757605c1b6044820152606401610bc7565b60008060008086600201604051610c4690661155120bd554d160ca1b815260070190565b9081526040805191829003602001822054633fabe5a360e21b835290516001600160a01b039091169163feaf968c9160048083019260a09291908290030181865afa158015610c99573d6000803e3d6000fd5b505050506040513d601f19601f82011682018060405250810190610cbd9190611b3d565b94509450509350935081600014158015610ce95750836001600160501b0316816001600160501b031610155b8015610cf55750600083135b610d415760405162461bcd60e51b815260206004820152601b60248201527f436861696e6c696e6b4f7261636c653a207374616c65206461746100000000006044820152606401610bc7565b6000806000808a600201604051610d6690671554d110cbd554d160c21b815260080190565b9081526040805191829003602001822054633fabe5a360e21b835290516001600160a01b039091169163feaf968c9160048083019260a09291908290030181865afa158015610db9573d6000803e3d6000fd5b505050506040513d601f19601f82011682018060405250810190610ddd9190611b3d565b94509450509350935081600014158015610e095750836001600160501b0316816001600160501b031610155b8015610e155750600083135b610e615760405162461bcd60e51b815260206004820152601b60248201527f436861696e6c696e6b4f7261636c653a207374616c65206461746100000000006044820152606401610bc7565b6000610e6d8489611b8d565b9050610e8181670de0b6b3a7640000611bbb565b9c5050505050505050505050505090565b6000818152600080516020611c2c8339815191526020526040812060038101546001820154610ec19190611afa565b4210610ed05750600092915050565b42816003015482600101546107b49190611afa565b6000818152600080516020611c0c83398151915260209081526040808320600080516020611c2c833981519152909252822060028201546004830154600583015485929161075b91611a90565b6000828152600080516020611bec83398151915260205260408120610f5784846115f7565b610f608561137f565b610f6a9190611a90565b6001600160a01b038416600090815260088301602052604090205461063a9190611afa565b600080610f9a610ad0565b905060008161063085670de0b6b3a7640000611a90565b6000808060608180808080600080516020611c0c83398151915260008b81526020918252604090819020805460028201546003830154600484015460148501546001860180548851818b0281018b0190995280895296995060ff80871699610100880490911698620100009097046001600160a01b031697919691879183018282801561106757602002820191906000526020600020905b81546001600160a01b03168152600190910190602001808311611049575b505050505094509850985098509850985098509850985050919395975091939597565b6000828152600080516020611c0c83398151915260209081526040808320600080516020611c4c83398151915283528184206001600160a01b0386168552600582019093529083205490919060ff1615801561110157506001600160a01b038416600090815260048201602052604090205460ff16155b156111115760019250505061081a565b60009250505061081a565b505092915050565b6000818152600080516020611c0c8339815191526020526040812060048101546001808301916111549190611aa7565b8154811061116457611164611ae4565b6000918252602090912001546001600160a01b03169392505050565b6000808080606081600080516020611c4c8339815191526000888152602091825260409081902080546001820154600283015460038401805486518189028101890190975280875294975060ff80851697610100909504169592949193909291839183018282801561121b57602002820191906000526020600020905b81546001600160a01b031681526001909101906020018083116111fd575b50505050509050955095509550955095505091939590929450565b6112a660408051610160810190915260008082526020820190815260200160006001600160a01b031681526020016000815260200160008152602001600081526020016000815260200160008152602001600081526020016000815260200160006001600160a01b031681525090565b6000828152600080516020611c2c833981519152602090815260409182902082516101608101909352805460ff8082161515855291928401916101009091041660038111156112f7576112f761187b565b60038111156113085761130861187b565b815281546001600160a01b036201000090910481166020830152600183015460408301526002830154606083015260038301546080830152600483015460a0830152600583015460c0830152600683015460e083015260078301546101008301526008909201549091166101209091015292915050565b6000818152600080516020611bec833981519152602090815260408083206006810180548351818602810186019094528084529193859384939092918301828280156113f457602002820191906000526020600020905b81546001600160a01b031681526001909101906020018083116113d6575b505083519394506000925050505b818110156114605784600801600084838151811061142257611422611ae4565b60200260200101516001600160a01b03166001600160a01b0316815260200190815260200160002054846114569190611afa565b9350600101611402565b50604080516816985e5b95985d5b1d60ba1b8152600186016009820152905190819003602901812054631398fee160e31b8252600482018890526001600160a01b031690639cc7f708906024016020604051808303816000875af11580156114cc573d6000803e3d6000fd5b505050506040513d601f19601f820116820180604052508101906114f09190611b0d565b84600301546114ff9190611aa7565b6115099084611afa565b9695505050505050565b6060600061152084610820565b905060606000808351905060005b818110156115eb578660038111156115485761154861187b565b7f87101b21d556417ad2b8e8f2700dbad90721d5d50a1f435f2dee0b9dc981ac89600101600087848151811061158057611580611ae4565b6020026020010151815260200190815260200160002060000160019054906101000a900460ff1660038111156115b8576115b861187b565b036115e357808484815181106115d0576115d0611ae4565b6020026020010181815250508260010192505b60010161152e565b50919695505050505050565b6000828152600080516020611bec83398151915260209081526040808320600080516020611c4c833981519152835281842060048201546001600160a01b03871686526005820190945291842054909261060591611ad0565b6000818152600080516020611c0c83398151915260209081526040808320600080516020611c2c83398151915290925282206004820154601483015484919061169a906001611afa565b6116a49190611aa7565b90506000306001600160a01b031663d072f4bc8460060154670de0b6b3a76400006116cf9190611a90565b6040518263ffffffff1660e01b81526004016116ed91815260200190565b602060405180830381865afa15801561170a573d6000803e3d6000fd5b505050506040513d601f19601f8201168201806040525081019061172e9190611b0d565b90506115098183611a90565b6000806040838503121561174d57600080fd5b50508035926020909101359150565b60006020828403121561176e57600080fd5b5035919050565b80356001600160a01b038116811461178c57600080fd5b919050565b600080604083850312156117a457600080fd5b6117ad83611775565b946020939093013593505050565b6000602082840312156117cd57600080fd5b6107be82611775565b6020808252825182820181905260009190848201906040850190845b8181101561180e578351835292840192918401916001016117f2565b50909695505050505050565b6000806040838503121561182d57600080fd5b8235915061183d60208401611775565b90509250929050565b60008060006060848603121561185b57600080fd5b833592506020840135915061187260408501611775565b90509250925092565b634e487b7160e01b600052602160045260246000fd5b600081518084526020808501945080840160005b838110156118ca5781516001600160a01b0316875295820195908201906001016118a5565b509495945050505050565b60006101008a1515835260058a106118ef576118ef61187b565b602083018a90526001600160a01b03891660408401526060830181905261191881840189611891565b9150508560808301528460a08301528360c08301528260e08301529998505050505050505050565b600481106119505761195061187b565b50565b851515815261196185611940565b84602082015283604082015282606082015260a06080820152600061198960a0830184611891565b979650505050505050565b61199d81611940565b9052565b815115158152610160810160208301516119be6020840182611994565b5060408301516119d960408401826001600160a01b03169052565b50606083015160608301526080830151608083015260a083015160a083015260c083015160c083015260e083015160e08301526101008084015181840152506101208084015181840152506101408084015161111c828501826001600160a01b03169052565b60008060408385031215611a5257600080fd5b611a5b83611775565b9150602083013560048110611a6f57600080fd5b809150509250929050565b634e487b7160e01b600052601160045260246000fd5b808202811582820484141761081a5761081a611a7a565b8181038181111561081a5761081a611a7a565b634e487b7160e01b600052601260045260246000fd5b600082611adf57611adf611aba565b500490565b634e487b7160e01b600052603260045260246000fd5b8082018082111561081a5761081a611a7a565b600060208284031215611b1f57600080fd5b5051919050565b80516001600160501b038116811461178c57600080fd5b600080600080600060a08688031215611b5557600080fd5b611b5e86611b26565b9450602086015193506040860151925060608601519150611b8160808701611b26565b90509295509295909350565b600082611b9c57611b9c611aba565b600160ff1b821460001984141615611bb657611bb6611a7a565b500590565b80820260008212600160ff1b84141615611bd757611bd7611a7a565b818105831482151761081a5761081a611a7a56fe29d9cba46c358ba7c1b8945751229339792c7c62e3197c240fa98916e75ffbf96751f7e27cecf86d7136f5749c224248cae80a39fafb59f8f6bf12c52816307c87101b21d556417ad2b8e8f2700dbad90721d5d50a1f435f2dee0b9dc981ac8a35fa70a6f9ae8a4d427ebe0c1be62ffd2870fecc1df41c6fda0bf5803e562888a2646970667358221220d4c62ab8128f641edc463da7e7e3dfc06fc3416a03e8ab30d62865bf1d9830c364736f6c63430008120033",
  "devdoc": {
    "kind": "dev",
    "methods": {
      "getAllJoinedTerms(address)": {
        "params": {
          "participant": "the participant address"
        },
        "returns": {
          "_0": "the term ids the participant is part of"
        }
      },
      "getCollateralSummary(uint256)": {
        "params": {
          "termId": "the collateral id"
        },
        "returns": {
          "_0": "collateral: initialized, state, firstDepositTime, counterMembers, depositors, collateralDeposit"
        }
      },
      "getCurrentBeneficiary(uint256)": {
        "params": {
          "termId": "the fund id"
        },
        "returns": {
          "_0": "the current beneficiary"
        }
      },
      "getDepositorCollateralSummary(address,uint256)": {
        "params": {
          "depositor": "the depositor address",
          "termId": "the collateral id"
        },
        "returns": {
          "_0": "isCollateralMember, collateralMembersBank, collateralPaymentBank"
        }
      },
      "getExpelledTerms(address)": {
        "params": {
          "participant": "the participant address"
        },
        "returns": {
          "_0": "the term ids the participant is part of, giving the state of the term"
        }
      },
      "getFundSummary(uint256)": {
        "params": {
          "termId": "the fund id"
        },
        "returns": {
          "_0": "initialized, currentState, stableToken, currentCycle, beneficiariesOrder, fundStart, currentCycle, totalAmountOfCycles, fundEnd"
        }
      },
      "getJoinedTermsByState(address,uint8)": {
        "params": {
          "participant": "the participant address",
          "state": "the term state"
        },
        "returns": {
          "_0": "the term ids the participant is part of, giving the state of the term"
        }
      },
      "getLatestPrice()": {
        "returns": {
          "_0": "uint latest price in Wei Note: 18 decimals"
        }
      },
      "getParticipantFundSummary(address,uint256)": {
        "params": {
          "participant": "the user to get the info from",
          "termId": "the fund id"
        },
        "returns": {
          "_0": "isParticipant, true if is participant",
          "_1": "isBeneficiary, true if has been beneficiary",
          "_2": "paidThisCycle, true if has paid the current cycle",
          "_3": "autoPayEnabled, true if auto pay is enabled",
          "_4": "beneficiariesPool, the beneficiary pool, 6 decimals",
          "_5": "beneficiariesFrozenPool, true if the beneficiary pool is frozen"
        }
      },
      "getRemainingContributionTime(uint256)": {
        "params": {
          "termId": "the fund id"
        },
        "returns": {
          "_0": "the time left to contribute"
        }
      },
      "getRemainingCycleTime(uint256)": {
        "params": {
          "termId": "the term id"
        },
        "returns": {
          "_0": "remaining time in the current cycle"
        }
      },
      "getRemainingCycles(uint256)": {
        "params": {
          "termId": "the term id"
        },
        "returns": {
          "_0": "remaining time in the current cycle"
        }
      },
      "getRemainingCyclesContributionWei(uint256)": {
        "params": {
          "termId": "the term id"
        },
        "returns": {
          "_0": "remaining cycles contribution"
        }
      },
      "getRemainingRegistrationTime(uint256)": {
        "params": {
          "termId": "the term id"
        },
        "returns": {
          "_0": "remaining contribution period"
        }
      },
      "getTermSummary(uint256)": {
        "params": {
          "termId": "the term id"
        },
        "returns": {
          "_0": "the term struct"
        }
      },
      "getTermsId()": {
        "returns": {
          "_0": "the current term id",
          "_1": "the next term id"
        }
      },
      "getToCollateralConversionRate(uint256)": {
        "details": "should we always deal with in Wei?",
        "params": {
          "USDAmount": "The amount in USD"
        },
        "returns": {
          "_0": "uint converted amount in wei"
        }
      },
      "getToStableConversionRate(uint256)": {
        "details": "should we always deal with in Wei?",
        "params": {
          "ethAmount": "The amount in ETH"
        },
        "returns": {
          "_0": "uint converted amount in USD correct to 18 decimals"
        }
      },
      "getWithdrawableUserBalance(uint256,address)": {
        "params": {
          "termId": "term id",
          "user": "depositor address"
        },
        "returns": {
          "allowedWithdrawal": "amount the amount of collateral the depositor can withdraw"
        }
      },
      "minCollateralToDeposit(uint256,uint256)": {
        "details": "The minimum collateral amount is calculated based on the index on the depositors arrayThe return value should be the minimum msg.value when calling joinTermC = 1.5 Cp (Tp - I) where C = minimum collateral amount, Cp = contribution amount, Tp = total participants, I = depositor index (starts at 0). 1.5",
        "returns": {
          "amount": "the minimum collateral amount to deposit in wei"
        }
      },
      "termAPY(uint256)": {
        "params": {
          "termId": "The term id for which the APY is being calculated"
        },
        "returns": {
          "_0": "The APY for the term"
        }
      },
      "totalYieldGenerated(uint256)": {
        "params": {
          "termId": "The term id for which the yield is being calculated"
        },
        "returns": {
          "_0": "The total yield generated for the term"
        }
      },
      "userAPY(uint256,address)": {
        "params": {
          "termId": "The term id for which the APY is being calculated",
          "user": "The user for which the APY is being calculated"
        },
        "returns": {
          "_0": "The APY for the user"
        }
      },
      "userYieldGenerated(uint256,address)": {
        "params": {
          "termId": "The term id for which the yield is being calculated",
          "user": "The user for which the yield is being calculated"
        },
        "returns": {
          "_0": "The total yield generated for the user"
        }
      },
      "wasExpelled(uint256,address)": {
        "params": {
          "termId": "the fund id",
          "user": "the user to check"
        },
        "returns": {
          "_0": "true if the user was expelled before"
        }
      },
      "yieldDistributionRatio(uint256,address)": {
        "params": {
          "termId": "The term id for which the ratio is being calculated",
          "user": "The user for which the ratio is being calculated"
        },
        "returns": {
          "_0": "The yield distribution ratio for the user"
        }
      }
    },
    "version": 1
  },
  "userdoc": {
    "kind": "user",
    "methods": {
      "getCurrentBeneficiary(uint256)": {
        "notice": "function to get the current beneficiary"
      },
      "getFundSummary(uint256)": {
        "notice": "function to get the cycle information in one go"
      },
      "getLatestPrice()": {
        "notice": "Gets latest ETH / USD price"
      },
      "getParticipantFundSummary(address,uint256)": {
        "notice": "function to get cycle information of a specific participant"
      },
      "getRemainingContributionTime(uint256)": {
        "notice": "returns the time left to contribute for this cycle"
      },
      "getRemainingRegistrationTime(uint256)": {
        "notice": "Gets the remaining registration period for a term"
      },
      "getToCollateralConversionRate(uint256)": {
        "notice": "Gets the conversion rate of an amount in USD to ETH"
      },
      "getToStableConversionRate(uint256)": {
        "notice": "Gets the conversion rate of an amount in ETH to USD"
      },
      "getWithdrawableUserBalance(uint256,address)": {
        "notice": "Called to check how much collateral a user can withdraw"
      },
      "isExempted(uint256,uint256,address)": {
        "notice": "function to see if a user is exempted from paying a cycle"
      },
      "minCollateralToDeposit(uint256,uint256)": {
        "notice": "Called to check the minimum collateral amount to deposit in wei"
      },
      "termAPY(uint256)": {
        "notice": "This function is used to get a term APY"
      },
      "totalYieldGenerated(uint256)": {
        "notice": "This function is used to get the total yield generated for a term"
      },
      "userAPY(uint256,address)": {
        "notice": "This function is used to get a user APY"
      },
      "userYieldGenerated(uint256,address)": {
        "notice": "This function is used to get the total yield generated for a user"
      },
      "wasExpelled(uint256,address)": {
        "notice": "function to know if a user was expelled before"
      },
      "yieldDistributionRatio(uint256,address)": {
        "notice": "This function is used to get the yield distribution ratio for a user"
      }
    },
    "version": 1
  },
  "storageLayout": {
    "storage": [],
    "types": null
  }
}