{
  "address": "0x71C515295294f1c47c1B716f330dDc50CA190a65",
  "abi": [
    {
      "inputs": [
        {
          "internalType": "address",
          "name": "participant",
          "type": "address"
        }
      ],
      "name": "getAllJoinedTerms",
      "outputs": [
        {
          "internalType": "uint256[]",
          "name": "",
          "type": "uint256[]"
        }
      ],
      "stateMutability": "view",
      "type": "function"
    },
    {
      "inputs": [
        {
          "internalType": "uint256",
          "name": "termId",
          "type": "uint256"
        }
      ],
      "name": "getCollateralSummary",
      "outputs": [
        {
          "internalType": "bool",
          "name": "",
          "type": "bool"
        },
        {
          "internalType": "enum LibCollateral.CollateralStates",
          "name": "",
          "type": "uint8"
        },
        {
          "internalType": "uint256",
          "name": "",
          "type": "uint256"
        },
        {
          "internalType": "uint256",
          "name": "",
          "type": "uint256"
        },
        {
          "internalType": "address[]",
          "name": "",
          "type": "address[]"
        }
      ],
      "stateMutability": "view",
      "type": "function"
    },
    {
      "inputs": [
        {
          "internalType": "uint256",
          "name": "termId",
          "type": "uint256"
        }
      ],
      "name": "getCurrentBeneficiary",
      "outputs": [
        {
          "internalType": "address",
          "name": "",
          "type": "address"
        }
      ],
      "stateMutability": "view",
      "type": "function"
    },
    {
      "inputs": [
        {
          "internalType": "address",
          "name": "depositor",
          "type": "address"
        },
        {
          "internalType": "uint256",
          "name": "termId",
          "type": "uint256"
        }
      ],
      "name": "getDepositorCollateralSummary",
      "outputs": [
        {
          "internalType": "bool",
          "name": "",
          "type": "bool"
        },
        {
          "internalType": "uint256",
          "name": "",
          "type": "uint256"
        },
        {
          "internalType": "uint256",
          "name": "",
          "type": "uint256"
        },
        {
          "internalType": "uint256",
          "name": "",
          "type": "uint256"
        }
      ],
      "stateMutability": "view",
      "type": "function"
    },
    {
      "inputs": [
        {
          "internalType": "address",
          "name": "participant",
          "type": "address"
        }
      ],
      "name": "getExpelledTerms",
      "outputs": [
        {
          "internalType": "uint256[]",
          "name": "",
          "type": "uint256[]"
        }
      ],
      "stateMutability": "view",
      "type": "function"
    },
    {
      "inputs": [
        {
          "internalType": "uint256",
          "name": "termId",
          "type": "uint256"
        }
      ],
      "name": "getFundSummary",
      "outputs": [
        {
          "internalType": "bool",
          "name": "",
          "type": "bool"
        },
        {
          "internalType": "enum LibFund.FundStates",
          "name": "",
          "type": "uint8"
        },
        {
          "internalType": "contract IERC20",
          "name": "",
          "type": "address"
        },
        {
          "internalType": "address[]",
          "name": "",
          "type": "address[]"
        },
        {
          "internalType": "uint256",
          "name": "",
          "type": "uint256"
        },
        {
          "internalType": "uint256",
          "name": "",
          "type": "uint256"
        },
        {
          "internalType": "uint256",
          "name": "",
          "type": "uint256"
        },
        {
          "internalType": "uint256",
          "name": "",
          "type": "uint256"
        }
      ],
      "stateMutability": "view",
      "type": "function"
    },
    {
      "inputs": [
        {
          "internalType": "address",
          "name": "participant",
          "type": "address"
        },
        {
          "internalType": "enum LibTerm.TermStates",
          "name": "state",
          "type": "uint8"
        }
      ],
      "name": "getJoinedTermsByState",
      "outputs": [
        {
          "internalType": "uint256[]",
          "name": "",
          "type": "uint256[]"
        }
      ],
      "stateMutability": "view",
      "type": "function"
    },
    {
      "inputs": [],
      "name": "getLatestPrice",
      "outputs": [
        {
          "internalType": "uint256",
          "name": "",
          "type": "uint256"
        }
      ],
      "stateMutability": "view",
      "type": "function"
    },
    {
      "inputs": [
        {
          "internalType": "address",
          "name": "participant",
          "type": "address"
        },
        {
          "internalType": "uint256",
          "name": "termId",
          "type": "uint256"
        }
      ],
      "name": "getParticipantFundSummary",
      "outputs": [
        {
          "internalType": "bool",
          "name": "",
          "type": "bool"
        },
        {
          "internalType": "bool",
          "name": "",
          "type": "bool"
        },
        {
          "internalType": "bool",
          "name": "",
          "type": "bool"
        },
        {
          "internalType": "bool",
          "name": "",
          "type": "bool"
        },
        {
          "internalType": "uint256",
          "name": "",
          "type": "uint256"
        },
        {
          "internalType": "bool",
          "name": "",
          "type": "bool"
        }
      ],
      "stateMutability": "view",
      "type": "function"
    },
    {
      "inputs": [
        {
          "internalType": "uint256",
          "name": "termId",
          "type": "uint256"
        }
      ],
      "name": "getRemainingContributionTime",
      "outputs": [
        {
          "internalType": "uint256",
          "name": "",
          "type": "uint256"
        }
      ],
      "stateMutability": "view",
      "type": "function"
    },
    {
      "inputs": [
        {
          "internalType": "uint256",
          "name": "termId",
          "type": "uint256"
        }
      ],
      "name": "getRemainingCycleTime",
      "outputs": [
        {
          "internalType": "uint256",
          "name": "",
          "type": "uint256"
        }
      ],
      "stateMutability": "view",
      "type": "function"
    },
    {
      "inputs": [
        {
          "internalType": "uint256",
          "name": "termId",
          "type": "uint256"
        }
      ],
      "name": "getRemainingCycles",
      "outputs": [
        {
          "internalType": "uint256",
          "name": "",
          "type": "uint256"
        }
      ],
      "stateMutability": "view",
      "type": "function"
    },
    {
      "inputs": [
        {
          "internalType": "uint256",
          "name": "termId",
          "type": "uint256"
        }
      ],
      "name": "getRemainingCyclesContributionWei",
      "outputs": [
        {
          "internalType": "uint256",
          "name": "",
          "type": "uint256"
        }
      ],
      "stateMutability": "view",
      "type": "function"
    },
    {
      "inputs": [
        {
          "internalType": "uint256",
          "name": "termId",
          "type": "uint256"
        }
      ],
      "name": "getRemainingRegistrationTime",
      "outputs": [
        {
          "internalType": "uint256",
          "name": "",
          "type": "uint256"
        }
      ],
      "stateMutability": "view",
      "type": "function"
    },
    {
      "inputs": [
        {
          "internalType": "uint256",
          "name": "termId",
          "type": "uint256"
        }
      ],
      "name": "getTermSummary",
      "outputs": [
        {
          "components": [
            {
              "internalType": "bool",
              "name": "initialized",
              "type": "bool"
            },
            {
              "internalType": "enum LibTerm.TermStates",
              "name": "state",
              "type": "uint8"
            },
            {
              "internalType": "address",
              "name": "termOwner",
              "type": "address"
            },
            {
              "internalType": "uint256",
              "name": "creationTime",
              "type": "uint256"
            },
            {
              "internalType": "uint256",
              "name": "termId",
              "type": "uint256"
            },
            {
              "internalType": "uint256",
              "name": "registrationPeriod",
              "type": "uint256"
            },
            {
              "internalType": "uint256",
              "name": "totalParticipants",
              "type": "uint256"
            },
            {
              "internalType": "uint256",
              "name": "cycleTime",
              "type": "uint256"
            },
            {
              "internalType": "uint256",
              "name": "contributionAmount",
              "type": "uint256"
            },
            {
              "internalType": "uint256",
              "name": "contributionPeriod",
              "type": "uint256"
            },
            {
              "internalType": "address",
              "name": "stableTokenAddress",
              "type": "address"
            }
          ],
          "internalType": "struct LibTerm.Term",
          "name": "",
          "type": "tuple"
        }
      ],
      "stateMutability": "view",
      "type": "function"
    },
    {
      "inputs": [],
      "name": "getTermsId",
      "outputs": [
        {
          "internalType": "uint256",
          "name": "",
          "type": "uint256"
        },
        {
          "internalType": "uint256",
          "name": "",
          "type": "uint256"
        }
      ],
      "stateMutability": "view",
      "type": "function"
    },
    {
      "inputs": [
        {
          "internalType": "uint256",
          "name": "USDAmount",
          "type": "uint256"
        }
      ],
      "name": "getToCollateralConversionRate",
      "outputs": [
        {
          "internalType": "uint256",
          "name": "",
          "type": "uint256"
        }
      ],
      "stateMutability": "view",
      "type": "function"
    },
    {
      "inputs": [
        {
          "internalType": "uint256",
          "name": "ethAmount",
          "type": "uint256"
        }
      ],
      "name": "getToStableConversionRate",
      "outputs": [
        {
          "internalType": "uint256",
          "name": "",
          "type": "uint256"
        }
      ],
      "stateMutability": "view",
      "type": "function"
    },
    {
      "inputs": [
        {
          "internalType": "uint256",
          "name": "termId",
          "type": "uint256"
        },
        {
          "internalType": "address",
          "name": "user",
          "type": "address"
        }
      ],
      "name": "getWithdrawableUserBalance",
      "outputs": [
        {
          "internalType": "uint256",
          "name": "allowedWithdrawal",
          "type": "uint256"
        }
      ],
      "stateMutability": "view",
      "type": "function"
    },
    {
      "inputs": [
        {
          "internalType": "uint256",
          "name": "termId",
          "type": "uint256"
        },
        {
          "internalType": "uint256",
          "name": "cycle",
          "type": "uint256"
        },
        {
          "internalType": "address",
          "name": "user",
          "type": "address"
        }
      ],
      "name": "isExempted",
      "outputs": [
        {
          "internalType": "bool",
          "name": "",
          "type": "bool"
        }
      ],
      "stateMutability": "view",
      "type": "function"
    },
    {
      "inputs": [
        {
          "internalType": "uint256",
          "name": "termId",
          "type": "uint256"
        },
        {
          "internalType": "uint256",
          "name": "depositorIndex",
          "type": "uint256"
        }
      ],
      "name": "minCollateralToDeposit",
      "outputs": [
        {
          "internalType": "uint256",
          "name": "amount",
          "type": "uint256"
        }
      ],
      "stateMutability": "view",
      "type": "function"
    },
    {
      "inputs": [
        {
          "internalType": "uint256",
          "name": "termId",
          "type": "uint256"
        }
      ],
      "name": "termAPY",
      "outputs": [
        {
          "internalType": "uint256",
          "name": "",
          "type": "uint256"
        }
      ],
      "stateMutability": "nonpayable",
      "type": "function"
    },
    {
      "inputs": [
        {
          "internalType": "uint256",
          "name": "termId",
          "type": "uint256"
        }
      ],
      "name": "totalYieldGenerated",
      "outputs": [
        {
          "internalType": "uint256",
          "name": "",
          "type": "uint256"
        }
      ],
      "stateMutability": "nonpayable",
      "type": "function"
    },
    {
      "inputs": [
        {
          "internalType": "uint256",
          "name": "termId",
          "type": "uint256"
        },
        {
          "internalType": "address",
          "name": "user",
          "type": "address"
        }
      ],
      "name": "userAPY",
      "outputs": [
        {
          "internalType": "uint256",
          "name": "",
          "type": "uint256"
        }
      ],
      "stateMutability": "nonpayable",
      "type": "function"
    },
    {
      "inputs": [
        {
          "internalType": "uint256",
          "name": "termId",
          "type": "uint256"
        },
        {
          "internalType": "address",
          "name": "user",
          "type": "address"
        }
      ],
      "name": "userHasoptedInYG",
      "outputs": [
        {
          "internalType": "bool",
          "name": "",
          "type": "bool"
        }
      ],
      "stateMutability": "view",
      "type": "function"
    },
    {
      "inputs": [
        {
          "internalType": "uint256",
          "name": "termId",
          "type": "uint256"
        },
        {
          "internalType": "address",
          "name": "user",
          "type": "address"
        }
      ],
      "name": "userYieldGenerated",
      "outputs": [
        {
          "internalType": "uint256",
          "name": "",
          "type": "uint256"
        }
      ],
      "stateMutability": "nonpayable",
      "type": "function"
    },
    {
      "inputs": [
        {
          "internalType": "uint256",
          "name": "termId",
          "type": "uint256"
        },
        {
          "internalType": "address",
          "name": "user",
          "type": "address"
        }
      ],
      "name": "wasExpelled",
      "outputs": [
        {
          "internalType": "bool",
          "name": "",
          "type": "bool"
        }
      ],
      "stateMutability": "view",
      "type": "function"
    },
    {
      "inputs": [
        {
          "internalType": "uint256",
          "name": "termId",
          "type": "uint256"
        },
        {
          "internalType": "address",
          "name": "user",
          "type": "address"
        }
      ],
      "name": "yieldDistributionRatio",
      "outputs": [
        {
          "internalType": "uint256",
          "name": "",
          "type": "uint256"
        }
      ],
      "stateMutability": "view",
      "type": "function"
    }
  ],
  "transactionHash": "0x883e6686368f6ad673a5258bcb6169548d5b0ab8d1c6a1896fb7db28721d7d99",
  "args": [],
  "numDeployments": 3,
  "solcInputHash": "40bbed581f07676f6d4e08dd0b85a0c7",
  "bytecode": "0x608060405234801561001057600080fd5b50611d7b806100206000396000f3fe608060405234801561001057600080fd5b50600436106101c45760003560e01c806392a6c802116100f9578063d8f8e99111610097578063dbf4281011610071578063dbf42810146105b3578063dc9e24ae146105c6578063e6bbeae5146105d9578063f0d826e7146105ec57600080fd5b8063d8f8e99114610544578063da3791ca1461056f578063dbd576831461059357600080fd5b8063bb91b76d116100d3578063bb91b76d14610466578063d072f4bc146104f7578063d72bb87e1461050a578063d7992e5b1461053157600080fd5b806392a6c802146103ef578063afa6b96314610402578063b7cf483f1461041557600080fd5b806375aaa78c116101665780637aed53a6116101405780637aed53a6146103a457806380530731146103c15780638e15f473146103d457806391ce5ff7146103dc57600080fd5b806375aaa78c1461032457806375d4e40b1461033757806377778baf1461039157600080fd5b80631e993b53116101a25780631e993b53146102cb5780636191474c146102eb57806362f02abd146102fe57806365654fe31461031157600080fd5b80630c64c697146101c95780630fc4a7ef146101ef5780631268612d14610202575b600080fd5b6101dc6101d7366004611814565b6105ff565b6040519081526020015b60405180910390f35b6101dc6101fd366004611836565b610673565b61029261021036600461186b565b6000908152600080516020611ce6833981519152602090815260408083206001600160a01b039490941683526005840182528083205460068501835281842054600786018452828520546008870185528386205460098801865284872054600a909801909552929094205460ff91821696948216959282169493821693911690565b604080519615158752941515602087015292151593850193909352151560608401526080830191909152151560a082015260c0016101e6565b6102de6102d9366004611895565b6106a7565b6040516101e691906118b0565b6101dc6102f9366004611836565b61072b565b6101dc61030c366004611836565b6107e9565b6101dc61031f3660046118f4565b61082a565b6102de610332366004611895565b610885565b6103816103453660046118f4565b6000918252600080516020611cc6833981519152602090815260408084206001600160a01b039390931684526007909201905290205460ff1690565b60405190151581526020016101e6565b6101dc61039f3660046118f4565b610937565b6103ac610a9e565b604080519283526020830191909152016101e6565b6101dc6103cf366004611836565b610ae1565b6101dc610b35565b6101dc6103ea366004611836565b610ef7565b6101dc6103fd366004611836565b610fbf565b6101dc6104103660046118f4565b61100c565b610381610423366004611920565b6000928352600080516020611ce683398151915260209081526040808520938552600c90930181528284206001600160a01b039290921684525290205460ff1690565b6104d561047436600461186b565b6000908152600080516020611d26833981519152602090815260408083206001600160a01b03949094168352600484018252808320546005850183528184205460068601845282852054600790960190935292205460ff9092169390929190565b60408051941515855260208501939093529183015260608201526080016101e6565b6101dc610505366004611836565b611069565b61051d610518366004611836565b61108b565b6040516101e69897969594939291906119af565b61038161053f3660046118f4565b611164565b610557610552366004611836565b6111fe565b6040516001600160a01b0390911681526020016101e6565b61058261057d366004611836565b61125a565b6040516101e6959493929190611a2d565b6105a66105a1366004611836565b611310565b6040516101e69190611a7b565b6101dc6105c1366004611836565b611459565b6102de6105d4366004611b19565b6115ed565b6101dc6105e73660046118f4565b6116d1565b6101dc6105fa366004611836565b61172a565b6000828152600080516020611d0683398151915260205260408120600681015482906106379061050590670de0b6b3a7640000611b6a565b9050606484836004015461064b9190611b81565b6106559083611b6a565b610660906096611b6a565b61066a9190611baa565b95945050505050565b60008061067e610b35565b90506000670de0b6b3a76400006106958584611b6a565b61069f9190611baa565b949350505050565b606060006106b483610885565b905060606000808351905060005b81811015610720576106ed8582815181106106df576106df611bbe565b602002602001015188611164565b15610718578084848151811061070557610705611bbe565b6020026020010181815250508260010192505b6001016106c2565b509195945050505050565b6000818152600080516020611ce683398151915260209081526040808320600080516020611d0683398151915290925282208154600190610100900460ff16600481111561077b5761077b611955565b1461078a575060009392505050565b600081600701548360020154600185600401546107a79190611b81565b84600501546107b69190611b6a565b6107c09190611bd4565b6107ca9190611bd4565b9050804211156107df57506000949350505050565b61066a4282611b81565b6000818152600080516020611ce68339815191526020526040812060048101546014820154610819906001611bd4565b6108239190611b81565b9392505050565b6000828152600080516020611cc683398151915260205260408120600281015482906108569042611b81565b9050610866816301e13380611b6a565b8260040154610875878761100c565b6106609190611baa565b92915050565b6001600160a01b03811660009081527f87101b21d556417ad2b8e8f2700dbad90721d5d50a1f435f2dee0b9dc981ac8b6020908152604080832080548251818502810185019093528083526060947f87101b21d556417ad2b8e8f2700dbad90721d5d50a1f435f2dee0b9dc981ac8994909392919083018282801561092957602002820191906000526020600020905b815481526020019060010190808311610915575b509398975050505050505050565b6000828152600080516020611d2683398151915260209081526040808320600080516020611cc683398151915283528184206001600160a01b038616855260058201845282852054600a8201909452918420548154919391600290610100900460ff1660038111156109ab576109ab611955565b036109c1576109ba8183611bd4565b9450610a94565b60018454610100900460ff1660038111156109de576109de611955565b03610a8f5760405163f0d826e760e01b815260048101889052600090600a90309063f0d826e790602401602060405180830381865afa158015610a25573d6000803e3d6000fd5b505050506040513d601f19601f82011682018060405250810190610a499190611be7565b610a5490600f611b6a565b610a5e9190611baa565b905080831115610a845781610a738483611b81565b610a7d9190611bd4565b9550610a89565b600095505b50610a94565b600094505b5050505092915050565b7f87101b21d556417ad2b8e8f2700dbad90721d5d50a1f435f2dee0b9dc981ac89805460009182918290610ad490600190611b81565b9154919491935090915050565b6000818152600080516020611cc68339815191526020526040812060028101548290610b0d9042611b81565b9050610b1d816301e13380611b6a565b8260040154610b2b86611459565b6106959190611baa565b7f138fa7b895cc6132bd44317f3510a9c38821e93ca223f9fdc532527c01963ec55460408051633fabe5a360e21b815290516000927f138fa7b895cc6132bd44317f3510a9c38821e93ca223f9fdc532527c01963ec492849283926001600160a01b03169163feaf968c9160048083019260a09291908290030181865afa158015610bc4573d6000803e3d6000fd5b505050506040513d601f19601f82011682018060405250810190610be89190611c17565b5050925092505081600014610c355760405162461bcd60e51b815260206004820152600e60248201526d29b2b8bab2b731b2b9103237bbb760911b60448201526064015b60405180910390fd5b610c3f8142611b81565b83541115610c875760405162461bcd60e51b8152602060048201526015602482015274053657175656e636572207374617274696e6720757605c1b6044820152606401610c2c565b60008060008086600201604051610cab90661155120bd554d160ca1b815260070190565b9081526040805191829003602001822054633fabe5a360e21b835290516001600160a01b039091169163feaf968c9160048083019260a09291908290030181865afa158015610cfe573d6000803e3d6000fd5b505050506040513d601f19601f82011682018060405250810190610d229190611c17565b94509450509350935081600014158015610d4e5750836001600160501b0316816001600160501b031610155b8015610d5a5750600083135b610da65760405162461bcd60e51b815260206004820152601b60248201527f436861696e6c696e6b4f7261636c653a207374616c65206461746100000000006044820152606401610c2c565b6000806000808a600201604051610dcb90671554d110cbd554d160c21b815260080190565b9081526040805191829003602001822054633fabe5a360e21b835290516001600160a01b039091169163feaf968c9160048083019260a09291908290030181865afa158015610e1e573d6000803e3d6000fd5b505050506040513d601f19601f82011682018060405250810190610e429190611c17565b94509450509350935081600014158015610e6e5750836001600160501b0316816001600160501b031610155b8015610e7a5750600083135b610ec65760405162461bcd60e51b815260206004820152601b60248201527f436861696e6c696e6b4f7261636c653a207374616c65206461746100000000006044820152606401610c2c565b6000610ed28489611c67565b9050610ee681670de0b6b3a7640000611c95565b9c5050505050505050505050505090565b6000818152600080516020611d0683398151915260209081526040808320600080516020611d26833981519152909252822060018101548303610f7c5760405162461bcd60e51b815260206004820152601860248201527f4e6f626f647920686173206465706f73697465642079657400000000000000006044820152606401610c2c565b81600301548160010154610f909190611bd4565b4210610fa0575060009392505050565b4282600301548260010154610fb59190611bd4565b61069f9190611b81565b6000818152600080516020611ce683398151915260209081526040808320600080516020611d0683398151915290925282206002820154600483015460058301548592916107c091611b6a565b6000828152600080516020611cc68339815191526020526040812061103184846116d1565b61103a85611459565b6110449190611b6a565b6001600160a01b038416600090815260088301602052604090205461069f9190611bd4565b600080611074610b35565b905060008161069585670de0b6b3a7640000611b6a565b6000808060608180808080600080516020611ce683398151915260008b81526020918252604090819020805460028201546003830154600484015460148501546001860180548851818b0281018b0190995280895296995060ff80871699610100880490911698620100009097046001600160a01b031697919691879183018282801561114157602002820191906000526020600020905b81546001600160a01b03168152600190910190602001808311611123575b505050505094509850985098509850985098509850985050919395975091939597565b6000828152600080516020611ce683398151915260209081526040808320600080516020611d2683398151915283528184206001600160a01b0386168552600582019093529083205490919060ff161580156111db57506001600160a01b038416600090815260048201602052604090205460ff16155b156111eb5760019250505061087f565b60009250505061087f565b505092915050565b6000818152600080516020611ce683398151915260205260408120600481015460018083019161122e9190611b81565b8154811061123e5761123e611bbe565b6000918252602090912001546001600160a01b03169392505050565b6000808080606081600080516020611d268339815191526000888152602091825260409081902080546001820154600283015460038401805486518189028101890190975280875294975060ff8085169761010090950416959294919390929183918301828280156112f557602002820191906000526020600020905b81546001600160a01b031681526001909101906020018083116112d7575b50505050509050955095509550955095505091939590929450565b61138060408051610160810190915260008082526020820190815260200160006001600160a01b031681526020016000815260200160008152602001600081526020016000815260200160008152602001600081526020016000815260200160006001600160a01b031681525090565b6000828152600080516020611d06833981519152602090815260409182902082516101608101909352805460ff8082161515855291928401916101009091041660038111156113d1576113d1611955565b60038111156113e2576113e2611955565b815281546001600160a01b036201000090910481166020830152600183015460408301526002830154606083015260038301546080830152600483015460a0830152600583015460c0830152600683015460e083015260078301546101008301526008909201549091166101209091015292915050565b6000818152600080516020611cc6833981519152602090815260408083206006810180548351818602810186019094528084529193859384939092918301828280156114ce57602002820191906000526020600020905b81546001600160a01b031681526001909101906020018083116114b0575b505083519394506000925050505b8181101561153a578460080160008483815181106114fc576114fc611bbe565b60200260200101516001600160a01b03166001600160a01b0316815260200190815260200160002054846115309190611bd4565b93506001016114dc565b50604080516816985e5b95985d5b1d60ba1b8152600186016009820152905190819003602901812054631398fee160e31b8252600482018890526001600160a01b031690639cc7f708906024016020604051808303816000875af11580156115a6573d6000803e3d6000fd5b505050506040513d601f19601f820116820180604052508101906115ca9190611be7565b84600301546115d99190611b81565b6115e39084611bd4565b9695505050505050565b606060006115fa84610885565b905060606000808351905060005b818110156116c55786600381111561162257611622611955565b7f87101b21d556417ad2b8e8f2700dbad90721d5d50a1f435f2dee0b9dc981ac89600101600087848151811061165a5761165a611bbe565b6020026020010151815260200190815260200160002060000160019054906101000a900460ff16600381111561169257611692611955565b036116bd57808484815181106116aa576116aa611bbe565b6020026020010181815250508260010192505b600101611608565b50919695505050505050565b6000828152600080516020611cc683398151915260209081526040808320600080516020611d26833981519152835281842060048201546001600160a01b03871686526005820190945291842054909261066a91611baa565b6000818152600080516020611ce683398151915260209081526040808320600080516020611d06833981519152909252822060048201546014830154849190611774906001611bd4565b61177e9190611b81565b90506000306001600160a01b031663d072f4bc8460060154670de0b6b3a76400006117a99190611b6a565b6040518263ffffffff1660e01b81526004016117c791815260200190565b602060405180830381865afa1580156117e4573d6000803e3d6000fd5b505050506040513d601f19601f820116820180604052508101906118089190611be7565b90506115e38183611b6a565b6000806040838503121561182757600080fd5b50508035926020909101359150565b60006020828403121561184857600080fd5b5035919050565b80356001600160a01b038116811461186657600080fd5b919050565b6000806040838503121561187e57600080fd5b6118878361184f565b946020939093013593505050565b6000602082840312156118a757600080fd5b6108238261184f565b6020808252825182820181905260009190848201906040850190845b818110156118e8578351835292840192918401916001016118cc565b50909695505050505050565b6000806040838503121561190757600080fd5b823591506119176020840161184f565b90509250929050565b60008060006060848603121561193557600080fd5b833592506020840135915061194c6040850161184f565b90509250925092565b634e487b7160e01b600052602160045260246000fd5b600081518084526020808501945080840160005b838110156119a45781516001600160a01b03168752958201959082019060010161197f565b509495945050505050565b60006101008a1515835260058a106119c9576119c9611955565b602083018a90526001600160a01b0389166040840152606083018190526119f28184018961196b565b9150508560808301528460a08301528360c08301528260e08301529998505050505050505050565b60048110611a2a57611a2a611955565b50565b8515158152611a3b85611a1a565b84602082015283604082015282606082015260a060808201526000611a6360a083018461196b565b979650505050505050565b611a7781611a1a565b9052565b81511515815261016081016020830151611a986020840182611a6e565b506040830151611ab360408401826001600160a01b03169052565b50606083015160608301526080830151608083015260a083015160a083015260c083015160c083015260e083015160e0830152610100808401518184015250610120808401518184015250610140808401516111f6828501826001600160a01b03169052565b60008060408385031215611b2c57600080fd5b611b358361184f565b9150602083013560048110611b4957600080fd5b809150509250929050565b634e487b7160e01b600052601160045260246000fd5b808202811582820484141761087f5761087f611b54565b8181038181111561087f5761087f611b54565b634e487b7160e01b600052601260045260246000fd5b600082611bb957611bb9611b94565b500490565b634e487b7160e01b600052603260045260246000fd5b8082018082111561087f5761087f611b54565b600060208284031215611bf957600080fd5b5051919050565b80516001600160501b038116811461186657600080fd5b600080600080600060a08688031215611c2f57600080fd5b611c3886611c00565b9450602086015193506040860151925060608601519150611c5b60808701611c00565b90509295509295909350565b600082611c7657611c76611b94565b600160ff1b821460001984141615611c9057611c90611b54565b500590565b80820260008212600160ff1b84141615611cb157611cb1611b54565b818105831482151761087f5761087f611b5456fe29d9cba46c358ba7c1b8945751229339792c7c62e3197c240fa98916e75ffbf96751f7e27cecf86d7136f5749c224248cae80a39fafb59f8f6bf12c52816307c87101b21d556417ad2b8e8f2700dbad90721d5d50a1f435f2dee0b9dc981ac8a35fa70a6f9ae8a4d427ebe0c1be62ffd2870fecc1df41c6fda0bf5803e562888a2646970667358221220f9f71975c4974bac59be767ced4e8feafc8b764a6a0d30112b02cf8894a7cb1664736f6c63430008120033",
  "devdoc": {
    "kind": "dev",
    "methods": {
      "getAllJoinedTerms(address)": {
        "params": {
          "participant": "the participant address"
        },
        "returns": {
          "_0": "the term ids the participant is part of"
        }
      },
      "getCollateralSummary(uint256)": {
        "params": {
          "termId": "the collateral id"
        },
        "returns": {
          "_0": "collateral: initialized, state, firstDepositTime, counterMembers, depositors, collateralDeposit"
        }
      },
      "getCurrentBeneficiary(uint256)": {
        "params": {
          "termId": "the fund id"
        },
        "returns": {
          "_0": "the current beneficiary"
        }
      },
      "getDepositorCollateralSummary(address,uint256)": {
        "params": {
          "depositor": "the depositor address",
          "termId": "the collateral id"
        },
        "returns": {
          "_0": "isCollateralMember, collateralMembersBank, collateralPaymentBank"
        }
      },
      "getExpelledTerms(address)": {
        "params": {
          "participant": "the participant address"
        },
        "returns": {
          "_0": "the term ids the participant is part of, giving the state of the term"
        }
      },
      "getFundSummary(uint256)": {
        "params": {
          "termId": "the fund id"
        },
        "returns": {
          "_0": "initialized, currentState, stableToken, currentCycle, beneficiariesOrder, fundStart, currentCycle, totalAmountOfCycles, fundEnd"
        }
      },
      "getJoinedTermsByState(address,uint8)": {
        "params": {
          "participant": "the participant address",
          "state": "the term state"
        },
        "returns": {
          "_0": "the term ids the participant is part of, giving the state of the term"
        }
      },
      "getLatestPrice()": {
        "returns": {
          "_0": "uint latest price in Wei Note: 18 decimals"
        }
      },
      "getParticipantFundSummary(address,uint256)": {
        "params": {
          "participant": "the user to get the info from",
          "termId": "the fund id"
        },
        "returns": {
          "_0": "isParticipant, true if is participant",
          "_1": "isBeneficiary, true if has been beneficiary",
          "_2": "paidThisCycle, true if has paid the current cycle",
          "_3": "autoPayEnabled, true if auto pay is enabled",
          "_4": "beneficiariesPool, the beneficiary pool, 6 decimals",
          "_5": "beneficiariesFrozenPool, true if the beneficiary pool is frozen"
        }
      },
      "getRemainingContributionTime(uint256)": {
        "params": {
          "termId": "the fund id"
        },
        "returns": {
          "_0": "the time left to contribute"
        }
      },
      "getRemainingCycleTime(uint256)": {
        "params": {
          "termId": "the term id"
        },
        "returns": {
          "_0": "remaining time in the current cycle"
        }
      },
      "getRemainingCycles(uint256)": {
        "params": {
          "termId": "the term id"
        },
        "returns": {
          "_0": "remaining time in the current cycle"
        }
      },
      "getRemainingCyclesContributionWei(uint256)": {
        "params": {
          "termId": "the term id"
        },
        "returns": {
          "_0": "remaining cycles contribution"
        }
      },
      "getRemainingRegistrationTime(uint256)": {
        "params": {
          "termId": "the term id"
        },
        "returns": {
          "_0": "remaining contribution period"
        }
      },
      "getTermSummary(uint256)": {
        "params": {
          "termId": "the term id"
        },
        "returns": {
          "_0": "the term struct"
        }
      },
      "getTermsId()": {
        "returns": {
          "_0": "the current term id",
          "_1": "the next term id"
        }
      },
      "getToCollateralConversionRate(uint256)": {
        "details": "should we always deal with in Wei?",
        "params": {
          "USDAmount": "The amount in USD"
        },
        "returns": {
          "_0": "uint converted amount in wei"
        }
      },
      "getToStableConversionRate(uint256)": {
        "details": "should we always deal with in Wei?",
        "params": {
          "ethAmount": "The amount in ETH"
        },
        "returns": {
          "_0": "uint converted amount in USD correct to 18 decimals"
        }
      },
      "getWithdrawableUserBalance(uint256,address)": {
        "params": {
          "termId": "term id",
          "user": "depositor address"
        },
        "returns": {
          "allowedWithdrawal": "amount the amount of collateral the depositor can withdraw"
        }
      },
      "minCollateralToDeposit(uint256,uint256)": {
        "details": "The minimum collateral amount is calculated based on the index on the depositors arrayThe return value should be the minimum msg.value when calling joinTermC = 1.5 Cp (Tp - I) where C = minimum collateral amount, Cp = contribution amount, Tp = total participants, I = depositor index (starts at 0). 1.5",
        "returns": {
          "amount": "the minimum collateral amount to deposit in wei"
        }
      },
      "termAPY(uint256)": {
        "params": {
          "termId": "The term id for which the APY is being calculated"
        },
        "returns": {
          "_0": "The APY for the term"
        }
      },
      "totalYieldGenerated(uint256)": {
        "params": {
          "termId": "The term id for which the yield is being calculated"
        },
        "returns": {
          "_0": "The total yield generated for the term"
        }
      },
      "userAPY(uint256,address)": {
        "params": {
          "termId": "The term id for which the APY is being calculated",
          "user": "The user for which the APY is being calculated"
        },
        "returns": {
          "_0": "The APY for the user"
        }
      },
      "userHasoptedInYG(uint256,address)": {
        "params": {
          "termId": "The term id for which the check is being made",
          "user": "The user for which the check is being made"
        },
        "returns": {
          "_0": "True if the user has opted in"
        }
      },
      "userYieldGenerated(uint256,address)": {
        "params": {
          "termId": "The term id for which the yield is being calculated",
          "user": "The user for which the yield is being calculated"
        },
        "returns": {
          "_0": "The total yield generated for the user"
        }
      },
      "wasExpelled(uint256,address)": {
        "params": {
          "termId": "the fund id",
          "user": "the user to check"
        },
        "returns": {
          "_0": "true if the user was expelled before"
        }
      },
      "yieldDistributionRatio(uint256,address)": {
        "params": {
          "termId": "The term id for which the ratio is being calculated",
          "user": "The user for which the ratio is being calculated"
        },
        "returns": {
          "_0": "The yield distribution ratio for the user"
        }
      }
    },
    "version": 1
  },
  "userdoc": {
    "kind": "user",
    "methods": {
      "getCurrentBeneficiary(uint256)": {
        "notice": "function to get the current beneficiary"
      },
      "getFundSummary(uint256)": {
        "notice": "function to get the cycle information in one go"
      },
      "getLatestPrice()": {
        "notice": "Gets latest ETH / USD price"
      },
      "getParticipantFundSummary(address,uint256)": {
        "notice": "function to get cycle information of a specific participant"
      },
      "getRemainingContributionTime(uint256)": {
        "notice": "returns the time left to contribute for this cycle"
      },
      "getRemainingRegistrationTime(uint256)": {
        "notice": "Gets the remaining registration period for a term"
      },
      "getToCollateralConversionRate(uint256)": {
        "notice": "Gets the conversion rate of an amount in USD to ETH"
      },
      "getToStableConversionRate(uint256)": {
        "notice": "Gets the conversion rate of an amount in ETH to USD"
      },
      "getWithdrawableUserBalance(uint256,address)": {
        "notice": "Called to check how much collateral a user can withdraw"
      },
      "isExempted(uint256,uint256,address)": {
        "notice": "function to see if a user is exempted from paying a cycle"
      },
      "minCollateralToDeposit(uint256,uint256)": {
        "notice": "Called to check the minimum collateral amount to deposit in wei"
      },
      "termAPY(uint256)": {
        "notice": "This function is used to get a term APY"
      },
      "totalYieldGenerated(uint256)": {
        "notice": "This function is used to get the total yield generated for a term"
      },
      "userAPY(uint256,address)": {
        "notice": "This function is used to get a user APY"
      },
      "userHasoptedInYG(uint256,address)": {
        "notice": "This function is used to check if a user has opted in for yield generation"
      },
      "userYieldGenerated(uint256,address)": {
        "notice": "This function is used to get the total yield generated for a user"
      },
      "wasExpelled(uint256,address)": {
        "notice": "function to know if a user was expelled before"
      },
      "yieldDistributionRatio(uint256,address)": {
        "notice": "This function is used to get the yield distribution ratio for a user"
      }
    },
    "version": 1
  },
  "storageLayout": {
    "storage": [],
    "types": null
  }
}