{
  "address": "0xF8416f33840ecDdA706A82e0FE62F007a5b3C48D",
  "abi": [
    {
      "inputs": [
        {
          "internalType": "address",
          "name": "participant",
          "type": "address"
        }
      ],
      "name": "getAllJoinedTerms",
      "outputs": [
        {
          "internalType": "uint256[]",
          "name": "",
          "type": "uint256[]"
        }
      ],
      "stateMutability": "view",
      "type": "function"
    },
    {
      "inputs": [
        {
          "internalType": "uint256",
          "name": "termId",
          "type": "uint256"
        }
      ],
      "name": "getCollateralSummary",
      "outputs": [
        {
          "internalType": "bool",
          "name": "",
          "type": "bool"
        },
        {
          "internalType": "enum LibCollateralStorage.CollateralStates",
          "name": "",
          "type": "uint8"
        },
        {
          "internalType": "uint256",
          "name": "",
          "type": "uint256"
        },
        {
          "internalType": "uint256",
          "name": "",
          "type": "uint256"
        },
        {
          "internalType": "address[]",
          "name": "",
          "type": "address[]"
        }
      ],
      "stateMutability": "view",
      "type": "function"
    },
    {
      "inputs": [
        {
          "internalType": "string",
          "name": "firstAggregator",
          "type": "string"
        },
        {
          "internalType": "string",
          "name": "secondAggregator",
          "type": "string"
        },
        {
          "internalType": "string",
          "name": "zapAddress",
          "type": "string"
        },
        {
          "internalType": "string",
          "name": "vaultAddress",
          "type": "string"
        }
      ],
      "name": "getConstants",
      "outputs": [
        {
          "internalType": "address",
          "name": "",
          "type": "address"
        },
        {
          "internalType": "address",
          "name": "",
          "type": "address"
        },
        {
          "internalType": "address",
          "name": "",
          "type": "address"
        },
        {
          "internalType": "address",
          "name": "",
          "type": "address"
        }
      ],
      "stateMutability": "view",
      "type": "function"
    },
    {
      "inputs": [
        {
          "internalType": "uint256",
          "name": "termId",
          "type": "uint256"
        }
      ],
      "name": "getCurrentBeneficiary",
      "outputs": [
        {
          "internalType": "address",
          "name": "",
          "type": "address"
        }
      ],
      "stateMutability": "view",
      "type": "function"
    },
    {
      "inputs": [
        {
          "internalType": "address",
          "name": "depositor",
          "type": "address"
        },
        {
          "internalType": "uint256",
          "name": "termId",
          "type": "uint256"
        }
      ],
      "name": "getDepositorCollateralSummary",
      "outputs": [
        {
          "internalType": "bool",
          "name": "",
          "type": "bool"
        },
        {
          "internalType": "uint256",
          "name": "",
          "type": "uint256"
        },
        {
          "internalType": "uint256",
          "name": "",
          "type": "uint256"
        },
        {
          "internalType": "uint256",
          "name": "",
          "type": "uint256"
        },
        {
          "internalType": "uint256",
          "name": "",
          "type": "uint256"
        }
      ],
      "stateMutability": "view",
      "type": "function"
    },
    {
      "inputs": [
        {
          "internalType": "address",
          "name": "participant",
          "type": "address"
        }
      ],
      "name": "getExpelledTerms",
      "outputs": [
        {
          "internalType": "uint256[]",
          "name": "",
          "type": "uint256[]"
        }
      ],
      "stateMutability": "view",
      "type": "function"
    },
    {
      "inputs": [
        {
          "internalType": "uint256",
          "name": "termId",
          "type": "uint256"
        }
      ],
      "name": "getFundSummary",
      "outputs": [
        {
          "internalType": "bool",
          "name": "",
          "type": "bool"
        },
        {
          "internalType": "enum LibFundStorage.FundStates",
          "name": "",
          "type": "uint8"
        },
        {
          "internalType": "contract IERC20",
          "name": "",
          "type": "address"
        },
        {
          "internalType": "address[]",
          "name": "",
          "type": "address[]"
        },
        {
          "internalType": "uint256",
          "name": "",
          "type": "uint256"
        },
        {
          "internalType": "uint256",
          "name": "",
          "type": "uint256"
        },
        {
          "internalType": "uint256",
          "name": "",
          "type": "uint256"
        },
        {
          "internalType": "uint256",
          "name": "",
          "type": "uint256"
        }
      ],
      "stateMutability": "view",
      "type": "function"
    },
    {
      "inputs": [
        {
          "internalType": "address",
          "name": "participant",
          "type": "address"
        },
        {
          "internalType": "enum LibTermStorage.TermStates",
          "name": "state",
          "type": "uint8"
        }
      ],
      "name": "getJoinedTermsByState",
      "outputs": [
        {
          "internalType": "uint256[]",
          "name": "",
          "type": "uint256[]"
        }
      ],
      "stateMutability": "view",
      "type": "function"
    },
    {
      "inputs": [],
      "name": "getLatestPrice",
      "outputs": [
        {
          "internalType": "uint256",
          "name": "",
          "type": "uint256"
        }
      ],
      "stateMutability": "view",
      "type": "function"
    },
    {
      "inputs": [
        {
          "internalType": "address",
          "name": "user",
          "type": "address"
        }
      ],
      "name": "getNeededAllowance",
      "outputs": [
        {
          "internalType": "uint256",
          "name": "",
          "type": "uint256"
        }
      ],
      "stateMutability": "view",
      "type": "function"
    },
    {
      "inputs": [
        {
          "internalType": "address",
          "name": "participant",
          "type": "address"
        },
        {
          "internalType": "uint256",
          "name": "termId",
          "type": "uint256"
        }
      ],
      "name": "getParticipantFundSummary",
      "outputs": [
        {
          "internalType": "bool",
          "name": "",
          "type": "bool"
        },
        {
          "internalType": "bool",
          "name": "",
          "type": "bool"
        },
        {
          "internalType": "bool",
          "name": "",
          "type": "bool"
        },
        {
          "internalType": "bool",
          "name": "",
          "type": "bool"
        },
        {
          "internalType": "uint256",
          "name": "",
          "type": "uint256"
        },
        {
          "internalType": "bool",
          "name": "",
          "type": "bool"
        }
      ],
      "stateMutability": "view",
      "type": "function"
    },
    {
      "inputs": [
        {
          "internalType": "uint256",
          "name": "termId",
          "type": "uint256"
        }
      ],
      "name": "getRemainingContributionTime",
      "outputs": [
        {
          "internalType": "uint256",
          "name": "",
          "type": "uint256"
        }
      ],
      "stateMutability": "view",
      "type": "function"
    },
    {
      "inputs": [
        {
          "internalType": "uint256",
          "name": "termId",
          "type": "uint256"
        }
      ],
      "name": "getRemainingCycleTime",
      "outputs": [
        {
          "internalType": "uint256",
          "name": "",
          "type": "uint256"
        }
      ],
      "stateMutability": "view",
      "type": "function"
    },
    {
      "inputs": [
        {
          "internalType": "uint256",
          "name": "termId",
          "type": "uint256"
        }
      ],
      "name": "getRemainingCycles",
      "outputs": [
        {
          "internalType": "uint256",
          "name": "",
          "type": "uint256"
        }
      ],
      "stateMutability": "view",
      "type": "function"
    },
    {
      "inputs": [
        {
          "internalType": "uint256",
          "name": "termId",
          "type": "uint256"
        }
      ],
      "name": "getRemainingCyclesContributionWei",
      "outputs": [
        {
          "internalType": "uint256",
          "name": "",
          "type": "uint256"
        }
      ],
      "stateMutability": "view",
      "type": "function"
    },
    {
      "inputs": [
        {
          "internalType": "uint256",
          "name": "termId",
          "type": "uint256"
        }
      ],
      "name": "getRemainingRegistrationTime",
      "outputs": [
        {
          "internalType": "uint256",
          "name": "",
          "type": "uint256"
        }
      ],
      "stateMutability": "view",
      "type": "function"
    },
    {
      "inputs": [
        {
          "internalType": "uint256",
          "name": "termId",
          "type": "uint256"
        }
      ],
      "name": "getTermSummary",
      "outputs": [
        {
          "components": [
            {
              "internalType": "bool",
              "name": "initialized",
              "type": "bool"
            },
            {
              "internalType": "enum LibTermStorage.TermStates",
              "name": "state",
              "type": "uint8"
            },
            {
              "internalType": "address",
              "name": "termOwner",
              "type": "address"
            },
            {
              "internalType": "uint256",
              "name": "creationTime",
              "type": "uint256"
            },
            {
              "internalType": "uint256",
              "name": "termId",
              "type": "uint256"
            },
            {
              "internalType": "uint256",
              "name": "registrationPeriod",
              "type": "uint256"
            },
            {
              "internalType": "uint256",
              "name": "totalParticipants",
              "type": "uint256"
            },
            {
              "internalType": "uint256",
              "name": "cycleTime",
              "type": "uint256"
            },
            {
              "internalType": "uint256",
              "name": "contributionAmount",
              "type": "uint256"
            },
            {
              "internalType": "uint256",
              "name": "contributionPeriod",
              "type": "uint256"
            },
            {
              "internalType": "address",
              "name": "stableTokenAddress",
              "type": "address"
            }
          ],
          "internalType": "struct LibTermStorage.Term",
          "name": "",
          "type": "tuple"
        }
      ],
      "stateMutability": "view",
      "type": "function"
    },
    {
      "inputs": [],
      "name": "getTermsId",
      "outputs": [
        {
          "internalType": "uint256",
          "name": "",
          "type": "uint256"
        },
        {
          "internalType": "uint256",
          "name": "",
          "type": "uint256"
        }
      ],
      "stateMutability": "view",
      "type": "function"
    },
    {
      "inputs": [
        {
          "internalType": "uint256",
          "name": "USDAmount",
          "type": "uint256"
        }
      ],
      "name": "getToCollateralConversionRate",
      "outputs": [
        {
          "internalType": "uint256",
          "name": "",
          "type": "uint256"
        }
      ],
      "stateMutability": "view",
      "type": "function"
    },
    {
      "inputs": [
        {
          "internalType": "uint256",
          "name": "ethAmount",
          "type": "uint256"
        }
      ],
      "name": "getToStableConversionRate",
      "outputs": [
        {
          "internalType": "uint256",
          "name": "",
          "type": "uint256"
        }
      ],
      "stateMutability": "view",
      "type": "function"
    },
    {
      "inputs": [
        {
          "internalType": "uint256",
          "name": "termId",
          "type": "uint256"
        },
        {
          "internalType": "address",
          "name": "user",
          "type": "address"
        }
      ],
      "name": "getWithdrawableUserBalance",
      "outputs": [
        {
          "internalType": "uint256",
          "name": "allowedWithdrawal",
          "type": "uint256"
        }
      ],
      "stateMutability": "view",
      "type": "function"
    },
    {
      "inputs": [],
      "name": "getYieldLockState",
      "outputs": [
        {
          "internalType": "bool",
          "name": "",
          "type": "bool"
        }
      ],
      "stateMutability": "view",
      "type": "function"
    },
    {
      "inputs": [
        {
          "internalType": "uint256",
          "name": "termId",
          "type": "uint256"
        },
        {
          "internalType": "uint256",
          "name": "cycle",
          "type": "uint256"
        },
        {
          "internalType": "address",
          "name": "user",
          "type": "address"
        }
      ],
      "name": "isExempted",
      "outputs": [
        {
          "internalType": "bool",
          "name": "",
          "type": "bool"
        }
      ],
      "stateMutability": "view",
      "type": "function"
    },
    {
      "inputs": [
        {
          "internalType": "uint256",
          "name": "termId",
          "type": "uint256"
        },
        {
          "internalType": "uint256",
          "name": "depositorIndex",
          "type": "uint256"
        }
      ],
      "name": "minCollateralToDeposit",
      "outputs": [
        {
          "internalType": "uint256",
          "name": "amount",
          "type": "uint256"
        }
      ],
      "stateMutability": "view",
      "type": "function"
    },
    {
      "inputs": [
        {
          "internalType": "uint256",
          "name": "termId",
          "type": "uint256"
        }
      ],
      "name": "termAPY",
      "outputs": [
        {
          "internalType": "uint256",
          "name": "",
          "type": "uint256"
        }
      ],
      "stateMutability": "nonpayable",
      "type": "function"
    },
    {
      "inputs": [
        {
          "internalType": "uint256",
          "name": "termId",
          "type": "uint256"
        }
      ],
      "name": "totalYieldGenerated",
      "outputs": [
        {
          "internalType": "uint256",
          "name": "",
          "type": "uint256"
        }
      ],
      "stateMutability": "nonpayable",
      "type": "function"
    },
    {
      "inputs": [
        {
          "internalType": "uint256",
          "name": "termId",
          "type": "uint256"
        },
        {
          "internalType": "address",
          "name": "user",
          "type": "address"
        }
      ],
      "name": "userAPY",
      "outputs": [
        {
          "internalType": "uint256",
          "name": "",
          "type": "uint256"
        }
      ],
      "stateMutability": "nonpayable",
      "type": "function"
    },
    {
      "inputs": [
        {
          "internalType": "uint256",
          "name": "termId",
          "type": "uint256"
        },
        {
          "internalType": "address",
          "name": "user",
          "type": "address"
        }
      ],
      "name": "userHasoptedInYG",
      "outputs": [
        {
          "internalType": "bool",
          "name": "",
          "type": "bool"
        }
      ],
      "stateMutability": "view",
      "type": "function"
    },
    {
      "inputs": [
        {
          "internalType": "uint256",
          "name": "termId",
          "type": "uint256"
        },
        {
          "internalType": "address",
          "name": "user",
          "type": "address"
        }
      ],
      "name": "userYieldGenerated",
      "outputs": [
        {
          "internalType": "uint256",
          "name": "",
          "type": "uint256"
        }
      ],
      "stateMutability": "nonpayable",
      "type": "function"
    },
    {
      "inputs": [
        {
          "internalType": "uint256",
          "name": "termId",
          "type": "uint256"
        },
        {
          "internalType": "address",
          "name": "user",
          "type": "address"
        }
      ],
      "name": "wasExpelled",
      "outputs": [
        {
          "internalType": "bool",
          "name": "",
          "type": "bool"
        }
      ],
      "stateMutability": "view",
      "type": "function"
    },
    {
      "inputs": [
        {
          "internalType": "uint256",
          "name": "termId",
          "type": "uint256"
        },
        {
          "internalType": "address",
          "name": "user",
          "type": "address"
        }
      ],
      "name": "yieldDistributionRatio",
      "outputs": [
        {
          "internalType": "uint256",
          "name": "",
          "type": "uint256"
        }
      ],
      "stateMutability": "view",
      "type": "function"
    }
  ],
  "transactionHash": "0xc692c6a25873f2dce24f5f226be413aae116e769b40f149a90f3fd1ce2b103db",
  "args": [],
  "numDeployments": 13,
  "solcInputHash": "92a2cc66f5e547ac4ac61d3943522434",
  "bytecode": "0x608060405234801561001057600080fd5b506124d0806100206000396000f3fe608060405234801561001057600080fd5b50600436106101e55760003560e01c806392a6c8021161010f578063d8f8e991116100a2578063dc9e24ae11610071578063dc9e24ae146105ff578063e51a629514610612578063e6bbeae514610625578063f0d826e71461063857600080fd5b8063d8f8e9911461057d578063da3791ca146105a8578063dbd57683146105cc578063dbf42810146105ec57600080fd5b8063bb91b76d116100de578063bb91b76d146104f3578063d072f4bc14610530578063d72bb87e14610543578063d7992e5b1461056a57600080fd5b806392a6c80214610436578063afa6b96314610449578063b6abd1a41461045c578063b7cf483f146104a257600080fd5b806365654fe3116101875780637aed53a6116101565780637aed53a6146103eb57806380530731146104085780638e15f4731461041b57806391ce5ff71461042357600080fd5b806365654fe31461036857806375aaa78c1461037b57806375d4e40b1461038e57806377778baf146103d857600080fd5b80631e993b53116101c35780631e993b53146102ec5780633d17f1e01461030c5780636191474c1461034257806362f02abd1461035557600080fd5b80630c64c697146101ea5780630fc4a7ef146102105780631268612d14610223575b600080fd5b6101fd6101f8366004611dca565b61064b565b6040519081526020015b60405180910390f35b6101fd61021e366004611dec565b61070d565b6102b3610231366004611e21565b600090815260008051602061241b833981519152602090815260408083206001600160a01b039490941683526005840182528083205460068501835281842054600786018452828520546008870185528386205460098801865284872054600a909801909552929094205460ff91821696948216959282169493821693911690565b604080519615158752941515602087015292151593850193909352151560608401526080830191909152151560a082015260c001610207565b6102ff6102fa366004611e4b565b610741565b6040516102079190611e66565b7f7c039906f7f8ca11e01b6987a88513563589699678f7d2a6c8447f44d69375f35460ff165b6040519015158152602001610207565b6101fd610350366004611dec565b6108b4565b6101fd610363366004611dec565b610972565b6101fd610376366004611eaa565b6109b3565b6102ff610389366004611e4b565b610a0f565b61033261039c366004611eaa565b60009182526000805160206123fb833981519152602090815260408084206001600160a01b039390931684526007909201905290205460ff1690565b6101fd6103e6366004611eaa565b610aaf565b6103f3610c16565b60408051928352602083019190915201610207565b6101fd610416366004611dec565b610c47565b6101fd610c9c565b6101fd610431366004611dec565b610f30565b6101fd610444366004611dec565b610ff8565b6101fd610457366004611eaa565b611045565b61046f61046a366004611f79565b6110a2565b604080516001600160a01b0395861681529385166020850152918416918301919091529091166060820152608001610207565b6103326104b0366004612026565b600092835260008051602061241b83398151915260209081526040808520938552600c90930181528284206001600160a01b039290921684525290205460ff1690565b610506610501366004611e21565b6111a4565b6040805195151586526020860194909452928401919091526060830152608082015260a001610207565b6101fd61053e366004611dec565b611356565b610556610551366004611dec565b611378565b6040516102079897969594939291906120b5565b610332610578366004611eaa565b611451565b61059061058b366004611dec565b6114eb565b6040516001600160a01b039091168152602001610207565b6105bb6105b6366004611dec565b611547565b604051610207959493929190612133565b6105df6105da366004611dec565b6115fd565b6040516102079190612181565b6101fd6105fa366004611dec565b611746565b6102ff61060d36600461221f565b611909565b6101fd610620366004611e4b565b611aca565b6101fd610633366004611eaa565b611c2d565b6101fd610646366004611dec565b611ca8565b600082815260008051602061243b83398151915260205260408120600481015483106106b45760405162461bcd60e51b8152602060048201526013602482015272496e646578206f7574206f6620626f756e647360681b60448201526064015b60405180910390fd5b60006106d18260060154670de0b6b3a764000061053e9190612270565b905060648483600401546106e59190612287565b6106ef9083612270565b6106fa906096612270565b61070491906122b0565b95945050505050565b600080610718610c9c565b90506000670de0b6b3a764000061072f8584612270565b61073991906122b0565b949350505050565b6060600061074e83610a0f565b90506000815167ffffffffffffffff81111561076c5761076c611ed6565b604051908082528060200260200182016040528015610795578160200160208202803683370190505b508251909150600090815b81811015610817576107cb8582815181106107bd576107bd6122c4565b602002602001015188611451565b1561080f578481815181106107e2576107e26122c4565b60200260200101518484815181106107fc576107fc6122c4565b6020026020010181815250508260010192505b6001016107a0565b5060008267ffffffffffffffff81111561083357610833611ed6565b60405190808252806020026020018201604052801561085c578160200160208202803683370190505b50905060005b838110156108a95784818151811061087c5761087c6122c4565b6020026020010151828281518110610896576108966122c4565b6020908102919091010152600101610862565b509695505050505050565b600081815260008051602061241b8339815191526020908152604080832060008051602061243b83398151915290925282208154600190610100900460ff1660048111156109045761090461205b565b14610913575060009392505050565b600081600701548360020154600185600401546109309190612287565b846005015461093f9190612270565b61094991906122da565b61095391906122da565b90508042111561096857506000949350505050565b6107044282612287565b600081815260008051602061241b83398151915260205260408120600481015460148201546109a29060016122da565b6109ac9190612287565b9392505050565b60008281526000805160206123fb83398151915260205260408120600281015482906109df9042612287565b90508082600401546109f18787611045565b6109fb91906122b0565b6106fa906301e13380612270565b92915050565b6001600160a01b03811660009081527f87101b21d556417ad2b8e8f2700dbad90721d5d50a1f435f2dee0b9dc981ac8b60209081526040808320805482518185028101850190935280835260609460008051602061247b833981519152949093929190830182828015610aa157602002820191906000526020600020905b815481526020019060010190808311610a8d575b509398975050505050505050565b600082815260008051602061245b833981519152602090815260408083206000805160206123fb83398151915283528184206001600160a01b038616855260058201845282852054600a8201909452918420548154919391600290610100900460ff166003811115610b2357610b2361205b565b03610b3957610b3281836122da565b9450610c0c565b60018454610100900460ff166003811115610b5657610b5661205b565b03610c075760405163f0d826e760e01b815260048101889052600090600a90309063f0d826e790602401602060405180830381865afa158015610b9d573d6000803e3d6000fd5b505050506040513d601f19601f82011682018060405250810190610bc191906122ed565b610bcc90600f612270565b610bd691906122b0565b905080831115610bfc5781610beb8285612287565b610bf591906122da565b9550610c01565b600095505b50610c0c565b600094505b5050505092915050565b60008051602061247b833981519152805460009182918290610c3a90600190612287565b9154919491935090915050565b60008181526000805160206123fb8339815191526020526040812060028101548290610c739042612287565b9050808260040154610c8486611746565b610c8e91906122b0565b61072f906301e13380612270565b6000807f138fa7b895cc6132bd44317f3510a9c38821e93ca223f9fdc532527c01963ec4905060008060008084600001604051610ce690661155120bd554d160ca1b815260070190565b9081526040805191829003602001822054633fabe5a360e21b835290516001600160a01b039091169163feaf968c9160048083019260a09291908290030181865afa158015610d39573d6000803e3d6000fd5b505050506040513d601f19601f82011682018060405250810190610d5d919061231d565b94509450509350935081600014158015610d895750836001600160501b0316816001600160501b031610155b8015610d955750600083135b610de15760405162461bcd60e51b815260206004820152601b60248201527f436861696e6c696e6b4f7261636c653a207374616c652064617461000000000060448201526064016106ab565b60008060008088600001604051610e0690671554d110cbd554d160c21b815260080190565b9081526040805191829003602001822054633fabe5a360e21b835290516001600160a01b039091169163feaf968c9160048083019260a09291908290030181865afa158015610e59573d6000803e3d6000fd5b505050506040513d601f19601f82011682018060405250810190610e7d919061231d565b94509450509350935081600014158015610ea95750836001600160501b0316816001600160501b031610155b8015610eb55750600083135b610f015760405162461bcd60e51b815260206004820152601b60248201527f436861696e6c696e6b4f7261636c653a207374616c652064617461000000000060448201526064016106ab565b6000610f0d848961236d565b9050610f2181670de0b6b3a764000061239b565b9a505050505050505050505090565b600081815260008051602061243b8339815191526020908152604080832060008051602061245b833981519152909252822060018101548303610fb55760405162461bcd60e51b815260206004820152601860248201527f4e6f626f647920686173206465706f736974656420796574000000000000000060448201526064016106ab565b81600301548160010154610fc991906122da565b4210610fd9575060009392505050565b4282600301548260010154610fee91906122da565b6107399190612287565b600081815260008051602061241b8339815191526020908152604080832060008051602061243b833981519152909252822060028201546004830154600583015485929161094991612270565b60008281526000805160206123fb8339815191526020526040812061106a8484611c2d565b61107385611746565b61107d9190612270565b6001600160a01b038416600090815260088301602052604090205461073991906122da565b6040516000908190819081907f138fa7b895cc6132bd44317f3510a9c38821e93ca223f9fdc532527c01963ec4907ff27a5986330dc78d016d8604ee1a040d5a789fbaa2d0c27f5dfded4b616b89779082906110ff908c906123cb565b908152604051908190036020018120546001600160a01b0316908390611126908c906123cb565b908152604051908190036020018120546001600160a01b031690839061114d908c906123cb565b908152604051908190036020018120546001600160a01b0316908490611174908c906123cb565b9081526040519081900360200190205492985090965094506001600160a01b031692505050945094509450949050565b600081815260008051602061245b8339815191526020908152604080832060008051602061241b833981519152835281842060008051602061243b83398151915284528285206001600160a01b038816865260068201909452918420548493849384938493909290849060ff1661129a576006820154309063d072f4bc9061123490670de0b6b3a7640000612270565b6040518263ffffffff1660e01b815260040161125291815260200190565b602060405180830381865afa15801561126f573d6000803e3d6000fd5b505050506040513d601f19601f8201168201806040525081019061129391906122ed565b90506112fd565b60405163f0d826e760e01b8152600481018b9052309063f0d826e790602401602060405180830381865afa1580156112d6573d6000803e3d6000fd5b505050506040513d601f19601f820116820180604052508101906112fa91906122ed565b90505b6001600160a01b039a909a1660009081526004840160209081526040808320546005870183528184205460068801845282852054600790980190935292205460ff9092169c909b949a5090985092965091945050505050565b600080611361610c9c565b905060008161072f85670de0b6b3a7640000612270565b600080806060818080808060008051602061241b83398151915260008b81526020918252604090819020805460028201546003830154600484015460148501546001860180548851818b0281018b0190995280895296995060ff80871699610100880490911698620100009097046001600160a01b031697919691879183018282801561142e57602002820191906000526020600020905b81546001600160a01b03168152600190910190602001808311611410575b505050505094509850985098509850985098509850985050919395975091939597565b600082815260008051602061241b8339815191526020908152604080832060008051602061245b83398151915283528184206001600160a01b0386168552600582019093529083205490919060ff161580156114c857506001600160a01b038416600090815260048201602052604090205460ff16155b156114d857600192505050610a09565b600092505050610a09565b505092915050565b600081815260008051602061241b83398151915260205260408120600481015460018083019161151b9190612287565b8154811061152b5761152b6122c4565b6000918252602090912001546001600160a01b03169392505050565b600080808060608160008051602061245b8339815191526000888152602091825260409081902080546001820154600283015460038401805486518189028101890190975280875294975060ff8085169761010090950416959294919390929183918301828280156115e257602002820191906000526020600020905b81546001600160a01b031681526001909101906020018083116115c4575b50505050509050955095509550955095505091939590929450565b61166d60408051610160810190915260008082526020820190815260200160006001600160a01b031681526020016000815260200160008152602001600081526020016000815260200160008152602001600081526020016000815260200160006001600160a01b031681525090565b600082815260008051602061243b833981519152602090815260409182902082516101608101909352805460ff8082161515855291928401916101009091041660038111156116be576116be61205b565b60038111156116cf576116cf61205b565b815281546001600160a01b036201000090910481166020830152600183015460408301526002830154606083015260038301546080830152600483015460a0830152600583015460c0830152600683015460e083015260078301546101008301526008909201549091166101209091015292915050565b60008181526000805160206123fb833981519152602090815260408083206006810180548351818602810186019094528084529193859384939092918301828280156117bb57602002820191906000526020600020905b81546001600160a01b0316815260019091019060200180831161179d575b505083519394506000925050505b81811015611827578460080160008483815181106117e9576117e96122c4565b60200260200101516001600160a01b03166001600160a01b03168152602001908152602001600020548461181d91906122da565b93506001016117c9565b5060008460010160405161184a906816985e5b95985d5b1d60ba1b815260090190565b90815260405190819003602001812054631398fee160e31b82526001600160a01b031690639cc7f70890611886908a9060040190815260200190565b6020604051808303816000875af11580156118a5573d6000803e3d6000fd5b505050506040513d601f19601f820116820180604052508101906118c991906122ed565b60038601546005870154600488015492935090916118e8848484611d9c565b6118f290886122da565b6118fc9190612287565b9998505050505050505050565b6060600061191684610a0f565b90506000815167ffffffffffffffff81111561193457611934611ed6565b60405190808252806020026020018201604052801561195d578160200160208202803683370190505b508251909150600090815b81811015611a2c578660038111156119825761198261205b565b60008051602061247b83398151915260010160008784815181106119a8576119a86122c4565b6020026020010151815260200190815260200160002060000160019054906101000a900460ff1660038111156119e0576119e061205b565b03611a24578481815181106119f7576119f76122c4565b6020026020010151848481518110611a1157611a116122c4565b6020026020010181815250508260010192505b600101611968565b5060008267ffffffffffffffff811115611a4857611a48611ed6565b604051908082528060200260200182016040528015611a71578160200160208202803683370190505b50905060005b83811015611abe57848181518110611a9157611a916122c4565b6020026020010151828281518110611aab57611aab6122c4565b6020908102919091010152600101611a77565b50979650505050505050565b6000806000611ada846001611909565b90506000611ae9856000611909565b825181519192509060005b82811015611b9757600060008051602061247b8339815191526001016000878481518110611b2457611b246122c4565b6020026020010151815260200190815260200160002090506000611b60878481518110611b5357611b536122c4565b6020026020010151610972565b8260060154611b6f9190612270565b611b7c90620f4240612270565b9050611b8881896122da565b97508260010192505050611af4565b5060005b81811015611c2157600060008051602061247b8339815191526001016000868481518110611bcb57611bcb6122c4565b602002602001015181526020019081526020016000209050600081600401548260060154611bf99190612270565b611c0690620f4240612270565b9050611c1281896122da565b97508260010192505050611b9b565b50939695505050505050565b60008281526000805160206123fb8339815191526020908152604080832060008051602061245b833981519152909252822060048201548303611c7557600092505050610a09565b60048201546001600160a01b0385166000908152600583016020526040902054611c9f91906122b0565b92505050610a09565b600081815260008051602061241b8339815191526020908152604080832060008051602061243b833981519152909252822060048201546014830154849190611cf29060016122da565b611cfc9190612287565b90506000306001600160a01b031663d072f4bc8460060154670de0b6b3a7640000611d279190612270565b6040518263ffffffff1660e01b8152600401611d4591815260200190565b602060405180830381865afa158015611d62573d6000803e3d6000fd5b505050506040513d601f19601f82011682018060405250810190611d8691906122ed565b9050611d928183612270565b9695505050505050565b600081600003611dae575060006109ac565b81611db98486612270565b611dc391906122b0565b90506109ac565b60008060408385031215611ddd57600080fd5b50508035926020909101359150565b600060208284031215611dfe57600080fd5b5035919050565b80356001600160a01b0381168114611e1c57600080fd5b919050565b60008060408385031215611e3457600080fd5b611e3d83611e05565b946020939093013593505050565b600060208284031215611e5d57600080fd5b6109ac82611e05565b6020808252825182820181905260009190848201906040850190845b81811015611e9e57835183529284019291840191600101611e82565b50909695505050505050565b60008060408385031215611ebd57600080fd5b82359150611ecd60208401611e05565b90509250929050565b634e487b7160e01b600052604160045260246000fd5b600082601f830112611efd57600080fd5b813567ffffffffffffffff80821115611f1857611f18611ed6565b604051601f8301601f19908116603f01168101908282118183101715611f4057611f40611ed6565b81604052838152866020858801011115611f5957600080fd5b836020870160208301376000602085830101528094505050505092915050565b60008060008060808587031215611f8f57600080fd5b843567ffffffffffffffff80821115611fa757600080fd5b611fb388838901611eec565b95506020870135915080821115611fc957600080fd5b611fd588838901611eec565b94506040870135915080821115611feb57600080fd5b611ff788838901611eec565b9350606087013591508082111561200d57600080fd5b5061201a87828801611eec565b91505092959194509250565b60008060006060848603121561203b57600080fd5b833592506020840135915061205260408501611e05565b90509250925092565b634e487b7160e01b600052602160045260246000fd5b600081518084526020808501945080840160005b838110156120aa5781516001600160a01b031687529582019590820190600101612085565b509495945050505050565b60006101008a1515835260058a106120cf576120cf61205b565b602083018a90526001600160a01b0389166040840152606083018190526120f881840189612071565b9150508560808301528460a08301528360c08301528260e08301529998505050505050505050565b600481106121305761213061205b565b50565b851515815261214185612120565b84602082015283604082015282606082015260a06080820152600061216960a0830184612071565b979650505050505050565b61217d81612120565b9052565b8151151581526101608101602083015161219e6020840182612174565b5060408301516121b960408401826001600160a01b03169052565b50606083015160608301526080830151608083015260a083015160a083015260c083015160c083015260e083015160e0830152610100808401518184015250610120808401518184015250610140808401516114e3828501826001600160a01b03169052565b6000806040838503121561223257600080fd5b61223b83611e05565b915060208301356004811061224f57600080fd5b809150509250929050565b634e487b7160e01b600052601160045260246000fd5b8082028115828204841417610a0957610a0961225a565b81810381811115610a0957610a0961225a565b634e487b7160e01b600052601260045260246000fd5b6000826122bf576122bf61229a565b500490565b634e487b7160e01b600052603260045260246000fd5b80820180821115610a0957610a0961225a565b6000602082840312156122ff57600080fd5b5051919050565b80516001600160501b0381168114611e1c57600080fd5b600080600080600060a0868803121561233557600080fd5b61233e86612306565b945060208601519350604086015192506060860151915061236160808701612306565b90509295509295909350565b60008261237c5761237c61229a565b600160ff1b8214600019841416156123965761239661225a565b500590565b80820260008212600160ff1b841416156123b7576123b761225a565b8181058314821517610a0957610a0961225a565b6000825160005b818110156123ec57602081860181015185830152016123d2565b50600092019182525091905056fe29d9cba46c358ba7c1b8945751229339792c7c62e3197c240fa98916e75ffbf96751f7e27cecf86d7136f5749c224248cae80a39fafb59f8f6bf12c52816307c87101b21d556417ad2b8e8f2700dbad90721d5d50a1f435f2dee0b9dc981ac8a35fa70a6f9ae8a4d427ebe0c1be62ffd2870fecc1df41c6fda0bf5803e56288887101b21d556417ad2b8e8f2700dbad90721d5d50a1f435f2dee0b9dc981ac89a26469706673582212200e40ff07a351967e373de1e6e214020e3b9007b4f2f6016c4144fae1aa773a8a64736f6c63430008120033",
  "devdoc": {
    "kind": "dev",
    "methods": {
      "getAllJoinedTerms(address)": {
        "params": {
          "participant": "the participant address"
        },
        "returns": {
          "_0": "an array with the term ids the participant is part of"
        }
      },
      "getCollateralSummary(uint256)": {
        "params": {
          "termId": "the collateral id"
        },
        "returns": {
          "_0": "collateral initialized",
          "_1": "collateral state",
          "_2": "collateral firstDepositTime",
          "_3": "counterMembers",
          "_4": "collateral depositors"
        }
      },
      "getConstants(string,string,string,string)": {
        "params": {
          "firstAggregator": "The name of the first aggregator. Example: \"ETH/USD\"",
          "secondAggregator": "The name of the second aggregator. Example: \"USDC/USD\"",
          "vaultAddress": "The name of the vault address. Example: \"ZaynVault\"",
          "zapAddress": "The name of the zap address. Example: \"ZaynZap\""
        }
      },
      "getCurrentBeneficiary(uint256)": {
        "params": {
          "termId": "the fund id"
        },
        "returns": {
          "_0": "the current beneficiary"
        }
      },
      "getDepositorCollateralSummary(address,uint256)": {
        "params": {
          "depositor": "the depositor address",
          "termId": "the collateral id"
        },
        "returns": {
          "_0": "isCollateralMember",
          "_1": "collateralMembersBank",
          "_2": "collateralPaymentBank",
          "_3": "collateralDepositByUser",
          "_4": "expulsion limit"
        }
      },
      "getExpelledTerms(address)": {
        "params": {
          "participant": "the participant address"
        },
        "returns": {
          "_0": "an array the term ids the participant is part of, giving the state of the term"
        }
      },
      "getFundSummary(uint256)": {
        "params": {
          "termId": "the fund id"
        },
        "returns": {
          "_0": "fund initialized",
          "_1": "fund currentState",
          "_2": "fund stableToken",
          "_3": "fund beneficiariesOrder",
          "_4": "fund fundStart",
          "_5": "fund fundEnd",
          "_6": "fund currentCycle",
          "_7": "fund totalAmountOfCycles"
        }
      },
      "getJoinedTermsByState(address,uint8)": {
        "params": {
          "participant": "the participant address",
          "state": "the term state"
        },
        "returns": {
          "_0": "an array with the term ids the participant is part of, giving the state of the term"
        }
      },
      "getLatestPrice()": {
        "returns": {
          "_0": "uint latest price in Wei Note: 18 decimals"
        }
      },
      "getNeededAllowance(address)": {
        "params": {
          "user": "the user address"
        },
        "returns": {
          "_0": "the needed allowance"
        }
      },
      "getParticipantFundSummary(address,uint256)": {
        "params": {
          "participant": "the user to get the info from",
          "termId": "the fund id"
        },
        "returns": {
          "_0": "fund isParticipant, true if is participant",
          "_1": "fund isBeneficiary, true if has been beneficiary",
          "_2": "fund paidThisCycle, true if has paid the current cycle",
          "_3": "fund autoPayEnabled, true if auto pay is enabled",
          "_4": "fund beneficiariesPool, the beneficiary pool, 6 decimals",
          "_5": "fund beneficiariesFrozenPool, true if the beneficiary pool is frozen"
        }
      },
      "getRemainingContributionTime(uint256)": {
        "params": {
          "termId": "the fund id"
        },
        "returns": {
          "_0": "the time left to contribute"
        }
      },
      "getRemainingCycleTime(uint256)": {
        "params": {
          "termId": "the term id"
        },
        "returns": {
          "_0": "remaining time in the current cycle"
        }
      },
      "getRemainingCycles(uint256)": {
        "params": {
          "termId": "the term id"
        },
        "returns": {
          "_0": "remaining cycles"
        }
      },
      "getRemainingCyclesContributionWei(uint256)": {
        "params": {
          "termId": "the term id"
        },
        "returns": {
          "_0": "remaining cycles contribution"
        }
      },
      "getRemainingRegistrationTime(uint256)": {
        "params": {
          "termId": "the term id"
        },
        "returns": {
          "_0": "remaining contribution period"
        }
      },
      "getTermSummary(uint256)": {
        "params": {
          "termId": "the term id"
        },
        "returns": {
          "_0": "the term struct"
        }
      },
      "getTermsId()": {
        "returns": {
          "_0": "the current term id",
          "_1": "the next term id"
        }
      },
      "getToCollateralConversionRate(uint256)": {
        "details": "should we always deal with in Wei?",
        "params": {
          "USDAmount": "The amount in USD with 18 decimals"
        },
        "returns": {
          "_0": "uint converted amount in wei"
        }
      },
      "getToStableConversionRate(uint256)": {
        "details": "should we always deal with in Wei?",
        "params": {
          "ethAmount": "The amount in ETH"
        },
        "returns": {
          "_0": "uint converted amount in USD correct to 18 decimals"
        }
      },
      "getWithdrawableUserBalance(uint256,address)": {
        "params": {
          "termId": "term id",
          "user": "depositor address"
        },
        "returns": {
          "allowedWithdrawal": "amount the amount of collateral the depositor can withdraw"
        }
      },
      "isExempted(uint256,uint256,address)": {
        "params": {
          "cycle": "the cycle to check",
          "termId": "the fund id",
          "user": "the user to check"
        },
        "returns": {
          "_0": "true if the user is exempted"
        }
      },
      "minCollateralToDeposit(uint256,uint256)": {
        "details": "The minimum collateral amount is calculated based on the index on the depositors arrayThe return value should be the minimum msg.value when calling joinTermC = 1.5 Cp (Tp - I) where C = minimum collateral amount, Cp = contribution amount, Tp = total participants, I = depositor index (starts at 0). 1.5",
        "returns": {
          "amount": "the minimum collateral amount to deposit in wei"
        }
      },
      "termAPY(uint256)": {
        "params": {
          "termId": "The term id for which the APY is being calculated"
        },
        "returns": {
          "_0": "The APY for the term"
        }
      },
      "totalYieldGenerated(uint256)": {
        "params": {
          "termId": "The term id for which the yield is being calculated"
        },
        "returns": {
          "_0": "The total yield generated for the term"
        }
      },
      "userAPY(uint256,address)": {
        "params": {
          "termId": "The term id for which the APY is being calculated",
          "user": "The user for which the APY is being calculated"
        },
        "returns": {
          "_0": "The APY for the user"
        }
      },
      "userHasoptedInYG(uint256,address)": {
        "params": {
          "termId": "The term id for which the check is being made",
          "user": "The user for which the check is being made"
        },
        "returns": {
          "_0": "True if the user has opted in"
        }
      },
      "userYieldGenerated(uint256,address)": {
        "params": {
          "termId": "The term id for which the yield is being calculated",
          "user": "The user for which the yield is being calculated"
        },
        "returns": {
          "_0": "The total yield generated for the user"
        }
      },
      "wasExpelled(uint256,address)": {
        "params": {
          "termId": "the fund id",
          "user": "the user to check"
        },
        "returns": {
          "_0": "true if the user was expelled before"
        }
      },
      "yieldDistributionRatio(uint256,address)": {
        "params": {
          "termId": "The term id for which the ratio is being calculated",
          "user": "The user for which the ratio is being calculated"
        },
        "returns": {
          "_0": "The yield distribution ratio for the user"
        }
      }
    },
    "version": 1
  },
  "userdoc": {
    "kind": "user",
    "methods": {
      "getConstants(string,string,string,string)": {
        "notice": "This function return the current constant values for oracles and yield providers"
      },
      "getCurrentBeneficiary(uint256)": {
        "notice": "function to get the current beneficiary"
      },
      "getFundSummary(uint256)": {
        "notice": "function to get the cycle information in one go"
      },
      "getLatestPrice()": {
        "notice": "Gets latest ETH / USD price"
      },
      "getNeededAllowance(address)": {
        "notice": "a function to get the needed allowance for every active term the user is part of"
      },
      "getParticipantFundSummary(address,uint256)": {
        "notice": "function to get cycle information of a specific participant"
      },
      "getRemainingContributionTime(uint256)": {
        "notice": "returns the time left to contribute for this cycle"
      },
      "getRemainingRegistrationTime(uint256)": {
        "notice": "Gets the remaining registration period for a term"
      },
      "getToCollateralConversionRate(uint256)": {
        "notice": "Gets the conversion rate of an amount in USD to ETH"
      },
      "getToStableConversionRate(uint256)": {
        "notice": "Gets the conversion rate of an amount in ETH to USD"
      },
      "getWithdrawableUserBalance(uint256,address)": {
        "notice": "Called to check how much collateral a user can withdraw"
      },
      "getYieldLockState()": {
        "notice": "This function is used to get the current state of the yield lock"
      },
      "isExempted(uint256,uint256,address)": {
        "notice": "function to see if a user is exempted from paying a cycle"
      },
      "minCollateralToDeposit(uint256,uint256)": {
        "notice": "Called to check the minimum collateral amount to deposit in wei"
      },
      "termAPY(uint256)": {
        "notice": "This function is used to get a term APY"
      },
      "totalYieldGenerated(uint256)": {
        "notice": "This function is used to get the total yield generated for a term"
      },
      "userAPY(uint256,address)": {
        "notice": "This function is used to get a user APY"
      },
      "userHasoptedInYG(uint256,address)": {
        "notice": "This function is used to check if a user has opted in for yield generation"
      },
      "userYieldGenerated(uint256,address)": {
        "notice": "This function is used to get the total yield generated for a user"
      },
      "wasExpelled(uint256,address)": {
        "notice": "function to know if a user was expelled before"
      },
      "yieldDistributionRatio(uint256,address)": {
        "notice": "This function is used to get the yield distribution ratio for a user"
      }
    },
    "version": 1
  },
  "storageLayout": {
    "storage": [],
    "types": null
  }
}