{
  "address": "0x197243647351d6375f7E7aa35EC027FFE8ff0f33",
  "abi": [
    {
      "anonymous": false,
      "inputs": [
        {
          "indexed": true,
          "internalType": "uint256",
          "name": "termId",
          "type": "uint256"
        },
        {
          "indexed": true,
          "internalType": "address",
          "name": "user",
          "type": "address"
        },
        {
          "indexed": false,
          "internalType": "uint256",
          "name": "amount",
          "type": "uint256"
        }
      ],
      "name": "OnCollateralDeposited",
      "type": "event"
    },
    {
      "anonymous": false,
      "inputs": [
        {
          "indexed": true,
          "internalType": "uint256",
          "name": "termId",
          "type": "uint256"
        },
        {
          "indexed": true,
          "internalType": "address",
          "name": "termOwner",
          "type": "address"
        }
      ],
      "name": "OnTermCreated",
      "type": "event"
    },
    {
      "anonymous": false,
      "inputs": [
        {
          "indexed": true,
          "internalType": "uint256",
          "name": "termId",
          "type": "uint256"
        }
      ],
      "name": "OnTermExpired",
      "type": "event"
    },
    {
      "anonymous": false,
      "inputs": [
        {
          "indexed": true,
          "internalType": "uint256",
          "name": "termId",
          "type": "uint256"
        }
      ],
      "name": "OnTermFilled",
      "type": "event"
    },
    {
      "inputs": [],
      "name": "TERM_VERSION",
      "outputs": [
        {
          "internalType": "uint256",
          "name": "",
          "type": "uint256"
        }
      ],
      "stateMutability": "view",
      "type": "function"
    },
    {
      "inputs": [
        {
          "internalType": "uint256",
          "name": "totalParticipants",
          "type": "uint256"
        },
        {
          "internalType": "uint256",
          "name": "registrationPeriod",
          "type": "uint256"
        },
        {
          "internalType": "uint256",
          "name": "cycleTime",
          "type": "uint256"
        },
        {
          "internalType": "uint256",
          "name": "contributionAmount",
          "type": "uint256"
        },
        {
          "internalType": "uint256",
          "name": "contributionPeriod",
          "type": "uint256"
        },
        {
          "internalType": "address",
          "name": "stableTokenAddress",
          "type": "address"
        }
      ],
      "name": "createTerm",
      "outputs": [
        {
          "internalType": "uint256",
          "name": "",
          "type": "uint256"
        }
      ],
      "stateMutability": "nonpayable",
      "type": "function"
    },
    {
      "inputs": [
        {
          "internalType": "uint256",
          "name": "termId",
          "type": "uint256"
        }
      ],
      "name": "expireTerm",
      "outputs": [],
      "stateMutability": "nonpayable",
      "type": "function"
    },
    {
      "inputs": [
        {
          "internalType": "uint256",
          "name": "termId",
          "type": "uint256"
        }
      ],
      "name": "joinTerm",
      "outputs": [],
      "stateMutability": "payable",
      "type": "function"
    },
    {
      "inputs": [
        {
          "internalType": "uint256",
          "name": "termId",
          "type": "uint256"
        }
      ],
      "name": "startTerm",
      "outputs": [],
      "stateMutability": "nonpayable",
      "type": "function"
    }
  ],
  "transactionHash": "0x701159333e32926a391954214adadb8e46a3c8304841e49b2be824b071cca89b",
  "args": [],
  "numDeployments": 1,
  "solcInputHash": "170280041a9111201cdb7b99d57489f8",
  "bytecode": "0x608060405234801561001057600080fd5b50611637806100206000396000f3fe60806040526004361061004a5760003560e01c806336f6f6b51461004f5780633e4986cd14610076578063485fd0761461008b578063aa31ef32146100ab578063b1705fa2146100cb575b600080fd5b34801561005b57600080fd5b50610064600281565b60405190815260200160405180910390f35b6100896100843660046113b9565b6100eb565b005b34801561009757600080fd5b506100896100a63660046113b9565b6100f7565b3480156100b757600080fd5b506100646100c63660046113d2565b610100565b3480156100d757600080fd5b506100896100e63660046113b9565b61011b565b6100f481610124565b50565b6100f4816105b2565b6000610110878787878787610910565b979650505050505050565b6100f481610c0f565b60008181527f87101b21d556417ad2b8e8f2700dbad90721d5d50a1f435f2dee0b9dc981ac8a60208181526040808420815161016081018352815460ff80821680151584526101008084049092161515848801526001600160a01b03620100009093048316848701526001850154606085015260028501546080850152600385015460a0850152600485015460c0850152600585015460e08501526006850154918401919091526007840154610120840152600890930154166101408201528686526000805160206115e2833981519152845291909420929091527f87101b21d556417ad2b8e8f2700dbad90721d5d50a1f435f2dee0b9dc981ac89929091908015610234575061023484610ee7565b61023d57600080fd5b8160c001518160020154106102845760405162461bcd60e51b81526020600482015260086024820152674e6f20737061636560c01b60448201526064015b60405180910390fd5b8160a0015182606001516102989190611449565b4211156102e75760405162461bcd60e51b815260206004820152601960248201527f526567697374726174696f6e20706572696f6420656e64656400000000000000604482015260640161027b565b33600090815260048201602052604090205460ff16156103335760405162461bcd60e51b81526020600482015260076024820152665265656e74727960c81b604482015260640161027b565b6003810154349060005b8181101561055b5760006001600160a01b031684600301828154811061036557610365611462565b6000918252602090912001546001600160a01b031603610553576040516366bc7d2160e11b8152600090309063cd78fa42906103a79089908690600401611478565b602060405180830381865afa1580156103c4573d6000803e3d6000fd5b505050506040513d601f19601f820116820180604052508101906103e89190611527565b9050808410156104305760405162461bcd60e51b8152602060048201526013602482015272457468207061796d656e7420746f6f206c6f7760681b604482015260640161027b565b33600090815260058601602052604081208054869290610451908490611449565b90915550503360008181526004870160205260409020805460ff191660011790556003860180548490811061048857610488611462565b6000918252602082200180546001600160a01b0319166001600160a01b039390931692909217909155600286018054916104c183611540565b9091555050336000908152600786016020526040812080548692906104e7908490611449565b90915550503360008181526002890160209081526040808320805460018101825590845291909220018a90555189907f6e0a2371131a7d423998fa7e71296a76f74b9c658d0b210b3f8e70eff0e536d8906105459088815260200190565b60405180910390a35061055b565b60010161033d565b50826002015460010361056f574260018401555b8360c001518360020154036105aa5760405186907fcb9c59095b121bb2ee6f91e996d96e8937149675a0dd11c12b5d08ec2cc7abba90600090a25b505050505050565b60008181527f87101b21d556417ad2b8e8f2700dbad90721d5d50a1f435f2dee0b9dc981ac8a60209081526040808320815161016081018352815460ff808216151583526101008083049091161515838701526001600160a01b0362010000909204821683860152600184015460608401526002840154608084015260038085015460a0850152600485015460c0850152600585015460e08501526006850154918401919091526007840154610120840152600890930154166101408201528585526000805160206115e283398151915284528285209182018054845181870281018701909552808552919592949293929091908301828280156106df57602002820191906000526020600020905b81546001600160a01b031681526001909101906020018083116106c1575b505050505090506000815190508360a0015184606001516107009190611449565b421161074e5760405162461bcd60e51b815260206004820152601760248201527f5465726d206e6f7420726561647920746f207374617274000000000000000000604482015260640161027b565b8360c001518360020154146107a55760405162461bcd60e51b815260206004820152601860248201527f416c6c2073706f747320617265206e6f742066696c6c65640000000000000000604482015260640161027b565b60005b8181101561089857306001600160a01b031663c177f09186608001518584815181106107d6576107d6611462565b60200260200101516040518363ffffffff1660e01b815260040161080d9291909182526001600160a01b0316602082015260400190565b602060405180830381865afa15801561082a573d6000803e3d6000fd5b505050506040513d601f19601f8201168201806040525081019061084e9190611559565b156108905760405162461bcd60e51b8152602060048201526012602482015271115d1a081c1c9a58d95cc8191c9bdc1c195960721b604482015260640161027b565b6001016107a8565b506108a38484610f0d565b6108ad8484611044565b60808401516040516302c1ed1f60e01b815230916302c1ed1f916108d79190600190600401611582565b600060405180830381600087803b1580156108f157600080fd5b505af1158015610905573d6000803e3d6000fd5b505050505050505050565b6000841580159061092057508315155b801561092b57508215155b801561093657508615155b801561094157508515155b801561094c57508483105b801561096057506001600160a01b03821615155b61099d5760405162461bcd60e51b815260206004820152600e60248201526d496e76616c696420696e7075747360901b604482015260640161027b565b60007f87101b21d556417ad2b8e8f2700dbad90721d5d50a1f435f2dee0b9dc981ac8980546040805161016081018252600080825260208201819052918101829052606081018290526080810182905260a0810182905260c0810182905260e08101829052610100810182905261012081018290526101408101919091529192509081816080018181525050898160c0018181525050888160a0018181525050878160e001818152505086816101000181815250508581610120018181525050848161014001906001600160a01b031690816001600160a01b0316815250503381604001906001600160a01b031690816001600160a01b0316815250504281606001818152505060018160000190151590811515815250508083600101600084815260200190815260200160002060008201518160000160006101000a81548160ff02191690831515021790555060208201518160000160016101000a81548160ff02191690831515021790555060408201518160000160026101000a8154816001600160a01b0302191690836001600160a01b03160217905550606082015181600101556080820151816002015560a0820151816003015560c0820151816004015560e08201518160050155610100820151816006015561012082015181600701556101408201518160080160006101000a8154816001600160a01b0302191690836001600160a01b03160217905550905050826000016000815480929190610bc690611540565b9190505550610bd5828b611251565b604051339083907f3bff48239db8f29891497cd2efd85d201f5723830e7c8cfaef44cc50a4bc024c90600090a35098975050505050505050565b60008181527f87101b21d556417ad2b8e8f2700dbad90721d5d50a1f435f2dee0b9dc981ac8a602081815260408084206000805160206115e283398151915283529320919052815460ff168015610c6a5750610c6a83610ee7565b610c7357600080fd5b81600301548260010154610c879190611449565b4211610cd55760405162461bcd60e51b815260206004820152601d60248201527f526567697374726174696f6e20706572696f64206e6f7420656e646564000000604482015260640161027b565b8160040154816002015410610d375760405162461bcd60e51b815260206004820152602260248201527f416c6c2073706f7473206172652066696c6c65642c2063616e27742065787069604482015261726560f01b606482015260840161027b565b8154610100900460ff1615610d855760405162461bcd60e51b815260206004820152601460248201527315195c9b48185b1c9958591e48195e1c1a5c995960621b604482015260640161027b565b600381015460005b81811015610e9b576000836003018281548110610dac57610dac611462565b6000918252602090912001546001600160a01b031690508015610e92576001600160a01b0381166000908152600585016020908152604080832054600688019092528220805491928392610e01908490611449565b90915550506001600160a01b03821660009081526005860160209081526040808320839055600488019091528120805460ff1916905560038601805485908110610e4d57610e4d611462565b9060005260206000200160006101000a8154816001600160a01b0302191690836001600160a01b031602179055508460020160008154610e8c906115b4565b90915550505b50600101610d8d565b50825461ff001916610100178355815461ffff191661030017825560405184907f9983062774b9b7f1b9071acd776af98f78c06bf9ad065553a83395178ef6243a90600090a250505050565b60006000805160206115e28339815191525b600092835260205250604090205460ff1690565b610f1a82608001516112d7565b15610f5d5760405162461bcd60e51b815260206004820152601360248201527246756e6420616c72656164792065786973747360681b604482015260640161027b565b608082015160009081527f6751f7e27cecf86d7136f5749c224248cae80a39fafb59f8f6bf12c52816307c6020526040902061014083015181546001600160a01b03909116620100000262010000600160b01b0319909116178155600382018054610fcc9160018401916112ff565b50805460ff191660019081178255810154601382015560808301516040516305e920e960e51b8152309163bd241d209161100d919060040190815260200190565b600060405180830381600087803b15801561102757600080fd5b505af115801561103b573d6000803e3d6000fd5b50505050505050565b608082015160009081527f29d9cba46c358ba7c1b8945751229339792c7c62e3197c240fa98916e75ffbf960209081526040808320600385018054835181860281018601909452808452919493849392908301828280156110ce57602002820191906000526020600020905b81546001600160a01b031681526001909101906020018083116110b0575b505083519394506000925050505b818110156111d3578460040160008483815181106110fc576110fc611462565b6020908102919091018101516001600160a01b031682528101919091526040016000205460ff16156111cb578460020183828151811061113e5761113e611462565b6020908102919091018101518254600181018455600093845291832090910180546001600160a01b0319166001600160a01b03909216919091179055835160058801919085908490811061119457611194611462565b60200260200101516001600160a01b03166001600160a01b0316815260200190815260200160002054846111c89190611449565b93505b6001016110dc565b50426003850155835460ff19166001178455608086015160405163625b293160e01b8152309163625b29319161121791908790600401918252602082015260400190565b600060405180830381600087803b15801561123157600080fd5b505af1158015611245573d6000803e3d6000fd5b50505050505050505050565b60008281526000805160206115e283398151915260205260409020805461ffff191660011781558167ffffffffffffffff811115611291576112916115cb565b6040519080825280602002602001820160405280156112ba578160200160208202803683370190505b5080516112d191600384019160209091019061134f565b50505050565b60007f6751f7e27cecf86d7136f5749c224248cae80a39fafb59f8f6bf12c52816307c610ef9565b82805482825590600052602060002090810192821561133f5760005260206000209182015b8281111561133f578254825591600101919060010190611324565b5061134b9291506113a4565b5090565b82805482825590600052602060002090810192821561133f579160200282015b8281111561133f57825182546001600160a01b0319166001600160a01b0390911617825560209092019160019091019061136f565b5b8082111561134b57600081556001016113a5565b6000602082840312156113cb57600080fd5b5035919050565b60008060008060008060c087890312156113eb57600080fd5b863595506020870135945060408701359350606087013592506080870135915060a08701356001600160a01b038116811461142557600080fd5b809150509295509295509295565b634e487b7160e01b600052601160045260246000fd5b8082018082111561145c5761145c611433565b92915050565b634e487b7160e01b600052603260045260246000fd5b82511515815261018081016020840151611496602084018215159052565b5060408401516114b160408401826001600160a01b03169052565b50606084015160608301526080840151608083015260a084015160a083015260c084015160c083015260e084015160e083015261010080850151818401525061012080850151818401525061014080850151611517828501826001600160a01b03169052565b5050826101608301529392505050565b60006020828403121561153957600080fd5b5051919050565b60006001820161155257611552611433565b5060010190565b60006020828403121561156b57600080fd5b8151801515811461157b57600080fd5b9392505050565b82815260408101600483106115a757634e487b7160e01b600052602160045260246000fd5b8260208301529392505050565b6000816115c3576115c3611433565b506000190190565b634e487b7160e01b600052604160045260246000fdfe35fa70a6f9ae8a4d427ebe0c1be62ffd2870fecc1df41c6fda0bf5803e562888a2646970667358221220cf4ad7646a44f544d63e0b37a1120718be2e797467fb79535e209bdf324c806a64736f6c63430008120033",
  "devdoc": {
    "author": "Mohammed Haddouti",
    "details": "v3.0 (Diamond)",
    "kind": "dev",
    "methods": {},
    "title": "Takaturn Term",
    "version": 1
  },
  "userdoc": {
    "kind": "user",
    "methods": {},
    "notice": "This is used to deploy the collateral & fund contracts",
    "version": 1
  },
  "storageLayout": {
    "storage": [],
    "types": null
  }
}