{
  "address": "0x2372e8793600748e167F08c220EE94885A3915a9",
  "abi": [
    {
      "anonymous": false,
      "inputs": [
        {
          "indexed": true,
          "internalType": "uint256",
          "name": "termId",
          "type": "uint256"
        },
        {
          "indexed": true,
          "internalType": "address",
          "name": "user",
          "type": "address"
        },
        {
          "indexed": false,
          "internalType": "uint256",
          "name": "amount",
          "type": "uint256"
        }
      ],
      "name": "OnCollateralDeposited",
      "type": "event"
    },
    {
      "anonymous": false,
      "inputs": [
        {
          "indexed": true,
          "internalType": "uint256",
          "name": "termId",
          "type": "uint256"
        },
        {
          "indexed": true,
          "internalType": "address",
          "name": "termOwner",
          "type": "address"
        }
      ],
      "name": "OnTermCreated",
      "type": "event"
    },
    {
      "anonymous": false,
      "inputs": [
        {
          "indexed": true,
          "internalType": "uint256",
          "name": "termId",
          "type": "uint256"
        }
      ],
      "name": "OnTermExpired",
      "type": "event"
    },
    {
      "anonymous": false,
      "inputs": [
        {
          "indexed": true,
          "internalType": "uint256",
          "name": "termId",
          "type": "uint256"
        }
      ],
      "name": "OnTermFilled",
      "type": "event"
    },
    {
      "anonymous": false,
      "inputs": [
        {
          "indexed": true,
          "internalType": "uint256",
          "name": "termId",
          "type": "uint256"
        }
      ],
      "name": "OnTermStart",
      "type": "event"
    },
    {
      "inputs": [],
      "name": "TERM_VERSION",
      "outputs": [
        {
          "internalType": "uint256",
          "name": "",
          "type": "uint256"
        }
      ],
      "stateMutability": "view",
      "type": "function"
    },
    {
      "inputs": [
        {
          "internalType": "uint256",
          "name": "totalParticipants",
          "type": "uint256"
        },
        {
          "internalType": "uint256",
          "name": "registrationPeriod",
          "type": "uint256"
        },
        {
          "internalType": "uint256",
          "name": "cycleTime",
          "type": "uint256"
        },
        {
          "internalType": "uint256",
          "name": "contributionAmount",
          "type": "uint256"
        },
        {
          "internalType": "uint256",
          "name": "contributionPeriod",
          "type": "uint256"
        },
        {
          "internalType": "address",
          "name": "stableTokenAddress",
          "type": "address"
        }
      ],
      "name": "createTerm",
      "outputs": [
        {
          "internalType": "uint256",
          "name": "",
          "type": "uint256"
        }
      ],
      "stateMutability": "nonpayable",
      "type": "function"
    },
    {
      "inputs": [
        {
          "internalType": "uint256",
          "name": "termId",
          "type": "uint256"
        }
      ],
      "name": "expireTerm",
      "outputs": [],
      "stateMutability": "nonpayable",
      "type": "function"
    },
    {
      "inputs": [
        {
          "internalType": "uint256",
          "name": "termId",
          "type": "uint256"
        },
        {
          "internalType": "bool",
          "name": "optYield",
          "type": "bool"
        }
      ],
      "name": "joinTerm",
      "outputs": [],
      "stateMutability": "payable",
      "type": "function"
    },
    {
      "inputs": [
        {
          "internalType": "uint256",
          "name": "termId",
          "type": "uint256"
        }
      ],
      "name": "startTerm",
      "outputs": [],
      "stateMutability": "nonpayable",
      "type": "function"
    }
  ],
  "transactionHash": "0xda926777f233b80e2bbcb4d75f1262737e24dd4102d0b0807dbfc0b6226aa6d7",
  "args": [],
  "numDeployments": 5,
  "solcInputHash": "3ba7b2adbcac8b26964f39c59000aa84",
  "bytecode": "0x608060405234801561001057600080fd5b50611d80806100206000396000f3fe60806040526004361061004a5760003560e01c806336f6f6b51461004f578063485fd07614610076578063692d8ba714610098578063aa31ef32146100ab578063b1705fa2146100cb575b600080fd5b34801561005b57600080fd5b50610064600281565b60405190815260200160405180910390f35b34801561008257600080fd5b50610096610091366004611b1d565b6100eb565b005b6100966100a6366004611b44565b6100f7565b3480156100b757600080fd5b506100646100c6366004611b89565b610105565b3480156100d757600080fd5b506100966100e6366004611b1d565b610120565b6100f481610129565b50565b6101018282610469565b5050565b60006101158787878787876108f9565b979650505050505050565b6100f481610b4b565b6000818152600080516020611d0b8339815191526020908152604080832081516101608101909252805460ff80821615158452929391929184019161010090910416600381111561017c5761017c611bde565b600381111561018d5761018d611bde565b815281546201000090046001600160a01b039081166020830152600183015460408301526002830154606083015260038301546080830152600483015460a0830152600583015460c0830152600683015460e083015260078301546101008301526008909201549091166101209091015290506000600080516020611d2b833981519152600084815260209182526040808220600381018054835181870281018701909452808452919550929391929183018282801561027657602002820191906000526020600020905b81546001600160a01b03168152600190910190602001808311610258575b505050505090506000815190508360a0015183600101546102979190611c0a565b42116102ea5760405162461bcd60e51b815260206004820152601760248201527f5465726d206e6f7420726561647920746f20737461727400000000000000000060448201526064015b60405180910390fd5b8360c001518360020154146103415760405162461bcd60e51b815260206004820152601860248201527f416c6c2073706f747320617265206e6f742066696c6c6564000000000000000060448201526064016102e1565b60005b8181101561043457306001600160a01b031663c177f091866080015185848151811061037257610372611c1d565b60200260200101516040518363ffffffff1660e01b81526004016103a99291909182526001600160a01b0316602082015260400190565b602060405180830381865afa1580156103c6573d6000803e3d6000fd5b505050506040513d601f19601f820116820180604052508101906103ea9190611c33565b1561042c5760405162461bcd60e51b8152602060048201526012602482015271115d1a081c1c9a58d95cc8191c9bdc1c195960721b60448201526064016102e1565b600101610344565b5061043f8484610e24565b6104498484610efc565b61045884608001516001611208565b600160208501819052505050505050565b6000828152600080516020611d0b8339815191526020908152604080832081516101608101909252805460ff808216151584527f87101b21d556417ad2b8e8f2700dbad90721d5d50a1f435f2dee0b9dc981ac89959484019161010090041660038111156104d9576104d9611bde565b60038111156104ea576104ea611bde565b815281546001600160a01b0362010000909104811660208084019190915260018401546040808501919091526002850154606085015260038501546080850152600485015460a0850152600585015460c0850152600685015460e08501526007850154610100850152600890940154909116610120909201919091526000878152600080516020611d2b83398151915282528281207f29d9cba46c358ba7c1b8945751229339792c7c62e3197c240fa98916e75ffbf98352838220600080516020611d0b83398151915290935292902054929350909160ff1680156105d357506105d3866112a5565b6105dc57600080fd5b60008254610100900460ff1660038111156105f9576105f9611bde565b1461062f5760405162461bcd60e51b815260206004820152600660248201526510db1bdcd95960d21b60448201526064016102e1565b8260c001518260020154106106715760405162461bcd60e51b81526020600482015260086024820152674e6f20737061636560c01b60448201526064016102e1565b33600090815260048301602052604090205460ff16156106bd5760405162461bcd60e51b81526020600482015260076024820152665265656e74727960c81b60448201526064016102e1565b6002820154604051630c64c69760e01b815260048101889052602481018290526000903090630c64c69790604401602060405180830381865afa158015610708573d6000803e3d6000fd5b505050506040513d601f19601f8201168201806040525081019061072c9190611c57565b9050803410156107745760405162461bcd60e51b8152602060048201526013602482015272457468207061796d656e7420746f6f206c6f7760681b60448201526064016102e1565b33600090815260058501602052604081208054349290610795908490611c0a565b90915550503360008181526004860160205260409020805460ff19166001179055600385018054849081106107cc576107cc611c1d565b6000918252602082200180546001600160a01b0319166001600160a01b0393909316929092179091556002850180549161080583611c70565b90915550503360009081526007850160205260408120805434929061082b908490611c0a565b909155505033600081815260028801602090815260408083208054600181018255908452828420018c905583835260078701825291829020805460ff19168b151517905590513481528a917f6e0a2371131a7d423998fa7e71296a76f74b9c658d0b210b3f8e70eff0e536d8910160405180910390a383600201546001036108b4574260018501555b8460c001518460020154036108ef5760405188907fcb9c59095b121bb2ee6f91e996d96e8937149675a0dd11c12b5d08ec2cc7abba90600090a25b5050505050505050565b6000841580159061090957508315155b801561091457508215155b801561091f57508615155b801561092a57508515155b801561093557508483105b801561094957506001600160a01b03821615155b6109865760405162461bcd60e51b815260206004820152600e60248201526d496e76616c696420696e7075747360901b60448201526064016102e1565b7f87101b21d556417ad2b8e8f2700dbad90721d5d50a1f435f2dee0b9dc981ac8980546040805161016081018252600060208083018281526080840186905260c084018e905260a084018d905260e084018c90526101008085018c905261012085018b90526001600160a01b038a16610140860152338587015242606086015260018552868452600080516020611d0b833981519152909252939091208251815490151560ff198216811783559451939485949293849261ff001990921661ffff199092169190911790836003811115610a6257610a62611bde565b02179055506040820151815462010000600160b01b031916620100006001600160a01b0392831602178255606083015160018301556080830151600283015560a0830151600383015560c0830151600483015560e083015160058301556101008301516006830155610120830151600783015561014090920151600890910180546001600160a01b031916919092161790558254836000610b0283611c70565b9190505550610b11828b6112cb565b604051339083907f3bff48239db8f29891497cd2efd85d201f5723830e7c8cfaef44cc50a4bc024c90600090a35098975050505050505050565b6000818152600080516020611d0b83398151915260208181526040808420600080516020611d2b83398151915283529320919052815460ff168015610b945750610b94836112a5565b610b9d57600080fd5b81600301548160010154610bb19190611c0a565b4211610bff5760405162461bcd60e51b815260206004820152601d60248201527f526567697374726174696f6e20706572696f64206e6f7420656e64656400000060448201526064016102e1565b8160040154816002015410610c615760405162461bcd60e51b815260206004820152602260248201527f416c6c2073706f7473206172652066696c6c65642c2063616e27742065787069604482015261726560f01b60648201526084016102e1565b60028254610100900460ff166003811115610c7e57610c7e611bde565b03610cc25760405162461bcd60e51b815260206004820152601460248201527315195c9b48185b1c9958591e48195e1c1a5c995960621b60448201526064016102e1565b600381015460005b81811015610dd8576000836003018281548110610ce957610ce9611c1d565b6000918252602090912001546001600160a01b031690508015610dcf576001600160a01b0381166000908152600585016020908152604080832054600688019092528220805491928392610d3e908490611c0a565b90915550506001600160a01b03821660009081526005860160209081526040808320839055600488019091528120805460ff1916905560038601805485908110610d8a57610d8a611c1d565b9060005260206000200160006101000a8154816001600160a01b0302191690836001600160a01b031602179055508460020160008154610dc990611c89565b90915550505b50600101610cca565b50825461ff001916610200178355815461ffff191661030017825560405184907f9983062774b9b7f1b9071acd776af98f78c06bf9ad065553a83395178ef6243a90600090a250505050565b610e318260800151611351565b15610e745760405162461bcd60e51b815260206004820152601360248201527246756e6420616c72656164792065786973747360681b60448201526064016102e1565b60808201516000908152600080516020611ceb8339815191526020526040902061014083015181546001600160a01b03909116620100000262010000600160b01b0319909116178155600382018054610ed1916001840191611a63565b508054600180830154601484015561ffff199091161781556080830151610ef790611367565b505050565b608082015160009081527f29d9cba46c358ba7c1b8945751229339792c7c62e3197c240fa98916e75ffbf96020908152604080832060038501805483518186028101860190945280845291947ff27a5986330dc78d016d8604ee1a040d5a789fbaa2d0c27f5dfded4b616b89779490938493909291830182828015610faa57602002820191906000526020600020905b81546001600160a01b03168152600190910190602001808311610f8c575b505083519394506000925050505b818110156110af57856007016000848381518110610fd857610fd8611c1d565b6020908102919091018101516001600160a01b031682528101919091526040016000205460ff16156110a7578560060183828151811061101a5761101a611c1d565b6020908102919091018101518254600181018455600093845291832090910180546001600160a01b0319166001600160a01b03909216919091179055835160058901919085908490811061107057611070611c1d565b60200260200101516001600160a01b03166001600160a01b0316815260200190815260200160002054846110a49190611c0a565b93505b600101610fb8565b5082156111ff57426002860155845460ff1916600117855560405184906110e3906605a61796e5a61760cc1b815260070190565b908152604051908190036020018120546001600160a01b0316906001870190611119906605a61796e5a61760cc1b815260070190565b9081526040805191829003602001822080546001600160a01b039485166001600160a01b03199091161790556816985e5b95985d5b1d60ba1b80835260098084018990529151928390036029018320549083529092169160018801910190815260405190819003602001812080546001600160a01b03939093166001600160a01b031990931692909217909155608088015163625b293160e01b8252600482015260248101849052309063625b293190604401600060405180830381600087803b1580156111e657600080fd5b505af11580156111fa573d6000803e3d6000fd5b505050505b50505050505050565b6000828152600080516020611d2b83398151915260205260409020805461010080820460ff16918491849161ff0019169083600381111561124b5761124b611bde565b021790555082600381111561126257611262611bde565b81600381111561127457611274611bde565b60405186907ffe918112a2fca8c18cc609a5d585d9fc8448267cb7b9d6c19a445fe5c0c199c890600090a450505050565b6000600080516020611d2b8339815191525b600092835260205250604090205460ff1690565b6000828152600080516020611d2b83398151915260205260409020805461ffff191660011781558167ffffffffffffffff81111561130b5761130b611ca0565b604051908082528060200260200182016040528015611334578160200160208202803683370190505b50805161134b916003840191602090910190611ab3565b50505050565b6000600080516020611ceb8339815191526112b7565b6000818152600080516020611ceb83398151915260205260408120600181015490915b81811015611422576113c883600d018460010183815481106113ae576113ae611c1d565b6000918252602090912001546001600160a01b0316611462565b5060018360050160008560010184815481106113e6576113e6611c1d565b6000918252602080832091909101546001600160a01b031683528201929092526040019020805460ff191691151591909117905560010161138a565b5061142c83611480565b42600283015560405183907fc3bfb99b88687651f8e660492ae2ee62a50d40e4131ace07f88ed4639b3a4bc390600090a2505050565b6000611477836001600160a01b038416611634565b90505b92915050565b6000818152600080516020611ceb83398151915260209081526040808320600080516020611d0b8339815191529092529091206002820154600483015460058301546114cc9190611cb6565b6114d69190611c0a565b42116115245760405162461bcd60e51b815260206004820152601c60248201527f546f6f206561726c7920746f207374617274206e6577206379636c650000000060448201526064016102e1565b60008254610100900460ff16600481111561154157611541611bde565b1480611567575060038254610100900460ff16600481111561156557611565611bde565b145b6115a15760405162461bcd60e51b815260206004820152600b60248201526a57726f6e6720737461746560a81b60448201526064016102e1565b81600401600081546115b290611c70565b90915550600182015460005b8181101561161f5760008460070160008660010184815481106115e3576115e3611c1d565b6000918252602080832091909101546001600160a01b031683528201929092526040019020805460ff19169115159190911790556001016115be565b5061162b846001611683565b61134b84611762565b600081815260018301602052604081205461167b5750815460018181018455600084815260208082209093018490558454848252828601909352604090209190915561147a565b50600061147a565b6000828152600080516020611ceb833981519152602052604090208054600490610100900460ff16818111156116bb576116bb611bde565b036116f65760405162461bcd60e51b815260206004820152600b60248201526a119d5b990818db1bdcd95960aa1b60448201526064016102e1565b80548290829061ff00191661010083600481111561171657611716611bde565b021790555081600481111561172d5761172d611bde565b600482015460405185907fe515107ce875160b9ed93bfd1367820d3ffbf412cd63d05140f6bc5535b51de390600090a4505050565b6000600080516020611ceb83398151915260008381526020919091526040808220905163d8f8e99160e01b815260048101859052909250309063d8f8e99190602401602060405180830381865afa1580156117c1573d6000803e3d6000fd5b505050506040513d601f19601f820116820180604052508101906117e59190611ccd565b905060008260010180548060200260200160405190810160405280929190818152602001828054801561184157602002820191906000526020600020905b81546001600160a01b03168152600190910190602001808311611823575b505083519394506000925050505b8181101561192b57600083828151811061186b5761186b611c1d565b60200260200101519050806001600160a01b0316856001600160a01b031603611897575060010161184f565b6001600160a01b038116600090815260088701602052604090205460ff1680156118dc57506001600160a01b038116600090815260078701602052604090205460ff16155b8015611912575060048601546000908152600c8701602090815260408083206001600160a01b038516845290915290205460ff16155b1561192257611922878283611933565b5060010161184f565b505050505050565b6000838152600080516020611ceb83398151915260209081526040808320600080516020611d0b833981519152909252822060068101549192909161197b90620f4240611cb6565b83546040516323b872dd60e01b81526001600160a01b0388811660048301523060248301526044820184905292935062010000909104909116906323b872dd906064016020604051808303816000875af19250505080156119f9575060408051601f3d908101601f191682019092526119f691810190611c33565b60015b1561192b5780156111ff576001600160a01b0385166000818152600786016020526040808220805460ff19166001179055600487015490519092918a917fe1122b3cea22012386ebf236fc23dd8a783b91c046d5dec812901846464624ae9190a450505050505050565b828054828255906000526020600020908101928215611aa35760005260206000209182015b82811115611aa3578254825591600101919060010190611a88565b50611aaf929150611b08565b5090565b828054828255906000526020600020908101928215611aa3579160200282015b82811115611aa357825182546001600160a01b0319166001600160a01b03909116178255602090920191600190910190611ad3565b5b80821115611aaf5760008155600101611b09565b600060208284031215611b2f57600080fd5b5035919050565b80151581146100f457600080fd5b60008060408385031215611b5757600080fd5b823591506020830135611b6981611b36565b809150509250929050565b6001600160a01b03811681146100f457600080fd5b60008060008060008060c08789031215611ba257600080fd5b863595506020870135945060408701359350606087013592506080870135915060a0870135611bd081611b74565b809150509295509295509295565b634e487b7160e01b600052602160045260246000fd5b634e487b7160e01b600052601160045260246000fd5b8082018082111561147a5761147a611bf4565b634e487b7160e01b600052603260045260246000fd5b600060208284031215611c4557600080fd5b8151611c5081611b36565b9392505050565b600060208284031215611c6957600080fd5b5051919050565b600060018201611c8257611c82611bf4565b5060010190565b600081611c9857611c98611bf4565b506000190190565b634e487b7160e01b600052604160045260246000fd5b808202811582820484141761147a5761147a611bf4565b600060208284031215611cdf57600080fd5b8151611c5081611b7456fe6751f7e27cecf86d7136f5749c224248cae80a39fafb59f8f6bf12c52816307c87101b21d556417ad2b8e8f2700dbad90721d5d50a1f435f2dee0b9dc981ac8a35fa70a6f9ae8a4d427ebe0c1be62ffd2870fecc1df41c6fda0bf5803e562888a2646970667358221220250c9dbbb7c83bb2c7f5abccdcccbbb22c8f4515189d532e411f7cbe5b04287664736f6c63430008120033",
  "devdoc": {
    "author": "Mohammed Haddouti",
    "details": "v3.0 (Diamond)",
    "kind": "dev",
    "methods": {},
    "title": "Takaturn Term",
    "version": 1
  },
  "userdoc": {
    "kind": "user",
    "methods": {},
    "notice": "This is used to deploy the collateral & fund contracts",
    "version": 1
  },
  "storageLayout": {
    "storage": [],
    "types": null
  }
}