{
  "address": "0xA7b24A21C78877f0B9fF3b0CF1151E1116059C59",
  "abi": [
    {
      "anonymous": false,
      "inputs": [
        {
          "indexed": true,
          "internalType": "uint256",
          "name": "termId",
          "type": "uint256"
        },
        {
          "indexed": true,
          "internalType": "address",
          "name": "user",
          "type": "address"
        },
        {
          "indexed": false,
          "internalType": "uint256",
          "name": "amount",
          "type": "uint256"
        }
      ],
      "name": "OnCollateralDeposited",
      "type": "event"
    },
    {
      "anonymous": false,
      "inputs": [
        {
          "indexed": true,
          "internalType": "uint256",
          "name": "termId",
          "type": "uint256"
        },
        {
          "indexed": true,
          "internalType": "address",
          "name": "termOwner",
          "type": "address"
        }
      ],
      "name": "OnTermCreated",
      "type": "event"
    },
    {
      "anonymous": false,
      "inputs": [
        {
          "indexed": true,
          "internalType": "uint256",
          "name": "termId",
          "type": "uint256"
        }
      ],
      "name": "OnTermExpired",
      "type": "event"
    },
    {
      "anonymous": false,
      "inputs": [
        {
          "indexed": true,
          "internalType": "uint256",
          "name": "termId",
          "type": "uint256"
        }
      ],
      "name": "OnTermFilled",
      "type": "event"
    },
    {
      "inputs": [],
      "name": "TERM_VERSION",
      "outputs": [
        {
          "internalType": "uint256",
          "name": "",
          "type": "uint256"
        }
      ],
      "stateMutability": "view",
      "type": "function"
    },
    {
      "inputs": [
        {
          "internalType": "uint256",
          "name": "totalParticipants",
          "type": "uint256"
        },
        {
          "internalType": "uint256",
          "name": "registrationPeriod",
          "type": "uint256"
        },
        {
          "internalType": "uint256",
          "name": "cycleTime",
          "type": "uint256"
        },
        {
          "internalType": "uint256",
          "name": "contributionAmount",
          "type": "uint256"
        },
        {
          "internalType": "uint256",
          "name": "contributionPeriod",
          "type": "uint256"
        },
        {
          "internalType": "address",
          "name": "stableTokenAddress",
          "type": "address"
        }
      ],
      "name": "createTerm",
      "outputs": [
        {
          "internalType": "uint256",
          "name": "",
          "type": "uint256"
        }
      ],
      "stateMutability": "nonpayable",
      "type": "function"
    },
    {
      "inputs": [
        {
          "internalType": "uint256",
          "name": "termId",
          "type": "uint256"
        }
      ],
      "name": "expireTerm",
      "outputs": [],
      "stateMutability": "nonpayable",
      "type": "function"
    },
    {
      "inputs": [
        {
          "internalType": "uint256",
          "name": "termId",
          "type": "uint256"
        }
      ],
      "name": "joinTerm",
      "outputs": [],
      "stateMutability": "payable",
      "type": "function"
    },
    {
      "inputs": [
        {
          "internalType": "uint256",
          "name": "termId",
          "type": "uint256"
        }
      ],
      "name": "startTerm",
      "outputs": [],
      "stateMutability": "nonpayable",
      "type": "function"
    }
  ],
  "transactionHash": "0xbddd81040898f32759a99318e89e5a03e48f77c68c52d662755035e8b1653d1f",
  "args": [],
  "numDeployments": 2,
  "solcInputHash": "7fd8a3dd9f976d40ffd25cccf6b1d82b",
  "bytecode": "0x608060405234801561001057600080fd5b50611698806100206000396000f3fe60806040526004361061004a5760003560e01c806336f6f6b51461004f5780633e4986cd14610076578063485fd0761461008b578063aa31ef32146100ab578063b1705fa2146100cb575b600080fd5b34801561005b57600080fd5b50610064600281565b60405190815260200160405180910390f35b610089610084366004611404565b6100eb565b005b34801561009757600080fd5b506100896100a6366004611404565b6100f7565b3480156100b757600080fd5b506100646100c636600461141d565b610100565b3480156100d757600080fd5b506100896100e6366004611404565b61011b565b6100f481610124565b50565b6100f481610605565b6000610110878787878787610963565b979650505050505050565b6100f481610c62565b60008181527f87101b21d556417ad2b8e8f2700dbad90721d5d50a1f435f2dee0b9dc981ac8a60208181526040808420815161016081018352815460ff80821680151584526101008084049092161515848801526001600160a01b03620100009093048316848701526001850154606085015260028501546080850152600385015460a0850152600485015460c0850152600585015460e0850152600685015491840191909152600784015461012084015260089093015416610140820152868652600080516020611643833981519152845291909420929091527f87101b21d556417ad2b8e8f2700dbad90721d5d50a1f435f2dee0b9dc981ac89929091908015610234575061023484610f3a565b61023d57600080fd5b60008154610100900460ff16600381111561025a5761025a61147e565b146102955760405162461bcd60e51b815260206004820152600660248201526510db1bdcd95960d21b60448201526064015b60405180910390fd5b8160c001518160020154106102d75760405162461bcd60e51b81526020600482015260086024820152674e6f20737061636560c01b604482015260640161028c565b8160a0015182606001516102eb91906114aa565b42111561033a5760405162461bcd60e51b815260206004820152601960248201527f526567697374726174696f6e20706572696f6420656e64656400000000000000604482015260640161028c565b33600090815260048201602052604090205460ff16156103865760405162461bcd60e51b81526020600482015260076024820152665265656e74727960c81b604482015260640161028c565b6003810154349060005b818110156105ae5760006001600160a01b03168460030182815481106103b8576103b86114c3565b6000918252602090912001546001600160a01b0316036105a6576040516366bc7d2160e11b8152600090309063cd78fa42906103fa90899086906004016114d9565b602060405180830381865afa158015610417573d6000803e3d6000fd5b505050506040513d601f19601f8201168201806040525081019061043b9190611588565b9050808410156104835760405162461bcd60e51b8152602060048201526013602482015272457468207061796d656e7420746f6f206c6f7760681b604482015260640161028c565b336000908152600586016020526040812080548692906104a49084906114aa565b90915550503360008181526004870160205260409020805460ff19166001179055600386018054849081106104db576104db6114c3565b6000918252602082200180546001600160a01b0319166001600160a01b03939093169290921790915560028601805491610514836115a1565b90915550503360009081526007860160205260408120805486929061053a9084906114aa565b90915550503360008181526002890160209081526040808320805460018101825590845291909220018a90555189907f6e0a2371131a7d423998fa7e71296a76f74b9c658d0b210b3f8e70eff0e536d8906105989088815260200190565b60405180910390a3506105ae565b600101610390565b5082600201546001036105c2574260018401555b8360c001518360020154036105fd5760405186907fcb9c59095b121bb2ee6f91e996d96e8937149675a0dd11c12b5d08ec2cc7abba90600090a25b505050505050565b60008181527f87101b21d556417ad2b8e8f2700dbad90721d5d50a1f435f2dee0b9dc981ac8a60209081526040808320815161016081018352815460ff808216151583526101008083049091161515838701526001600160a01b0362010000909204821683860152600184015460608401526002840154608084015260038085015460a0850152600485015460c0850152600585015460e0850152600685015491840191909152600784015461012084015260089093015416610140820152858552600080516020611643833981519152845282852091820180548451818702810187019095528085529195929492939290919083018282801561073257602002820191906000526020600020905b81546001600160a01b03168152600190910190602001808311610714575b505050505090506000815190508360a00151846060015161075391906114aa565b42116107a15760405162461bcd60e51b815260206004820152601760248201527f5465726d206e6f7420726561647920746f207374617274000000000000000000604482015260640161028c565b8360c001518360020154146107f85760405162461bcd60e51b815260206004820152601860248201527f416c6c2073706f747320617265206e6f742066696c6c65640000000000000000604482015260640161028c565b60005b818110156108eb57306001600160a01b031663c177f0918660800151858481518110610829576108296114c3565b60200260200101516040518363ffffffff1660e01b81526004016108609291909182526001600160a01b0316602082015260400190565b602060405180830381865afa15801561087d573d6000803e3d6000fd5b505050506040513d601f19601f820116820180604052508101906108a191906115ba565b156108e35760405162461bcd60e51b8152602060048201526012602482015271115d1a081c1c9a58d95cc8191c9bdc1c195960721b604482015260640161028c565b6001016107fb565b506108f68484610f60565b6109008484611093565b60808401516040516302c1ed1f60e01b815230916302c1ed1f9161092a91906001906004016115e3565b600060405180830381600087803b15801561094457600080fd5b505af1158015610958573d6000803e3d6000fd5b505050505050505050565b6000841580159061097357508315155b801561097e57508215155b801561098957508615155b801561099457508515155b801561099f57508483105b80156109b357506001600160a01b03821615155b6109f05760405162461bcd60e51b815260206004820152600e60248201526d496e76616c696420696e7075747360901b604482015260640161028c565b60007f87101b21d556417ad2b8e8f2700dbad90721d5d50a1f435f2dee0b9dc981ac8980546040805161016081018252600080825260208201819052918101829052606081018290526080810182905260a0810182905260c0810182905260e08101829052610100810182905261012081018290526101408101919091529192509081816080018181525050898160c0018181525050888160a0018181525050878160e001818152505086816101000181815250508581610120018181525050848161014001906001600160a01b031690816001600160a01b0316815250503381604001906001600160a01b031690816001600160a01b0316815250504281606001818152505060018160000190151590811515815250508083600101600084815260200190815260200160002060008201518160000160006101000a81548160ff02191690831515021790555060208201518160000160016101000a81548160ff02191690831515021790555060408201518160000160026101000a8154816001600160a01b0302191690836001600160a01b03160217905550606082015181600101556080820151816002015560a0820151816003015560c0820151816004015560e08201518160050155610100820151816006015561012082015181600701556101408201518160080160006101000a8154816001600160a01b0302191690836001600160a01b03160217905550905050826000016000815480929190610c19906115a1565b9190505550610c28828b61129c565b604051339083907f3bff48239db8f29891497cd2efd85d201f5723830e7c8cfaef44cc50a4bc024c90600090a35098975050505050505050565b60008181527f87101b21d556417ad2b8e8f2700dbad90721d5d50a1f435f2dee0b9dc981ac8a6020818152604080842060008051602061164383398151915283529320919052815460ff168015610cbd5750610cbd83610f3a565b610cc657600080fd5b81600301548260010154610cda91906114aa565b4211610d285760405162461bcd60e51b815260206004820152601d60248201527f526567697374726174696f6e20706572696f64206e6f7420656e646564000000604482015260640161028c565b8160040154816002015410610d8a5760405162461bcd60e51b815260206004820152602260248201527f416c6c2073706f7473206172652066696c6c65642c2063616e27742065787069604482015261726560f01b606482015260840161028c565b8154610100900460ff1615610dd85760405162461bcd60e51b815260206004820152601460248201527315195c9b48185b1c9958591e48195e1c1a5c995960621b604482015260640161028c565b600381015460005b81811015610eee576000836003018281548110610dff57610dff6114c3565b6000918252602090912001546001600160a01b031690508015610ee5576001600160a01b0381166000908152600585016020908152604080832054600688019092528220805491928392610e549084906114aa565b90915550506001600160a01b03821660009081526005860160209081526040808320839055600488019091528120805460ff1916905560038601805485908110610ea057610ea06114c3565b9060005260206000200160006101000a8154816001600160a01b0302191690836001600160a01b031602179055508460020160008154610edf90611615565b90915550505b50600101610de0565b50825461ff001916610100178355815461ffff191661030017825560405184907f9983062774b9b7f1b9071acd776af98f78c06bf9ad065553a83395178ef6243a90600090a250505050565b60006000805160206116438339815191525b600092835260205250604090205460ff1690565b610f6d8260800151611322565b15610fb05760405162461bcd60e51b815260206004820152601360248201527246756e6420616c72656164792065786973747360681b604482015260640161028c565b608082015160009081527f6751f7e27cecf86d7136f5749c224248cae80a39fafb59f8f6bf12c52816307c6020526040902061014083015181546001600160a01b03909116620100000262010000600160b01b031990911617815560038201805461101f91600184019161134a565b508054600180830154601284015561ffff1990911617815560808301516040516305e920e960e51b81526004810191909152309063bd241d2090602401600060405180830381600087803b15801561107657600080fd5b505af115801561108a573d6000803e3d6000fd5b50505050505050565b608082015160009081527f29d9cba46c358ba7c1b8945751229339792c7c62e3197c240fa98916e75ffbf9602090815260408083206003850180548351818602810186019094528084529194938493929083018282801561111d57602002820191906000526020600020905b81546001600160a01b031681526001909101906020018083116110ff575b505083519394506000925050505b818110156112225784600701600084838151811061114b5761114b6114c3565b6020908102919091018101516001600160a01b031682528101919091526040016000205460ff161561121a578460060183828151811061118d5761118d6114c3565b6020908102919091018101518254600181018455600093845291832090910180546001600160a01b0319166001600160a01b0390921691909117905583516005880191908590849081106111e3576111e36114c3565b60200260200101516001600160a01b03166001600160a01b03168152602001908152602001600020548461121791906114aa565b93505b60010161112b565b5042600185810191909155845460ff1916178455608086015160405163625b293160e01b8152600481019190915260248101849052309063625b293190604401600060405180830381600087803b15801561127c57600080fd5b505af1158015611290573d6000803e3d6000fd5b50505050505050505050565b600082815260008051602061164383398151915260205260409020805461ffff191660011781558167ffffffffffffffff8111156112dc576112dc61162c565b604051908082528060200260200182016040528015611305578160200160208202803683370190505b50805161131c91600384019160209091019061139a565b50505050565b60007f6751f7e27cecf86d7136f5749c224248cae80a39fafb59f8f6bf12c52816307c610f4c565b82805482825590600052602060002090810192821561138a5760005260206000209182015b8281111561138a57825482559160010191906001019061136f565b506113969291506113ef565b5090565b82805482825590600052602060002090810192821561138a579160200282015b8281111561138a57825182546001600160a01b0319166001600160a01b039091161782556020909201916001909101906113ba565b5b8082111561139657600081556001016113f0565b60006020828403121561141657600080fd5b5035919050565b60008060008060008060c0878903121561143657600080fd5b863595506020870135945060408701359350606087013592506080870135915060a08701356001600160a01b038116811461147057600080fd5b809150509295509295509295565b634e487b7160e01b600052602160045260246000fd5b634e487b7160e01b600052601160045260246000fd5b808201808211156114bd576114bd611494565b92915050565b634e487b7160e01b600052603260045260246000fd5b825115158152610180810160208401516114f7602084018215159052565b50604084015161151260408401826001600160a01b03169052565b50606084015160608301526080840151608083015260a084015160a083015260c084015160c083015260e084015160e083015261010080850151818401525061012080850151818401525061014080850151611578828501826001600160a01b03169052565b5050826101608301529392505050565b60006020828403121561159a57600080fd5b5051919050565b6000600182016115b3576115b3611494565b5060010190565b6000602082840312156115cc57600080fd5b815180151581146115dc57600080fd5b9392505050565b828152604081016004831061160857634e487b7160e01b600052602160045260246000fd5b8260208301529392505050565b60008161162457611624611494565b506000190190565b634e487b7160e01b600052604160045260246000fdfe35fa70a6f9ae8a4d427ebe0c1be62ffd2870fecc1df41c6fda0bf5803e562888a2646970667358221220a552b4180335b683c9323716d4c734a73231d1a6270bbc61f425ac80524acfcc64736f6c63430008120033",
  "devdoc": {
    "author": "Mohammed Haddouti",
    "details": "v3.0 (Diamond)",
    "kind": "dev",
    "methods": {},
    "title": "Takaturn Term",
    "version": 1
  },
  "userdoc": {
    "kind": "user",
    "methods": {},
    "notice": "This is used to deploy the collateral & fund contracts",
    "version": 1
  },
  "storageLayout": {
    "storage": [],
    "types": null
  }
}