{
  "address": "0x164c4B4C4Aa5E3C43b9275C254e9ED7858b30723",
  "abi": [
    {
      "anonymous": false,
      "inputs": [
        {
          "indexed": true,
          "internalType": "uint256",
          "name": "termId",
          "type": "uint256"
        },
        {
          "indexed": true,
          "internalType": "address",
          "name": "user",
          "type": "address"
        },
        {
          "indexed": false,
          "internalType": "uint256",
          "name": "amount",
          "type": "uint256"
        }
      ],
      "name": "OnCollateralDeposited",
      "type": "event"
    },
    {
      "anonymous": false,
      "inputs": [
        {
          "indexed": true,
          "internalType": "uint256",
          "name": "termId",
          "type": "uint256"
        },
        {
          "indexed": true,
          "internalType": "address",
          "name": "termOwner",
          "type": "address"
        }
      ],
      "name": "OnTermCreated",
      "type": "event"
    },
    {
      "anonymous": false,
      "inputs": [
        {
          "indexed": true,
          "internalType": "uint256",
          "name": "termId",
          "type": "uint256"
        }
      ],
      "name": "OnTermExpired",
      "type": "event"
    },
    {
      "anonymous": false,
      "inputs": [
        {
          "indexed": true,
          "internalType": "uint256",
          "name": "termId",
          "type": "uint256"
        }
      ],
      "name": "OnTermFilled",
      "type": "event"
    },
    {
      "anonymous": false,
      "inputs": [
        {
          "indexed": true,
          "internalType": "uint256",
          "name": "termId",
          "type": "uint256"
        }
      ],
      "name": "OnTermStart",
      "type": "event"
    },
    {
      "inputs": [],
      "name": "TERM_VERSION",
      "outputs": [
        {
          "internalType": "uint256",
          "name": "",
          "type": "uint256"
        }
      ],
      "stateMutability": "view",
      "type": "function"
    },
    {
      "inputs": [
        {
          "internalType": "uint256",
          "name": "totalParticipants",
          "type": "uint256"
        },
        {
          "internalType": "uint256",
          "name": "registrationPeriod",
          "type": "uint256"
        },
        {
          "internalType": "uint256",
          "name": "cycleTime",
          "type": "uint256"
        },
        {
          "internalType": "uint256",
          "name": "contributionAmount",
          "type": "uint256"
        },
        {
          "internalType": "uint256",
          "name": "contributionPeriod",
          "type": "uint256"
        },
        {
          "internalType": "address",
          "name": "stableTokenAddress",
          "type": "address"
        }
      ],
      "name": "createTerm",
      "outputs": [
        {
          "internalType": "uint256",
          "name": "",
          "type": "uint256"
        }
      ],
      "stateMutability": "nonpayable",
      "type": "function"
    },
    {
      "inputs": [
        {
          "internalType": "uint256",
          "name": "termId",
          "type": "uint256"
        }
      ],
      "name": "expireTerm",
      "outputs": [],
      "stateMutability": "nonpayable",
      "type": "function"
    },
    {
      "inputs": [
        {
          "internalType": "uint256",
          "name": "termId",
          "type": "uint256"
        },
        {
          "internalType": "bool",
          "name": "optYield",
          "type": "bool"
        }
      ],
      "name": "joinTerm",
      "outputs": [],
      "stateMutability": "payable",
      "type": "function"
    },
    {
      "inputs": [
        {
          "internalType": "uint256",
          "name": "termId",
          "type": "uint256"
        }
      ],
      "name": "startTerm",
      "outputs": [],
      "stateMutability": "nonpayable",
      "type": "function"
    }
  ],
  "transactionHash": "0x4bd825a4d4f3b27b529fdd691dcb33f78fec448dd399d7b9feaae98f186fd77b",
  "args": [],
  "numDeployments": 12,
  "solcInputHash": "d4af018d434f718ad1419b409645d4ff",
  "bytecode": "0x608060405234801561001057600080fd5b506122cc806100206000396000f3fe60806040526004361061004a5760003560e01c806336f6f6b51461004f578063485fd07614610076578063692d8ba714610098578063aa31ef32146100ab578063b1705fa2146100cb575b600080fd5b34801561005b57600080fd5b50610064600281565b60405190815260200160405180910390f35b34801561008257600080fd5b50610096610091366004611fe5565b6100eb565b005b6100966100a636600461200c565b6100f7565b3480156100b757600080fd5b506100646100c6366004612051565b610105565b3480156100d757600080fd5b506100966100e6366004611fe5565b610120565b6100f481610129565b50565b61010182826105f5565b5050565b6000610115878787878787610aea565b979650505050505050565b6100f481610d3c565b60008181526000805160206122578339815191526020908152604080832060008051602061227783398151915283528184206000805160206122178339815191528452828520600382018054855181880281018801909652808652939692959194929390918301828280156101c757602002820191906000526020600020905b81546001600160a01b031681526001909101906020018083116101a9575b50505050509050600081519050846003015484600101546101e891906120bc565b421161023b5760405162461bcd60e51b815260206004820152601760248201527f5465726d206e6f7420726561647920746f20737461727400000000000000000060448201526064015b60405180910390fd5b84600401548460020154146102925760405162461bcd60e51b815260206004820152601860248201527f416c6c2073706f747320617265206e6f742066696c6c656400000000000000006044820152606401610232565b60005b8181101561030e576102c486600201548483815181106102b7576102b76120cf565b6020026020010151611024565b156103065760405162461bcd60e51b8152602060048201526012602482015271115d1a081c1c9a58d95cc8191c9bdc1c195960721b6044820152606401610232565b600101610295565b50604080516101608101909152855460ff808216151583526103d19291889160208401916101009004166003811115610349576103496120e5565b600381111561035a5761035a6120e5565b815281546001600160a01b036201000090910481166020830152600183015460408301526002830154606083015260038301546080830152600483015460a0830152600583015460c0830152600683015460e083015260078301546101008301526008909201549091166101209091015285611150565b7f7c039906f7f8ca11e01b6987a88513563589699678f7d2a6c8447f44d69375f35460ff1661051e5760005b818110156105185783600701600084838151811061041d5761041d6120cf565b6020908102919091018101516001600160a01b031682528101919091526040016000205460ff161561051057604080516101608101909152865460ff8082161515835261050b9291899160208401916101009004166003811115610483576104836120e5565b6003811115610494576104946120e5565b815281546001600160a01b036201000090910481166020830152600183015460408301526002830154606083015260038301546080830152600483015460a0830152600583015460c0830152600683015460e083015260078301546101008301526008909201549091166101209091015286611228565b610518565b6001016103fd565b506105d1565b60005b818110156105cf57836007016000848381518110610541576105416120cf565b6020908102919091018101516001600160a01b031682528101919091526040016000205460ff16156105c7576000846007016000858481518110610587576105876120cf565b60200260200101516001600160a01b03166001600160a01b0316815260200190815260200160002060006101000a81548160ff0219169083151502179055505b600101610521565b505b6105e085600201546001611578565b5050825461ff00191661010017909255505050565b60008281526000805160206122578339815191526020908152604080832081516101608101909252805460ff808216151584527f87101b21d556417ad2b8e8f2700dbad90721d5d50a1f435f2dee0b9dc981ac8995948401916101009004166003811115610665576106656120e5565b6003811115610676576106766120e5565b815281546001600160a01b0362010000909104811660208084019190915260018401546040808501919091526002850154606085015260038501546080850152600485015460a0850152600585015460c0850152600685015460e085015260078501546101008501526008909401549091166101209092019190915260008781526000805160206122778339815191528252828120600080516020612217833981519152835283822060008051602061225783398151915290935292902054929350909160ff1661077e5760405162461bcd60e51b815260206004820152601260248201527115195c9b48191bd95cdb89dd08195e1a5cdd60721b6044820152606401610232565b60008254610100900460ff16600381111561079b5761079b6120e5565b146107d15760405162461bcd60e51b815260206004820152600660248201526510db1bdcd95960d21b6044820152606401610232565b8260c001518260020154106108135760405162461bcd60e51b81526020600482015260086024820152674e6f20737061636560c01b6044820152606401610232565b33600090815260048301602052604090205460ff161561085f5760405162461bcd60e51b81526020600482015260076024820152665265656e74727960c81b6044820152606401610232565b6002820154604051630c64c69760e01b815260048101889052602481018290526000903090630c64c69790604401602060405180830381865afa1580156108aa573d6000803e3d6000fd5b505050506040513d601f19601f820116820180604052508101906108ce91906120fb565b9050803410156109165760405162461bcd60e51b8152602060048201526013602482015272457468207061796d656e7420746f6f206c6f7760681b6044820152606401610232565b336000908152600585016020526040812080543492906109379084906120bc565b90915550503360008181526004860160205260409020805460ff191660011790556003850180548490811061096e5761096e6120cf565b6000918252602082200180546001600160a01b0319166001600160a01b039390931692909217909155600285018054916109a783612114565b9091555050336000908152600785016020526040812080543492906109cd9084906120bc565b90915550503360009081526002870160209081526040822080546001810182559083529120018890557f7c039906f7f8ca11e01b6987a88513563589699678f7d2a6c8447f44d69375f35460ff16610a41573360009081526007840160205260409020805460ff1916881515179055610a5b565b3360009081526007840160205260409020805460ff191690555b604051348152339089907f6e0a2371131a7d423998fa7e71296a76f74b9c658d0b210b3f8e70eff0e536d89060200160405180910390a38360020154600103610aa5574260018501555b8460c00151846002015403610ae05760405188907fcb9c59095b121bb2ee6f91e996d96e8937149675a0dd11c12b5d08ec2cc7abba90600090a25b5050505050505050565b60008415801590610afa57508315155b8015610b0557508215155b8015610b1057508615155b8015610b1b57508515155b8015610b2657508483105b8015610b3a57506001600160a01b03821615155b610b775760405162461bcd60e51b815260206004820152600e60248201526d496e76616c696420696e7075747360901b6044820152606401610232565b7f87101b21d556417ad2b8e8f2700dbad90721d5d50a1f435f2dee0b9dc981ac8980546040805161016081018252600060208083018281526080840186905260c084018e905260a084018d905260e084018c90526101008085018c905261012085018b90526001600160a01b038a16610140860152338587015242606086015260018552868452600080516020612257833981519152909252939091208251815490151560ff198216811783559451939485949293849261ff001990921661ffff199092169190911790836003811115610c5357610c536120e5565b02179055506040820151815462010000600160b01b031916620100006001600160a01b0392831602178255606083015160018301556080830151600283015560a0830151600383015560c0830151600483015560e083015160058301556101008301516006830155610120830151600783015561014090920151600890910180546001600160a01b031916919092161790558254836000610cf383612114565b9190505550610d02828b611615565b604051339083907f3bff48239db8f29891497cd2efd85d201f5723830e7c8cfaef44cc50a4bc024c90600090a35098975050505050505050565b60008181526000805160206122578339815191526020818152604080842060008051602061227783398151915283529320919052815460ff168015610d855750610d858361169b565b610d8e57600080fd5b600181015415801590610db3575081600301548160010154610db091906120bc565b42115b610dff5760405162461bcd60e51b815260206004820152601d60248201527f526567697374726174696f6e20706572696f64206e6f7420656e6465640000006044820152606401610232565b8160040154816002015410610e615760405162461bcd60e51b815260206004820152602260248201527f416c6c2073706f7473206172652066696c6c65642c2063616e27742065787069604482015261726560f01b6064820152608401610232565b60028254610100900460ff166003811115610e7e57610e7e6120e5565b03610ec25760405162461bcd60e51b815260206004820152601460248201527315195c9b48185b1c9958591e48195e1c1a5c995960621b6044820152606401610232565b600381015460005b81811015610fd8576000836003018281548110610ee957610ee96120cf565b6000918252602090912001546001600160a01b031690508015610fcf576001600160a01b0381166000908152600585016020908152604080832054600688019092528220805491928392610f3e9084906120bc565b90915550506001600160a01b03821660009081526005860160209081526040808320839055600488019091528120805460ff1916905560038601805485908110610f8a57610f8a6120cf565b9060005260206000200160006101000a8154816001600160a01b0302191690836001600160a01b031602179055508460020160008154610fc99061212d565b90915550505b50600101610eca565b50825461ff001916610200178355815461ffff191661030017825560405184907f9983062774b9b7f1b9071acd776af98f78c06bf9ad065553a83395178ef6243a90600090a250505050565b6000828152600080516020612277833981519152602090815260408083206001600160a01b0385168452600581019092528220548290611063866116c1565b6110e25760405163bb91b76d60e01b81526001600160a01b038616600482015260248101879052309063bb91b76d9060440160a060405180830381865afa1580156110b2573d6000803e3d6000fd5b505050506040513d601f19601f820116820180604052508101906110d69190612144565b50945061114592505050565b60405163f0d826e760e01b815260048101879052309063f0d826e790602401602060405180830381865afa15801561111e573d6000803e3d6000fd5b505050506040513d601f19601f8201168201806040525081019061114291906120fb565b91505b109150505b92915050565b61115d82608001516116c1565b156111a05760405162461bcd60e51b815260206004820152601360248201527246756e6420616c72656164792065786973747360681b6044820152606401610232565b608082015160009081526000805160206122378339815191526020526040902061014083015181546001600160a01b03909116620100000262010000600160b01b03199091161781556003820180546111fd916001840191611f2b565b508054600180830154601484015561ffff199091161781556080830151611223906116d7565b505050565b608082015160009081526000805160206122178339815191526020908152604080832060038501805483518186028101860190945280845291947ff27a5986330dc78d016d8604ee1a040d5a789fbaa2d0c27f5dfded4b616b897794909384939092918301828280156112c457602002820191906000526020600020905b81546001600160a01b031681526001909101906020018083116112a6575b505083519394506000925050505b81811015611466578560070160008483815181106112f2576112f26120cf565b6020908102919091018101516001600160a01b031682528101919091526040016000205460ff161561145e5785600601838281518110611334576113346120cf565b6020908102919091018101518254600181018455600093845291832090910180546001600160a01b0319166001600160a01b03909216919091179055835160649160058a019186908590811061138c5761138c6120cf565b60200260200101516001600160a01b03166001600160a01b0316815260200190815260200160002054605a6113c1919061218d565b6113cb91906121a4565b86600b0160008584815181106113e3576113e36120cf565b60200260200101516001600160a01b03166001600160a01b031681526020019081526020016000208190555085600b016000848381518110611427576114276120cf565b60200260200101516001600160a01b03166001600160a01b03168152602001908152602001600020548461145b91906120bc565b93505b6001016112d2565b50821561156f57426002860155845460ff191660011785556040518390859061149c906605a61796e5a61760cc1b815260070190565b908152604051908190036020018120546001600160a01b03169060018801906114d2906605a61796e5a61760cc1b815260070190565b9081526040805191829003602001822080546001600160a01b039485166001600160a01b03199091161790556816985e5b95985d5b1d60ba1b80835260098084018a905291519283900360290183205490835290921691600189019101908152602001604051809103902060006101000a8154816001600160a01b0302191690836001600160a01b03160217905550610ae08860800151826117d2565b50505050505050565b600082815260008051602061227783398151915260205260409020805461010080820460ff16918491849161ff001916908360038111156115bb576115bb6120e5565b02179055508260038111156115d2576115d26120e5565b8160038111156115e4576115e46120e5565b60405186907ffe918112a2fca8c18cc609a5d585d9fc8448267cb7b9d6c19a445fe5c0c199c890600090a450505050565b600082815260008051602061227783398151915260205260409020805461ffff191660011781558167ffffffffffffffff811115611655576116556121c6565b60405190808252806020026020018201604052801561167e578160200160208202803683370190505b508051611695916003840191602090910190611f7b565b50505050565b60006000805160206122778339815191525b600092835260205250604090205460ff1690565b60006000805160206122378339815191526116ad565b600081815260008051602061223783398151915260205260408120600181015490915b818110156117925761173883600d0184600101838154811061171e5761171e6120cf565b6000918252602090912001546001600160a01b031661192c565b506001836005016000856001018481548110611756576117566120cf565b6000918252602080832091909101546001600160a01b031683528201929092526040019020805460ff19169115159190911790556001016116fa565b5061179c83611948565b42600283015560405183907fc3bfb99b88687651f8e660492ae2ee62a50d40e4131ace07f88ed4639b3a4bc390600090a2505050565b6000828152600080516020612217833981519152602052604090819020600381018390556004810183905581516816985e5b95985d5b1d60ba1b815260018201600982018190529251908190036029018120546605a61796e5a61760cc1b825291926001600160a01b03909216919060070190815260405190819003602001812054632af34be360e11b82526001600160a01b0383811660048401526024830187905216906355e697c69085906044016000604051808303818588803b15801561189b57600080fd5b505af11580156118af573d6000803e3d6000fd5b5050604051631398fee160e31b8152600481018890526001600160a01b0385169350639cc7f70892506024019050602060405180830381865afa1580156118fa573d6000803e3d6000fd5b505050506040513d601f19601f8201168201806040525081019061191e91906120fb565b826005018190555050505050565b6000611941836001600160a01b038416611afc565b9392505050565b600081815260008051602061223783398151915260209081526040808320600080516020612257833981519152909252909120600282015460048301546005830154611994919061218d565b61199e91906120bc565b42116119ec5760405162461bcd60e51b815260206004820152601c60248201527f546f6f206561726c7920746f207374617274206e6577206379636c65000000006044820152606401610232565b60008254610100900460ff166004811115611a0957611a096120e5565b1480611a2f575060038254610100900460ff166004811115611a2d57611a2d6120e5565b145b611a695760405162461bcd60e51b815260206004820152600b60248201526a57726f6e6720737461746560a81b6044820152606401610232565b8160040160008154611a7a90612114565b90915550600182015460005b81811015611ae7576000846007016000866001018481548110611aab57611aab6120cf565b6000918252602080832091909101546001600160a01b031683528201929092526040019020805460ff1916911515919091179055600101611a86565b50611af3846001611b4b565b61169584611c2a565b6000818152600183016020526040812054611b435750815460018181018455600084815260208082209093018490558454848252828601909352604090209190915561114a565b50600061114a565b6000828152600080516020612237833981519152602052604090208054600490610100900460ff1681811115611b8357611b836120e5565b03611bbe5760405162461bcd60e51b815260206004820152600b60248201526a119d5b990818db1bdcd95960aa1b6044820152606401610232565b80548290829061ff001916610100836004811115611bde57611bde6120e5565b0217905550816004811115611bf557611bf56120e5565b600482015460405185907fe515107ce875160b9ed93bfd1367820d3ffbf412cd63d05140f6bc5535b51de390600090a4505050565b600060008051602061223783398151915260008381526020919091526040808220905163d8f8e99160e01b815260048101859052909250309063d8f8e99190602401602060405180830381865afa158015611c89573d6000803e3d6000fd5b505050506040513d601f19601f82011682018060405250810190611cad91906121dc565b9050600082600101805480602002602001604051908101604052809291908181526020018280548015611d0957602002820191906000526020600020905b81546001600160a01b03168152600190910190602001808311611ceb575b505083519394506000925050505b81811015611df3576000838281518110611d3357611d336120cf565b60200260200101519050806001600160a01b0316856001600160a01b031603611d5f5750600101611d17565b6001600160a01b038116600090815260088701602052604090205460ff168015611da457506001600160a01b038116600090815260078701602052604090205460ff16155b8015611dda575060048601546000908152600c8701602090815260408083206001600160a01b038516845290915290205460ff16155b15611dea57611dea878283611dfb565b50600101611d17565b505050505050565b6000838152600080516020612237833981519152602090815260408083206000805160206122578339815191529092528220600681015491929091611e4390620f424061218d565b83546040516323b872dd60e01b81526001600160a01b0388811660048301523060248301526044820184905292935062010000909104909116906323b872dd906064016020604051808303816000875af1925050508015611ec1575060408051601f3d908101601f19168201909252611ebe918101906121f9565b60015b15611df357801561156f576001600160a01b0385166000818152600786016020526040808220805460ff19166001179055600487015490519092918a917fe1122b3cea22012386ebf236fc23dd8a783b91c046d5dec812901846464624ae9190a450505050505050565b828054828255906000526020600020908101928215611f6b5760005260206000209182015b82811115611f6b578254825591600101919060010190611f50565b50611f77929150611fd0565b5090565b828054828255906000526020600020908101928215611f6b579160200282015b82811115611f6b57825182546001600160a01b0319166001600160a01b03909116178255602090920191600190910190611f9b565b5b80821115611f775760008155600101611fd1565b600060208284031215611ff757600080fd5b5035919050565b80151581146100f457600080fd5b6000806040838503121561201f57600080fd5b82359150602083013561203181611ffe565b809150509250929050565b6001600160a01b03811681146100f457600080fd5b60008060008060008060c0878903121561206a57600080fd5b863595506020870135945060408701359350606087013592506080870135915060a08701356120988161203c565b809150509295509295509295565b634e487b7160e01b600052601160045260246000fd5b8082018082111561114a5761114a6120a6565b634e487b7160e01b600052603260045260246000fd5b634e487b7160e01b600052602160045260246000fd5b60006020828403121561210d57600080fd5b5051919050565b600060018201612126576121266120a6565b5060010190565b60008161213c5761213c6120a6565b506000190190565b600080600080600060a0868803121561215c57600080fd5b855161216781611ffe565b602087015160408801516060890151608090990151929a91995097965090945092505050565b808202811582820484141761114a5761114a6120a6565b6000826121c157634e487b7160e01b600052601260045260246000fd5b500490565b634e487b7160e01b600052604160045260246000fd5b6000602082840312156121ee57600080fd5b81516119418161203c565b60006020828403121561220b57600080fd5b815161194181611ffe56fe29d9cba46c358ba7c1b8945751229339792c7c62e3197c240fa98916e75ffbf96751f7e27cecf86d7136f5749c224248cae80a39fafb59f8f6bf12c52816307c87101b21d556417ad2b8e8f2700dbad90721d5d50a1f435f2dee0b9dc981ac8a35fa70a6f9ae8a4d427ebe0c1be62ffd2870fecc1df41c6fda0bf5803e562888a264697066735822122022300f3a937c5fb3b027febc69d5c535999ad56c07814e82915997d588ca0f1f64736f6c63430008120033",
  "devdoc": {
    "author": "Mohammed Haddouti",
    "details": "v3.0 (Diamond)",
    "kind": "dev",
    "methods": {},
    "title": "Takaturn Term",
    "version": 1
  },
  "userdoc": {
    "kind": "user",
    "methods": {},
    "notice": "This is used to deploy the collateral & fund contracts",
    "version": 1
  },
  "storageLayout": {
    "storage": [],
    "types": null
  }
}