{
  "address": "0x2ec68c63bFf1a987d05a6Ad19448cd8Ab6Cc0FbD",
  "abi": [
    {
      "anonymous": false,
      "inputs": [
        {
          "indexed": true,
          "internalType": "uint256",
          "name": "termId",
          "type": "uint256"
        },
        {
          "indexed": true,
          "internalType": "address",
          "name": "participant",
          "type": "address"
        },
        {
          "indexed": true,
          "internalType": "bool",
          "name": "optedIn",
          "type": "bool"
        }
      ],
      "name": "OnYGOptInToggled",
      "type": "event"
    },
    {
      "anonymous": false,
      "inputs": [
        {
          "indexed": true,
          "internalType": "address",
          "name": "previousTermOwner",
          "type": "address"
        },
        {
          "indexed": true,
          "internalType": "address",
          "name": "newTermOwner",
          "type": "address"
        }
      ],
      "name": "TermOwnershipTransferred",
      "type": "event"
    },
    {
      "inputs": [
        {
          "internalType": "address",
          "name": "zap",
          "type": "address"
        },
        {
          "internalType": "address",
          "name": "vault",
          "type": "address"
        }
      ],
      "name": "addYieldProviders",
      "outputs": [],
      "stateMutability": "nonpayable",
      "type": "function"
    },
    {
      "inputs": [
        {
          "internalType": "uint256",
          "name": "termId",
          "type": "uint256"
        },
        {
          "internalType": "uint256",
          "name": "ethAmount",
          "type": "uint256"
        }
      ],
      "name": "depositYG",
      "outputs": [],
      "stateMutability": "nonpayable",
      "type": "function"
    },
    {
      "inputs": [
        {
          "internalType": "uint256",
          "name": "termId",
          "type": "uint256"
        }
      ],
      "name": "toggleOptInYG",
      "outputs": [],
      "stateMutability": "nonpayable",
      "type": "function"
    },
    {
      "inputs": [
        {
          "internalType": "uint256",
          "name": "termId",
          "type": "uint256"
        },
        {
          "internalType": "address",
          "name": "user",
          "type": "address"
        },
        {
          "internalType": "uint256",
          "name": "ethAmount",
          "type": "uint256"
        }
      ],
      "name": "withdrawYG",
      "outputs": [],
      "stateMutability": "nonpayable",
      "type": "function"
    }
  ],
  "transactionHash": "0x6dea37f5fae6dd722736d6c8445921b248044068fdc0f080450c87186ae56e20",
  "args": [],
  "numDeployments": 2,
  "solcInputHash": "7fd8a3dd9f976d40ffd25cccf6b1d82b",
  "bytecode": "0x608060405234801561001057600080fd5b5061063e806100206000396000f3fe608060405234801561001057600080fd5b506004361061004c5760003560e01c80630f01abab1461005157806327ff9f3514610066578063625b29311461007957806374635bf41461008c575b600080fd5b61006461005f36600461050d565b61009f565b005b610064610074366004610540565b61016d565b610064610087366004610559565b6102df565b61006461009a36600461057b565b610395565b6100a7610468565b7ff27a5986330dc78d016d8604ee1a040d5a789fbaa2d0c27f5dfded4b616b8977805460018082019092557f54e8a8686ff29033917bc917388e94ee8b0e942325ab3b576948d3ffa3ebccb10180546001600160a01b039485166001600160a01b0319918216179091557ff27a5986330dc78d016d8604ee1a040d5a789fbaa2d0c27f5dfded4b616b8978805492830181556000527fe5591b53b1a2fd8dff683feb4bd68b5f3fa07da820c1872a04be039644835eda9091018054929093169116179055565b60008181527f29d9cba46c358ba7c1b8945751229339792c7c62e3197c240fa98916e75ffbf9602090815260408083207f35fa70a6f9ae8a4d427ebe0c1be62ffd2870fecc1df41c6fda0bf5803e5628889092528220805491929091610100900460ff1660038111156101e2576101e26105b0565b146102345760405162461bcd60e51b815260206004820152601c60248201527f546f6f206c61746520746f206368616e6765205947206f707420696e0000000060448201526064015b60405180910390fd5b33600090815260048201602052604090205460ff166102885760405162461bcd60e51b815260206004820152601060248201526f4e6f742070617274206f66207465726d60801b604482015260640161022b565b336000818152600784016020526040808220805460ff81161560ff199091168117909155905190928392909187917f9c0d71d8ccd3ac3b8b8463f9dff1237a9e545a61f6e803ee0948ff02c7cef56691a450505050565b60008281527f29d9cba46c358ba7c1b8945751229339792c7c62e3197c240fa98916e75ffbf96020526040808220600281018490556003810184905560048082015460058301548451632af34be360e11b81526001600160a01b039182169381019390935260248301889052935192949316926355e697c6928692604480820193929182900301818588803b15801561037757600080fd5b505af115801561038b573d6000803e3d6000fd5b5050505050505050565b60008381527f29d9cba46c358ba7c1b8945751229339792c7c62e3197c240fa98916e75ffbf960205260408120600381018054919284926103d79084906105dc565b90915550506001600160a01b0383166000908152600882016020526040812080548492906104069084906105f5565b909155505060048181015460058301546040516316d5e29b60e11b81526001600160a01b039182169381019390935260248301859052604483018790521690632dabc53690606401600060405180830381600087803b15801561037757600080fd5b7fc8fcad8db84d3cc18b4c41d551ea0ee66dd599cde068d998e57d5e09332c131c600401546001600160a01b031633146104ef5760405162461bcd60e51b815260206004820152602260248201527f4c69624469616d6f6e643a204d75737420626520636f6e7472616374206f776e60448201526132b960f11b606482015260840161022b565b565b80356001600160a01b038116811461050857600080fd5b919050565b6000806040838503121561052057600080fd5b610529836104f1565b9150610537602084016104f1565b90509250929050565b60006020828403121561055257600080fd5b5035919050565b6000806040838503121561056c57600080fd5b50508035926020909101359150565b60008060006060848603121561059057600080fd5b833592506105a0602085016104f1565b9150604084013590509250925092565b634e487b7160e01b600052602160045260246000fd5b634e487b7160e01b600052601160045260246000fd5b818103818111156105ef576105ef6105c6565b92915050565b808201808211156105ef576105ef6105c656fea2646970667358221220744ac61c68df50f3336fe6a65e13567a5c1c861f44b001bc2af7693b8571c36464736f6c63430008120033",
  "devdoc": {
    "kind": "dev",
    "methods": {
      "depositYG(uint256,uint256)": {
        "params": {
          "ethAmount": "The amount of collateral being deposited",
          "termId": "The term id for which the collateral is being deposited"
        }
      },
      "withdrawYG(uint256,address,uint256)": {
        "params": {
          "ethAmount": "The amount of collateral being withdrawn",
          "termId": "The term id for which the collateral is being withdrawn",
          "user": "The user who is withdrawing the collateral"
        }
      }
    },
    "version": 1
  },
  "userdoc": {
    "kind": "user",
    "methods": {
      "depositYG(uint256,uint256)": {
        "notice": "This function is used to deposit collateral for yield generation"
      },
      "withdrawYG(uint256,address,uint256)": {
        "notice": "This function is used to withdraw collateral from yield generation"
      }
    },
    "version": 1
  },
  "storageLayout": {
    "storage": [],
    "types": null
  }
}