{
  "address": "0x952381E7A0e8054bf8A07D9dA6b635ce871Cd18C",
  "abi": [
    {
      "anonymous": false,
      "inputs": [
        {
          "indexed": true,
          "internalType": "uint256",
          "name": "termId",
          "type": "uint256"
        },
        {
          "indexed": true,
          "internalType": "address",
          "name": "user",
          "type": "address"
        },
        {
          "indexed": true,
          "internalType": "bool",
          "name": "optedIn",
          "type": "bool"
        }
      ],
      "name": "OnYGOptInToggled",
      "type": "event"
    },
    {
      "anonymous": false,
      "inputs": [
        {
          "indexed": true,
          "internalType": "uint256",
          "name": "termId",
          "type": "uint256"
        },
        {
          "indexed": true,
          "internalType": "address",
          "name": "user",
          "type": "address"
        },
        {
          "indexed": true,
          "internalType": "uint256",
          "name": "amount",
          "type": "uint256"
        }
      ],
      "name": "OnYieldClaimed",
      "type": "event"
    },
    {
      "inputs": [
        {
          "internalType": "uint256",
          "name": "termId",
          "type": "uint256"
        }
      ],
      "name": "claimAvailableYield",
      "outputs": [],
      "stateMutability": "nonpayable",
      "type": "function"
    },
    {
      "inputs": [
        {
          "internalType": "uint256",
          "name": "termId",
          "type": "uint256"
        },
        {
          "internalType": "address",
          "name": "user",
          "type": "address"
        }
      ],
      "name": "claimAvailableYield",
      "outputs": [],
      "stateMutability": "nonpayable",
      "type": "function"
    },
    {
      "inputs": [
        {
          "internalType": "uint256",
          "name": "termId",
          "type": "uint256"
        },
        {
          "internalType": "uint256",
          "name": "ethAmount",
          "type": "uint256"
        }
      ],
      "name": "depositYG",
      "outputs": [],
      "stateMutability": "nonpayable",
      "type": "function"
    },
    {
      "inputs": [
        {
          "internalType": "uint256",
          "name": "termId",
          "type": "uint256"
        }
      ],
      "name": "toggleOptInYG",
      "outputs": [],
      "stateMutability": "nonpayable",
      "type": "function"
    },
    {
      "inputs": [
        {
          "internalType": "string",
          "name": "providerString",
          "type": "string"
        },
        {
          "internalType": "address",
          "name": "providerAddress",
          "type": "address"
        }
      ],
      "name": "updateYieldProvider",
      "outputs": [],
      "stateMutability": "nonpayable",
      "type": "function"
    },
    {
      "inputs": [
        {
          "internalType": "uint256",
          "name": "termId",
          "type": "uint256"
        },
        {
          "internalType": "uint256",
          "name": "collateralAmount",
          "type": "uint256"
        },
        {
          "internalType": "address",
          "name": "user",
          "type": "address"
        }
      ],
      "name": "withdrawYG",
      "outputs": [
        {
          "internalType": "uint256",
          "name": "",
          "type": "uint256"
        }
      ],
      "stateMutability": "nonpayable",
      "type": "function"
    }
  ],
  "transactionHash": "0x6de37b353c68be9049ccbfd8e0f7f4b23121b131f09f4db684905b9b111b346a",
  "args": [],
  "numDeployments": 7,
  "solcInputHash": "d56c373fa6e3acb1f7b405801ddac8d0",
  "bytecode": "0x608060405234801561001057600080fd5b50610abd806100206000396000f3fe608060405234801561001057600080fd5b50600436106100625760003560e01c806327ff9f3514610067578063625b29311461007c5780636ccd44911461008f57806383da1d76146100a2578063a7cce353146100b5578063f6a40d2a146100da575b600080fd5b61007a610075366004610807565b6100ed565b005b61007a61008a366004610820565b61027a565b61007a61009d366004610807565b6103d6565b61007a6100b0366004610874565b6103e3565b6100c86100c3366004610936565b610453565b60405190815260200160405180910390f35b61007a6100e836600461096b565b61062a565b6000818152600080516020610a68833981519152602081815260408084207f35fa70a6f9ae8a4d427ebe0c1be62ffd2870fecc1df41c6fda0bf5803e56288883529320919052815460ff1661014157600080fd5b60008154610100900460ff16600381111561015e5761015e61098e565b146101b05760405162461bcd60e51b815260206004820152601c60248201527f546f6f206c61746520746f206368616e6765205947206f707420696e0000000060448201526064015b60405180910390fd5b33600090815260048201602052604090205460ff166102235760405162461bcd60e51b815260206004820152602960248201527f5061792074686520636f6c6c61746572616c207365637572697479206465706f6044820152681cda5d08199a5c9cdd60ba1b60648201526084016101a7565b336000818152600784016020526040808220805460ff81161560ff199091168117909155905190928392909187917f9c0d71d8ccd3ac3b8b8463f9dff1237a9e545a61f6e803ee0948ff02c7cef56691a450505050565b6000828152600080516020610a68833981519152602052604090819020600381018390556004810183905581516816985e5b95985d5b1d60ba1b815260018201600982018190529251908190036029018120546605a61796e5a61760cc1b825291926001600160a01b03909216919060070190815260405190819003602001812054632af34be360e11b82526001600160a01b0383811660048401526024830187905216906355e697c69085906044016000604051808303818588803b15801561034357600080fd5b505af1158015610357573d6000803e3d6000fd5b5050604051631398fee160e31b8152600481018890526001600160a01b0385169350639cc7f708925060240190506020604051808303816000875af11580156103a4573d6000803e3d6000fd5b505050506040513d601f19601f820116820180604052508101906103c891906109a4565b826005018190555050505050565b6103e08133610638565b50565b6103eb61075f565b6040517ff27a5986330dc78d016d8604ee1a040d5a789fbaa2d0c27f5dfded4b616b8977908290829061041f9086906109bd565b90815260405190819003602001902080546001600160a01b03929092166001600160a01b0319909216919091179055505050565b6000838152600080516020610a6883398151915260205260408120600581015460038201548391610486918791906107e8565b6001600160a01b03851660009081526009840160205260408120805492935087929091906104b5908490610a02565b92505081905550848260040160008282546104d09190610a1b565b9091555050604080516605a61796e5a61760cc1b815260018401600782018190529151908190036027018120546816985e5b95985d5b1d60ba1b82526001600160a01b031691600091600901908152604051908190036020018120546316d5e29b60e11b82526001600160a01b039081166004830181905260248301869052604483018b9052925060009190841690632dabc536906064016020604051808303816000875af1158015610587573d6000803e3d6000fd5b505050506040513d601f19601f820116820180604052508101906105ab91906109a4565b905060006105b98983610a1b565b6001600160a01b03891660009081526008880160205260408120805492935083929091906105e8908490610a02565b90915550506001600160a01b0388166000908152600a8701602052604081208054839290610617908490610a02565b90915550909a9950505050505050505050565b6106348282610638565b5050565b6000828152600080516020610a68833981519152602090815260408083206001600160a01b0385168452600a810190925290912054806106b15760405162461bcd60e51b81526020600482015260146024820152734e6f207969656c6420746f20776974686472617760601b60448201526064016101a7565b6001600160a01b0383166000818152600a840160205260408082208290555190919083908381818185875af1925050503d806000811461070d576040519150601f19603f3d011682016040523d82523d6000602084013e610712565b606091505b505090508061072057600080fd5b81846001600160a01b0316867f16879e095f1873a73d2185173cd45cb091d945760ca20e5b7c280a4e60cd00f060405160405180910390a45050505050565b7fc8fcad8db84d3cc18b4c41d551ea0ee66dd599cde068d998e57d5e09332c131c600401546001600160a01b031633146107e65760405162461bcd60e51b815260206004820152602260248201527f4c69624469616d6f6e643a204d75737420626520636f6e7472616374206f776e60448201526132b960f11b60648201526084016101a7565b565b6000816107f58486610a2e565b6107ff9190610a45565b949350505050565b60006020828403121561081957600080fd5b5035919050565b6000806040838503121561083357600080fd5b50508035926020909101359150565b634e487b7160e01b600052604160045260246000fd5b80356001600160a01b038116811461086f57600080fd5b919050565b6000806040838503121561088757600080fd5b823567ffffffffffffffff8082111561089f57600080fd5b818501915085601f8301126108b357600080fd5b8135818111156108c5576108c5610842565b604051601f8201601f19908116603f011681019083821181831017156108ed576108ed610842565b8160405282815288602084870101111561090657600080fd5b82602086016020830137600060208483010152809650505050505061092d60208401610858565b90509250929050565b60008060006060848603121561094b57600080fd5b833592506020840135915061096260408501610858565b90509250925092565b6000806040838503121561097e57600080fd5b8235915061092d60208401610858565b634e487b7160e01b600052602160045260246000fd5b6000602082840312156109b657600080fd5b5051919050565b6000825160005b818110156109de57602081860181015185830152016109c4565b506000920191825250919050565b634e487b7160e01b600052601160045260246000fd5b80820180821115610a1557610a156109ec565b92915050565b81810381811115610a1557610a156109ec565b8082028115828204841417610a1557610a156109ec565b600082610a6257634e487b7160e01b600052601260045260246000fd5b50049056fe29d9cba46c358ba7c1b8945751229339792c7c62e3197c240fa98916e75ffbf9a2646970667358221220cbdd49b33fc62d7ba175038f7bed603771c967363cd968034994b4e98b3cf3a564736f6c63430008120033",
  "devdoc": {
    "kind": "dev",
    "methods": {
      "claimAvailableYield(uint256)": {
        "params": {
          "termId": "The term id for which the yield is being claimed"
        }
      },
      "claimAvailableYield(uint256,address)": {
        "params": {
          "termId": "The term id for which the yield is being claimed",
          "user": "The user address that is claiming the yield"
        }
      },
      "depositYG(uint256,uint256)": {
        "params": {
          "ethAmount": "The amount of collateral being deposited",
          "termId": "The term id for which the collateral is being deposited"
        }
      },
      "withdrawYG(uint256,uint256,address)": {
        "params": {
          "collateralAmount": "The amount of collateral being withdrawn",
          "termId": "The term id for which the collateral is being withdrawn"
        }
      }
    },
    "version": 1
  },
  "userdoc": {
    "kind": "user",
    "methods": {
      "claimAvailableYield(uint256)": {
        "notice": "This function allows a user to claim the current available yield"
      },
      "claimAvailableYield(uint256,address)": {
        "notice": "This function allows a user to claim the current available yield"
      },
      "depositYG(uint256,uint256)": {
        "notice": "This function is used to deposit collateral for yield generation"
      },
      "withdrawYG(uint256,uint256,address)": {
        "notice": "This function is used to withdraw collateral from the yield generation protocol"
      }
    },
    "version": 1
  },
  "storageLayout": {
    "storage": [],
    "types": null
  }
}