{
  "address": "0xc368Ad99Ad5E3e11B3E2584BF1c0826CC6a1c745",
  "abi": [
    {
      "anonymous": false,
      "inputs": [
        {
          "indexed": true,
          "internalType": "uint256",
          "name": "termId",
          "type": "uint256"
        },
        {
          "indexed": true,
          "internalType": "address",
          "name": "user",
          "type": "address"
        },
        {
          "indexed": true,
          "internalType": "bool",
          "name": "optedIn",
          "type": "bool"
        }
      ],
      "name": "OnYGOptInToggled",
      "type": "event"
    },
    {
      "anonymous": false,
      "inputs": [
        {
          "indexed": true,
          "internalType": "uint256",
          "name": "termId",
          "type": "uint256"
        },
        {
          "indexed": true,
          "internalType": "address",
          "name": "user",
          "type": "address"
        },
        {
          "indexed": true,
          "internalType": "uint256",
          "name": "amount",
          "type": "uint256"
        }
      ],
      "name": "OnYieldClaimed",
      "type": "event"
    },
    {
      "inputs": [
        {
          "internalType": "uint256",
          "name": "termId",
          "type": "uint256"
        }
      ],
      "name": "claimAvailableYield",
      "outputs": [],
      "stateMutability": "nonpayable",
      "type": "function"
    },
    {
      "inputs": [
        {
          "internalType": "uint256",
          "name": "termId",
          "type": "uint256"
        },
        {
          "internalType": "address",
          "name": "user",
          "type": "address"
        }
      ],
      "name": "claimAvailableYield",
      "outputs": [],
      "stateMutability": "nonpayable",
      "type": "function"
    },
    {
      "inputs": [
        {
          "internalType": "uint256",
          "name": "termId",
          "type": "uint256"
        },
        {
          "internalType": "uint256",
          "name": "ethAmount",
          "type": "uint256"
        }
      ],
      "name": "depositYG",
      "outputs": [],
      "stateMutability": "nonpayable",
      "type": "function"
    },
    {
      "inputs": [
        {
          "internalType": "uint256",
          "name": "termId",
          "type": "uint256"
        },
        {
          "internalType": "bool",
          "name": "optIn",
          "type": "bool"
        }
      ],
      "name": "toggleOptInYG",
      "outputs": [],
      "stateMutability": "nonpayable",
      "type": "function"
    },
    {
      "inputs": [
        {
          "internalType": "string",
          "name": "providerString",
          "type": "string"
        },
        {
          "internalType": "address",
          "name": "providerAddress",
          "type": "address"
        }
      ],
      "name": "updateYieldProvider",
      "outputs": [],
      "stateMutability": "nonpayable",
      "type": "function"
    },
    {
      "inputs": [
        {
          "internalType": "uint256",
          "name": "termId",
          "type": "uint256"
        },
        {
          "internalType": "uint256",
          "name": "collateralAmount",
          "type": "uint256"
        },
        {
          "internalType": "address",
          "name": "user",
          "type": "address"
        }
      ],
      "name": "withdrawYG",
      "outputs": [
        {
          "internalType": "uint256",
          "name": "",
          "type": "uint256"
        }
      ],
      "stateMutability": "nonpayable",
      "type": "function"
    }
  ],
  "args": [],
  "numDeployments": 2,
  "solcInputHash": "c5035efd64456f874a006856b57fdabf",
  "bytecode": "0x608060405234801561001057600080fd5b50610a47806100206000396000f3fe608060405234801561001057600080fd5b50600436106100625760003560e01c8063625b2931146100675780636ccd44911461007c57806383da1d761461008f578063a7cce353146100a2578063c286b292146100c7578063f6a40d2a146100da575b600080fd5b61007a61007536600461075c565b6100ed565b005b61007a61008a36600461077e565b610249565b61007a61009d3660046107c9565b610256565b6100b56100b036600461088b565b6102c6565b60405190815260200160405180910390f35b61007a6100d53660046108c0565b6104a6565b61007a6100e83660046108f5565b6105ad565b60008281526000805160206109f2833981519152602052604090819020600381018390556004810183905581516816985e5b95985d5b1d60ba1b815260018201600982018190529251908190036029018120546605a61796e5a61760cc1b825291926001600160a01b03909216919060070190815260405190819003602001812054632af34be360e11b82526001600160a01b0383811660048401526024830187905216906355e697c69085906044016000604051808303818588803b1580156101b657600080fd5b505af11580156101ca573d6000803e3d6000fd5b5050604051631398fee160e31b8152600481018890526001600160a01b0385169350639cc7f708925060240190506020604051808303816000875af1158015610217573d6000803e3d6000fd5b505050506040513d601f19601f8201168201806040525081019061023b9190610918565b826005018190555050505050565b61025381336105bb565b50565b61025e6106d3565b6040517ff27a5986330dc78d016d8604ee1a040d5a789fbaa2d0c27f5dfded4b616b89779082908290610292908690610931565b90815260405190819003602001902080546001600160a01b03929092166001600160a01b0319909216919091179055505050565b60008381526000805160206109f283398151915260205260408120600381015460058201548391906102f89087610976565b6103029190610993565b6001600160a01b03851660009081526009840160205260408120805492935087929091906103319084906109b5565b925050819055508482600401600082825461034c91906109c8565b9091555050604080516605a61796e5a61760cc1b815260018401600782018190529151908190036027018120546816985e5b95985d5b1d60ba1b82526001600160a01b031691600091600901908152604051908190036020018120546316d5e29b60e11b82526001600160a01b039081166004830181905260248301869052604483018b9052925060009190841690632dabc536906064016020604051808303816000875af1158015610403573d6000803e3d6000fd5b505050506040513d601f19601f820116820180604052508101906104279190610918565b9050600061043589836109c8565b6001600160a01b03891660009081526008880160205260408120805492935083929091906104649084906109b5565b90915550506001600160a01b0388166000908152600a87016020526040812080548392906104939084906109b5565b90915550909a9950505050505050505050565b60008281526000805160206109f2833981519152602090815260408083207f35fa70a6f9ae8a4d427ebe0c1be62ffd2870fecc1df41c6fda0bf5803e5628889092528220805491929091610100900460ff166003811115610509576105096109db565b1461055b5760405162461bcd60e51b815260206004820152601c60248201527f546f6f206c61746520746f206368616e6765205947206f707420696e0000000060448201526064015b60405180910390fd5b336000818152600784016020526040808220805460ff1916871515908117909155905190929187917f9c0d71d8ccd3ac3b8b8463f9dff1237a9e545a61f6e803ee0948ff02c7cef5669190a450505050565b6105b782826105bb565b5050565b60008281526000805160206109f2833981519152602090815260408083206001600160a01b0385168452600a810190925290912054806106345760405162461bcd60e51b81526020600482015260146024820152734e6f207969656c6420746f20776974686472617760601b6044820152606401610552565b6000836001600160a01b03168260405160006040518083038185875af1925050503d8060008114610681576040519150601f19603f3d011682016040523d82523d6000602084013e610686565b606091505b505090508061069457600080fd5b81846001600160a01b0316867f16879e095f1873a73d2185173cd45cb091d945760ca20e5b7c280a4e60cd00f060405160405180910390a45050505050565b7fc8fcad8db84d3cc18b4c41d551ea0ee66dd599cde068d998e57d5e09332c131c600401546001600160a01b0316331461075a5760405162461bcd60e51b815260206004820152602260248201527f4c69624469616d6f6e643a204d75737420626520636f6e7472616374206f776e60448201526132b960f11b6064820152608401610552565b565b6000806040838503121561076f57600080fd5b50508035926020909101359150565b60006020828403121561079057600080fd5b5035919050565b634e487b7160e01b600052604160045260246000fd5b80356001600160a01b03811681146107c457600080fd5b919050565b600080604083850312156107dc57600080fd5b823567ffffffffffffffff808211156107f457600080fd5b818501915085601f83011261080857600080fd5b81358181111561081a5761081a610797565b604051601f8201601f19908116603f0116810190838211818310171561084257610842610797565b8160405282815288602084870101111561085b57600080fd5b826020860160208301376000602084830101528096505050505050610882602084016107ad565b90509250929050565b6000806000606084860312156108a057600080fd5b83359250602084013591506108b7604085016107ad565b90509250925092565b600080604083850312156108d357600080fd5b82359150602083013580151581146108ea57600080fd5b809150509250929050565b6000806040838503121561090857600080fd5b82359150610882602084016107ad565b60006020828403121561092a57600080fd5b5051919050565b6000825160005b818110156109525760208186018101518583015201610938565b506000920191825250919050565b634e487b7160e01b600052601160045260246000fd5b808202811582820484141761098d5761098d610960565b92915050565b6000826109b057634e487b7160e01b600052601260045260246000fd5b500490565b8082018082111561098d5761098d610960565b8181038181111561098d5761098d610960565b634e487b7160e01b600052602160045260246000fdfe29d9cba46c358ba7c1b8945751229339792c7c62e3197c240fa98916e75ffbf9a264697066735822122028e21b31b6ff4140deab4e069d53cc56919604ea440a64590471d33c45106a8664736f6c63430008120033",
  "devdoc": {
    "kind": "dev",
    "methods": {
      "claimAvailableYield(uint256)": {
        "params": {
          "termId": "The term id for which the yield is being claimed"
        }
      },
      "claimAvailableYield(uint256,address)": {
        "params": {
          "termId": "The term id for which the yield is being claimed",
          "user": "The user address that is claiming the yield"
        }
      },
      "depositYG(uint256,uint256)": {
        "params": {
          "ethAmount": "The amount of collateral being deposited",
          "termId": "The term id for which the collateral is being deposited"
        }
      },
      "withdrawYG(uint256,uint256,address)": {
        "params": {
          "collateralAmount": "The amount of collateral being withdrawn",
          "termId": "The term id for which the collateral is being withdrawn"
        }
      }
    },
    "version": 1
  },
  "userdoc": {
    "kind": "user",
    "methods": {
      "claimAvailableYield(uint256)": {
        "notice": "This function allows a user to claim the current available yield"
      },
      "claimAvailableYield(uint256,address)": {
        "notice": "This function allows a user to claim the current available yield"
      },
      "depositYG(uint256,uint256)": {
        "notice": "This function is used to deposit collateral for yield generation"
      },
      "withdrawYG(uint256,uint256,address)": {
        "notice": "This function is used to withdraw collateral from the yield generation protocol"
      }
    },
    "version": 1
  },
  "storageLayout": {
    "storage": [],
    "types": null
  }
}