{
  "address": "0xFca3e71f9A5706ACea6F75CFadD904407746ab2D",
  "abi": [
    {
      "anonymous": false,
      "inputs": [
        {
          "indexed": true,
          "internalType": "uint256",
          "name": "termId",
          "type": "uint256"
        },
        {
          "indexed": true,
          "internalType": "address",
          "name": "participant",
          "type": "address"
        },
        {
          "indexed": true,
          "internalType": "bool",
          "name": "optedIn",
          "type": "bool"
        }
      ],
      "name": "OnYGOptInToggled",
      "type": "event"
    },
    {
      "anonymous": false,
      "inputs": [
        {
          "indexed": true,
          "internalType": "address",
          "name": "previousTermOwner",
          "type": "address"
        },
        {
          "indexed": true,
          "internalType": "address",
          "name": "newTermOwner",
          "type": "address"
        }
      ],
      "name": "TermOwnershipTransferred",
      "type": "event"
    },
    {
      "inputs": [
        {
          "internalType": "uint256",
          "name": "termId",
          "type": "uint256"
        },
        {
          "internalType": "address",
          "name": "yieldProvider",
          "type": "address"
        },
        {
          "internalType": "address",
          "name": "vault",
          "type": "address"
        }
      ],
      "name": "addYieldProviders",
      "outputs": [],
      "stateMutability": "nonpayable",
      "type": "function"
    },
    {
      "inputs": [
        {
          "internalType": "uint256",
          "name": "termId",
          "type": "uint256"
        },
        {
          "internalType": "uint256",
          "name": "ethAmount",
          "type": "uint256"
        }
      ],
      "name": "depositYG",
      "outputs": [],
      "stateMutability": "nonpayable",
      "type": "function"
    },
    {
      "inputs": [
        {
          "internalType": "uint256",
          "name": "termId",
          "type": "uint256"
        }
      ],
      "name": "toggleOptInYG",
      "outputs": [],
      "stateMutability": "nonpayable",
      "type": "function"
    },
    {
      "inputs": [
        {
          "internalType": "uint256",
          "name": "termId",
          "type": "uint256"
        },
        {
          "internalType": "address",
          "name": "user",
          "type": "address"
        },
        {
          "internalType": "uint256",
          "name": "ethAmount",
          "type": "uint256"
        }
      ],
      "name": "withdrawYG",
      "outputs": [],
      "stateMutability": "nonpayable",
      "type": "function"
    }
  ],
  "transactionHash": "0x2c15f0a0fc3b053ff2e39ad61d4f6d4b4da967620de96742e54a3572ed2debf9",
  "args": [],
  "numDeployments": 1,
  "solcInputHash": "170280041a9111201cdb7b99d57489f8",
  "bytecode": "0x608060405234801561001057600080fd5b506106d2806100206000396000f3fe608060405234801561001057600080fd5b506004361061004c5760003560e01c8063064a02a61461005157806327ff9f3514610066578063625b29311461007957806374635bf41461008c575b600080fd5b61006461005f366004610562565b61009f565b005b61006461007436600461059e565b610149565b6100646100873660046105b7565b6102a9565b61006461009a3660046105d9565b61039a565b600083815260008051602061067d83398151915260205260408120600181018054919285926100d0576100d061060e565b9060005260206000200160006101000a8154816001600160a01b0302191690836001600160a01b0316021790555081816001016001815481106101155761011561060e565b9060005260206000200160006101000a8154816001600160a01b0302191690836001600160a01b0316021790555050505050565b600081815260008051602061067d833981519152602090815260408083207f35fa70a6f9ae8a4d427ebe0c1be62ffd2870fecc1df41c6fda0bf5803e5628889092528220805491929091610100900460ff1660038111156101ac576101ac610624565b146101fe5760405162461bcd60e51b815260206004820152601c60248201527f546f6f206c61746520746f206368616e6765205947206f707420696e0000000060448201526064015b60405180910390fd5b33600090815260048201602052604090205460ff166102525760405162461bcd60e51b815260206004820152601060248201526f4e6f742070617274206f66207465726d60801b60448201526064016101f5565b336000818152600484016020526040808220805460ff81161560ff199091168117909155905190928392909187917f9c0d71d8ccd3ac3b8b8463f9dff1237a9e545a61f6e803ee0948ff02c7cef56691a450505050565b816102b3816104ac565b600083815260008051602061067d833981519152602052604081206005810184905560068101849055600181018054919290916102f2576102f261060e565b600091825260209091200154600182810180546001600160a01b03909316926355e697c69287929181106103285761032861060e565b60009182526020909120015460405160e084901b6001600160e01b03191681526001600160a01b039091166004820152602481018890526044016000604051808303818588803b15801561037b57600080fd5b505af115801561038f573d6000803e3d6000fd5b505050505050505050565b826103a4816104ac565b600084815260008051602061067d83398151915260205260408120600681018054919285926103d4908490610650565b90915550506001600160a01b038416600090815260078201602052604081208054859290610403908490610669565b909155505060018101805460009061041d5761041d61060e565b600091825260209091200154600182810180546001600160a01b0390931692632dabc536929081106104515761045161060e565b60009182526020909120015460405160e083901b6001600160e01b03191681526001600160a01b0390911660048201526024810186905260448101889052606401600060405180830381600087803b15801561037b57600080fd5b60008181527f87101b21d556417ad2b8e8f2700dbad90721d5d50a1f435f2dee0b9dc981ac8a60205260409020546001600160a01b036101009091041633146105435760405162461bcd60e51b8152602060048201526024808201527f5465726d4f776e61626c653a2063616c6c6572206973206e6f7420746865206f6044820152633bb732b960e11b60648201526084016101f5565b50565b80356001600160a01b038116811461055d57600080fd5b919050565b60008060006060848603121561057757600080fd5b8335925061058760208501610546565b915061059560408501610546565b90509250925092565b6000602082840312156105b057600080fd5b5035919050565b600080604083850312156105ca57600080fd5b50508035926020909101359150565b6000806000606084860312156105ee57600080fd5b833592506105fe60208501610546565b9150604084013590509250925092565b634e487b7160e01b600052603260045260246000fd5b634e487b7160e01b600052602160045260246000fd5b634e487b7160e01b600052601160045260246000fd5b818103818111156106635761066361063a565b92915050565b808201808211156106635761066361063a56fe29d9cba46c358ba7c1b8945751229339792c7c62e3197c240fa98916e75ffbf9a26469706673582212209b15a7e3ca37693a29fbddb2a23ba9c9e28421dd42106997dde471e7f3fe3a0864736f6c63430008120033",
  "devdoc": {
    "kind": "dev",
    "methods": {
      "depositYG(uint256,uint256)": {
        "params": {
          "ethAmount": "The amount of collateral being deposited",
          "termId": "The term id for which the collateral is being deposited"
        }
      },
      "withdrawYG(uint256,address,uint256)": {
        "params": {
          "ethAmount": "The amount of collateral being withdrawn",
          "termId": "The term id for which the collateral is being withdrawn",
          "user": "The user who is withdrawing the collateral"
        }
      }
    },
    "version": 1
  },
  "userdoc": {
    "kind": "user",
    "methods": {
      "depositYG(uint256,uint256)": {
        "notice": "This function is used to deposit collateral for yield generation"
      },
      "withdrawYG(uint256,address,uint256)": {
        "notice": "This function is used to withdraw collateral from yield generation"
      }
    },
    "version": 1
  },
  "storageLayout": {
    "storage": [],
    "types": null
  }
}